:100000003DB8F3960000000000020000B07D09003A
:1000100000000000030000000000000000000000DD
:10002000FFFFFFFFFFFFFFFFFFFFFFFFFFFFFFFFE0
:10003000FFFFFFFFFFFFFFFFFFFFFFFFFFFFFFFFD0
:10004000FFFFFFFFFFFFFFFFFFFFFFFFFFFFFFFFC0
:10005000FFFFFFFFFFFFFFFFFFFFFFFFFFFFFFFFB0
:10006000FFFFFFFFFFFFFFFFFFFFFFFFFFFFFFFFA0
:10007000FFFFFFFFFFFFFFFFFFFFFFFFFFFFFFFF90
:10008000FFFFFFFFFFFFFFFFFFFFFFFFFFFFFFFF80
:10009000FFFFFFFFFFFFFFFFFFFFFFFFFFFFFFFF70
:1000A000FFFFFFFFFFFFFFFFFFFFFFFFFFFFFFFF60
:1000B000FFFFFFFFFFFFFFFFFFFFFFFFFFFFFFFF50
:1000C000FFFFFFFFFFFFFFFFFFFFFFFFFFFFFFFF40
:1000D000FFFFFFFFFFFFFFFFFFFFFFFFFFFFFFFF30
:1000E000FFFFFFFFFFFFFFFFFFFFFFFFFFFFFFFF20
:1000F000FFFFFFFFFFFFFFFFFFFFFFFFFFFFFFFF10
:10010000FFFFFFFFFFFFFFFFFFFFFFFFFFFFFFFFFF
:10011000FFFFFFFFFFFFFFFFFFFFFFFFFFFFFFFFEF
:10012000FFFFFFFFFFFFFFFFFFFFFFFFFFFFFFFFDF
:10013000FFFFFFFFFFFFFFFFFFFFFFFFFFFFFFFFCF
:10014000FFFFFFFFFFFFFFFFFFFFFFFFFFFFFFFFBF
:10015000FFFFFFFFFFFFFFFFFFFFFFFFFFFFFFFFAF
:10016000FFFFFFFFFFFFFFFFFFFFFFFFFFFFFFFF9F
:10017000FFFFFFFFFFFFFFFFFFFFFFFFFFFFFFFF8F
:10018000FFFFFFFFFFFFFFFFFFFFFFFFFFFFFFFF7F
:10019000FFFFFFFFFFFFFFFFFFFFFFFFFFFFFFFF6F
:1001A000FFFFFFFFFFFFFFFFFFFFFFFFFFFFFFFF5F
:1001B000FFFFFFFFFFFFFFFFFFFFFFFFFFFFFFFF4F
:1001C000FFFFFFFFFFFFFFFFFFFFFFFFFFFFFFFF3F
:1001D000FFFFFFFFFFFFFFFFFFFFFFFFFFFFFFFF2F
:1001E000FFFFFFFFFFFFFFFFFFFFFFFFFFFFFFFF1F
:1001F000FFFFFFFFFFFFFFFFFFFFFFFFFFFFFFFF0F
:1002000040E5022099EA0200DF46070085EA020085
:1002100085EA020085EA020085EA0200000000008B
:100220000000000000000000000000008DEC020053
:1002300085EA02000000000059EC020085EA020095
:100240004DEE020083AD07004DEE02004DEE0200C0
:100250004DEE02004DEE02004DEE02004DEE0200AA
:1002600039AD07004DEE02004DEE02006DAD070006
:100270004DEE02004DEE02004DEE02004DEE02008A
:100280004DEE02004DEE02004DEE02004DEE02007A
:100290004DEE02004DEE02004DEE02004DEE02006A
:1002A0004DEE02004DEE02004DEE02004DEE02005A
:1002B0004DEE02004DEE02004DEE02004DEE02004A
:1002C0004DEE02004DEE02004DEE02004DEE02003A
:1002D0004DEE02004DEE02004DEE02004DEE02002A
:1002E0004DEE02004DEE02004DEE02004DEE02001A
:1002F0004DEE02004DEE02004DEE02004DEE02000A
:1003000001F0FF01102A2BDB10F0070F08D010F8C6
:10031000013B013A8B422DD010F0070F42B3F6D1CA
:10032000F0B441EA012141EA014122F007047FF0E3
:1003300000070023F0E80256083C85EA010586EA3A
:10034000010685FA47F5A3FA87F586FA47F6A5FA76
:1003500087F68EB9EED1F0BC01F0FF0102F0070282
:1003600032B110F8013B013A83EA010313B1F8D12D
:100370000020704701387047002D06BF354603380E
:10038000073815F0010F07D1013015F4807F02BF47
:10039000013015F4C03F0130F0BC0138704700BF98
:1003A0002DE9F00791E8F807B2E802105B1854EB6A
:1003B0000C04B2E802104D4156EB0C06B2E80210F4
:1003C0004F4158EB0C08B2E8021059EB01095AEB07
:1003D0000C0A80E8F80780410130BDE8F00770475B
:1003E0002DE9F00791E8F807B2E802105B1A74EB08
:1003F0000C04B2E802108D4176EB0C06B2E8021054
:100400008F4178EB0C08B2E8021079EB01097AEB26
:100410000C0A80E8F80780414042BDE8F0077047C9
:100420002DE9F007524290E87800B1E880071740C4
:10043000DB1918EA020854EB080419EA020955EB23
:1004400009051AEA020A56EB0A0678C090E8780015
:10045000B1E8800717407B4118EA020854EB080412
:1004600019EA020955EB09051AEA020A56EB0A06CF
:1004700078C080410130BDE8F00770472DE9F007F2
:10048000524290E87800B1E880071740DB1B18EA79
:10049000020874EB080419EA020975EB09051AEA67
:1004A000020A76EB0A0678C090E87800B1E8800787
:1004B0001740BB4118EA020874EB080419EA020964
:1004C00075EB09051AEA020A76EB0A0678C0804144
:1004D0004042BDE8F00770472DE9F00152424FF06D
:1004E000040890E8300091E8C000A31B1340E41A10
:1004F000F618EB1B1340ED1AFF1830C0C0C1B8F15D
:100500000108EED1BDE8F001704700BF00B592E8E8
:10051000DC072DE9DC07B1E8805702B4A7FB0251E4
:100520000A95A8FB020BE7FB6310E9FB62B00B9195
:10053000A8FB0351EAFB6201E7FB64B5E7FB660534
:10054000E8FB6615CDF830B0A9FB03B6EAFB6316ED
:10055000ECFB6356E8FB640BE9FB641BEAFB645BA2
:10056000ECFB646B0D90ACFB0230059CEEFB625023
:10057000E9FB6460EAFB64B0E7FB6431E8FB6451CB
:10058000069CE8FB6461E9FB64B1EAFB64010E933D
:10059000A7FB0432079CE7FB6462E8FB64B2E9FB5B
:1005A0006402EAFB6412049CE9FB6453EAFB6463A3
:1005B000089CE7FB64B3E8FB6403E9FB6413EAFB14
:1005C00064230F955DF8049B99E80006DDF8008030
:1005D000A9FB0854EAFB68B4DDF81080ECFB680462
:1005E000EEFB6814E9FB6824EAFB6834DDF804805C
:1005F000EEFB6865E9FB68B5EAFB6805DDF8148089
:10060000ECFB6815EEFB6825E9FB6835EAFB6845FD
:100610000F96DDF80880AEFB0876E9FB6806EAFB7A
:100620006816DDF81880ECFB6826EEFB6836E9FBFF
:100630006846EAFB6856DDF80C80ECFB68B7EEFB19
:100640006807E9FB6817EAFB6827DDF81C80ECFB0C
:100650006837EEFB6847E9FB6857EAFB686708B054
:1006600000BD00BF2DE9F14F87B0FFF74FFFDDF868
:100670001C8008F1200888E8FF00FFBC87E87F089D
:10068000BDE8F08F00B591E89857A3FB03520195A0
:10069000A3FB0401E3FB6420E3FB67100292A3FBCE
:1006A0000752E3FB6802E4FB6415E3FB6805E3FB28
:1006B00069250391A4FB07B6E3FB6926E3FB6A56B1
:1006C000E4FB670BE4FB682BE3FB6A5BE3FB6C6B0F
:1006D0000490A4FB0810E4FB6950E3FB6C60E3FBAF
:1006E0006EB0E7FB6721E4FB6951E4FB6A61E3FB61
:1006F0006EB1E4FB6E010592A7FB0832E4FB6A626F
:10070000E4FB6CB2E4FB6E02E7FB6E12E7FB68539E
:10071000E7FB6963E4FB6CB3E7FB6C03E7FB6E1379
:10072000E8FB6E230695A7FB0954E7FB6AB4E7FBD9
:100730006C04E8FB6C14E8FB6E24E9FB6E34E8FB08
:100740006865E7FB6AB5E8FB6A05E8FB6C15E9FB41
:100750006C25E9FB6E35EAFB6E450796A8FB09762A
:10076000E8FB6A06E9FB6A16E9FB6C26EAFB6C36D5
:10077000EAFB6E46ECFB6E56E8FB69B7E9FB6907DE
:10078000E9FB6A17EAFB6A27EAFB6C37ECFB6C476C
:10079000ECFB6E57EEFB6E6700BD00BF2DE9F14F1D
:1007A00087B0FFF76FFFDDF81C8008F1200888E8AC
:1007B000FF00FFBC87E87F08BDE8F08F30B44FF042
:1007C000000310F8014B11F8015B013A84EA0504BB
:1007D00043EA0403F5D1A3F101034FEAD37030BC1F
:1007E000704700BF4FF0000310F8012B013943EAB6
:1007F0000203F9D1A3F101034FEAD370704700BFA0
:1008000030B411F8014B12F8015B6C4000F8014B59
:10081000013BF6D130BC70472DE9F00791E8F807AD
:10082000B2E802105B1854EB0C04B2E802104D4120
:1008300056EB0C06B2E802104F4158EB0C08B2E838
:10084000021059EB01095AEB0C0A8941B3F1FF334D
:1008500074F1FF3475F1FF3576F1000677F100078A
:1008600078F1000879F101097AF1FF3A51F10001BC
:100870005B184C414D4156F1000657F1000758F105
:10088000000859EBD1795AEB010A80E8F807BDE876
:10089000F00770472DE9F00791E8F807B2E8021079
:1008A0005B1A74EB0C04B2E802108D4176EB0C0677
:1008B000B2E802108F4178EB0C08B2E8021079EB35
:1008C00001097AEB0C0A89415B184C414D4156F104
:1008D000000657F1000758F1000859EBD1795AEB9F
:1008E000010A80E8F807BDE8F007704718EB040834
:1008F00059EB05095AEB060A5BEB070B5FF0000C9E
:100900004CF1000C18EB050859EB06095AEB070AE5
:100910005BEB070B50EB0C005FF0000C51EB0C0194
:1009200052EB0C0263414CF1000CB8EB070879F173
:1009300000097AF1000A7BEB040BA841B141A24106
:10094000B3416CF1000CBBEB050BB041B941AA41BE
:10095000BB416CF1000C4CF001068CF0020718EB67
:10096000060859EB6C095AEB6C0A7BEB6C0B70EBCD
:100970006C0471EB6C0572EB670653EB6C076CEB68
:100980006C0C18EB0C0059EB0C015AEB0C025BF1F0
:10099000000354F1000455F1000556EBDC7657EBEB
:1009A0000C0770472DE9F14F87B0FFF7AFFDDDF879
:1009B0001080DDF81490DDF818A0FFF797FFBDE870
:1009C000000FFFF793FF03B05DF8048B88E8FF008A
:1009D000BDE8F08F2DE9F14F87B0FFF753FEDDF84A
:1009E0001080DDF81490DDF818A0FFF77FFFBDE858
:1009F000000FFFF77BFF03B05DF8048B88E8FF0072
:100A0000BDE8F08F074B1B78002B4FF0000383608D
:100A10000360054B436014BF02220122FF23C27111
:100A20000372704738C0002048010800064B074A8F
:100A3000DB7802604FF442728280C3710822002387
:100A400082710372704700BF38C000209D3D0200D4
:100A5000064B074A1B7902604FF4B8728280C3715B
:100A60000822FF2382710372704700BF38C0002044
:100A7000573902002DE9F341C41D002824F0070472
:100A8000064614BF2046002000F00AFD071E04DAC7
:100A90006FF00B0002B0BDE8F0810EB9FC42F7D454
:100AA000354D297AE879AB7A6A7A0331033013F04D
:100AB000B7FE0028ECDBA978EB783C440334002E29
:100AC000194424F0030400FB01F114BF2046002068
:100AD00000F072FE20440EB90028D9DB2B790446C1
:100AE000B3B1697C19446B791944FF29D0DC033018
:100AF000002E20F0030414BF20460020AA89C9B2AA
:100B000000F0CAFE0028C3DB04440EB9002CBFDB92
:100B1000012000F0BBFCC8B1E97AB9B195F82830E2
:100B20000734002B15BF402325234FF48172282260
:100B300024F00704002E14BF2046002004F05CFFC0
:100B40000028A5DB04440EB9002CA1DBAB7BE3B18C
:100B50002B799BB10734002E24F0070414BF2046E4
:100B60000020A97B09F0B0FD002891DB044466B9A0
:100B7000002C0ADA8CE700BF38C00020012000F00A
:100B800085FC10B1EB7A002BE4D1714B1B6893B15B
:100B9000A97981B10334002E24F0030414BF204648
:100BA0000020EA7B98470028FFF672AF044416B98C
:100BB000002CFFF66DAF674B1B688BB1297C79B1B8
:100BC0000334002E24F0030414BF2046002098476D
:100BD0000028FFF65DAF044416B9002CFFF658AFAD
:100BE0005D4B1F68AFB1697C99B10334002E2B7D3A
:100BF000009324F0030414BF20460020EB7CAA7C61
:100C0000B8470028FFF644AF044416B9002CFFF69D
:100C10003FAF072000F03AFC98B1A97989B10334BD
:100C2000002E24F0030414BF20460020AA7D00F00B
:100C300021FF0028FFF62CAF044416B9002CFFF664
:100C400027AF95F82100B6FA86F77F09A0B1EB7EB1
:100C5000297E033424F00704194444F004043B467D
:100C60002246C9B200F048FF0028FFF611AF044445
:100C700016B9002CFFF60CAF95F82210002957D0BA
:100C80000734002E24F0070814BF40460020AA8C29
:100C900013F0DBFD041EFFF6FBAE444416B9002C36
:100CA000FFF6F6AE1EB1A98C40460DF0FFFF297F7E
:100CB00000293FD095F82030002B3BD0EA8B073439
:100CC000002E24F0070802F1240214BF4046002041
:100CD00092B213F0BAFD041EFFF6DAAE444416B920
:100CE000002CFFF6D5AEAB7E297E95F820000334AC
:100CF00024F00704194444F004043B462246C9B2D8
:100D000000F0ECFE0028FFF6C3AE044416B9002C38
:100D1000FFF6BEAE36B1EA8B297F083292B240466A
:100D20000DF0CAFFEB6A5BB176B1EC620020B1E670
:100D30008846B7E7002EF5D0002211461046EFE7AF
:100D4000002EF3D12046A5E62834FBD5A0E600BF4F
:100D50005C00002064000020600000201FB572B617
:100D6000184B1D6BE5B9BFF34F8F1749174BCA6876
:100D700002F4E0621343CB60BFF34F8F00BFFDE787
:100D8000B2FBF6F2DCB20133002AF9D104F1100310
:100D90006B4403F80C2C0A2234B901A8A847E2E7F7
:100DA000024600230A26EDE7631E04AEDCB256FAC3
:100DB00083F3B0FBF2F602FB1600303003F80C0CA4
:100DC0003046E9E738C0002000ED00E00400FA05F5
:100DD00013B5114CA37A8DF80130637A8DF8003089
:100DE000237AADF804306846E379ADF8023007F0B5
:100DF000FFFB18B1D9210320FFF7B0FF207D07F0DA
:100E000053FC08B1DC21F6E7E07C07F047FC08B1B1
:100E1000DD21F0E702B010BD38C0002038B505462E
:100E200000283ED011F0F0F910B94FF0FF3038BD76
:100E300017F0F9F8B0F5FA7FF7D81C4C1C48256379
:100E4000002500F09DFA26222946A01C84F8345083
:100E5000257084F82850E56211F0EEFD1B22E27146
:100E600040F21B3240F20113228140F202326380D1
:100E7000628101231F222371A281A3754FF40272A4
:100E8000F723E281E38344F60112FB236282A38409
:100E9000EFF3108472B600F03FFE2CB962B6204624
:100EA000C5E76FF01500C2E72846C0E738C000204C
:100EB000D1CD000038B51446002840F0B3805B4D1A
:100EC00095F83430032B00F0AA80B1B112B96FF05D
:100ED000150038BD0139142900F2A480DFE801F0C3
:100EE0000B1C1F2F59627F356568793B414F548534
:100EF0008896999C8E001378AB700020FFF7BAFD9E
:100F00000028B7BF0123022385F834306FF00B00AF
:100F1000A8BF85F83430DCE71378EB70EDE7937801
:100F2000002BD4D0D378002BD1D013781A2BCED964
:100F300053781A2BCBD91368C5F80730DDE713783F
:100F40006A799342C3D32B71D7E713782A799342F6
:100F5000BDD86B71D1E713782A799342B7D86B74F7
:100F6000CBE71378002BB2D05378013BDBB2F82BE0
:100F7000ADD813886B822E4B92789A70BDE71078AB
:100F800068750BF037FFB8E71378002B9FD0AB756F
:100F9000B3E7012000F07AFA237808B1012B96D943
:100FA000EB72AAE71388AB81A7E71378AB71A4E7CC
:100FB000072000F06BFA10B92378012B87D907209E
:100FC00000F064FA10B12378002B80D02378EB7303
:100FD00093E71378082B3FF67AAF2B748DE71388CD
:100FE000FF2B3FF674AFAB7387E71378EB7584E79D
:100FF00013780E2B3FF66BAF2B767EE723680D4AF6
:10100000EB61636853602389138176E713786B760D
:1010100073E71378EB7670E71378AB766DE74FF0F4
:10102000FF3056E76FF02C0053E700BF38C00020B8
:101030004AC0002054C00020F8B50D46064630B323
:1010400029B311F0070422D1124F97F83430012B45
:1010500002D16FF00B00F8BD032B02D14FF0FF302F
:10106000F9E700F0C1F80028F8D02846FFF702FDA4
:101070000028EEDB16F046FF3046F96A07F0BAFBAF
:10108000FFF7A6FE032387F834302046E3E76FF02E
:101090001500E0E738C0002010B5074C94F8343054
:1010A000032B03D107F0C2FB08F040FC13F015FD41
:1010B000002084F8340010BD38C0002050B1074B28
:1010C00003F1140253F8041B40F8041B9342F9D1B6
:1010D000002070476FF01500704700BFF17E0900D7
:1010E00010B5074B93F834403CB907F039FB0320A7
:1010F000044900F0C3F9204610BD4FF0FF30FBE774
:1011000038C0002051CA000010B5074B93F8344096
:101110003CB907F039FB0220044900F0AFF9204642
:1011200010BD4FF0FF30FBE738C000202DCA000093
:1011300010B5074B93F834403CB907F047FB01204A
:10114000044900F09BF9204610BD4FF0FF30FBE74B
:1011500038C0002005CA000010B5054B93F8344094
:101160001CB907F0AFFA204610BD4FF0FF30FBE787
:1011700038C0002010B5054B93F834401CB914F06A
:101180007AFC204610BD4FF0FF30FBE738C000204E
:1011900010B5054B93F834401CB914F06FFC204691
:1011A00010BD4FF0FF30FBE738C0002008B5064BFC
:1011B00093F83430032B03D006F08CFE002008BDDA
:1011C0004FF0FF30FBE700BF38C00020024B026841
:1011D0001A600020704700BF70C00020014B1B68E0
:1011E000184700BF70C00020024B1868003818BFB5
:1011F0000120704770C00020F7B52E4E0446071D31
:101200002C48376008F0AAFB0228054606D1294978
:10121000204612F07AFC284603B0F0BD042842D1E3
:101220003378092B0AD0252B1ED03146204612F0E8
:10123000D1FCB0F5817F2DD3722112E005213E2033
:1012400012F036FC0028F0D1F378327901A943EA94
:1012500002236846ADF8003013F0B8F80028CFD06C
:1012600053210820FFF77AFD1A213E2012F020FCBE
:101270000028DAD17368C3F30F23ADF80430694650
:10128000112301A88DF8063013F0C2F80028B7D05A
:101290006521E6E70028B3D0A178207812F008FC99
:1012A0000028B8D1ACE70828B5D10249204612F091
:1012B0005BFCB0E774C00020074B4FF0FF3141F6F4
:1012C000FF72C3E9001205490022C1E900221F2173
:1012D000C3E90212704700BF0000002078C100205F
:1012E0003F280CD801380B4BC0F3421200F01F000E
:1012F00053F8223023FA00F000F001007047FF2875
:1013000006D04038C0F34212034B00F01F00EFE755
:10131000012070470000002078C100200146074BE3
:10132000006849681A4603C240F48C221A6041F0F2
:10133000107242F4FF625A60704700BF0000002044
:101340000246024B0068516803C3704778C1002011
:101350000246024B0068516803C370470800002032
:101360000138064BC0F3421203EB820300F01F006A
:101370009B6823FA00F000F0010070470000002095
:10138000014B1860704700BF80C1002010B5FFF707
:1013900093FF13F03EFE034B1B68044603B19847CE
:1013A000204610BD80C100200B880288F0B5C3F331
:1013B0000E049EB204F11403C57CC35A02352A44BC
:1013C0002B4497B213FA82F3013B4288B3FBF7F345
:1013D00013FB07439BB29A42044A93BF22EA0603D7
:1013E000324013439BB20B80F0BD00BF0080FFFF73
:1013F0004A1E062A08B50346084604D84FF4D171A0
:101400001520FFF7ABFC094A914202D940F2A31123
:10141000F6E711B903B1196008BD2BB11B680022B2
:10142000C3E901211A1D1A600430F5E7FAFFFF7FB6
:1014300010B5114B00EB41041A786389B3FBF2F34A
:1014400003FB0223013A1A44B2F5706F027928BFF8
:1014500000231A448378B2FBF3F0194403FB1020F5
:10146000091AB1FBF3F003FB101313446FEA434373
:101470006FEA5343638110BD84C10020024B03EB2C
:1014800080035960704700BF84C10020034B03EB09
:1014900080035868003818BF0120704784C10020BD
:1014A0002DE9F04F10F0070A85B0054604D040F250
:1014B00061111720FFF752FC554F07F14006B14666
:1014C0000446B0464FF0010B57F8043B8DF80BA0D3
:1014D0003BB101A898479DF80A30082B01D9E821B3
:1014E000E7E79DF80B1081BB05B13160B94506F106
:1014F0000406E9D12DB3DFF81CE100238EF800309B
:101500001E460F2258F82200013A60B190F804A05C
:101510008178BAF1FF0F66D14FF000078E42077154
:101520003CBFCEB20123511CECD10BB18EF8006050
:101530000F2640F6FF6A58F82670002F65D1013E4D
:10154000F9D2601B05B0BDE8F08F9DF80AC0BCF170
:10155000020FE64601F1050238BF4FF0020E0EF110
:10156000FF3004EB42040444CEF100002040BDF8FB
:1015700008406444013CCCF1000C04EA0C04B4F5CE
:10158000803F4FEA420301D3F82192E775B1C31AB5
:10159000336099701C8083F803B09DF80C201A7199
:1015A000019A1A814FEA124CA3F806C004FB010409
:1015B0009CE758F82C90B9F1000F06D099F804B0C8
:1015C000D34504BF99F802904F440CF1FF3CBCF1A5
:1015D000000FEEDA3944FF29A0D90BB18EF8006074
:1015E00040F2271165E794460027F0E707EB410337
:1015F0003846A3F80AA0FFF71BFF09F10109BB78E1
:101600005FFA89F18B42F1D899E74FF00009F6E7CC
:1016100088C1002084C10020F8B54FF6FF73038015
:10162000184B03EB81030546586CB8B186780379F3
:10163000B3FBF6F206FB1233DBB219460A1D00EBD0
:101640004202B2F902705488002F09DB0131B1FB6C
:10165000F6F206FB1211C9B28B42EFD10020F8BDA1
:10166000FF29FBD0C4F30E03C4782B8024B94FF4B8
:10167000D5711720FFF772FB5380BDE8F84013F0D7
:10168000AEB800BF84C100201D4B03EB810370B5D1
:101690005C6C054644B3030404D54FF4DC71172099
:1016A000FFF75CFB0146204613F07BF8FF2801465C
:1016B00004D02046BDE8704013F091B8A078B5FB87
:1016C000F0F300FB1353DBB219460A1D04EB42068C
:1016D000B6F90260002E09DB0131B1FBF0F200FB2C
:1016E0001211C9B28B42F0D1002070BDFF29FBD08E
:1016F0008B4204EB42021CBF0023E3705580D8E705
:1017000084C10020094B03EB810310B55C6C0146DA
:10171000204613F046F8FF28014604D02046BDE8D5
:10172000104013F05CB8002010BD00BF84C1002041
:10173000F8B5104B03EB810307465C6C014620466D
:1017400013F02FF8FF28054611D0E688238953EAC5
:10175000064606D00146204613F041F801463846B9
:10176000B04720462946FFF763FE0020F8BD05205C
:10177000FCE700BF84C1002038B50E4B827903EB33
:1017800082030446586C08B9052038BD8278E17997
:101790009142F9D24B1CE37100EB41035D89B3F92F
:1017A0000A30002BF3DBA58013F019F8206000202D
:1017B000EBE700BF84C1002070B5044610F00300C1
:1017C0000E4603D04F211820FFF7C8FAFFF710FE8E
:1017D000054624B1034831460460FFF709FE284658
:1017E00070BD00BF08C200202DE9F14FDFF870B0D6
:1017F0009DF828A09DF82C901E46DBF80030074687
:101800000D4690461BB961211820FFF7A7FA5246F2
:101810000921404612F04BFE4A4684B20921304667
:1018200012F045FE14FA80F1DBF8000012F08EFF92
:10183000386018B9286001B0BDE8F08F04442C600E
:10184000386853464146092212F0EAFD28684B46A3
:101850000922314601B0BDE8F04F12F0E1BD00BFF2
:1018600008C2002070B50E46044612F033FE05464D
:10187000304612F02FFE044B2A1821461868BDE8A6
:10188000704012F087BF00BF08C20020014B1868EB
:1018900012F050BF08C200201F2AF8B504461346B4
:1018A0000ED89200033222F00303B3F5803F2DD20D
:1018B000184DACB1A00710D05F210920FFF74EFAF8
:1018C000FF2B4FEA420204D9FF339A42A8BF1A46BF
:1018D000E8E77C2AB8BF7C22E4E729706C602B81A2
:1018E00022F0030201EB81031204D80001276B6888
:1018F000120C0025EEB28E4200D3F8BD14B12618AA
:101900001F705E60104401352833F3E74FF0FF305D
:10191000F3E700BF0CC2002038B5144A14785368AE
:101920000021C8B2844203D8AB210920FFF716FA80
:101930001846013105782833002DF2D0002181703E
:1019400001241289447044688161C161920800F1E8
:101950002001051D21F8022B994245F8044B14443F
:10196000F8D100234361037038BD00BF0CC20020D2
:101970000A4B1B89B3F5FF7F4FEA930006D25A0842
:101980009B1A9BB2984238BF18467047B3F5EE6F6A
:1019900001D8FF22F4E740F27263F3E70CC20020A3
:1019A0002DE9F8434B7880460C4602F0040602F01D
:1019B000FB07D3B1DFB12E4BD4F804901D89B7BB20
:1019C00001236370AD08A761E76104F120034A4673
:1019D000211D04F1280023F8025B984241F8042BF2
:1019E0002A44F8D10023636101E0002FE3D0FF23F4
:1019F000A370002E18BF0226A3191B7D032B03D151
:101A0000022F1CBF0136F6B2A31901221A7506F186
:101A10000C0204EB8606002324F812307268A370CF
:101A2000C8F80020A8F804304046BDE8F88300213B
:101A300014226170A01810F0FFFFB5F5FF7F0FD2E0
:101A40006B08ED1AADB209EB0502C4F804902584C9
:101A5000A2606384C4F80C90A5842261E384C6E785
:101A6000B5F5EE6F4FF0FF03EBD940F27265EAE790
:101A70000CC200202DE9F84305460C46F72005214D
:101A8000914612F014FD061E22DB1DB914FB06F070
:101A9000BDE8F88315F0030703D098211920FFF75C
:101AA0005DF9DFF83480C8F81050A8F81460A5B2CA
:101AB000BBB29D42EAD9B8F814C0D8F810004B4622
:101AC00007FB0C000522F72112F0AAFC0137EFE713
:101AD0004FF0FF30DCE700BF20C2002007B5CDE9A2
:101AE00000230B4603490246081D12F0D0FF03B045
:101AF0005DF804FB38C2002013B5064CCDE9002385
:101B00000B46024604F1080104F10C0012F0BFFF7D
:101B100002B010BD38C20020134B012200214FF04B
:101B2000FF309A60C3F80012C3F80803C3F8001529
:101B3000C3F804259A60C3F80803C3F80015C3F876
:101B400004250A490A4A03F580334FF40040C3F8DC
:101B50000825C1F88000BFF34F8FBFF36F8FC1F826
:101B60008001C3F80825704700F0004000E100E064
:101B70000000F63F8C46302300B50CF8033B054BC4
:101B80008E4607CBCEF80300CCF80410CCF8082022
:101B90005DF804FB54C2002010B5154C0CF0E0F9C0
:101BA0000BF0CCFA636A608C00219847237E9BB9C6
:101BB000104B628C93E8030008F010FEE36A18886B
:101BC00008F036FD636B94F8301094F831009847B4
:101BD000002384F8383010BD94E8070004F10C03AA
:101BE00083E80700044904F1190014F0ABFFDFE7B4
:101BF00048C2002070C2002075DB0000034B93F840
:101C0000383003B97047FFF7C7BF00BF48C2002094
:101C100008B540F22B410620FFF7A0F808B5094BA4
:101C200093F83820022A07D1DA7A42F00102DA72F8
:101C3000BDE80840FFF7B0BF40F253212720FFF76F
:101C40008DF800BF48C2002070B5364E96F8283097
:101C500005460BB1012825D001292AD8336C284626
:101C60009847044628B396F8303013BB96F82830CE
:101C700013B31DBB96F84420D106C2F300152DD432
:101C8000F26C316D1278C2F3001201B382F00104DC
:101C9000BBB1738F9A0715D5F36BDC78023C18BF84
:101CA000012407E0738F1807D6D5F36BDB78022B7E
:101CB000D2D10124204670BD012DDBD00024204666
:101CC00070BD738F002BF4D1002DF3D0F6E7B6F87A
:101CD00054100029DAD0002BF3D0DAE7F16B0A7840
:101CE00002F00302032A02D1CA78022A18D0B06C8B
:101CF00012F083FC48B9F36B1B7803F00303032B4A
:101D000006D196F828300546BAE796F82830B7E7A6
:101D100006F0C8FE80F0010596F82830EDB2AFE776
:101D20000025ADE748C2002070B5254CE56AE26C9D
:101D300095F8A430A265064694F85C000BB1043017
:101D4000C0B295F87D100EB9FF282FD00BF0B6FD6C
:101D500095F8A43023B3206E0CF01EFA94F82830C6
:101D6000216EA06D003B18BF012384F88030D5E9B7
:101D70004223C4E91E230BF085F946B995F87D305E
:101D8000033B012B94BF282000200CF073FA95F838
:101D90007C1000200CF0D6FA022384F8383070BD95
:101DA000A06D0CF0F9F90BF0C9F9E6E795F87C2085
:101DB0008A42CFD00BF082FD95F8A430CAE700BF6D
:101DC00048C200202DE9F0413B4C94F83830E56AD8
:101DD000012B82B069D15FFA83F895F894300646FA
:101DE0000F4673B1638F002143F00403638785F8C6
:101DF0009410636A0420984794F828300BB185F852
:101E00009680E16B0B7803F00303032B2ED04B7805
:101E100043B3022385F89A3095F8A430DBB1E36A26
:101E200093F87D10D5E94223C4E91E2394F82830A5
:101E300094F85C200139003BC9B218BF0123032983
:101E400084F8803036D81D4B00205B5C00901C4924
:101E500001200BF09FF806B9E7B902B0BDE8F041E8
:101E6000FFF79ABE012385F89A30D5E795F89A30A6
:101E700063B9638F43F0020363870220636A984764
:101E8000E16B0B7803F00303032BC0D1032385F828
:101E90009A30C1E731463046FFF7D6FE0028DCD144
:101EA00002B0BDE8F041FFF73FBF40F2A441272058
:101EB000FEF754FFFFF7ACFE48C20020DCFA070033
:101EC000B0C2002070B5814CE56A94F85C3095F89A
:101ED000A42082B000218DF805100AB10433DBB2D2
:101EE00095F87C1010B9FF2B00F0AF80FF200BF0AD
:101EF000E5FC95F89A30032B00F2E380DFE803F06D
:101F0000021C807094F8C230ADF806307048A5F815
:101F10006C3006F0A1FD002840F09D80A06C0DF112
:101F200005020DF1060112F0FDFAE06320B195F80B
:101F3000E130002B00F0A7806648E06395F89B2015
:101F40000378D20002F0080203F0F303134395F87C
:101F50009C20920002F00402134303F0EF0203F00E
:101F60000303032B027002D1C378022B11D0A06CA3
:101F700012F043FB48B9E06B027802F00303032B35
:101F800007D006F08FFD002876D1E06B027842F092
:101F90001002027095F8A33013B14378002B41D1A1
:101FA0000CF0FAF80BF0CAF8E66B07F0DFFD20B191
:101FB000337803F00303032B61D095F87D100120E3
:101FC0000CF0C0F9E36B444A18889978A4F84400EF
:101FD000012384F8C430917084F8383002B070BDA9
:101FE0003B4806F039FD002861D0E06BC3781B2B1D
:101FF00014D1012105F110000BF092FCE06B0DE013
:10200000B5F86C30A06CADF806300DF105020DF19D
:10201000060112F087FAE06300284DD0012384F80E
:10202000C3308BE7206E0CF0B7F894F82860E16BB2
:10203000206ED5E94023B6FA86F67609C4E91E2358
:1020400084F880600BF01EF8AEE795F87D308B4287
:102050007FF44CAF4DE7638FE16B626A43F48073AA
:102060004FF4807063879047E06B012185F89510ED
:10207000C3781B2BD2D1BDE7E06B027889E7012042
:102080000DF0B8FC99E79DF8053043B1BDF8061096
:1020900014F0FFFC0123E06B84F8C3304EE70380AB
:1020A0008370E06B012114F0E9FBE06BEEE740F296
:1020B000FD212720FEF752FE40F2F3212720FEF7F4
:1020C0004DFE40F20B312720FEF748FE48C20020AB
:1020D00084C20020D8C200208CC200202DE9F04F1D
:1020E000B84C94F83830E66A87B00022022B04928C
:1020F00040F01282638C884613F04001074606D1F7
:10210000636A40209847638C43F040036384002F48
:102110005CD096F8A430002B40F05C81D4F858A035
:102120009AF8013099B2A4F85410002940F06A815D
:10213000002323659AF80050638C96F89B10C5F332
:10214000800243F400739142638400F0F080D4F87D
:102150002C9099F89A20FAB1022A00F0B78194F8ED
:102160002830002189F89A1023B199F89630002B75
:1021700040F0A28199F89530002B40F07F8199F8CA
:102180009B30D4F858A0012B0CBF0023012389F801
:102190009B309AF80050638C96F89C10C5F3C002EF
:1021A00043F40063914263844FF0000900F0C7805C
:1021B000002507F0DBFCF0B19AF8003003F00303D0
:1021C000032B18D101200DF015FC14E096F8A42083
:1021D000002A40F0F38043F48063638496F87D30F6
:1021E00094F8CE20033B0132012B84F8CE2040F23C
:1021F000D4800025A94696F8A33003B394F828307C
:1022000096F87C10F069B3FA83F35B0984F88030A8
:1022100041F64B53984294BF042000200139D6E97F
:102220004023C9B20329C4E91E2300F27A81664B18
:1022300000225B5C00926549FB220AF0ABFEB8F11C
:10224000000F08D194F8CE100120FFF7FDFC804666
:10225000002800F0DF800CF0B1F84FF00108002DED
:102260003BD1B9F1000F09D094F82830002B40F091
:102270009A80B4F809300133A4F80930002F4BD00C
:10228000B4F8053000220133A4F8053084F8CE20DC
:102290004F4808F0BBF9049830B112F02BFAE16A0C
:1022A0000022027207F0AAFB35B1E16A00232B720B
:1022B0000C22284607F070FBB8F1000F32D1638C76
:1022C0001B0607D4636A414680209847638C43F01D
:1022D0008003638407B0BDE8F08FA16D236D4D7856
:1022E000002B00F02081B4F854201846033210F07F
:1022F0002BFB0DF10E0205A9A065D4F8C80012F061
:102300000FFA059812F0F6F9294601220546D4F88D
:10231000C80012F0BCF9A4E7B4F807300133A4F800
:102320000730B5E7FFF738FC07B0BDE8F08F96F847
:102330009C10C5F3C0029142B9467FF439AF05F055
:102340000305032DD4F82CB06AD143F48053638481
:10235000638F012043F00103514663878BF894009B
:10236000636A9847D4F858A000259BF89C30013B3D
:1023700018BF01238BF89C309AF80130002B3FF4F2
:1023800018AFDBF808310133CBF80831DBF80C313A
:1023900043F10003CBF80C310BE7012000250DF0D1
:1023A00029FBA94627E7B4F80530B4F80710B6F8BA
:1023B00098200B4313433FF461AF5AE70AF030FF14
:1023C000638C08E748C20020DCFA0700B0C2002096
:1023D00070C200200AF0EAFE0AF0CCFED4F858A041
:1023E0009AF8013000287FF49DAE002B61D09AF856
:1023F000002096F89C10C2F3C002914277D099B2A7
:10240000A4F85410D4F8C80012F018F9D4F858A061
:1024100020658FE6FFF756FD002D3FF422AF5CE705
:10242000002DA2D09AF80150002D9ED043F4805385
:1024300063849BF8A4500BF011FA042894F8CC3074
:1024400006D1002D14BF1B221F22934228BF134622
:10245000D4F858A09AF801209A424ED8256D002D44
:102460003FF4A7AE94F8CD30002B53D0636A00211F
:10247000202098470025D4F858A09AE6002589F82E
:10248000955006F0F9FA002852D0638F43F0080304
:1024900063872946636A08209847D9F800310133D9
:1024A000C9F80031D9F8043143F10003C9F8043107
:1024B00065E6A4F854303BE6638F89F8961043F044
:1024C000100363871020636A984753E6A06C04A941
:1024D00012F04BF888B3D9F800310133C9F8003154
:1024E000D9F8043143F10003C9F8043137E6012378
:1024F00084F83130FFF750FBECE694F830300120DF
:1025000043F0100384F8303000250DF073FAD4F84E
:1025100058A04EE63D4628E74FF4A3612720FEF77A
:102520001DFCFFF775FB40F295412720FEF716FCD6
:1025300040F225412720FEF711FC40F20E412720F2
:10254000FEF70CFC70B50D4B0D4C0E4A1A6094F85A
:1025500038301BB1E1212720FEF700FC03F0FF0219
:1025600006460D46227608F031F9012104F190006B
:1025700014F084F9E664256670BD00BF6800002091
:1025800048C200207CEA000010B5074A92F83830B3
:1025900013B10C24204610BD03F0FF04147608F09C
:1025A00015F9204610BD00BF48C20020024B012291
:1025B00083F8CD20704700BF48C20020F0B5BF4C63
:1025C00085B002AD85E8030094F838000A9E002823
:1025D00040F0BD81002A00F0BA81002B00F0B781E5
:1025E000002E00F0B48100F0FF0184F8CD1084F8D3
:1025F000301084F8CE1084F8311084F8C41084F8B8
:10260000C3106187618495E80300236404F1280303
:1026100083E80300E56A626266630BF0E1F90AF0A1
:102620008DFD95F980000BF0E3FAA86B0BF098FD97
:10263000286A0BF0E3FA95F8B4000BF0E9FA94F885
:102640002860EA6941F64B53002E00F0C2809A429E
:1026500000F20D814D200BF0E7F801200BF000FC9B
:10266000E36A93F800327426002B40F00A8195F853
:102670007D20314601200BF01BFC914B18680BF0BC
:1026800075FDD5E90523A264C4F8C83095F88B30F0
:102690004BB9D5F8843033B1B5F8CE10B5F89820E1
:1026A0008A4200F00281D5F81411D5F81821D5F826
:1026B0001C31844ED5F810010FC6D5F82031C4F86E
:1026C0008130E36AD5F82421C6F80D2093F89E20C6
:1026D000A2F12601012940F28B8093F89F10262950
:1026E00000F08680213A012A40F20F81242900F06F
:1026F000EF8093F87C60032E08BF042605F14407A1
:102700003146384614F0DFFA314613F031FDB5F8A2
:10271000503095F87D100246934228BF1346384644
:1027200084F8C23014F095FA95F87D1095F8A470ED
:10273000B5F85860042908BF032113F019FD0FB93B
:10274000043080B2B04228BF3046C6B284F8CC60B4
:1027500007F00CFA10B12B2E38BF2B2694F8280066
:1027600084F85C6000285ED195F8A330DBB10123CA
:1027700084F88030D5E94023C4E91E23EA6941F694
:102780004B539A4298BF042095F87C30013BDBB252
:10279000032B00F2E1804C4A0021D35C0091FB2224
:1027A00048490AF0F7FB0120FFF78CFB0023C4E93E
:1027B0000033A360D5F88C302988B5F8980095F8D7
:1027C000B4206080218022710BB101221A6005B013
:1027D000F0BD9A4258D84D200BF026F830460BF049
:1027E0003FFB95F87C206E2100200BF061FB44E755
:1027F00094F82820002A33D193F8422293F87C6081
:10280000002A3FF47BAFF31E012B40F28B80D31ED6
:10281000012B40F28780012E3FF470AF012A14BFD4
:10282000022601266AE795F8A430ABB195F87D1031
:10283000D5E942230139C9B201200329C4E91E2385
:1028400084F8800000F288801F4B5B5C00210091BF
:1028500032461C490AF09EFB0120FFF765FAA5E706
:1028600093F8D62293F87C60002ACCD146E79620D4
:102870000AF0DAFFE36A93F800329D26002B3FF45A
:10288000F6AE0BF09BF8F2E696200AF0CDFF95F835
:102890007C200D4B0D4803EB4203998801F5FA713A
:1028A000A0FB013189096E319EE7B5F888100A4412
:1028B0000121A5F8CE201960F5E600BF48C200202E
:1028C00068000020B0C20020DCFA0700D34D62107F
:1028D00094F82820002A3FF40CAF93F84E2193F887
:1028E000751093F87C6002EA01035A071AD413F0BA
:1028F000010220D19B077FF501AFF31EDBB2012B54
:1029000010D9012E18BF0226F8E62429E0D094F849
:102910002820002A3FF4EDAE93F84E2193F87C6016
:10292000500701D50426E9E612F0010309D1910709
:102930007FF5E4AEE1E7033E012E8CBF1646042688
:10294000DCE6033E012E8CBF1E460426D6E640F28E
:102950006F112720FEF702FAFFF75AF908B5124B5C
:1029600093F8382092B193F8282022B993F83830A0
:10297000012B14D108BD93F83820022A0AD1DB6A52
:10298000D3F81802BDE808400BF040BCBDE8084091
:10299000FFF702B940F235212720FEF7DFF940F2B8
:1029A00031212720FEF7DAF948C20020FFF7F4B8FA
:1029B000014B1876704700BF48C20020014B93F8C6
:1029C000C400704748C20020034B93F8C30010B9FD
:1029D000588CC0F30030704748C20020024B588C1E
:1029E000C0F3C020704700BF48C20020014B93F8DD
:1029F000CE00704748C200202DE9F0411E4F8207EB
:102A0000FE6A82B0044613D4E3070ED5D6E94232FB
:102A100096F89C10013342F100020129C6E94232C6
:102A20000CBF0023012386F89C3002B0BDE8F08182
:102A30003B6DE3B1B7F854200D46B96D184603322B
:102A400091F801800FF080FF0DF1020201A9B86535
:102A5000D7F8C80011F064FE019811F04BFE012276
:102A600028604146D7F8C80011F011FECCE740F2CB
:102A700095412720FEF772F948C200201DDC0000B6
:102A8000DDE00000C5DD0000FDDB000008B540F220
:102A9000C1310620FEF762F92DE9F843002800F065
:102AA000E0800446072900F2D380DFE801F0AB2480
:102AB00024A7D11F9ECD0146204614F056FFD4F81E
:102AC0004C3100F1DB059D4240F2C680E81A322805
:102AD00038BF322003210FF011F8C4F84C510646DC
:102AE000204615F001F8002E00F09D802046BDE83C
:102AF000F84314F0FABF14F079FFD4F81C21002336
:102B000005460E4684F8483184F85131BAB150EA8E
:102B1000010314D0CA00C3001B1A42EA507262EBD0
:102B20000102D4F838115B18D4F83C1142EB0102D1
:102B3000D4E95601834272EB0103C0F09080022376
:102B400004F5A47784F8503138460EF01BFA0028BB
:102B500000F08B8094F8683103F0FF01002B6BD1FB
:102B6000D4E958026FF000439A4208BFB0F1FF3F2A
:102B700013D02046D4E9569814F0F7FED4F860310B
:102B8000D4F86421B3EB090300F1DB0062EB080227
:102B90001B1A62F10002002A4BDB94F81801394637
:102BA0000EF0E2FA00286AD0D4E95601D4E94C329A
:102BB000834272EB01071FD255EA06071CD0C01AE8
:102BC00061EB020133462A460FF020FE05FB01F3BC
:102BD000D4E94C2100FB0636A5FB005355193344BC
:102BE00043EB0103C4E94C5306E090F818010EF0E2
:102BF0009BF9002384F84031BDE8F883BDE8F84331
:102C00000BF0F0BB08F0D0FDD4F84C01CB380EF03F
:102C1000D3FE78B3204614F027FF00283FF44BAFD3
:102C2000204614F061FFD4E95623C4E94E23BDE8E1
:102C3000F883204608F0C0FD94F818010EF074F9EE
:102C4000002384F84031AFE7F4213020FEF786F806
:102C5000F8213020FEF782F8C4F84C51E0E7012358
:102C60006EE7D7213020FEF779F840F292613020EC
:102C7000FEF774F840F251213020FEF76FF840F271
:102C800096613020FEF76AF82DE9F04F04468BB0CC
:102C90000020174694F87DB002930E46069012F07D
:102CA00061FF94F801220B2A00F2C483734B33F8BE
:102CB000125094F89F200392284487F0010285B2B5
:102CC000049227B3B4F89092B4F898A0A6EB09093F
:102CD0000FFA89F9A6EB0A0AB9F1000F0FFA8AFA7E
:102CE00004F51878C0F254826549029A097801F017
:102CF000FF07002940F05C8294F84432032B00F275
:102D0000B083DFE813F0BB018201C1003A0094F800
:102D10004422032AD6D1039A0E2AD3D1B4F8D4225E
:102D2000B242CFD1B4F81C12B4F892220A44C4F8CB
:102D30004022D4F84C22C4F83822E269C4F83C227C
:102D4000204609F075FFD4F8DC22E169914205D0F4
:102D500004F1280015F0C6F8D4F8DC22E261D4F8BA
:102D6000D822E263B4F8D622A4F84020D4F8E022B6
:102D70006262022284F84422A4E7E169029B01FB1B
:102D800009F0002B00F08282B4F81C32002B40F0D6
:102D90007D8284F85B32D4F84C5294F89E1005FB87
:102DA00019092629CDF8189000F0BF8294F89F10D9
:102DB000262900F0BA82BAB3B3BBD4E9A0C2D4E9E1
:102DC0009E01604571EB020280F0468394F87D001D
:102DD000C21E012A40F2FC820BF074FE294DD4F889
:102DE000801200F5234E0EF1A10EA5FB0E3ED4E994
:102DF0009E2394F87D008439A0F1030C8A1A914433
:102E0000BCF1010FA9EB9E1940F220830BF05AFE92
:102E100000F2E732A5FB0232B4F81C32D4F84C526F
:102E200092094A44103A06929A44ABF1030305FB17
:102E30000AFADBB20AF1300A012B4FEA4A0A40F2E1
:102E4000B78258460BF03EFE0E4B00F52340A130F2
:102E5000A3FB00304FEA901958460BF02BFE0AF105
:102E60007405074AE1694D442B18536041F64B52F3
:102E7000914240F2A08206986EE000BFECFA070093
:102E800018C30020D34D6210E36BD4F83C022946EE
:102E9000184415F0BEF82946C4F84802E069BA4D56
:102EA00015F0B7F8E26994F87D9041F64B539A42D9
:102EB00098BF0230C4F84C0248460BF003FEA9F15B
:102EC000030900F55F40B9F1010F00F14100A5FBD6
:102ED000003094BF2821002101EB90118031204661
:102EE00013F057FFB4F81C32002B00F0D781D4F850
:102EF0003C32E26BD4F8480294F87DA013441B1ACC
:102F0000AAF103010693C9B2D4F83832D4F84022AA
:102F1000B4F8409002FB0305303501294FEA45051E
:102F200009F1740940F2FC8150460BF0CBFD964B41
:102F300000F52340A130A3FB00304FEA901B504620
:102F40000BF0B8FD4D44914AE1695D442B18536084
:102F50000698012284F84422D4F84C526FF4AD72E2
:102F60004D1B15449D42A0EB0700D4F888720690D3
:102F700028BF1D46D4F88C32C4F81852381843F1D3
:102F80000003C4F874320023C4F8700284F860327D
:102F900004F1440013F05BFED4E99C230544C4E92A
:102FA000A223C4F86452A4F8906209F089F820B111
:102FB000D4F864321E33C4F86432B4F80812039AA9
:102FC0008E1B002336B29E4284F86832C4BF0223AF
:102FD00084F868320E2A029A00F0B381002A40F089
:102FE000B38194F84432002B40F0CF8194F85C0216
:102FF00041460EF0B9F8002800F01E82049B84F8C8
:10300000583200200BB0BDE8F08FD4F84C02E269D2
:10301000D4F84832D4F84012B4F81C5294F87DB079
:10302000121A09FB02F20692D4F83822B4F8409042
:103030003033AA4402FB0135C9438A44ABF1030390
:1030400000FB0A55012B4FEA450509F1740940F2CE
:10305000618158460BF036FD4B4B00F52340A13003
:10306000A3FB00304FEA901A58460BF023FD4D4465
:10307000464A55442B185360069883E094F87D1017
:1030800094F81602DFF800A113F09AF88146E06B7D
:103090002946484414F0BDFF2946C4F84802E069B7
:1030A00014F0B7FFE26941F64B539A4298BF0230E1
:1030B000C4F84C0207A908A80BF088F9079B0093F5
:1030C000D4E9A201DDE908230EF082FF94F87D30F7
:1030D0000593054618460BF0F5FC059B00F55F408F
:1030E000033B012B00F1410094BF28210021AAFBE2
:1030F000003001EB90118031204613F04AFED4F8E5
:103100009432E26B94F87D00069305920BF0DAFCA2
:103110004AF2A13B00EB0B03AAFB0331069B059A85
:10312000D4F84802943B13441B1A4B445B1B94F89D
:103130007D20B4F84090A3EB91130693D31E00F1C9
:103140003005012B4FEA450509F1960940F2E5806B
:10315000104605920BF0B6FC8344AAFB0B3A059A85
:103160004FEA9A1A10460BF0A5FC4D44074A554405
:103170002B1853600698D4F89422821AB2F5917FE6
:10318000C0F05F81E169E7E6D34D621018C300200B
:10319000D4E99E01C4E9A201B4490978002284F867
:1031A0005B22D146012201F0FF0700293FF4A4ADC4
:1031B000059214F034FF059A074600283FF49CADB1
:1031C000B4F83012012940F2AE8094F8441202297A
:1031D00000F0A98094F85A12002940F0A480E06918
:1031E00041F64B57B84240F2FE8094F801120B2989
:1031F00000F220819E4B33F8115094F8443205F5CB
:10320000C865012BADB240F0F28094F8A230032BD8
:1032100040F00381D4F83C02E76B0744294605924D
:1032200014F0F7FE03463846D4F83872C4F8383242
:10323000DB1BD4F84072294603FB07F714F0E9FEC4
:10324000D4F84832C4F84802C01A07442946E06955
:1032500014F0DFFEE369059A41F64B518B42B4F856
:103260001C32D4F8401253446FEA0101A3EB090366
:103270000B44D4F84C1298BF0230C4F84C02401AE8
:1032800000FB0377012384F85A3235E594F85B326A
:10329000002B00F08A80754B5B685DE6029B002B7B
:1032A0003FF425AED4F83C32E26B94F87D0003EB9A
:1032B000020B0BF007FC00F52340A130A5FB00300A
:1032C0004FEA9019D4F84802D4F8802294F87DA0EF
:1032D000ABF1940BABEB000B9344AAF10301D4E9DF
:1032E0009E23C9B20129ABEB020B7AD950460BF0F1
:1032F000E9FB94F87DA000F2E732A5FB0235AAF1C4
:103300000301D4F84802AD09C9B2ABEB09022A4463
:103310000692F9E54FF0650AA6E64FF0650A21E747
:103320004FF0650B0BE60027E6E4B4F8D412711AEF
:1033300009043FF540AD94F8D712002918BF8B4619
:1033400039E5002A3FF452AEB4F83022D2B1B4F8D5
:10335000320294F8341200FB01118A4200F101009C
:103360007FF744AE002B3FF441AE002384F868326F
:10337000A4F8320206F000FC00F00700013084F8E7
:10338000340233E6A4F8322230E6E169D4F84C3254
:103390004046C91A12F0BBFE80B200283FF426AEA8
:1033A000149B13B3188001202CE6B4F81C32F2E40D
:1033B0004FF0650950E5084606AB51462D4A12F01C
:1033C0001CFF2A4B84F85B025B680698E169C3E541
:1033D000D4E99E01ACF1E90CACEB000C3C22E144D9
:1033E0001FE53C2591E70F4686E401200AE62946C1
:1033F000059214F00EFEE369059ABB42B4F81C7204
:10340000D4F84C3298BF02305744A7EB0907C4F8F0
:103410004C02C01A00FB07F734E794F87D1094F8CB
:103420001602E76B059212F0CBFE059A0744D4F81A
:103430003C02F3E6FFF72AFB40F27B513020FDF718
:103440008DFC40F2C6413020FDF788FCB4F81C32F8
:10345000D4F84C523C22E4E440F21A513020FDF7FB
:103460007DFC40F232513020FDF778FC18C300207B
:10347000ECFA07001CC30020F0B585B0002800F06E
:1034800015810446072900F20081DFE811F092005F
:10349000080008007B00FE0080008800FA0014F09D
:1034A00026FFD4E99E23801A61EB0301012871F104
:1034B0000003C0F20D816FF00102002382428B41B4
:1034C000C0F20181E3690BB1B0FBF3F394F89F20E4
:1034D0000E2A00F0CF80B4F89810B4F856220B44AE
:1034E0009BB2D11A0D0454BF531C01339BB2A4F8F4
:1034F000563294F85932B4F8561223B9B4F80C3253
:103500008B4200F0C680B4F8D400B4F89830B4F818
:103510009222724F0344B4F8D200013B01321B1ACD
:10352000A4F892229EB202AD3B6853B1013989B230
:10353000002220469847B4F85612014489B2A4F8F4
:103540005612731A18046ED4002300951A462046AA
:10355000FFF79AFB00284AD1D4F884303BB3B4F883
:10356000CE20B4F856329B1A1BB2002B1FDDB4F8E4
:1035700088100B44013BB3FBF1F313FB0123A4F8C8
:10358000CE3014E005B0BDE8F0400AF02BBF0120BA
:103590000CF030FA05B0BDE8F040FFF707BA90F83C
:1035A0004432042B40F08B80002380F8443205B075
:1035B000F0BD90F8583253B3B0F85622B0F89830B6
:1035C0009A426BD0D31AA0F80E32A0F89820D4E912
:1035D0009C232046C4E99E2309F018FA94F813327C
:1035E000002BE4D005B0BDE8F04014F0FCBB01288E
:1035F00060D1B4F85612B4F80832CA1A12042FD4A3
:10360000BDF80830194489B2A4F856128CE7B0F816
:103610005432B0F89810B0F85422A0F898205B1AF1
:10362000A0F80E32D3E794F8A2200394002A0CBF2E
:103630003E220822012384F8C12028468DF8083054
:1036400006F08AFD204614F0D0FB002384F84432B3
:1036500094F85C020DF068FC202384F85C32A6E745
:10366000BDF80820114489B2721A12F4004F18BF35
:103670001946C9E7B4F85612013189B2A4F85612B6
:1036800041E7CB213020FDF769FBCF213020FDF74A
:1036900065FB013189B2A4F8561234E7B0F80C3258
:1036A000A0F898309B1AA0F80E3290E7A62130209F
:1036B000FDF754FB40F254613020FDF74FFBC5216C
:1036C0003020FDF74BFB40F207613020FDF746FB51
:1036D00040F206613020FDF741FB00BF6C00002086
:1036E0002DE9F043D0F81C310026D0E9568983B08B
:1036F00080F8206105460F4683F8162280F8406165
:103700000121D0F81C0105F0F5FDD5F81C41C4E9F4
:103710009E8995F8183184F85C32C4E9A289C4F80E
:10372000947284F84462A4F890623346009632465C
:1037300031462046FFF7A8FAD0B9012384F8443275
:10374000C4F84002C4F83802A4F85602A4F854029F
:1037500084F85902B4F89830A4F89202013BA4F816
:1037600098300AF0A5FC03B0BDE8F0430DF068BA4C
:1037700040F2F3113020FDF7F1FA00BFD0F81C0140
:10378000704700BF2DE9F04385B000230322CDE947
:103790000033FF268DF806206846FDF7EDFF04464E
:1037A00020BB009D95F84031002BF5D085F868616D
:1037B0000121284614F09BF995F84031002BEBD0FD
:1037C00095F818010DF032FF95F818010EF0BEFAC9
:1037D00095F818010DF0A8FB00283CD085F8404171
:1037E0006846FDF7C9FF04460028DAD0DFF87C8080
:1037F000012388F80830002502264FF6FF771AE0EB
:10380000029BE3B193F85C22202A18D01888B842B2
:103810001BD00221FDF776FF814608B390F85C02C9
:103820000EF094FA99F85C0289F844420DF07CFBA2
:10383000202389F85C32CDE902558DF80E6002A88C
:10384000FDF79AFF04460028DAD0002388F80830F4
:1038500005B0BDE8F08340F2DF113020FDF77EFABD
:1038600040F22B113020FDF779FA00BF18C3002079
:10387000054B0022012142F210705A7258811970D2
:103880001A72FFF77FBF00BF18C300202DE9F8436D
:1038900090F84031002B76D10446884601465648C0
:1038A000154603F0FF070DF013FB202806466AD0EB
:1038B0005822394604F58C700FF0BEF884F8186170
:1038C000C4F81C81FF2384F84031B8F1000F06D002
:1038D00006F06AF900F00700013088F8340202238C
:1038E0004FF00008A4F8503184F8488114F09DFB93
:1038F00000F19E062046B6B214F0B6F8002846D075
:1039000012F030F900F5CD6189B2284614F081FB40
:103910002844C4F84C0114F0EAFC301841F10001CD
:103920004FF00109C4F85801A4F82680C4F85C11CE
:1039300084F82091204614F0ADF8002845D049467F
:10394000204614F012F8A5F2D7452D1AC4F82451D8
:103950004FF0FF326FF00043C4E9582394F8180188
:1039600004F5A4710DF000FC00283FD0D4E95623E3
:103970002046C4E94C23C4E94E23002114F0B7F8D3
:103980003846BDE8F8830C273846BDE8F883014681
:10399000204613F0EAFFDFF86480DB30C4F84C0106
:1039A000B8F80A0008B1E08CB8B9064414F09FFCDE
:1039B000361841F10001C4E95661002DC8D0AE1996
:1039C00041F10001C4E95861C8E7484614F034F9F0
:1039D000DB3D2D1AC4F82451BAE706F0E5F8B8F833
:1039E0000A30B0FBF3F202FB1300DEE740F2C11134
:1039F0003020FDF7B3F900BF99EA000018C300209A
:103A000090F840310BB90020704710B50446FF23F1
:103A100080F86831012114F06AF894F840310BB94C
:103A2000002010BD94F818010DF000FE94F8180164
:103A30000EF08CF994F818010DF076FA20B10023FD
:103A400084F84031002010BD40F2DF113020FDF736
:103A500085F900BF014B5872704700BF18C30020A2
:103A600090F8682182B910B502F0FF0490F8202187
:103A700012B90122104610BDD0E949319942F9D955
:103A800007F09AFE2246F5E700221046704700BF75
:103A900010B5044609F0E8FE074BDA68824208D305
:103AA000E16941F64B52914203D9187A80F0010046
:103AB00010BD002010BD00BF18C3002008B540F2A3
:103AC000FF1113F06EF9B0F5296F28BF4FF429608C
:103AD00080B208BD90F81332002B75D1F0B503F019
:103AE000FF0590F84432032B85B0044601D005B0A1
:103AF000F0BD14F0FCFBD4E99E23801A61EB0301B6
:103B0000012871F10003F2DB6FF00103834275EBD2
:103B100001035CDBE369B4F89820002B55D0B0FBBF
:103B2000F3F080B2531C184480B2A4F85402B4F8E5
:103B30005422B4F80C329B1A1BB2002BD7DD94F838
:103B40005C020DF073FD0028D1D0FF2384F85932B8
:103B5000B4F89850B4F8D420B4F8D230214F1544BA
:103B6000013DED1A3B68ADB20DF10E066BB1B4F834
:103B70005412013989B2002220469847B4F85432D1
:103B800010FA83F39BB2A4F85432B4F85432EB1A0F
:103B90001B04ACD4B4F85412009689B2002301225D
:103BA0002046FFF771F80028A1D0012814D1B4F8FD
:103BB0005432BDF80E2012FA83F39BB2A4F85432AB
:103BC0003B68002BD3D1E0E770471846AAE740F2E4
:103BD000AF513020FDF7C2F840F2F6513020FDF72A
:103BE000BDF800BF6C0000202DE9F043044683B00F
:103BF000062900F20081DFE801F0042512222B32B1
:103C00007600D0E99E23D0E9A00182428B41C0F02A
:103C100093807B4B1B7A03F0FF02002B7DD00423A3
:103C200084F844320AF044FA0DF00AF8B4F8982007
:103C3000A4F856220023A4F8923284F8593203B033
:103C4000BDE8F083032380F8443203B0BDE8F0837D
:103C500009F012FEC4E9A00103B0BDE8F08390F8BA
:103C60007D30DFF89C91C569D0F84C22033B40F2CF
:103C70006D1840F24511012B88BF884699F809302C
:103C800095428CBFAD1A00251BB9436C9D4228BFDD
:103C90001D4604F14400D4F8187212F0D8FF07440E
:103CA00002200DF0D7FEED1B25EAE575854228BF01
:103CB0000546022128460DF021FF00B92F44424657
:103CC0003946204613F052F8E269D4F81832C9F8A0
:103CD0000C00D0180DF070FE0028B0D140F2793100
:103CE0003020FDF73BF890F87D5028460AF0EAFEB8
:103CF000033D444900F55F40012D00F14100A1FB67
:103D0000003094BF2821002101EB90118031204622
:103D100003B0BDE8F04313F03CB8B4F80C120092C5
:103D200001232046FEF7B0FF00283FF47BAF40F2AE
:103D3000CA613020FDF712F894F85A32002B3FF494
:103D400068AF94F84432032B7FF463AF94F87D801E
:103D500011F008FF94F801320B2B4AD82A4AD4F804
:103D6000806232F81330D4F81892C51803F5C8638E
:103D70009FB2D4E99E234046B61A0AF09BFEA8F1F2
:103D80000302012AADB2A9EB000930D940460AF07E
:103D900099FE1C4B00F52342A132A3FB02239B0991
:103DA000A9EB0303A3F174025208D43B9D3205FB37
:103DB00003F3B3FBF7F36033A2EB53018E424FEAF8
:103DC000530302D313449E4201D914F02AF9E06947
:103DD000294614F01EF9E26941F64B539A4298BF06
:103DE00002300023C4F84C0284F85A3211E76523EC
:103DF000D6E7FEF74BFE40F265713020FCF7AEFFD0
:103E000018C30020D34D6210ECFA0700012A70B5E8
:103E1000064609D0022A14460D461ED04AB140F289
:103E20008F713020FCF79AFF09F01EFDC6F894024E
:103E300070BD09F019FD224601462846FFF750FCE7
:103E40000F4995F8180132460BF0C4FD0028EFD158
:103E50004FF4EF613020FCF781FFD0F8941201227B
:103E60002846FFF73DFC064995F8180132460BF04D
:103E7000B1FD0028DCD140F289713020FCF76EFFE3
:103E800079F40000F8B5044651B101295BD1002353
:103E900080F820310AF00CF9BDE8F8400CF0D0BEF3
:103EA000C58C002D47D12046D4E94C7613F09EFDF9
:103EB000401941F10001C01946EB01010022022323
:103EC000C4E95601C4E94C0184F84821A4F85031F2
:103ED00094F8683103F0FF01002BDBD1D4E95802DC
:103EE0006FF000439A4208BFB0F1FF3F0CD194F845
:103EF000180104F5A4710DF037F90028CAD140F279
:103F0000E9613020FCF72AFF2046D4E9565613F029
:103F10002CFDD4F86031D4F864215B1B00F1DB0088
:103F200062EB06021B1A62F10002002ADFDA204669
:103F300007F042FCAEE705F01FFEE58CB0FBF5F3A1
:103F400003FB1505AFE740F29F713020FCF706FF39
:103F500090F84001003818BF01207047014B58818C
:103F6000704700BF18C3002008B540F2B7213220C7
:103F7000FCF7F4FE10B582B090F8023173B903F08B
:103F8000FF02ADF804209DF804209DF805300020C4
:103F900062F3070063F30F2002B010BD0C46363801
:103FA00002F092F9182204232270ADF80430EAE7F7
:103FB000044B1B680022A3F8BB2083F8BD2083F8C4
:103FC0009020704728C3002008B505F073FA034B12
:103FD000187009F0C5FF032008BD00BF10000020C5
:103FE00038B5124C20688C3001F08AFD256801F04C
:103FF00029FD2368C5F88C00D3F88C0060B101F06E
:1040000051FD70B10AF0C8F800200AF033F92368B6
:10401000042283F8902038BD40F2EF413220FCF7B3
:104020009DFE40F2F1413220FCF798FE28C30020AB
:1040300070B53F4C236893F89020032A064635D08C
:1040400093F89020042A31D093F854309B0733D151
:104050006568002D52D0236893F85420002A43D07D
:104060007EB3284612F0D3FB18B9284612F0EAFBBB
:1040700030B3236893F89020022A4ED993F8902009
:10408000082A4FD893F89030A26803F18043126950
:10409000033B284652F8233098470C2829D8A368B8
:1040A000DB68BDE8704053F820301847D3F88C0027
:1040B00001F0F8FC0546CCE701F00AFD0546C8E72B
:1040C000236893F89020022A1DD993F89020082A9B
:1040D0001ED893F89030A26803F180435269033BE5
:1040E00052F823309847D8E741F2BB313220FCF731
:1040F00035FE41F2CE313220FCF730FE41F2B531CF
:104100003220FCF72BFE41F29B313220FCF726FED9
:1041100041F29C313220FCF721FE41F23B3132204A
:10412000FCF71CFE41F23C313220FCF717FE00BFC9
:1041300028C3002008B54FF462713220FCF70EFE50
:1041400030B50478264D8DB004F00F0402A9224644
:1041500001F0A4FE05F0AEF9042C287002D0032073
:104160000DB030BD1F4A039B146893F800C094F84B
:104170009E108C45F3D193F801C094F89F108C45A4
:10418000EDD193F802C094F8A0108C45E7D193F8D4
:1041900003C094F8A1108C45E1D193F804C094F8C1
:1041A000A2108C45DBD1597994F8A3309942D6D12D
:1041B0009DF8191094F8A4309942D0D17F280CD0E2
:1041C0000090137C127B04F18C0002A97F242C70D8
:1041D00001F0E4FD03200DB030BDFFF7ABFF00BFE1
:1041E0001000002028C300202DE9F04F044687B0BE
:1041F000062905D8DFE801F0D0502E0404040A0097
:1042000009F0AEFE032007B0BDE8F08FB14D28687D
:1042100090F89230002B00F0E98090F85430990724
:1042200040F13A81AC4A92F900307F2B00F0F381E3
:1042300002932B7B01932146FF237F24009300F1FF
:10424000420314708C30062201F0FCFC00232B7416
:104250000920D8E709F084FE9E4B186890F8542096
:104260009507CFD090F89220002ACBD09A4D95F99F
:1042700000207F2A00F0CF8102921A7B2146FF2383
:104280007F24CDE9003200F1420302228C302C70F1
:1042900001F0D8FC0320B6E78E4D827C296891F8A6
:1042A000483091F892A091F89390012A83F0010B85
:1042B00000F0A280002691F8542012F0040000F0D3
:1042C000A58091F84D70002F00F0A08091F84E70FD
:1042D000082F40F09E8091F841704FF00008BC46D6
:1042E00078B3626891F85B0092F800E0864500F0D0
:1042F00039810023059391F89120082A06D0059B67
:1043000091F84E00904208BF01230593B8F1000FC9
:1043100040F0DE80BBF1000F40F01D814046B9F156
:10432000000F09D02B6893F85630012B02D01BB92F
:10433000059B0BB1002844D109F012FE2B6893F8BD
:10434000542093073FF45EAF09F00AFEBAF1000F64
:104350003FF458AF2968A36891F84100A27C42312C
:1043600011F063FE18B9B8F1000F00F035815A4E14
:1043700096F900307F2B00F04E8102932B7B28684A
:10438000CDE9007321467F2400F1420301228C30E5
:10439000347001F057FC35E74E4D286890F85430E2
:1043A0005F071BD590F89330002B45D0636890F8D9
:1043B0005B201978914200F0A98090F85630012BCB
:1043C00001D10A201FE790F84E30082B03D090F857
:1043D00091209A42F5D009F0C3FD286890F89230F8
:1043E00073BB90F89330002B7FF40CAF09F0B8FD4D
:1043F000032007B0BDE8F08F8268567906F0C0064A
:10440000A6F14006B6FA86F6760954E791F891705F
:104410005EE7384604F0E6FC002818BF8346002E0D
:1044200040F0CA80296891F8417091F85420B04654
:10443000BC4602F0040053E790F89230002BD5D030
:1044400090F854309E0749D4D8077FF5DBAE590762
:1044500000F1DA80204B93F900207F2A00F0DB8006
:1044600002922A7B0192FF2200927F201870286816
:10447000214600F1420300228C3001F0E3FB0320CF
:104480002B6893F89320002A7FF4BDAE93F8923006
:10449000002B7FF4B8AEA9E7DA07A7D55B0700F1D8
:1044A000B0800D4A92F900307F2B00F0B480029367
:1044B00028682B7B01937F26FF230093214600F180
:1044C000420316708C30062201F0BCFB03209AE6F2
:1044D000012024E728C30020100000204F4A92F951
:1044E00000307F2B00F0978002932B7B01932146B5
:1044F000FF237F24009300F1420314708C300022CC
:1045000001F0A0FB01232B740920B9E7597890F83A
:104510005C2091427FF451AF997890F85D209142F0
:104520007FF44BAFD97890F85E2091427FF445AF8D
:10453000197990F85F2091427FF43FAF5A7990F853
:1045400060309A427FF439AF627C90F85A309A42D8
:104550007FF433AF35E7A368A27C4231604611F0A7
:1045600064FDDCE692F801E091F85C0086457FF49A
:10457000C0AE92F802E091F85D0086457FF4B9AED6
:1045800092F803E091F85E0086457FF4B2AE92F8AF
:1045900004E091F85F0086457FF4ABAE507991F866
:1045A000602090427FF4A5AE637C91F85A209A1A5D
:1045B0005342534105939EE6A168384604F0F4FD4A
:1045C0002968804691F841C091F85420F8B14CF028
:1045D000020702F0040083E6286890F85530023B99
:1045E000012B3FF60FAE002E3FF40CAE0B4E96F9AA
:1045F00000307F2B0FD002932A7BFE23CDE90032BF
:10460000C0E609F0ADFC4CE709F0AAFC22E76746DA
:1046100002F0040064E6FFF78DFD00BF10000020EB
:1046200010B5104A136893F8901002290FD993F827
:104630009010082910D893F89030926803F18043C5
:104640009268033BBDE8104052F82330184741F20E
:10465000BB413220FCF782FB41F2BC413220FCF727
:104660007DFB00BF28C3002038B51C4D2B6893F894
:104670009020022A2CD8027C83F89820C168196700
:104680001A44044692F8BE2083F8BA2042685A675A
:10469000037A022B0ED009F0A3F909F039FE08F0D5
:1046A000EFFB0F4809F062FD0E4809F059FD0E4876
:1046B00009F0A4FA637C03B938BD2868643011F0AE
:1046C000AAFC2B68DB6E002BF6D001221A6038BDE5
:1046D00040F6E2013220FCF741FB00BF28C3002076
:1046E000DC00002055555500D6BE898E2DE9F041DD
:1046F0006A4C6368D4F80080002205461A80184688
:104700000F4609F049FD032D38D0052D4BD06068C8
:1047100008F19E0111F071FE98F8A410606811F084
:1047200080FE236893F8482093F8417003F1420615
:104730005AB193F85420520719D493F8910004F019
:104740006DFD00281CBF064601276068314611F048
:104750004DFE6068394611F057FE514BD3F80431D5
:10476000002B40F09680052D12D0BDE8F08193F823
:104770004D20002AE1D093F84E00E0E7606803780E
:1047800023F00F0343F0030303700C234370BFE7D0
:10479000236831681A6DC2F80A10B188D1811B6D87
:1047A0005F72BDE8F081D4E90006317821F02F0175
:1047B00041EA471141F00501222331707370036D06
:1047C0001B6AC6F80F30026D936BF3741F0A1B0C43
:1047D00037757375D369B2F8407041F64B518B420F
:1047E000D16B3BD9DFF8BCC0ACFB01E1890AACFB63
:1047F00007C7BF0AF175C1F30721B775317629499B
:10480000A1FB0313C3F38F2373761B0AB376938C38
:10481000F3761B0A3377D38C73771B0AB377D2F8FE
:10482000A730C6F81F3092F8AB3086F82330036DFE
:1048300096F8242093F8B23022F01F0203F01F03F1
:10484000134386F8243004F05DF896F8243003F022
:104850001F0343EA401386F8243058E7DFF848C0C6
:10486000ACFB01E14909ACFB07C77F09F175C1F356
:104870000721B7753176A3F57A7741F270718F42CF
:10488000BDD80A49A1FB03139B0903F550639BB2F2
:10489000BAE740F22F613220FCF760FA28C300200B
:1048A000001000405917B7D11F85EB51D34D62104E
:1048B00010B50A4C04F0FEFD094A637B10701BB969
:1048C00009F04EFB032010BD09F022FD08F0D8FAD4
:1048D0000023637309F044FB032010BD28C30020AC
:1048E0001000002010B50E4C637B8BB9206800F1DE
:1048F000BB020023012180F89010A0F8BB308C305F
:10490000937001F0FDF82068BDE8104002F08CBB08
:1049100009F0FEFC08F0B4FA00236373E6E700BF79
:1049200028C300202DE9F047072986B00E4604462B
:1049300091464ED14068002800F09080637C012BA6
:1049400000F0BF80DFF8DC82D8F8003093F89100E7
:10495000082861D004AA0DF10F0104F035FB0028EE
:1049600000F079819DF80F0004A912F053FD07466D
:10497000D8F8005095F8543013F0030140F0B2809D
:1049800013F0040385F8921076D185F89330A64B86
:104990001B6833B149462046984785F89400D8F8FB
:1049A0000050636843B1627C85F8A4201A68C5F89A
:1049B0009E209B88A5F8A23095F894300120002B0A
:1049C00000F04E81A3680BB1072E3AD006B0BDE8C7
:1049D000F0874768002F00F09080437C012BB1D115
:1049E0007B7903F0C003402BACD1DFF8388298F814
:1049F0000D30002B71D0D8F8005011F05AFBD8F8C8
:104A0000003085F8910093F8910088F80C0001239C
:104A1000082888F80E309DD16168607C12F0FAFC9D
:104A2000D8F80020616807469132607C04F002FAF1
:104A300000289DD1D8F80050A5F8920085F8940080
:104A4000C0E795F891100829C0D00028BED01846BC
:104A500004F0F0FA012388F80F30B7E7DFF8C481DB
:104A6000002A4DD0D8F8005095F8543013F00307C1
:104A700040F09180394683E7062E95F84D3003D8F3
:104A8000002B82D13B4680E795F893A0082E6ED884
:104A9000B9F1000F00F0BE80BAF1000F67D0626874
:104AA000002AEDD1D5F88C00019301F0F1F918B985
:104AB000019B002B00F0CB800127D8F800503B462B
:104AC00063E7437903F0C003402B7FF43BAFDFF88B
:104AD000548198F80D30002B4BD1D8F8003093F862
:104AE000910035E7062E95F84C1032D800297FF456
:104AF00047AF3A463946174642E7DFF8288137E79D
:104B0000D8F8002092F8543013F0030118BF0121A7
:104B100013F0040382F8921005D02378A3F1010367
:104B2000B3FA83F35B0982F8933092F88030002B5C
:104B30003FF44CAFD8F80030D86F503013F0AAF9DA
:104B400000287FF443AFD8F80030012283F8942086
:104B50003CE7082E3AD9002213F0040385F892208E
:104B60003FF413AF95F84D3095F893A08EE70023EE
:104B70000BE7B9F1000F7FF43EAFD8F8005095F87D
:104B8000BA1001297FF439AF04F036FA88F80D0025
:104B90000028A2D02FE795F84C1095F892A0074670
:104BA000BAF1000FD7D06268002A9FD1D5F88C00E7
:104BB000019101F06DF910B90199002942D03A46EE
:104BC0000127D8F8005095F8543093E795F892A053
:104BD000B9F1000FE4D16268002A87D16278D0066B
:104BE00024D5012185F892105907C0D595F84D308C
:104BF00095F893A00193D30612D4D5F88C0001F058
:104C000047F9019B00283FF454AFBAF1000F3FF47D
:104C100050AF51E76268002A7FF432AF6278E9E76B
:104C20000123B2E628C3002070000020D5F88C00D4
:104C3000019101F02DF901990028BED0BAF1000FC1
:104C4000BBD0BCE704F0F0F83A460746B9E704F0F9
:104C5000EBF8074631E740F6A2313220FCF77EF848
:104C6000B5F89200003818BF0120ABE670B5194EB8
:104C70008AB0054604F01EFC3368174A93F8543096
:104C8000107013F0060F16D12C7804F00F04224692
:104C90002846694601F002F9214600226846FFF7DE
:104CA00041FE21466846FFF79FFA737B044643B9ED
:104CB00020460AB070BD01229621002009F00CF9AF
:104CC000E2E709F025FB08F0DBF8002320467373C8
:104CD0000AB070BD28C300201000002010B5104C91
:104CE000206801218C3000F02FFF637B8BB9206896
:104CF00000F1BB020023012180F89010A0F8BB3026
:104D00008C30937000F0FCFE2068BDE8104002F08B
:104D10008BB909F0FDFA08F0B3F800236373E6E7F6
:104D200028C3002038B5174D00210320FFF7DEFC13
:104D30002868032101F04EFB40B10121084609F02B
:104D400001FB2B68092283F8902038BD6B7B8BB95F
:104D5000286800F1BB0200230121A0F8BB3080F8D5
:104D600090108C30937000F0CBFE2868BDE838407E
:104D700002F05AB9044609F0CBFA08F081F86C73D6
:104D8000E6E700BF28C3002010B5B0B9A9B1204A9A
:104D9000136893F89010082930D993F890100C29D3
:104DA00031D893F89030926803F180435268093B00
:104DB000BDE8104052F823301847154C20680121F7
:104DC0008C3000F0C1FE637B8BB9206800F1BB0220
:104DD0000023012180F89010A0F8BB308C30937034
:104DE00000F08EFE2068BDE8104002F01DB909F009
:104DF0008FFA08F045F800236373E6E741F28B4130
:104E00003220FBF7ABFF41F28C413220FBF7A6FFCB
:104E100028C30020F0B55D4C206883B08C3000F0D2
:104E20006FFE256800F00EFE2368C5F88C00D3F8ED
:104E30008C00002800F0A58000F034FE0546002814
:104E400000F09A80236893F8B030002B58D1206886
:104E500090F8983090F89020034493F8BE7080F852
:104E6000BA701AB190F89030012B62D190F8992065
:104E7000474B1344187908F0CBFE236893F8982029
:104E8000134493F8BE60022E51D032D9F31E012B89
:104E900031D800F0D1FD314608F010FD284609F068
:104EA0007BF93146012008F0B9FE012F37D0681D8B
:104EB00004F0D0F8607348B1033F012F94BF55252B
:104EC000502507F0BFFF284609F016FA2368002294
:104ED000082103202173E281227483F89110A3F842
:104EE000922083F8942083F8812083F8900003B007
:104EF000F0BD012ECDD040F2EB713220FBF72EFF3A
:104F0000236893F8542093F8B100196DC3F83C114D
:104F1000024383F85420002283F8B02097E7E81C6E
:104F200004F098F860730028D0D04025C9E70D2020
:104F3000B1E7002101F04EFA08B1206896E7637BE3
:104F400093B9206800F1BB020023012180F8901082
:104F5000A0F8BB308C30937000F0D2FD206803B015
:104F6000BDE8F04002F060B8019009F0D1F907F017
:104F700087FF01986073E4E740F24E413220FBF76F
:104F8000EDFE40F24C413220FBF7E8FE28C3002042
:104F900004FB070008B504F08DFA044B187008F004
:104FA000DFFFBDE80840FFF735BF00BF100000205D
:104FB00010B50C4C04F07EFA0B4A637B10702BB9D1
:104FC00008F0CEFFBDE81040FFF724BF09F0A0F9BC
:104FD00007F056FF0023637308F0C2FFBDE81040DE
:104FE000FFF718BF28C300201000002038B5044682
:104FF000FFF73AFB237A032B76D03E4D002B48D1A6
:105000002A683D4992F8993092F84B000133A1FB90
:10501000034C0CF4FF7404EB5C041B1B40FA03FC10
:105020001CF0010FDCB216D10133A1FB034C2CF0B4
:10503000010404EB5C041B1B40FA03FC1CF0010F91
:10504000DCB208D10133A1FB034121F0010404EBE0
:1050500051015B1ADCB282F8994092F9580008F0CD
:10506000C7FDFFF7D7FE2C6894F8483083B1D4E928
:105070002A126FF000439A4208BFB1F1FF3F07D0F8
:1050800013F035F9D4E92A23904271EB030302D2DD
:1050900038BD2A68E1E7012004F052F80028F7D073
:1050A0002D6803F08BFF044613F021F963011B1BED
:1050B0004FEAD46262F10002520242EAD3525B022A
:1050C0001B1942F1000C4FEA8C1E9A014EEA936EB6
:1050D000D31A6EEB0C021B1942F100021B1842EBB3
:1050E0000101C5E92A3138BD40F613113220FBF722
:1050F00035FE00BF28C30020ABAAAAAA90F83E0044
:10510000003818BF012070472DE9F84301210746F8
:105110000020FCF7F7FA012104460846FCF7F2FAF2
:105120000546204601F0BEF802E094F890301BB12D
:1051300094F89030012BF8D1002D41D0284601F091
:10514000B1F802E095F890301BB195F89030012B42
:10515000F8D100F065FC00210E463F2240F2011913
:105160004FF0070820460DF067FC04F16400A4F836
:105170004C9084F8546084F8996084F8587084F8EE
:105180004B8010F041FF3F223146E66628460DF085
:1051900053FCA5F84C9085F8546085F8996085F823
:1051A000587085F84B8005F1640010F02DFFEE6615
:1051B000002384F88030E36784F8B030BDE8F883DA
:1051C00000F02EFC3F22294620460DF035FC40F22F
:1051D00001120723A4F84C2084F8545084F8995005
:1051E00084F8587084F84B3004F1640010F00CFF20
:1051F000E566DDE7F8B51D4E03460F4600200121A8
:105200007360FCF741FA38B34FF4A47200210446EE
:105210000DF012FC01210846FCF736FA054688B16C
:105220004FF4A47200210DF007FCB368CBB13846EF
:10523000FFF76AFF204601F017F82846BDE8F8405E
:1052400001F012B8B36863B13846FFF75DFF20463E
:10525000BDE8F84001F008B840F67F013220FBF7C6
:105260007DFD40F689013220FBF778FD28C3002040
:10527000014B024A9A60704728C30020C4000020F6
:10528000036823B1054A916813600B68184710B58D
:1052900040F653113220FBF761FD00BF28C3002008
:1052A00010B5104C206801218C3000F04DFC637B60
:1052B0008BB9206800F1BB020023012180F8901017
:1052C000A0F8BB308C30937000F01AFC2068BDE869
:1052D000104001F0A9BE09F01BF807F0D1FD002332
:1052E0006373E6E728C3002090F8403013F0FD0F09
:1052F00014BF0120002003F013BC00BF38B590F8A4
:105300004030044613F0FD0F00F1420114BF0120AC
:10531000002084F8410003F0EBFB94F84030023B9E
:10532000DBB2012B94BF0123002384F8483000D95D
:1053300038BD03F043FE054612F0D9FF6B015B1B3D
:105340004FEAD56262F10002520242EAD3525B0296
:105350005B1942F1000C4FEA8C1E9A014EEA936EE3
:10536000D31A6EEB0C025B1942F100021B1842EBE0
:105370000101C4E92A31002003F0E2FE0028D7D160
:1053800040F6F6113220FBF7E9FC00BF2DE9F041B1
:10539000D0F8E8509DF81840954203D190F840208D
:1053A0008A4202D00020BDE8F08114F0020190F89A
:1053B00042511DD10E460A4601E0954242D387185C
:1053C000013697F8BEC0ACF10307012F88BF4CEA45
:1053D000010100EB820C53F82270DCF8EC2002F1A2
:1053E000690C98BF41F004016745F2B2E5D0D9E7F6
:1053F0000026B4463146324602E0F2B2954221D34D
:1054000000EB020E0CF101089EF8BEE0AEF10307BE
:10541000012F00EB820298BF5FFA88FCD2F8EC20E3
:1054200053F82C7002F169028CBF4EEA010141F081
:1054300004010CF1010EBA4206F101065FFA8EFC7E
:10544000DBD0AFE704F00500401AB0FA80F0400965
:10545000BDE8F08190F85430590702460DD413F09E
:10546000030000D1704792F8550000F0FD00A0F154
:105470000100B0FA80F04009704790F85600A0F1A2
:105480000100B0FA80F04009704700BF30B5012933
:1054900083B004460CD094F854309B0718D10023F5
:1054A000A4F8BB3084F8BD3084F8903003B030BD30
:1054B0000A4D6B7B002BEED0019108F029FF07F01D
:1054C000DFFC00236B7394F8543001999B07E6D0FE
:1054D00004F18C0000F038FBE1E700BF28C3002096
:1054E0009A3010F039BB00BF0149363011F024BBAF
:1054F00075FF000010B5012104460020FCF702F9F9
:1055000070B3637880F85430227812F001031DBF25
:10551000012380F8BE300221012112F0020F05D0D4
:1055200000EB030C0B4602218CF8BE10520703D58A
:105530000344042283F8BE20A37880F84030E37847
:1055400080F8553013F0FD0F0CBF0123002380F8C5
:105550004C30237980F84B30637980F8573010BD98
:1055600040F6AB213220FBF7F9FB00BF10B590F8F5
:105570009030022B0BD104468C3000F0E5FA00236A
:10558000A4F8BB3084F8BD3084F8903010BD40F6EC
:10559000D7213220FBF7E2FB08B500231A46194653
:1055A000643003F0E9F900280CBF0C20002008BD8E
:1055B00008B501210020FCF7A5F828B190F880007B
:1055C000003818BF012008BD40F647313220FBF7F4
:1055D000C5FB00BF2DE9F04304468DB00D46002009
:1055E0000121FCF78FF8002800F0F6810646C8304C
:1055F00000F074FE002847D096F85430042B43D0B6
:10560000666A002E00F04781B24F07F10C039E42FC
:1056100074D007F108039E4270D003F025F906F11B
:105620003709074602A9484600F0D2FC002F40F097
:105630003E81E37ADB0605F11C0000F13E81002E7D
:1056400000F0C7809DF80830022B00F0C2800146B0
:1056500094F82E30E522484611F05FF894F82E3089
:105660008046434484F82E30484611F04EF894F8B2
:105670002E30181AB0FA80F04009002F44D108F1FA
:105680001803944FDAB2ACE03046FFF737FD064618
:105690000028B5D1636A8F4FEBB107F1080807F115
:1056A0000C05616A0B68636241450E704E708E7026
:1056B000CE700DD0A9420BD038680FF0FEF8EFF392
:1056C000108272B63B790133DBB23B7102B962B62C
:1056D000636A002BE5D13868A4F108010FF0EDF8FA
:1056E000EFF3108272B63B790133DBB23B7102B942
:1056F00062B64FF40073ADF804305EE003F0B4F826
:1057000000286AD04FF00008E37AD90640F16D8195
:105710005A0703D5E37EFE2B00F036810321297062
:10572000A27AEA7008F10A0313FB02F302336B70EA
:10573000637B6B71D4F80E30C5F80630638A6B81D9
:1057400085F80C80A844237E88F80D30E37A13F0A6
:10575000080700F0F880DFF880815E4F042346459B
:105760002B715FD12B79022262F34613626A2B718F
:105770006AB1EFF3108272B6636A19686162002A37
:1057800000F0A58000221A705A709A70DA7038689A
:10579000A4F108010FF091F8EFF3108272B63B7993
:1057A0000133DBB23B71002A00F08F8002264FF0FC
:1057B00004088DF804808DF805609DF804209DF89C
:1057C0000530002062F3070063F30F200DB0BDE841
:1057D000F083002F40F009813E4F18224FF000085F
:1057E000012004232B70A37AEB7013FB02F3023326
:1057F0006B70D4F80B30D4F80F20D4F81310D4F811
:1058000017C0C5F810C06B60AA60E960D4F81B30FF
:10581000D4F81F20AA616B6185F81B80DFF8B8807F
:1058200046459FD008F104094E4557D0002E7CD044
:1058300048B3636A63B1EFF3108272B6636A1968A2
:10584000616202B962B600221A705A709A70DA70F8
:10585000386831460FF031F8EFF3108272B63B79B9
:105860000133DBB23B7102B962B6636A0022434581
:1058700084F82E203FF476AF4B4500F0A1809DF8D0
:105880000830022B75D02B79012666F346132B7155
:105890004FF004088DE702F0E7FF04F12F090746F7
:1058A00002A9484600F094FB002F3FF4C2AEE37A11
:1058B000DB0605F10D007FF5C2AE9DF81880059955
:1058C00042460DF041F80120D7E662B66EE762B6B7
:1058D00058E700BF3CC3002044C30020636A63B1A3
:1058E000EFF3108272B6636A1968616202B962B638
:1058F00000221A705A709A70DA70637D93BB2A790D
:1059000063F346122A714FF004083868A4F10801C5
:105910000EF0D3FFEFF3108272B63B790133DBB2A6
:105920003B71EAB962B6022643E794F80B8018F09F
:1059300010083FF43EAF2B79386866F34613A4F1A4
:1059400008012B7126E703F00302032A19D05B0735
:105950000BD4022A3DD0002A43D1264F29715DE79E
:10596000022626E74FF00008CFE70123214F2B71D5
:1059700054E72B7923F0680301262B714FF00408BC
:1059800017E72F711B4F49E711222A70A27AEA709C
:10599000120102326A7001222A71627B6A71D4F8A4
:1059A0000E20C5F80620628A6A812B73E369C5F868
:1059B0000D30238CA5F81130237E0E4FEB742DE7AC
:1059C0002B7962F34613626A2B71002A7FF4D1AE01
:1059D000DDE6084F2A7121E740F2C1113320FBF7C1
:1059E000BDF99A213320FBF7B9F953213320FBF796
:1059F000B5F900BF3CC30020303270B592B2054605
:105A00000C461E460EF021FF35B1044A00231560F6
:105A1000147456741471536170BD00BF3CC30020F0
:105A200010B5044C20680EF032FF237C2371002255
:105A3000626110BD3CC30020014B587C704700BF21
:105A40003CC30020F8B5164D6E69F6B928680EF013
:105A500024FF04466861E8B12B7900F10807013B97
:105A6000DBB23146302238462B710CF0E5FFE37C87
:105A7000FF22012047F6FF7160F34613E183627550
:105A800084F82320E3743846F8BD40F23F113320F8
:105A9000FBF764F94FF4A1713320FBF75FF900BF06
:105AA0003CC3002008B5094B5B6933B103F1080220
:105AB000904206D103F1370008BD3D213320FBF7AA
:105AC0004DF94FF4AA713320FBF748F93CC300208D
:105AD00010B50A4C606908B1373010BD20680EF06F
