:10C000000000000000000000000000000000000030
:10C010000000000000000000000000000000000020
:10C020000000000000000000000000000000000010
:10C030000000000000000000000000000000000000
:10C0400000000000000000000000000000000000F0
:10C0500000000000000000000000000000000000E0
:10C0600000000000000000000000000000000000D0
:10C0700000000000000000000000000000000000C0
:10C0800000000000000000000000000000000000B0
:10C0900000000000000000000000000000000000A0
:10C0A0000000000000000000000000000000000090
:10C0B0000000000000000000000000000000000080
:10C0C0000000000000000000000000000000000070
:10C0D0000000000000000000000000000000000060
:10C0E0000000000000000000000000000000000050
:10C0F0000000000000000000000000000000000040
:10C10000000000000000000000000000000000002F
:10C11000000000000000000000000000000000001F
:10C12000000000000000000000000000000000000F
:10C1300000000000000000000000000000000000FF
:10C1400000000000000000000000000000000000EF
:10C1500000000000000000000000000000000000DF
:10C1600000000000000000000000000000000000CF
:10C1700000000000000000000000000000000000BF
:10C1800000000000000000000000000000000000AF
:10C19000000000000000000000000000000000009F
:10C1A000000000000000000000000000000000008F
:10C1B000000000000000000000000000000000007F
:10C1C000000000000000000000000000000000006F
:10C1D000000000000000000000000000000000005F
:10C1E000000000000000000000000000000000004F
:10C1F000000000000000000000000000000000003F
:10C20000C0440220912B020097F905007D2B02000B
:10C210007D2B02007D2B02007D2B02000000000020
:10C220000000000000000000000000000D2D0200D2
:10C230007D2B020000000000A92C02007D2B0200D3
:10C24000D52E020003560600D52E0200D52E020080
:10C25000D52E0200D52E0200D52E0200D52E0200CA
:10C2600019560600D52E0200D52E0200ED55060007
:10C27000D52E0200D52E0200D52E0200D52E0200AA
:10C28000D52E0200D52E0200D52E0200D52E02009A
:10C29000D52E0200D52E0200D52E0200D52E02008A
:10C2A000D52E0200D52E0200D52E0200D52E02007A
:10C2B000D52E0200D52E0200D52E0200D52E02006A
:10C2C000D52E0200D52E0200D52E0200D52E02005A
:10C2D000D52E0200D52E0200D52E0200D52E02004A
:10C2E000D52E0200D52E0200D52E0200D52E02003A
:10C2F000D52E0200D52E0200D52E0200D52E02002A
:10C3000001F0FF01102A2BDB10F0070F08D010F806
:10C31000013B013A8B422DD010F0070F42B3F6D10A
:10C32000F0B441EA012141EA014122F007047FF023
:10C3300000070023F0E80256083C85EA010586EA7A
:10C34000010685FA47F5A3FA87F586FA47F6A5FAB6
:10C3500087F68EB9EED1F0BC01F0FF0102F00702C2
:10C3600032B110F8013B013A83EA010313B1F8D16D
:10C370000020704701387047002D06BF354603384E
:10C38000073815F0010F07D1013015F4807F02BF87
:10C39000013015F4C03F0130F0BC0138704700BFD8
:10C3A00080EA101404F0F01480EA0410604081EA7E
:10C3B000111404F0F01481EA0411614082EA1214AD
:10C3C00004F0F01482EA0412624083EA131404F0C9
:10C3D000F01483EA0413634080EA102404F47F44D9
:10C3E00080EA0420604081EA112404F47F4481EA59
:10C3F0000421614082EA122404F47F4482EA042288
:10C40000624083EA132404F47F4483EA04236340F4
:10C4100081EA500404F0553480EA4400614083EA24
:10C42000520404F0553482EA4402634082EA9004E4
:10C4300004F0333480EA8400624083EA910404F01B
:10C44000333481EA84016340704700BF82EA90047C
:10C4500004F0333480EA8400624083EA910404F0FB
:10C46000333481EA8401634081EA500404F0553496
:10C4700080EA4400614083EA520404F0553482EAC1
:10C480004402634080EA102404F47F4480EA0420DC
:10C49000604081EA112404F47F4481EA0421614070
:10C4A00082EA122404F47F4482EA0422624083EA8E
:10C4B000132404F47F4483EA0423634080EA1014C5
:10C4C00004F0F01480EA0410604081EA111404F0D2
:10C4D000F01481EA0411614082EA121404F0F014AD
:10C4E00082EA0412624083EA131404F0F01483EA2F
:10C4F00004136340704700BF2DE9F14F94464FEAA3
:10C50000930B8A68CB6808684968FFF749FF0BF10D
:10C51000060E33E083EA134480EA134582EA1347A8
:10C5200046BA96EA3444604000F00F1684EA0634B6
:10C5300020F00F1684EA161054BA94EA01067240ED
:10C5400002F00F1486EA043622F00F1486EA141261
:10C550004CBA6540694001F00F1485EA043521F0BA
:10C560000F1485EA14115CBA67407B4003F00F1486
:10C5700087EA043723F00F1487EA1413BCE8F000AD
:10C580006040694072407B4000F0E03400F01035BC
:10C5900000F00F3040EA540040EAC50080EA900401
:10C5A00004F0332480EA8400604001F0E03401F0BC
:10C5B000103501F00F3141EA540141EAC50181EA29
:10C5C000910404F0332481EA8401614002F0E034F4
:10C5D00002F0103502F00F3242EA540242EAC5027C
:10C5E00082EA920404F0332482EA8402624003F077
:10C5F000E03403F0103503F00F3343EA540343EA09
:10C60000C50383EA930404F0332483EA840363407C
:10C6100081EA324787EA134581EA354690EA060403
:10C6200084EA034B82EA1B4280EA044484EA05441C
:10C6300083EA144A85EA14448BEA044B84EA3744BB
:10C6400081EA0B4181EA164104EA0A00454082EA88
:10C6500004082BEA080041408AEA0B0602EA0600B9
:10C6600084EA34438AEA3A4603EA060778404540BA
:10C67000414088EA38478BEA3B4007EA000985EAEF
:10C68000090583EA0709464006EA0906714085EA7A
:10C69000010005EA3546464006EA314181EA30416B
:10C6A00081EA364606EA304686EA3546344008EAEC
:10C6B000010886EA01052A4086EA364003405A40CE
:10C6C00081EA31431F407C4080EA030709EA0709F9
:10C6D00088EA0908544088EA020806EA0A0601EADC
:10C6E0000B018AEA0B0215408AEA3A4210404540A3
:10C6F0008BEA3B4003405E404240174079404D404A
:10C700004E40E443F64386EA18435D4085EA05401F
:10C7100083EA134386EA034183EA384284EA1143F9
:10C7200083EA04435FEA3343BEF1010E3FF6F2AE03
:10C730001ED4BCE8F0006040694072407B4020BCE1
:10C74000FFF784FE28606960AA60EB60BDE8F08FA7
:10C750002DE9E0414FF2F00280EA1031114080EA09
:10C760000130484041088208C3084FF0000E4FE7EF
:10C7700000F0113001F0113102F0113203F01133E9
:10C7800040EA410040EA820040EAC3004FF2F00272
:10C7900080EA1031114080EA01304840BDE8E08174
:10C7A0002DE9F04F02F11C050646074600EB85080F
:10C7B00051F8040B043A46F8040BF9D14FF0010C80
:10C7C000FFF7C6FF5FEA302080EA0C001ECF414031
:10C7D0004A4053405C401EC62000464517D04FEAF1
:10C7E0004C0C1CF4807F18BFACF1E50C2C2DE7D06D
:10C7F0003C2D06D1FFF7ACFF06CF41404A4006C6AC
:10C80000100006CF41404A4006C61000D8E736E97E
:10C810000F00FFF7C5FD043D86E80F00F7D1BDE826
:10C82000F08F00BF2DE9F14F03F11C0402EB840CE3
:10C830004FEA930B8A68CB6808684968FFF7B0FD38
:10C840003CE9F0006040694072407B400BF1060E0D
:10C850004EE083EA134480EA134582EA134746BA5E
:10C8600096EA3444604000F00F1684EA063420F063
:10C870000F1684EA161054BA94EA0106724002F0C8
:10C880000F1486EA043622F00F1486EA14124CBA0A
:10C890006540694001F00F1485EA043521F00F145A
:10C8A00085EA14115CBA67407B4003F00F1487EAF5
:10C8B000043723F00F1487EA141344BA44404DBAE6
:10C8C0004D4056BA56405FBA5F4087EA174886EA3D
:10C8D000174B84EA17464FEA38488BEA1B4485EA2F
:10C8E0001B4788EA1B4580EA3440694072407B4020
:10C8F00000F0703400F0803500F00F3040EA440062
:10C9000040EAD50080EA900404F0332480EA8400F1
:10C91000604001F0703401F0803501F00F3141EAE0
:10C92000440141EAD50181EA910404F0332481EA0B
:10C930008401614002F0703402F0803502F00F3261
:10C9400042EA440242EAD50282EA920404F0332425
:10C9500082EA8402624003F0703403F0803503F011
:10C960000F3343EA440343EAD50383EA930404F014
:10C97000332483EA84036340C943DB4381EA000430
:10C9800083EA044686EA020183EA014382EA3345E8
:10C9900083EA14435C4084EA00077FEA040A8AEAD7
:10C9A000024A8AEA010B87EA11488AEA374A80EA92
:10C9B000060181EA1A418AEA030A04EA0A004540AC
:10C9C00088EA040707EA0B0041408AEA0B0608EAF6
:10C9D000060084EA34428AEA3A4602EA06035840EC
:10C9E0004540414087EA37438BEA3B4003EA000970
:10C9F00085EA090582EA0309464006EA090671400C
:10CA000085EA010005EA3546464006EA314181EAF9
:10CA1000304181EA364606EA304686EA35463440F9
:10CA20000F4086EA010508EA050886EA364002401A
:10CA300088EA020881EA314213405C4080EA02033E
:10CA400009EA030987EA0907674088EA040806EA51
:10CA50000A0601EA0B018AEA0B0425408AEA3A44F5
:10CA6000204045408BEA3B4B02EA0B02564084EAE9
:10CA70000B04234059406E40694087EA364080EA03
:10CA8000384080EA060380EA104481EA134585EACB
:10CA9000344585EA17427D4082EA354180EA054007
:10CAA0003CE9F0006040694072407B40BEF1010EFD
:10CAB0003FF6CFAE20BCFFF7C9FC28606960AA60D2
:10CAC000EB60BDE8F08F00BFFFF76ABE2DE9F0070D
:10CAD00091E8F807B2E802105B1854EB0C04B2E8D6
:10CAE00002104D4156EB0C06B2E802104F4158EBD4
:10CAF0000C08B2E8021059EB01095AEB0C0A80E865
:10CB0000F80780410130BDE8F00770472DE9F007D4
:10CB100091E8F807B2E802105B1A74EB0C04B2E873
:10CB200002108D4176EB0C06B2E802108F4178EBD3
:10CB30000C08B2E8021079EB01097AEB0C0A80E8E4
:10CB4000F80780414042BDE8F00770472DE9F00743
:10CB5000524290E87800B1E880071740DB1918EAE4
:10CB6000020854EB080419EA020955EB09051AEA10
:10CB7000020A56EB0A0678C090E87800B1E8800710
:10CB800017407B4118EA020854EB080419EA02092D
:10CB900055EB09051AEA020A56EB0A0678C08041ED
:10CBA0000130BDE8F00770472DE9F007524290E8E8
:10CBB0007800B1E880071740DB1B18EA020874EB25
:10CBC000080419EA020975EB09051AEA020A76EB6C
:10CBD0000A0678C090E87800B1E880071740BB41AA
:10CBE00018EA020874EB080419EA020975EB090552
:10CBF0001AEA020A76EB0A0678C080414042BDE894
:10CC0000F00770472DE9F00152424FF0040890E818
:10CC1000300091E8C000A31B1340E41AF618EB1B88
:10CC20001340ED1AFF1830C0C0C1B8F10108EED1B1
:10CC3000BDE8F001704700BF00B592E8DC072DE9C0
:10CC4000DC07B1E8805702B4A7FB02510A95A8FBA4
:10CC5000020BE7FB6310E9FB62B00B91A8FB0351E9
:10CC6000EAFB6201E7FB64B5E7FB6605E8FB6615D6
:10CC7000CDF830B0A9FB03B6EAFB6316ECFB6356B4
:10CC8000E8FB640BE9FB641BEAFB645BECFB646B95
:10CC90000D90ACFB0230059CEEFB6250E9FB64603A
:10CCA000EAFB64B0E7FB6431E8FB6451069CE8FBF7
:10CCB0006461E9FB64B1EAFB64010E93A7FB0432F3
:10CCC000079CE7FB6462E8FB64B2E9FB6402EAFBF1
:10CCD0006412049CE9FB6453EAFB6463089CE7FB71
:10CCE00064B3E8FB6403E9FB6413EAFB64230F9578
:10CCF0005DF8049B99E80006DDF80080A9FB085464
:10CD0000EAFB68B4DDF81080ECFB6804EEFB681405
:10CD1000E9FB6824EAFB6834DDF80480EEFB686513
:10CD2000E9FB68B5EAFB6805DDF81480ECFB6815E3
:10CD3000EEFB6825E9FB6835EAFB68450F96DDF8F0
:10CD40000880AEFB0876E9FB6806EAFB6816DDF8AA
:10CD50001880ECFB6826EEFB6836E9FB6846EAFBC8
:10CD60006856DDF80C80ECFB68B7EEFB6807E9FB62
:10CD70006817EAFB6827DDF81C80ECFB6837EEFBE0
:10CD80006847E9FB6857EAFB686708B000BD00BF69
:10CD90002DE9F14F87B0FFF74FFFDDF81C8008F158
:10CDA000200888E8FF00FFBC87E87F08BDE8F08F17
:10CDB00000B591E89857A3FB03520195A3FB04012A
:10CDC000E3FB6420E3FB67100292A3FB0752E3FB43
:10CDD0006802E4FB6415E3FB6805E3FB6925039146
:10CDE000A4FB07B6E3FB6926E3FB6A56E4FB670B8B
:10CDF000E4FB682BE3FB6A5BE3FB6C6B0490A4FB36
:10CE00000810E4FB6950E3FB6C60E3FB6EB0E7FBEA
:10CE10006721E4FB6951E4FB6A61E3FB6EB1E4FB6B
:10CE20006E010592A7FB0832E4FB6A62E4FB6CB278
:10CE3000E4FB6E02E7FB6E12E7FB6853E7FB6963F6
:10CE4000E4FB6CB3E7FB6C03E7FB6E13E8FB6E23BC
:10CE50000695A7FB0954E7FB6AB4E7FB6C04E8FB03
:10CE60006C14E8FB6E24E9FB6E34E8FB6865E7FBB5
:10CE70006AB5E8FB6A05E8FB6C15E9FB6C25E9FB84
:10CE80006E35EAFB6E450796A8FB0976E8FB6A0655
:10CE9000E9FB6A16E9FB6C26EAFB6C36EAFB6E4698
:10CEA000ECFB6E56E8FB69B7E9FB6907E9FB6A171B
:10CEB000EAFB6A27EAFB6C37ECFB6C47ECFB6E572E
:10CEC000EEFB6E6700BD00BF2DE9F14F87B0FFF7A5
:10CED0006FFFDDF81C8008F1200888E8FF00FFBC28
:10CEE00087E87F08BDE8F08F30B44FF0000310F8FA
:10CEF000014B11F8015B013A84EA050443EA04039B
:10CF0000F5D1A3F101034FEAD37030BC704700BFE5
:10CF10004FF0000310F8012B013943EA0203F9D165
:10CF2000A3F101034FEAD370704700BF30B411F88A
:10CF3000014B12F8015B6C4000F8014B013BF6D14C
:10CF400030BC70472DE9F04F90E8F00F00F1400041
:10CF50004FF0040E59E0F0B4826BC36B04680525F2
:10CF6000242687593C444FEA724787EAF24787EA0A
:10CF700092273C4442684FEAF21787EAB24787EAB1
:10CF8000D2073C4440F8044B032D08BF6FF01B064A
:10CF900087593A444FEA734787EAF34787EA93276A
:10CFA0003A4443684FEAF31787EAB34787EAD3075F
:10CFB0003A4440F8042B87593B444FEA744787EAC8
:10CFC000F44787EA94273B4444684FEAF41787EA1A
:10CFD000B44787EAD4073B4440F8043B013DC0D145
:10CFE000A0F13C00076A3C444FEA724787EAF247E7
:10CFF00087EA92273C4402684FEAF21787EAB24771
:10D0000087EAD2073C44C463F0BC4FF0020288EACE
:10D01000781C8CEAF84C0BEBBC1C8AEA090303EA87
:10D02000080383EA0A039C4450F8043B9C4451F8EB
:10D03000043B9C44674444EA050B0BEA060B04EAF4
:10D0400005034BEA030BE34484EAF42383EA3453F5
:10D050000BEBB30B87EA771C8CEAF74C0AEBBC1C92
:10D0600089EA080303EA070383EA09039C4450F8AA
:10D07000043B9C4451F8043B9C4466444BEA040A3C
:10D080000AEA050A0BEA04034AEA030AE2448BEAC5
:10D09000FB2383EA3B530AEBB30A86EA761C8CEA4D
:10D0A000F64C09EBBC1C88EA070303EA060383EA93
:10D0B00008039C4450F8043B9C4451F8043B9C44B6
:10D0C00065444AEA0B0909EA04090AEA0B0349EA3A
:10D0D0000309E1448AEAFA2383EA3A5309EBB309E4
:10D0E00085EA751C8CEAF54C08EBBC1C87EA060344
:10D0F00003EA050383EA07039C4450F8043B9C447D
:10D1000051F8043B9C44644449EA0A0808EA0B08C5
:10D1100009EA0A0348EA0308E04489EAF92383EAB2
:10D12000395308EBB30884EA741C8CEAF44C07EB1F
:10D13000BC1C86EA050303EA040383EA06039C4455
:10D1400050F8043B9C4451F8043B9C44E34448EAB7
:10D15000090707EA0A0708EA090347EA03076744D9
:10D1600088EAF82383EA385307EBB3078BEA7B1C82
:10D170008CEAFB4C06EBBC1C85EA040303EA0B03B8
:10D1800083EA05039C4450F8043B9C4451F8043B5B
:10D190009C44E24447EA080606EA090607EA08034F
:10D1A00046EA0306664487EAF72383EA375306EB29
:10D1B000B3068AEA7A1C8CEAFA4C05EBBC1C84EABA
:10D1C0000B0303EA0A0383EA04039C4450F8043B7C
:10D1D0009C4451F8043B9C44E14446EA070505EAB7
:10D1E000080506EA070345EA0305654486EAF623CF
:10D1F00083EA365305EBB30589EA791C8CEAF94CCE
:10D2000004EBBC1C8BEA0A0303EA090383EA0B0361
:10D210009C4450F8043B9C4451F8043B9C44E0443B
:10D2200045EA060404EA070405EA060344EA03049F
:10D23000644485EAF52383EA355304EBB304013AE9
:10D240007FF4E5AEA0F14000BEF1010E7FF483AEA5
:10D25000A0F1400C9CE80F00001949199219DB1944
:10D26000ACE80F009CE80F004044494452445B4442
:10D27000ACE80F00BDE8F08F2DE9F00791E8F80762
:10D28000B2E802105B1854EB0C04B2E802104D41F6
:10D2900056EB0C06B2E802104F4158EB0C08B2E80E
:10D2A000021059EB01095AEB0C0A8941B3F1FF3323
:10D2B00074F1FF3475F1FF3576F1000677F1000760
:10D2C00078F1000879F101097AF1FF3A51F1000192
:10D2D0005B184C414D4156F1000657F1000758F1DB
:10D2E000000859EBD1795AEB010A80E8F807BDE84C
:10D2F000F00770472DE9F00791E8F807B2E802104F
:10D300005B1A74EB0C04B2E802108D4176EB0C064C
:10D31000B2E802108F4178EB0C08B2E8021079EB0A
:10D3200001097AEB0C0A89415B184C414D4156F1D9
:10D33000000657F1000758F1000859EBD1795AEB74
:10D34000010A80E8F807BDE8F007704718EB040809
:10D3500059EB05095AEB060A5BEB070B5FF0000C73
:10D360004CF1000C18EB050859EB06095AEB070ABB
:10D370005BEB070B50EB0C005FF0000C51EB0C016A
:10D3800052EB0C0263414CF1000CB8EB070879F149
:10D3900000097AF1000A7BEB040BA841B141A241DC
:10D3A000B3416CF1000CBBEB050BB041B941AA4194
:10D3B000BB416CF1000C4CF001068CF0020718EB3D
:10D3C000060859EB6C095AEB6C0A7BEB6C0B70EBA3
:10D3D0006C0471EB6C0572EB670653EB6C076CEB3E
:10D3E0006C0C18EB0C0059EB0C015AEB0C025BF1C6
:10D3F000000354F1000455F1000556EBDC7657EBC1
:10D400000C0770472DE9F14F87B0FFF715FCDDF8E9
:10D410001080DDF81490DDF818A0FFF797FFBDE845
:10D42000000FFFF793FF03B05DF8048B88E8FF005F
:10D43000BDE8F08F2DE9F14F87B0FFF7B9FCDDF8BB
:10D440001080DDF81490DDF818A0FFF77FFFBDE82D
:10D45000000FFFF77BFF03B05DF8048B88E8FF0047
:10D46000BDE8F08F064B074A5B7802604FF42272EA
:10D470008280C3710822002382710372704700BF4B
:10D48000C03B00200BB10100064B074A5B7A0260EB
:10D490004FF49C728280C3710822FF238271037251
:10D4A000704700BFC03B00201FAC0100F8B5C41D91
:10D4B000002824F00704054614BF2046002000F091
:10D4C0008DFA071E02DA6FF00B00F8BD254EB18809
:10D4D0007088F379B2790331033089B280B20BF0EE
:10D4E000A9FA0028EFDB737831783C4403341944FF
:10D4F000002D24F0030400FB01F114BF204600209E
:10D5000000F0F2FB23180DB9002BDCDB717A184612
:10D5100079B10333002D23F0030414BF204600200B
:10D52000728900F053FC0028CDDB20440DB900289F
:10D53000C9DB317A91B1737A83B1C41D002D24F017
:10D54000070414BF2046002003F092F90028BADB3C
:10D550000DB10020B9E72018B7D5B4E7002DF8D1F8
:10D56000B3E700BFC03B00201FB572B6194BDD68A2
:10D57000EDB9BFF34F8F1849184BCA6802F4E06247
:10D580001343CB60BFF34F8F00BFFDE72346B2FBD1
:10D59000F6F25C1C002AF9D104AEDCB256FA83F331
:10D5A00003F80C2C0A2234B901A8A847E1E7024687
:10D5B00000230A26EDE7631E04AEDCB256FA83F3BD
:10D5C000B0FBF2F602FB1600303003F80C0C3046CC
:10D5D000E9E700BFC03B002000ED00E00400FA05D1
:10D5E00007B50A4BDA88ADF8002068469A885B8850
:10D5F000ADF80420ADF8023001F062FD18B1FC2155
:10D600009C20FFF7B1FF03B05DF804FBC03B002096
:10D6100010B5044628B309F073FB10B94FF0FF3082
:10D6200010BD07F00BF9B0F5FA7FF7D80E4B0022CA
:10D630001A744FF480721A801B225A809A8040F22A
:10D640000322DA804FF484721A811F22DC605A812F
:10D65000EFF3108472B600F017FC04B962B6002034
:10D66000DEE76FF01500DBE7C03B002010B50028B7
:10D6700040D1234C237C032B39D059B1002A3CD014
:10D680000239052936D8DFE801F0031227352A2DA3
:10D69000137863700020FFF709FF0028B7BF01234C
:10D6A000022323746FF00B00A8BF237410BD1379FD
:10D6B0001BB353790BB31188FB291ED853881B3B2E
:10D6C0009BB2E02B19D81A2917D91368C4F8023075
:10D6D0000C4B92889A80DDE713786372DAE713883F
:10D6E0006381D7E71388FF2B07D82372D2E74FF067
:10D6F000FF30DBE76FF02C00D8E76FF01500D5E7BF
:10D70000C03B0020C23B0020F8B50D46064620B3C2
:10D7100019B311F0070420D1114F3B7C012B02D12A
:10D720006FF00B00F8BD032B02D14FF0FF30F9E78B
:10D7300000F06EF80028F8D02846FFF7B7FE002862
:10D74000EEDB0DF03FFD3046214601F03BFDFFF7DB
:10D7500047FF03233B742046E4E76FF01500E1E741
:10D76000C03B002010B5064C237C032B03D101F0F5
:10D770003FFD02F0E5FA0BF067FA0020207410BDBF
:10D78000C03B002050B1074B03F1140253F8041BB7
:10D7900040F8041B9342F9D1002070476FF0150048
:10D7A000704700BF09E6070008B5054B1B7C032B3B
:10D7B00003D001F02BFA002008BD4FF0FF30FBE74B
:10D7C000C03B002008B501F0C9FCBDE80840024993
:10D7D000012000F0FBB800BF89D4000008B501F0BB
:10D7E000D1FCBDE808400249002000F0EFB800BFBE
:10D7F00065D40000024B02681A600020704700BF29
:10D80000D43B0020014B1B68184700BFD43B0020CD
:10D81000024B1868003818BF01207047D43B002025
:10D82000074B4FF0FF3141F6FF72C3E90012054983
:10D830000022C1E900221F21C3E90212704700BF84
:10D8400000000020D83B00203F280CD801380B4BAB
:10D85000C0F3421200F01F0053F8223023FA00F008
:10D8600000F001007047FF2806D04038C0F3421294
:10D87000034B00F01F00EFE701207047000000207D
:10D88000D83B00200146074B006849681A4603C28E
:10D8900040F48C221A6041F0107242F4FF625A6028
:10D8A00000207047000000200246034B00685168CA
:10D8B00003C30020704700BFD83B00200246034B43
:10D8C0000068516803C30020704700BF08000020B3
:10D8D000382800F1FF33DBB21FBF064A590902EBBB
:10D8E000810203F01F031DBF9068D84000F00100C3
:10D8F0000020704700000020F0B50C88C37C02882F
:10D90000A5B2C4F30E0404F118060233865B1A4470
:10D91000334497B213FA82F3013B4288B3FBF7F327
:10D9200013FB07439BB29A42044A93BF22EA0503C2
:10D930002A4013439BB20B80F0BD00BF0080FFFF65
:10D940004A1E062A08B50346084604D84FF4D1718A
:10D950001520FFF709FE094A914202D940F2A311AE
:10D96000F6E711B903B1196008BD2BB11B6800229D
:10D97000C3E901211A1D1A600430F5E7FAFFFF7FA1
:10D9800010B5114B00EB41041A786389B3FBF2F335
:10D9900003FB0223013A1A44B2F5706F02798078D2
:10D9A00028BF00231A440B18B2FBF0F100FB112131
:10D9B0005B1AB3FBF0F100FB113313446FEA4343EE
:10D9C0006FEA5343638110BDE03B0020024B03EB41
:10D9D00080035960704700BFE03B00202DE9F04F05
:10D9E00010F0070A85B0054604D040F26F111720E9
:10D9F000FFF7BAFD534F07F10C06B1460446B04697
:10DA000057F8043B8DF80BA03BB101A898479DF84F
:10DA10000A30082B01D9F521E9E79DF80B1041BB2D
:10DA200005B131604F4506F10406E9D1002D70D0F3
:10DA3000DFF81491002289F800209646022758F852
:10DA400027A0013FBAF1000F56D09AF804609AF867
:10DA500002C0FF2E61D039460023481C39D19C44B6
:10DA6000BCF1FF0F40D90AB189F800E04FF49A7178
:10DA7000BDE79DF80AC06046022838BF02204B1D52
:10DA80005A0004EB4303441E2344BDF80840644499
:10DA9000013CCCF1000C04EA0C044042B4F5803F98
:10DAA00003EA000302D340F20511A0E775B19A1A08
:10DAB0000120326091701480D0709DF80C001071BC
:10DAC000019810814FEA104CA2F806C004FB013403
:10DAD000A8E758F8210028B190F804B0B34504BF76
:10DAE00080781B180139B8E7DBB2E6458AF80430C4
:10DAF0003CBF5FFA8CFE01227B1CA0D10AB189F8E1
:10DB000000E0022640F6FF6A58F82670B7B9013ED9
:10DB1000FAD2601B05B0BDE8F08F0023E5E707EB04
:10DB200041033846A3F80AA0FFF72AFF09F10109CB
:10DB3000BB785FFA89F18B42F1D8E8E74FF0000932
:10DB4000F6E700BFE43B0020E03B002038B54FF68D
:10DB5000FF730380184B03EB810302461869A8B1D9
:10DB600084780379B3FBF4F104FB1133DBB219467B
:10DB700000EB4105B5F90A50002D0EDB0131B1FB78
:10DB8000F4F504FB1511C9B28B42F1D1002038BD68
:10DB90006381BDE838400AF029BF00EB4104638986
:10DBA000C3F30E031380C278002AF1D14FF4E5715C
:10DBB0001720FFF7D9FC00BFE03B00201C4B03EB14
:10DBC000810370B51C69054644B3030404D54FF4C2
:10DBD000EC711720FFF7C8FC014620460AF0E8FE6A
:10DBE000FF28014604D02046BDE870400AF0FEBE82
:10DBF000A078B5FBF0F300FB1353DBB219460A1D06
:10DC000004EB4206B6F90260002E09DB0131B1FBDC
:10DC1000F0F200FB1211C9B28B42F0D1002070BDAE
:10DC20008B4201D00023E37004EB42025580DAE717
:10DC3000E03B0020094B03EB810310B51C69014652
:10DC400020460AF0B5FEFF28014604D02046BDE874
:10DC500010400AF0CBBE002010BD00BFE03B00200A
:10DC6000F8B5104B03EB810307461C6901462046BB
:10DC70000AF09EFEFF28054611D0E288238953EA68
:10DC8000024606D0014620460AF0B0FE014638465C
:10DC9000B04720462946FFF773FE0020F8BD052057
:10DCA000FCE700BFE03B002038B50E4B827903EB68
:10DCB00082030446186908B9052038BD8278E179E5
:10DCC0009142F9D24B1CE37100EB41035D89B3F93A
:10DCD0000A30002BF3DBA5800AF088FE20600020CC
:10DCE000EBE700BFE03B002070B5044610F00300F6
:10DCF0000E4603D04E211820FFF736FCFFF720FE1A
:10DD0000054624B1034831460460FFF719FE284652
:10DD100070BD00BFFC3B00202DE9F14FDFF870B073
:10DD20009DF828A09DF82C901E46DBF80030074691
:10DD30000D4690461BB960211820FFF715FC52468E
:10DD4000092140460AF0B9FC4A4684B2092130460E
:10DD50000AF0B3FC14FA80F1DBF800000AF0FCFDD5
:10DD6000386018B9286001B0BDE8F08F04442C6019
:10DD700038685346414609220AF062FC28684B463F
:10DD80000922314601B0BDE8F04F0AF059BC00BF8E
:10DD9000FC3B002070B50E4604460AF0A1FC054687
:10DDA00030460AF09DFC044B2A1821461868BDE84D
:10DDB00070400AF0F6BD00BFFC3B0020024B186823
:10DDC00008B10AF0BDBD7047FC3B00201F2AF8B522
:10DDD000044626D804200323134D12FB003254B10D
:10DDE000A30703D068210920FFF7BEFB22F003033D
:10DDF00029706C602B8122F003022823120403FB9C
:10DE000001F001276B68120C0025EEB2B14200D878
:10DE1000F8BD14B126181F705E6010440135283318
:10DE2000F3E74FF0FF30F3E7003C002070B5154AF0
:10DE3000157853680021C8B2854203D8BA21092059
:10DE4000FFF792FB1C46184614F8286B01310EB9F7
:10DE50002346F0E700219970128999610124D96164
:10DE600059685C70920803F11E0403F1260524F83A
:10DE7000022FAC4243F8041F1144F8D10023436140
:10DE8000037070BD003C0020134B012200214FF0B5
:10DE9000FF309A60C3F80012C3F80803C3F80015F6
:10DEA000C3F804259A60C3F80803C3F80015C3F843
:10DEB00004250A490A4A03F580334FF40040C3F8A9
:10DEC0000825C1F88000BFF34F8FBFF36F8FC1F8F3
:10DED0008001C3F80825704700F0004000E100E031
:10DEE0000000F63F0A46192302F8033B0448C368C2
:10DEF000C1F803300369536043699360704700BF02
:10DF00000C3C0020024B5A8C02435A845B6A18472F
:10DF10000C3C0020014B00215B6A18470C3C0020A0
:10DF200010B5154C05F0ACFB05F044FF208DFFF754
:10DF3000F1FF237E63B12246104952F80C3BE360A7
:10DF40006368536004F11900A36893600BF0C8FF85
:10DF50000B4B228D93E8030002F0BEFC236B188864
:10DF600002F03CFCA36B94F8341094F83500984709
:10DF7000002384F83C3010BD0C3C0020E5DE00009E
:10DF8000383C0020034B93F83C300BB1FFF7C8BF7F
:10DF9000704700BF0C3C002070B51B4C256B236DF7
:10DFA00023644FF481730646A4F8443094F8540077
:10DFB00095F88B3095F8691000EB83002EB9FF2897
:10DFC00003D195F868308B4201D005F0F9F995F846
:10DFD0008B309BB1A06D05F0F1FBA16D206C05F0BD
:10DFE000C5FE16B9304605F03DFC95F868100020D6
:10DFF00005F08CFC022384F83C3070BD206C05F0E9
:10E00000DDFB05F0D7FEECE70C3C0020F0B590F806
:10E010006940134A0B46012CD1E91C6792F8542041
:10E0200087B001F1780103F188034FF0010006D0B9
:10E03000022C13D040F22C410620FFF795FA002461
:10E040000025CDE9013205900090CDE90345324627
:10E050003B46012005F0E8FD07B0F0BD0446EFE7C0
:10E060000C3C002008B5094B93F83C20022A04D050
:10E0700040F2E6212720FFF777FADA7A42F0010230
:10E08000DA72BDE80840FFF74BBF00BF0C3C002030
:10E09000F7B5184CE56D06460DB1A36C23B940F2F7
:10E0A000E7712720FFF760FAB4F84C306B702B78DB
:10E0B0002F4601F0030123F003030B4307F8033B52
:10E0C000B4F84C20A16C384609F0AEF80DF102020C
:10E0D00001A9206E2564A7640AF028FC01980AF0C3
:10E0E00013FCB4F84C1030600122206E0AF0BBFB28
:10E0F00003B0F0BD0C3C00202DE9F0412A4C94F80F
:10E100003C30012B06460F465FFA83F804D040F6F8
:10E110002F012720FFF728FA256B95F87C303BB1BB
:10E12000002185F87C100420FFF7ECFE85F87D8047
:10E1300095F88030042B0AD11C490220FFF7E2FE3B
:10E14000E36E1B78991E4B424B4184F8743095F86E
:10E150008B3023B1206B05F17801FFF757FF1EB11B
:10E16000BDE8F041FFF7DCBE002FF9D0A36F3046C9
:10E1700098470028F4D094F83430002BF0D1638C09
:10E180009A0708D594F87430002BE9D0BDE8F04127
:10E190000020FFF701BF002BE2D194F87C30002B68
:10E1A000F4D194F87D30EFE70C3C0020783C00205F
:10E1B0002DE9F04F894C8FB00023CDE90B3394F853
:10E1C0003C30256B0791022B074604D04FF40C61BD
:10E1D0002720FFF7C9F9236C5A781E78A4F84C2041
:10E1E00003221344A36406F0030895F88B30A4F8C7
:10E1F0004420002800F0E180C6F3C009C3B105F057
:10E20000F1FD831EDBB2012B04D8FFF789FE0FB0AE
:10E21000BDE8F08F60B9B4F84C304BB195F882305E
:10E2200003F001034B4503D1012384F83530ECE7BB
:10E23000B4F84C1019B1206E0AF0F5FA014695F8C1
:10E240008120238DE1650132D2B282EA960A43F43D
:10E2500000731AF0010A238523D0069795F88220CF
:10E2600002F0010399455CD04FF0000995F88A301F
:10E27000002B00F0C68095F868C0BCF1010FD5E90D
:10E28000382305F1F00105F5807E4FF0010000F024
:10E29000AB80BCF1020F00F0FB8040F22C41062065
:10E2A00097E795F8803053B3013BDBB2042B85F838
:10E2B00081200ED84A4AD35C002BCED0022B0BD142
:10E2C000D4F884000BA90AF057FA88B940F2F76134
:10E2D0007EE740F2D6617BE7032B10D101F040F8D6
:10E2E00010B940F2017173E751460820FFF70AFEAA
:10E2F000D5E93832013342F10002C5E9383295F8E8
:10E300007D30002185F8801023B185F87D10102024
:10E31000FFF7F8FD238D43F4006323850023069364
:10E320009CE7B4F84C30E3B108F1FF31012918D86B
:10E33000218D41F48051218594F88810994206D2AC
:10E3400094F8343043F0100384F834308CE7E16DF6
:10E35000002989D094F8891019B12020FFF7DAFD3F
:10E3600082E70132B8F1030F85F882201AD008F154
:10E37000FF32012A0BD8002B3FF476AFD5E93A32B1
:10E38000013342F10002C5E93A32B9466EE7002B8B
:10E390003FF46AAFD5E93A32013342F10002C5E9F0
:10E3A0003A3261E7238D0F49012043F4805385F809
:10E3B0007C002385FFF7A6FDECE70BB105F04EFDD1
:10E3C00094F88A30013384F88A30238D4FF00009A5
:10E3D00043F480632385CDF8189047E70C3C002078
:10E3E00004B40600543C00204FF0000C05900020BF
:10E3F000CDE903C04FF0FB0CCDE901EC009005F036
:10E4000013FCE36D002B45D1B4F84C30B3FA83F321
:10E410005B0903EA161384F87D30079B002B3BD180
:10E42000628C94F88A30110702D594F874209ABB54
:10E43000012B31D8A36F0120984768B394F834605A
:10E4400056BBD4F830A094F854309AF88B209AF840
:10E45000681003EB8203FF2B03D19AF869308B42DB
:10E4600002D0FF2004F0ACFFD4F830B000228DF8C9
:10E470002920ADF82A209BF88020052A00F233815C
:10E48000DFE812F061000F011201120124012401E2
:10E490008446ABE70123BCE705F042FAB9F1000F6F
:10E4A0004CD1012307939B4C238D5A0606D4402060
:10E4B000FFF730FD238D43F040032385069B6BB1AE
:10E4C000B4F80720B4F805301343B5F87E201343A1
:10E4D0001EBFB4F809300133A4F80930002F00F052
:10E4E0001281B4F805300133A4F80530002384F814
:10E4F0008A30894802F060F90B9830B10AF004FACA
:10E5000000220272294601F023FD0C9B33B1002248
:10E510001A720C220C98294601F0E8FC079B002B8C
:10E520007FF473AE238D1B063FF571AE8020FFF79D
:10E53000F1FC238D43F08003238568E641460CA857
:10E54000FFF7A6FDADE794F88B20ABF858200DF14E
:10E550002A010DA8ADF82A2000F0F4FE38B10D987C
:10E5600028B104228BF88020BDF82A2016E09BF801
:10E57000C320002A40F08F80D4F884000DF12902D6
:10E580000DF12A010AF0D3F8002800F08480BDF8CC
:10E590002A20002A70D101218BF880106066A4F82F
:10E5A0007020002A00F0A28003309BF8813008938D
:10E5B0009BF882309BF880B0E066BBF1020F0993B4
:10E5C00009D0ABF10402012A00F292800378022BF9
:10E5D0004FF0030B0ED0D4F884000AF003F90028A2
:10E5E00040F08980BBF1030F04D000F0C5FE80F03D
:10E5F0000106F6B2616E089A0B78D000099A00F015
:10E60000080003F0F3030343900000F00400034309
:10E6100023F0100343EA061323F003034BEA03023B
:10E620000A70B4F870304B700222A4F868209AF88F
:10E630008A2006F0010684F87C60364E002A5CD001
:10E64000002B5AD0A06D05F0B9F8616EA06D05F0F1
:10E6500053FB9AF86910012005F058F9012386F858
:10E660008C3086F83C30B9F1000F3FF41CAF4146C6
:10E670000CA8FFF70DFD16E79DF8291019B90180C8
:10E68000817003226EE7017801F0030101290CBFBC
:10E690000321022180E70022ADF82A2001228BF815
:10E6A00080201E48002279E7BBF85820ADF82A20C8
:10E6B000D4F884000DF129020DF12A010AF037F88F
:10E6C00000287FF451AF40F20D5181E50DF12A0190
:10E6D0000DA800F037FE08B10D9810B940F21C519A
:10E6E00076E505223EE740F2265171E510465CE7EB
:10E6F0004FF0010B6FE701267CE7706E05F05EF8C6
:10E7000005F058FBA5E7B4F807300133A4F807304B
:10E71000EFE600BF0C3C0020383C00208A3C002083
:10E7200010B5064B93F83C2002F0FF0422B91C768A
:10E7300002F0CAF8204610BD0C24FBE70C3C002078
:10E74000094B0A4A10B51A60FFF7EAFF20B14FF4EF
:10E75000A4712720FEF708FF00F05AFD044C206545
:10E7600000F05AFDA06510BD844500205CE9000062
:10E770000C3C0020F7B56D4C089FCDE9000194F8E2
:10E780003C1001F0FF0511B90AB103B127B94FF4EC
:10E7900008712720FEF7E8FEDDE9000104F12C0CEA
:10E7A0008CE8030084F8345084F88A5084F835509B
:10E7B00084F88C506584258584F87C5084F87D50DD
:10E7C00084F874506566E566A4F870502564A56405
:10E7D000A4F84C50256BA3679DF8243084F8893049
:10E7E0006262A76304F02EFE05F0E4FA95F970006A
:10E7F00004F0B4FE6E6AE86904F0B6FE304604F038
:10E80000CFFF95F89B0004F0B9FE236B93F89F317E
:10E810000BB104F005FE0BF01CFF95F8692000F128
:10E820008201012004F018FF414B186804F0BEFF7C
:10E830002B69C4F884306B692366236B93F88520B9
:10E8400093F86860A2F12901012903D993F8861091
:10E85000292951D193F85E322BB1012E03D0012B1F
:10E860000CBF0126022605F13007314638460BF071
:10E87000C7FB31460BF00BF9AB8F95F8691083425B
:10E8800028BF0346384684F88B300BF0A2FB95F87E
:10E890008B7095F86910B5F844600BF0F8F80FB973
:10E8A000043080B2864228BF0646F3B284F888302E
:10E8B00084F8543095F88B3023B105F1780128465F
:10E8C000FFF7A4FB0120FFF767FB236BD3F8B00130
:10E8D00004F090FF002323606360A360B5F87E30EE
:10E8E00063802B88238095F89B302371EB6E0BB1EE
:10E8F00001221A6003B0F0BD243A012A0DD827295D
:10E900000DD093F8263113F0010202D19B07AAD54E
:10E910000222012E18BF1646A5E72729A3D193F896
:10E92000262193F861301340EDE700BF0C3C002036
:10E9300084450020014B93F88C0070470C3C00206C
:10E94000024B93F82900C0F3C00070470C3C002034
:10E95000014B93F88A0070470C3C002065E00000F2
:10E96000B1E10000F9E0000085DF0000F0B5070C20
:10E97000A7F5AA42144B543A012A03EA90231FD95F
:10E9800027F4004042F6AA22801A18BF0120002274
:10E99000162116461F2487EA060562EA0505013599
:10E9A00010D0DD03ADB245EA5606E503ADB201393C
:10E9B00045EA52024FEA53034FEA5404EBD1F0BD4B
:10E9C0000020E4E70020FAE7E0FF3F00304BF0B51D
:10E9D0005A88B0F85C70B0F85A609D88974228BF9A
:10E9E0001746964228BF16461B2E85B00C462ED0E1
:10E9F000B5F5A47F2DD040F648039D4201A928BF5C
:10EA00001D460AF052F9BDF80A30BB4228BF3B460A
:10EA1000E380BDF80C30AB4228BF2B462381BDF804
:10EA20000630B34228BF33466380BDF80830AB429E
:10EA300028BF2B46A380FF232370E3881B3B9BB298
:10EA4000E02B08D940F2E7613920FEF78DFD1B2F3E
:10EA5000CED105B0F0BD63881B3B9BB2E02B02D941
:10EA600040F2E961F0E72389A3F5A4739BB2B3F503
:10EA7000E06F02D940F2EB61E6E7A388A3F5A47347
:10EA80009BB2B3F5E06FE4D940F2ED61DCE700BF83
:10EA90009C3C002010B501210020FFF7CBF8044674
:10EAA00070B90121FFF78AF8044620B94FF4597173
:10EAB0003920FEF759FD034B93F906100CF081F84D
:10EAC000204610BD9C3C0020024B987DC04300F0C6
:10EAD00001007047C4400020044B987DC0F3400003
:10EAE00080F0010000F00100704700BFC44000202A
:10EAF00008B50AF043FF00F0E1FD00F0ADFB0BF0BC
:10EB0000C7F901F0C7FE04F03DF9094B00221A6075
:10EB1000084B1B214FF4A47098801A805980064B33
:10EB2000064818605A829A7599805A749A8208BD6C
:10EB3000884500209C3C0020C440002003021B00AC
:10EB4000044B41F64C52C3E902221B221A74FFF710
:10EB5000CFBF00BFC440002073B5244DAB68036332
:10EB6000234B836104460BF0BCFE064600F064FBB9
:10EB7000830654BF1B236B88A4F85A3058BF1A462B
:10EB80001C4B297C1B6848BFAA88A4F85C2084F829
:10EB9000381066871BB194F9701020889847164E7C
:10EBA000204631460AF082FF01236A886978E385AE
:10EBB000AB88019116F8121C0091033303329BB20B
:10EBC00092B204F1140104F11000FFF7A5F82369D3
:10EBD00023B940F2BE613920FEF7C6FC636913B960
:10EBE00040F2BF61F7E7002002B070BDC4400020D2
:10EBF00000093D008C450020D6400020024B1B68D8
:10EC000003B118470C2070478845002008B504F070
:10EC100083F80AF03FF8014B987108BD9C3C002036
:10EC2000034B5A8802801B7883700020704700BF16
:10EC3000C440002037B583781A2B054608D8042B2A
:10EC400004D9144A22FA03F3DB0705D412241AE08C
:10EC5000292B01D03B2BF9D12888B0F5706FF5D264
:10EC600069460AF04DFF88B9019B93F8182102F01C
:10EC7000FF046AB9AA7883F81921FF2283F81821C2
:10EC800068460AF04BF9204603B030BD0224FAE78B
:10EC90000C24F8E7200038040188A1F11B039BB283
:10ECA000E02B0CD84288A2F5A4739BB244F2481022
:10ECB000834204D8034B002059809A807047122069
:10ECC000704700BF9C3C0020034B5A889B88028001
:10ECD00043800020704700BF9C3C002038B502787C
:10ECE000447802F0010354EA030102F0020201D168
:10ECF000112038BDBAB98578002DF9D0002B18BF86
:10ED0000002400E01D46204609F0A2FF0028EFD0B5
:10ED1000284609F09DFF0028EAD0054B00209C748E
:10ED2000DD749882E5E7002BECD000242546EAE765
:10ED3000C440002013B5008869460AF0FDFE044671
:10ED400020B9019890F82A311BB13A24204602B02C
:10ED500010BD90F8CE3003F0FF04002BF5D190F8F1
:10ED6000C5309B0706D1FF2380F82A3168460AF098
:10ED7000D5F8EBE70249C6300BF0B2F8E6E700BF82
:10ED8000A9A50100F7B50778EF2F05460C460FD867
:10ED900090F901204378002A0ADB8278900707D196
:10EDA00013F010001DD1990603F0030202D51AB129
:10EDB000122442E0032AFBD01E07F9D42979EA780D
:10EDC000EE7942EA0122697942EA0142A97941EAEF
:10EDD00006212E7A41EA06418A42E9D81F2A0FD835
:10EDE000E6E713F0600FE3D103F00702052A05D030
:10EDF00003F00F010D22CA40D107D9D51A07DDD57E
:10EE00006A7A013A062AD3D8AA7A032AD0D813F00C
:10EE1000040102D1023A012A03D8EA7A012AC7D8AA
:10EE200011B9AA7C032AC3D82A7D48B1012ABFD1CF
:10EE30002A7E012ABCD830B91124204603B0F0BD87
:10EE4000022AF5D1B4E7DB0712D46B782A7D03F0F0
:10EE50001803082B11D1022AEED101213846FEF702
:10EE6000E9FE064678B10BF060FEB8B10C24E4E789
:10EE700000F0A2F90028E8D1DEE7022AEDD02B7FCE
:10EE8000002BEAD0D8E701213846FEF797FE064668
:10EE900040B3154B93F906100BF093FE30460BF080
:10EEA00080FF29462070E87430460BF0D0FEEB7EE0
:10EEB0000446002BC1D00028BFD1B16A0246684683
:10EEC00009F0CFFDB06A2246012109F016FEB16AB1
:10EED0006846042209F0C5FDB06A2246214609F0C1
:10EEE0000CFEAAE70724A8E79C3C002030B5027975
:10EEF000042A8BB003464FD84088B0F5804F4BD8DA
:10EF000026498D5C114400244A79ADF8004042F056
:10EF1000100242EA45028D7AC97B8DF8084042EA28
:10EF2000850242EAC10202F01F028DF80020BDF8FE
:10EF30000020ADF809201A888DF80B208DF80E00FE
:10EF4000120A000A8DF80C208DF80D408DF80F0084
:10EF50008DF810405A7B8DF811205A798DF81220C7
:10EF60009A79D3F807008DF81320B3F80B209B7B18
:10EF70008DF81A307F2305908DF81B3069464FF0CD
:10EF8000011302A8CDE90734ADF818208DF824400C
:10EF9000FFF7F8FE0BB030BD1220FBE709B4060006
:10EFA000F7B50646FFF776FD04460BF005FF33780C
:10EFB000012B054661D120460BF036FE00287BD0A0
:10EFC00020460BF0F9FE18B115B9122003B0F0BDC0
:10EFD00020460BF0AAFD08B10C20F7E720460BF005
:10EFE000E1FD07460028F7D1204602F0E7FD0028A2
:10EFF000EBD0ED0142F2107339462046ADB25D43CD
:10F000000BF0C6FE20460BF0CFFE014658B92A464B
:10F01000204601F0D9FF08B90020D7E741F66D413D
:10F020003920FEF7A1FA39460DF10600FEF78EFDF4
:10F03000064608B90D20C9E7394600F00FFDBDF8B6
:10F0400006303380314620460BF0BAFE01213046AF
:10F05000FFF782FD2A463146204601F0B5FF024601
:10F0600010B141F69041DBE7144B9B68002BD3D0E5
:10F0700006F58D7130469847CEE7002BA5D1204686
:10F080000BF0D2FDC0B120460BF04FFD0028C3D0DD
:10F0900020460BF0F6FB054620460BF0F5FB01463B
:10F0A000002899D1002DB7D02888FEF7D9FD002877
:10F0B000B2D041F6B241B3E7422087E79C3C002042
:10F0C0000278034672B1427862B142881A2A09D99D
:10F0D00082881A2A06D9044A006810609B889380A7
:10F0E0000020704712207047C4400020024B026885
:10F0F0009A600020704700BFC44000200378A3F14D
:10F100000A02112A9DBF024A002013741220704780
:10F11000C440002008B5052000F082F803F0DEFDB1
:10F12000014B024A9A6008BD9C3C0020CDE90000DA
:10F1300008B5094B01221A7002F030FD0BF0FFFFF9
:10F140000AF01AFCFFF7FCFA002009F057FCBDE8B2
:10F15000084000F005BE00BFA83C002010B5064CDA
:10F160000649201D0AF0D2F904F108000449BDE85F
:10F1700010400AF0CBB900BFA83C00204800002096
:10F180005000002010B5084C0849201D0AF0BEF9B7
:10F1900004F1080006490AF0B9F904F10C00054928
:10F1A000BDE810400AF0B2B9A83C00205800002089
:10F1B0006000002068000020014B1878704700BFF5
:10F1C000A83C002010B5064C00F0A6FD60680AF0CF
:10F1D00095F9FFF7B5FC00F081FF0123237410BD02
:10F1E000A83C0020014B187C704700BFA83C0020C1
:10F1F00010B5064CA0680AF081F9E0680AF07EF9C3
:10F20000FFF776FC0023237410BD00BFA83C00204C
:10F2100000487047B93C002000487047BB3D0020C3
:10F22000C208044900F0070001238340885C0343BF
:10F230008B54704710000020014BD3E90001704748
:10F2400010000020034B1868C0F30020400040F07D
:10F25000010070471000002008B505F0EFFA084AD9
:10F26000002332F82310814205D302EB8302937806
:10F27000044A137008BD01330C2BF2D10023F7E7C9
:10F280001EB40600BD3E002010B544682388A4F8D3
:10F29000683194F8683084F86711012B06D0022B8E
:10F2A00004D040F211310620FEF75EF984F86A318D
:10F2B00094F86930012B01D0022BF2D184F86B3124
:10F2C000044904F5AF700AF00BFE002384F82431E2
:10F2D00010BD00BF99950100406808490388A0F857
:10F2E0005A3190F8603080F85C3190F8613080F8E5
:10F2F0005D3100F251100AF0EDBD00BFAF95010085
:10F30000024B002283F822209A847047BE3E0020E0
:10F31000044B93F82220012A1ABF03600120002029
:10F32000704700BFBE3E0020054B93F82210012914
:10F3300002461DBF012083F822009A8400207047F6
:10F34000BE3E0020054B024693F8220020B1136018
:10F3500009B19B8C0B800120704700BFBE3E00208E
:10F36000044B93F8220000229A8410B183F82220E3
:10F3700001207047BE3E0020034B93F82200B0FAF4
:10F3800080F04009704700BFBE3E002050B90A4AD5
:10F390001346012003F8010B0868C2F801008A88AF
:10F3A0009A807047012805D1034B0A689A608A88C1
:10F3B000D8719A81704700BFE43E002050B90B4BD2
:10F3C000187888B1D3F80120B3F805300A608B8033
:10F3D00001207047012806D1044BD87920B19A68E2
:10F3E0000A609B89F3E70020704700BFE43E0020DD
:10F3F00010B9044B18787047012806BF014BD87923
:10F4000000207047E43E0020F7B500238A888DF87D
:10F410000600ADF8042008680B4A8DF80730019DFE
:10F420001478014602F5A872D8B2844201D80820A7
:10F4300008E052F8087F5668AE4208BF8F4203F1D9
:10F440000103F1D103B0F0BDF83E002030B5094B07
:10F4500001465C78002203F20113D0B2844201D845
:10F46000082005E013F8015F8D4202F10102F4D19A
:10F4700030BD00BFF83E0020F8B52D4C6378013B4D
:10F48000DBB22218834292F80251637030D01A0125
:10F490000101961C8F1C2644274406F1100C56F8D7
:10F4A00004EB47F804EB6645F9D1823282312244FD
:10F4B000214402F1100652F8047B41F8047BB24269
:10F4C000F9D1E118221891F8026182F8026106264A
:10F4D0007343704303F5857300F58570E618E358B0
:10F4E00023502718B388BB8091F83A3182F83A311B
:10F4F0002846FFF7ABFF082818D12378013BDBB281
:10F500009D42237012D02B3304EBC30393E8030016
:10F5100005F12B0204EBC20282E803002078FFF71A
:10F5200095FF08281CBF241884F80251F8BD00BFBD
:10F53000F83E0020F0B5254D95F8984189B0224657
:10F5400005F29911684607F06FFE214668460AF0F9
:10F5500034FA0446B8B300EB4001C9B202A8FEF782
:10F5600051F9631E95F8A161DBB2012495F8981159
:10F5700005E0721CB2FBF1F001FB1022D6B206F1DD
:10F5800020020DEB020010F8202C002AF1D103EB31
:10F5900043012031694406EB46022A4411F8187CE5
:10F5A00082F8A27111F8177C11F8161C82F8A37169
:10F5B00082F8A41100F8204C013BAA19DBB2FF2B02
:10F5C00082F89941D2D109B0F0BD00BFF83E0020C9
:10F5D00070B5064688B00C46002A4ED0294A92F8EB
:10F5E000A131D01890F8991119B9FF212820FDF701
:10F5F000BBFF03EB43011144013391F8A251E570C5
:10F6000091F8A35191F8A41161710021257180F83E
:10F61000991192F89811B3FBF1F001FB103382F8C5
:10F62000A13192F8C23123B9174902F5DD700AF011
:10F6300054FC657905F03F0545F0400565710D22E4
:10F640000021684607F0B0FDE3788DF80F3023798C
:10F650008DF80E3004AA0423694630468DF80D500B
:10F6600007F000FC9DF81F3023709DF81E3063707A
:10F670009DF81D30A37008B070BD03216018FEF71F
:10F68000C1F8D6E7F83E002035F50000044B5A7863
:10F69000824286BF1B1893F84A010020704700BFC2
:10F6A000F83E0020044B5A78824286BF1B1893F81C
:10F6B00042010020704700BFF83E0020064B0022A8
:10F6C0004FF461711A8083F8C32183F8C421A3F831
:10F6D000C61183F8C2217047F83E00202DE9F0479B
:10F6E0008246894617469846FFF78EFE082805464B
:10F6F000064603D0FFF7AAFE082860D1324C637893
:10F70000072B5ED8082D15D12678731C072E237081
:10F7100003D96C212820FDF727FF06F12B02D9F829
:10F72000000044F8320004EBC203B9F804209A80C8
:10F7300083F806A065786B1C290163704B1C07F1E8
:10F740001002234412F8010D03F8010FBA42F9D157
:10F75000813108F11003214413F8012D01F8012F24
:10F760009845F9D1102140460AF057F92544102157
:10F7700085F8420138460AF050F985F8026166784A
:10F7800085F84A010023114885F83A3131460AF0DC
:10F7900014F90128054607D80D4831460AF00DF93D
:10F7A000002818BF0135EDB284F89851002528468D
:10F7B00084F8A151FFF7BEFE2846BDE8F08712206D
:10F7C000FBE70720F9E700BFF83E00203A400020A1
:10F7D0004240002010B5064B5878013840B200284E
:10F7E00000DA10BDC4B22046FFF746FE601EF5E702
:10F7F000F83E0020014B83F8C3017047F83E00201B
:10F80000014B93F8C3017047F83E0020431E9BB2A2
:10F810004AF2B71293429DBF024BA3F8C6010120E2
:10F8200000207047F83E0020014BB3F8C601704736
:10F83000F83E002030B50A4B5C7884420ED918445B
:10F8400090F802012B3003EBC004A5790D7053F83A
:10F8500030001060A3889380012030BD0020FCE7B9
:10F86000F83E00200246074810B590F8C34124B185
:10F87000417821B1023003F0A7FA204610BD0C46B2
:10F88000FBE700BFF83E00202DE9F74F2F4C9A46CA
:10F89000637883428046894656D9231893F84251AB
:10F8A00085F00105F9B193F84A31E3B945F0020753
:10F8B0000135BAF1000F18D1FA070AD5062101FB6C
:10F8C000084104EB0810524601F585718230FFF7BC
:10F8D0007FFEBB0734D504EB081052464946023080
:10F8E000FFF776FE2CE02F46E3E794F8A1614FF096
:10F8F000010B002DE0D0A319019393F8991199B948
:10F900000092DAB100F0BAFB06EB46012144019BFC
:10F9100081F8A2014FEA102C009A81F8A3C1000CD3
:10F9200081F8A40183F899B194F898310136B6FBB7
:10F93000F3F103FB1166F6B2013DDAE747F0040785
:10F94000384603B0BDE8F08F0027F9E7F83E002005
:10F95000074B5A78824209D91A1892F842212AB9DB
:10F96000062202FB003000F58570704700207047CA
:10F97000F83E0020064B5A78824281BF1B1893F84C
:10F980003A01B0FA80F0400998BF0020704700BFEC
:10F99000F83E0020F8B50E460746062130461546CB
:10F9A0000AF03BF8044670B10C4B0022587803F281
:10F9B0003913D1B2884202D801242046F8BD03F899
:10F9C000015F0132F5E7314638460AF012F808289F
:10F9D000F3D0024B034483F83A51EDE7F83E0020A0
:10F9E000034B80F870101B680BB1008818477047F4
:10F9F000904500200B2808B504D940F20D112920AC
:10FA0000FDF7B2FD014B33F8100008BD4EB40600FF
:10FA100030B500248487B0F8404042F210754C4362
:10FA2000B4FBF2F4A0F84040541E05FB0343B3FBC3
:10FA3000F2F3C387084BB3FBF2F30133A0F8443071
:10FA4000038F05FB0344036BB4FBF2F45943446397
:10FA5000B1FBF2F1016330BD005A620270B5044699
:10FA60000D4641BB4FF4227207F09EFB012384F840
:10FA70008D306FF0360384F8D530042384F8D63007
:10FA80006FF03B0384F8D7306F2384F8D8306FF0E1
:10FA90003C0384F8D9306FF07F0384F8DB302B23EC
:10FAA00084F8D430FE2384F80E317F2384F8DA50B2
:10FAB00084F8833070BD012923D10023A0F8B4312C
:10FAC00080F8AB31826940F6B833A0F8B030114607
:10FAD000438C7830FFF79CFF104B1B68062B01D03E
:10FAE00001330CD10E4B1B68063B083307D9E06984
:10FAF000FEF73CFF18B9012384F89F31DAE70023B1
:10FB0000FAE70229D6D1B0F86A32D0F864228169C6
:10FB1000BDE870407830FFF77BBF00BF084500208C
:10FB20000C4500200346084671B13F2B0BD8074A0D
:10FB3000D35C03F07F02914205D08CBF01200020EE
:10FB400000EAD31070470120704700BF66B406007A
:10FB50002DE9F7430E4669461546994609F0D0FF50
:10FB6000044620B9019F35B9012387F88C30012064
:10FB700003B0BDE8F083D7F810802946404608F06E
:10FB800080FD01460028F3D0134B5B88AB4221D3A4
:10FB9000404608F0B5FE97F88C30A0F80140002BE5
:10FBA00018BF0226494600F8036B2A4607F03CFBC3
:10FBB0002946404608F0A0FD18B98B212B20FDF7FF
:10FBC000D3FC684609F0AAF9019BA3F8A24187F883
:10FBD0008C40CCE72046CBE7C4400020FF230B70CD
:10FBE00002234B7083238B70014B1B78CB707047C3
:10FBF000DC4000202DE9F84FD0F80480D8F81460DC
:10FC000030460C4608F06EFE054620B940F253110E
:10FC10001020FDF7A9FC0146304608F071FEB5F84A
:10FC200000B01FFA8BF7824617B940F25711EFE781
:10FC3000224B1B6800F10309D3B998F8003098F8FB
:10FC4000012023706378A4F802B002F00F0223F0C1
:10FC50000F03134323F0C00363709AF8003003F0DE
:10FC60000303012B0FD0022B0DD040F27511CFE70B
:10FC7000B8F800003A464946984705460028DCD1C6
:10FC80002846BDE8F88F627863F30512627030464B
:10FC900008F03CFE054610B940F27F11B8E7FB2F93
:10FCA00002D94FF4C771B3E73A464946201D07F021
:10FCB000BBFA304608F085FDE2E700BF944500201E
:10FCC00038B5134C10220021201D07F06DFA0125D4
:10FCD0002574102204F10803002104F11400C4E982
:10FCE000013307F061FA84F8205004F11803C4E9E5
:10FCF0000533084A00236362A36284F82C30C4F8F9
:10FD00002D30C4F8313084F835301360A36338BD2A
:10FD1000DC4000209445002010B5084C2378FF2BD0
:10FD200004D04FF4CC711020FDF71EFC07F0E0F872
:10FD30002070BDE81040FFF7C3BF00BF1D000020CA
:10FD400010B5034C207807F0EDF8FF23237010BDA9
:10FD50001D000020014B187807F0F4B81D000020AA
:10FD6000014B024A1A60704798450020F5FB0000DD
:10FD70002DE9F341DFF86881054608F11407D8F84A
:10FD80000830D8F81840227A012A22D1D8F8382031
:10FD900052B1137A1BB9BF211020FDF7E5FBD8F84B
:10FDA0003840C4B9002083E01A7A012AFAD04D4ABB
:10FDB0001C46EFF3108172B650680068506001B9BC
:10FDC00062B6A34208BFC8F83840237A1BB9EE21B7
:10FDD000E2E73A46EDE7267AF6B205232372731E70
:10FDE0000B2B6ED8DFE803F06A062235676D3E6D97
:10FDF0006D6D6D5B636813B940F20B21CCE7204653
:10FE0000294698470420EFF3108272B6237A052B17
:10FE1000D9B24FF0000359D12372D8F83810A1425B
:10FE200001D1C8F83830B2BB62B634E0636813B9A8
:10FE30004FF40571B0E72946204698470346C3F3BF
:10FE40000723012BADF80400C0B22FD0022BDAD16A
:10FE50001AE0636813B94FF407719DE7204698478D
:10FE60000020D0E763680BB9FE2195E70B222A70CA
:10FE700001221988AA706A7100221869A5F8031076
:10FE8000AA7108F09EFC0420D8F83830A34202D1B1
:10FE90000023C8F8383000283FF471AF08E0124B57
:10FEA00029461B6820469847034668B9267298B1D0
:10FEB00002B0BDE8F08140F253216DE740F25621D7
:10FEC0006AE740F2592167E70220DDE711B940F205
:10FED0007A2161E71846A6E7002B7FF450AF61E76F
:10FEE000DC400020E04000209845002010B513467B
:10FEF000027A22B140F201311020FDF735FB0A46AB
:10FF0000BDE810400146014809F0C4BFE0400020B0
:10FF1000044890F82C301BB90349243009F0D7BFAE
:10FF2000704700BFDC400020879E01000346064862
:10FF300090F83C203AB190F8352022B900F82D3BDA
:10FF4000024909F0C4BF7047DC400020DDFB00001F
:10FF500010B50A46037A23B140F209311020FDF7AB
:10FF600003FB0146BDE810400148072309F092BF9A
:10FF7000F04000201346027A0AB1037270470A4625
:10FF80000146014809F086BFE04000201B234FF0E6
:10FF90001B128384038482618382C260038539B922
:10FFA0004FF4A473034AC3844384C261C3820261D1
:10FFB000704700BF480148010346F0B4B3F854202D
:10FFC000B3F84840B3F84460DF8FB3F8425094422E
:10FFD00028BF14460846B3F84C20B3F85610DC8707
:10FFE0008A4228BF0A46B3F84610A3F8422091423D
:10FFF00038BF1146A64238BF2646A742A3F8446040
:020000021000EC
:10000000A3F846101FD1AA1A18BF0122B3F84A500C
:10001000B3F85040B3F852709E8FB3F84010A54229
:1000200028BF2546B3F84E409D87BC4228BF3C46BA
:10003000AE42A3F8404002D1A14200D12AB1F0BCA7
:10004000034909F04DBF0122E0E7F0BC704700BF53
:10005000E79E01000B8BA2F80B304B8BA2F80D3002
:100060008B8BA2F80F30CB8BA2F809000249A2F8C3
:100070001130104609F02EBF379F0100094AD2E91E
:100080000003434083EAB01181EA43214FEAF3437E
:100090005360054B116058434FEAF06000EB80005D
:1000A000704700BF1C410020BB79379E094AD2E946
:1000B0000003434083EAB01181EA43214FEAF3434E
:1000C0005360054B116058434FEAF06000EB80002D
:1000D000704700BF20000020BB79379E10B50A4C46
:1000E00009480821FDF78EFBD4E900321343F7D00D
:1000F000064CFFF7DBFF2060FFF7D8FF2368606046
:100100001843F6D010BD00BF200000201C41002085
:10011000174B184A9A60184A5A60184A1A60184AC7
:100120009A62184ADA62184ADA60184A9A61184ADA
:100130001A63184A1A62184ADA64184A9A64184A02
:100140005A62184B184A9A60184A5A62184ADA6278
:10015000184A1A61184A5A61184A9A61184A1A6369
:10016000184A9A64184ADA64184A9A63704700BFBA
:100170009C450020EDA101001DA2010089A2010003
:10018000EDA3010041A40100C104010057A4010036
:1001900025070100AD05010025A5010041A50100CD
:1001A000F90501009C46002009A20100F7A4010006
:1001B00079A401001DA401009DA401004D050100CA
:1001C000C7A501006FA5010061A50100DDA4010024
:1001D000044B054A5A65054B054A1A65054A5A6596
:1001E000704700BF9C45002033A301009C460020BF
:1001F00019A3010099A30100054B064A9A65064A16
:100200001A66064B064A9A65064ADA65704700BFC9
:100210009C45002035970100D79701009C4600209F
:100220008196010059990100023A08B5232A00F28B
:100230009980DFE802F012971E9A9A2E9730979ACB
:100240003540449797489A9A5C5C73739797979751
:10025000979797979797977A879002784368012A9C
:1002600002D193F8103101E093F819314B7002205C
:100270000EE04268D2F8BE31C1F80130D2F8C23186
:10028000C1F805304368D3F80431C1F809300D20B6
:1002900008BD4368E5E700F00BFA0028F8D147E015
:1002A00059228A7000221023CA70A3224B700A714F
:1002B0004B710620ECE7436893F80A31D6E708460D
:1002C00000F0E4F9E9E70278436852B993F81021A5
:1002D0003AB193F80D214A7093F80C318B700320DA
:1002E000D6E793F80B214A7093F80A31F6E7436892
:1002F000B3F854204A70120A8A70B3F81221CA70F7
:10030000120A0A71B3F850204A71120A8A71B3F8BE
:100310001031CB711B0A0B720920B9E7436893F8BF
:1003200026214A7093F82731D8E7114B1B6823B96F
:1003300040F20D515120FDF717F90246232098474E
:100340000420A5E70A4B1B68002BF1D002462420AD
:10035000984705209CE7064B1B68002BE8D0024617
:100360002520F5E74FF4A161E4E7012090E700BF05
:100370009C4700203F289ABF024B53F820000020E2
:10038000704700BF9C4500203F289ABF024B53F89E
:1003900020000020704700BF9C460020F7B545684C
:1003A0002E6904464FF6FF770DF102010DF10102AF
:1003B0003046ADF8027008F0BAF901A9304608F0ED
:1003C000DBF940B1019808F09FFA616800220272DF
:1003D000FFF7BEFDE8E7044905F19E0003B0BDE864
:1003E000F04009F077BD00BF81A10100F0B50446DF
:1003F00085B00D46FF2600F8A56C10F8A63CF3B1B9
:10040000174F3B781BB15F211F20FDF7ADF80C2182
:10041000381DFDF7F7F93E70002304F8A53C2A4685
:10042000072302F8033BD4F80930C5F80330D4F8A9
:100430000D305360D4F81130936005B0F0BD01A8C1
:100440000C21FDF7DFF9A4F5B473039A1A6001AB30
:1004500003CB44F8AE0C44F8AA1C04F8A66CDBE706
:100460002441002010B5054C23782BB90C21201D08
:10047000FDF7C8F9FF23237010BD00BF2441002001
:10048000024690F8C631BBB990F8C73103F0FF01BE
:100490000BB100207047094B18780028F9D019706B
:1004A000D968C2F80411043303CBC2F8BE01C2F804
:1004B000C211FF2382F8C631012070472441002079
:1004C00038B5426892F8863004460D463BB1132B8E
:1004D00005D0113B0F2B8CBF0120082038BD92F8AE
:1004E000C43013B9204609F008FE6268D5F80B3015
:1004F000C2F8B631D5F80F30C2F8BA316368D5F812
:100500001320C3F800211A88A3F87522D5F801201A
:10051000C3F87722D5F80520C3F87B226368B5F8C5
:100520000920A3F87F226368002583F8C65160681C
:10053000054900F51B7009F0CAFC6368162283F8B0
:1005400086202846CAE700BFED03010038B543689E
:1005500093F88620202A044604D04FF410711F20FF
:10056000FDF702F893F8C4101D88002283F8C32019
:1005700003F5C97069B10B4983F8C420A3F89C51F5
:1005800083F89B2109F0A3FC6368002283F886208E
:1005900038BD012283F89B11A3F89C51024983F8CE
:1005A0009E21EFE7D9A30100CBA3010038B5456830
:1005B000AB6F13F0010419D1D1F801200C4BD1F825
:1005C000051013400B4AC5F8D430C3F3076343F05A
:1005D00008030A4085F8D730C5F8D82009F08DFD0A
:1005E000AB6F43F00103AB67204638BD0120FCE749
:1005F0002FC904F76FDB008010B5406890F8853094
:10060000042B2CD1D1F80130D1F80540C0F8D430FA
:10061000C3F3076343F0080380F8D73000234A1C74
:10062000C0F8D84080F8BE3080F8853090F874313A
:1006300003F0FF040BB1002010BD0388A0F8763151
:1006400080F87541D1F80130C0F878315368C0F8AE
:100650007C31044900F5B67009F039FCEBE7012064
:10066000EAE700BFBBA40100406890F8743153B9B9
:100670000388A0F876311A2380F87531024900F515
:10068000B67009F024BC7047BBA4010010B5044645
:10069000FEF7D2FD044A054B02400B40C4F801208E
:1006A000C4F80530092010BD2FC904F76FDB0080A6
:1006B00037B50C464568FEF7BFFD0A4A0A4B0A40AB
:1006C00095F8D4100192034000930B408DF8003050
:1006D0006B4603CBC4F801000920C4F8051003B031
:1006E00030BD00BF6FDB00802FC904F738B5DB04D5
:1006F000154604D5C37C13B10023036338BD046BD6
:100700000134046309F040FF436B9C42F6D300239D
:10071000036303492846BDE8384009F0E1BB00BF48
:1007200017A5010038B5446894F88530012B0546BB
:1007300002D0A36F98073AD494F8C5309A0713D41F
:100740004A7884F8CF204A88A4F8D0208A88A4F870
:10075000D220D80743F0020284F8C5200FD51549EE
:1007600004F1C60009F0BCFB94F8C530D90711D4D8
:10077000A36F9A0708D558214020FCF7F5FE94F89E
:100780002A31002BEBD1EFE743F00203A3672846A1
:1007900009F0B3FC94F88530012B4FF0000301D031
:1007A000002038BD84F8853084F8BE30F8E7012099
:1007B000F7E700BFA9A5010070B54568044602F03F
:1007C000BFFA054B85F883001B6801461BB1204624
:1007D000BDE87040184770BDA4470020024B1B685D
:1007E00003B11847704700BFA0470020F0B51F4D68
:1007F0002B78002414709BB1013B6D68DBB21E1B8B
:10080000012E0FDC05EBC40655F8347076688E4275
:1008100008BF874227D0B84271EB060612D2147087
:100820000020F0BD1E19771005EBC70E55F837C034
:10083000DEF804708445C6F347068F412CBF33466B
:100840003446DCE705EBC30455F8335064688C424A
:1008500008BF854206D0A84271EB040428BF0133CB
:100860001370DDE71C4614700120DAE744410020D4
:1008700010F0070208B503D063214820FCF774FE8E
:1008800018B1034B197258601A70C80008BD00BF38
:1008900044410020014B00221A707047444100205F
:1008A000FF230B70074A0D234B7082238B70136854
:1008B000C1F803305368C1F807309368C1F80B30B2
:1008C000704700BF5A41002002481622002106F05E
:1008D0006BBC00BF5A41002082B002AB03E90300A9
:1008E0000B48437D93B1530610D50A880280D1F896
:1008F0004022B1F87E304260D1F84422054982603E
:10090000438002220C3002B0FFF734BB02B07047C4
:100910005A410020A1080100094B53F8203070B55E
:1009200003F523430C461646A1334FF47A72B3FB0A
:10093000F2F503F005F934442C44204470BD00BFA7
:1009400068B506002DE9F04F8DB09A4690F86930F1
:10095000029304468946069208F01CFE834694F8EA
:100960007300FFF747F8834409F073FE94F886306C
:100970000393069B1FFA8BFB00F1590783BB94F886
:100980008430032B2CD1039B0D2B29D1B4F85C327E
:100990004B4525D1D4F8E031C4F8D031A369B4F87F
:1009A000B421C4F8D431B4F852321344C4F8D83165
:1009B000204602F063F9D4E99823A262B4F85E22DB
:1009C000A285D4F86822226241F64B529342A36179
:1009D0008CBF0023012384F87230022384F8843012
:1009E000B4F85052B4F87E80A9EB05052DB204F599
:1009F0000873A9EB0808002D04930FFA88F818DA99
:100A0000D4E98E23C4E99223012345460493CB4BBA
:100A10001B7813B103F006FF70B9002694F88430F8
:100A2000032B00F2E081DFE813F06C006901BD00E8
:100A30008D01CDF810A0EAE7B4F8C831012BECD94C
:100A400094F88430022BE8D094F8F261002EE4D1BF
:100A500094F87300FEF7CEFF94F8843000F5C86B6D
:100A6000012B1FFA8BFBD9B23ED194F88920A36ADF
:100A7000032A32D1D4F8D42113445946D4F8D401EE
:100A8000079303F093FED4F8D061079BD4F8D821E4
:100A9000C4F8D001861B59461846564303F086FE1B
:100AA000D4F8DC31C4F8DC01C31A5946A0691E44ED
:100AB00003F07CFEB4F8B431D4F8D82143445B1B76
:100AC0009B1AD4F8E021013B821A02FB0366012342
:100AD000C4F8E00184F8F231A0E73046079308F04B
:100AE000FAFF079B0344C8E7A069594603F05EFE7E
:100AF000B4F8B461D4F8E0314644761BC31A5E43BF
:100B0000E5E70121002008F0E6FF8046A06A59468B
:100B1000404403F04BFE5946C4F8DC01A06903F0E1
:100B200045FE09A9C4F8E0010AA802F009FF099BE3
:100B30000093D4E99201DDE90A2303F009FF029052
:100B4000204609F09EFDA16AD4F8542294F8690069
:100B50008D1802F0FDFFD4F8DC11029B203D6D1AC8
:100B6000ED1B454400F52340ED1AA1304FF47A7394
:100B7000B0FBF3F0A38D30312D1A03EB410194F853
:100B800069003A46FFF7C8FED4F85432EB1A223017
:100B9000B3F5917FC4F8E40159D240F2C741302047
:100BA000FCF7E2FCA36AD4F8D4015946184403F0D8
:100BB000FDFD5946C4F8DC01A06903F0F7FDC4F857
:100BC000E001204609F05DFDA36AD4F8D4511D442C
:100BD000B4F8B431002B40F08D80BAF1000F00F072
:100BE000898094F8690002F0B3FFD4F8DC11D4F8DE
:100BF000403294F869206D1A203D1D44D4E98EBC22
:100C00004F4B53F82220A5EB0B054FF47A7302F2F9
:100C1000E732B2FBF3F21544ED1B00F52340A1309F
:100C2000B0FBF3F02D1AD4F8D821D4F8D03194F8D1
:100C3000690002FB0313A18D303301EB43013A46F7
:100C4000FFF76AFE0123C4F8E40184F88430A36945
:100C5000D4F8E021E73B9B1ADF1B002384F8203205
:100C6000D4E992328742A5EB060528BF07465B19F7
:100C700042F10002C4E98C32C4F8B07104F13000D2
:100C800009F0A5F9042384F82932D4E98C23C4E9B6
:100C90009223B4F8A031A4F85092A3EB09031BB23D
:100CA000002BD4BF00220122520084F82822039A8C
:100CB00038440D2AC4F8240200F09880BAF1000FDD
:100CC00040F0978094F88430002B00F0AF80A16949
:100CD000D4F8E03104F50870C91A08F0AAFE80B211
:100CE000002800F0A380169B03B1188001200DB0EE
:100CF000BDE8F08FD4F8DC116D1A94E7D4F8E01158
:100D0000A369B4F8B421D4F8D801D4F8D0C15B1ADF
:100D10005D43D4F8DC314244121A3033013A0CFB03
:100D2000003301FB0233A18D94F869003A4601EBD0
:100D30004301FFF7F1FDC4F8E40188E770410020AA
:100D400068B50600D4F8E0E1A369A3EB0E035D43A8
:100D500094F88530292B03D094F88630292B0CD1B8
:100D6000B4F85C32A9EB03031B0406D4029A94F88E
:100D70005F32002B18BF1A460292049BB4F8B4C12C
:100D800043B3BCF1000F25D1D4E99023D4E98E01FF
:100D9000904271EB030302D340F21B51FFE694F83B
:100DA00069102C4B53F82130D4E98E01CDE90401B0
:100DB0000498203A121A03F2E7314FF47A7B03F5D4
:100DC0002343B1FBFBF10A44A133B3FBFBF3D21A7B
:100DD000D21B15440CEB08010EFB01F130310298D7
:100DE0003A464900A5E740F23351D8E6BAF1000F80
:100DF0001CD0B4F8C80118B3B4F8CA1194F8CC21C7
:100E0000A4F8CA1101FB0222904201F101050DDD97
:100E1000002B0BDD002384F82832A4F8CA51FFF719
:100E20002DF900F00700013084F8CC0104F50871B9
:100E300004F5FC7004F002FF20B940F27D51AEE6EB
:100E40000146DBE7069B83F0010384F8F0310020C4
:100E50004DE700BF68B506002DE9F8430E4604468D
:100E600018B9D5213020FCF77FFB052900F2A780B7
:100E7000DFE801F00376413DA52E03F0BFFEC4E993
:100E80004601204600F0BCFFD4F80C01CB3803F03B
:100E900057FD204609F090FF054600BB014620465D
:100EA00009F0C7FE00F1E506D4F80C01B04209D202
:100EB000301A322838BF3220032103F06FFE60B1B0
:100EC00003F042FDC4F80C61204609F085FF45B1EE
:100ED0002046BDE8F84309F080BF0125F2E7002570
:100EE000F2E7D4E94623C4E94023BDE8F883BDE82E
:100EF000F84302F031BD09F0A7FE042384F8113154
:100F00008146884603F01AFD07220F46A9FB0231ED
:100F100002FB0811D4E940525B1941EB0205D4F8F9
:100F2000E8203AB159EA080204D0984277EB05026A
:100F300028BF012684F81061D4E94826121A66EB0E
:100F4000070694F8301139B9012A76F100010BDA5D
:100F5000204600F05DFF03E0012A76F10006F7DB92
:100F6000002384F82831C0E7984277EB05010FD2BF
:100F700059EA08080CD01B1A65EB07019A4276EB78
:100F8000010005DB012B71F10000A4BF1A460E46DB
:100F90000C490123914284F829314FF0000384F871
:100FA0000831B341B8BF0A4604F1C00004F58471AA
:100FB00004F010FF002898D140F2BA6152E7F12105
:100FC00050E700BF0040420F2DE9F84304460E46AB
:100FD000154690F8283103F0FF07002B40F094806D
:100FE00000F1C00839467822404606F0DDF847494E
:100FF0002246404604F01CFEC4F8E860FF2384F853
:10100000283166B1FFF752F800F00700013086F88A
:10101000CC013F49324606F5FC7004F009FE40F26F
:1010200002434FF00009A4F8103184F8089103F04E
:101030000FFC00F19E06204609F0BEFEB6B2014646
:10104000C0B308F0A7FA00F5CD6189B2284603F0D5
:10105000ADFB2844C4F80C0103F070FC301841F1DA
:101060000001C4E94601012084F8EC00A4F81E90B8
:1010700009F055FFE53D2D1AC4F8F0504FF0FF354B
:101080006FF00041D4E94623C4E948510025C4E982
:101090003E23C4E9402384F8295142F2107204F53A
:1010A0008471404604F096FE38BB40F2BB113020FC
:1010B000FCF75AFA204609F0BCFDDFF85890E530FD
:1010C000C4F80C01B9F8020048B1E08B38B1FEF762
:1010D000EDFFB9F80230B0FBF3F202FB1300064457
:1010E00003F02CFC361841F10001C4E94661002DE3
:1010F000C4D0AD1941F10001C4E72946204609F0EA
:101100006EFE3846BDE8F8830C27FAE7590E010059
:101110009DA6010070410020F0B5002385B0CDE907
:10112000003301238DF806306846FCF7BDFD70B131
:10113000114E012333710023CDE9023302A8FCF7DD
:10114000B3FD044638B10023337105B0F0BD0098FB
:1011500009F09AFBE8E7029D95F88430002BEDD06A
:1011600005F5FC77384604F0DDFD384604F018FE3E
:1011700085F88440E2E700BF70410020054B002263
:1011800001215A7119701A7142F210725A80FFF7D8
:10119000C3BF00BF70410020014B5871704700BFB2
:1011A0007041002008B502F0E7F8044B9A688242CB
:1011B0002ABF1879002080F0010008BD704100208E
:1011C0002DE9F3470446062900F2DA80DFE801F052
:1011D000048673838A8FD300D0E98E01D4E99023EB
:1011E000904271EB030354D294F8F231002B50D0AB
:1011F00094F88430032B4CD109F02BFA94F869A0B1
:10120000814608F0C7F9064694F87300FEF7F2FB32
:10121000064494F87300FEF7EDFBD4E98E23D4F86E
:101220004072D4F8B05180465046BF1A02F088FC94
:10123000554A52F82A20A5F1590302F52342A1325A
:101240004FF47A71B2FBF1F29B1AA3EB09031B1A5C
:1012500009F1820909EB5309B6B2603B08F5C86889
:1012600073431FFA88F8B3FBF8F360335A08A9EB0D
:1012700053039F4202D391444F4501D903F0D8FA5A
:10128000A069314603F092FA0023C4F8E00184F823
:10129000F2313E4B1B7903F0FF0263B90092B4F8C0
:1012A000A41101232046FFF74DFB38B140F2D6616F
:1012B0003020FCF759F9042384F8843002F030FA26
:1012C00004F0A2FCB4F87E20A4F8EE210023A4F8D8
:1012D000523284F8F13102B0BDE8F087032380F880
:1012E0008430F8E709F0D8FFC4E99001F3E790F8FB
:1012F0006900264F09F0B5F9B530D4F8E031A56999
:1013000095288CBF0020C0F19600C218954288BF76
:10131000ED1A7B798CBF2D1A00251BB9236B9D42DA
:1013200028BF1D4604F13000D4F8B06108F04FFE2C
:101330000644022003F006FCAD1B25EAE575854254
:1013400028BF05460221284603F028FC10B103F00F
:10135000FBFA2E44012340F245123146204608F0A4
:1013600093FED4F8B031B860A069184402B0BDE86B
:10137000F04703F0E5BA02B0BDE8F04709F081B9E3
:1013800040F2A47194E700BF68B5060070410020E8
:10139000014B5880704700BF70410020074A034648
:1013A0001068D3F84920C0F80320B3F84D20A0F806
:1013B000072093F8481008F0A2BC00BF7C41002031
:1013C00070B504460E466588807D15F0040113460D
:1013D00018BF04F157013246FEF756FA4107054699
:1013E00021D4C2070BD5012384F84830A07DFEF735
:1013F000AFFA0368C4F849308388A4F84D30AB07CE
:1014000001D4012070BD094B1868D4F85730012170
:1014100084F85610C0F80930B4F85B30A0F80D30ED
:1014200008F076FCEDE70020ECE700BF7C410020EF
:1014300038B5C38C0F4D0133C3F30E03C3842B7C2B
:1014400004462BB102F03CFA01F0F0FC00232B74AF
:1014500000232B7194F869302BB101212046BDE89F
:10146000384009F0E0BA637C13B1E28C9A42F4D2BE
:101470000021F3E77C41002010B5074C2379012BB4
:1014800005D1237C1BB102F01BFA01F0CFFCA0694F
:10149000BDE81040FFF7CCBF7C41002070B5254C63
:1014A0002379012B04D04FF448612D20FCF75CF820
:1014B00098B90125237C1BB102F002FA01F0B6FCB9
:1014C000002D36D0A06909F0FAF968B302F0D8F817
:1014D000E369BDE870409B6818472168A26911F86C
:1014E000095B02F14903E80992F8482008F047FA3D
:1014F0000028DED02068002108F02FFC0028D8D07A
:101500002379A069012B02D040F65A41CDE7237917
:10151000E26903F180435269013B05F00F0152F883
:10152000233098470546C5E7A069BDE87040FFF73E
:101530007FBF70BD7C410020074A0346906903B914
:1015400009B9FFF775BF1379D26903F180431269B6
:10155000023B52F8233018477C4100202DE9F0432C
:10156000032985B00546174607D14388980723D439
:101570000024204605B0BDE8F083428890F868302A
:10158000D107DBB2F4D5002BF2D14FF00108DFF820
:10159000D49099F81060C6B108F035FA0828387070
:1015A00016D002AA0DF10701FEF744F938B940F64A
:1015B000F5612D20FBF7D8FF4FF00208E7E79DF813
:1015C000070002A909F02DF806463B78082B08D140
:1015D000D9F8001011F8030BC0F3801009F021F8BE
:1015E0000646D9F8001095F84F2011F8030B05F1C5
:1015F0005003C0F3801008F0C2F9D9F80010044677
:1016000011F8030BC0F3801008F0F3F98146FEF7E0
:10161000B1F940B1B9F1080F1BD04846FEF736F8D2
:1016200080F00103D8B23A78082A14D01CB9AC7DF6
:10163000A21A544254416A8853079AD4002897D179
:1016400076B9EC7C444518BF002C0CBF0124002463
:101650008FE70020E7E780F001022240D4B2EAE7FA
:10166000344686E77C4100202DE9F04F85B0082301
:101670000DF10702052104468DF80730FFF76EFFD4
:10168000064620B90026304605B0BDE8F08F734FFE
:1016900039687A7C11F8030B07F11203C0F380104C
:1016A00008F06DF980460028ECD13B68A169184626
:1016B00091F88D2010F8035B02EA551202F0010246
:1016C00081F88D20D3F80320C1F803208288A1F887
:1016D00007201D46A26915F81F1BC1F380119170E8
:1016E000D3F81F00029002A928790871D3F80F00DF
:1016F000D061587D1D7D000440EA0520DD7C284333
:101700005062B3F8190082F8728040F2E24909FB96
:1017100000F090619D7DC5EB451005EB800505EB64
:1017200085056D009585B3F8170009FB00F0906200
:10173000B3F81B001084B3F81D00508493F82430D4
:1017400003F01F005B0982F8990082F87330A569E5
:1017500094F912A005F18D0008F02FFA40F2011360
:10176000A5F868304FF0FF0B85F86AB0414605F1E7
:101770003000FEF70BFC51462846FEF731F9A3690D
:1017800084F873801A88A4F8742084F891B04FF616
:10179000FF72A4F892209A69B2FBF9F2A4F88A20A9
:1017A0001A8CA4F88C205A8CA4F88E2093F87320FD
:1017B00084F89020627D9DF8070004F17E015AB301
:1017C00094F84820012A27D194F84E2002F0C00254
:1017D000402A21D1D4F84920C4F87E20B4F84D2005
:1017E0008A809A7884F87720082803F1030504F1A9
:1017F0008401D3F8033004F1780227D0C4F8843090
:10180000AB888B8004F17701FEF714F840B94FF4F0
:101810003E612D20FBF7A8FE0022C4F87E20DFE702
:1018200094F8773043F0020384F8773004F16A00CB
:101830000B4908F04CFB0B4BA0691B6800223A7166
:10184000002B3FF420AF214698471CE7A367AB88E5
:1018500093800023C4F884308B80E7E77C4100202C
:101860004FAB0100AC470020032937B5044604D034
:10187000052953D0012003B030BD08230DF1070224
:101880008DF80730FFF76AFE0028F3D0237C284D3F
:1018900003B39DF8070094F8B630DBB9237884F8D9
:1018A000B730082804F1B90229D004F1B801FDF7D6
:1018B000C1FF20B940F66E712D20FBF755FE94F85C
:1018C000B83043F0020384F8B8301A4904F1AE008E
:1018D00008F0FDFA2B6804221A7006225A7020467E
:1018E000FFF75CFD286894F83820616B08F026FA51
:1018F000032328682B7101F061FF0020BBE72868F3
:10190000034613F8031BC1F3801184F8B810D0F814
:101910000310C4F8B9109B889380D6E7064B1B6868
:10192000002BEAD0984780F00100C0B2A3E700BFC7
:101930007C41002037AB0100A8470020F8B50446E1
:101940000F4619B300F12005284609F0C1FAA0B9E5
:1019500063881A072ED5284609F0D1FA064628468C
:1019600009F0B6FA301AC0B209F0D9FA474A9368BA
:1019700003442846936009F087FA284609F089FA5B
:1019800001F0FCFD2179252001F01AFD3F4E94F86D
:10199000562030680023037043706388103B0D2B82
:1019A00064D8DFE803F05F635B0C634063636363E9
:1019B000636363402046BDE8F840FFF739BD062366
:1019C0004370202303702046FFF7E8FC638823F070
:1019D00008039BB2152B05D094F83020E16A3068DB
:1019E00008F09DF9306801F0E9FE02232179337196
:1019F000002001F0D1FD054607B9F06063881B07A0
:101A000004D509F089FA0544C4F8F4506388103B02
:101A10000D2B36D8DFE803F038352F2F352F35352D
:101A200035353535352F0C2343700346212103F816
:101A3000091B52B1D4F85720C0F80920B4F85B2034
:101A40009A80012108F064F9BDE7226DC0F80920F1
:101A5000B4F854209A8094F84F10F3E706230370EB
:101A60004370B0E7022303700623F9E740F259619F
:101A70002D20FBF779FD21790120BDE8F84001F028
:101A800045BF40F6F341F3E7F8BD00BF7C410020BD
:101A900038B54388102B044604D1BDE838400121F5
:101AA000FFF74CBF0B4D2B7C23B101F0A5F9402073
:101AB00001F0FAFE286801F081FE608810F0040051
:101AC00002D1217901F022FF002001F0CBFE012399
:101AD0002B7138BD7C410020024B01219869FFF732
