:100000008068002019280000178D000005280000D6
:100010000528000005280000052800000000000059
:100020000000000000000000000000008129000026
:10003000052800000000000021290000052800001C
:100040003D2B00003D2B00003D2B00003D2B000010
:100050003D2B00003D2B00003D2B00003D2B000000
:100060003D2B00003D2B00003D2B00003D2B0000F0
:100070003D2B00003D2B00003D2B00003D2B0000E0
:100080003D2B00003D2B00003D2B00003D2B0000D0
:100090003D2B00003D2B00003D2B00003D2B0000C0
:1000A0003D2B00003D2B00003D2B00003D2B0000B0
:1000B0003D2B00003D2B00003D2B00003D2B0000A0
:1000C0003D2B00003D2B00003D2B00003D2B000090
:1000D0003D2B00003D2B00003D2B00003D2B000080
:1000E0003D2B00003D2B00003D2B00003D2B000070
:1000F0003D2B00003D2B00003D2B00003D2B000060
:100100007BB972B90029BEBF00204FF0004106E064
:1001100008BF00281CBF6FF000414FF0FF3000F017
:1001200057B8ADF1080C6DE904CE002909DB002BAE
:100130001ADB00F057F8DDF804E0DDE9022304B033
:100140007047404261EB4101002B1BDB00F04AF895
:10015000DDF804E0DDE9022304B0404261EB410137
:10016000524263EB43037047524263EB430300F098
:1001700039F8DDF804E0DDE9022304B0404261EB28
:1001800041017047524263EB430300F02BF8DDF866
:1001900004E0DDE9022304B0524263EB43037047FD
:1001A00053B94AB9002908BF00281CBF4FF0FF31DE
:1001B0004FF0FF3000F00CB8ADF1080C6DE904CE43
:1001C00000F010F8DDF804E0DDE9022304B0704728
:1001D000704700BF034613F8012B002AFBD1181A01
:1001E000013870472DE9F04786468C460846089E40
:1001F000154674461946002B40F0C2808542B2FA7B
:1002000082F245D94AB1C2F1200300FA02FC2EFA6B
:1002100003F3954043EA0C0C94404FEA154EA8B204
:10022000BCFBFEF8230C0EFB18CC08FB00F943EADC
:100230000C43994528D9EB1808F1FF3704D29945AA
:1002400002D9A8F102072B44A3EB0903A4B2B3FB24
:10025000FEFC0EFB1C330CFB00F044EA0344A042FE
:1002600014D92C190CF1FF3304D2A04202D9ACF1FD
:1002700002032C44241A43EA07401EB1D440002351
:1002800034607360BDE8F0874746DDE76346F1E719
:1002900092BB431B01214FEA154EAFB2B3FBFEFCEC
:1002A000200C0EFB1C330CFB07F840EA0343984577
:1002B00062D9EB180CF1FF3004D2984502D9ACF1A9
:1002C00002002B44A3EB0803A4B2B3FBFEFC0EFB1D
:1002D0001C330CFB07F744EA0344A7424ED92C1900
:1002E0000CF1FF3304D2A74202D9ACF102032C4433
:1002F000E41B43EA0040C0E7C2F1200320FA03F107
:10030000954090402EFA03F303434FEA154EAFB2E7
:10031000B1FBFEFC0EFB1C10190C0CFB07F841EAAC
:100320000041884504FA02F422D969180CF1FF3023
:1003300004D2884502D9ACF102002944A1EB08019E
:100340009BB2B1FBFEFC0EFB1C110CFB07F743EA52
:1003500001439F420ED9EB180CF1FF3104D29F42AA
:1003600002D9ACF102012B44DB1B41EA004192E7C8
:100370006046E3E76146F7E76046A3E76346B7E711
:10038000834206D916B9002108467BE7C6E900E09A
:10039000F9E7B3FA83F78FB9834201D3724508D8DE
:1003A000BEEB020460EB030301209C461EB9002152
:1003B00068E73846FAE7C6E9004CF8E7C7F1200CD1
:1003C000BB4022FA0CF41C432EFA0CF120FA0CF379
:1003D000B84001434FEA14490EFA07F5B3FBF9F8A8
:1003E0001FFA84FE09FB18300B0C08FB0EFA43EAD7
:1003F00000439A4502FA07F240D9E31808F1FF30AA
:1004000004D29A4502D9A8F102002344A3EB0A03BF
:1004100089B2B3FBF9F809FB183308FB0EFE41EA79
:1004200003418E452CD9611808F1FF3304D28E4563
:1004300002D9A8F10203214443EA0040A0FB02983C
:10044000A1EB0E014145CE46434602D306D14D45B0
:1004500004D2B9EB020E68EB04030138002EA6D0DB
:10046000B5EB0E0261EB030101FA0CFC22FA07F373
:100470004CEA0303F940C6E9003198E74046C5E776
:100480004346D9E7000000002DE9F04F87B005464C
:10049000039117461E46836804AA5B6898470028A4
:1004A00031DBDDE9044AA7FB04B307FB0A375846F2
:1004B00019A3D3E900233946FFF772FEDFF8608005
:1004C00002904FF0FF39D94578EB07031ED3A6FB06
:1004D00004B406FB0A4410A3D3E90023214658467E
:1004E000FFF75EFED94578EB040403460ED302996C
:1004F000AA6899420DD3BDF84010009114682846AF
:10050000DDE90221A04707B0BDE8F08F6FF085005C
:10051000F9E76FF01500F6E700CA9A3B000000000B
:10052000FFC99A3B2DE9F04100AF6C4688B06A469E
:10053000244B5361244D9561032342F8103F234817
:10054000234E00234FF4C65100F0BAFFA546214CBC
:10055000E84688B06A460323C2E9056542F8103FC1
:100560001A4800234FF4C65100F0AAFFC546A368FD
:10057000D3F808801B68B8F1000F10D1ABB9002187
:1005800040F267600AF061F8A268D2E9012383B9FA
:10059000A2B900214FF4A0200AF057F8D8E723B9F8
:1005A000642219462046C047E9E7002120469847C3
:1005B000E5E71AB9114620469847EAE700212046A8
:1005C0009047E6E7C4B10000F3B10000A8AD000019
:1005D000E9B10000F0AA00002DE9F04F91B08407C6
:1005E000009302F004030293C2F3C20303F1010378
:1005F000DDF86880039205460E46059340F0BA8107
:10060000041D30B1072909D86FF01B0011B0BDE8F7
:10061000F08F01F007063444C6F10806009B4FF046
:100620000009591E4FF0040A4FF0FF330193CDF833
:1006300010904F46CB4653460DB1009A2260059864
:10064000002800F3E8809848009A824203D3974834
:100650008242C0F0E080039AA4EB050E92074FEAB5
:100660009E0000F103810F2F00F2B180002D00F0F9
:10067000058107F140020DEB020C019A0CF8200CE9
:100680000CF8102C049801300490E7E07A285DD82B
:100690004B280ED8472859D829282DD8252852D09C
:1006A00054D820287AD02338D0F1000B4BEB000B24
:1006B00074E04C382E2849D8DFE800F070484848EC
:1006C00048484848484848484B48484848484848A7
:1006D0004859484B4B595959704B6D487048184B05
:1006E000184848827F4B48484B487F0000204FF015
:1006F000000B4FF0040A38E02A38C0B2012202FA97
:1007000000F010EA0E0F49D110F0625C2FD110EA10
:10071000020B43D06046013C5444B4FBFAF40AFB9C
:1007200004F4002D61D0A3EB050CA444B4453FF6BE
:100730006BAF002868D1042B47D158F8043B2360E5
:10074000043404232AE0019A013A01924FF0000B8D
:1007500024E011F8010C6C2834D111F8023C00207F
:100760006C2B8346C5D14FF0080A5346D3E708F1F6
:10077000070828F007080734F8E802AB24F007045C
:1007800035B106982044B0423FF63EAFC4E900AB15
:1007900008344FF0000B4FF0080A534611F8010FD0
:1007A000002878D0BBF1000F7FF470AF2528F5D179
:1007B000019B013301934FF0010B4FF0040AECE76A
:1007C000584694E700208346A5E7082B02D06FF037
:1007D00015001BE708F1070828F00708F8E80223CE
:1007E000C4E9002308340823D8E768B9042B02D1F0
:1007F00008F10408A4E7082BE9D108F1070828F05C
:10080000070808F10808EDE7059A013A059258F83B
:10081000042B009210E7039A900720D5A4EB050E55
:100820004FEA9E004FF0010CBEF5007FCFD20F2F94
:10083000CDD8F5B107F140020DEB020EC0B2019A1E
:100840000EF8200C0EF8102CBCF1000F3FF41AAF7C
:1008500060F07F000EF8200C09F101090137C5F1A5
:100860000802043406924FF6DA7E97E74FF0000C48
:10087000DAE7BCF1000F01D00136EFE7029802364B
:100880000028EBD10098CDE90631FFF7A3FCDDE9A4
:1008900006310644E2E7631BB3F5806F97D23DB99A
:1008A000A6F10804E018B1E660A900008CC30000BE
:1008B000029A28609B082B709DF81030C2B1EB7033
:1008C00085F80290B9F1000F05D008A80022C5F103
:1008D000010C97420ED1C5F101030DF120084FF034
:1008E000000A01930DF1300B574512D1601B8DE6C4
:1008F0006B70E5E710F8013B190608D50CEB040E08
:10090000B64503F07F033FF67FAE04F8013B0132AA
:10091000DFE7B9F1000F03D098F90020002A17DBB8
:10092000029BD3B11AF80B2004F8012B0022019B83
:1009300018191044B0423FF667AE98F8000004F86A
:10094000010B00990392204609F0C7FF039A144453
:100950000AF1010A08F10108C6E798F8002055F8E5
:1009600022300093029B45F822300098FFF732FCBA
:10097000421CDCE76FF00D0048E600BF2DE9F04FA8
:1009800097B000AF90F802A0D7F880B03B62CBF3ED
:10099000C0030446FA62BB61894641B945780078D4
:1009A0000AEB800020444D4517D8A0EB0409E378FA
:1009B000FB61BAF1000F02D01BF0010F16D1FB69E9
:1009C00053BBFB6A1BB13A6A4946204698474D46DD
:1009D00028465C37BD46BDE8F08F461C3046FFF721
:1009E000F9FB0130304409F10109DCE72378626842
:1009F0007A62FA6A9900796104EB8301002A40F077
:100A000002814D460E4601EB0A094FF000084E45A3
:100A10004ED101EB0A0610E01BF0020FD1D0237873
:100A20009A007A6162687A62FA6A04EB8301002AAA
:100A300079D14D4601EB0A0690461BF0050F0CBF1D
:100A400002230123FB62FB6906EB430A0BF002035E
:100A5000BB625645BCD016F8021B16F8013C54F890
:100A600023909A4B994502D3994B994538D3BB694A
:100A7000002B42D0786A07F0B8FC00283DD0E94648
:100A80008AB06A46934B5361934B93617B6AC2E988
:100A9000073140F201339384904B42F8103F904865
:100AA00000234FF4325100F00BFD023DCD46D0E75C
:100AB00016F8013BF96254F82300FFF78BFBD7F8D7
:100AC0008430F96A01304BB1D7F8883098453EBF81
:100AD000D7F8843023F8180008F10108054496E798
:100AE000BB6923B1786A07F080FC0028C7D11BF0EE
:100AF000010F05D1FB6AED1AABE7BB6A002BA8D04A
:100B00004846FFF767FBD7F8843053B1D7F88830F1
:100B100098453FBFD7F88420431C22F8183008F1CD
:100B20000108054495E7BAF1000F72D01BF00408E4
:100B300072D0D04607F14800002652463B61B962A8
:100B400009F0CBFEB96A3B6901EB0A02BA62FA69A5
:100B5000F9695200FA60BA6A02EB41023A610BF09D
:100B60000202BA603A69B96A8A4257D162787A62F7
:100B70001BF0020F32440CBF4FEA580100211BF05A
:100B8000010FD2B240F09F801BF0040F14BF40460B
:100B90000020BB616270A070E1703A6A7969FB6AFB
:100BA00020469847051EFFF613AFBB6923707B6A8A
:100BB0006370FB69E37041463A6AFB6A84F802A0FD
:100BC00007F148009847B0F10008C0F2BD807B698A
:100BD0003A6AA9EB0A01C91AFB68C91AD7E90A03DC
:100BE00098470028C0F2B280A84408EB00054FF0F7
:100BF000000B07F1380AB34574D300213A6AFB6A47
:100C000008469847E4E6564607F138004FF00008DA
:100C100093E7D046564697E7464695E7BA6A12F8F4
:100C2000021BBA6212F8015C284A54F8250090426F
:100C300002D3274A90421ED3BA6932B1786A7B60E8
:100C400007F0D3FB7B6800288CD1BA6802BB08F19F
:100C5000280207F1300C08F10100944407F1580212
:100C600052FA80F008F102080CF8101C5FFA88F8BC
:100C700000F8105C76E7BA693AB1786A7B6007F0F1
:100C8000B4FB7B6800287FF46DAF1BF0010F09D027
:100C900006F1280207F13000711C161806F8205CD6
:100CA000CEB25FE71BF0040F3FF45CAF08F12802FF
:100CB00007F1300008F1010102EB000808F8105CB0
:100CC0005FFA81F84EE7002063E700BF60A90000EB
:100CD0008CC30000FDB10000A4B2000005000001BB
:100CE00050AD00001BF80A3087F8373054F82390D5
:100CF000D7F884302BB3D7F888309B4521D2D7F86A
:100D0000843033F81B803A6AFB6A012107F137000F
:100D1000984700281ADB0544B8F1000F06D1484671
:100D2000FFF758FA00F101081FFA88F83A6AFB6ADF
:100D3000414648469847002808DB05440BF1010B63
:100D400059E74FF00008DEE7454641E605463FE635
:100D500080B505460E461746984606F04BFA034600
:100D600009F0F4FDDFF81890044649F800304246D7
:100D700030463946A84754F8090001F0BBFD00BFD2
:100D8000080000002DE9F047058B0446280790462F
:100D900011D4022905F0070540F0CC80204607F069
:100DA000C7FD78B10138218B042811D8DFE800F0A5
:100DB000C2106D85950001290CBF45F0100545F066
:100DC0002005258388F31188BFF36F8FBDE8F08776
:100DD00001F0070AAA4500F0A5800027B9463E4663
:100DE000A368002B00F0BC8041F00801218388F348
:100DF0001188BFF36F8FA168002900F0BA800D68D9
:100E0000002900F0B680D1F80480334652462046CF
:100E1000C047002D76D02B6829461D46F0E701F02B
:100E200007035A1F012A1BD8002221F00701062BB5
:100E3000276889B2C4E9002209D13B4603E0628BEE
:100E4000013262831B68002BF9D141F0020121833A
:100E5000204607F06DFD00287AD041F0200176E0B1
:100E6000042B0AD121F0070189B22183204607F023
:100E70005FFD10B141F020012183218B01F0070AB1
:100E8000AA454FD00027B946AAE7236921F00701F8
:100E900041F00601062DD3F8009021832DD1B9F140
:100EA000000F3FD041F00801218388F31188BFF380
:100EB0006F8F3A492046C84729E021F0070123698E
:100EC00041F0040189B2042DD3F804902183E6D0C7
:100ED00000273E464FF0040A82E721F0070123690C
:100EE00041F0050189B2052DD3F808902183D6D0B1
:100EF00000273E464FF0050A72E700273E464FF0B6
:100F0000060A6DE72B4687E7B9F1000FD1D1EFF361
:100F10001188202383F31288BFF36F8F238B23F074
:100F200008032383258BEA062ED525F0100323839F
:100F300005F007056669218B002EBFF670AF002310
:100F40002768C4E9003321F0070141F00101218342
:100F5000218B01F0070AAA454FF000097FF440AF4A
:100F6000002F9CD041F00801218388F31188BFF342
:100F70006F8F002FC8D03D68394633465246204611
:100F800007F002FD2F46F4E7AB067FF51BAF25F017
:100F90002003238305F0070500E700BFB5890000A3
:100FA0002DE9F047DFF85880044607464FF0010965
:100FB00014B93846BDE8F08794FAA4F5B5FA85F57A
:100FC00009FA05F32E0108EB05156FEA030A24EA76
:100FD00003042B7B002BEBD058F806301B694BB970
:100FE0004644042273682846196807EA0A0707F08E
:100FF000ABFDDDE7284698470028D9D1F0E700BFD0
:10100000E8AD000030B51049104889B0002209F061
:10101000C0FB0F4D0F4900220023CDE90623002419
:101020000E23CDE90334CDE901440B4B00944FF47A
:101030000062284605F02AFE0849284609F06FFAA2
:10104000204609B030BD00BF61100000901700209D
:1010500008070020C03700208D130000D9B200001F
:10106000014805F0BDBB00BF4C0600202DE9F0474C
:10107000804621480F4607F047FD0646002833D03A
:1010800000252846BDE8F087237B83B12368DB6811
:101090000BB120469847636883F8069023681B6964
:1010A000D3B9636804221968204607F04DFD013664
:1010B00010345445E8D3B8F1000FE2D0002DDFD052
:1010C0002846FFF76DFF0546002FF7D000214FF4AB
:1010D000A47009F0BAFAF1E7204698470028E0D05A
:1010E00009FA06F31D43E2E7044CDFF814A00546B5
:1010F0004FF00109DDE700BF381A0020E8AD00001D
:10110000F8AD0000014B53F8200070471CAE000002
:1011100008B5034608462BB1044A136000F078FC7A
:10112000002008BD6FF01500FBE700BF6003002042
:1011300010B5044C237813B9034805F051FB012383
:10114000237010BD742200204C06002010B5044608
:101150000B4807F0D9FC5CB1BFF35B8F094B53E838
:10116000001F013943E80012002AF8D1BFF35B8F5A
:10117000054809F01AFB0548BDE8104005F030BBF2
:10118000301A0020341A0020901700204C0600204E
:101190000020064BBFF35B8F014653E8000F43E886
:1011A0000012002AF9D1BFF35B8F7047301A00207C
:1011B00070B5FFF7EDFF084C084E0546B44200D36A
:1011C00070BD63685B792BB123685B6813B12946F6
:1011D000204698471034F1E7E8AD0000F8AD000074
:1011E00010B5044C0449204607F034FA034B1C6048
:1011F00010BD00BFAC05002008AE0000281A00207A
:101200000D4A0E48002310B513700D4A13600D4AA5
:101210004FF400411360FFF77BFFFFF7E1FF0A4B3C
:101220000A4918468B4200D310BD1A1A5C68121185
:10123000013222711033F5E775220020058B000082
:10124000301A0020341A0020E8AD0000F8AD00008C
:10125000014600220148002307F01DBAAC0500201A
:10126000014807F0B6BA00BFAC050020024B0146AA
:10127000186807F009BB00BF281A0020014807F0D2
:101280003EBB00BFAC05002070B5294B1878002884
:101290004DD0FFF7E5FF0546002845D1254B264CEC
:1012A0001B68002B19DD09F072FA4FF47A72A0FB6B
:1012B000020302FB0131C30BD4E9002043EA41439E
:1012C0009B1A4FEAD13140F2E93261EB00019342BF
:1012D00071F1000101D3FFF76BFFD4E9003213F580
:1012E0007A7342F10002C4E90032BDE87040FFF7B2
:1012F000C5BF63685B7923B1236829461B68204614
:1013000098471034B442F4D32846FFF7AFFFBFF339
:101310005B8F0A4B53E8001F013943E80012002A93
:10132000F8D1BFF35B8FB9E7054C064EEAE770BD15
:1013300074220020301A002088170020341A002060
:10134000E8AD0000F8AD000070B50D4D297861B929
:101350000120FFF78BFE0B4C0B4EB44206D3FFF778
:1013600093FF0028FBD101232B7070BD63685B796C
:101370001BB1236820469B6898471034EDE700BFF7
:1013800075220020E8AD0000F8AD000000212DE935
:10139000F0470846FFF76AFE044658B340F2676814
:1013A0004FF0000909F0D2FA1B4B1C4A1B5813607E
:1013B00033B11B4B1B68002B02DD1A4805F010FAF5
:1013C000194FDFF860A0002544B12046FFF7E8FD83
:1013D000044618B94FF0FF384FF0FF39FFF754FFBC
:1013E000064628B9B5B942464B46504605F02CFA98
:1013F0003546E9E74FF0FF384FF0FF39D2E72B6869
:101400009B691BB100221146284698471035BD4202
:10141000F5D3E8E7054DFAE7080000002C1A002094
:10142000341A00204C060020F8AD0000E8AD0000A2
:1014300010B50F4807F068FB0E4B1B786BB1EFF34C
:101440001184202383F31288BFF36F8FFFF71CFFF3
:1014500084F31188BFF36F8F10BD074B1B68002BFF
:10146000FAD00028F8D10548BDE8104005F0B8B919
:10147000341A0020752200202C1A00204C0600206F
:1014800010B5064B1B68044698472146A0600448E7
:1014900007F080F9BDE81040FFF7CABF60030020E5
:1014A000AC050020044A054B9B1AB1EBD30F34BFA7
:1014B00052F831000020704750AD0000E8AD000048
:1014C0002DE9F04F8FB004AFC1F34A28B8600D4644
:1014D00091467B600C0DB8F1000F65D0002607F136
:1014E00014034FF0040B4FF00A0AC7F80C80C7E949
:1014F00007667E620193CDF808B0CDF800A007F131
:101500001C03F96832464846FFF738FAB0F5006F19
:1015100003461ED36C468AB0D9F8041004AB2748A2
:1015200058612748C3E9060140F2FF7119621A4663
:1015300040F201319984234B42F8103F2248334650
:101540004FF43251FFF7BCFFA5462C37BD46BDE82E
:10155000F08FC0F30A0804F11700184420F00700C8
:1015600080083B60FFF774FE68F35325044690B192
:101570003B68164AC7E9083600F1100107F1140369
:10158000F961CDE900A3CDF808B0F96807F11C03B3
:101590004846FFF7F3F968F353257B68B9682A4694
:1015A000204607F0F1FAD0E704F1170020F0070019
:1015B0008008FFF74DFE0446EDE700BFEEB20000E5
:1015C00087B300000500000198AD00005B8B0000B0
:1015D0002DE9F04F87B002AFD7E91069BD6B796094
:1015E0000446934698462EB3C7F80C90CDF8009069
:1015F000FA6B334610210020FEF7EEFFB0F5006FC6
:10160000824618D36C4688B002AA1D4B53611D4B0D
:10161000936140F2FF73D361042342F8103F1A48EC
:1016200000234FF40251FFF74BFFA5461437BD4688
:10163000BDE8F08FB24605F11700504420F00700D6
:1016400004F007048008FFF703FE0BF0070BE4002B
:1016500044EA8B1444EA4A2444EA0554054640B15E
:101660003EB1CDF80090FA6B334651461030FEF78C
:10167000B3FF796843462246284607F085FAD5E746
:1016800031B300006DB3000098AD0000406820B198
:10169000034BC01A40F3CF0070474FF0FF30704744
:1016A00050AD00000EB403B503AB014653F8042B54
:1016B0000448019301F0FEFB02B05DF804EB03B0B7
:1016C000704700BFF18B0000CA0605D48B064CBFE3
:1016D00002490349FFF7E6BF704700BF3CB4000072
:1016E0003BB400002DE9F04F89B09B46149B069354
:1016F0009DF84CA0159B0593169B179E04930446DA
:101700000D469046BAF1000F00F09D8006F48073FC
:10171000079307F017FA06F00209024600283ED0A8
:1017200091492046FFF7BEFF0746B9F1000F08D0E8
:1017300016F0440F35D18D492A462046FFF7B2FFF7
:10174000074406F0010353B1894B8A4953F82A2014
:10175000894B2046002A08BF1A46FFF7A3FF06F46C
:101760008073002B49D006F00803002B63D1B8F139
:10177000000F66D0814942462046FFF793FF054699
:10178000069B3D44002B6DD1049B002B73D1F307C6
:1017900000F1E48031462046FFF796FFD8E0074687
:1017A000C3E7774B18680028CAD0764B4FF47A7994
:1017B0001B68B5FBF3F54FF46163B5FBF0F100FB7B
:1017C000115509FB05F54FF03C0CB1FBF3F203FB9F
:1017D0001211B5FBF0FEB1FBFCF300FB1E550CFB38
:1017E000131109FB05F50091B5FBF0F56649CDE94C
:1017F00001E52046FFF756FFA2E706F00803EBB12C
:10180000624B634953F82A202046FFF74BFF0546F9
:10181000B8F1000F05D0594942462046FFF742FF74
:101820000544BBF1000FABD05A495A462046FFF79A
:1018300039FF0544A4E74FF0000BE1E706F0080587
:10184000E6E745469CE7BBF1010F069B06D1002B5E
:1018500064D1049B002B7BD000250CE0002BF8D03A
:101860004D485CE04D48069B4D49224606F08CFDF4
:10187000049B002B68D0DFF82C81DFF82C91049FAB
:101880003146102F204628BF1027FFF71DFF4FF0CD
:10189000000B5D4545DC059B49461A782046FFF75D
:1018A00001FF4FF0010B1BF0070F03D1414620460B
:1018B000FFF7F8FE5F453BD9059B494613F80B201F
:1018C0002046FFF7EFFE0BF1010BBBF1100FEAD141
:1018D000364920464FF0000BFFF7E4FE5A46059BC1
:1018E0009A5CA2F120015F2928BF2E2230492046B0
:1018F000FFF7D8FE0BF1010BBBF1100F1DD01BF051
:10190000070F03D141462046FFF7CCFE5F455A46FC
:10191000E5D841462046FFF7C5FEEBE71F48554690
:10192000A1E741462046FFF7BDFE0BF1010BB0E7F2
:1019300020492046FFF7B6FEC5E7059B3B440593CB
:10194000049BDB1B04939AD1BAF1000F7FF41FAF05
:10195000204609B0BDE8F04F07F03DB9064A0549F9
:101960002046FFF79FFE15E7ABB30000AFB30000C2
:101970002CAE00009BBC0000A6B30000D4B3000056
:10198000401A00203C1A0020B8B3000040AE00000E
:10199000D8B30000DEB30000278C0000F18B0000FC
:1019A000B52E0000EBB30000E3B30000EDB3000080
:1019B000EFB30000E9B3000073B542F20F738B423E
:1019C00028BF0B4605680F4A04460521684606F005
:1019D00071F963680C495B6806460422284607F0E3
:1019E000ECF863683246694628465B6807F0E5F81C
:1019F000636806495B681722284607F0DEF802B0E4
:101A000070BD00BFDDC100000AB40000F2B30000E9
:101A1000074A00210123904206D8064A01B9012352
:101A20001360054B1860704740085B000121F2E726
:101A300040420F003C1A0020401A0020014B0020B9
:101A400019607047581A002007B500230093084A10
:101A500008494FF48053012004F0BAFB064B0122E1
:101A60001A70064B064A1A6003B05DF804FB00BF0B
:101A7000902300201FB4000076220020641A00206A
:101A8000792200200148FFF797BF00BF70AE000029
:101A900010B5064B18680C46FFF734FB2146034689
:101AA000BDE8104002480E22184700BF581A002017
:101AB00070AE0000F8B5094D094B0A4ED5E9004754
:101AC00001221A700CB92C60F8BD214630463A4606
:101AD00000F01EF8241A0644F4E700BF4C1A002058
:101AE000772200207822002010B9074B1870704729
:101AF000064B1B781BB142F2107008F0C5BB4FF4C7
:101B0000A470002108F0A1BD7622002077220020D9
:101B10002DE9F74F524F01903B780C4643B9514F96
:101B20008246019B23449A452BD324EAE4700CE0BF
:101B30004D4E012501992246012004F0FBFAA8B17F
:101B4000012333703B7843B9204603B0BDE8F08FE2
:101B50002846FFF7C9FF6F1E3D46012004F02EFB0B
:101B60000028F1D03378002BF2D1EDE73378002B49
:101B7000EAD0013D2846FFF7B7FF3378002BD9D1D3
:101B8000E2E71AF8012B3B680A2A61D1374DDFF8EA
:101B9000E0905A1B012A04BF01333B60D7F8008054
:101BA000D9F800B00D2308F8013C08F101020A231E
:101BB000BBF1000F3A6088F8003029DD2D4B196821
:101BC00031BB2A495E46632EA2EB050201F11700E4
:101BD000A8BF632608F08FFE274A2449254B02F14F
:101BE000140052F804CB41F804CB8242F9D110889A
:101BF00092788A7008F118020880BBF1090F3A60E8
:101C00004FF001021A6011DC202330366B752E75FF
:101C10003A681649521B012004F08CFA90B9D9F8A1
:101C200000300133C9F800303D607AE70A22B6FB84
:101C3000F2F302FB1366303330362B753E236E759C
:101C4000EB74E5E70B4A0023C9F800301360EBE7BB
:101C50000A498B423EBF591C39601A7061E700BFC8
:101C600077220020641A00207622002079220020AA
:101C7000601A00205C1A002026B40000782300209F
:101C8000014B03600020704780AE000070B5C4694E
:101C90000D46002C3FD0244A2379565CB3423DD0F8
:101CA000224A525C9A423CD1A3689847002814DA31
:101CB000022D10D0032D0FD110F1860F0BD0BFF3E2
:101CC0005B8F54E8003F43F0020344E80032002AEF
:101CD000F7D1BFF35B8F267170BD022D267101D045
:101CE0000020F9E7BFF35B8F54E8003F23F00403C3
:101CF00044E80032002AF7D1BFF35B8FBFF35B8F5C
:101D000054E8003F23F0020344E80032002AF7D1F0
:101D1000BFF35B8FE4E76FF05700DDE76FF077000C
:101D2000DAE76FF08500D7E771B400006DB400000A
:101D300008B5044806F07EFB034806F07BFB002054
:101D400008BD00BF75B40000AAB40000014805F04A
:101D500009BE00BF80AE000038B5044618B90F4B6D
:101D60000F485B6898476168B1F5683F10D0B1F5DE
:101D7000680F0DD00B4DA9420AD011F4686120689C
:101D800007D00146084808F0D6FA002323606560B2
:101D900038BD142208F0C9FDF9E700BF380500205E
:101DA000D8B400002C5F5CA9681F002008B520B3E0
:101DB0004368B3F5683F10D101220368BFF35B8F1E
:101DC00053E8001F002903D143E800200028F7D181
:101DD000BFF35B8F0DD1002008BD094A93420AD0A2
:101DE00000684FF0FF324FF0FF3304F031FC002861
:101DF000F1D00448F0E70448EEE76FF4E040EBE789
:101E00002C5F5CA9E98FFFFFEA8FFFFF08B5D8B10F
:101E10004368B3F5683F10D100220368BFF35B8FBE
:101E200053E8001F012903D143E800200028F7D11F
:101E3000BFF35B8F0BD1002008BD074A934208D047
:101E4000006804F07DFCF6E76FF4E040F4E7034837
:101E5000F2E70348F0E700BF2C5F5CA9E98FFFFFC2
:101E6000EA8FFFFF10B5044618B91D4B1D485B688B
:101E700098476368B3F5683F2FD0B3F5680F2CD04F
:101E8000194A934219D1236803BB18484FF0FF3217
:101E90004FF0FF33214604F0ADFB08B923681BB9AE
:101EA0000F4B13485B68984720681422002108F004
:101EB0003CFD4FF46863636008E0B3F5683F0DD8FC
:101EC0003A2B03D040F6BA629342DED1206808F084
:101ED0007CFA636843F03A03636010BD054AF3E798
:101EE00038050020D8B400002C5F5CA9681F0020D2
:101EF000FEB400003A00003A08B5064906484023FF
:101F0000142208F00AFABDE808400449044805F024
:101F10009BBD00BF681A0020681F002088AE00002B
:101F20009CAE000008B50348034A0021121A06F0CF
:101F3000EAFE08BD60060020B43700200748084AC2
:101F4000084908B5121A06F0E0FE0748074A084992
:101F5000BDE80840121A06F0D8BE00BF00000020FD
:101F60005C0600208CC30000000000200000002060
:101F70008CC300002DE9F84F064600AF0C4600293F
:101F800052D0E8468AB0D1E90012A3686D46DFF866
:101F9000D4A035486861A9464FF0060BC5E906A1F3
:101FA000C5E9082349F810BF30484A4600234FF4DA
:101FB0004151FFF785FAC546D4E903126369AD467E
:101FC0002B486B62C5E9050AC5E90712C5F810B0D0
:101FD000264800234A464FF44151FFF771FAC5469F
:101FE00088B0E3696D46234AEB61A9464FF0040BC4
:101FF000C5E9052A49F810BF1C4800234A464FF49A
:102000000151FFF75DFAC546A369AD461A4AEB6177
:10201000C5E9052AC5F810B0144800234A464FF414
:102020000151FFF74DFAC546012E14D1EFF3058398
:102030006D4688B06A4611495161103BD361104921
:102040009161042342F8103F084800234FF40151E6
:10205000FFF736FAAD462146304604F01DF9BD467D
:10206000BDE8F88FEDB500002BB50000B8AD00005D
:102070005EB5000091B50000A4B50000D6B5000023
:10208000F6B5000030BFFFF7FDBF00BF2DE9F041FE
:102090000B4EDFF8308006EB0807CC1B05463246B6
:1020A0000949204608F019FCA01942460021083CC5
:1020B00008F03BFC2C6707F10800BDE8F08100BF89
:1020C0000000000004000000F8AD0000054B5A6954
:1020D0009B689A421FBF044A536843F08053536081
:1020E000704700BF6020002000ED00E02DE9F843BC
:1020F00000AF6E4688B080460D466A46554B564C3A
:1021000053614FF0030994614FF4C25142F8109F9C
:10211000524806F007FE524B9B6AD904B54640F17F
:10212000828088B06A464F4B4C48C2E905344FF470
:10213000C25142F8109F06F0F5FD1720B546484BF6
:102140009B6A1A050FD56E4688B06A46464B4348CF
:10215000C2E90534032342F8103F4FF4C25106F0A0
:10216000E1FD1820B5463E4EB36A9B0529D5E946E8
:1021700088B06A463D4B3948C2E90534032342F82A
:10218000103F4FF4C25106F0CDFDB36BB26A10049C
:10219000CD4615D588B06A463549D3610423C2E9D6
:1021A00005142E4842F8103F4FF4015106F0BAFDD5
:1021B000CD46B8F1000F03D0B36A23F40043B362F5
:1021C0001920274B9B6A59050FD56E4688B06A4681
:1021D000284B2248C2E90534032342F8103F4FF44C
:1021E000C25106F09FFD1A20B5461D4B9A6AD205D2
:1021F0001BD56E4688B06A461F4B1848C2E90534A5
:10220000032342F8103F4FF4C25106F08BFD1B2010
:10221000B546134A936A43F47F43936200232B70BD
:10222000BD46BDE8F883162089E79B6A9B04F0D57C
:102230006E4688B06A46114B0848C2E9053403234C
:1022400042F8103F4FF4C25106F06CFD1C20B54619
:10225000DFE700BF08B60000E3B90000B8AD00003A
:1022600000ED00E022B6000037B600004EB60000D8
:102270006BB6000084B60000A3B60000BFB6000035
:10228000F8B500AF6D4688B06A46474B474C53617E
:1022900003269461464842F8106F4FF4C25106F08D
:1022A00041FD444B9B6A9B01AD467AD588B06A4696
:1022B000414B3F48C2E905344FF4C25142F8106F18
:1022C00006F030FD1E20AD463A4B9B6ADE010FD56D
:1022D0006D4688B06A46394B3548C2E90534032358
:1022E00042F8103F4FF4C25106F01CFD1F20AD46CE
:1022F000304B9B6A1D030FD56D4688B06A46304B44
:102300002B48C2E90534032342F8103F4FF4C25171
:1023100006F008FD2120AD46264B9B6A59030FD5D8
:102320006D4688B06A46274B2148C2E9053403232D
:1023300042F8103F4FF4C25106F0F4FC2220AD46A3
:102340001C4B9B6A9A030FD56D4688B06A461E4B9C
:102350001748C2E90534032342F8103F4FF4C25135
:1023600006F0E0FC2320AD46124B9B6ADB030FD541
:102370006D4688B06A46154B0D48C2E90534032303
:1023800042F8103F4FF4C25106F0CCFC2420AD4679
:10239000084A936A6FEA03436FEA13439362BD46A8
:1023A000F8BD1D2090E700BFF2B60000D7B90000CD
:1023B000B8AD000000ED00E00EB7000025B700004A
:1023C00043B7000065B700008EB70000ACB700004F
:1023D0002DE9F84F00AF6C4688B0914682468B4697
:1023E0006A465C4B5C4D5361032695615B4842F83D
:1023F000106F4FF4C25106F095FC594B9B6ADB06F7
:10240000A54652D588B06A46564B5448C2E90535B0
:102410004FF4C25142F8106F06F084FCA546112417
:102420004F4B9B6A18070FD56C4688B06A464E4BD7
:102430004A48C2E90535032342F8103F4FF4C25120
:1024400006F070FCA5461224454EB36A99072ED5B6
:102450006C4688B06A46454B4048C2E905350323BF
:1024600042F8103F4FF4C25106F05CFCD6F83480BD
:10247000B36A1A06A54669D588B06A463C4BC2F8CD
:102480001C80C2E90535042342F8103F33484FF45D
:10249000015106F047FCA546BBF1000F03D0B36A1B
:1024A00023F08003B362132403E01024B8E76FF035
:1024B00015082B4B9B6ADB070FD56C4688B06A4624
:1024C0002C4B2648C2E90535032342F8103F4FF450
:1024D000C25106F027FCA5461424214B9B6A9E0698
:1024E0000FD56C4688B06A46234B1C48C2E90535B7
:1024F000032342F8103F4FF4C25106F013FCA546E7
:102500001524174B9A6AD50602D49A6A90070AD501
:102510005B68190507D55146404600F0C9FA10B16D
:1025200080F3098802240E4B9A6A920642BF5A6AC7
:1025300022F400525A629A6A42F0FF029A622046DE
:10254000002389F80030BD46BDE8F88F6FF015080C
:10255000A9E700BFDBB70000EDB90000B8AD00008F
:1025600000ED00E0F5B7000037B600002CB8000021
:1025700048B8000062B80000BFB600002DE9F0477F
:10258000894B8AB0D3F8048000AF0446C8F308052D
:10259000002686F31188BFF36F8F02F07F43B3F1FB
:1025A0007F4F13D102F00C03082B1ED16C4688B06C
:1025B0006A467E4B53617E4B9361032342F8103F82
:1025C0007C484FF4C25106F0ADFBA54600263446C8
:1025D0000023FB71EB1E092B00F2C880DFE803F03B
:1025E0000AAEB1AAC6C6C6C6C6B410074CBF0C46D2
:1025F0000126EDE7E84688B06A466F4BDFF8BC91EC
:1026000053614FF0030AC2F818906A4842F810AFBD
:102610004FF4C25106F086FB0023634DFB71EB6A59
:102620009A07C5460DD588B06A46654BC2E905399B
:1026300042F810AF4FF4C2515E4806F073FBC54636
:1026400092E0EB6A002B03DA88B06A465D4BEDE757
:10265000EB6A5B0040F1888088B06A465A4B554867
:10266000C2E905394FF4C25142F810AF06F05AFBE7
:102670006B69A26943F48073C5466B61BFF34F8FEA
:10268000BFF36F8F6B6932F8022C23F480736B6198
:10269000BFF34F8FBFF36F8F4DF602739A4209D08D
:1026A000AB6ADBB2002B38D0FA1D01212046FFF7C0
:1026B0008FFE41E088B023686A464449D361042311
:1026C000C2E905193B4842F8103F4FF4015106F0AA
:1026D00029FB2368C546FA79DAB907F1080504F140
:1026E000200C206861682A4603C2083464451546F8
:1026F000F7D17A6A002E52D0C2F3080121B96FEAED
:1027000052226FEA42227A6207F108011846FFF767
:1027100031FC2837BD46BDE8F087AB6A13F47F4F24
:1027200004D0F91D0120FFF7E1FC05E0AB6AB3F529
:10273000803F19D3FFF7A4FD0346CCE7FA1D002123
:10274000B4E7F91D0020EEE76D4688B06A46204BDD
:102750005361204B9361032342F8103F15484FF417
:10276000C25106F0DFFAAD460023B4E71A4A1B4B0C
:1027700018F4F87FE8468AB018BF13466A4618492D
:1027800051611849C2E9061340F201339384103DA8
:10279000154B15624FF4315142F8103F4CE722F4CB
:1027A000FF7222F00102AEE700ED00E0B3B80000D6
:1027B00009BA0000B8AD0000E2B80000FEB90000A0
:1027C000FDB8000022B9000034B9000057B900007C
:1027D00077B90000C9B900009AB8000085B80000B8
:1027E0009FB90000B6B9000005000001044B5A690A
:1027F00042F010025A615A6922F008025A61704789
:1028000000ED00E0EFF30880EFF3098101B57246B7
:10281000FFF7B4FE01BD00BF002080F31488BFF3B2
:102820006F8F0F4880F3088802F0C6FC00200D4926
:102830000860BFF34F8F00F02BF8202080F3118841
:1028400009484FF48251401880F30988EFF314804F
:102850000221084380F31488BFF36F8F00F0F8F86B
:102860008068002094ED00E0004000200749D1F886
:1028700090200023C2F307221846934200DB7047E2
:10288000C1F89830C1F8A0000133F6E700ED00E090
:1028900008B572B6002383F31388FFF7E7FF144BE4
:1028A0004FF0FF32C3F88020C3F88420C3F888209B
:1028B000C3F88C20C3F89020C3F89420C3F8982064
:1028C000C3F89C20C3F88021C3F88421C3F8882171
:1028D000C3F88C21C3F89021C3F89421C3F8982140
:1028E000C3F89C2162B6BFF34F8FBFF36F8F08BD53
:1028F00000E100E0084B9B6883420BD1EFF30583B6
:1029000043B1064B5A6842F080525A605A6A22F428
:1029100000425A6204F074BC6020002000ED00E028
:1029200014498A684FF030001044EFF3098C80E8B6
:10293000F01F202080F31288BFF36F8F0E4F4FF0EF
:1029400000664A698A603E60106F0C4C2060506FD0
:102950000023536780F3118804B5104600F00CF98A
:10296000BDE8044002F1300090E8F01F8CF30988C4
:10297000704700006020002004ED00E0841F00206C
:102980001EF0040F0CBFEFF30880EFF3098081699C
:1029900011F8021C0229FFD001B5724606F0B7F902
:1029A00001BD00BF40B2002807DB044A41090123F2
:1029B00000F01F00834042F82130704700E100E042
:1029C00040B200280CDB4309064900F01F00203309
:1029D0000122824041F82320BFF34F8FBFF36F8F56
:1029E000704700BF00E100E0054B420900F01F0006
:1029F00053F82220012303FA00F01040704700BF73
:102A000000E100E040B20028A8BF00F1604001F101
:102A10000101B8BF064B4FEA4111ACBF00F5614060
:102A200000F00F00C9B2B4BF195480F8001370470A
:102A300014ED00E0044B054A23F07F039360BFF3DD
:102A40004F8FBFF36F8F70470000000000ED00E074
:102A500008B5FFF7EFFF074AD2F8883023F4700378
:102A6000C2F88830FFF75EFAFFF768FA00F05AF80C
:102A700003F046FD00ED00E042F8203C009B42F8E8
:102A80001C3C0A49019B42F8183C029B42F8143C4A
:102A900021F001014FF0807342F8043C42F8081C19
:102AA0000023203A02654367704700BF510D0000C4
:102AB000094A0346906870B113F1160F006E05D0F5
:102AC000A0F140029A4205D8834203D2814228BF36
:102AD00000207047002070476020002008B5154690
:102AE0000B4A0C4B9060026F1A600E4600F044F8DF
:102AF0002C4686F309880020034B98472046002186
:102B000000220023014C2047398D0000510D0000A8
:102B100060200020841F0020014B10221A617047A2
:102B200000ED00E0044800232021C2180133302BBF
:102B300082F80013F9D1704700E100E008B5EFF327
:102B40000583064A103B02EBC30152F83300496883
:102B50008847BDE80840FFF7B9BA00BF30AB0000B6
:102B6000024B034A0348012100F0B2B800000420E0
:102B700000000020ACAE0000026E054B403A1A6027
:102B8000044A4021C3E901121846012100F0AAB805
:102B9000881F002000000B1580B500AF88B06A4682
:102BA000084B5361084BC2E90630042342F8103F3A
:102BB000064800234FF40151FEF782FC6FF0150028
:102BC000BD4680BD15BA000066BA0000B0AD000079
:102BD00010B40E4CD4F89030C3F30723013B984255
:102BE00002D910BCFFF7D8BFC4F898000B6823F0D7
:102BF0001F03034343F01003C4F89C308B6843F079
:102C00000103C4F8A03010BC704700BF00ED00E025
:102C10002DE9F04184B00E4600AF984604460025E9
:102C2000B5421CDA6068002832D0B8F1000F20D01D
:102C3000411E084218D06C4688B06A46164B536154
:102C4000164BC2E90635042342F8103F144800230E
:102C50004FF40151FEF734FCA5466FF01502104603
:102C60001037BD46BDE8F0811F28E4D9236819421A
:102C7000E1D123687B6006F082F8A368391D034325
:102C8000D0B2FB60FFF7A4FF10F1160FE5D0421C95
:102C900001350C34C4E700BF3FBA00007FBA000022
:102CA000B0AD0000044B0522C3F89420BFF34F8F52
:102CB000BFF36F8F704700BF00ED00E0BFF35F8F81
:102CC000024B0022C3F89420704700BF00ED00E0E3
:102CD00010B5034C01232278FFF79AFF207010BD36
:102CE0009033002008B50B4A00231278FFF790FFBD
:102CF00010F1160F07D0084A0021D2F89030C3F324
:102D00000723984200DB08BDC2F89800C2F8A01063
:102D10000130F2E79033002000ED00E02DE9F043B0
:102D20005E485F49D0F890300D68C3F307239D4299
:102D300085B000F2B080FFF7C1FF496800229542DC
:102D400001F10C011BD1574C574F25706846FEF717
:102D500097FFDFF85881DFF8589106460025AE420C
:102D600020D123784D490020D1F89020C2F30722CA
:102D70009342C0F28A80FFF795FF00204FE0C0F831
:102D8000982051F80C3C23F01F03134343F0100329
:102D9000C0F89C3051F8043C43F00103C0F8A03067
:102DA0000132CCE7009800EB05114FEA051CCB6817
:102DB0003B40B3F5000F49D00AD8B3F5001F31D01E
:102DC000B3F5800F37D0B3F5801F13D00135C6E7B8
:102DD000B3F1007F43D0B3F1805F49D0B3F1807F7E
:102DE000F4D150F80C3088684A6805F0C8FF40F00C
:102DF000887009E050F80C3088684A6805F0BFFF19
:102E000040F0885040F43020039001A92078CDE9AB
:102E10000123FFF7DDFE002833DA6FF0150005B05F
:102E2000BDE8F08350F80C3088684A6805F0A7FFC9
:102E300040EA0900E8E750F80C3088684A6805F075
:102E40009EFF40F0007040F40030DDE750F80C3099
:102E500088684A6805F093FF40F08270D4E750F824
:102E60000C3088684A6805F08AFF40F48020CBE780
:102E700050F80C3088684A6805F081FF40EA080085
:102E8000C2E7237801332370A0E7C1F89830C1F876
:102E9000A000013368E74FF0FF30C0E700ED00E02D
:102EA000B8AE0000903300200000F0FF00000211D7
:102EB00000000811F0B587B007460E461446002101
:102EC000102268461D4607F030FD02238DF80230BF
:102ED0002A46054B019321466846CDE9047604F065
:102EE00015FF07B0F0BD00BF9F8D000008B5064973
:102EF000064821F00701C1F1005202F5802205F0D9
:102F0000EBF9002008BD00BF07990020941F0020A6
:102F1000044A0123C2F840354FF080420020C2F835
:102F20007835704700E0014048B1054B054A1B6801
:102F3000B3FBF2F35843044B43F0010318477047C7
:102F40002405002040420F0000AE0000084B70B581
:102F5000C31A0D4607499B100446594306484022B0
:102F600005F02CFF2B4601462046BDE8704018476F
:102F7000B41F0020B76DDBB610AA000073B50C4C6F
:102F80000C4A4023041B00930D460B460A49A4102B
:102F900061430646094805F03CFF011E05DA30464C
:102FA0002B4602B0BDE87040184702B070BD00BFAC
:102FB000B41F00207B8E0000B76DDBB610AA0000A6
:102FC0000022F8B5012105461046FFF71BFD104809
:102FD00002F0E2F90446B8B902F0FEF92F690D4992
:102FE000384605F0F4FC031E09DB01263E642D691A
:102FF000084905F11C0005F0EAFC031E02DA1C4634
:103000002046F8BDEE64FBE76FF00404F8E700BF6C
:1030100045310000D8AE00001FB500220123CDE9E4
:103020000223094ACDF800D06B46CDF804D005F054
:103030001DFF002805DB4FF480420023684603F0A3
:1030400003FC05B05DF804FB8D8E000010B5EFF3B6
:103050001184202383F31288BFF36F8F074A13680C
:1030600023F00201DB07116002D4012006F04AFCC4
:1030700084F31188BFF36F8F10BD00BF04200020C0
:1030800030B4104B0C2202FB003301460020D3E980
:103090000E529863EFF31180202484F31288BFF35B
:1030A0006F8F1C6C04F0C00444F002041C6480F3B5
:1030B0001188BFF36F8F1DB12B46034830BC1847F2
:1030C00030BC7047B41F002010AA000010B4EFF30A
:1030D0001182202383F31288BFF36F8F1748016892
:1030E00041F002040460C80707D482F31188BFF3DB
:1030F0006F8F012010BC06F0FDBB4FF08041D1F86E
:103100000C04D1F80C14C907EFD5EFF3118083F349
:103110001288BFF36F8F0A490B6C03F0C00343F0B2
:1031200002030B6480F31188BFF36F8F82F3118861
:10313000BFF36F8F002010BCFFF7A2BF0420002058
:10314000B41F002010B1012804D07047034B1B6C42
:103150005B0701D1FFF794BF704700BFB41F002089
:103160002DE9F0413849BFF35B8F0746012251E852
:10317000003F41E800200028F9D1BFF35B8F33B94D
:10318000324933484B60CB608A6005F033FC7B1ECC
:10319000012B2BD8012F07D14FF08043D3F81C34DB
:1031A00003F00303012B21D007F0B3F90546F8B96A
:1031B000284B1B78E3B14FF080430222C3F8082369
:1031C0000646DFF894804FF08044D4F81824D4F8F1
:1031D0001834D20315D503F00303012B01D0012FBE
:1031E0000FD155B386F31188BFF36F8FBDE8F0811F
:1031F000EFF31186202383F31288BFF36F8F01252D
:10320000DFE7ADB1304605F0ABFDD4F81835002B43
:10321000DBD1D4F80421002AD7D0C4F80431D4F883
:1032200004310123C4F81835C8F88031A360CCE715
:103230000021212007F009FAE7E74FF0804302223E
:10324000C3F80423D2E700BFB01F0020A01F002056
:10325000D01F0020B237002000E100E0024B0B60DD
:1032600001231360704700BF08200020004870470A
:10327000FCAE000080B500AF8AB06A46094B5361CE
:10328000094B1162C2E90630052342F8103F074896
:1032900000234FF42151FEF713F96FF01500BD46DE
:1032A00080BD00BFD1BA000037BB000080AD000078
:1032B00010B5012211460648064C07F08DF806F0BD
:1032C00036FE206006F02FFE6060002010BD00BFBB
:1032D00010200020082000204FF08042D2F8101566
:1032E000D2F8103501F01E0123F01F030B4343F009
:1032F0000103C2F81035024B00221A70704700BF5C
:10330000913300204FF08053D3F83031082B20D177
:103310004FF08042D2F81015CB071AD5D2F81035ED
:1033200001F01E0123F01F030B43C2F81035D2F841
:1033300008315BB1D2F8103523F01F030B4343F083
:103340000103C2F810356FF08B007047024B012269
:103350001A700020704700BF913300202DE9F84318
:1033600000AF8946154606F0DEFD2946064648466A
:1033700005F09CFDC8460346002846D0B9FBF6F38D
:1033800006FB139323B9B5FBF6F406FB1454ACB15A
:103390006C468AB06A46234B5361234B1562C2E9DF
:1033A0000639052342F8103F002320484FF42151ED
:1033B000FEF786F8A5466FF015041FE0B5421DD351
:1033C0004FF0FF324FF0FF331948DFF8689003F0F9
:1033D0003BFA06F0A8FD0646FFF794FF044688B9BD
:1033E000404602F0ABFA99F800300BB1FFF774FFDA
:1033F000AD1BB044F0D10E4803F0F2F92046BD46B3
:10340000BDE8F8836FF08B04F5E76C468AB06A4636
:103410000949516104491562C2E90619052142F8BA
:10342000101FC2E7F2BA000056BB000080AD0000DA
:103430001020002091330020D1BA00002DE9F04780
:103440000E4600AF194630461C46904605F02EFD4C
:103450000346B8B96D468AB06A462A4951612A497D
:103460001462C2E90616052142F8101F27484FF4DE
:103470002151FEF725F86FF01504AD462046BD46F4
:10348000BDE8F08746EA040515F003050DD06D464A
:103490008AB06A461E4B53611B4B1462C2E9063662
:1034A000052342F8103F0023E0E7002CE6D019483E
:1034B000DFF864A04FF0FF324FF0FF3303F0C4F9A0
:1034C00024F00304A54205EB060909D1134AD2F8FA
:1034D0000034DB07FBD500240E4803F081F9CDE76B
:1034E000FFF710FF58B958F80510484602F042FAA5
:1034F0009AF800300BB1FFF7EFFE0435E2E76FF00A
:103500008B04E9E7D1BA000046BB000080AD0000A3
:1035100015BB0000102000209133002000E0014086
:10352000F0B544681646A068227C01F01F0587B0FC
:1035300045EA421500286DD0B6F5001F04D1294692
:1035400006F0E7FC002056E06268607CC2F82405C3
:1035500001AA0020B6F5800F0190506037D1B3F179
:10356000007F14BF052304238DF804300023CDE928
:1035700004230393E36823FA01F111F001010DF133
:1035800003073AD1B6F1A07F37D105F01F036A09CE
:1035900003F5E07326D0012A3FD1214A52F82330A7
:1035A000DB072AD4A0683A46294606F028FC1630E4
:1035B0001BD00297A06803AA294606F0ECFA00285F
:1035C00019DBA0680122294606F050FCBAE7B3F1E6
:1035D000C06F05D0B3F1007F14BF01230223C3E7FE
:1035E0000323C1E74FF0A042D8E7A068394602F0B4
:1035F000A5F80028DDDA07B0F0BDA0683A462946F4
:1036000006F0FDFB0028D5D19DF80310A06802F05C
:103610008FF8CFE76FF08500EDE751F82330FFDE3C
:103620000003005070B546680546B06890B106F0DA
:1036300015FC014670B9B06806F0F4FB044678B991
:1036400002460949B06806F0D7FB2246052106204C
:10365000FFF7D8F928460549BDE8704005F032BBB0
:103660006FF0040070BD00BF71360000A78F00002E
:10367000420970B5034602D0012A17D070BD0D4E25
:10368000326951680029F9D003F01F0301250C6845
:103690009D400029F2D08A682A4002D04B6830460B
:1036A00098472CB1236821461C46F2E7024EE7E713
:1036B0002346F8E750AA000030AA00002DE9F043A5
:1036C000476840F20636D0063B7C87B002EA060621
:1036D00054BFC2F3401C4FF0030C01F01F05B6F5B8
:1036E000837F144645EA43158DF803C045D00DD8B5
:1036F000062E16D005D8A6B1022E40D06FF01500C8
:1037000038E0B6F5807FF9D101260AE040F20222C6
:10371000964236D0B6F5407F35D0B6F5007FEDD174
:1037200002260123220303FA01F12ED57B68C3F898
:103730000815B86890BB05F01F036D092BD0012D4B
:1037400075D13D4A02EB830284F48033D2F800172E
:10375000C3F30043C4F3404444EA430421F4E16169
:1037600044EA8C0421F0070144EA06230B43C2F823
:103770000037002007B0BDE8F0830726D1E7042614
:10378000CFE70526CDE70326CBE7630344BF7B687D
:10379000C3F80C15CDE74FF0A042D3E70DF10202BC
:1037A000294606F02CFB14F4403F80460CD1B86843
:1037B000294606F059FBB8F1000FDAD19DF8021046
:1037C000B86801F0B5FFD4E74FF0000901ABCDE9CF
:1037D0000199CDE90439CDF80C90B86803AA2946BF
:1037E00006F0D9F94845C4DB14F4003314D084F44E
:1037F00080349DF803308DF80E30C4F300448DF80A
:103800000C608DF80D40B8684B4603AA294606F0B7
:103810007AFA0028CFDAACE7CDE904330DF10303DF
:103820000393B86803AA294606F0B5F9F1E703F552
:10383000E07350F82330FFDE000300502DE9F0471D
:103840004668336800AF0546E3B96C468AB0016844
:103850006A463F4850613F48C2E9060140F20131E3
:1038600011843D4942F8101F3C484FF41151FDF7B7
:1038700027FEA5466FF01204336883BB2046BD4681
:10388000BDE8F0870024F7E76D4688B06A46344B00
:103890005361304BC2E90630042342F8103F2F48F1
:1038A00000234FF40151FDF70BFEAD46E6E76C46F1
:1038B0008AB029686A462B4850612648C2E9060149
:1038C00040F201311184244942F8101F23484FF47B
:1038D0001151FDF7F5FDA5466FF01204CEE7002C5F
:1038E000FAD1A0464FF00109746854F8380004EB8F
:1038F000C80A06F0E5FC03460028D8D054F8380082
:103900009AF80410BAF80630D0F810C0D0F808A021
:10391000DCF80040DA0754BF43F4B01383F4D0134B
:1039200023F4801209FA01FEDB074CBF44EA0E04BF
:1039300024EA0E04CCF80040DAF800309847044638
:103940000028A1D1336808F101084345CCD895E798
:10395000A6BB000016BC00000400000188AD0000FA
:10396000D5BB0000F8BB00002DE9F04145682B688D
:1039700000AF83BB6C468AB001686A461748506145
:103980001748C2E9060140F201311184154942F895
:10399000101F15484FF41151FDF792FD6FF0120002
:1039A000A546BD46BDE8F081D5F80480260158F84B
:1039B000060006F085FC034638B958F806206C4628
:1039C0008AB011686A460948D9E701342B689C42DD
:1039D000EADB0020E5E70024F8E700BFA6BB000013
:1039E00054BC00000400000190AD000037BC000092
:1039F000036803F01F025B09026004D0012B034837
:103A000018BF002070474FF0A040704700030050DF
:103A10002DE9F04FDFF87081DFF8709185B09246A4
:103A2000834600EB810140F2FF17594503D1002086
:103A300005B0BDE8F08FDBF800305804C3F3C322B3
:103A4000C3F3080400F19980BC4218F802604FEA01
:103A5000136312D0192B1DD94E2B40F09180CAF858
:103A6000144503A80394FFF7C3FF039B012505FA40
:103A700003F3C0F808352A4643E0192B08D94E2B2A
:103A80007ED14FF0FF33CAF814350BF1040BCCE7AD
:103A90004FF0FF34032B73D9043B152B70D8DFE8AC
:103AA00003F00B11216F6F6F6F27546F6F6F6F6F84
:103AB0006F6F6F6F57636669631CCAF80845E4D07F
:103AC000002504E0651CCAF80C45DED0012503A8DA
:103AD0000394FFF78DFF039B012202FA03F3C0F862
:103AE0000C350EE0CAF81045631CCED00025C2E7A5
:103AF000CAF80845002EF7D1601CC6D000252A461A
:103B00000626DBF80030019303F40040002818BFBC
:103B1000002203A8009218BF01250394FFF768FF55
:103B2000039C019B009A00EB8400C3F3412CD0F866
:103B30000047330243EA8C03134304EA0904234396
:103B400043EA4503C0F800379FE7CAF80C45D1E7C0
:103B5000CAF86045621CDBF8003096D0C3F300431E
:103B6000002B7FF47EAFB1E7CAF86445F2E7CAF8EC
:103B70006845EFE7CAF86C45ECE76FF0150057E7CA
:103B80006FF0850054E700BF72BC0000F0F8FCFF46
:103B9000036803F01F025B09026004D0012B034895
:103BA00018BF002070474FF0A0407047000300503E
:103BB000B0B5054600AF002201211C20FEF722FF10
:103BC0002B69134A6968184606F024FA041E18DAAD
:103BD0002B686D468AB06A460E4951610E49C2E9AA
:103BE000061340F2013313840C4B42F8103F0C488B
:103BF00000234FF41151FDF763FCAD462046BD464E
:103C0000B0BD0849284605F05DF80446F6E700BF58
:103C1000BD9000007ABC0000FEBC00000400000162
:103C2000C8AD0000E99000002DE9F04383B000AF7B
:103C30000329B7F828C04668046905460CF0010C52
:103C40000ED96C4688B06A465B4B53615B4BC2E948
:103C50000631042342F8103F00234FF4015120E0C5
:103C6000B07D01284FF0010804BF5B08520808FA34
:103C700001F8002B76D09A4277D9A069824229D0E8
:103C8000207F30EA080016D06C4688B06A464C4B5C
:103C900053614C4B9361032342F8103F00234FF4D0
:103CA000C2514948FDF70CFC6FF01500A5460C37D2
:103CB000BD46BDE8F0839646BEF5004F43D2A261F3
:103CC0006077226896F81690C2F80C05C2F8049541
:103CD000C2F808E5627F23FA02F292B24FF0010EB9
:103CE00068688CF00109006A42EAC93220F81120A4
:103CF0005FFA88F8BEF1000F46D1226801F5AC7179
:103D000052F82120002A0FDBBCF1000F50D0B3FA8B
:103D100083F35B0973BB7A60381DFFF739FF7A685C
:103D200001239340C0F80C35217F21EA0801217757
:103D300079B3A37FA3BB1023012206F12001204603
:103D400006F07AF92AE0013008284FEA5E0EB3D176
:103D50006C4688B06B461D4959611A49C3E9061281
:103D60001A4676E79E461A46BAE74FF0000E47F627
:103D7000FF72B5E77A60381DFFF70AFF7A68012302
:103D80009340C0F80835CFE7237F48EA0303237741
:103D9000CFE7286906F088F90123A377002086E79A
:103DA0000023A377204606F099F90028FAD0C2E74D
:103DB000003B18BF0123ADE79EBC000025BD0000FD
:103DC000B7BC00000CBD0000C8AD0000D0BC0000B6
:103DD0002DE9F0474568D0F81080012100AF064674
:103DE000686B05F0EBF9E96B481C2FD0A86B05F068
:103DF000DFFA10F1130F044615D16C4688B06A46FD
:103E00003B4B53613B4B9361032342F8103F4FF40C
:103E1000C251394805F0CFF9A5466FF0120420468B
:103E2000BD46BDE8F087411D10D16D4688B06A4699
:103E3000324B53612F4B9361032342F8103F2E48BE
:103E40004FF4C25105F0B7F9AD46E8E7EB6A984781
:103E5000D8F830504FF00109D8E90C3203EBC20317
:103E60009D4209D308F1280005F007FA244930469D
:103E700004F028FF0446D2E7286806F021FAA0B92A
:103E80002B686C468AB019682B796A461D485061C8
:103E900013621D4840F2013393841C4BC2E90601B2
:103EA00042F8103F4FF43151B3E728682979EB8885
:103EB000D0F810E0D0F808A0DEF80040DA0754BFD0
:103EC00043F4B01383F4D01323F4801209FA01FCF5
:103ED000DB074CBF4CEA040424EA0C04CEF8004093
:103EE000DAF800309847041E99DB0835B4E700BFC4
:103EF0004FBD000056BF0000D8AD00007EBD0000E1
:103F0000039200009FBD000039BF000005000001C2
:103F1000B0B5027800AF034642B90C69D4F88020EE
:103F200032B9E06F6FF0730105F0D0F9BD46B0BD56
:103F3000606F48B1A16F39B1DB682BB1834203D008
:103F4000D4F88C1006F0C9FC236FD4F880208BB114
:103F50009A4229D96D4688B06A462C4B53612C4B46
:103F60009361032342F8103F2A484FF4C25105F0F1
:103F700022F9AD46A36FD4F880208BB19A422CD998
:103F80006D4688B06A46214B5361234B93610323EE
:103F900042F8103F1F484FF4C25105F00CF9AD46EE
:103FA000E06F05F0A5F9C1E79B1A23677BB9E36DC4
:103FB0000833E365236E013B236604F1700204F1CC
:103FC000600104F15C0005F0E3F8E066D2E7E36E1F
:103FD000002BCFD01344E366CCE79B1AA3677BB9D1
:103FE000636E08336366A36E013BA36604F1780237
:103FF00004F1680104F1640005F0CAF86067CFE7D6
:10400000636F002BCCD013446367C9E7C7BD0000C2
:104010009ABF0000D8AD000084BF00002DE9F04F2A
:104020008FB000AF9A464368FB608B8804690646F0
:104030009804894693463DD44FF0FF324FF0FF334A
:1040400004F1380002F000FCC4F82C907568D6F832
:1040500010802B687B6098F8853023B1D8F8283021
:10406000994500F03E81B9F804E01EF4006F28D0B5
:104070006D4688B06A467E4B53617E4B9361032345
:1040800042F8103F7C484FF4C25105F094F8AD4619
:104090006FF08505A36A13B19B889B0405D40023A8
:1040A000E36204F1380002F09BFB28463C37BD4632
:1040B000BDE8F08F236C002BBED1E36A9942BBD1DF
:1040C000C4E71EF0010F17D06D468AB033686A4608
:1040D0006A4951616749C2E9061340F2013313840A
:1040E000674B42F8103F4FF41151634805F063F8F5
:1040F000AD466FF01505CDE71EF0080F0CD06D46EC
:1041000088B06A465F4B53615A4B9361032342F870
:10411000103F4FF4C251E8E7CEF34513082B04D00B
:104120006D4688B06A46584BEDE7D9F80030BB6061
:10413000BA68564B9A4204D86D4688B06A46544BCA
:10414000E1E704350FCD07F1100CACE80F000FCDFF
:10415000ACE80F00D7E901239A4228BF1A4695E838
:1041600003004C4B9A428CE8030017D24A4B9A4208
:1041700014D24A4B9A4211D2494B9A425CD8494BCD
:104180009A425BD8484B9A425AD8484B9A4259D8DF
:104190004748484B4849824288BF0B461EF0020FF1
:1041A0007B620EF004034FD0002B14BF03230223C5
:1041B00087F82830CEF3001387F82930D8F800307C
:1041C000D3F80835591C13D01EF0020F03F01F005E
:1041D000CEF340014FEA53134FF001023BD1002BC5
:1041E00036D0934240F03F81344B8240C3F80C25D7
:1041F00098F885302BB1404601F00EFE002388F878
:1042000085302F4A334607F11001404606F00AF880
:10421000051E61DA6E4688B06A462A4B5361154B1B
:104220001548C2E90635042342F8103F4FF4015106
:1042300004F0C1FFB5462DE7234BAFE7234BADE7B5
:10424000234BABE7234BA9E7003B18BF0123AFE7A4
:104250004FF0A043C9E73BB1012B40F00781174B5A
:104260008240C3F80825C3E74FF0A043F8E700BF3A
:10427000E9BD0000B0BF0000D8AD000007BE0000DF
:10428000040000012DBE000050BE000047E8010000
:1042900083BE00000048E8010024F40000127A0008
:1042A000FF083D007F841E003F420F001FA1070052
:1042B0008FD0030048E8010090D0030000030050B5
:1042C000113F0000B8BE000000093D0080841E00C0
:1042D00040420F0020A10700012388F88530C8F86C
:1042E0002890012384F88430FB68D96B4A1C14D0D1
:1042F000986B05F085F874300FD16D4688B06A462A
:104300005C4B53615C4B9361032342F8103F5B4865
:104310004FF4C45104F04FFFAD46BBF1000F77D10D
:10432000C4F85CB00023236604F1700204F160015C
:1043300004F15C0004F02CFFE066BAF1000F6FD1CD
:10434000C4F864A00023A36604F1780204F16801B4
:1043500004F1640004F01CFF002504F128082A463B
:10436000606701214046A56504F067FF304604F010
:10437000BFFF206E2A462B46834259D10023A56EEB
:104380001946A9425BD19A4238BF1A464FF4FA53F4
:1043900003FB02F5A36A4FF4004C1B68B5FBF3F571
:1043A00040F2E730C83500214FF47A720023E5FB74
:1043B0000C01FBF7F5FE04F1480802460B464046A7
:1043C00002F042FA0246002840D06D4688B06A46A4
:1043D0002B4B53612B4B9361032342F8103F27482B
:1043E0004FF4C25104F0E7FEAD4600252046C4F864
:1043F000805001F011FD84F885506FF07301304654
:1044000004F064FF404602F045FA6FF0730541E6A0
:10441000DBF80030E365002B84D0DBF8043082E762
:10442000DAF800306366002B8CD0DAF804308AE7C3
:10443000E16D01EBC301013349680A449CE7606EFA
:1044400000EBC1000131406803449AE7A56D15F106
:10445000740FCAD0002D3FF41DAE306911462830CC
:1044600004F0EBFE16E6C1F80C15FFDE0023C3F8DE
:104470000835FAE7E1BE0000BABF0000D8AD000081
:104480000FBF000064BF000000F01F0240090DD004
:1044900001280ED10A4B03EB82030A4AD3F8000726
:1044A000024042EA8102C3F8002770474FF0A04360
:1044B000F1E702F5E072002353F82230FFDE00BF7F
:1044C00000030050F0F8FCFF70B5012383400E4A52
:1044D000BFF35B8FDC4352E8001F01EA040542E8AA
:1044E0000056002EF7D1BFF35B8F4FF4803282402D
:1044F0000648C0F80823BFF35F8FBFF36F8F0B42EE
:1045000014BF0120002070BD3C200020001001409D
:1045100070B40E49D1E90034D01AC31844F1000434
:1045200022F07F46C1E90034A6F50013B3F5400F31
:1045300009D2074B1B681A0A1B069C19054B42F14E
:104540000005C3E9004570BC03F064B8D81700202B
:1045500040200020E017002011B3BFF35B8F012340
:10456000104A834052E800CF4CEA030C42E800C1F5
:104570000029F7D1BFF35B8F0B4A4FF480338340A0
:10458000C2F80433094BBFF35B8F1B68BFF35B8F2B
:10459000C340DB0742BF064B4FF40032C3F8002193
:1045A000704700BF3C200020001001403820002050
:1045B00000E100E00D4B1868010A0006BFF35F8FB1
:1045C0000B4BD3F80435181841F10001B3F5801FE7
:1045D0000AD2084BD3E90023904271EB030303D2C4
:1045E00010F1807041F10001704700BF40200020B1
:1045F00000100140E01700202DE9F04F85B016466D
:104600001F469DF840A00446FFF75EFF0190FFF7AC
:10461000D1FFB04271EB070354D23E4B301A67EB27
:104620000101984271F100014FD23B4B03EB04139F
:10463000D3E902239F4208BF96425ED037494FF428
:10464000803804F1500508FA04F8AD00C1F8488339
:104650002046ADB204F0FCFE26F07F4B05F180450C
:1046600004F5A87305F58835DC464FF0030902937D
:10467000029A2CF07F4341F82230C1F84483D1F8EC
:104680000435274A6FF00200C01A604420F07F40D2
:10469000904232D9286868B1D1F804350393A3EB6E
:1046A0000B0020F07F40B0F5000F26D9204604F023
:1046B000CFFE039BBAF1000F07D109EB030C09F100
:1046C0000109D5E7BAF1000F09D06FF015052046B2
:1046D0000199FFF741FF284605B0BDE8F08F01239F
:1046E000104ABFF35B8FA34052E8000F184342E823
:1046F00000010029F8D1BFF35B8F07490E98230111
:1047000001EB0412C8500F9B5360C2E902670025F9
:10471000DDE700BF01008000C81700200010014045
:10472000FDFF7F00382000207FB51C4C1C4BC4F8D7
:104730000833C4F848331B4B00254FF0FF304FF0CF
:10474000FF31C4F80855C3E902014FF48033C4F8BF
:104750000433154B02264FF400320121C4F80463E0
:104760001120C3F880212A46FEF74CF91120FEF7EC
:1047700019F90E4A0123A360236013600C4B0D4A04
:104780000093CDE9015500232846FFF735FF304659
:10479000FEF7E6FC284604B070BD00BF00100140E3
:1047A00003000F00C817002000E100E03C200020BB
:1047B00011450000FFFF7F002DE9F7432F4CD4F88F
:1047C000043399070BD5D4F8043143B12C4A0023A4
:1047D000C4F80431D4F80431136801331360D4F8F9
:1047E0000433DA0329D5BFF35B8F264B53E8002F40
:1047F00022F0010143E800100028F7D1BFF35B8FDE
:10480000D30702D4D4F84031BBB10025C4F84051DD
:10481000D4F84031FFF7CEFEEFF31182202383F36B
:104820001288BFF36F8F184BD3E90267B042B941CA
:1048300006D282F31188BFF36F8F03B0BDE8F08317
:104840004FF0FF384FF0FF39C3E90289D3E9001078
:104850001D604FF48033C4F84833C4F84051D4F895
:10486000403182F31188BFF36F8F0029E5D00090AB
:1048700032463B4628468847DFE700BF001001402C
:104880004020002038200020C817002030B5431CED
:10489000124C85B005D08442A8BF0446012CB8BF95
:1048A0000124FFF787FE0E4B0C4DD3E90013401A8D
:1048B000B0F5000F10D22218AA4228BF2A4652187B
:1048C0004FF0000007490091CDE9010043F10003DA
:1048D000FFF792FE05B030BD2A46F0E7FFFF7F00EC
:1048E000D81700201145000008B5FFF763FE024B02
:1048F0001B68C01A08BD00BFD817002000487047C9
:10490000F4B0000090B587B000AFFB1D1446F971FC
:10491000BB6007F10802012307F11001C7E9042376
:10492000FB6004F0B4FDB0B16C468AB06A460C4B33
:1049300053610C4BC2E9063040F206231362052393
:1049400042F8103F08484FF4215104F09DFDA54660
:104950001C37BD4690BD204605F096FCF8E700BF29
:10496000E0BF00003AC1000070AD0000F0B50C1EC1
:104970008DB0054600AF4ADB4668B16A04EB030C14
:10498000614544D30121C7E90A234FEA244C07F1CA
:10499000080364BAC7E90431FC8007F120033C1D19
:1049A00087F805C0BC604FF0000C0424BB610223F3
:1049B0003971C7E908C4FC60FB6104F06FFD314642
:1049C00051F8040B07F1180307F1100204F050FD31
:1049D0000446286904F07DFDACB16D468AB06A4694
:1049E0000C4B53610C4B0D48C2E9063440F21D13C9
:1049F0001362052342F8103F4FF4215104F044FDA7
:104A00006FF00404AD4620463437BD46F0BD6FF06C
:104A10001204F8E7E0BF000093C0000070AD000092
:104A200090B58DB000AFD723FB71FB1DBB60B962A1
:104A3000012307F10801C7E9041300220146C7E971
:104A40000823FB60022207F12003C7E9063251F870
:104A5000040BFA6207F1180307F1100204F008FDD5
:104A6000A0B16C468AB06A460A4B53610A4BC2E950
:104A70000630C02313620523084842F8103F4FF464
:104A8000215104F001FD6FF00400A5463437BD4606
:104A900090BD00BFE0BF0000EEC0000070AD0000A0
:104AA0002DE9F04F8FB0066945686C49706400AF1E
:104AB000044606F1100005F00DFD002386F8403095
:104AC000286805F0FDFBE0B92B686C468AB01B68CE
:104AD0006A466349516163496348C2E9061340F27B
:104AE00001331384614B42F8103F4FF4115104F02D
:104AF000CBFC6FF01205A54628463C37BD46BDE805
:104B0000F08F2B7E23B1E86805F0DAFB0028DBD0BC
:104B1000204604F0C3FCAA8F6068AB21FFF7F2FEC9
:104B2000656805F13F037B609F23FB7207F10B0370
:104B300001263B6107F110090023C7E90A36C7E9DE
:104B4000069607F10C0A4FF0030B07F12808022321
:104B500029467E61C7F830A0C7F834B0C7F8208076
:104B60007B6251F8040B07F1200307F1180204F0EF
:104B70007FFCA8B16D468AB06A463D4B53613D4B00
:104B8000C2E9063096231362052342F8103F3648E7
:104B90004FF4215104F078FCAD466FF004052CE091
:104BA0005A46514605F13F0005F024FE48B395F8FA
:104BB0003F0095F8401095F8413097F80CE097F8D1
:104BC0000DC0BE7B6D468EB06A46DFF8AC80C2F881
:104BD0001480DFF8A08013630923C2E90A01C2E947
:104BE000068EC2E908C6204842F8103F44F640014C
:104BF00004F04AFCAD466FF01205206904F069FC30
:104C00007AE71E4BBB6107F11803D4F804A03B629E
:104C100004237B6207F12003C7E90A364946504660
:104C2000FFF7FEFE05460028E7D13B8ADB07E4D408
:104C30004146504604F02BFC48B16D468AB06A46A6
:104C40000B4B53610E4BC2E90630EE239BE7204627
:104C500004F085FC0028D0D09FE700BF2B95000012
:104C60000CC0000026C1000070AD0000040000016F
:104C7000E0BF000017C1000025C000003D2A80A64B
:104C800003C1000090B587B000AF13147B713B1DCA
:104C9000BB600423FB6007F108030446397152BA74
:104CA0003B614068FA80012307F110017B6104F049
:104CB000EEFBB0B16C468AB06A460E4B53610E4BA8
:104CC000C2E9063040F29D131362052342F8103FFB
:104CD0000A484FF4215104F0D7FBA5466FF00400B9
:104CE00004E0204604F03BFC0028F7D11C37BD4609
:104CF00090BD00BFE0BF0000B5C0000070AD000077
:104D00002DE9F0470D1E86B0064600AF9046C0F272
:104D1000B480D0F80490AB18D9F828209A42C0F09B
:104D2000AC80B9F8363095FBF3F203FB1252002A3F
:104D300040F0A680B8FBF3F203FB1283002B40F097
:104D40009F8004F0ABFB99F83830002B56D1D9F88E
:104D50002830434552D14C4B7B603B1DBB60042344
:104D6000FB6007F108033B617068012307F1100144
:104D70007B6104F08CFBB0B16C468AB06A46434B51
:104D80005361434BC2E906304FF4BF7313620523EE
:104D900042F8103F3F484FF4215104F075FBA546FF
:104DA0006FF0040405E0304604F0D9FB0446002807
:104DB000F6D1306904F08DFB20461837BD46BDE8BA
:104DC000F087D9E90BA32BB1AB421CD8554501D2D2
:104DD000AAEB030A99F83930BBB9D04515D30AF1CB
:104DE000FF332B4211D12A467C213046FFF74AFF80
:104DF00055440446A8EB0A08002CDAD1B8F1000F9C
:104E0000DFD14446D5E79A46E4E7B9F83430434564
:104E100002D8013B2B4218D0B9F83630434520D98F
:104E20006C468AB06A461C4B53611C4B1562C2E942
:104E30000638052342F8103F16484FF4215104F07C
:104E400023FBA5466FF01504B3E72A4650213046F0
:104E5000FFF718FFB9F8343004461D44A8EB0308E7
:104E6000CAE7013B2B42DBD12A4681213046FFF7BE
:104E700009FFB9F836300446EFE76FF012049BE7FC
:104E80006FF0150498E700BFC794809AE0BF000058
:104E9000C6C0000070AD000062C00000D9C00000B4
:104EA0002DE9F04FB1F1000A89B0054600AF164672
:104EB0001C465BDBD0F804800AEB0301D8F82830ED
:104EC0008B4253D304F0EAFA4FF05809002C3BD040
:104ED000B8F83610686887F804904B4203EA0A0372
:104EE0000B44A3EB0A034FEA2A41A34279719AFAD1
:104EF0009AF128BF2346F98007F110019B46B9605B
:104F00003B1D02213B61F960042307F10801C7E959
:104F10000536C7F81CB004F0BAFAE8B16C468AB09E
:104F20006A46144B5361144BC2E9063040F2391300
:104F30001362052342F8103F10484FF4215104F04A
:104F4000A3FAA5466FF00404286904F0C2FA2046CB
:104F50002437BD46BDE8F08F284604F000FB00284A
:104F6000F0D15E44DA44A4EB0B04AFE76FF0120417
:104F7000EDE700BFE0BF0000A7C0000070AD00007B
:104F8000B0B500AF1B4805F09BF9A0B96C4688B0DE
:104F90006A46194B5361194B9361032342F8103F42
:104FA00017484FF4C25104F0E8FAA5466FF0120416
:104FB0002046BD46B0BD0F480021FCF767FE044601
:104FC0000028F5D010F1780F11D06D4688B06A46F0
:104FD0000C4B5361094BC2E90630042342F8103FE1
:104FE00007484FF4015104F0C8FAAD46E0E7002449
:104FF000DEE700BFD0AA000068C10000E5C10000E4
:1050000060AD00007DC10000F8B500AF6D4688B00E
:105010006A46114B5361114E9661032342F8103FCB
:105020000F484FF4C65104F0A8FAAD46FFF7A8FFA9
:10503000044670B188B06A460A4BD061C2E90536B1
:10504000042342F8103F06484FF4015104F095FA4A
:10505000AD462046BD46F8BDA8C10000E0C1000035
:1050600060AD0000C2C10000F8B500F118041C4B8F
:105070000C1BE6105E43D0F8D832B34205462BD95C
:10508000CB68002243F8082C01360444D5F8D83206
:10509000B34209D8013BC5F8D832284604F086FA55
:1050A0000146A8B90020F8BDE26B52F8083C183B55
:1050B00042F8083C04F1300CBCE80F0004F118077A
:1050C0000FC79CE80300013687E803001834DDE7CA
:1050D000284604F088FAE5E76FF01500E3E700BF23
:1050E000ABAAAAAA2DE9F04100AF6C4688B06A4687
:1050F000144B5361144B9361032342F8103F002378
:1051000012484FF4C651FCF7DBF911491148A54686
:10511000002205F03EFB104EDFF840800024C6F868
:10512000144306F1E00500224146284605F031FB14
:105130000134082C6E6305F14005F4D10020BD4612
:10514000BDE8F081F7C1000011C2000068AD0000A9
:10515000FF97000028030020480000203D97000032
:10516000BFF34F8F0549064BCA6802F4E062134350
:10517000CB60BFF34F8F00BFFDE700BF00ED00E045
:105180000400FA054FF08053D3F83021082A06D1E5
:10519000D3F83431052B02D8024AD05C7047002086
:1051A000704700BF24C20000024AD2F80034002B2E
:1051B000FBD0704700E0014010B54FF08053D3F8AA
:1051C0003021082A4ED14FF080420021C2F80C1144
:1051D000C2F81011C2F8381502F54042D3F8041491
:1051E000C2F82015D3F80814C2F82415D3F80C140B
:1051F000C2F82815D3F81014C2F82C15D3F81414DB
:10520000C2F83015D3F81814C2F83415D3F81C14AA
:10521000C2F84015D3F82014C2F84415D3F824146A
:10522000C2F84815D3F82814C2F84C15D3F82C143A
:10523000C2F85015D3F83014C2F85415D3F834140A
:10524000C2F86015D3F83814C2F86415D3F83C14CA
:10525000C2F86815D3F84014C2F86C15D3F844347A
:10526000C2F87035FFF78EFF18B13F4B3F4AC3F8C5
:105270008C26FFF787FF18B13D4BFB22C3F818259A
:10528000FFF780FF70B14FF080414FF08053D1F8AD
:10529000E42ED3F8583222F00F0203F00F03134329
:1052A000C1F8E43EFFF76EFF20B1324B4FF40072BD
:1052B000C3F840264FF08053D3F83031082B1AD171
:1052C0004FF08043D3F80024D20744BF6FF00102AF
:1052D000C3F800244FF08053D3F83431052B02D8A3
:1052E000254AD35C3BB14FF01023D3F808224FF08E
:1052F0008043C3F858254FF01021D1F80C32DB075A
:1053000014D51E480123C0F80435FFF74DFFD1F82E
:105310000C3223F00103C1F80C32FFF745FF0023E4
:10532000C0F80435FFF740FFFFF71AFFD1F800324D
:10533000002B03DBD1F80432002B14DA0F490123D0
:105340004FF01020C1F804351224FFF72DFFC0F8EC
:105350000042FFF729FFC0F80442FFF725FF0023B2
:10536000C1F80435DEE710BD00500040488103005D
:1053700000F00040009002401EC2000000E001402A
:10538000014B00201B68184744200020014B1B687C
:10539000184700BF4420002010B50C4C237993B966
:1053A000012323710A4B2060002818BF184600F023
:1053B0005BF850B923680748002BBDE8104008BFD0
:1053C000184600F0A1B86FF0770010BD442000200F
:1053D000815300008D53000008B5064B1B683BB19C
:1053E0000020FDF701FB18B9BDE80840FDF7DABA67
:1053F00008BD00BF442000204FF08053D3F8302177
:10540000082A06D1D3F83431052B02D8024AD05CE1
:1054100070470020704700BF2AC2000038B54FF027
:1054200080440123C4F8083363600023C4F80031CA
:10543000D4F8003142F21075D4F80C24D4F80C34AE
:10544000D20307D5DB0705D5012004F016FA013D8C
:10545000F2D138BDFFF7D0FF0028FAD0014B00226F
:105460005A71F6E74C20002010B508490C794CB968
:10547000012308600B71FFF7BFFF08B9002010BDC2
:105480004C71FBE76FF07700F9E700BF4C2000207C
:105490004FF080430022C3F80021D3F800210949CE
:1054A00001221A60096811B1C3F804237047D3F8C8
:1054B0000021002AFBD00022C3F80021D3F80031DC
:1054C000704700BF4C20002010B54FF08043D3F848
:1054D0000423D20715D5D3F8002192B10022C3F8D6
:1054E00000210121D3F80021C3F80813FFF784FF3E
:1054F000044B10B15A7922B95971BDE810401B68AC
:10550000184710BD4C200020074A137943B90121E8
:10551000106011714FF080421846C2F8183570477C
:105520006FF07700704700BF5420002010B54FF097
:1055300080431D4CD3F81814D3F8182411F4803F7D
:1055400019D002F00302012A03D00AB104F0EBF9EA
:1055500000224FF08043C3F818250022C3F804212D
:10556000D3F8042101229A60226872B9D3F8042189
:10557000002AFBD011E0D3F81424D107E8D5D3F8E2
:105580001C249207E2D422681AB10222C3F8042331
:1055900010BDD3F80421002AFBD00022C3F8042157
:1055A000D3F80431F4E700BF54200020F8B54FF0E1
:1055B0008043194FD3F80443012504F01A04002650
:1055C00004B9F8BDB4FA84F0C0F11F00830003F5FC
:1055D00080739BB203F1804305FA00F2196824EA54
:1055E00002040029ECD01E601B684FF080430128A4
:1055F000C3F808230CD1D3F81824D3F81824920741
:1056000006D10222C3F81805C3F804239860D7E72F
:105610003B68C0B29847D3E754200020036803F0EA
:105620001F025B09026004D0012B034818BF002051
:1056300070474FF0A040704700030050034A4309F1
:1056400000F01F00D35C1844C0B2704730C20000A5
:10565000034611F0010030B5CCB213D1A207C4F358
:10566000400020D5124AD2F8200558604FF08053F0
:10567000C2F82005D3F83031082B15D0003818BFF8
:10568000012010E04FF0A0414FF08055D1F82025C7
:105690001A60C1F82025D5F83051082D08BFD1F87F
:1056A0002015002ADAD030BDD2F82035E6E700BF59
:1056B00000030050F7B504460846FFF7BFFF06B2E7
:1056C00004EB46060D46B38ADB072BD5204604F0D3
:1056D0003FFA2946204604F099F958B1204604F0D3
:1056E000ABF9276800B207EB80030022C3F810254E
:1056F000C3F810252946204604F0C7F90021B182DD
:1057000001A80195FFF78AFF019B00EB8300074B7F
:10571000D0F80027134043F00203C0F800370846D2
:1057200003B0F0BD6FF01500FAE700BFF0F8FCFF22
:10573000014804F0C2B800BF2805002010B5044895
:105740000C4604F09CF80028A4BF2070002010BD77
:10575000280500202DE9F04F804689B058F804ABA9
:10576000DAF80413C9B28346082241F000415046DA
:1057700004F0C6F9051E2BDA0023032106A8CDE9A3
:105780000633FFF765FF644B01930DF11809002301
:10579000019A009312F8013B60490192DA0803F084
:1057A00007038A5C22FA03F3DA071AD4009B09F193
:1057B0000409A3B14FF000410022504604F0A0F9C3
:1057C000032106A8FFF744FF0028DCD125F000459F
:1057D0000124002D40F08A8009B0BDE8F08F01233C
:1057E000D6E7009B4E4A13440293D9F800100029D3
:1057F000DCD0029B91FAA1F11C78B1FA81F141EA67
:1058000044142046FFF71AFF0BEB40000594878AEB
:10581000C808BB0819F80020039301F00701012311
:1058200003FA01F122EA010209F8002005A8FFF7B6
:10583000F5FE059A039B02F5E072C7F3820650F865
:1058400022205B073746C2F3014233D5D6B2404629
:105850003A46214604F0FAF805A80594FFF7DEFE63
:10586000059B03F5E07350F82330C3F301439E42D8
:1058700007D10021204604F0BAF83146204604F052
:10588000B6F805A80594FFF7C9FE059B012202FAA8
:1058900003F3C0F820354FF08053D3F83031082B94
:1058A00001BFD0F82035D0F82035D0F82035D0F819
:1058B00020359AE7022A0DD10321204604F097F8FB
:1058C00006F00503012BDCD13A462146404604F0A0
:1058D000BDF8D6E702212046039204F088F8032E93
:1058E000F2D0039A032ACCD1022EECE795FAA5F365
:1058F000B3FA83F304FA03F225EA020503F5A27270
:105900000BEB43035AF82220B3F87C10C2F3014298
:10591000404604F09BF85CE740C2000000B1000084
:1059200040C20000044AD2F80034DB07FBD5016016
:10593000BFF35F8F704700BF00E001404FF080531E
:105940001A69B0FBF2F302FB13036BB9084B022296
:10595000C3F80425C3F80805D3F80024D207FBD503
:105960000020C3F8040570476FF00C00704700BFBB
:1059700000E0014010B5054C0123C4F80435FFF7E1
:10598000D1FF0023C4F8043510BD00BF00E0014082
:10599000036803F01F025B09026004D0012B034877
:1059A00018BF002070474FF0A04070470003005020
:1059B0002DE9F3470B7F04466BBBDFF8D8900D1F32
:1059C00001F1100601F10C08012755F804AFBAF1F6
:1059D000FF3F1CD03378CDF804A001A8002B50D095
:1059E000FFF7D6FF019B07FA03F3C0F8083501A8BB
:1059F000CDF804A0FFF7CCFF019B00EB8300D0F8AB
:105A0000003703EA090343F00303C0F80037A84551
:105A100006F10106D9D191F81DC00D8B4F7D8E7D09
:105A20008A7EC87E2368BCF1000F0BD1D1E9008EBD
:105A3000D1E902C1C3F86085C3F864E5C3F868C55D
:105A4000C3F86C1542EA0022C3F80C75C3F804656C
:105A5000C3F80855C3F8102520680023C0F810319A
:105A6000D0F81021C0F80831D0F80821C0F80C3166
:105A7000D0F80C3140F3073002B0BDE8F047FCF736
:105A800091BFFFF785FF019B07FA03F3C0F80C35C0
:105A9000ADE700BFF0F8FCFF4FF08053D3F83021A2
:105AA000082A06D1D3F83431052B04D8034AD05C38
:105AB0007047002070470120704700BF42C20000BD
:105AC000036803F01F025B09026004D0012B034846
:105AD00018BF002070474FF0A040704700030050EF
