:020000040000FA
:10C20000C08F0120E14E020049C90400CD4E02005A
:10C21000CD4E0200CD4E0200CD4E020000000000C7
:10C22000000000000000000000000000D5500200E7
:10C23000CD4E020000000000A1500200CD4E0200D1
:10C24000955202004D1105009552020095520200D0
:10C25000955202009552020095520200955202003A
:10C260000311050095520200955202003711050096
:10C27000955202009552020095520200955202001A
:10C28000955202009552020095520200955202000A
:10C2900095520200955202009552020095520200FA
:10C2A00095520200955202009552020095520200EA
:10C2B00095520200955202009552020095520200DA
:10C2C00095520200955202009552020095520200CA
:10C2D00095520200955202009552020095520200BA
:10C2E00095520200955202009552020095520200AA
:10C2F000955202009552020095520200955202009A
:10C300002DE9F00791E8F807B2E802105B1854EB4A
:10C310000C04B2E802104D4156EB0C06B2E80210D4
:10C320004F4158EB0C08B2E8021059EB01095AEBE7
:10C330000C0A80E8F80780410130BDE8F00770473B
:10C340002DE9F00791E8F807B2E802105B1A74EBE8
:10C350000C04B2E802108D4176EB0C06B2E8021034
:10C360008F4178EB0C08B2E8021079EB01097AEB07
:10C370000C0A80E8F80780414042BDE8F0077047AA
:10C380002DE9F007524290E87800B1E880071740A5
:10C39000DB1918EA020854EB080419EA020955EB04
:10C3A00009051AEA020A56EB0A0678C090E87800F6
:10C3B000B1E8800717407B4118EA020854EB0804F3
:10C3C00019EA020955EB09051AEA020A56EB0A06B0
:10C3D00078C080410130BDE8F00770472DE9F007D3
:10C3E000524290E87800B1E880071740DB1B18EA5A
:10C3F000020874EB080419EA020975EB09051AEA48
:10C40000020A76EB0A0678C090E87800B1E8800767
:10C410001740BB4118EA020874EB080419EA020944
:10C4200075EB09051AEA020A76EB0A0678C0804124
:10C430004042BDE8F00770472DE9F00152424FF04D
:10C44000040890E8300091E8C000A31B1340E41AF0
:10C45000F618EB1B1340ED1AFF1830C0C0C1B8F13D
:10C460000108EED1BDE8F001704700BF00B592E8C9
:10C47000DC072DE9DC07B1E8805702B4A7FB0251C5
:10C480000A95A8FB020BE7FB6310E9FB62B00B9176
:10C49000A8FB0351EAFB6201E7FB64B5E7FB660515
:10C4A000E8FB6615CDF830B0A9FB03B6EAFB6316CE
:10C4B000ECFB6356E8FB640BE9FB641BEAFB645B83
:10C4C000ECFB646B0D90ACFB0230059CEEFB625004
:10C4D000E9FB6460EAFB64B0E7FB6431E8FB6451AC
:10C4E000069CE8FB6461E9FB64B1EAFB64010E931E
:10C4F000A7FB0432079CE7FB6462E8FB64B2E9FB3C
:10C500006402EAFB6412049CE9FB6453EAFB646383
:10C51000089CE7FB64B3E8FB6403E9FB6413EAFBF4
:10C5200064230F955DF8049B99E80006DDF8008010
:10C53000A9FB0854EAFB68B4DDF81080ECFB680442
:10C54000EEFB6814E9FB6824EAFB6834DDF804803C
:10C55000EEFB6865E9FB68B5EAFB6805DDF8148069
:10C56000ECFB6815EEFB6825E9FB6835EAFB6845DE
:10C570000F96DDF80880AEFB0876E9FB6806EAFB5B
:10C580006816DDF81880ECFB6826EEFB6836E9FBE0
:10C590006846EAFB6856DDF80C80ECFB68B7EEFBFA
:10C5A0006807E9FB6817EAFB6827DDF81C80ECFBED
:10C5B0006837EEFB6847E9FB6857EAFB686708B035
:10C5C00000BD00BF2DE9F14F87B0FFF74FFFDDF849
:10C5D0001C8008F1200888E8FF00FFBC87E87F087E
:10C5E000BDE8F08F00B591E89857A3FB0352019581
:10C5F000A3FB0401E3FB6420E3FB67100292A3FBAF
:10C600000752E3FB6802E4FB6415E3FB6805E3FB08
:10C6100069250391A4FB07B6E3FB6926E3FB6A5691
:10C62000E4FB670BE4FB682BE3FB6A5BE3FB6C6BEF
:10C630000490A4FB0810E4FB6950E3FB6C60E3FB8F
:10C640006EB0E7FB6721E4FB6951E4FB6A61E3FB41
:10C650006EB1E4FB6E010592A7FB0832E4FB6A624F
:10C66000E4FB6CB2E4FB6E02E7FB6E12E7FB68537F
:10C67000E7FB6963E4FB6CB3E7FB6C03E7FB6E135A
:10C68000E8FB6E230695A7FB0954E7FB6AB4E7FBBA
:10C690006C04E8FB6C14E8FB6E24E9FB6E34E8FBE9
:10C6A0006865E7FB6AB5E8FB6A05E8FB6C15E9FB22
:10C6B0006C25E9FB6E35EAFB6E450796A8FB09760B
:10C6C000E8FB6A06E9FB6A16E9FB6C26EAFB6C36B6
:10C6D000EAFB6E46ECFB6E56E8FB69B7E9FB6907BF
:10C6E000E9FB6A17EAFB6A27EAFB6C37ECFB6C474D
:10C6F000ECFB6E57EEFB6E6700BD00BF2DE9F14FFE
:10C7000087B0FFF76FFFDDF81C8008F1200888E88C
:10C71000FF00FFBC87E87F08BDE8F08F30B44FF022
:10C72000000310F8014B11F8015B013A84EA05049B
:10C7300043EA0403F5D1A3F101034FEAD37030BCFF
:10C74000704700BF4FF0000310F8012B013943EA96
:10C750000203F9D1A3F101034FEAD370704700BF80
:10C7600030B411F8014B12F8015B6C4000F8014B3A
:10C77000013BF6D130BC70472DE9F00791E8F8078E
:10C78000B2E802105B1854EB0C04B2E802104D4101
:10C7900056EB0C06B2E802104F4158EB0C08B2E819
:10C7A000021059EB01095AEB0C0A8941B3F1FF332E
:10C7B00074F1FF3475F1FF3576F1000677F100076B
:10C7C00078F1000879F101097AF1FF3A51F100019D
:10C7D0005B184C414D4156F1000657F1000758F1E6
:10C7E000000859EBD1795AEB010A80E8F807BDE857
:10C7F000F00770472DE9F00791E8F807B2E802105A
:10C800005B1A74EB0C04B2E802108D4176EB0C0657
:10C81000B2E802108F4178EB0C08B2E8021079EB15
:10C8200001097AEB0C0A89415B184C414D4156F1E4
:10C83000000657F1000758F1000859EBD1795AEB7F
:10C84000010A80E8F807BDE8F007704718EB040814
:10C8500059EB05095AEB060A5BEB070B5FF0000C7E
:10C860004CF1000C18EB050859EB06095AEB070AC6
:10C870005BEB070B50EB0C005FF0000C51EB0C0175
:10C8800052EB0C0263414CF1000CB8EB070879F154
:10C8900000097AF1000A7BEB040BA841B141A241E7
:10C8A000B3416CF1000CBBEB050BB041B941AA419F
:10C8B000BB416CF1000C4CF001068CF0020718EB48
:10C8C000060859EB6C095AEB6C0A7BEB6C0B70EBAE
:10C8D0006C0471EB6C0572EB670653EB6C076CEB49
:10C8E0006C0C18EB0C0059EB0C015AEB0C025BF1D1
:10C8F000000354F1000455F1000556EBDC7657EBCC
:10C900000C0770472DE9F14F87B0FFF7AFFDDDF859
:10C910001080DDF81490DDF818A0FFF797FFBDE850
:10C92000000FFFF793FF03B05DF8048B88E8FF006A
:10C93000BDE8F08F2DE9F14F87B0FFF753FEDDF82A
:10C940001080DDF81490DDF818A0FFF77FFFBDE838
:10C95000000FFFF77BFF03B05DF8048B88E8FF0052
:10C96000BDE8F08F064B074A5B7802604FF42072F7
:10C970008280C3710822002382710372704700BF56
:10C98000C83B0020C7C00100064B074A9B780260E5
:10C990004FF494728280C3710822FF238271037264
:10C9A000704700BFC83B00203DBC0100F8B5C41D66
:10C9B000002824F00704054614BF2046002000F09C
:10C9C00043FB071E02DA6FF00B00F8BD0DB9FC4205
:10C9D000F9D4284EB1797079337AF2790331033082
:10C9E0000CF001FD0028EEDB317873783C44033411
:10C9F000002D194424F0030400FB01F114BF20466C
:10CA0000002000F0ADFC20440DB90028DBDBB2783B
:10CA10000346B2B1F17BF37811441944FF29D2DC0B
:10CA20000330002D20F0030414BF2046002072893B
:10CA3000C9B200F005FD031EC5DB23440DB9002B70
:10CA4000C1DB317B81B1B27872B10733002D23F0A5
:10CA5000070414BF2046002004F0ACF8031EB2DB2C
:10CA600023440DB9002BAEDB002D0CBF184600206F
:10CA7000ABE700BFC83B00201FB572B6184B9D6ADC
:10CA8000E5B9BFF34F8F1749174BCA6802F4E0624C
:10CA90001343CB60BFF34F8F00BFFDE7B2FBF6F24D
:10CAA000DCB20133002AF9D104F110036B4403F81E
:10CAB0000C2C0A2234B901A8A847E2E70246002359
:10CAC0000A26EDE7631E04AEDCB256FA83F3B0FB30
:10CAD000F2F602FB1600303003F80C0C3046E9E7A2
:10CAE000C83B002000ED00E00400FA0507B50C4B40
:10CAF0001A7A8DF80120DA798DF8002068469A7943
:10CB00005B79ADF80420ADF8023002F089FB18B172
:10CB1000D9210320FFF7B0FF03B05DF804FB00BF8D
:10CB2000C83B002038B5054670B30AF097FA10B933
:10CB30004FF0FF3038BD0FF0B9FBB0F5FA7FF7D8F2
:10CB4000144C1548A562002500F0F8F92622294664
:10CB5000204684F82C500AF08DFE01236370A370E8
:10CB60001B23637140F21B33E380022323721F23D4
:10CB7000638108232373EFF3108472B600F036FD4F
:10CB80002CB962B62046D5E76FF01500D2E72846EB
:10CB9000D0E700BFC83B0020EDCA000010B5002858
:10CBA0003CD1214C94F82C30032B34D059B1002ABD
:10CBB00037D00239052931D8DFE801F003142230DB
:10CBC0002528137863700020FFF7F0FE0028B7BF18
:10CBD0000123022384F82C306FF00B00A8BF84F8E7
:10CBE0002C3010BD9378E3B1D378D3B113781A2BDE
:10CBF00017D953781A2B14D91368C4F80530E2E713
:10CC00001378A370DFE713886381DCE71388FF2BB9
:10CC100007D82373D7E74FF0FF30E2E76FF02C001F
:10CC2000DFE76FF01500DCE7C83B0020F8B50D46E4
:10CC3000064630B329B311F0070422D1124F97F8FA
:10CC40002C30012B02D16FF00B00F8BD032B02D169
:10CC50004FF0FF30F9E700F0ADF80028F8D0284693
:10CC6000FFF7A4FE0028EEDB0FF064FA3046214601
:10CC700002F06AFBFFF73AFF032387F82C302046C7
:10CC8000E3E76FF01500E0E7C83B002010B5074C64
:10CC900094F82C30032B03D102F06EFB03F074FAEE
:10CCA0000CF097FC002084F82C0010BDC83B00203D
:10CCB00050B1074B03F1140253F8041B40F8041B56
:10CCC0009342F9D1002070476FF01500704700BF04
:10CCD000550D060010B5074B93F82C403CB902F0F7
:10CCE000FDFA0120044900F0A7F9204610BD4FF0DD
:10CCF000FF30FBE7C83B002089C9000010B5074B97
:10CD000093F82C403CB902F0FDFA2046044900F0AB
:10CD100093F9204610BD4FF0FF30FBE7C83B0020E1
:10CD200065C9000010B5054B93F82C401CB902F002
:10CD3000A1FA204610BD4FF0FF30FBE7C83B0020B2
:10CD400010B5054B93F82C401CB90DF054FD20464E
:10CD500010BD4FF0FF30FBE7C83B002010B5054B7E
:10CD600093F82C401CB90DF049FD204610BD4FF042
:10CD7000FF30FBE7C83B002008B5064B93F82C308A
:10CD8000032B03D002F04CF8002008BD4FF0FF3019
:10CD9000FBE700BFC83B0020024B02681A6000207E
:10CDA000704700BFF83B0020014B1B68184700BFCD
:10CDB000F83B0020024B1868003818BF012070476C
:10CDC000F83B00202DE9F743294E0446071D28486B
:10CDD000376003F0F1F90228054607D124492046BF
:10CDE0000BF0FDFD284603B0BDE8F083042838D1E0
:10CDF0003378072B18D13E2000F050F878B9F3783B
:10CE0000327901A943EA02236846ADF800300CF0FC
:10CE1000C2F80028DBD053210820FFF72DFE0520A3
:10CE200000F07CF80028EAD0314620460BF03CFEAA
:10CE3000B0F5817F01D37221EEE70028C7D094F8C6
:10CE4000008094F80290404600F028F80028BED0F8
:10CE5000B8F13E0FC6D1484600F060F80028C1D1B5
:10CE6000B5E70828BED1024920460BF0E7FDB9E737
:10CE7000FC3B0020074B4FF0FF3141F6FF72C3E946
:10CE8000001205490022C1E900221F21C3E9021254
:10CE9000704700BFC0200020403C00203F280CD835
:10CEA00001380B4BC0F3421200F01F0053F8223040
:10CEB00023FA00F000F001007047FF2806D0403848
:10CEC000C0F34212034B00F01F00EFE70120704750
:10CED000C0200020403C00200146074B0068496804
:10CEE0001A4603C240F48C221A6041F0107242F4D8
:10CEF000FF625A60704700BFC02000200246024B0C
:10CF00000068516803C37047403C00200246024B52
:10CF10000068516803C37047C82000200138064BE1
:10CF2000C0F3421203EB820300F01F009B6823FA58
:10CF300000F000F001007047C0200020014B186095
:10CF4000704700BF483C002010B5FFF793FF0DF07D
:10CF50001EF8034B1B68044603B19847204610BDDA
:10CF6000483C00200B880288F0B5C3F30E049EB243
:10CF700004F11403C57CC35A02352A442B4497B2EA
:10CF800013FA82F3013B4288B3FBF7F313FB074329
:10CF90009BB29A42044A93BF22EA060332401343EB
:10CFA0009BB20B80F0BD00BF0080FFFF4A1E062A27
:10CFB00008B50346084604D84FF4D1711520FFF791
:10CFC0005BFD094A914202D940F2A311F6E711B97B
:10CFD00003B1196008BD2BB11B680022C3E9012110
:10CFE0001A1D1A600430F5E7FAFFFF7F10B5114BE8
:10CFF00000EB41041A786389B3FBF2F303FB0223CD
:10D00000013A1A44B2F5706F027928BF00231A441E
:10D010008378B2FBF3F0194403FB1020091AB1FB2B
:10D02000F3F003FB101313446FEA43436FEA5343D7
:10D03000638110BD4C3C0020024B03EB8003596020
:10D04000704700BF4C3C00202DE9F04F10F0070A5C
:10D0500085B0054604D040F261111720FFF70CFDA2
:10D06000554F07F10C06B1460446B0464FF0010B90
:10D0700057F8043B8DF80BA03BB101A898479DF8E9
:10D080000A30082B01D9E821E7E79DF80B1081BB96
:10D0900005B13160B94506F10406E9D12DB3DFF8D9
:10D0A0001CE100238EF800301E46022258F82200B0
:10D0B000013A60B190F804A08178BAF1FF0F66D10F
:10D0C0004FF000078E4207713CBFCEB20123511CC6
:10D0D000ECD10BB18EF80060022640F6FF6A58F8DA
:10D0E0002670002F65D1013EF9D2601B05B0BDE866
:10D0F000F08F9DF80AC0BCF1020FE64601F105026F
:10D1000038BF4FF0020E0EF1FF3004EB420404442E
:10D11000CEF100002040BDF808406444013CCCF151
:10D12000000C04EA0C04B4F5803F4FEA420301D33B
:10D13000F82192E775B1C31A336099701C8083F8A7
:10D1400003B09DF80C201A71019A1A814FEA124C13
:10D15000A3F806C004FB01049CE758F82C90B9F131
:10D16000000F06D099F804B0D34504BF99F8029097
:10D170004F440CF1FF3CBCF1000FEEDA3944FF29BB
:10D18000A0D90BB18EF8006040F2271165E79446F4
:10D190000027F0E707EB41033846A3F80AA0FFF7A2
:10D1A00025FF09F10109BB785FFA89F18B42F1D8BB
:10D1B00099E74FF00009F6E7503C00204C3C002076
:10D1C000F8B54FF6FF730380184B03EB8103054658
:10D1D0001869B8B186780379B3FBF6F206FB12330F
:10D1E000DBB219460A1D00EB4202B2F90270548804
:10D1F000002F09DB0131B1FBF6F206FB1211C9B2B7
:10D200008B42EFD10020F8BDFF29FBD0C4F30E0301
:10D21000C4782B8024B94FF4D5711720FFF72CFC6C
:10D220005380BDE8F8400CF0BDB800BF4C3C002076
:10D230001D4B03EB810370B51C69054644B3030421
:10D2400004D54FF4DC711720FFF716FC0146204689
:10D250000CF08AF8FF28014604D02046BDE8704053
:10D260000CF0A0B8A078B5FBF0F300FB1353DBB2D1
:10D2700019460A1D04EB4206B6F90260002E09DBCE
:10D280000131B1FBF0F200FB1211C9B28B42F0D1B7
:10D29000002070BDFF29FBD08B4204EB42021CBF73
:10D2A0000023E3705580D8E74C3C0020094B03EB8A
:10D2B000810310B51C69014620460CF055F8FF2883
:10D2C000014604D02046BDE810400CF06BB80020A9
:10D2D00010BD00BF4C3C0020F8B5104B03EB8103A0
:10D2E00007461C69014620460CF03EF8FF2805461B
:10D2F00011D0E688238953EA064606D00146204627
:10D300000CF050F801463846B04720462946FFF752
:10D310006DFE0020F8BD0520FCE700BF4C3C00205E
:10D3200038B50E4B827903EB82030446186908B9BD
:10D33000052038BD8278E1799142F9D24B1CE37126
:10D3400000EB41035D89B3F90A30002BF3DBA580C4
:10D350000CF028F820600020EBE700BF4C3C0020D8
:10D3600070B5044610F003000E4603D04F2118207C
:10D37000FFF782FBFFF71AFE054624B1034831464A
:10D380000460FFF713FE284670BD00BF683C002014
:10D390002DE9F14FDFF870B09DF828A09DF82C9092
:10D3A0001E46DBF8003007460D4690461BB961214A
:10D3B0001820FFF761FB5246092140460BF05AFE48
:10D3C0004A4684B2092130460BF054FE14FA80F12B
:10D3D000DBF800000BF09DFF386018B9286001B041
:10D3E000BDE8F08F04442C6038685346414609225A
:10D3F0000BF0F9FD28684B460922314601B0BDE823
:10D40000F04F0BF0F0BD00BF683C002070B50E4639
:10D4100004460BF042FE054630460BF03EFE044B40
:10D420002A1821461868BDE870400BF096BF00BF6F
:10D43000683C0020014B18680BF05FBF683C00207F
:10D440001F2AF8B5044613460ED89200033222F084
:10D450000303B3F5803F2DD2184DACB1A00710D017
:10D460005F210920FFF708FBFF2B4FEA420204D996
:10D47000FF339A42A8BF1A46E8E77C2AB8BF7C224D
:10D48000E4E729706C602B8122F0030201EB810339
:10D490001204D80001276B68120C0025EEB28E42F0
:10D4A00000D3F8BD14B126181F705E60104401351A
:10D4B0002833F3E74FF0FF30F3E700BF6C3C002068
:10D4C00038B5144A147853680021C8B2844203D88E
:10D4D000AB210920FFF7D0FA18460131057828332F
:10D4E000002DF2D00021817001241289447044681B
:10D4F0008161C161920800F12001051D21F8022B14
:10D50000994245F8044B1444F8D100234361037059
:10D5100038BD00BF6C3C00202DE9F8434B788046B5
:10D520000C4602F0040602F0FB07D3B1DFB12E4B2C
:10D53000D4F804901D89B7BB01236370AD08A761BF
:10D54000E76104F120034A46211D04F1280023F875
:10D55000025B984241F8042B2A44F8D1002363610E
:10D5600001E0002FE3D0FF23A370002E18BF022696
:10D57000A3191B7D032B03D1022F1CBF0136F6B26A
:10D58000A31901221A7506F10C0204EB860600238A
:10D5900024F812307268A370C8F80020A8F804308C
:10D5A0004046BDE8F883002114226170A0180AF0FB
:10D5B00061F9B5F5FF7F0FD26B08ED1AADB209EB3B
:10D5C0000502C4F804902584A2606384C4F80C901A
:10D5D000A5842261E384C6E7B5F5EE6F4FF0FF0343
:10D5E000EBD940F27265EAE76C3C0020134B012254
:10D5F00000214FF0FF309A60C3F80012C3F808030F
:10D60000C3F80015C3F804259A60C3F80803C3F8EB
:10D610000015C3F804250A490A4A03F580334FF47C
:10D620000040C3F80825C1F88000BFF34F8FBFF357
:10D630006F8FC1F88001C3F80825704700F00040E3
:10D6400000E100E00000F63F0A46192302F8033B20
:10D650000448C368C1F803300369536043699360A9
:10D66000704700BF783C0020024B5A8C02435A841A
:10D670005B6A1847783C0020014B00215B6A184721
:10D68000783C002010B5154C05F006FF05F084FA33
:10D69000208DFFF7F1FF237E63B12246104952F837
:10D6A0000C3BE3606368536004F11900A368936066
:10D6B0000DF059FE0B4B228D93E8030003F004FBA1
:10D6C000236B188803F02AFAA36B94F8341094F8AB
:10D6D00035009847002384F83C3010BD783C00208A
:10D6E00049D60000A43C0020034B93F83C300BB11A
:10D6F000FFF7C8BF704700BF783C002070B51D4CD5
:10D70000256B636C236495F89430064694F84800C2
:10D710000BB10430C0B295F869102EB9FF2803D1BF
:10D7200095F868308B4201D005F044FD95F89430AF
:10D73000D3B1E06C05F050FF012384F86830D5E9DF
:10D740003E23E16C206CC4E9182305F0DBF916B91F
:10D75000304605F081FF95F86810002005F0C6FFFF
:10D76000022384F83C3070BD206C05F035FF05F0D5
:10D7700013FAECE7783C002008B5094B93F83C20FD
:10D78000022A04D040F253212720FFF775F9DA7AF4
:10D7900042F00102DA72BDE80840FFF773BF00BF34
:10D7A000783C002010B50E4CA26F137803F00303F1
:10D7B000032B04D1D378022B01D1002010BDE06FE0
:10D7C0000BF0FEFC0028F9D1A36F1B7803F00303D4
:10D7D000032BF2D001F0C6FE80F00100C0B2EDE7ED
:10D7E000783C00202DE9F743424C94F83C30256BFF
:10D7F000012B06460F465FFA83F804D040F2A4419D
:10D800002720FFF739F995F884303BB1002185F8DE
:10D8100084100420FFF728FF85F88680A16F0B781D
:10D8200003F00303032B05D195F88A3013B90220C6
:10D83000FFF71AFFA26F137803F00303032B02D044
:10D84000537813BB012385F88A3095F89430B3B12F
:10D85000D5E93E01236B94F84890C4E918014FF0D4
:10D86000010893F8690084F868800BF0B4FE002288
:10D870000346009220494A46404605F0FDF836B17D
:10D8800003B0BDE8F043FFF7FDBE0223DBE7002F46
:10D89000F6D0D4F88030304698470028F0D094F87D
:10D8A0003430002BECD194F88430DD06C3F3001043
:10D8B00001D5FFF777FF636CD4F888201B78C3F39A
:10D8C00000132AB9B4F88C2013B1B2FA82F35B09C1
:10D8D000628C910709D5A36FDB78022BD0D1002091
:10D8E00003B0BDE8F043FFF709BF002AC8D10343E6
:10D8F000F5D1C5E7783C0020C83C002010B5064BA8
:10D9000093F83C2002F0FF0422B91C7603F0D4F90E
:10D91000204610BD0C24FBE7783C00200A4B0B4A44
:10D9200070B506460D461A60FFF7E8FF18B1E12111
:10D930002720FFF7A1F8064C012104F18E000DF01D
:10D94000EFFB6664E56470BD082100201CE1000067
:10D95000783C0020024B012283F8B020704700BFC2
:10D96000783C00202DE9F043824D85B002AE86E878
:10D97000030095F83C100C9F01F0FF0411B90AB1A7
:10D9800003B127B940F26F112720FFF775F896E829
:10D99000030005F12C0C8CE8030085F8B04085F8F5
:10D9A000344085F8B14085F8354085F8B24085F8B7
:10D9B000B3406C842C852C6BC5F880306A62AF63F1
:10D9C00005F036FC05F0E8F894F96C0005F0CCFCA5
:10D9D000606A05F0F3FDE06905F0CCFC94F8A40062
:10D9E00005F0EEFC2B6B93F8AF310BB105F00EFC9C
:10D9F00094F869209D21012005F03AFD5E4B1868DE
:10DA000005F0E2FD2369EB676369C5F8B43094F86B
:10DA1000773073B9226F62B1B4F8BE10B4F88830B1
:10DA20008B4206D1B4F874100B44A4F8BE30012325
:10DA30001360524E04F5807304F5887718685968AE
:10DA4000324603C20833BB421646F7D1D4F8103130
:10DA50004B4AC5F86930D4F8143153602B6B93F8F6
:10DA60008E2093F86860A2F12501012903D993F86B
:10DA70008F10252960D193F856322BB1012E03D097
:10DA8000012B14BF0226012604F130073146384627
:10DA90000DF0FBFC31460DF0A0F9A38F94F869104E
:10DAA000834228BF0346384685F8B8300DF0D6FCCF
:10DAB00094F8691094F89460B4F84480042908BF7D
:10DAC00003210DF08AF90EB9043080B2404528BF19
:10DAD000404694F894305FFA80F885F8B98085F86C
:10DAE00048809BB1D4E93E6794F869004FF0010982
:10DAF000C5E9186785F868900BF06DFD00220346B4
:10DB000000921E494246484604F0B6FF0120FFF746
:10DB1000F5FD00232B606B60AB60B4F888306B8040
:10DB200023882B8094F8A4302B71A36F0BB10122B2
:10DB30001A6005B0BDE8F083203A012A0CD82329E9
:10DB40000CD093F8363113F0010211D19B079BD50D
:10DB5000012E18BF022697E7232905D193F8362115
:10DB600093F861301340EEE7032E08BF04268BE7DD
:10DB7000164689E7783C002008210020C83C002098
:10DB8000E13C002008B50C4B93F83C201AB9BDE8E5
:10DB90000840FFF777BD93F83C20022A04D040F2FA
:10DBA00035212720FEF768FF1B6BD3F8C801BDE8BD
:10DBB000084005F023BD00BF783C0020014B1876DB
:10DBC000704700BF783C0020014B93F8B2007047CB
:10DBD000783C0020024B188DC0F3C020704700BF76
:10DBE000783C0020014B93F8B1007047783C00204E
:10DBF0002DE9F3411E4D82072C6B06460F4622D5B8
:10DC0000D5F8883023B940F295412720FEF734FF3C
:10DC1000B5F88C20296C1846033291F8018009F080
:10DC2000B1FD0DF1020201A92864D5F8B4000BF092
:10DC30005AFB01980BF041FB012238604146D5F8B0
:10DC4000B4000BF007FBF3070ED5D4E93E320133E5
:10DC500042F10002C4E93E3294F88C30012B0CBF33
:10DC60000023012384F88C3002B0BDE8F08100BFAE
:10DC7000783C00202DE9F04FAB4C002387B0CDE974
:10DC8000043394F83C30276B022B81468A4604D03B
:10DC90004FF4A3612720FEF7EFFE238D590606D42B
:10DCA0004020FFF7E9FC238D43F04003238597F8DC
:10DCB0009430B9F1000F00F02881B3B104F09EFF59
:10DCC00004F082FF88B9236C5A7872B11B7897F8F8
:10DCD0008C20C3F3C0039A4207D1012384F8353066
:10DCE000FFF7D0FC07B0BDE8F08F236C5978A4F89B
:10DCF0008C1009B3D4F8B4000BF083FAC4F8880090
:10DD0000238D97F88B2043F400732385236C1B78B5
:10DD1000C3F380039A4200F0B980256B95F88A30EE
:10DD2000002B3DD0022B11D1E06F04A90BF000FABB
:10DD300028B940F20E41ADE7C4F88810E0E7D5E914
:10DD40003C32013342F10002C5E93C3295F886309D
:10DD5000002185F88A1023B185F886101020FFF77E
:10DD600083FC95F885309BB1002685F8856001F02D
:10DD7000E3FB10B940F225418CE731460820FFF75C
:10DD800073FCD5E93C32013342F10002C5E93C3273
:10DD900095F88B30012B0CBF0023012385F88B30C5
:10DDA000238D43F4006323854FF0000B216C97F81B
:10DDB0008C200D78C5F3C0039A4240F0988005F09E
:10DDC0000305032D266B63D0002D6CD196F88C30A3
:10DDD000013B18BF012386F88C30236C5B7833B18C
:10DDE000D6E93E32013342F10002C6E93E3297F8ED
:10DDF00093308BB1D7E93C23002697F8680084F86C
:10DE00006860C4E918230BF0E6FB48490096034616
:10DE1000FB22304604F030FEBAF1000F40F088805B
:10DE2000628C94F8B130120703D5A26FD278022A1F
:10DE30007ED0012B7CD8D4F8803001209847002870
:10DE400076D094F83480B8F1000F71D1266B94F835
:10DE5000483096F894208DF80D80002A40F0B38069
:10DE6000FF2B96F8681003D196F869308B4202D0E8
:10DE7000FF2005F09FF996F88A30032B00F23881D5
:10DE8000DFE813F0A400D5001D012E01CB468DE77D
:10DE9000238D012043F4805386F8840023850025D8
:10DEA000FFF7E2FB92E74D78002D8FD0238D96F897
:10DEB000945043F48053238505F026F9042894F800
:10DEC000B93006D1002D14BF1B221F22934228BF58
:10DED0001346226C52789A420BD8D4F88850002D01
:10DEE00085D094F8B03073B12020FFF7C5FB002532
:10DEF0007DE794F83430012043F0100384F8343087
:10DF000006F0A2FCF3E74D4660E70BB104F0ACFE6F
:10DF100094F8B130013384F8B130238D002543F4F7
:10DF200080632385AB4662E7783C0020C83C002034
:10DF300005F0FCFB4FF0010A1DB105A90220FFF717
:10DF400057FEBBF1000F0DD0B4F80720B4F8053030
:10DF50001343B7F8882013431EBFB4F809300133C8
:10DF6000A4F80930B9F1000F00F0CA80B4F8053008
:10DF70000133A4F80530002384F8B130634802F07F
:10DF8000BBFD049830B10BF098F9216B00220272AE
:10DF900002F062F9059B33B1216B00221A720C2248
:10DFA000059802F027F9BAF1000F7FF499AE238D9E
:10DFB0001B063FF597AE8020FFF75EFB238D43F0F5
:10DFC000800323858EE60433DBB249E794F8B8304A
:10DFD000ADF80E304E48A6F8583001F09DFA50B119
:10DFE000A16F4FF48070FFF73FFB012386F8853067
:10DFF00084F8B3301DE0E06F0DF10D020DF10E015C
:10E000000BF073F8A06790B196F8D1307BB99DF80A
:10E010000D302BB903808370A06F01210DF080F8C3
:10E02000BDF80E10A06F0DF047F90123E0E7394B62
:10E03000A36796F88B30A26FDB0003F0080113781A
:10E0400003F0F3030B4396F88C10890001F00401F0
:10E050000B4323F010031370FFF7A4FB0028A06FFD
:10E06000037818BF4FF0100848EA030880F80080D2
:10E0700096F89330002B3ED04378002B3BD0E06CD9
:10E0800005F0AAFA002384F86830D6E93C23A16F92
:10E09000E06CC4E9182304F035FD96F869100120FE
:10E0A00005F024FBA26F1188A4F8841091781A4A15
:10E0B000012384F8B230917084F83C303CE7B6F824
:10E0C0005830E06FADF80E300DF10D020DF10E017C
:10E0D0000BF00BF8A0670028A7D140F2F321D9E597
:10E0E0000B4801F019FA00289FD140F2FD21D1E53B
:10E0F00040F20B31CEE505F06FFA04F04DFDCCE7B0
:10E10000B4F807300133A4F8073037E7A43C002007
:10E11000F03C0020063D0020FC3C002079D70000A8
:10E1200075DC0000E5D70000E9D600000B2808B533
:10E1300004D940F2C1310620FEF79EFC014B33F8B2
:10E14000100008BDAC4005002DE9F04F8BB004462F
:10E1500015460293894690F869B00CF096FB064686
:10E1600094F8B001FFF7E2FF94F88F300393064470
:10E1700085F00103B6B2059355BB94F8F431032B37
:10E1800026D1039B0D2B23D1B4F854324B451FD11C
:10E19000D4F8FC31C4F8E831A369B4F8CC21C4F850
:10E1A000EC31B4F842321344C4F8F031204604F0A4
:10E1B00083FBD4F85832A362B4F85632A385D4F85E
:10E1C0005C32A361D4F860322362022384F8F43114
:10E1D000B4F84072B4F88880A9EB07073FB204F5A1
:10E1E0000473A9EB0808002F04930FFA88F86EDA7D
:10E1F000D4E98A234746C4E98E2301230493CC4BF8
:10E200001B7803F0FF05002B54D00EF04BF80546A9
:10E2100000284FD0B4F8E031012B6DD994F8F431D7
:10E22000022B69D094F80A52002D65D194F8B00100
:10E23000FFF77CFF94F8F43100F5C866012BB6B205
:10E24000D9B24CD194F89230D4F828A0032B40D105
:10E25000D4F8EC5155443146D4F8EC010EF01CF8DA
:10E26000D4F8E831C4F8E801A0EB030AD4F8F0319F
:10E270003146284603FB0AFA0EF00EF8D4F8F8519E
:10E28000C4F8F801451B3146A0690EF005F8AA4410
:10E29000B4F8CC51D4F8F0314544ED1BDB432B44AA
:10E2A000D4F8FC51451B05FB03A50123C4F8FC0170
:10E2B00084F80A3294F8F431DFF874A2032B00F2E8
:10E2C0008E81DFE813F01B0016016B003701029B03
:10E2D00094E728460CF0A9FD00EB0A05BBE7A0690E
:10E2E00031460DF0D9FFB4F8CC51D4F8FC31454497
:10E2F000ED1BC31A5D43D8E70025DBE701210020B1
:10E300000CF093FD8046A06A314640440DF0C4FFF6
:10E310003146C4F8F801A0690DF0BEFF07A9C4F8A2
:10E32000FC0108A805F00AFA079B0093D4E98E01C6
:10E33000DDE9082308F076FD834620460BF06FF9EF
:10E34000D4F84432A66A94F869001E4405F03CFBF8
:10E35000D4F8F811A6F194077F1A00F523404FF482
:10E360007A734744A130B0FBF3F0A38DA7EB0B0702
:10E3700030313F1A03EB410194F869000BF03BF98F
:10E38000D4F84432FB1A2230B3F5917FCAF8040066
:10E3900058D240F2C6413020FEF76EFBA36AD4F893
:10E3A000EC01314618440DF077FF3146C4F8F8010E
:10E3B000A0690DF071FFC4F8FC0120460BF02FF9A5
:10E3C000B4F8CC31A66AD4F8EC71002B40F08D8003
:10E3D000029B002B00F0898094F8690005F0F4FAA4
:10E3E0003E44D4F8F871943ED4E98A23F61BD4F85D
:10E3F000307280463E4494F86900B61A05F0E4FA9B
:10E400004FF47A7300F2E73708F52340B7FBF3F7D0
:10E410003744A130B0FBF3F0D4F8F811D4F8E83168
:10E42000D4F8F021303102FB0311A38D3F1A03EB26
:10E43000410194F869000BF0DEF80123CAF80400EA
:10E4400084F8F431A6696FF4F4731E44D4F8FC31F7
:10E45000F61ADAF804309E4228BF1E46D4E98E32FE
:10E460007F1BDF1942F100024FF00008C4E98872F7
:10E47000C4F8C86184F8108204F130000CF0ECFF9D
:10E48000B4F8B811A4F84092D4E98823A1EB0909A3
:10E490000FFA89F9C145C4E98E23C8BF022384F865
:10E4A0001882C8BF84F81832039B06440D2BC4F8A9
:10E4B0001462029B00F09680002B40F0948094F848
:10E4C000F431002B00F0AD80A169D4F8FC3104F5E3
:10E4D0000470C91A0CF050FC80B2002800F0A18032
:10E4E000149B03B118800120ABE0D4F8F801374445
:10E4F00092E7D4F8FC21A369D4F8F001D4F8E8112C
:10E500009B1A5F43B4F8CC319844C3439844D4F881
:10E51000F831303301FB0033A18D94F8690002FB20
:10E52000083301EB43010BF066F8CAF8040089E7F1
:10E53000343D0020A369D4F8FC219B1A5F4394F872
:10E540008E30252B03D094F88F30252B0AD1B4F8C8
:10E550005432A9EB03031A0404D494F85732002B65
:10E5600018BF9B46049B63B3B4F8CC314BBBD4E9D2
:10E570008A23D4E98C0182428B4102D340F21A51A2
:10E5800009E794F8690005F01FFAD4F8302206462E
:10E59000D4E98A01A2F194031B1A3B4494F8690060
:10E5A000049305F011FA049B00F2E7374FF47A72F6
:10E5B00006F52340B7FBF2F71F44A130B0FBF2F0A1
:10E5C0003F1AB4F8CC11D4F8FC31414459433031EE
:10E5D000490058460BF00FF81B4B586032E740F2E9
:10E5E0003251D8E6EBB1B4F8E01121B3B4F8E2212E
:10E5F00094F8E431A4F8E22102FB0333994202F1DA
:10E6000001000EDD94F818325BB1002384F8183253
:10E61000A4F8E20101F0B6FE00F00700013084F832
:10E62000E40194F80B0204F5047107F0C7FC20B96B
:10E6300040F27B51AFE60A46DAE7059B84F80832E0
:10E6400000200BB0BDE8F08F343D00202DE9F041F3
:10E6500004460D46164690F8F83003F0FF071BB14C
:10E660000C273846BDE8F0810146454807F05AFBC3
:10E6700020288046F4D05822394604F1D00009F011
:10E68000F9F884F8D080C4F8D450FF2384F8F83027
:10E6900035B101F08FFE00F00700013085F8E4018C
:10E6A00002234FF00008A4F8083184F800810DF02F
:10E6B000FFFD00F19E0520460DF0A6FBADB2014620
:10E6C00070B30CF0E2F800F5CD6189B230460DF080
:10E6D000E3FD3044C4F804010DF04CFF281841F16B
:10E6E0000001C4E94401012084F8D800A4F8268080
:10E6F0000DF048FCDB3E361AC4F8DC604FF0FF3208
:10E700006FF00043C4E9462394F8D00004F580710B
:10E7100007F054FC48BB40F2C1113020FEF7ACF9C1
:10E7200020460DF095FADFF85C80DB30C4F8040178
:10E73000B8F8080048B1E08C38B101F03BFEB8F8F9
:10E740000830B0FBF3F202FB130005440DF012FF9A
:10E750002D1841F10001C4E94451002ECED07519A5
:10E7600041F10001C4E94651CEE7D4E94423002138
:10E77000C4E93A23C4E93C2320460DF062FB70E76C
:10E78000F1980100343D0020F0B5002385B0CDE9BB
:10E79000003301238DF806306846FEF7C1FD70B1E5
:10E7A0001B4E0123B3720027CDE9027702A8FEF7C2
:10E7B000B7FD0546A8B10023B37205B0F0BD0098BF
:10E7C0000BF04FF9E8E790F80B0208F0E9F994F83C
:10E7D0000B0284F8F45107F0D1FA202384F80B32AD
:10E7E000E2E7029B002BE1D093F80B22202ADDD038
:10E7F00018884FF6FF739842DDD02946FEF756FD84
:10E8000004460028DFD140F22B113020FEF734F906
:10E81000343D0020054B00220121DA7219709A72F2
:10E8200042F210721A81FFF7AFBF00BF343D0020E3
:10E83000014BD872704700BF343D002008B504F08A
:10E8400069FC044BDA6882422ABF987A002080F083
:10E85000010008BD343D00202DE9F7430446062998
:10E8600000F2C480DFE801F0047A67777E83BD00A0
:10E87000D0E98A23D0E98C0182428B4149D294F8B5
:10E880000A32002B45D094F8F431032B41D194F88F
:10E8900069900BF0FAFF064694F8B001FFF746FCCA
:10E8A000D4E98A23D4F83072D4F8C851804606449B
:10E8B0004846BF1A05F080F82D1A484605F084F83E
:10E8C00000F523404FF47A73A130B0FBF3F02B1A1C
:10E8D000A3F17402B6B25208D43B08F5C8689D3261
:10E8E00073431FFA88F8B3FBF8F360335908A2EBBF
:10E8F00053039F4202D30A44974201D90DF0D4FC3E
:10E90000A06931460DF0C8FC0023C4F8FC0184F86E
:10E910000A32384B9B7A03F0FF0263B9B4F8BC119A
:10E92000009201232046FFF70FFC38B140F2CA6184
:10E930003020FEF7A1F8042384F8F43104F0FEFD42
:10E9400007F0A8F8B4F88820A4F806220023A4F859
:10E95000423284F8093203B0BDE8F083032380F823
:10E96000F431F8E704F0F6FBC4E98C01F3E78569BC
:10E97000D0F8FC31DFF87C809D4288BFED1A98F812
:10E980000B3098BF00251BB9036B9D4228BF1D4665
:10E9900004F13000D4F8C8710CF05EFD0744022089
:10E9A00007F082FFED1B25EAE575854228BF054685
:10E9B0000221284607F0CCFF00B92F4440F2D312C1
:10E9C000394620460CF099FDD4F8C831C8F80C003F
:10E9D000A069184407F01AFF0028BCD140F2793131
:10E9E000A6E703B0BDE8F0430AF019BE40F2657136
:10E9F0009EE700BF343D00202DE9F84306460C4653
:10EA000015467ABB04F086FBD4E94489074684F8AE
:10EA1000D85084F8F8500121D4F8D40001F00CF952
:10EA2000D4F8D400C0E98A8994F8D03080F80B3249
:10EA3000C0E98E89C0F844720AF00CFF20B140F2A0
:10EA40000A713020FEF718F804F078FD07F022F87C
:10EA5000074994F8D000324605F0E6FE28B94FF495
:10EA6000EF61EEE740F28F71EBE7BDE8F88300BF9E
:10EA700047960100014B1881704700BF343D0020CC
:10EA8000F0B5070CA7F5AA42144B543A012A03EA41
:10EA900090231FD927F4004042F6AA22801A18BFFB
:10EAA00001200022162116461F2487EA060562EA85
:10EAB0000505013510D0DD03ADB245EA5606E50384
:10EAC000ADB2013945EA52024FEA53034FEA54040A
:10EAD000EBD1F0BD0020E4E70020FAE7E0FF3F00C3
:10EAE000304BF0B51A88B0F85C70B0F85A605D88A9
:10EAF000974228BF1746964228BF16461B2E85B060
:10EB00000C462ED0B5F5A47F2DD040F648039D428B
:10EB100001A928BF1D460BF006F9BDF80A309F4237
:10EB200028BF1F46BDF80C30E780AB4228BF2B46FC
:10EB30002381BDF806309E4228BF1E46BDF808302E
:10EB400066809D4228BF1D46A580FF232370E38871
:10EB50001B3B9BB2E02B08D940F2F7513920FDF75F
:10EB60008BFF1B2FCED105B0F0BD63881B3B9BB242
:10EB7000E02B02D940F2F951F0E72389A3F5A47301
:10EB80009BB2B3F5E06F02D940F2FB51E6E7A388F0
:10EB9000A3F5A4739BB2B3F5E06FE4D940F2FD5145
:10EBA000DCE700BF443D002010B501210020FEF746
:10EBB0007DFB044670B90121FEF73AFB044620B9FB
:10EBC00040F23D313920FDF757FF034B93F9041014
:10EBD0000DF002F8204610BD443D002008B50CF0B1
:10EBE00063F800F06BFE00F0F7FB0CF094FB01F013
:10EBF000D7F801F0F1FF01F0EBF8084B1B224FF4BE
:10EC0000A4711A805980064B06499A800022196027
:10EC1000DA825A821A835A7408BD00BF443D00202C
:10EC20006C41002003021B00044B41F64C52C3E927
:10EC300002221B221A74FFF7D1BF00BF6C410020D3
:10EC40002DE9FF41344DAB68044640F8303F0AF0EF
:10EC50003FFF064600F0B0FB2B7C84F838302F4B8A
:10EC6000668710F0200F1B681DBFAA886988A4F86A
:10EC70005A101B2208BFA4F85A20A4F85C201BB12C
:10EC800094F96C1020889847AE7CEF7CB5F814801E
:10EC900041F64C53A36116B900F094FB064677BBCE
:10ECA00000F090FB074666B358B303A920468DF8E1
:10ECB0000C608DF80D70ADF80E800CF0B2F8AB88DA
:10ECC0006A886978019103332978009103329BB2F5
:10ECD00092B204F1140104F11000FEF759FB23690C
:10ECE00013B940F2CE5114E0636913B940F2CF5129
:10ECF0000FE0002004B0BDE8F0810920FAE7002E03
:10ED0000D3D120880021FEF7E7FA0028F5D040F2A1
:10ED1000B9513920FDF7B0FE6C4100200C210020D4
:10ED2000F7B505460E460CF08EFF002873D0284636
:10ED30000DF06AF840B1B6F80130013B7F2B03D9E2
:10ED40001224204603B0F0BD28460DF061F808B942
:10ED50000C24F6E728460AF070FF0028F8D1284670
:10ED60000CF02BFF04460028F2D1284602F0F4FBF9
:10ED70000028E5D0B6F80170F17842F21073284609
:10ED80005F430DF02EF828460DF036F8014658B9CD
:10ED90003A462846FFF75AFC04460028D1D041F6EF
:10EDA00083113920FDF768FE21460DF10600FEF7BC
:10EDB00007FA064668B3214600F03EFFBDF806306C
:10EDC0003380284631460DF02DF828460DF026F800
:10EDD00098B928460DF024F801463046FFF730FF79
:10EDE00004460028ADD13A4631462846FFF72EFCAE
:10EDF000044620B141F6A611D3E70121EDE7074B08
:10EE00009B68002B9DD0024606F5957130469847C9
:10EE100097E70D2495E7422493E700BF443D002087
:10EE200008B500F087FF0AF03FFF014B187108BDDD
:10EE3000443D0020034B5A8802801B7883700020D9
:10EE4000704700BF6C41002037B583781A2B054608
:10EE500009D8042B05D9012202FA03F3134A1342FD
:10EE600005D112241AE0292B01D03B2BF9D1288897
:10EE7000B0F5706FF5D269460BF065FF88B9019B5C
:10EE800093F8282102F0FF046AB9AA7883F82921AF
:10EE9000FF2283F8282168460CF018FA204603B0B8
:10EEA00030BD0224FAE70C24F8E700BF2000380444
:10EEB0000188A1F11B039BB2E02B0CD84288A2F57C
:10EEC000A4739BB244F24810834204D8034B002041
:10EED00019805A8070471220704700BF443D0020BF
:10EEE000034B1A885B88028043800020704700BF74
:10EEF000443D002038B504784278857804F0010359
:10EF000052EA030104F0020401D1112038BDBCB95A
:10EF1000002DFAD0002B08BF144601E0002425463E
:10EF200020460AF0CBFE0028EFD028460AF0C6FEA5
:10EF30000028EAD0054B00209C74DD749882E5E738
:10EF4000002BEBD114461D46EAE700BF6C410020C0
:10EF500013B5008869460BF0F6FE18B1022420466E
:10EF600002B010BD019A92F8F431DBB292F8B020F1
:10EF7000002AF3D113F0FB0FF0D0019890F83A314A
:10EF80000BB13A24EBE790F8DC3003F0FF04002BE0
:10EF9000F7D190F8D3309B0706D1FF2380F83A31A0
:10EFA00068460CF093F9DAE70249D4300CF0DBF94B
:10EFB000D5E700BF91BA0100F0B50778EF2F85B013
:10EFC00004460D4603D91225284605B0F0BDB0F819
:10EFD0000130ADF80C309DF90C209DF80C30002A62
:10EFE000F1DB9DF80D209107EDD1DA063FD49E06A6
:10EFF00003F0030238D5002AE5D11807E3D463787B
:10F00000190711D42179E278E07942EA0122617985
:10F0100042EA0142A17941EA0021207A41EA004115
:10F020008A42D0D81F2ACED9627A013A062ACAD893
:10F03000A27A032AC7D813F0040102D1023A012AA6
:10F0400003D8E27A012ABED811B9A27C032ABAD821
:10F0500013F01001227D19D0012AB4D1227E012A99
:10F06000B1D8B1B91125AFE7032AC6D1ABE713F088
:10F07000600FA8D103F00F0203F00703052BBED0E9
:10F08000931E012BBBD9002A9DD1B8E7022AE5D1F6
:10F0900099E7DA071FD46378227D03F01801082965
:10F0A0001ED1022ADED11B0709D4E279A37943EAF3
:10F0B0000223227A43EA0243B3F5804FD2D8BFB28B
:10F0C00001213846FEF7F2F8064678B10AF0B5FDA0
:10F0D000B8B10C2578E700F031F90028DBD1C1E7A1
:10F0E000022AE0D0A27E002ADDD0BBE7012138460B
:10F0F000FEF79EF8064650B3164B93F904100CF039
:10F100006BFD30460CF075FE21462870E0743046E9
:10F110000CF0BAFD637E0546002B3FF455AF002886
:10F120007FF452AF316B02466846FEF7F5F9306B5B
:10F130002A4601210AF09FF9316B68460422FEF746
:10F14000EBF9306B2A4629460AF095F93CE707258A
:10F150003AE700BF443D002070B50579042D8AB020
:10F16000034658D84488B4F5804F54D82B48465DA0
:10F17000284400214279857AC07BADF8041042F022
:10F18000100242EA460242EA850242EAC00202F066
:10F190001F028DF80420BDF80420ADF80D201A8858
:10F1A0008DF80F208DF81240120A240A8DF81110E4
:10F1B0008DF814108DF810208DF813405A7B8DF8BF
:10F1C00015205A798DF816209A79D3F807008DF812
:10F1D0001720B3F80B209B7B8DF81E307F238DF812
:10F1E0001F3001238DF80C1006908DF82110ADF81A
:10F1F0001C208DF820308DF8223003A88DF82310C4
:10F200008DF824108DF825108DF8261001A9FFF730
:10F21000D3FE0AB070BD1220FBE700BFC44005005A
:10F220000278034672B1427862B142881A2A09D93B
:10F2300082881A2A06D9044A006810609B88938045
:10F2400000207047122070476C410020024B02687A
:10F250009A600020704700BF6C4100200378A3F142
:10F260000A02112A9DBF024A00201374122070471F
:10F270006C41002008B5052000F090F803F04CFB2D
:10F28000014B024A9A6008BD443D0020E1EA0000BB
:10F2900008B502F049F9FFF7BDFABDE8084001489A
:10F2A00002F02CB9503D002010B50B4C012384F81E
:10F2B000023102F041F90CF025FF0BF0F3FC04F2EF
:10F2C00003112046FEF72AFB00200AF073F8BDE880
:10F2D000104000F069BF00BF503D002010B5064C43
:10F2E000064904F502700BF095FA04F50370044921
:10F2F000BDE810400BF08EBA503D002010210020D8
:10F300001821002010B5094C094904F502700BF0D2
:10F3100081FA04F5037007490BF07CFA04F50470D8
:10F320000549BDE810400BF075BA00BF503D002004
:10F33000282100203021002020210020014B93F8BB
:10F3400002017047503D002010B5074C00F008FF47
:10F35000D4F808020BF056FAFFF766FC01F042F809
:10F36000012384F8143210BD503D0020014B93F866
:10F3700014027047503D002010B5074CD4F80C0221
:10F380000BF040FAD4F810020BF03CFAFFF726FC21
:10F39000002384F8143210BD503D0020C2080549F6
:10F3A000012300F0070003FA00F08B5C1843885437
:10F3B000704700BFD0200020014BD3E90001704707
:10F3C000D0200020034B1868C0F30020400040F01C
:10F3D00001007047D020002008B50CF067FF084AF4
:10F3E000002332F82310814205D302EB83039B787C
:10F3F000044A137008BD01330C2BF2D10023F7E748
:10F40000D8400500653F002010B544682388A4F863
:10F41000783194F8683084F87711012B06D0022BEC
:10F4200004D040F217310620FDF726FB84F87A312C
:10F4300094F86930012B01D0022BF2D184F87B3192
:10F44000044904F5B7700BF08EFF002384F83431C3
:10F4500010BD00BF8FA80100406808490388A0F8CC
:10F460006A3190F8603080F86C3190F8613080F843
:10F470006D3100F261100BF070BF00BFA5A8010054
:10F48000044B002283F822204FF6FF729A84DA841C
:10F490001A857047663F0020054B9A8C824201BF57
:10F4A000002283F822204FF6FF729A84704700BF33
:10F4B000663F0020014BD884704700BF663F0020A4
:10F4C000094A0346908C4FF6FF71884206D192F8A4
:10F4D0002210012905D01A60012070470020186011
:10F4E00070470020704700BF663F0020064B93F82E
:10F4F0002220012A1FBF0120DA8C83F822009A847F
:10F5000008BF0020704700BF663F0020014B1885F0
:10F51000704700BF663F0020064B0246198D988C4D
:10F52000884205D193F8220018B11360012070477A
:10F5300000207047663F0020094B998C1A8D91423C
:10F5400001D0002070474FF6FF729A8493F8222072
:10F55000002AF6D0002283F822200120704700BF45
:10F56000663F0020054B998C1A8D914203BF93F89A
:10F570002200B0FA80F0400901207047663F002069
:10F5800050B90A4A1346012003F8010B0868C2F873
:10F5900001008A889A807047012805D1034B0A68C8
:10F5A0009A608A88D8719A81704700BF903F002086
:10F5B00048B90A4B187880B1D3F80120B3F8053068
:10F5C0000A608B807047012806D1044BD87920B19E
:10F5D0009A680A609B89F4E700207047903F0020FA
:10F5E00020B9054B187800F00100704701280ABFC8
:10F5F000014B0020D879F6E7903F0020F7B50022B4
:10F600008B888DF80600ADF8043008680C4B8DF837
:10F610000720019D1C78014603F5AC73D0B28442EB
:10F6200001D8082009E0D3E90076AE4208BF8F4236
:10F6300003F1080302F10102F0D103B0F0BD00BFF5
:10F64000A03F002030B5094B01465C78002203F54D
:10F650008173D0B2844201D8082005E013F8015B21
:10F660008D4202F10102F4D130BD00BFA03F002065
:10F67000F8B52E4C6278013AD2B22318824293F840
:10F680000251627032D0130101019E1C8F1C26446E
:10F69000274406F1100C56F804EB47F804EB6645D6
:10F6A000F9D1823382312344214403F1100653F807
:10F6B000047B41F8047BB342F9D1A618211896F8CF
:10F6C000023181F802314FF48577062313FB027271
:10F6D00013FB0070A318A258225004EB000C9B8867
:10F6E000ACF8043096F83A3181F83A312846FFF701
:10F6F000A9FF082818D12378013BDBB29D42237073
:10F7000012D02B3304EBC30393E8030005F12B0263
:10F7100004EBC20282E803002078FFF793FF082879
:10F720001CBF241884F80251F8BD00BFA03F002080
:10F73000F0B5254D95F8984189B0224605F299110A
:10F74000684608F01FF8214668460BF0CCFA0446DC
:10F75000B8B300EB4001C9B202A8FDF725FB601E5B
:10F7600095F8A161C0B2012495F8982105E0731CB9
:10F77000B3FBF2F102FB1133DEB206F120030DEB15
:10F78000030111F8203C002BF1D100EB40022032A4
:10F790006A4406EB46032B4412F8187C83F8A271E6
:10F7A00012F8177C12F8162C83F8A37183F8A421A1
:10F7B00001F8204C0138AB19C0B2FF2883F89941F9
:10F7C000D2D109B0F0BD00BFA03F002070B5064601
:10F7D00088B00C46002A4FD02A4A92F8A131D0189E
:10F7E00090F8991121B94FF480712820FDF744F960
:10F7F00003EB43011144013391F8A251E57091F8F4
:10F80000A35191F8A41161710021257180F899111B
:10F8100092F89811B3FBF1F001FB103382F8A1319B
:10F8200092F8C23123B9184902F5DD700BF098FD4A
:10F83000657905F03F0545F0400565710D22002111
:10F84000684608F017F8E3788DF80F3023798DF8C3
:10F850000E3004AA0423694630468DF80D5007F097
:10F8600033FD9DF81F3023709DF81E3063709DF8A6
:10F870001D30A37008B070BD03216018FDF794FA25
:10F88000D6E700BFA03F002031F70000044B5A78B4
:10F89000824286BF1B1893F84A010020704700BFC0
:10F8A000A03F0020044B5A78824286BF1B1893F871
:10F8B00042010020704700BFA03F0020064B0022FD
:10F8C0004FF461711A8083F8C32183F8C421A3F82F
:10F8D000C61183F8C2217047A03F0020014B83F876
:10F8E000C4017047A03F00202DE9F04782468946B9
:10F8F00017469846FFF782FE08280546064603D0BD
:10F90000FFF7A0FE082863D1334C6378072B61D83A
:10F91000082D18D12678731C072E237003D96B216C
:10F920002820FDF7A9F806F12B03DAB2D9F8000078
:10F9300044F8320004EBC20104EBC303B9F804201D
:10F940008A8083F806A065786B1C290163704B1CC4
:10F9500007F11002234412F8010D03F8010FBA4217
:10F96000F9D1813108F11003214413F8012D01F878
:10F97000012F9845F9D1102140460BF0F1F92544AB
:10F98000102185F8420138460BF0EAF985F802614A
:10F99000667885F84A01002385F83A3131460F48E8
:10F9A0000BF0A1F9314605460D480BF09CF9012DED
:10F9B00003D8002818BF0135EDB284F8985100250E
:10F9C000284684F8A151FFF7B3FE2846BDE8F0872A
:10F9D0001220FBE70720F9E7A03F0020E2400020CB
:10F9E000EA40002010B5064B5878013840B2002894
:10F9F00000DA10BDC4B22046FFF73AFE601EF5E7FC
:10FA0000A03F0020014B83F8C3017047A03F0020B6
:10FA1000014B93F8C3017047A03F0020431E9BB2E7
:10FA20004AF2B71293429DBF024BA3F8C6010120D0
:10FA300000207047A03F0020014BB3F8C60170477B
:10FA4000A03F002030B50A4B5C7884420ED91844A0
:10FA500090F802012B3003EBC004A5790D7053F828
:10FA600030001060A3889380012030BD0020FCE7A7
:10FA7000A03F00200246074810B590F8C34124B1CA
:10FA8000417821B1023002F06DFF204610BD0C46D6
:10FA9000FBE700BFA03F00202DE9F74F2F4C9A460F
:10FAA000637883428046894656D9231893F8425199
:10FAB00085F00105F9B193F84A31E3B945F0020741
:10FAC0000135BAF1000F18D1FA070AD5062101FB5A
:10FAD000084104EB0810524601F585718230FFF7AA
:10FAE00075FEBB0734D504EB081052464946023078
:10FAF000FFF76CFE2CE02F46E3E794F8A1614FF08E
:10FB0000010B002DE0D0A319019393F8991199B935
:10FB10000092DAB100F036FC06EB46012144019B6D
:10FB200081F8A2014FEA102C009A81F8A3C1000CC1
:10FB300081F8A40183F899B194F898310136B6FBA5
:10FB4000F3F103FB1166F6B2013DDAE747F0040773
:10FB5000384603B0BDE8F08F0027F9E7A03F00204A
:10FB6000074B5A78824209D91A1892F842212AB9C9
:10FB7000062202FB003000F58570704700207047B8
:10FB8000A03F0020064B5A78824281BF1B1893F891
:10FB90003A01B0FA80F0400998BF0020704700BFDA
:10FBA000A03F0020F8B50E46074606213046154610
:10FBB0000BF0D6F8044640B10A482946427800F5D1
:10FBC0009D7007F057FE2046F8BD314638460BF0D1
:10FBD000A6F808281FBF034BC018012480F83A512B
:10FBE000F1E700BFA03F002030B50024A0F842405C
:10FBF000B0F8464042F210754C43B4FBF2F4A0F862
:10FC00004640541E05FB0343B3FBF2F3A0F8443017
:10FC1000084BB3FBF2F30133A0F84A30838F05FBA6
:10FC20000344436BB4FBF2F459438463B1FBF2F237
:10FC3000426330BD005A620270B504460D4649BBAE
:10FC40004FF4207207F016FE012384F896306FF00F
:10FC5000360384F8E330042384F8E4306FF03B0388
:10FC600084F8E5306F2384F8E6306FF03F0384F8C2
:10FC7000E7302B2384F8E230FE2384F81E317F2303
:10FC800084F88D30202384F8E85084F8E95084F813
:10FC90000B3270BD012922D10023A0F8CC3180F8AD
:10FCA000C331154B82691344B3FBF2F3C0F8B8308B
:10FCB00040F6B833A0F8BC301146438C8030FFF7D3
:10FCC00093FF07F019FC30B1E069FEF7D9FE10B9D7
:10FCD00084F8AF51DDE7002384F8AF31D9E702297A
:10FCE000D7D1B0F86232D0F85C228169BDE87040AB
:10FCF0008030FFF779BF00BF7FC3C901034B80F895
:10FD00006C101B680BB10088184770473821002021
:10FD1000074B93F900301844142804DC10F17F0FCE
:10FD200003DB40B27047142070476FF07E007047CD
:10FD300068410020084B1B785B4240FA83F014288E
:10FD400004DC10F17F0F03DB40B2704714207047D2
:10FD50006FF07E00704700BF6841002007B57F2329
:10FD60000DF107008DF8073003F0B4FC9DF9073062
:10FD700068B10A4A5078404243FA80F0142808DCFF
:10FD800010F17F0F07DB40B203B05DF804FB1846AB
:10FD9000FAE71420F8E76FF07E00F5E768410020ED
:10FDA000024B00221A705A70704700BF6841002051
:10FDB000054BFF221A70054A016811600179117123
:10FDC00000221A70704700BF6A410020D82000202E
:10FDD00007B5064B186800901B798DF8043068460B
:10FDE000FFF7E6FF03B05DF804FB00BF6A0D0600F5
:10FDF0000346407848B1DB783A2B05D8034AD35CF8
:10FE00001B1A5842584170470120704708410500AD
:10FE10003A2908B5C17003D8064B5B5C437008BD36
:10FE2000FF2904D04FF489612A20FCF725FE012325
:10FE3000F4E700BF084105002DE9F04385B089468D
:10FE400002A9144698460AF07EFF0546002839D1DB
:10FE5000039E34B9012486F89540204605B0BDE8DC
:10FE6000F08337692146384609F0DEF8014658B379
:10FE7000174B5B88A34229D301AA384609F017FA29
:10FE800096F895300198002B0CBF494602210BF0E3
:10FE900047F9019822464146033007F073FC21469A
:10FEA000384609F006F9044618B97A212B20FCF7E8
:10FEB000E3FD02A80BF00AFA039BA3F8BA5186F8F7
:10FEC0009550CAE70124C8E70446C6E72C46C4E7B4
:10FED0006C410020024B987DC04300F00100704748
:10FEE0006C410020034B987D80F00200C0F340007D
:10FEF000704700BF6C41002083230B70014B1B78BF
:10FF0000CB707047884100207FB505460C4621B96B
:10FF10004FF48B711020FCF7AFFD03888B8000231A
:10FF20004B724669304609F0B4F9014610B940F207
:10FF30001F11EFE701AA304609F0B9F9E08010B9C6
:10FF40004FF49271E6E7FB2802D94FF49371E1E791
:10FF500001980BF0EDF8012801D0022805D120729C
:10FF6000206828B940F23D11D4E74FF49B71D1E7E6
:10FF70000199E288033107F005FC304609F09FF94A
:10FF800010B94FF4A171C5E70021304609F0F5F82A
:10FF900010B940F24711BDE70A4BDA7D82B11A8BE6
:10FFA0002888013A02A91A830AF0CDFE10B14FF455
:10FFB000A871AFE7039AB2F8A6300133A2F8A630D1
:10FFC00004B070BD6C4100202DE9F74306460D4694
:10FFD0004FF0050800274FF003092B693BB11B7A4E
:10FFE0002BB12C699CB9002003B0BDE8F0836C688C
:10FFF000237A012BF7D0EFF3108372B66A68126888
:020000040001F9
:100000006A6003B962B6237A002BE6D02C61237AAA
:10001000DBB284F80880013B0B2B66D8DFE803F0E5
:10002000620620345F653D6565656552636823B986
:100030004FF4EE711020FCF71FFD20463146984723
:100040000420EFF3108372B6227A052AD1B201D0D0
:10005000002953D127722F61002B4BD162B649E0A2
:10006000636813B940F2E511E4E73146204698474A
:100070000346C3F30723012BADF80400C0B237D009
:10008000022BDED12F6135E0636813B940F2EF1126
:10009000D0E7204698470020D3E763680BB9DB21FF
:1000A000C8E70B2232701988A6F803100122002439
:1000B0001869B2707271B471214609F05EF82C6152
:1000C000042091E7606810B940F21A21B2E70E4BA4
:1000D00031461B68984700232B61022084E740F2D9
:1000E0002321A7E740F22621A4E740F22921A1E736
:1000F00084F8089000283FF470AF75E7002B7FF478
:100100006CAF62B669E700BF3C21002070B5134CAC
:100110001426231D32460021184607F0ABFB034688
:100120000125257400210433324604F11800C4E986
:10013000013307F09FFB84F8245004F11C03C4E949
:1001400006330023E362236384F83430C4F8353087
:10015000C4F8393084F83D3070BD00BF88410020BC
:1001600010B5084C2378FF2B04D04FF4B771102042
:10017000FCF782FC07F0F0F82070BDE81040FFF7B4
:10018000C5BF00BFDD20002010B5034C207807F06C
:10019000FFF8FF23237010BDDD200020014B1878ED
:1001A00007F006B9DD200020014B024A1A607047B3
:1001B0003C21002009FF000038B50B4D05F1180166
:1001C0000446FFF701FF70B9AB681B7A0C2B04D112
:1001D000064BDA7D0AB11B8B2BB120460449BDE8E2
:1001E0003840FFF7F1BE38BD884100206C41002047
:1001F0008C41002010B51346027A22B140F2C92189
:100200001020FCF739FC0A46BDE8104001460148C1
:100210000BF083B88C410020044890F834301BB9AF
:1002200003492C300BF096B8704700BF884100207E
:100230000DB301000346064890F83E203AB190F80D
:100240003D2022B900F8353B02490BF083B87047D6
:1002500088410020F9FE000010B50A46037A23B158
:1002600040F2D1211020FCF707FC0146BDE8104008
:10027000014807230BF051B8A04100201346027A31
:100280000AB1037270470A46014601480BF045B8AF
:100290008C4100201B234FF01B1283840384826156
:1002A0008382C260038539B94FF4A473034AC384BF
:1002B0004384C261C3820261704700BF48014801A4
:1002C0000346F0B4B3F85420B3F84840B3F84460A0
:1002D000DF8FB3F84250944228BF14460846B3F863
:1002E0004C20B3F85610DC878A4228BF0A46B3F880
:1002F0004610A3F84220914238BF1146A64238BFAB
:100300002646A742A3F84460A3F846101FD1AA1AB4
:1003100018BF0122B3F84A50B3F85040B3F85270F6
:100320009E8FB3F84010A54228BF2546B3F84E4033
:100330009D87BC4228BF3C46AE42A3F8404002D154
:10034000A14200D12AB1F0BC03490BF00CB8012244
:10035000E0E7F0BC704700BF6DB301000B8BA2F863
:100360000B304B8BA2F80D308B8BA2F80F30CB8B60
:10037000A2F809000249A2F8113010460AF0EDBFB8
:10038000BDB30100094AD2E90003434083EAB0113A
:1003900081EA43214FEAF3435360054B1160584310
:1003A0004FEAF06000EB8000704700BFC8410020BA
:1003B000BB79379E094AD2E90003434083EAB01172
:1003C00081EA43214FEAF3435360054B11605843E0
:1003D0004FEAF06000EB8000704700BFE020002093
:1003E000BB79379E10B50A4C09480821FCF7DCFCA4
:1003F000D4E900231343F7D0064CFFF7DBFF20605E
:10040000FFF7D8FF236860600343F6D010BD00BF3C
:10041000E0200020C8410020174B184A9A60184A73
:100420005A60184A1A60184A9A62184ADA62184AD8
:10043000DA60184A9A61184A1A63184A1A62184A06
:10044000DA64184A9A64184A5A62184B184A9A6031
:10045000184A5A62184ADA62184A1A61184A5A61E6
:10046000184A9A61184A1A63184A9A64184ADA6450
:10047000184A9A63704700BF4021002085B60100EA
:10048000BBB6010033B70100BDB8010011B90100CE
:10049000DD07010027B901004D0A0100C108010074
:1004A00007BA010023BA0100190901002C2200201B
:1004B000A7B60100C7B9010049B90100EDB80100B4
:1004C0006DB9010061080100AFBA01005BBA01001B
:1004D00049BA0100ADB90100044B054A5A65054B04
:1004E000054A1A65054A5A65704700BF4021002039
:1004F000F3B701002C220020D9B7010065B8010034
:10050000054B064A9A65064A1A66064B064A9A65DC
:10051000064ADA65704700BF40210020EFA90100BC
:1005200085AA01002C22002029A9010069AC010044
:10053000252A70B505460C4618D8012A19D9023A61
:10054000232A16D8DFE802F01A152524243315359E
:10055000152439444815154D242467676D74151505
:10056000151515151515151515808990FF2A00F01C
:10057000828040F2FE315120FCF77EFA0278436817
:10058000012A02D193F8203101E093F82931237137
:1005900070BD4168204601F5EB710AF033FE6968D1
:1005A000204601F58A71BDE870400AF02DBE43680F
:1005B000E8E7BDE8704000F011BA0E230B71592333
:1005C0004B7100238B716B23CB7110230B72DFE710
:1005D000436893F81A31DAE7BDE87040084600F046
:1005E000EBB90378466873B996F820315BB196F899
:1005F0001D1120460AF058FE96F81C112046BDE851
:1006000070400AF055BE96F81B1120460AF04CFEC9
:1006100096F81A11F2E741682046BDE870400AF0EA
:10062000E6BF436893F83621227193F8373109E029
:10063000436893F83421012AF4D093F864200A71B6
:1006400093F865306371A3E7104B1B68002B9FD0B4
:1006500002462320BDE8704018470C4B1B68002B56
:1006600096D002462420F5E7084B1B68002B8FD05C
:1006700002462520EEE74368204693F84F22D3F840
:100680005012BDE870400AF057BD00BF182300208B
:100690003A289ABF024B53F820000020704700BF51
:1006A000402100203A289ABF024B53F82000002036
:1006B000704700BF2C220020F7B545682E6904461C
:1006C0004FF6FF770DF102010DF101023046ADF852
:1006D000027008F00AFD01A9304608F029FD40B17A
:1006E000019808F0EAFD616800220272FFF7B4FD8C
:1006F000E8E7044905F1A80003B0BDE8F0400AF0BE
:100700002CBE00BF1FB60100F0B5044685B00D46F3
:10071000FF2600F8856C10F8863CF3B1174F3B7844
:100720001BB148211F20FCF7A7F90C21381DFCF74D
:100730003BFB3E70002304F8853C2A46072302F861
:10074000033BD4F80930C5F80330D4F80D305360BA
:10075000D4F81130936005B0F0BD01A80C21FCF76E
:1007600023FBA4F5A873039A1A6001AB03CB44F8EA
:100770008E0C44F88A1C04F8866CDBE7D04100201C
:1007800010B5054C23782BB90C21201DFCF70CFB70
:10079000FF23237010BD00BFD0410020024690F817
:1007A000DE31BBB990F8DF3103F0FF010BB100205F
:1007B0007047094B18780028F9D01970D968C2F829
:1007C0001411043303CBC2F8D601C2F8DA11FF23A7
:1007D00082F8DE3101207047D041002038B54268F0
:1007E00092F88F3004460D463BB1132B05D0113BD8
:1007F0000B2B94BF0820012038BD92F8D23013B9DA
:1008000020460AF0B2FE6168284601F5E7710AF059
:10081000EEFC6168284601F588710AF0EFFC61681A
:100820000B88A1F86D32284601F26F210AF0D7FC3F
:100830006168284601F277210AF0D6FC636800253A
:1008400083F8DE516068054900F519700AF082FDF1
:100850006368152283F88F202846CDE70907010039
:1008600038B5436893F88F201C2A044604D040F220
:10087000BB111F20FCF700F993F8D2101D8800224D
:1008800083F8D12003F5D17069B10B4983F8D220E8
:10089000A3F8AC5183F8AB210AF05CFD6368002239
:1008A00083F88F2038BD012283F8AB11A3F8AC5137
:1008B000024983F8AE21EFE7A9B801009BB8010017
:1008C000436830B5D3F8804014F001001FD14D6863
:1008D000104A8968A3F8CE002A40C3F8E220C2F388
:1008E000076242F0080221F41E5121F0100183F842
:1008F000E52093F8D0200904090C013244F00104EA
:10090000C3F8E61083F8D020C3F8804030BD012042
:10091000FCE700BF2FC904F710B5406890F88E308F
:10092000042B2FD14C688A68184B22F41E522340A6
:10093000C0F8E23022F01002C3F3076343F008036B
:100940001204120C80F8E5300023C0F8E62080F88D
:10095000CC3080F88E3090F8842102F0FF049AB9F0
:100960000388A0F8863180F885414B68C0F888314B
:100970008B68C0F88C31064900F5BE700AF0EAFCBD
:10098000204610BD0124FBE71C46F9E72FC904F7F8
:100990008BB90100406890F8843153B90388A0F8FE
:1009A00086311A2380F88531024900F5BE700AF0BD
:1009B000D1BC70478BB9010010B50446FEF7FCFCB2
:1009C00021F41E51044B21F0100109040340090CCD
:1009D0006360A16010BD00BF2FC904F737B50C4696
:1009E0004568FEF7E9FC0A4B95F8E22021F41E5118
:1009F00021F01001034009040093090C13408DF805
:100A0000003001916B4603CB6060A16003B030BD44
:100A10002FC904F7DB0410B5144604D5037D13B1C8
:100A20000023436310BD436B013343630BF022F893
:100A3000D0E90D239A42F5D30023436302492046AF
:100A4000BDE810400AF08FBCF9B9010038B5446820
:100A500094F88E30012B0D4603D0D4F880309807DF
:100A600045D494F8D330990719D428460AF0CFFB1F
:100A700084F8DD00B5F80530A4F8DE30B5F80730AD
:100A8000A4F8E03094F8D33043F0020284F8D32085
:100A9000DA0711D5174904F1D4000AF064FC94F880
:100AA000D330DB0718D4D4F8803013F0020208D01A
:100AB00055214020FBF7E0FF94F83A31002BE9D1B3
:100AC000EDE743F00203C4F8803094F8D030A4F886
:100AD000CE20013384F8D03094F88E30012B4FF0C3
:100AE000000003D184F88E0084F8CC0038BD0120CA
:100AF000FCE700BF91BA010070B545680446FFF7F6
:100B00002DF9054B85F88D001B6801461BB1204669
:100B1000BDE87040184770BD20230020024B1B68C1
:100B200003B11847704700BF1C230020F0B5204ECA
:100B3000054630780024147080B1431E7768DBB21C
:100B4000181B01280BDC07EBC40057F83460406821
:100B5000884208BFAE4212D114700120F0BD1819AE
:100B6000461007EBC60E57F836C0DEF80460AC45F9
:100B7000C0F347008E412CBF03460446E0E7B54270
:100B800071EB000002D214700020E7E707EBC3000E
:100B900057F833404068884208BFAC4201D1137017
:100BA000DBE7A542814128BF01331370ECE700BFAA
:100BB000F041002010F0070208B503D0632148205F
:100BC000FBF75AFF18B1034B197258601A70C8002E
:100BD00008BD00BFF0410020014B00221A70704791
:100BE000F0410020014B187A704700BFF04100200F
:100BF0002DE9D3430AF086FF0DF1070207460E46A2
:100C0000FFF794FF98B9114C2278237A93420ED0C3
:100C1000616813466FF0604E9DF80700984209D353
:100C200001EBC003C3E9007601322270012002B05B
:100C3000BDE8D08303EB0E0001EBC000D0E90089D2
:100C4000013BC0E90289DBB2E6E700BFF0410020CA
:100C500037B50AF057FF0DF10702FFF767FF0446AB
:100C6000A0B10C4A9DF8070013785568013BDBB230
:100C700013701A1AD2B2411CD200834238BF00222C
:100C800005EBC10105EBC00006F036FD204603B0C0
:100C900030BD00BFF04100200A46822302F8033B2A
:100CA00004480368C1F80330436853608368936065
:100CB000704700BFF941002002481622002106F0CB
:100CC000D9BD00BFF941002082B002AB03E90300A7
:100CD0000B48437D93B1530610D50A880280D1F8A2
:100CE0003022B1F888304260D1F834220549826060
:100CF000438002220C3002B0FFF7C0BA02B0704746
:100D0000F9410020990C010038B5074D044600F167
:100D1000510128680AF07AF994F850102868BDE863
:100D200038400AF081B900BF10420020F8B50446EF
:100D30000E466588407F15F00401134618BF04F184
:100D40005F013246FEF7A8FEC20705460BD5012318
:100D500084F85030607FFEF703FF0368C4F8513019
:100D60008388A4F85530AB070CD5094E01273068AD
:100D700084F85E7004F15F010AF04FF9306839467B
:100D80000AF05BF985F00400C0F38000F8BD00BFF5
:100D90001042002038B5C38D0E4D0133C385AB7CA6
:100DA00004462BB102F088FC01F00EFE0023AB7468
:100DB00000232B7194F879302BB101212046BDE836
:100DC000384008F0FBBE637C13B1E28D9A42F4D246
:100DD0000021F3E71042002010B5094C2379012BC4
:100DE00002D02379022B05D1A37C1BB102F064FC55
:100DF00001F0EAFDE069BDE81040FFF7CBBF00BF9E
:100E00001042002070B5294C2379012B07D023799B
:100E1000022B04D040F63C412D20FBF72DFEA0B95B
:100E20000125A37C1BB102F047FC01F0CDFD002D94
:100E30003AD0E06908F03AFE002830D002F02CFBEE
:100E4000236ABDE870409B6818472168E26911F881
:100E5000095B02F15103E80992F8502009F025FFDF
:100E60000028DDD0206800210AF00CF90028D7D036
:100E70002379E069012B05D02379022B02D040F6BB
:100E80001541C9E72379226A03F180435269013B86
:100E900005F00F0152F8233098470546C1E7E06995
:100EA000BDE87040FFF776BF70BD00BF1042002064
:100EB000074A0346D06903B909B9FFF76BBF137935
:100EC000126A03F180431269033B52F8233018473A
:100ED000104200202DE9F043032985B005469046D5
:100EE0007BD090F878300529DBB202D14288D60752
:100EF00060D5002B5ED10127DFF8E89099F81260E9
:100F0000B6B109F016FF082888F8000014D002AA2C
:100F10000DF10701FEF796FD20B940F685612D2001
:100F2000FBF7AAFD9DF8070002A90AF0F7FD0646A7
:100F300098F80030082B08D1D9F8001011F8030BED
:100F4000C0F380100AF0EAFD0646D9F8001095F8C3
:100F5000572011F8030B05F15803C0F3801009F076
:100F6000A4FED9F80010044611F8030BC0F380105A
:100F700009F0D5FE8146FEF705FE014640B1B9F104
:100F8000080F1BD04846FEF781FC80F00101C9B272
:100F900098F80000082815D094B96B7F1C1A60429D
:100FA00060416B885A0706D421B996B9EB7C93B19E
:100FB000BB4210D0002005B0BDE8F0830021E7E778
:100FC0000120EEE714B181F00104E4B204F0010065
:100FD000E7E73046EFE70120EDE743889B07E9D5D7
:100FE000022789E7104200202DE9F04F85B0082341
:100FF0000DF10702052104468DF80730FFF76AFF5F
:10100000064620B90026304605B0BDE8F08F7A4F7D
:101010003968FA7C11F8030B07F11403C0F3801050
:1010200009F043FE80460028ECD13B68216A18464F
:1010300091F8962010F8035B02EA551202F00102C3
:1010400081F89620D3F80320C1F803208288A1F804
:1010500007201946226A11F81F0BC0F38010907008
:1010600009798DF80C10D3F80F10D3F81F00D16157
:10107000597D0290187D090441EA0021D87C014382
:101080005162B3F8191040F2E24909FB01F1916194
:101090009D7DC5EB451105EB810505EB85056D00D3
:1010A0009585B3F8171009FB01F19162B3F81B1095
:1010B0001184B3F81D10518493F8243003F01F01FC
:1010C0005B0982F8A21082F8B031256A94F912B057
:1010D00002A905F1960009F0F1FE40F20113A5F80E
:1010E00068304FF0FF0A85F86AA0414605F13000EC
:1010F000FFF7D0F859462846FEF700FE236A84F829
:1011000083801A88A4F8842084F8A1A04FF6FF7287
:10111000A4F8A2209A69B2FBF9F2A4F89A201A8CDA
:10112000A4F89C205A8CA4F89E2093F8B02184F84F
:10113000A020227F9DF8070004F18E015AB394F895
:101140005020012A27D194F8562002F0C002402AEC
:1011500021D1D4F85120C4F88E20B4F855208A80CB
:101160009A7884F88720082803F1030504F188029F
:10117000D3F8033004F1940134D0C4F89430AB8830
:101180008B8004F18701FEF75DFC40B940F69B318E
:101190002D20FBF771FC0022C4F88E20DFE794F8C5
:1011A000873043F0020384F88730144904F17A0051
:1011B0000AF0D0F8236A12491A88A4F8BB2093F8E1
:1011C000963084F8BD3004F1B2000AF0C3F80D4B3C
:1011D000206A1B6800223A71002B3FF414AF2146AD
:1011E000984710E7C4F88830AB8893800023C4F890
:1011F00094308B80D9E700BF104200205FBB010014
:1012000031BB010028230020032973B5044604D014
:10121000052952D0012002B070BD08230DF107024C
:101220008DF80730FFF756FE0028F3D0237C284DB9
:1012300003B39DF8070094F8C630DBB9237884F82F
:10124000C730082804F1C90228D004F1C801FEF70C
:10125000F9FB20B940F6FB612D20FBF70DFC94F85B
:10126000C83043F0020384F8C8301A4904F1BE00C4
:101270000AF070F82B68062204265A701E70204669
:10128000FFF742FD94F84020E16B286809F0EBFE7F
:1012900028682E7102F0A0F90020BCE728680346F8
:1012A00013F8031BC1F3801184F8C810D0F80310A1
:1012B000C4F8C9109B889380D7E7074B1B6823B1FC
:1012C000984780F00100C0B2A5E71846A3E700BF29
:1012D0001042002047BB010024230020F8B504463B
:1012E0000F4619B300F1280528460AF024FEA0B9DC
:1012F00063881A072ED528460AF034FE064628468B
:101300000AF019FE301AC0B20AF03CFE444A936853
:101310000344284693600AF0EAFD28460AF0ECFDF3
:1013200002F04EF82179252001F044FF3C4D94F85D
:101330005E2028680023037043706388103B0D2BE8
:101340005ED8DFE803F0595D550C5D405D5D5D5D85
:101350005D5D5D402046BDE8F840FFF71BBD0623FC
:101360004370202303702046FFF7CEFC638823F0F0
:1013700008039BB2152B05D094F83820616B2868C0
:1013800009F062FE286802F027F9032321792B7106
:10139000002002F01BF8064607B9E86063881B07C7
:1013A00004D50AF0ECFD0644C4F8E0606388103B05
:1013B0000D2B30D8DFE803F0322F29292F292F2FCA
:1013C0002F2F2F2F2F290C2343702123037042B17D
:1013D00004F15F0109F021FE0121286809F02DFECA
:1013E000C1E704F1580109F018FE94F85710F4E72A
:1013F000062303704370B6E7022303700623F9E760
:1014000040F226612D20FBF737FB21790120BDE852
:10141000F84002F06BB940F6AA41F3E7F8BD00BF0F
:101420001042002038B54388102B044604D1BDE893
:1014300038400121FFF752BF0B4DAB7C23B101F0C7
:10144000A9FA402002F02CF9286802F0C5F860885B
:1014500010F0040002D1217902F048F9002002F0D6
:10146000FBF801232B7138BD10420020024B0121F3
:10147000D869FFF733BF00BF1042002010B5134CEE
:10148000A37C1BB102F018F901F09EFAE06908F0A4
:101490000DFB70B12379E069012B0FD12379226A0A
:1014A00003F18043D268013BBDE8104052F823307D
:1014B0001847E069BDE81040FFF76CBC2379022BA8
:1014C000ECD040F643312D20FBF7D6FA1042002035
:1014D00010B50948037903F0FF0453B918222146D7
:1014E000043006F0C7F902F0E7F801F06DFA204683
:1014F00010BD0C24FBE700BF1042002010B5094CC2
:10150000002323712060FFF7E3FF20B140F2F621B2
:101510002D20FBF7B1FA236A13B940F2F921F7E75E
:1015200010BD00BF10420020014B024A1A627047F2
:101530001042002018180100034B044A1A60044BA3
:10154000044A1A60704700BF24230020E90F0100FD
:1015500028230020F9E900002DE9F041067DB31EA3
:10156000DBB2012B04468CBF4FF000084FF001089E
:101570007EB3B71E18BF0127012B36D800F15801E2
:1015800090F8570009F0CBFB082805462DD0FEF750
:1015900089F958BB657784F81C8084F85070FEF791
:1015A0004BFA05460AF0E6FF174BA5FB03351B185F
:1015B00045EB01050022C4E9123584F85E2011468E
:1015C0002046FFF7B3FB70B940F293412D20FBF7A3
:1015D00053FA3746082504F151010020FDF7E8FFD2
:1015E0000028D7D10020BDE8F0810825022EF2D0D6
:1015F000E37E002BF6D0D4F81530C4F85130B4F89F
:101600001930A4F85530C5E740420F00F0B5464EFA
:10161000327985B0044602F0FF0312B90278FF2A3E
:1016200004D140F6A9112D20FBF726FA3382B360CE
:101630007371B37180F879303C4B00933C4B01934C
:101640003C4B0293336A68465B68039301F0BCFF2E
:1016500001F0EEFD02F030F801F0B6F9364801F085
:1016600089FE04F12805354801F0A8FF28460AF054
:101670003EFC28460AF040FC01F0A2FE217925201C
:1016800001F098FD94F9120001F06EFE04F13401AE
:10169000206B07F00DFF04F13C010746206B07F0BB
:1016A0002EFF054617B194F82430C3B90DB194F854
:1016B0002550237F13B963885B0709D5D4E912123B
:1016C0006FF000439A4208BFB1F1FF3F09D185B9DD
:1016D00030680330FEF7CEF9B07405B0F0BD0125D7
:1016E000E7E70AF047FFD4E91223904271EB0303C6
:1016F000EDD3012205EA02012046FFF717FB68B18E
:10170000FEF79AF905460AF035FF0D4BA5FB0335A8
:101710001B1845EB0105C4E91235D9E7002DD7D0D8
:1017200040F6DE117FE700BF104200207D1401006B
:10173000050E0100B10E0100D6BE898E555555002B
:1017400040420F00F7B50446FFF760FF0021204636
:10175000FFF7C4FD04F1680009F09DFA236F0BB197
:1017600001221A606388DB0721D50023114E256A08
:10177000CDE90033FF23F37405F10A076846FBF750
:10178000CFFDA0B9009CA542F8D06A7A607A3B46AA
:1017900004F10A0109F089FA0028EFD0A378F37464
:1017A000D4F803007061044BB4F807209A8003B0AA
:1017B000F0BD00BF1042002024420020024BD8613F
:1017C0001B6A1B68184700BF1042002043881B0794
:1017D00010B5044611D5036A0A493C2280F88320DB
:1017E0001B88A0F88430FF2380F8A1304FF6FF73E8
:1017F000A0F8A2307A3009F0ADFDFF2384F87930EB
:1018000010BD00BF5FBB01000912010025140100DB
:10181000B7BB0100B1BB010045170100D90D0100A4
:101820006D140100141801000C18010008180100C3
:101830000138022808B503D9C3212F20FBF71CF972
:1018400013290A4B05D811290CD8102907D0D1210A
:10185000F3E71529FBD103EB4003D88801E033F807
:10186000100008BD03EB40039889FAE744410500E6
:10187000F8B52F4B1A88402842EA00021A8005D199
:1018800004219868BDE8F840FCF7E6BF802801D144
:101890000521F6E700F00302032A04D140F6CA113D
:1018A0003120FBF7E9F810F0020418BFD960C50732
:1018B00005D5CA781961062A0DD00B2A18D02CB18B
:1018C000DA68D278052A1FD00B2A2AD0820644BFB4
:1018D00008221A75F8BD9A6892F88F101829EED16F
:1018E000002600270121C2E93C6782F89310E6E751
:1018F0009A6892F88F10122901BF002182F8931084
:10190000012182F8D210DAE79A6892F88F1016292E
:10191000DCD100240025C2E93E45012182F8941063
:10192000D4E79A6892F88F101129CFD10021F5E7FA
:101930003442002013B5044601A8FDF7C1FD20B9CB
:1019400040F2CA713120FBF797F82222002101985A
:1019500005F090FF0198032109F0E2FB019803785C
:1019600023F0100303702146FEF752FA019906484E
:101970002246FEF7DDFDFDF7B9FD10B940F2D47146
:10198000E0E702B010BD00BF3842002070B5274C20
:10199000A36893F8566293F85752002E3FD193F8FC
:1019A0006810002D3DD193F8692083F8681083F802
:1019B0006920FF2283F86A201D4B1B680BB1A068C9
:1019C0009847A36893F83431012B02D056EA0503F7
:1019D00003D018480021FDF717FDA068303009F04A
:1019E0003BFD0546A06800F24511FEF769FCA068C2
:1019F0000621FCF731FFA068303009F02DFD85424B
:101A0000044610D202F030FF0146601B322838BF76
:101A1000322004F09DFFB0FA80F0400970BD3146DD
:101A2000BFE72A46C1E70120F8E700BF34420020A3
:101A30003023002038420020002908BF1F2117282A
:101A400010B503460BD80D280DD90E3809280AD831
:101A5000DFE800F00B0909090B090B09110BA0F1D4
:101A60002303022B23D9002010BDBDE81040002124
:101A700018460AF08BBA114CA36893F88E20212ADD
:101A800009D1201DFDF7C0FCA368002283F88E2039
:101A900083F8CC20E7E72E2AE5D193F88F30A3F125
:101AA0002002062AF0D92E2BEED02A21E9E7044B9A
:101AB0001B68002BD7D0BDE81040184734420020E7
:101AC0002C230020114B09790246986890F88E303B
:101AD000212B11D02E2B0FD0282B0FD0042B0FD061
:101AE0000F2B0FD01D2B0FD090F88F30232B14BF4E
:101AF000FE201720FFF7A0BF1620FBE72320F9E701
:101B00000E20F7E71220F5E71420F3E73442002017
:101B100008B50C4B9B6893F81E21FE2A04D040F2B6
:101B2000D9713120FAF7A8FF83F81E0111B9A3F883
:101B3000CE1008BD0022A3F8C820012283F8CC20D3
:101B4000F7E700BF344200200C4A117D91B938B943
:101B50009068B0F85810828F91420BD8FCF76EBE97
:101B600013881B0708D5936893F89000073818BFAF
:101B70000120704700207047012070473442002048
:101B80004368D3F8803013F0300F2DE9F743044653
:101B90000D4656D1084609F054FB30B92946204677
:101BA00003B0BDE8F04309F00EBD2846666809F0B1
:101BB00044FB0746284609F03CFB8046284609F0CE
:101BC0003EFB8146284609F036FB303600904B46F6
:101BD00042463946304609F051FC1B4B1A889207A1
:101BE00011D5DA68D278142A0DD16268D2F8803023
:101BF00043F01003C2F88030204609F0B6FC002004
:101C000003B0BDE8F083626892F88E101D29ECD015
:101C100092F82B21002AE8D1626892F82A21002A42
:101C2000E3D16168D1F8802042F02002C1F8802021
:101C30009A68114602F5A77231F8300BFEF78EFB59
:101C4000DAE70120DCE700BF3442002010B5164B74
:101C5000DB681979436893F88E20092A09D193F833
:101C600019218A4205D1002283F88E2083F8CC20E6
:101C700010BDD3F8802012F0080407D022F008022B
:101C8000BDE81040C3F8802009F079BCFF2905D1D8
:101C9000332283F88E2083F84C42E9E740F2DE419C
:101CA0003120FAF7E9FE00BF3442002010B50B796D
:101CB0004268172B92F88E2004460CD80D2B0CD9B5
:101CC000A3F10E01092908D8DFE801F00907070789
