:10000000C09D0020114D0000E3000100FD4C0000E8
:10001000FD4C0000FD4C0000FD4C00000000000005
:100020000000000000000000000000008D4E0000F5
:10003000FD4C000000000000294E0000FD4C0000B7
:10004000515000005150000051500000515000002C
:10005000515000005150000051500000515000001C
:10006000515000005150000051500000515000000C
:1000700051500000515000005150000051500000FC
:1000800051500000515000005150000051500000EC
:1000900051500000515000005150000051500000DC
:1000A00051500000515000005150000051500000CC
:1000B00051500000515000005150000051500000BC
:1000C00051500000515000005150000051500000AC
:1000D000515000005150000051500000515000009C
:1000E000515000005150000051500000515000008C
:1000F000515000005150000051500000515000007C
:100100007BB972B90029BEBF00204FF0004106E064
:1001100008BF00281CBF6FF000414FF0FF3000F017
:1001200057B8ADF1080C6DE904CE002909DB002BAE
:100130001ADB00F061F8DDF804E0DDE9022304B029
:100140007047404261EB4101002B1BDB00F054F88B
:10015000DDF804E0DDE9022304B0404261EB410137
:10016000524263EB43037047524263EB430300F098
:1001700043F8DDF804E0DDE9022304B0404261EB1E
:1001800041017047524263EB430300F035F8DDF85C
:1001900004E0DDE9022304B0524263EB43037047FD
:1001A00053B94AB9002908BF00281CBF4FF0FF31DE
:1001B0004FF0FF3000F00CB8ADF1080C6DE904CE43
:1001C00000F01AF8DDF804E0DDE9022304B070471E
:1001D000704700BF10F8012B11F8013B012A28BF1E
:1001E0009A42F7D0D01A7047034613F8012B002A21
:1001F000FBD1181A013870472DE9F04786468C4626
:100200000846089E154674461946002B40F0C280E9
:100210008542B2FA82F245D94AB1C2F1200300FA0E
:1002200002FC2EFA03F3954043EA0C0C94404FEA8B
:10023000154EA8B2BCFBFEF8230C0EFB18CC08FB35
:1002400000F943EA0C43994528D9EB1808F1FF3728
:1002500004D2994502D9A8F102072B44A3EB090364
:10026000A4B2B3FBFEFC0EFB1C330CFB00F044EA13
:100270000344A04214D92C190CF1FF3304D2A0423C
:1002800002D9ACF102032C44241A43EA07401EB100
:10029000D440002334607360BDE8F0874746DDE753
:1002A0006346F1E792BB431B01214FEA154EAFB203
:1002B000B3FBFEFC200C0EFB1C330CFB07F840EAE2
:1002C0000343984562D9EB180CF1FF3004D29845EE
:1002D00002D9ACF102002B44A3EB0803A4B2B3FB98
:1002E000FEFC0EFB1C330CFB07F744EA0344A74259
:1002F0004ED92C190CF1FF3304D2A74202D9ACF12C
:1003000002032C44E41B43EA0040C0E7C2F120038F
:1003100020FA03F1954090402EFA03F303434FEA8D
:10032000154EAFB2B1FBFEFC0EFB1C10190C0CFB02
:1003300007F841EA0041884504FA02F422D9691815
:100340000CF1FF3004D2884502D9ACF102002944F7
:10035000A1EB08019BB2B1FBFEFC0EFB1C110CFBD8
:1003600007F743EA01439F420ED9EB180CF1FF3126
:1003700004D29F4202D9ACF102012B44DB1B41EABB
:10038000004192E76046E3E76146F7E76046A3E78E
:100390006346B7E7834206D916B9002108467BE7D2
:1003A000C6E900E0F9E7B3FA83F78FB9834201D3D6
:1003B000724508D8BEEB020460EB030301209C46A3
:1003C0001EB9002168E73846FAE7C6E9004CF8E7AD
:1003D000C7F1200CBB4022FA0CF41C432EFA0CF19E
:1003E00020FA0CF3B84001434FEA14490EFA07F51E
:1003F000B3FBF9F81FFA84FE09FB18300B0C08FB5D
:100400000EFA43EA00439A4502FA07F240D9E3188C
:1004100008F1FF3004D29A4502D9A8F10200234422
:10042000A3EB0A0389B2B3FBF9F809FB183308FB05
:100430000EFE41EA03418E452CD9611808F1FF33C5
:1004400004D28E4502D9A8F10203214443EA0040B8
:10045000A0FB0298A1EB0E014145CE46434602D3D4
:1004600006D14D4504D2B9EB020E68EB0403013806
:10047000002EA6D0B5EB0E0261EB030101FA0CFCD5
:1004800022FA07F34CEA0303F940C6E9003198E782
:100490004046C5E74346D9E72DE9F047064688B010
:1004A0000F46904611F0AFFF4FF47A73A0FB03455F
:1004B00003FB0155E40B012F44EA45444FEAD535CF
:1004C00007D1294922462B4630460FF06CFA00200E
:1004D00012E0D8F8047025483946FFF77BFE70B16A
:1004E00023483946FFF776FE48B1304621493A465F
:1004F0000FF075FA6FF0040008B0BDE8F0872046F1
:10050000294617A3D3E90023FFF7FAFD05460C4659
:1005100010461946184A0023FFF7F2FD80460F46A1
:10052000104619464EF660220023FFF7E9FD824689
:100530008946104619464FF47A720023FFF7E0FD12
:10054000CDE902A9CDE90623CDE90401CDE9008773
:100550000A492A46234630460FF025FAB7E700BF7E
:10056000005C2605000000005043010061430100CB
:10057000644301006D43010080EE360085430100B5
:100580002DE9F04F87B00546039117461E46836854
:1005900004AA5B689847002831DBDDE9044AA7FB21
:1005A00004B307FB0A37584619A3D3E90023394699
:1005B000FFF7F6FDDFF8608002904FF0FF39D94574
:1005C00078EB07031ED3A6FB04B406FB0A4410A372
:1005D000D3E9002321465846FFF7E2FDD94578EBE1
:1005E000040403460ED30299AA6899420DD3BDF8BC
:1005F0004010009114682846DDE90221A04707B0A9
:10060000BDE8F08F6FF08500F9E76FF01500F6E7B1
:1006100000CA9A3B00000000FFC99A3B10B4014693
:10062000084B9B689C681B6814B93BB910BC7047A9
:1006300023B92346034810BC64221847014810BC64
:10064000184700BFBC2B01000146064B9A68D2E94F
:1006500001230BB91AB970470AB902481847014873
:10066000104700BFBC2B010098B5424B984200AF29
:1006700040D101291ED14048036803F00703022B33
:1006800013D93E4A13686C46013388B013606A463A
:100690003B4951613B49C2E90613042342F8103F2C
:1006A0004FF403510DF06EFFA5460020FFF7B6FF93
:1006B000BD4698BD0029FBD12F48036803F007030E
:1006C000022B13D9304A13686C46013388B013608B
:1006D0006A462E4951612B49C2E90613042342F8A8
:1006E000103F4FF403510DF04DFFA5460020FFF7DA
:1006F000ABFFDDE7264B9842DAD101291BD11E481A
:10070000036803F00703022B13D9224A13686C46CF
:10071000013388B013606A461F4951611949C2E923
:100720000613042342F8103F4FF403510DF02AFF43
:10073000A5460120BAE70029BAD10F48036803F0A3
:100740000703022B13D9154A13686C46013388B08E
:1007500013606A46124951610A49C2E9061304232B
:1007600042F8103F4FF403510DF00CFFA546012055
:10077000BDE700BF10090020D80600205C1F002044
:10078000E03B0100693E0100581F0020FF3B0100D3
:1007900038080020541F0020203C0100501F00207A
:1007A0003F3C01002DE9F043A34D83B02B6803F0DB
:1007B0000703022B00AF0FD96C4688B06A469F4BE7
:1007C00053619F4B9361032342F8103F4FF4C6518E
:1007D00028460DF0D7FEA546DFF86882404611F0A6
:1007E00047FB002831D12B685B070FD06C4688B0DF
:1007F0006A46954B5361954B9361032342F8103F32
:100800008D484FF4C2510DF0BDFEA5466FF01204A5
:100810002B685B0710D06E4688B06A468C4B5361DC
:10082000874B8548C2E90634042342F8103F4FF451
:1008300001510DF0A7FEB546002383F31188BFF3E5
:100840006F8F0323184602DFD9E0D8F80860022230
:1008500033680021404698470446A0B12B685E07E4
:10086000D6D06E4688B06A467A4B5361774B724851
:10087000C2E90634042342F8103F4FF401510DF051
:1008800081FEB546C4E7014673683A1D4046984765
:10089000044638B12B685807BAD06E4688B06A460D
:1008A0006D4BE2E778684FF480310DF056FE044658
:1008B00038B12B685907ABD06E4688B06A46674B93
:1008C000D3E702467968664808F0ACFD044638B1C3
:1008D0002B685A079CD06E4688B06A46614BC4E7C5
:1008E000614A62495E4810F027FA044638B12B6825
:1008F0005B078DD06E4688B06A465D4BB5E75848B9
:100900000A2108F0F5FD044640B12B685E073FF46C
:100910007FAF6E4688B06A46564BA6E750483221F4
:1009200008F00EFE044640B12B6858073FF470AF44
:100930006E4688B06A46504B97E74948322108F026
:1009400027FE044640B12B6859073FF461AF6E465D
:1009500088B06A46494B88E7414808F041FE0446A2
:1009600040B12B685A073FF453AF6E4688B06A46D1
:10097000434B7AE7012233683248114698470446D0
:1009800000287FF46BAF73682E483A1D0121984709
:10099000044600287FF47EAF78684FF001110DF017
:1009A000DCFD0446002884D102467968354808F009
:1009B00039FD044600288BD1334A2C49314810F0C8
:1009C000BBF90446002892D12E480A2108F090FD78
:1009D0000446002899D12B48322108F0B1FD044685
:1009E0000028A1D12748322108F0D2FD0446002872
:1009F000A9D1244808F0F4FD04460028B1D1234CC5
:100A00000F4EDFF834802B6803F00703022B0DD95B
:100A1000E94688B06A460323C2E905464FF4C65149
:100A200042F8103F40460DF0ADFDCD4600214FF499
:100A3000702011F023FCE6E7D8060020603C01009E
:100A4000643E0100F42B0100853C0100543E01008E
:100A5000243E01009A3C0100C03C0100E63C01003C
:100A600010090020123D0100363D0100690600001A
:100A7000383D0100643D0100953D0100C83D010085
:100A8000FD3D010038080020223E01004A3E0100E1
:100A90002DE9F04F91B08407009302F00403029314
:100AA000C2F3C20303F10103DDF868800392054637
:100AB0000E46059340F0BA81041D30B1072909D8CC
:100AC0006FF01B0011B0BDE8F08F01F00706344451
:100AD000C6F10806009B4FF00009591E4FF0040AAA
:100AE0004FF0FF330193CDF810904F46CB4653465D
:100AF0000DB1009A22600598002800F3E88098481C
:100B0000009A824203D397488242C0F0E080039A61
:100B1000A4EB050E92074FEA9E0000F103810F2F10
:100B200000F2B180002D00F0058107F140020DEBCD
:100B3000020C019A0CF8200C0CF8102C04980130CF
:100B40000490E7E07A285DD84B280ED8472859D87A
:100B500029282DD8252852D054D820287AD02338B7
:100B6000D0F1000B4BEB000B74E04C382E2849D829
:100B7000DFE800F070484848484848484848484836
:100B80004B484848484848484859484B4B59595998
:100B9000704B6D487048184B184848827F4B484846
:100BA0004B487F0000204FF0000B4FF0040A38E064
:100BB0002A38C0B2012202FA00F010EA0E0F49D121
:100BC00010F0625C2FD110EA020B43D06046013C6A
:100BD0005444B4FBFAF40AFB04F4002D61D0A3EBF7
:100BE000050CA444B4453FF66BAF002868D1042B34
:100BF00047D158F8043B2360043404232AE0019AC7
:100C0000013A01924FF0000B24E011F8010C6C281E
:100C100034D111F8023C00206C2B8346C5D14FF033
:100C2000080A5346D3E708F1070828F007080734F5
:100C3000F8E802AB24F0070435B106982044B0422E
:100C40003FF63EAFC4E900AB08344FF0000B4FF065
:100C5000080A534611F8010F002878D0BBF1000FA5
:100C60007FF470AF2528F5D1019B013301934FF03C
:100C7000010B4FF0040AECE7584694E70020834646
:100C8000A5E7082B02D06FF015001BE708F1070855
:100C900028F00708F8E80223C4E9002308340823F1
:100CA000D8E768B9042B02D108F10408A4E7082B9F
:100CB000E9D108F1070828F0070808F10808EDE76E
:100CC000059A013A059258F8042B009210E7039A0E
:100CD000900720D5A4EB050E4FEA9E004FF0010CC3
:100CE000BEF5007FCFD20F2FCDD8F5B107F140026E
:100CF0000DEB020EC0B2019A0EF8200C0EF8102C6B
:100D0000BCF1000F3FF41AAF60F07F000EF8200C2A
:100D100009F101090137C5F10802043406924FF6C2
:100D2000DA7E97E74FF0000CDAE7BCF1000F01D054
:100D30000136EFE7029802360028EBD10098CDE9A2
:100D40000631FFF751FADDE906310644E2E7631B9D
:100D5000B3F5806F97D23DB9A6F10804E018B1E66B
:100D6000E0290100A4660100029A28609B082B700C
:100D70009DF81030C2B1EB7085F80290B9F1000F08
:100D800005D008A80022C5F1010C97420ED1C5F18B
:100D900001030DF120084FF0000A01930DF1300B13
:100DA000574512D1601B8DE66B70E5E710F8013BEB
:100DB000190608D50CEB040EB64503F07F033FF689
:100DC0007FAE04F8013B0132DFE7B9F1000F03D039
:100DD00098F90020002A17DB029BD3B11AF80B20E8
:100DE00004F8012B0022019B18191044B0423FF671
:100DF00067AE98F8000004F8010B009903922046B2
:100E000011F0EDFC039A14440AF1010A08F10108FB
:100E1000C6E798F8002055F822300093029B45F869
:100E200022300098FFF7E0F9421CDCE76FF00D007C
:100E300048E600BF2DE9F04F97B000AF90F802A050
:100E4000D7F880B03B62CBF3C0030446FA62BB61C3
:100E5000894641B9457800780AEB800020444D4529
:100E600017D8A0EB0409E378FB61BAF1000F02D0B8
:100E70001BF0010F16D1FB6953BBFB6A1BB13A6A29
:100E80004946204698474D4628465C37BD46BDE852
:100E9000F08F461C3046FFF7A7F90130304409F1C6
:100EA0000109DCE7237862687A62FA6A990079615D
:100EB00004EB8301002A40F006814D460E4601EB0B
:100EC0000A094FF00008B14552D101EB0A0610E0C3
:100ED0001BF0020FD1D023789A007A6162687A629F
:100EE000FA6A04EB8301002A7DD14D4601EB0A0624
:100EF00090461BF0050F0CBF02230123FB62FB6928
:100F000006EB430A0BF00203BB625645BCD016F851
:100F1000021B16F8013C54F823909C4B994502D3D0
:100F20009B4B99453CD3BB69002B46D0786A0DF0AA
:100F30003EFC002841D09748036813F0060F15D0F7
:100F4000E9468AB06A46944B5361944B93617B6A3D
:100F5000C2E9073140F201339384914B42F8103FCC
:100F600000234FF4325101F025FACD46023DCCE783
:100F700016F8013BF96254F82300FFF735F9D7F86A
:100F80008430F96A01304BB1D7F8883098453EBFBC
:100F9000D7F8843023F8180008F10108054492E7D7
:100FA000BB6923B1786A0DF002FC0028C3D11BF0A5
:100FB000010F05D1FB6AED1AA7E7BB6A002BA4D08D
:100FC0004846FFF711F9D7F8843053B1D7F8883085
:100FD00098453FBFD7F88420431C22F8183008F109
:100FE0000108054491E7BAF1000F72D01BF0040824
:100FF00072D0D04607F14800002652463B61B962E4
:1010000011F0EDFBB96A3B6901EB0A02BA62FA69B9
:10101000F9695200FA60BA6A02EB41023A610BF0D8
:101020000202BA603A69B96A8A4257D162787A6232
:101030001BF0020F32440CBF4FEA580100211BF095
:10104000010FD2B240F09F801BF0040F14BF404646
:101050000020BB616270A070E1703A6A7969FB6A36
:1010600020469847051EFFF60FAFBB6923707B6AC9
:101070006370FB69E37041463A6AFB6A84F802A038
:1010800007F148009847B0F10008C0F2BD807B69C5
:101090003A6AA9EB0A01C91AFB68C91AD7E90A0317
:1010A00098470028C0F2B280A84408EB00054FF032
:1010B000000B07F1380AB34574D300213A6AFB6A82
:1010C00008469847E0E6564607F138004FF000081A
:1010D00093E7D046564697E7464695E7BA6A12F830
:1010E000021BBA6212F8015C284A54F825009042AB
:1010F00002D3274A90421ED3BA6932B1786A7B6024
:101100000DF055FB7B6800288CD1BA6802BB08F152
:10111000280207F1300C08F10100944407F158024D
:1011200052FA80F008F102080CF8101C5FFA88F8F7
:1011300000F8105C76E7BA693AB1786A7B600DF026
:1011400036FB7B6800287FF46DAF1BF0010F09D0E0
:1011500006F1280207F13000711C161806F8205C11
:10116000CEB25FE71BF0040F3FF45CAF08F128023A
:1011700007F1300008F1010102EB000808F8105CEB
:101180005FFA81F84EE7002063E700BFE029010025
:10119000A46601008C0600207C3E0100233F010074
:1011A000050000011BF80A3087F8373054F8239007
:1011B000D7F884302BB3D7F888309B4521D2D7F8A5
:1011C000843033F81B803A6AFB6A012107F137004B
:1011D000984700281ADB0544B8F1000F06D14846AD
:1011E000FFF702F800F101081FFA88F83A6AFB6A73
:1011F000414648469847002808DB05440BF1010B9F
:1012000059E74FF00008DEE745463DE605463BE678
:10121000014B1860704700BF6003002080B5054691
:101220000E46174698460BF0F5F9034611F0CEFB33
:10123000DFF81890044649F80030424630463946F7
:10124000A84754F8090003F0D9FD00BF08000000CA
:1012500008B50446EFF31183202383F31288BFF30C
:101260006F8F06F0A1FD204604F018F902480DF03A
:10127000C5FA0EF04EFFFCE74D3F01002DE9F047A7
:10128000058B04462807904611D4022905F007056E
:1012900040F0CC8020460DF02FFD78B10138218B35
:1012A000042811D8DFE800F0C2106D8595000129EF
:1012B0000CBF45F0100545F02005258388F3118803
:1012C000BFF36F8FBDE8F08701F0070AAA4500F071
:1012D000A5800027B9463E46A368002B00F0BC80DD
:1012E00041F00801218388F31188BFF36F8FA16853
:1012F000002900F0BA800D68002900F0B680D1F80E
:101300000480334652462046C047002D76D02B68D5
:1013100029461D46F0E701F007035A1F012A1BD892
:10132000002221F00701062B276889B2C4E90022B8
:1013300009D13B4603E0628B013262831B68002BBC
:10134000F9D141F00201218320460DF0D5FC00289F
:101350007AD041F0200176E0042B0AD121F0070178
:1013600089B2218320460DF0C7FC10B141F0200165
:101370002183218B01F0070AAA454FD00027B946E7
:10138000AAE7236921F0070141F00601062DD3F8F1
:10139000009021832DD1B9F1000F3FD041F0080119
:1013A000218388F31188BFF36F8F3A492046C847DD
:1013B00029E021F00701236941F0040189B2042DDD
:1013C000D3F804902183E6D000273E464FF0040A6C
:1013D00082E721F00701236941F0050189B2052D5B
:1013E000D3F808902183D6D000273E464FF0050A57
:1013F00072E700273E464FF0060A6DE72B4687E767
:10140000B9F1000FD1D1EFF31188202383F31288B3
:10141000BFF36F8F238B23F008032383258BEA060A
:101420002ED525F01003238305F007056669218B6F
:10143000002EBFF670AF00232768C4E9003321F007
:10144000070141F001012183218B01F0070AAA4520
:101450004FF000097FF440AF002F9CD041F008010D
:10146000218388F31188BFF36F8F002FC8D03D68A8
:1014700039463346524620460DF06AFC2F46F4E7C3
:10148000AB067FF51BAF25F02003238305F007058E
:1014900000E700BF7DED00002DE9F7430F4606464B
:1014A0000821C06ADFF850900DF069FD3C68241AED
:1014B00080463C6004EA0905AC4203D8002003B032
:1014C000BDE8F08308236A46214630460DF0ECFC67
:1014D0000028F4D1694630460DF05BFD40B1BDF8FF
:1014E0000230BDF804203C6005EA090513441D44A0
:1014F000A4EB0804E0E700BF0000FFFF73B504465B
:101500000821C06A124E0DF03AFD4FF6FF72636873
:10151000ADF800208DF80620E26819183340134416
:10152000181A002560606846ADF80210ADF8045046
:101530000DF019FD694620460DF0EBFD2046211DFA
:101540000DF0EBFC636828463340A36002B070BD29
:101550000000FFFF2DE9F04F89B0044600AF00F115
:101560001408404610F00AFDA06A8368DB689847BB
:10157000E06280B9A14803685E0738D06C4688B045
:101580006A469F4B53619F4B9361032342F8103F80
:101590004FF4C25128E0A06A8368DB68984703686B
:1015A000013B1F2B08D9954803685D071FD06C4687
:1015B00088B06A46944BE5E7E368B3F5803F19D9F4
:1015C0008E480268540712D06C468AB06A468F492A
:1015D00051618C49C2E906134FF48033136205232D
:1015E00042F8103F4FF421510DF0C6FCA5466FF0B4
:1015F00015054AE0A06A216807F114020EF070FE9A
:1016000040B17E4803685907F1D06C4688B06A46FD
:101610007F4BB7E7E5682DB1BB69B5FBF3F203FB80
:10162000125545B1754803685A07E0D06C4688B03A
:101630006A46784BA6E7238A012B08D86F480368CF
:101640005B07D4D06C4688B06A46734B9AE7E36A6E
:101650003D6093F805A04FF0FF334FF0FF32404656
:101660000AF0E4F8E06A08210DF089FCA946064674
:10167000238A1FFA85FB5B450CD8238A4B4527D16B
:1016800040460AF04BF96FF02C0528462437BD463A
:10169000BDE8F08FE1682B04891B13FA81F15246F3
:1016A0000823204639600DF00DFC78B139462046FC
:1016B0000DF033FC09F10109396808235246204630
:1016C0001FFA89F90DF0FEFB0028D6D00135CFE7CF
:1016D0009B450BD1396808235246891B20460DF0E3
:1016E000F1FB18B9394620460DF017FC3946204663
:1016F000FFF7D2FE054618B140460AF00FF9C4E7DD
:101700003B6863604FEA13494FEA0949C4F80890FF
:10171000D4E9011399420FD308233A1D20460DF056
:10172000C3FB05460028E7D13B1D13F8012B92456A
:101730004AD10135082DF8D163681B0C1B043946CA
:1017400020463B600DF0E9FBE368396852462046CD
:101750000DF0B8FB051ECFDB636800F0B28003EB31
:1017600006094FF6FF7AE368C7F800901FFA89F27E
:101770009B1B9A4256D300222048036803F00703BC
:10178000002A69D0022B0ED96D4688B06A46234BD9
:101790005361234B9361032342F8103F4FF4C6512A
:1017A0000DF0EAFBAD4663681B0C1B04394620466E
:1017B0003B600DF0B2FB396820460DF0BBFB0546DF
:1017C000002D00F09C8097E7391D20460DF0E1FBCD
:1017D000626810B9921B62609AE73D89F988E06AF5
:1017E000C4F8089029440DF0CAFB48449042A06018
:1017F000F0D1002DEED06FF01C05DBE0BC06002020
:10180000993F010016410100BF3F0100E03F010088
:101810000D400100294001004140010068400100E5
:101820000A410100082307F10C02494620460DF049
:101830003BFB054600287FF45FAF07F10C01204613
:101840000DF0A7FB20B1BB89534501D13B8A0BB1F9
:10185000B14488E701228FE7022B0ED96D4688B08C
:101860006A46574B5361574B9361032342F8103F2D
:101870004FF4C6510DF080FBAD46616820460DF077
:1018800059FB054600287FF437AF63684E4AE1688C
:1018900013400B44A3EB460363601340A360204650
:1018A0000DF05FFC8BE75B1A524620460DF00AFBF9
:1018B000051EFFF621AF08D0E26AA3681268134440
:1018C000A360D4E901318B42EDD86168E36801EB94
:1018D00046029A427FF474AFDFF8EC90A36801EA05
:1018E000090293423FF46CAF20460DF023FB0546FE
:1018F00000287FF401AF636803EA0903A360E3688B
:10190000A288A3EB46039A4250D040460AF006F85C
:101910002E4D0123A3742B6803F00703022B43D938
:101920006E468AB0218AE3686A46DFF8A4902948A7
:1019300050614FF00508C2E9069113624FF423513C
:1019400042F8108F28460DF017FB2B6803F00703B1
:10195000022BB54628D98AB063686A461E49C2E997
:101960000519190C9BB2D16113624FF4235142F84F
:10197000108F28460DF000FB2B6803F00703022BA5
:10198000B54611D98AB0A3686A461449C2E9051957
:10199000190C9BB2D16113624FF4235142F8108F9E
:1019A00028460DF0E9FAB54600256EE620460DF012
:1019B000C1FB0546404609F0B1FF002DA8D064E602
:1019C000814001000A4101000000FFFFBC06002029
:1019D00016410100AC400100C7400100DD4001009C
:1019E0002DE9F04F93B01D4600AF837CB9600446EB
:1019F0003A61CBB96E4803685B070ED06C4688B07D
:101A00006A466C4B53616C4B9361032342F8103F61
:101A10004FF4C2510DF0B0FAA5466FF00C063046F7
:101A20004C37BD46BDE8F08FC26A082110460DF064
:101A3000A6FA2946F86010460DF0A1FAE368FA68A4
:101A4000A3EB8203AB428046C0F0AF801DB13B697F
:101A5000002B00F0AA806368FB6107F1200207F108
:101A60001C012046D7F81CB00DF0D0FA064600281D
:101A7000D5D13B8CBA68934206D06268FB699A4222
:101A8000EBD1002D3AD1CAE707F1200120460DF035
:101A900080FA0028F1D0B7F822A0BB8C65B39D4234
:101AA0002CD1E36A1B685B4203F020034FEA1B4B17
:101AB0004FEA0B4B7B603B697B61DA44AB46D7F85E
:101AC0000490D94528BFD9464B4607F12802514614
:101AD00020460DF0E9F900284ED178694A4607F111
:101AE000280110F033FD48B97B69BBEB090B4B446F
:101AF000CA447B61E3D192E7002B90D0B8F1000F8C
:101B00003DD104F1140A4FF0FF324FF0FF3350463D
:101B100009F08CFE238A9E4244D0A168626808EBDB
:101B200001039A4230D3BB683B85FF23798587F850
:101B30002E303A69BD852B4620460DF0B1FA294674
:101B40008346E06A0DF01BFAA3680344A360BBF16F
:101B5000000F0CD107F128000DF005FA07F128015C
:101B600020460DF0D6FA002814BF8346AB465046F7
:101B700009F0D4FE5E4652E7C0DC06464FE7FB683C
:101B800098441FFA88F8BCE72046FFF7B7FC834665
:101B90000028ECD120460DF0E4FA83460028E6D177
:101BA0000136B7E76FF01B0BE1E76FF0150636E77C
:101BB000BC060020813F0100004101002DE9F04FEB
:101BC00085B01E4600AF837CB7F838A0044688462F
:101BD0009146C3B9324803685B070ED06C4688B0A3
:101BE0006A46304B5361304B9361032342F8103FF8
:101BF0004FF4C2510DF0C0F9A5466FF00C00143738
:101C0000BD46BDE8F08FC06A08210DF0B8F9E36861
:101C1000A3EB4003B34240D3D4F804B0C7F804B0F8
:101C2000002555455946D7F804B008D963685B4587
:101C30001ED13B8943451BD06FF00100DFE707F160
:101C40000802391D20460DF0E1F90028D7D13B8963
:101C5000434507D107F1080120460DF09AF908B174
:101C60000135ADB262687B689A42DAD15946E0E745
:101C7000BB89002BE0D0AA45DED87889090CB34295
:101C80004FEA014128BF334601444A4620460DF041
:101C90000BF90028B3D1B889B1E76FF01500AEE7B2
:101CA000BC060020813F0100F24001002DE9F04711
:101CB000DFF85880044607464FF0010914B938464A
:101CC000BDE8F08794FAA4F5B5FA85F509FA05F3AD
:101CD0002E0108EB05156FEA030A24EA03042B7BA7
:101CE000002BEBD058F806301B694BB94644042250
:101CF00073682846196807EA0A070DF046FBDDE716
:101D0000284698470028D9D1F0E700BF5C2F010092
:101D100030B51049104889B0002210F076FB0F4D05
:101D20000F4900220023CDE9062300240E23CDE92C
:101D30000334CDE901440B4B00944FF40062284674
:101D40000AF01CF9084928460AF048F8204609B06C
:101D500030BD00BF6D1D0000B01A0020E809002052
:101D6000C05C0020D520000027410100014809F097
:101D700025BE00BF7C0700202DE9F04780462148A2
:101D80000F460DF0DAFA0646002833D00025284623
:101D9000BDE8F087237B83B12368DB680BB1204665
:101DA0009847636883F8069023681B69D3B9636812
:101DB0000422196820460DF0E8FA01361034544523
:101DC000E8D3B8F1000FE2D0002DDFD02846FFF7AE
:101DD0006DFF0546002FF7D000214FF4A47010F0DE
:101DE0004DFAF1E7204698470028E0D009FA06F3BB
:101DF0001D43E2E7044CDFF814A005464FF001094B
:101E0000DDE700BF701F00205C2F01006C2F010078
:101E1000014B53F8200070478C33010008B503468E
:101E200008462BB1044A136000F074FD002008BD81
:101E30006FF01500FBE700BF6403002010B5044CF1
:101E4000237813B9034809F0B9FD0123237010BDAD
:101E5000B02A00207C07002010B504460B480DF086
:101E60006CFA5CB1BFF35B8F094B53E8001F01397B
:101E700043E80012002AF8D1BFF35B8F054810F049
:101E8000D0FA0548BDE8104009F098BD681F002051
:101E90006C1F0020B01A00207C0700200020064B99
:101EA000BFF35B8F014653E8000F43E80012002A9E
:101EB000F9D1BFF35B8F7047681F002070B5FFF743
:101EC000EDFF084C084E0546B44200D370BD636870
:101ED0005B792BB123685B6813B12946204698478C
:101EE0001034F1E75C2F01006C2F010010B5044C99
:101EF000044920460CF092FD034B1C6010BD00BF4E
:101F00005006002078330100601F00200E4A0F4861
:101F1000002310B513700E4A13600E4A4FF40041AF
:101F20001360FFF77BFFFFF7E1FF00F06DF90A4B4D
:101F30000A4918468B4200D310BD1A1A5C68121168
:101F4000013222711033F5E7B12A002037F3000087
:101F5000681F00206C1F00205C2F01006C2F010007
:101F600001460022014800230CF079BD50060020F4
:101F700001480CF012BE00BF50060020024B014683
:101F800018680CF065BE00BF601F002001480CF00F
:101F90009ABE00BF500600202DE9F041364B18785C
:101FA000002866D0FFF7E4FF044600285DD1334BDC
:101FB000334C1B68002B19DD10F025FA4FF47A72B0
:101FC000A0FB020302FB0131C30BD4E9002043EA6A
:101FD00041439B1A4FEAD13140F2E93261EB0001F3
:101FE000934271F1000101D3FFF768FFD4E9003299
:101FF00013F57A7342F10002C4E90032BDE8F04102
:10200000FFF7C4BF6B685B793BB121784B0717D5ED
:102010002B6821461B682846984710354545F1D363
:102020002046FFF7ABFFBFF35B8F164B53E8001F53
:10203000013943E80012002AF8D1BFF35B8FB6E7FD
:1020400020462688C1F3C20700F0A2FAC6F3821622
:102050000246002EDCD00028DADB01233946284670
:1020600000F082F9B042D8D3D2E7074DDFF81C80E8
:10207000D4E7BDE8F08100BFB02A0020681F00202F
:10208000A81A00206C1F00205C2F01006C2F01009B
:1020900070B50D4D297861B90120FFF76DFE0B4C2D
:1020A0000B4EB44206D3FFF777FF0028FBD1012384
:1020B0002B7070BD63685B791BB1236820469B68F9
:1020C00098471034EDE700BFB12A00205C2F0100D3
:1020D0006C2F010000212DE9F0470846FFF74CFE68
:1020E000044658B340F267684FF0000910F06EFCE8
:1020F0001B4B1C4A1B58136033B11B4B1B68002B36
:1021000002DD1A4809F05AFC194FDFF860A00025DB
:1021100044B12046FFF7CAFD044618B94FF0FF3816
:102120004FF0FF39FFF738FF064628B9B5B94246E8
:102130004B46504609F076FC3546E9E74FF0FF384C
:102140004FF0FF39D2E72B689B691BB10022114683
:10215000284698471035BD42F5D3E8E7054DFAE724
:1021600008000000641F00206C1F00207C07002076
:102170006C2F01005C2F010010B50F480DF0DDF849
:102180000E4B1B786BB1EFF31184202383F312887D
:10219000BFF36F8FFFF700FF84F31188BFF36F8FDA
:1021A00010BD074B1B68002BFAD00028F8D105485A
:1021B000BDE8104009F002BC6C1F0020B12A0020CD
:1021C000641F00207C07002010B5064B1B680446E6
:1021D00098472146A06004480CF0C0FCBDE81040C0
:1021E000FFF7CABF6403002050060020044A054BD5
:1021F0009B1AB1EBD30F34BF52F831000020704767
:102200006C2E01005C2F01000B480C4B30B51B1AE3
:102210000B4CDB0800210430994200D130BD10F88E
:102220003120256802F0070225F007052A4344F80B
:10223000042B0131F0E700BF6C2E01005C2F010080
:102240008C060020F8B50B4F0B4DED1B0646ED0834
:102250000024AC4203D14FF0FF342046F8BD57F8BC
:10226000340020B13146FDF7B5FF0028F5D0013428
:10227000EFE700BF6C2E01005C2F010000282DE964
:10228000F047884615461F461DDADFF89890264E1F
:102290004FF0000AA6EB090636095446B24509F18B
:1022A000100902D12046BDE8F08759F80C0C3B46D6
:1022B00000792A464146FFF7E1FF844238BF0446D1
:1022C0000AF1010AEAE7194B194AD21AB5EBD20F03
:1022D00026D203EBC5031C79BC4228BF3C46154EF1
:1022E000C0B200EB400056F825300722824023EAB6
:1022F000020304F00702824013430021032223FA61
:1023000002F000F00700814202F1030238BF0146EB
:102310001E2AF4D123F007030B4346F82530C1E70A
:102320000024DCE75C2F01006C2F01006C2E010003
:102330005C2F01008C060020F8B5094D094BED1A01
:1023400006460F46ED080024AC4200D3F8BD00213C
:1023500022B23B46304601340DF00FF8A4B2F3E749
:102360005C2F01006C2E010070B14168097973B1D6
:10237000002A17DBCBB20C4951F8220003EB4303D0
:10238000D84000F0070070474FF0FF31EFE70749F2
:102390000748401AB2EBD00F3ABF01EBC2010879EF
:1023A00018467047042070478C0600206C2E0100F0
:1023B0005C2F01002DE9F04F8FB004AFC1F34A2824
:1023C000B8600D4691467B600C0DB8F1000F69D0E6
:1023D000002607F114034FF0040B4FF00A0AC7F868
:1023E0000C80C7E907667E620193CDF808B0CDF88E
:1023F00000A007F11C03F96832464846FEF71AFDB3
:10240000B0F5006F034622D32B48036813F0060F84
:1024100019D06C468AB0D9F8041004AB274D5D6121
:10242000274DC3E9065140F2FF7119621A4640F286
:1024300001319984234B42F8103F4FF43251334617
:10244000FFF7B8FFA5462C37BD46BDE8F08FC0F3B7
:102450000A0804F11700184420F0070080083B60C8
:10246000FFF77EFD68F35325044690B13B68164A9A
:10247000C7E9083600F1100107F11403F961CDE94D
:1024800000A3CDF808B0F96807F11C034846FEF731
:10249000D1FC68F353257B68B9682A4620460CF0C6
:1024A0009CFFD0E704F1170020F007008008FFF739
:1024B00057FD0446EDE700BFD00600203C41010077
:1024C000D541010005000001ADF300002DE9F04FFA
:1024D00087B002AFD7E91069BD6B796004469346B7
:1024E00098464EB3C7F80C90CDF80090FA6B33467F
:1024F00010210020FEF7CCFAB0F5006F82461CD305
:102500002048036813F0060F12D06C4688B002AA68
:102510001D4B53611D4B936140F2FF73D361042344
:1025200042F8103F00234FF40251FFF743FFA54646
:102530001437BD46BDE8F08FB24605F11700504490
:1025400020F0070004F007048008FFF709FD0BF0F6
:10255000070BE40044EA8B1444EA4A2444EA055495
:10256000054640B13EB1CDF80090FA6B3346514676
:102570001030FEF78DFA79684346224628460CF063
:102580002CFFD5E7D00600207F410100BB410100B0
:10259000406820B1034BC01A40F38F0070474FF0E2
:1025A000FF3070478C0600200EB403B503AB014624
:1025B00053F8042B0448019302F010FF02B05DF8B9
:1025C00004EB03B0704700BF43F40000CA0605D413
:1025D0008B064CBF02490349FFF7E6BF704700BFB7
:1025E00054460100854201002DE9F04F89B09B4619
:1025F000149B06939DF84CA0159B0593169B179E64
:10260000049304460D469046BAF1000F00F09D80F9
:1026100006F4807307930CF0AEFE06F00209024642
:1026200000283ED091492046FFF7BEFF0746B9F18A
:10263000000F08D016F0440F35D18D492A462046A8
:10264000FFF7B2FF074406F0010353B1894B8A49F3
:1026500053F82A20894B2046002A08BF1A46FFF764
:10266000A3FF06F48073002B49D006F00803002B6B
:1026700063D1B8F1000F66D0814942462046FFF78A
:1026800093FF0546069B3D44002B6DD1049B002B18
:1026900073D1F30700F1E48031462046FFF796FF3F
:1026A000D8E00746C3E7774B18680028CAD0764BB6
:1026B0004FF47A791B68B5FBF3F54FF46163B5FB12
:1026C000F0F100FB115509FB05F54FF03C0CB1FB97
:1026D000F3F203FB1211B5FBF0FEB1FBFCF300FBC0
:1026E0001E550CFB131109FB05F50091B5FBF0F528
:1026F0006649CDE901E52046FFF756FFA2E706F05F
:102700000803EBB1624B634953F82A202046FFF7D8
:102710004BFF0546B8F1000F05D059494246204607
:10272000FFF742FF0544BBF1000FABD05A495A46B0
:102730002046FFF739FF0544A4E74FF0000BE1E71F
:1027400006F00805E6E745469CE7BBF1010F069B4E
:1027500006D1002B64D1049B002B7BD000250CE01C
:10276000002BF8D04D485CE04D48069B4D49224671
:102770000BF0ECFF049B002B68D0DFF82C81DFF816
:102780002C91049F3146102F204628BF1027FFF7B9
:102790001DFF4FF0000B5D4545DC059B49461A784F
:1027A0002046FFF701FF4FF0010B1BF0070F03D18D
:1027B00041462046FFF7F8FE5F453BD9059B494659
:1027C00013F80B202046FFF7EFFE0BF1010BBBF1D6
:1027D000100FEAD1364920464FF0000BFFF7E4FE18
:1027E0005A46059B9A5CA2F120015F2928BF2E2240
:1027F00030492046FFF7D8FE0BF1010BBBF1100F5B
:102800001DD01BF0070F03D141462046FFF7CCFE39
:102810005F455A46E5D841462046FFF7C5FEEBE73F
:102820001F485546A1E741462046FFF7BDFE0BF184
:10283000010BB0E720492046FFF7B6FEC5E7059B30
:102840003B440593049BDB1B04939AD1BAF1000F20
:102850007FF41FAF204609B0BDE8F04F0CF0E4BD97
:10286000064A05492046FFF79FFE15E7D4490100B7
:10287000F94101009C3301004A560100F441010076
:102880001E420100781F0020741F00200242010038
:10289000B0330100224201002842010079F4000017
:1028A00043F40000DD530000354201002D420100D9
:1028B00037420100394201003342010073B542F250
:1028C0000F738B4228BF0B4605680F4A044605214B
:1028D00068460AF099FC63680C495B680646042266
:1028E00028460CF093FD63683246694628465B68CB
:1028F0000CF08CFD636806495B68172228460CF0D3
:1029000085FD02B070BD00BF473E0100544201008A
:102910003C420100074A00210123904206D8064AA2
:1029200001B901231360054B1860704740085B0034
:102930000121F2E740420F00741F0020781F0020A1
:10294000014B002019607047901F002007B500233D
:102950000093084A08494FF48053012008F00AFD0B
:10296000064B01221A70064B064A1A6003B05DF846
:1029700004FB00BFCC2B002069420100B22A0020DA
:102980009C1F0020B52A00200148FFF797BF00BF19
:10299000E033010010B5064B18680C46FFF738FA13
:1029A00021460346BDE8104002480E22184700BFEA
:1029B000901F0020E0330100F8B5094D094B0A4E85
:1029C000D5E9004701221A700CB92C60F8BD2146E8
:1029D00030463A4600F01EF8241A0644F4E700BFD9
:1029E000841F0020B32A0020B42A002010B9074B0E
:1029F00018707047064B1B781BB142F210700FF035
:102A00001BBA4FF4A47000210FF038BCB22A00208A
:102A1000B32A00202DE9F74F524F01903B780C4626
:102A200043B9514F8246019B23449A452BD324EA54
:102A3000E4700CE04D4E012501992246012008F07A
:102A4000FBFBA8B1012333703B7843B9204603B0A8
:102A5000BDE8F08F2846FFF7C9FF6F1E3D460120F5
:102A600008F07EFC0028F1D03378002BF2D1EDE79E
:102A70003378002BEAD0013D2846FFF7B7FF3378C3
:102A8000002BD9D1E2E71AF8012B3B680A2A61D161
:102A9000374DDFF8E0905A1B012A04BF01333B6039
:102AA000D7F80080D9F800B00D2308F8013C08F1F0
:102AB00001020A23BBF1000F3A6088F8003029DDDB
:102AC0002D4B196831BB2A495E46632EA2EB0502E5
:102AD00001F11700A8BF63260FF08FFE274A244993
:102AE000254B02F1140052F804CB41F804CB82428A
:102AF000F9D1108892788A7008F118020880BBF129
:102B0000090F3A604FF001021A6011DC20233036C1
:102B10006B752E753A681649521B012008F08CFB24
:102B200090B9D9F800300133C9F800303D607AE738
:102B30000A22B6FBF2F302FB1366303330362B75F4
:102B40003E236E75EB74E5E70B4A0023C9F80030AD
:102B50001360EBE70A498B423EBF591C39601A707B
:102B600061E700BFB32A00209C1F0020B22A00208A
:102B7000B52A0020981F0020941F002070420100F9
:102B8000B42B0020014B036000207047F03301009C
:102B900070B5104B1C680D46B4B10F4B196800237B
:102BA0008B4202DB6FF0010070BD224612F8106B01
:102BB000864202D001331446F2E7E0680FF058F97C
:102BC00028B12C600020EFE76FF00C00ECE76FF00D
:102BD0001200E9E7940300208834010010B588B0A2
:102BE000436802938368C068CDE903320A68002312
:102BF000CDE906230C4601AA044905930DF074FBA8
:102C0000079808B9059B236008B010BD45F5000082
:102C10002DE9F0410C4B1C6805460E4617467CB169
:102C200000F036F963682046D3F8108032463B4600
:102C30002946C047044600F035F92046BDE8F0813A
:102C40006FF00104F9E700BFA01F0020002303601C
:102C5000044B5A6812B9C3E900007047106058600D
:102C6000704700BFA41F0020014B1860704700BFD1
:102C7000A01F00202DE9F843254B1F680646002FB2
:102C800043D07B68DB680BB138469847214CDFF8AE
:102C90008880DFF88890002544450CD3204B1C68C1
:102CA0005CB3DFF87880183CCEB96369FBB9A469DE
:102CB0001CB3183CF8E72EB963695BB92846183491
:102CC0000546E9E72068002231460CF079FC00282F
:102CD000F2D1F3E748469847002DEFD1EFE720689F
:102CE000002231460CF06CFC0028DED1DFE74046C4
:102CF0009847002D08BF0546D9E77B685B690BB193
:102D0000384698472846BDE8F8836FF00105F9E793
:102D1000A01F00206C2F01006C2F0100112C00005F
:102D2000AC1F0020024B0022C3E90022704700BF05
:102D3000A41F0020024B0022C3E90022FFF7F2BFCC
:102D4000AC1F00202DE9F74307460C4609B10023CC
:102D50000B601F4DDFF87C9000264D450FD31E4BB6
:102D60001D6885B355F8188C01AA41463846183DB0
:102D70000CF026FC10B3D6B914BB2E461EE0D5F8D5
:102D8000008001AA414638460CF01AFC50B116B931
:102D900054B92E4606E03168002240460CF010FC83
:102DA0000028F5D11835D8E7019B2360F1E7316899
:102DB000002240460CF004FC0028DDD1AD69D0E7CC
:102DC000019B2360D9E7304603B0BDE8F08300BF24
:102DD0006C2F01006C2F0100AC1F00202DE9F04783
:102DE00084B002AF0446D7F8289078600D461646A6
:102DF0009846B9F1000F07D0D9F8001061BBD9F897
:102E000004A0BAF1000F2ED1391D2046FFF79AFF1A
:102E100038B3D0F80C907868434632462946C84704
:102E20000346F0B11648026852071AD06D468AB0C0
:102E300002AA144951611362134940F20133938489
:102E4000124BC2E9061442F8103F00234FF43151EF
:102E5000FFF7B0FAAD4604E03A1D0CF0B1FB0028D4
:102E6000CDD1002007E0D9F80830009378684346B8
:102E700032462946D0470837BD46BDE8F08700BF37
:102E8000EC06002098420100C1420100050000014B
:102E900003484FF0FF324FF0FF3308F0C7BC00BFCC
:102EA00054070020014808F039BD00BF5407002036
:102EB00038B5094DFFF7ECFF2B783BB9FFF73AFF28
:102EC00000F06AF8044610B901232B700024FFF7C4
:102ED000E9FF204638BD00BFCC3B00202DE9F0477C
:102EE000048FDFF8B0A0013498B006468946A4B23A
:102EF00000F10807651EADB2B5F5004F47D04A2373
:102F000005AA294638460CF0FDF904F57F543F34F4
:102F1000A4B28046214601230DF10B0238460CF085
:102F2000F1F9B8F1000F014610DC002810DC338FF6
:102F3000AB4209D132466B1E22F8383F4FF40041B4
:102F400002233846FEF74CFD2C46D3E7002808DC68
:102F5000294638460CF0D2F9214638460CF0CEF915
:102F6000E5E708F160030DEB0308002308F84C3C8B
:102F70005246CDF8009003AB05A80397ADF810407A
:102F8000FFF72CFF0028DFD018B0BDE8F087002045
:102F9000FAE700BF0DF600007FB501256946284617
:102FA0000195FFF7F5FD044660BB02AA01A928467A
:102FB0000CF0EAFA044610B110F10C0F22D103997B
:102FC000B1F5803F23D2009A002394681846084444
:102FD00084421AD30133082BF9D10E4D69612B833A
:102FE0005368AB602846D368EB630CF0A7FB04463C
:102FF00040B9094E6E602846FFF728FE28466E60ED
:10300000FFF732FE204604B070BD9BB2E5E76FF0DB
:103010002004F7E7B41F00206803002010B5044621
:103020000DF099FD0349024620460CF0BCFC00203F
:1030300010BD00BFFB42010073B513460022019290
:10304000044601AA58680A2100F054FE019D95B972
:1030500020EAE0744FF40046294640F2E7304FF48E
:103060007A720023C4FB0601FDF79AF80FF006F907
:10307000284602B070BD2A46024920460CF0AFFC3B
:10308000019DF5E72743010008B5034A03490CF009
:103090008AFC002008BD00BF174401001E44010047
:1030A000F7B517460023054601AA0A21B86801931F
:1030B00000F020FE1749C6B228460CF082FC019CA5
:1030C00044B12246144928460CF089FC019C204654
:1030D00003B0F0BD042E09D91049324628460CF041
:1030E0007EFC28460CF089FC0124F0E77868FFF7A5
:1030F000A9F8021E07DA7A68094928460CF06FFC25
:103100006FF01504E3E7334612B2214620460CF077
:1031100034F9DCE741440100A7440100CE4401003A
:10312000E544010007B500230090694604488DF886
:10313000043009F0CDFB9DF8040003B05DF804FBFA
:103140008FF7000010B5044604F024FE074902463C
:1031500020460CF028FC204605490CF024FC0548CC
:10316000214609F0CFFB002010BD00BF77450100CC
:10317000964501007931000070B58EB004460D46C9
:10318000D0F8A8600EF0D0FF03460FF01FFC214AD4
:1031900021491058214A002B18BF1A460092204A94
:1031A0002346844218BF0A4628461E490CF0FBFB02
:1031B000D4E90A23CDE90023284694F90E30227B76
:1031C00019490CF0F0FB06A92022204608F016FE53
:1031D000236F1649024628460CF0E5FB05A9204658
:1031E0000EF0B0FF024628B1114928460CF0DBFB77
:1031F0000EB070BD059B6422F11A4A430091B2FBE8
:10320000F6F20C49CDE90162284632460CF0CBFBC0
:10321000EEE700BF0800000035420100A0450100B4
:103220003A4F0100A3450100AF450100DB45010015
:10323000F24501001F460100F0B5002591B004469B
:10324000294608AF1C2209A80FF0F1FA134E1A22E2
:10325000202138460FF0EBFA2146114809F052FBC5
:1032600007AA4FF4805130460EF060FF079A00978E
:10327000C2F5805164234B431B0B05934FF48053DD
:10328000CDE90313CDE90132204606492B46A6F1CC
:1032900040020CF088FB284611B0F0BD807500207C
:1032A000A93200007046010070B50446D0F8A8604D
:1032B00088B00D4607A90EF045FF024628B10F4918
:1032C00028460CF070FB08B070BD20460EF02CFFB5
:1032D000079B0096F11ACDE90131094B64224A435C
:1032E000002818BF0346B2FBF6F20649CDE9036297
:1032F000284622460CF057FBE5E700BFF2450100E7
:10330000A0450100B946010038B513460546102214
:103310005868002109F0A4FF0446FFF703FF38B9FD
:103320000E49224628460CF05AFB6FF0150038BDB6
:103330000FF04CFB0A4B1B589C4204D1094928460C
:103340000CF04DFBF1E7204608F020FF2846064927
:1033500022460CF028FB0020E9E700BF1D470100D2
:1033600008000000384701006047010038B51346E7
:10337000054610225868002109F072FF0446FFF745
:10338000D1FE38B90E49224628460CF028FB6FF0D2
:10339000150038BD0FF01AFB0A4B1B589C4204D194
:1033A000094928460CF01BFBF1E7204609F00CF810
:1033B0002846064922460CF0F6FA0020E9E700BF4D
:1033C0001D470100080000009F470100C54701009C
:1033D00038B51346054610225868002109F040FF11
:1033E0000446FFF79FFE38B90E49224628460CF0E6
:1033F000F6FA6FF0150038BD0FF0E8FA0A4B1B58CB
:103400009C4204D1094928460CF0E9FAF1E720462C
:1034100001F0F4FC2846064922460CF0C4FA0020CC
:10342000E9E700BF1D470100080000000048010057
:103430002548010007B5064A064812680423009390
:103440000021012300F016FB002003B05DF804FB0F
:10345000443401006C2F010037B544680A492260EA
:1034600004F108052364002228460EF0CEFF41F641
:103470009A12E46300232846CDE9002309F038FCC2
:10348000002003B030BD00BFBBF7000010B9034BF4
:1034900018707047A42000210EF0F0BECD3B002034
:1034A0002DE9F84F164ED0F804B0884614461D4654
:1034B00004270EF0B4FC224682464146002007F065
:1034C000BBFE814650460EF0B2FCB9F1000F0BD0A6
:1034D00001233370DBF80030DBF8401001209847FF
:1034E0002C600020BDE8F88F3378002BF2D0013F2C
:1034F0003846FFF7CBFF3378002BDAD1EAE700BF7D
:10350000CD3B002010B58368D3F86C32DB0704464E
:1035100016D4406803685B689847014608B9A368F9
:103520001871A3685B6B0BB120469847A3680FF036
:103530004DFA0022C3F88C22034B185801F05EFCB0
:103540006FF00F01EDE700BF0800000010B58168C3
:103550000446083100F088FDA168034A204608317E
:10356000BDE8104000F018BD6D4801000EB403B571
:10357000044904AA019200F06FFB02B05DF804EB6D
:1035800003B070475446010010B5836802221A71D7
:103590008268936B0446EBB982F84A308268A2F8DD
:1035A00046308268A2F844308368D3F86C32DB047A
:1035B0000BD50321084B094A0CF06DFCA0686FF491
:1035C000805100F51B700CF01BF92046BDE810403F
:1035D00000F0A4BC10BD00BF7B4801004A560100AA
:1035E0002DE9F04FA5B00446542200210FA80FF09A
:1035F0001EF900230493A36820464A3303930CF07A
:10360000DDFB20460CF088FB18B981496069FFF7A3
:10361000ADFFA06800271422002108300FF007F941
:103620000DF13C0B4FF0FF38B9463D4602973E4640
:10363000BA46049B012B00F09C80142D40F095802D
:10364000022B40F09680734B734A01210FE05946DC
:10365000039A022304A80CF042FA04995BF8042FA1
:103660000392034631B101290AD148B16B4A204681
:103670000CF011FC6FF00705284625B0BDE8F08F6F
:103680002DB35BF8040C00F021FD98B167B1A5687B
:103690000B9708350AAE0FCE0FC533682B60204656
:1036A000FFF754FF0125E7E75D4A012120460CF0B2
:1036B000F2FBDFE7029BC3B108F1FF38FEB9049BC0
:1036C000B8F1000F01D1022BB3D10135B1E7029B54
:1036D0005BB108F1FF3896B9A368DB69002B3BD0DA
:1036E000DB68002B38D0002633E05BF8041C05AA09
:1036F00050460CF0C4FA08F1FF38064638B3F368B8
:10370000ABB1A368B64603F1080CBEE80F00ACE805
:103710000F00DEF80030CCF80030B36833B9737CAA
:10372000FE2B04BF96F8108008F1FF38A946D6F8A2
:1037300004C0BCF1000F08D0B646BEE80F000AAFC7
:103740000FC7DEF800303B606746B246B7E7002D92
:10375000C2D001230293B2E7324B0093324A0F9B4F
:10376000012120460CF097FBBDE7B8F1000F7FF474
:103770006EAFBAF1000F0AD09AF81130FE2B06D1C5
:1037800024AB03EB850353F8543C03B10135A06827
:10379000436953B9002F3FF46DAFC368BB423FF498
:1037A0007EAF0B9700F1080574E7037EA5EB0905D2
:1037B000B3B1417E4FF6FF72FF2918BF0A469D4202
:1037C00002D313449D420BD98368184A0121204635
:1037D0000CF061FB2046FFF7B9FE6FF015054BE7D3
:1037E00001210CF02DF8A0680CF01EF8A3680FAAB8
:1037F00029465B6902EB8902204698470546A06886
:103800000CF016F8A06800210CF01AF834E700BF9D
:10381000544601000B490100065D0100BF4801004C
:10382000D3480100F7480100F14801002F49010089
:103830002DE9F041ADF5805D82B00023044601938F
:103840000DF10305A3686068D3E90E7803681E696B
:1038500001AB27B34FF4805202A9B047019BCBB113
:103860000121A0680BF0ECFFA0680BF0DDFF4346E0
:10387000019A02A92046B847A0680BF0D9FFA068BA
:1038800000210BF0DDFFA3689B6B002BDAD12046F3
:10389000FFF77AFE0DF5805D02B0BDE8F0810122F0
:1038A0002946B047019B002BF4D09DF903209DF8D9
:1038B0000330A068002AC5DB4279032A00F2838026
:1038C000DFE802F0027B83810D2B41D00A2B22D04E
:1038D000B0F86C22092B6FF3CA02A0F86C224CD00E
:1038E00008D8002B4CD0082BA0684DD00246D2F847
:1038F000683245E01B2BA0683CD07F2B4ED0203B8C
:103900005E2B0246F3D80BF08AFF9DF80310204689
:1039100000F0CCFA34E0D0F86C22C2F3C7022AB12E
:10392000D0F86C22C2F3C7020A2ADFD1B0F86C22A9
:1039300063F3CA02A0F86C22A668B6F844309BB9BB
:103940004B496069FFF712FE2046FFF71DFE79E73D
:10395000D0F86C22C2F3C702002AE7D0D0F86C225C
:10396000C2F3C7020D2AE0E72046FFF739FEC6F88A
:103970009002E9E70123437102E0A368D3F86832BB
:1039800060690CF04CF85DE7D0F868329F07F7D516
:103990000BF045FF20460CF0E5FAF1E7D0F868326D
:1039A0009E07EDD50BF03BFFA368D3F868321807EC
:1039B000F0D420460CF0B7FAE2E75B2B01D10223EA
:1039C000D9E7D0F868320023D5E700224271A26817
:1039D000D2F8681289077FF535AF342B0AD8302B1F
:1039E000CED90321323B5171022B2DD8DFE803F0F1
:1039F000303A2800433BDAB2092AC1D8092BBFD894
:103A000001A252F823F000BF313A0000393A000019
:103A100081390000413A000081390000493A000034
:103A2000813900008139000081390000513A0000DD
:103A300020460CF0D5F9A3E720460CF0C8F99FE723
:103A400020460CF0BBF99BE720460CF0B0F997E755
:103A5000A068D0F8681201F0010181F001010BF0BB
:103A6000FAFE8DE7A368D3F868329B0788D5A0E7F4
:103A7000544601002DE9F04304468068D0F88C924A
:103A800089B00F4615461E46B9F1000F5CD190462D
:103A900049464FF425720EF0CAFEA06800F51C706E
:103AA0000EF03CFDA06800F51F70012211460EF0DB
:103AB0006CFAA369C3F80090A068022100F51B709E
:103AC0000BF08FFEA36850225A85A36818221A852E
:103AD000A36822681A60D4F80890D9F8000010B1E1
:103AE000FCF782FB80B289F82C00A368184A25F005
:103AF000360565F30708C3F86882606803683946CD
:103B00001D682346A8470546D0B9A36801221A714B
:103B1000D4E90A0100220023CDE906230E230393F2
:103B2000109B0495CDE9016300940A4B4FF4805239
:103B300008F024FAA368C3F88C02616A08F04EF911
:103B4000284609B0BDE8F0836FF07705F8E700BFBD
:103B5000ADF80000A13B000010B504468068037971
:103B6000012B17D140F2676200230BF0B9FE10B9A8
:103B70006FF00F0010BD09496069FFF7F7FC2046A0
:103B8000FFF702FD20460CF000FAA0680BF04CFE97
:103B90000020EFE76FF08500ECE700BF544601001E
:103BA0002DE9F34104468068154600F51B70002995
:103BB00035D04FF480410BF014FEA3681D6460689B
:103BC000036800219B68984770BB2046FFF7C4FF3D
:103BD00050BB174DDFF85C804FF0FF364FF0FF37DA
:103BE000A06800F51C7000220721CDE900670EF0E7
:103BF000A1FCA0680BF01CFE2A46042120460BF015
:103C000039FE2046424601210BF034FE606803680D
:103C10005B6903B19847A0680BF006FEE0E76FF41C
:103C200080410BF0EDFDC8E702B0BDE8F08100BFB8
:103C300005350000F3F8000010B5054904460BF007
:103C4000B2FE2046034A002100F0A6F9002010BD74
:103C50004A4901009E49010010B5044613460A4630
:103C60000146064801F0BAFB23691B7923B12046BF
:103C7000BDE810400BF0D3BE10BD00BF37FA000006
:103C800038B50B46154648B91449154A521AB3EBD4
:103C9000920F05D251F82350284638BD84680CB9DC
:103CA0000025F9E70F4A94420AD30F4A944207D2FB
:103CB00018462268294690472B68002BECD1EFE785
:103CC0000A4A944202D30A4A944205D32468142231
:103CD0005343E518E358F0E70133F8E79C2F010060
:103CE000B02F0100DC300100DC300100B02F0100FA
:103CF000DC300100F7B503782D2B0446164605D1BC
:103D00006FF015033360002003B0F0BD0EF05EFECF
:103D10000B4F00230546C3510A46204601A909F06E
:103D20009FFAEB59222B02D16FF02103EAE7002B17
:103D3000E6D1019BA342E3D01B78002BE4D0DFE760
:103D40000C00000001490BF0C5BF00BF5446010044
:103D50002DE9F0478568DFF86890044605F14A00D0
:103D6000FCF742FA002395F82C7086B29846A268B8
:103D7000558DED1BB54209DB002E1FDD4A3360690E
:103D80001049BDE8F0471A440BF0A4BF1D442A4473
:103D90004A3392F84AA082F84A80A26860691A44BD
:103DA00049460BF097FFA3682B4483F84AA0A36809
:103DB0005B8DDB1BF61A00272B46D8E7BDE8F087A2
:103DC000065D01004A5601002DE9F84FD0F8089031
:103DD000D9F86832B9F846605B0705460F46904649
:103DE00024D506F14A004844FCF7FEF92C4E04465F
:103DF000B4B9AB68B3F84420A3F84620A8680BF028
:103E000076FF30B1B8F1000F00D017B16869FFF745
:103E100099FF7942284609B2BDE8F84F0BF0A8BFD8
:103E2000686931460BF056FF013CE1E7D9F8000024
:103E3000B9F844A010B1FCF7D7F980B2B9F82A302C
:103E400082448419B4FBF3F2BAFBF3F39A42B3460B
:103E50001CD0144EAB685445CBDA5A8DB4FBF2F348
:103E600002FB134304F1010913B96869FFF76AFF04
:103E7000AB685B440BF1010493F84A3032460821E9
:103E80002846A3460CF007F84C46E3E74A36064AB4
:103E900009EB0603082128460BF0FDFFA9E700BF48
:103EA0003A4F0100394201004A56010013B58368B8
:103EB0008DF80710D3F868220446D00725D5B3F84B
:103EC0004610B3F844208A421FD0481CA3F846008D
:103ED0000B449DF8072083F84A20A368D3F86812A2
:103EE000890710D5D3F8683260690B4913F0040FC5
:103EF00018BF2A220BF0EEFE20460BF00DFF10B18A
:103F00006069FFF71FFF02B010BD01220DF107012C
:103F100020460BF0CEFFF6E73942010010B583686A
:103F2000094A1B68044602210BF0B5FFA368D3F8C9
:103F300068329B0707D52046FFF70AFF2046BDE8F9
:103F400010400BF001BF10BD4A56010001490CF0B2
:103F500031B800BF54460100F8B50F465168044619
:103F600015461E4611B11A460CF031F8AB6883B104
:103F7000314620460BF0CFFE2046064A3B4608213C
:103F80000BF089FFA968F21D2046BDE8F8400CF04F
:103F90001EB8F8BDCD4901002DE9F04F0F460021B4
:103FA00089B0044616460D4603AA384601F10108B9
:103FB000FFF766FEA8B98DB126B13246082120462A
:103FC0000BF069FFDFF89090DFF890B0002103AAB2
:103FD000384601F1010AFFF753FE60B909B0BDE8A8
:103FE000F08F006810B1FCF7FFF880B2854238BF4F
:103FF00005464146D8E7D0F80080B8F1000F0FD051
:1040000098F8003063B14668154ACDE900584B4630
:10401000082120460BF03FFF26B96069FFF796FFA5
:104020005146D4E74B465A46082120460BF033FF51
:10403000AB1DB2079BB209D131680A4A914205D142
:10404000324641462046FFF787FFE9E71A463146E8
:1040500020460BF0BCFFE3E7F249010028420100D3
:10406000D8490100C40BD286F7B50F6805460E4645
:10407000EFB13846FCF7B8F884B2114B0093082131
:104080003B46104A28460BF006FF7168E31C9BB2C2
:1040900079B18A070DD108680B4A904209D10A46C6
:1040A0003168284603B0BDE8F040FFF755BF3C46F5
:1040B000E3E71A46284603B0BDE8F0400BF087BF9F
:1040C000EE490100DF490100C40BD28610B5074953
:1040D0000446FCF77FF838B105492046FCF77AF82A
:1040E000B0FA80F0400910BD0120FCE7E44901006E
:1040F000E749010008B504480AF080FB03480AF0CC
:104100007DFB002008BD00BFFB490100304A0100D3
:10411000014808F0D1BE00BFAC34010038B50446F8
:1041200018B90F4B0F485B6898476168B1F5683F55
:1041300010D0B1F5680F0DD00B4DA9420AD011F483
:104140006861206807D0014608480DF0CCFE0023C6
:104150002360656038BD14220EF069FBF9E700BFEB
:10416000D80500205E4A01002C5F5CA98C27002046
:1041700008B520B34368B3F5683F10D10122036846
:10418000BFF35B8F53E8001F002903D143E80020F1
:104190000028F7D1BFF35B8F0DD1002008BD094A7D
:1041A00093420AD000684FF0FF324FF0FF3307F020
:1041B0003DFB0028F1D00448F0E70448EEE76FF437
:1041C000E040EBE72C5F5CA9E98FFFFFEA8FFFFF80
:1041D00008B5D8B14368B3F5683F10D10022036831
:1041E000BFF35B8F53E8001F012903D143E8002090
:1041F0000028F7D1BFF35B8F0BD1002008BD074A21
:10420000934208D0006807F089FBF6E76FF4E040BE
:10421000F4E70348F2E70348F0E700BF2C5F5CA92E
:10422000E98FFFFFEA8FFFFF10B5044618B91D4B59
:104230001D485B6898476368B3F5683F2FD0B3F5B6
:10424000680F2CD0194A934219D1236803BB184830
:104250004FF0FF324FF0FF33214607F0B9FA08B9AB
:1042600023681BB90F4B13485B68984720681422DA
:1042700000210EF0DCFA4FF46863636008E0B3F5E8
:10428000683F0DD83A2B03D040F6BA629342DED194
:1042900020680DF073FE636843F03A03636010BD5D
:1042A000054AF3E7D80500205E4A01002C5F5CA9AF
:1042B0008C270020844A01003A00003A08B50649DC
:1042C0000648402314220DF000FEBDE808400449D2
:1042D000044808F063BE00BF8C2200208C27002019
:1042E000B4340100C834010008B50348034A002172
:1042F000121A0BF0EEFE08BD90070020885C00202B
:104300000748084A084908B5121A0BF0E4FE0748A6
:10431000074A0849BDE80840121A0BF0DCBE00BF8E
:10432000000000208C070020A4660100000000208F
:1043300000000020A46601002DE9F047054600AF0B
:104340000C46002963D0DFF808A1DAF800305A07DC
:104350005DD06E468AB0D1E90001A3686A46DFF8F5
:10436000F480DFF8F4C0C2F814C04FF00609C2E9C7
:104370000680C2E9081342F8109F00234FF4415110
:104380005046FEF717F8DAF800305B07B5463ED026
:104390008AB0D4E9030163696A46DFF8C0C053629A
:1043A000C2E905C8C2E9070142F8109F0023504640
:1043B0004FF44151FDF7FEFFDAF800305807B546DB
:1043C00025D088B0E3696A462549D3614FF00409D6
:1043D000C2E9051842F8109F00234FF401515046DE
:1043E000FDF7E8FFDAF800305907B5460FD088B07E
:1043F000A3696A461B49D361C2E9051842F8109FB8
:1044000000234FF401515046FDF7D4FFB546012D6E
:1044100017D1EFF305830E480268520711D06E469C
:1044200088B06A4610495161103BD3610F499161D0
:10443000042342F8103F00234FF40151FDF7BAFF67
:10444000B5462146284606F0FBFFBD46BDE8F0878D
:10445000E0060020734B0100B14A0100E44A01006C
:10446000174B01002A4B01005C4B01007C4B010003
:1044700030BFFFF7FDBF00BF2DE9F0410B4EDFF865
:10448000308006EB0807CC1B05463246094920461A
:104490000EF0A5F9A01942460021083C0EF0C7F91C
:1044A000C5F8B44007F10800BDE8F0810000000045
:1044B00008000000DC300100054B5A699B689A42F5
:1044C0001FBF044A536843F080535360704700BFD6
:1044D0009828002000ED00E02DE9F041694C2368A8
:1044E0000646580700AF0D460FD0E84688B06A462A
:1044F000654B5361654B9361032342F8103F4FF4C2
:10450000C25120460BF0F4FDC546614B9B6AD904AD
:1045100040F19D8023685A070FD0E84688B06A466C
:104520005C4B5361594B9361032342F8103F55484C
:104530004FF4C2510BF0DCFDC5461720544B9B6A6B
:104540001B0513D5236858070FD0E84688B06A4684
:10455000514B53614D4B9361032342F8103F49483F
:104560004FF4C2510BF0C4FDC5461820484B9B6A5E
:10457000990532D523685A070FD0E84688B06A46B5
:10458000464B5361414B9361032342F8103F3D4832
:104590004FF4C2510BF0ACFDC5463D4B996B9B6A85
:1045A0001B0419D52368580710D0E84688B06A461E
:1045B0003B4B5361354B3348C2E90631042342F883
:1045C000103F4FF401510BF093FDC54626B1304A20
:1045D000936A23F40043936219202D4B9B6A5A057A
:1045E00013D523685B070FD06E4688B06A462D4B03
:1045F0005361264B9361032342F8103F21484FF447
:10460000C2510BF075FDB5461A20214B9A6AD605AA
:104610001FD5236859070FD06C4688B06A46224BD5
:1046200053611A4B9361032342F8103F15484FF42E
:10463000C2510BF05DFDA5461B20154A936A43F459
:104640007F43936200232B70BD46BDE8F0811620A6
:1046500074E79B6A9A04F0D523685B070FD06C4619
:1046600088B06A46114B5361084B9361032342F8AB
:10467000103F04484FF4C2510BF03AFDA5461C20F0
:10468000DBE700BFE00600208E4B0100694F010010
:1046900000ED00E0A84B0100BD4B0100D44B010030
:1046A000F14B01000A4C0100294C0100454C01006E
:1046B000B0B5584C23685D0700AF0FD06D4688B089
:1046C0006A46554B5361554B9361032342F8103FA3
:1046D0004FF4C25120460BF00BFDAD46504B9B6A88
:1046E000980140F19580236859070FD06D4688B036
:1046F0006A464C4B5361494B9361032342F8103F88
:1047000044484FF4C2510BF0F3FCAD461E20444B1D
:104710009B6ADA0113D523685B070FD06D4688B01A
:104720006A46414B53613D4B9361032342F8103F6E
:1047300038484FF4C2510BF0DBFCAD461F20384B1C
:104740009B6A1D0313D5236859070FD06D4688B0A7
:104750006A46364B5361314B9361032342F8103F55
:104760002C484FF4C2510BF0C3FCAD4621202C4B1A
:104770009B6A5A0313D523685B070FD06D4688B038
:104780006A462B4B5361254B9361032342F8103F3C
:1047900020484FF4C2510BF0ABFCAD462220204B19
:1047A0009B6A9D0313D5236859070FD06D4688B0C7
:1047B0006A46204B5361194B9361032342F8103F23
:1047C00014484FF4C2510BF093FCAD462320144B18
:1047D0009B6ADA0313D523685B070FD06C4688B059
:1047E0006A46154B53610D4B9361032342F8103F0A
:1047F00008484FF4C2510BF07BFCA5462420084A20
:10480000936A6FEA03436FEA13439362BD46B0BDF8
:104810001D207CE7E0060020784C01005D4F010080
:1048200000ED00E0944C0100AB4C0100C94C0100CC
:10483000EB4C0100144D0100324D01002DE9F04711
:104840006E4D2B688A46590700AF814690460FD0BF
:104850006C4688B06A466A4B53616A4B9361032386
:1048600042F8103F4FF4C25128460BF041FCA546D8
:10487000654B9B6ADA0665D52B685B070FD06C46E3
:1048800088B06A46614B53615E4B9361032342F8E3
:10489000103F5A484FF4C2510BF02AFCA546112490
:1048A000594B9B6A1E0713D52B6858070FD06C46CF
:1048B00088B06A46564B5361524B9361032342F8CA
:1048C000103F4E484FF4C2510BF012FCA546122483
:1048D0004D4B9B6A990737D52B685A070FD06C460A
:1048E00088B06A464B4B5361464B9361032342F8B1
:1048F000103F42484FF4C2510BF0FAFBA546424B21
:104900005E6B9B6A1B0676D52B685C0710D06C46E5
:1049100088B06A46404B53613A4B3848C2E9063684
:10492000042342F8103F4FF401510BF0E1FBA54680
:10493000BAF1000F04D0344A936A23F080039362E3
:10494000132403E01024ABE76FF015062E4B9B6A8F
:10495000D80713D52B6859070FD06C4688B06A4624
:104960002E4B5361274B9361032342F8103F23489A
:104970004FF4C2510BF0BCFBA5461424224B9B6A9A
:104980009A0613D52B685B070FD06C4688B06A4631
:10499000234B53611B4B9361032342F8103F17488D
:1049A0004FF4C2510BF0A4FBA5461524164B9A6A8E
:1049B000D50602D49A6A90070AD55B68190507D50F
:1049C0004946304600F0FAFA10B180F30988022413
:1049D0000D4B9A6A920642BF5A6A22F400525A62FA
:1049E0009A6A42F0FF029A622046002388F800305B
:1049F000BD46BDE8F0876FF01506A1E7E006002090
:104A0000614D0100734F010000ED00E07B4D01009E
:104A1000BD4B0100B24D0100CE4D0100E84D01003B
:104A2000454C01002DE9F0419D4B8AB0D3F804803C
:104A300000AF0446C8F30806002585F31188BFF3CC
:104A40006F8F02F07F43B3F17F4F16D102F00C035A
:104A5000082B26D19348036859070ED06C4688B0BE
:104A60006A46914B5361914B9361032342F8103F87
:104A70004FF4C2510BF03CFBA54600252C46002309
:104A8000FB71F31E092B00F2E580DFE813F00F0045
:104A9000CB00CE00C700E300E300E300E300E30047
:104AA000D10012074CBF0C460125E8E77D4E336864
:104AB0005B070FD0E84688B06A467D4B53617D4B5B
:104AC0009361032342F8103F4FF4C25130460BF07C
:104AD0000FFBC5460023FB71714BDA6A900714D5B2
:104AE000336859070FD06E4688B06A46724B5361DF
:104AF000704B9361032342F8103F6A484FF4C25150
:104B00000BF0F6FAB546002358E0DA6A002A07DA15
:104B100033685A07F7D06E4688B06A46674BE6E7B7
:104B2000DB6A5B00EFD5336858070FD0E84688B0E2
:104B30006A46634B53615F4B9361032342F8103F16
:104B400058484FF4C2510BF0D3FAC546544BA169F3
:104B50005A6942F480725A61BFF34F8FBFF36F8F6F
:104B60005A6931F8021C22F480725A61BFF34F8FE8
:104B7000BFF36F8F4DF60272914209D09A6AD2B29A
:104B8000002A3DD0FA1D01212046FFF757FE47E0DD
:104B90003368590711D06E4688B023686A46494980
:104BA000516144493F48C2E90613042342F8103FCB
:104BB0004FF401510BF09CFAB5462368FA79DAB943
:104BC00007F1080604F1200C20686168324603C230
:104BD000083464451646F7D17A6A002D5BD0C2F3DB
:104BE000080121B96FEA52226FEA42227A6207F184
:104BF00008011846FFF7A0FB2837BD46BDE8F08145
:104C00009A6A12F47F4F04D0F91D0120FFF764FC6B
:104C100006E09B6AB3F5803FFFF475AFFFF748FDF0
:104C20000346CBE7FA1D0021AEE7F91D0020EDE7B2
:104C30001C4803685A073FF466AF6E4688B06A4660
:104C4000214B5361214B9361032342F8103F4FF4F2
:104C5000C25155E7134803685B073FF454AF1C4A41
:104C60001C4B18F4F87FE8468AB018BF13466A4612
:104C7000194951611949C2E9061340F2013393847D
:104C8000103E174B16624FF4315142F8103F0BF0B3
:104C90002FFAC54637E722F4FF7222F00102A5E79A
:104CA00000ED00E0E0060020394E01008F4F0100CA
:104CB000684E0100844F0100834E0100A84E0100A0
:104CC000BA4E0100DD4E0100FD4E01004F4F0100C4
:104CD000204E01000B4E0100254F01003C4F01000A
:104CE00005000001044B5A6942F010025A615A69EA
:104CF00022F008025A61704700ED00E0EFF30880EF
:104D0000EFF3098101B57246FFF78CFE01BD00BFCC
:104D1000002080F31488BFF36F8F134880F3088856
:104D200005F09CF8002011490860BFF34F8F00F098
:104D300033F8202080F311880D484FF0AA014FF47A
:104D400082520BF0C6F90A484FF48251401880F3A2
:104D50000988EFF314800221084380F31488BFF31D
:104D60006F8F00F0FBF80000C09D002094ED00E084
:104D7000407500200749D1F890200023C2F3072294
:104D80001846934200DB7047C1F89830C1F8A00084
:104D90000133F6E700ED00E008B572B6002383F3B7
:104DA0001388FFF7E7FF144B4FF0FF32C3F8802062
:104DB000C3F88420C3F88820C3F88C20C3F890205F
:104DC000C3F89420C3F89820C3F89C20C3F880212E
:104DD000C3F88421C3F88821C3F88C21C3F890213B
:104DE000C3F89421C3F89821C3F89C2162B6BFF39D
:104DF0004F8FBFF36F8F08BD00E100E0084B9B6849
:104E000083420BD1EFF3058343B1064B5A6842F05E
:104E100080525A605A6A22F400425A6207F000BC7B
:104E20009828002000ED00E015498A684FF0300016
:104E30001044EFF3098C80E8F01F202080F31288E3
:104E4000BFF36F8F0F4F4FF000664A698A603E6074
:104E5000D2F8B4000C4C2060D2F8B8000023C2F89D
:104E6000B83080F3118804B5104600F00FF9BDE8A2
:104E7000044002F1300090E8F01F8CF3098870477D
:104E80009828002004ED00E0A82700201EF0040F61
:104E90000CBFEFF30880EFF30980816911F8021C61
:104EA0000229FFD001B572460BF017F901BD00BF12
:104EB00040B2002807DB044A4109012300F01F002B
:104EC000834042F82130704700E100E040B2002802
:104ED0000CDB4309064900F01F0020330122824009
:104EE00041F82320BFF34F8FBFF36F8F704700BF90
:104EF00000E100E0054B420900F01F0053F82220BA
:104F0000012303FA00F01040704700BF00E100E009
:104F100040B20028A8BF00F1604001F10101B8BF14
:104F2000064B4FEA4111ACBF00F5614000F00F00A5
:104F3000C9B2B4BF195480F80013704714ED00E0F3
:104F4000044B054A23F07F039360BFF34F8FBFF3F9
:104F50006F8F70470000000000ED00E008B5FFF71C
:104F6000EFFF074AD2F8883023F47003C2F8883084
:104F7000FFF7BAF9FFF7C4F900F05EF806F0AEFBF0
:104F800000ED00E042F8203C009B42F81C3C0A493E
:104F9000019B42F8183C029B42F8143C21F00101AD
:104FA0004FF0807342F8043C42F8081C0023203A7A
:104FB0000265C0F8B83070471D1200000A4A034667
:104FC000906878B113F1160FD0F8A40005D0A0F1C5
:104FD00040029A4205D8834203D2814228BF002072
:104FE00070470020704700BF9828002008B515467C
:104FF0000C4A0D4B9060D0F8B4201A600E4600F0B9
:1050000045F82C4686F309880020044B9847204633
:10501000002100220023024C20470000050101006E
:105020001D12000098280020A8270020014B102204
:105030001A61704700ED00E0044800232021C218E7
:105040000133302B82F80013F9D1704700E100E002
:1050500008B5EFF30583064A103B02EBC30152F893
:10506000330049688847BDE80840FFF725BA00BF0C
:10507000102C0100024B034A0348012100F0BCB888
:105080000000042000000020D8340100D0F8A42043
:10509000054B403A1A60054A4021C3E901121846FF
:1050A000012100F0B3B800BFAC27002000000B15B1
:1050B00098B503460C480268520700AF10D06C4602
:1050C00088B06A46094951610949C2E906130423B7
:1050D00042F8103F00234FF40151FDF76BF9A5464C
:1050E0006FF01500BD4698BDDC0600209B4F010007
:1050F000EC4F010010B40E4CD4F89030C3F30723EA
:10510000013B984202D910BCFFF7D2BFC4F8980007
:105110000B6823F01F03034343F01003C4F89C30D3
:105120008B6843F00103C4F8A03010BC704700BF87
:1051300000ED00E02DE9F04184B00E4600AF984646
:1051400004460025B5421FDA6068002835D0B8F162
:10515000000F23D0411E08421BD0194803685B078B
:1051600010D06C4688B06A46164B5361164BC2E9A4
:105170000635042342F8103F00234FF40151FDF798
:1051800019F9A5466FF0150210461037BD46BDE867
:10519000F0811F28E1D923681942DED123687B60A2
:1051A0000AF0D3FFA368391D0343D0B2FB60FFF7B9
:1051B000A1FF10F1160FE5D0421C01350C34C1E7F8
:1051C000DC060020C54F010005500100044B0522FC
:1051D000C3F89420BFF34F8FBFF36F8F704700BFAA
:1051E00000ED00E0BFF35F8F024B0022C3F8942074
:1051F000704700BF00ED00E010B5034C012322789A
:10520000FFF798FF207010BDEC3B002008B50B4A5B
:1052100000231278FFF78EFF10F1160F07D0084A0F
:105220000021D2F89030C3F30723984200DB08BD79
:10523000C2F89800C2F8A0100130F2E7EC3B002061
:1052400000ED00E02DE9F0435E485F49D0F8903072
:105250000D68C3F307239D4285B000F2B080FFF7CD
:10526000C1FF49680022954201F10C011BD1574C46
:10527000574F25706846FDF785FCDFF85881DFF849
:10528000589106460025AE4220D123784D49002092
:10529000D1F89020C2F307229342C0F28A80FFF730
:1052A00095FF00204FE0C0F8982051F80C3C23F007
:1052B0001F03134343F01003C0F89C3051F8043C23
:1052C00043F00103C0F8A0300132CCE7009800EBB6
:1052D00005114FEA051CCB683B40B3F5000F49D0E0
:1052E0000AD8B3F5001F31D0B3F5800F37D0B3F52E
:1052F000801F13D00135C6E7B3F1007F43D0B3F16F
:10530000805F49D0B3F1807FF4D150F80C308868C9
:105310004A680AF01AFF40F0887009E050F80C3033
:1053200088684A680AF011FF40F0885040F4302045
:10533000039001A92078CDE90123FFF7DBFE0028C7
:1053400033DA6FF0150005B0BDE8F08350F80C308B
:1053500088684A680AF0F9FE40EA0900E8E750F870
:105360000C3088684A680AF0F0FE40F0007040F4A3
:105370000030DDE750F80C3088684A680AF0E5FE36
:1053800040F08270D4E750F80C3088684A680AF020
:10539000DCFE40F48020CBE750F80C3088684A6887
:1053A0000AF0D3FE40EA0800C2E7237801332370F5
:1053B000A0E7C1F89830C1F8A000013368E74FF0CA
:1053C000FF30C0E700ED00E0E4340100EC3B0020DA
:1053D0000000F0FF0000021100000811F0B587B0D6
:1053E00007460E4614460021102268461D460DF061
:1053F0001EFA02238DF802302A46054B01932146FE
:105400006846CDE9047608F02DF807B0F0BD00BF7E
:105410006B01010008B5024B1B689847002008BDCE
:10542000B8270020034B044A1860937843F0020326
:1054300093707047B8270020B803002008B50649CC
:10544000064821F00701C1F1005202F5802209F05F
:1054500025F9002008BD00BF47CE0020BC27002052
:10546000044A0123C2F840354FF080420020C2F8C0
:105470007835704700E0014048B1054B054A1B688C
:10548000B3FBF2F35843044B43F001031847704752
:10549000C405002040420F00E0300100BFF34F8FF1
:1054A0000549064BCA6802F4E0621343CB60BFF3C0
:1054B0004F8F00BFFDE700BF00ED00E00400FA05DC
:1054C00010B5094C0A44914200D110BD11F8013BBE
:1054D000584003090001E35CC0B2434018091B01B6
:1054E000205CDBB25840EEE72E50010030B50D4D88
:1054F000C0430A44914201D1C04330BD11F8013B81
:1055000083EA000404F00F0455F8244084EA1010E4
:1055100080EA131303F00F0355F8233083EA1010C9
:10552000E8E700BF04350100084B70B5C31A0D460B
:1055300007499B1004465943064840220AF030FEB2
:105540002B4601462046BDE870401847DC27002066
:10555000B76DDBB6C02A010073B50C4C0C4A402372
:10556000041B00930D460B460A49A41061430646EE
:1055700009480AF040FE011E05DA30462B4602B00B
:10558000BDE87040184702B070BD00BFDC270020A6
:105590005F020100B76DDBB6C02A01000022F8B53A
:1055A000012105461046FFF7B3FC104804F046FD04
:1055B0000446B8B904F062FD2F690D49384609F078
:1055C000EAFB031E09DB01263E642D69084905F14B
:1055D0001C0009F0E0FB031E02DA1C462046F8BD61
:1055E000EE64FBE76FF00404F8E700BF215700000A
:1055F000443501001FB500220123CDE90223094AE9
:10560000CDF800D06B46CDF804D00AF021FE00287A
:1056100005DB4FF480420023684606F003FA05B02C
:105620005DF804FB7102010010B5EFF31184202333
:1056300083F31288BFF36F8F074A136823F00201C8
:10564000DB07116002D401200BF086FD84F3118882
:10565000BFF36F8F10BD00BF2C28002030B4104B5B
:105660000C2202FB003301460020D3E90E5298635E
:10567000EFF31180202484F31288BFF36F8F1C6C2A
:1056800004F0C00444F002041C6480F31188BFF3EA
:105690006F8F1DB12B46034830BC184730BC704794
:1056A000DC270020C02A010010B4EFF31182202370
:1056B00083F31288BFF36F8F1748016841F002042B
:1056C0000460C80707D482F31188BFF36F8F0120ED
:1056D00010BC0BF039BD4FF08041D1F80C04D1F86B
:1056E0000C14C907EFD5EFF3118083F31288BFF3D1
:1056F0006F8F0A490B6C03F0C00343F002030B6485
:1057000080F31188BFF36F8F82F31188BFF36F8F1F
:10571000002010BCFFF7A2BF2C280020DC270020AF
:1057200010B1012804D07047034B1B6C5B0701D1FB
:10573000FFF794BF704700BFDC2700202DE9F04140
:105740003849BFF35B8F0746012251E8003F41E82B
:1057500000200028F9D1BFF35B8F33B932493348B9
:105760004B60CB608A6009F029FB7B1E012B2BD894
:10577000012F07D14FF08043D3F81C3403F003030B
:10578000012B21D00CF0CAFC0546F8B9284B1B7838
:10579000E3B14FF080430222C3F808230646DFF846
:1057A00094804FF08044D4F81824D4F81834D203ED
:1057B00015D503F00303012B01D0012F0FD155B3F1
:1057C00086F31188BFF36F8FBDE8F081EFF3118688
:1057D000202383F31288BFF36F8F0125DFE7ADB17C
:1057E00030460AF0A3FCD4F81835002BDBD1D4F8EE
:1057F0000421002AD7D0C4F80431D4F8043101239D
:10580000C4F81835C8F88031A360CCE70021212006
:105810000CF034FDE7E74FF080430222C3F8042385
:10582000D2E700BFD8270020C8270020F827002093
:10583000835C002000E100E010B5044C2046FBF73B
:10584000E7FC2046FFF7EEFD002010BD5158000098
:1058500073B5104E8DF807000446032501220DF1A3
:105860000701002005F058FD20B1012333702046C8
:1058700002B070BD3378002BF9D0013D08D00CF098
:105880004DFC0028EAD1002142200CF0F7FCE5E7AE
:105890003570ECE7ED3B0020024B0B6001231360F9
:1058A000704700BF3028002000487047683501006D
:1058B000B0B503460D480268520700AF11D06C46E0
:1058C0008AB06A460A4D55610A4D1162C2E9065313
:1058D000052342F8103F00234FF42151FCF76AFDE5
:1058E000A5466FF01500BD46B0BD00BFB80600204C
:1058F00067500100CD50010010B501221146064845
:10590000064C0CF042FB0BF03CFF20600BF035FF27
:105910006060002010BD00BF382800203028002023
:105920004FF08042D2F81015D2F8103501F01E0168
:1059300023F01F030B4343F00103C2F81035024B61
:1059400000221A70704700BFEE3B00204FF08053DA
:10595000D3F83031082B20D14FF08042D2F8101507
:10596000CB071AD5D2F8103501F01E0123F01F0322
:105970000B43C2F81035D2F808315BB1D2F81035BC
:1059800023F01F030B4343F00103C2F810356FF0FF
:105990008B007047024B01221A700020704700BF35
:1059A000EE3B00202DE9F84300AF894615460BF089
:1059B000E4FE2946064648460AF0CBFC034600288A
:1059C0004AD0B9FBF6F306FB1393C84623B9B5FBDF
:1059D000F6F406FB1454C4B128480368590711D0E3
:1059E0006C468AB06A46264B5361264B1562C2E963
:1059F0000639052342F8103F00234FF42151FCF7EC
:105A0000D9FCA5466FF015041FE0B5421DD34FF039
:105A1000FF324FF0FF331C48DFF8709006F002F8B9
:105A20000BF0ABFE0646FFF791FF044688B94046EF
:105A300004F0D6FD99F800300BB1FFF771FFAD1BF4
:105A4000B044F0D1104805F0B9FF2046BD46BDE88E
:105A5000F8836FF08B04F5E7084802685207D1D04D
:105A60006C468AB06A460A49516106491562C2E924
:105A70000619052142F8101FBFE700BFB806002035
:105A800088500100EC50010038280020EE3B002037
:105A9000675001002DE9F0470E4600AF1946304629
:105AA0001C4690460AF055FC0346D0B92F480268C0
:105AB000510710D06D468AB06A462D4951612D4973
:105AC0001462C2E90616052142F8101F4FF4215155
:105AD000FCF770FCAD466FF015042046BD46BDE8EE
