:10000000006E002085270000AF95000071270000DA
:100010007127000071270000712700000000000018
:10002000000000000000000000000000ED280000BB
:1000300071270000000000008D28000071270000DB
:10004000A92A0000A92A0000A92A0000A92A000064
:10005000A92A0000A92A0000A92A0000A92A000054
:10006000A92A0000A92A0000A92A0000A92A000044
:10007000A92A0000A92A0000A92A0000A92A000034
:10008000A92A0000A92A0000A92A0000A92A000024
:10009000A92A0000A92A0000A92A0000A92A000014
:1000A000A92A0000A92A0000A92A0000A92A000004
:1000B000A92A0000A92A0000A92A0000A92A0000F4
:1000C000A92A0000A92A0000A92A0000A92A0000E4
:1000D000A92A0000A92A0000A92A0000A92A0000D4
:1000E000A92A0000A92A0000A92A0000A92A0000C4
:1000F000A92A0000A92A0000A92A0000A92A0000B4
:100100007BB972B90029BEBF00204FF0004106E064
:1001100008BF00281CBF6FF000414FF0FF3000F017
:1001200057B8ADF1080C6DE904CE002909DB002BAE
:100130001ADB00F057F8DDF804E0DDE9022304B033
:100140007047404261EB4101002B1BDB00F04AF895
:10015000DDF804E0DDE9022304B0404261EB410137
:10016000524263EB43037047524263EB430300F098
:1001700039F8DDF804E0DDE9022304B0404261EB28
:1001800041017047524263EB430300F02BF8DDF866
:1001900004E0DDE9022304B0524263EB43037047FD
:1001A00053B94AB9002908BF00281CBF4FF0FF31DE
:1001B0004FF0FF3000F00CB8ADF1080C6DE904CE43
:1001C00000F010F8DDF804E0DDE9022304B0704728
:1001D000704700BF034613F8012B002AFBD1181A01
:1001E000013870472DE9F04786468C460846089E40
:1001F000154674461946002B40F0C2808542B2FA7B
:1002000082F245D94AB1C2F1200300FA02FC2EFA6B
:1002100003F3954043EA0C0C94404FEA154EA8B204
:10022000BCFBFEF8230C0EFB18CC08FB00F943EADC
:100230000C43994528D9EB1808F1FF3704D29945AA
:1002400002D9A8F102072B44A3EB0903A4B2B3FB24
:10025000FEFC0EFB1C330CFB00F044EA0344A042FE
:1002600014D92C190CF1FF3304D2A04202D9ACF1FD
:1002700002032C44241A43EA07401EB1D440002351
:1002800034607360BDE8F0874746DDE76346F1E719
:1002900092BB431B01214FEA154EAFB2B3FBFEFCEC
:1002A000200C0EFB1C330CFB07F840EA0343984577
:1002B00062D9EB180CF1FF3004D2984502D9ACF1A9
:1002C00002002B44A3EB0803A4B2B3FBFEFC0EFB1D
:1002D0001C330CFB07F744EA0344A7424ED92C1900
:1002E0000CF1FF3304D2A74202D9ACF102032C4433
:1002F000E41B43EA0040C0E7C2F1200320FA03F107
:10030000954090402EFA03F303434FEA154EAFB2E7
:10031000B1FBFEFC0EFB1C10190C0CFB07F841EAAC
:100320000041884504FA02F422D969180CF1FF3023
:1003300004D2884502D9ACF102002944A1EB08019E
:100340009BB2B1FBFEFC0EFB1C110CFB07F743EA52
:1003500001439F420ED9EB180CF1FF3104D29F42AA
:1003600002D9ACF102012B44DB1B41EA004192E7C8
:100370006046E3E76146F7E76046A3E76346B7E711
:10038000834206D916B9002108467BE7C6E900E09A
:10039000F9E7B3FA83F78FB9834201D3724508D8DE
:1003A000BEEB020460EB030301209C461EB9002152
:1003B00068E73846FAE7C6E9004CF8E7C7F1200CD1
:1003C000BB4022FA0CF41C432EFA0CF120FA0CF379
:1003D000B84001434FEA14490EFA07F5B3FBF9F8A8
:1003E0001FFA84FE09FB18300B0C08FB0EFA43EAD7
:1003F00000439A4502FA07F240D9E31808F1FF30AA
:1004000004D29A4502D9A8F102002344A3EB0A03BF
:1004100089B2B3FBF9F809FB183308FB0EFE41EA79
:1004200003418E452CD9611808F1FF3304D28E4563
:1004300002D9A8F10203214443EA0040A0FB02983C
:10044000A1EB0E014145CE46434602D306D14D45B0
:1004500004D2B9EB020E68EB04030138002EA6D0DB
:10046000B5EB0E0261EB030101FA0CFC22FA07F373
:100470004CEA0303F940C6E9003198E74046C5E776
:100480004346D9E7000000002DE9F04F87B005464C
:10049000039117461E46836804AA5B6898470028A4
:1004A00031DBDDE9044AA7FB04B307FB0A375846F2
:1004B00019A3D3E900233946FFF772FEDFF8608005
:1004C00002904FF0FF39D94578EB07031ED3A6FB06
:1004D00004B406FB0A4410A3D3E90023214658467E
:1004E000FFF75EFED94578EB040403460ED302996C
:1004F000AA6899420DD3BDF84010009114682846AF
:10050000DDE90221A04707B0BDE8F08F6FF085005C
:10051000F9E76FF01500F6E700CA9A3B000000000B
:10052000FFC99A3B2DE9F04F83B06C4602AF88B00B
:1005300002AA264B5361264D9561032342F8103FD2
:10054000244800234FF4C65100F0C2FF224B234839
:100550000ECBA54605F07EF9214C00214FF48030EA
:100560000AF0C6FC94E80E001C4805F073F900215F
:100570004FF400300AF0BCFC94E80E001748DFF896
:1005800064B0DFF850A005F0CFF900244FF4004824
:100590004FF000096E4688B002AA0323C2E905B5F0
:1005A00042F8103F002350464FF4C65100F090FF30
:1005B0002246B54684F00104CDE90089C2EB02224F
:1005C000C4EB0421054805F0EFF9E3E7A0BA000009
:1005D000CFBA000030B60000F4B6000094B30000BB
:1005E000E8B60000C5BA00002DE9F04F91B08407CD
:1005F000009302F004030293C2F3C20303F1010368
:10060000DDF86880039205460E46059340F0BA81F6
:10061000041D30B1072909D86FF01B0011B0BDE8E7
:10062000F08F01F007063444C6F10806009B4FF036
:100630000009591E4FF0040A4FF0FF330193CDF823
:1006400010904F46CB4653460DB1009A2260059854
:10065000002800F3E8809848009A824203D3974824
:100660008242C0F0E080039AA4EB050E92074FEAA5
:100670009E0000F103810F2F00F2B180002D00F0E9
:10068000058107F140020DEB020C019A0CF8200CD9
:100690000CF8102C049801300490E7E07A285DD81B
:1006A0004B280ED8472859D829282DD8252852D08C
:1006B00054D820287AD02338D0F1000B4BEB000B14
:1006C00074E04C382E2849D8DFE800F070484848DC
:1006D00048484848484848484B4848484848484897
:1006E0004859484B4B595959704B6D487048184BF5
:1006F000184848827F4B48484B487F0000204FF005
:10070000000B4FF0040A38E02A38C0B2012202FA86
:1007100000F010EA0E0F49D110F0625C2FD110EA00
:10072000020B43D06046013C5444B4FBFAF40AFB8C
:1007300004F4002D61D0A3EB050CA444B4453FF6AE
:100740006BAF002868D1042B47D158F8043B2360D5
:10075000043404232AE0019A013A01924FF0000B7D
:1007600024E011F8010C6C2834D111F8023C00206F
:100770006C2B8346C5D14FF0080A5346D3E708F1E6
:10078000070828F007080734F8E802AB24F007044C
:1007900035B106982044B0423FF63EAFC4E900AB05
:1007A00008344FF0000B4FF0080A534611F8010FC0
:1007B000002878D0BBF1000F7FF470AF2528F5D169
:1007C000019B013301934FF0010B4FF0040AECE75A
:1007D000584694E700208346A5E7082B02D06FF027
:1007E00015001BE708F1070828F00708F8E80223BE
:1007F000C4E9002308340823D8E768B9042B02D1E0
:1008000008F10408A4E7082BE9D108F1070828F04B
:10081000070808F10808EDE7059A013A059258F82B
:10082000042B009210E7039A900720D5A4EB050E45
:100830004FEA9E004FF0010CBEF5007FCFD20F2F84
:10084000CDD8F5B107F140020DEB020EC0B2019A0E
:100850000EF8200C0EF8102CBCF1000F3FF41AAF6C
:1008600060F07F000EF8200C09F101090137C5F195
:100870000802043406924FF6DA7E97E74FF0000C38
:10088000DAE7BCF1000F01D00136EFE7029802363B
:100890000028EBD10098CDE90631FFF79BFCDDE99C
:1008A00006310644E2E7631BB3F5806F97D23DB98A
:1008B000A6F10804E018B1E604B2000030D0000050
:1008C000029A28609B082B709DF81030C2B1EB7023
:1008D00085F80290B9F1000F05D008A80022C5F1F3
:1008E000010C97420ED1C5F101030DF120084FF024
:1008F000000A01930DF1300B574512D1601B8DE6B4
:100900006B70E5E710F8013B190608D50CEB040EF7
:10091000B64503F07F033FF67FAE04F8013B01329A
:10092000DFE7B9F1000F03D098F90020002A17DBA8
:10093000029BD3B11AF80B2004F8012B0022019B73
:1009400018191044B0423FF667AE98F8000004F85A
:10095000010B0099039220460AF012FC039A1444FA
:100960000AF1010A08F10108C6E798F8002055F8D5
:1009700022300093029B45F822300098FFF72AFCB2
:10098000421CDCE76FF00D0048E600BF2DE9F04F98
:1009900097B000AF90F802A0D7F880B03B62CBF3DD
:1009A000C0030446FA62BB61894641B945780078C4
:1009B0000AEB800020444D4517D8A0EB0409E378EA
:1009C000FB61BAF1000F02D01BF0010F16D1FB69D9
:1009D00053BBFB6A1BB13A6A4946204698474D46CD
:1009E00028465C37BD46BDE8F08F461C3046FFF711
:1009F000F1FB0130304409F10109DCE7237862683A
:100A00007A62FA6A9900796104EB8301002A40F066
:100A100002814D460E4601EB0A094FF000084E4593
:100A20004ED101EB0A0610E01BF0020FD1D0237863
:100A30009A007A6162687A62FA6A04EB8301002A9A
:100A400079D14D4601EB0A0690461BF0050F0CBF0D
:100A500002230123FB62FB6906EB430A0BF002034E
:100A6000BB625645BCD016F8021B16F8013C54F880
:100A700023909A4B994502D3994B994538D3BB693A
:100A8000002B42D0786A08F028F900283DD0E946CA
:100A90008AB06A46934B5361934B93617B6AC2E978
:100AA000073140F201339384904B42F8103F904855
:100AB00000234FF4325100F00BFD023DCD46D0E74C
:100AC00016F8013BF96254F82300FFF783FBD7F8CF
:100AD0008430F96A01304BB1D7F8883098453EBF71
:100AE000D7F8843023F8180008F10108054496E788
:100AF000BB6923B1786A08F0F0F80028C7D11BF071
:100B0000010F05D1FB6AED1AABE7BB6A002BA8D039
:100B10004846FFF75FFBD7F8843053B1D7F88830E9
:100B200098453FBFD7F88420431C22F8183008F1BD
:100B30000108054495E7BAF1000F72D01BF00408D4
:100B400072D0D04607F14800002652463B61B96298
:100B50000AF016FBB96A3B6901EB0A02BA62FA694C
:100B6000F9695200FA60BA6A02EB41023A610BF08D
:100B70000202BA603A69B96A8A4257D162787A62E7
:100B80001BF0020F32440CBF4FEA580100211BF04A
:100B9000010FD2B240F09F801BF0040F14BF4046FB
:100BA0000020BB616270A070E1703A6A7969FB6AEB
:100BB00020469847051EFFF613AFBB6923707B6A7A
:100BC0006370FB69E37041463A6AFB6A84F802A0ED
:100BD00007F148009847B0F10008C0F2BD807B697A
:100BE0003A6AA9EB0A01C91AFB68C91AD7E90A03CC
:100BF00098470028C0F2B280A84408EB00054FF0E7
:100C0000000B07F1380AB34574D300213A6AFB6A36
:100C100008469847E4E6564607F138004FF00008CA
:100C200093E7D046564697E7464695E7BA6A12F8E4
:100C3000021BBA6212F8015C284A54F8250090425F
:100C400002D3274A90421ED3BA6932B1786A7B60D8
:100C500008F043F87B6800288CD1BA6802BB08F121
:100C6000280207F1300C08F10100944407F1580202
:100C700052FA80F008F102080CF8101C5FFA88F8AC
:100C800000F8105C76E7BA693AB1786A7B6008F0E0
:100C900024F87B6800287FF46DAF1BF0010F09D0AA
:100CA00006F1280207F13000711C161806F8205CC6
:100CB000CEB25FE71BF0040F3FF45CAF08F12802EF
:100CC00007F1300008F1010102EB000808F8105CA0
:100CD0005FFA81F84EE7002063E700BF04B200002E
:100CE00030D00000D9BA000080BB00000500000130
:100CF000D0B500001BF80A3087F8373054F823903D
:100D0000D7F884302BB3D7F888309B4521D2D7F859
:100D1000843033F81B803A6AFB6A012107F13700FF
:100D2000984700281ADB0544B8F1000F06D1484661
:100D3000FFF750FA00F101081FFA88F83A6AFB6AD7
:100D4000414648469847002808DB05440BF1010B53
:100D500059E74FF00008DEE7454641E605463FE625
:100D600080B505460E461746984606F0BBFE03467C
:100D70000AF03EFADFF81890044649F8003042467F
:100D800030463946A84754F8090001F069FD00BF14
:100D9000080000002DE9F047058B0446280790461F
:100DA00011D4022905F0070540F0CC80204608F058
:100DB00037FA78B10138218B042811D8DFE800F028
:100DC000C2106D85950001290CBF45F0100545F056
:100DD0002005258388F31188BFF36F8FBDE8F08766
:100DE00001F0070AAA4500F0A5800027B9463E4653
:100DF000A368002B00F0BC8041F00801218388F338
:100E00001188BFF36F8FA168002900F0BA800D68C8
:100E1000002900F0B680D1F80480334652462046BF
:100E2000C047002D76D02B6829461D46F0E701F01B
:100E300007035A1F012A1BD8002221F00701062BA5
:100E4000276889B2C4E9002209D13B4603E0628BDE
:100E5000013262831B68002BF9D141F0020121832A
:100E6000204608F0DDF900287AD041F0200176E034
:100E7000042B0AD121F0070189B22183204608F012
:100E8000CFF910B141F020012183218B01F0070A35
:100E9000AA454FD00027B946AAE7236921F00701E8
:100EA00041F00601062DD3F8009021832DD1B9F130
:100EB000000F3FD041F00801218388F31188BFF370
:100EC0006F8F3A492046C84729E021F0070123697E
:100ED00041F0040189B2042DD3F804902183E6D0B7
:100EE00000273E464FF0040A82E721F007012369FC
:100EF00041F0050189B2052DD3F808902183D6D0A1
:100F000000273E464FF0050A72E700273E464FF0A5
:100F1000060A6DE72B4687E7B9F1000FD1D1EFF351
:100F20001188202383F31288BFF36F8F238B23F064
:100F300008032383258BEA062ED525F0100323838F
:100F400005F007056669218B002EBFF670AF002300
:100F50002768C4E9003321F0070141F00101218332
:100F6000218B01F0070AAA454FF000097FF440AF3A
:100F7000002F9CD041F00801218388F31188BFF332
:100F80006F8F002FC8D03D68394633465246204601
:100F900008F072F92F46F4E7AB067FF51BAF25F09A
:100FA0002003238305F0070500E700BFA59200009A
:100FB0002DE9F047DFF85880044607464FF0010955
:100FC00014B93846BDE8F08794FAA4F5B5FA85F56A
:100FD00009FA05F32E0108EB05156FEA030A24EA66
:100FE00003042B7B002BEBD058F806301B694BB960
:100FF0004644042273682846196807EA0A0708F07D
:101000001BFADDE7284698470028D9D1F0E700BF52
:1010100068B6000030B51049104889B000220AF0C7
:101020000BF80F4D0F4900220023CDE906230024C1
:101030000E23CDE90334CDE901440B4B00944FF46A
:101040000062284606F09AFA0849284609F0BAFED6
:10105000204609B030BD00BF71100000501A0020BA
:10106000C8090020403D00209D130000B5BB0000D2
:10107000014806F027B800BF040900202DE9F04719
:10108000804621480F4608F0B7F90646002833D0BD
:1010900000252846BDE8F087237B83B12368DB6801
:1010A0000BB120469847636883F8069023681B6954
:1010B000D3B9636804221968204608F0BDF90136E7
:1010C00010345445E8D3B8F1000FE2D0002DDFD042
:1010D0002846FFF76DFF0546002FF7D000214FF49B
:1010E000A47009F005FFF1E7204698470028E0D0FA
:1010F00009FA06F31D43E2E7044CDFF814A00546A5
:101100004FF00109DDE700BFA81F002068B600000E
:1011100078B60000014B53F82000704714B7000068
:1011200008B5034608462BB1044A136000F078FC6A
:10113000002008BD6FF01500FBE700BF7806002017
:1011400010B5044C237813B9034805F0BBFF012305
:10115000237010BDEC2700200409002010B50446C0
:101160000B4808F049F95CB1BFF35B8F094B53E8BA
:10117000001F013943E80012002AF8D1BFF35B8F4A
:10118000054809F065FF0548BDE8104005F09ABF25
:10119000A01F0020A41F0020501A002004090020D6
:1011A0000020064BBFF35B8F014653E8000F43E876
:1011B0000012002AF9D1BFF35B8F7047A01F0020F7
:1011C00070B5FFF7EDFF084C084E0546B44200D35A
:1011D00070BD63685B792BB123685B6813B12946E6
:1011E000204698471034F1E768B6000078B6000052
:1011F00010B5044C0449204607F0A4FE034B1C60C4
:1012000010BD00BF6408002000B70000981F002038
:101210000D4A0E48002310B513700D4A13600D4A95
:101220004FF400411360FFF77BFFFFF7E1FF0A4B2C
:101230000A4918468B4200D310BD1A1A5C68121175
:10124000013222711033F5E7ED270020F5930000FD
:10125000A01F0020A41F002068B6000078B6000080
:10126000014600220148002307F08DBE64080020DB
:10127000014807F026BF00BF64080020024B01466A
:10128000186807F079BF00BF981F0020014807F0D9
:10129000AEBF00BF6408002070B5294B1878002845
:1012A0004DD0FFF7E5FF0546002845D1254B264CDC
:1012B0001B68002B19DD09F0BDFE4FF47A72A0FB0C
:1012C000020302FB0131C30BD4E9002043EA41438E
:1012D0009B1A4FEAD13140F2E93261EB00019342AF
:1012E00071F1000101D3FFF76BFFD4E9003213F570
:1012F0007A7342F10002C4E90032BDE87040FFF7A2
:10130000C5BF63685B7923B1236829461B68204603
:1013100098471034B442F4D32846FFF7AFFFBFF329
:101320005B8F0A4B53E8001F013943E80012002A83
:10133000F8D1BFF35B8FB9E7054C064EEAE770BD05
:10134000EC270020A01F0020481A0020A41F002026
:1013500068B6000078B6000070B50D4D297861B907
:101360000120FFF78BFE0B4C0B4EB44206D3FFF768
:1013700093FF0028FBD101232B7070BD63685B795C
:101380001BB1236820469B6898471034EDE700BFE7
:10139000ED27002068B6000078B6000000212DE996
:1013A000F0470846FFF76AFE044658B340F2676804
:1013B0004FF0000909F01CFF1B4B1C4A1B5813601F
:1013C00033B11B4B1B68002B02DD1A4805F07AFE77
:1013D000194FDFF860A0002544B12046FFF7E8FD73
:1013E000044618B94FF0FF384FF0FF39FFF754FFAC
:1013F000064628B9B5B942464B46504605F096FE1A
:101400003546E9E74FF0FF384FF0FF39D2E72B6858
:101410009B691BB100221146284698471035BD42F2
:10142000F5D3E8E7054DFAE7080000009C1F00200F
:10143000A41F00200409002078B6000068B6000050
:1014400010B50F4807F0D8FF0E4B1B786BB1EFF3C8
:101450001184202383F31288BFF36F8FFFF71CFFE3
:1014600084F31188BFF36F8F10BD074B1B68002BEF
:10147000FAD00028F8D10548BDE8104005F022BE9A
:10148000A41F0020ED2700209C1F0020040900203D
:1014900010B5064B1B68044698472146A0600448D7
:1014A00007F0F0FDBDE81040FFF7CABF7806002046
:1014B00064080020044A054B9B1AB1EBD30F34BFDC
:1014C00052F8310000207047D0B5000068B6000027
:1014D0002DE9F04F8FB004AFC1F34A28B8600D4634
:1014E00091467B600C0DB8F1000F65D0002607F126
:1014F00014034FF0040B4FF00A0AC7F80C80C7E939
:1015000007667E620193CDF808B0CDF800A007F120
:101510001C03F96832464846FFF738FAB0F5006F09
:1015200003461ED36C468AB0D9F8041004AB274892
:1015300058612748C3E9060140F2FF7119621A4653
:1015400040F201319984234B42F8103F2248334640
:101550004FF43251FFF7BCFFA5462C37BD46BDE81E
:10156000F08FC0F30A0804F11700184420F00700B8
:1015700080083B60FFF774FE68F35325044690B182
:101580003B68164AC7E9083600F1100107F1140359
:10159000F961CDE900A3CDF808B0F96807F11C03A3
:1015A0004846FFF7F3F968F353257B68B9682A4684
:1015B000204607F061FFD0E704F1170020F0070094
:1015C0008008FFF74DFE0446EDE700BFCABB0000F0
:1015D00063BC00000500000120B600004B94000031
:1015E0002DE9F04F87B002AFD7E91069BD6B796084
:1015F0000446934698462EB3C7F80C90CDF8009059
:10160000FA6B334610210020FEF7EEFFB0F5006FB5
:10161000824618D36C4688B002AA1D4B53611D4BFD
:10162000936140F2FF73D361042342F8103F1A48DC
:1016300000234FF40251FFF74BFFA5461437BD4678
:10164000BDE8F08FB24605F11700504420F00700C6
:1016500004F007048008FFF703FE0BF0070BE4001B
:1016600044EA8B1444EA4A2444EA0554054640B14E
:101670003EB1CDF80090FA6B334651461030FEF77C
:10168000B3FF796843462246284607F0F5FED5E7C2
:101690000DBC000049BC000020B60000406820B12D
:1016A000034BC01A40F3CF0070474FF0FF30704734
:1016B000D0B500000EB403B503AB014653F8042BBC
:1016C0000448019301F0ACFB02B05DF804EB03B0F9
:1016D000704700BFE1940000CA0605D48B064CBFDA
:1016E00002490349FFF7E6BF704700BF18BD00007D
:1016F00017BD00002DE9F04F89B09B46149B06935F
:101700009DF84CA0159B0593169B179E04930446C9
:101710000D469046BAF1000F00F09D8006F48073EC
:10172000079307F087FE06F00209024600283ED024
:1017300091492046FFF7BEFF0746B9F1000F08D0D8
:1017400016F0440F35D18D492A462046FFF7B2FFE7
:10175000074406F0010353B1894B8A4953F82A2004
:10176000894B2046002A08BF1A46FFF7A3FF06F45C
:101770008073002B49D006F00803002B63D1B8F129
:10178000000F66D0814942462046FFF793FF054689
:10179000069B3D44002B6DD1049B002B73D1F307B6
:1017A00000F1E48031462046FFF796FFD8E0074677
:1017B000C3E7774B18680028CAD0764B4FF47A7984
:1017C0001B68B5FBF3F54FF46163B5FBF0F100FB6B
:1017D000115509FB05F54FF03C0CB1FBF3F203FB8F
:1017E0001211B5FBF0FEB1FBFCF300FB1E550CFB28
:1017F000131109FB05F50091B5FBF0F56649CDE93C
:1018000001E52046FFF756FFA2E706F00803EBB11B
:10181000624B634953F82A202046FFF74BFF0546E9
:10182000B8F1000F05D0594942462046FFF742FF64
:101830000544BBF1000FABD05A495A462046FFF78A
:1018400039FF0544A4E74FF0000BE1E706F0080577
:10185000E6E745469CE7BBF1010F069B06D1002B4E
:1018600064D1049B002B7BD000250CE0002BF8D02A
:101870004D485CE04D48069B4D49224607F0FCF977
:10188000049B002B68D0DFF82C81DFF82C91049F9B
:101890003146102F204628BF1027FFF71DFF4FF0BD
:1018A000000B5D4545DC059B49461A782046FFF74D
:1018B00001FF4FF0010B1BF0070F03D141462046FB
:1018C000FFF7F8FE5F453BD9059B494613F80B200F
:1018D0002046FFF7EFFE0BF1010BBBF1100FEAD131
:1018E000364920464FF0000BFFF7E4FE5A46059BB1
:1018F0009A5CA2F120015F2928BF2E2230492046A0
:10190000FFF7D8FE0BF1010BBBF1100F1DD01BF040
:10191000070F03D141462046FFF7CCFE5F455A46EC
:10192000E5D841462046FFF7C5FEEBE71F48554680
:10193000A1E741462046FFF7BDFE0BF1010BB0E7E2
:1019400020492046FFF7B6FEC5E7059B3B440593BB
:10195000049BDB1B04939AD1BAF1000F7FF41FAFF5
:10196000204609B0BDE8F04F07F0ADBD064A054975
:101970002046FFF79FFE15E787BC00008BBC0000E8
:1019800024B7000056C5000082BC0000B0BC0000B7
:10199000B01F0020AC1F002094BC000038B700002E
:1019A000B4BC0000BABC000017950000E194000030
:1019B000212E0000C7BC0000BFBC0000C9BC000055
:1019C000CBBC0000C5BC000073B542F20F738B4264
:1019D00028BF0B4605680F4A04460521684606F0F5
:1019E000E1FD63680C495B6806460422284607F05F
:1019F0005CFD63683246694628465B6807F055FD22
:101A0000636806495B681722284607F04EFD02B05E
:101A100070BD00BF98CB0000E6BC0000CEBC00004B
:101A2000074A00210123904206D8064A01B9012342
:101A30001360054B1860704740085B000121F2E716
:101A400040420F00AC1F0020B01F0020014B0020BF
:101A500019607047C81F002007B500230093084A8B
:101A600008494FF48053012005F024F8064B012269
:101A70001A70064B064A1A6003B05DF804FB00BFFB
:101A800008290020FBBC0000EE270020D41F002006
:101A9000F12700200148FFF797BF00BF68B700009B
:101AA00010B5064B18680C46FFF734FB2146034679
:101AB000BDE8104002480E22184700BFC81F002092
:101AC00068B70000F8B5094D094B0A4ED5E9004743
:101AD00001221A700CB92C60F8BD214630463A46F6
:101AE00000F01EF8241A0644F4E700BFBC1F0020D3
:101AF000EF270020F027002010B9074B187070471F
:101B0000064B1B781BB142F2107008F0E4BF4FF493
:101B1000A470002109F0ECB9EE270020EF27002087
:101B20002DE9F74F524F01903B780C4643B9514F86
:101B30008246019B23449A452BD324EAE4700CE0AF
:101B40004D4E012501992246012004F065FFA8B100
:101B5000012333703B7843B9204603B0BDE8F08FD2
:101B60002846FFF7C9FF6F1E3D46012004F098FF8D
:101B70000028F1D03378002BF2D1EDE73378002B39
:101B8000EAD0013D2846FFF7B7FF3378002BD9D1C3
:101B9000E2E71AF8012B3B680A2A61D1374DDFF8DA
:101BA000E0905A1B012A04BF01333B60D7F8008044
:101BB000D9F800B00D2308F8013C08F101020A230E
:101BC000BBF1000F3A6088F8003029DD2D4B196811
:101BD00031BB2A495E46632EA2EB050201F11700D4
:101BE000A8BF632609F0DAFA274A2449254B02F1F7
:101BF000140052F804CB41F804CB8242F9D110888A
:101C000092788A7008F118020880BBF1090F3A60D7
:101C10004FF001021A6011DC202330366B752E75EF
:101C20003A681649521B012004F0F6FE90B9D9F823
:101C300000300133C9F800303D607AE70A22B6FB74
:101C4000F2F302FB1366303330362B753E236E758C
:101C5000EB74E5E70B4A0023C9F800301360EBE7AB
:101C60000A498B423EBF591C39601A7061E700BFB8
:101C7000EF270020D41F0020EE270020F1270020AE
:101C8000D01F0020CC1F002002BD0000F028002043
:101C9000014B03600020704778B7000008B5044886
:101CA00007F040F8034807F03DF8002008BD00BFEA
:101CB00030BD000065BD0000014806F0CBBA00BF92
:101CC00078B7000038B5044618B90F4B0F485B6869
:101CD00098476168B1F5683F10D0B1F5680F0DD035
:101CE0000B4DA9420AD011F46861206807D0014663
:101CF000084808F047FF00232360656038BD1422C0
:101D000009F066FAF9E700BFF007002093BD000074
:101D10002C5F5CA9D824002008B520B34368B3F534
:101D2000683F10D101220368BFF35B8F53E8001FA7
:101D3000002903D143E800200028F7D1BFF35B8FCF
:101D40000DD1002008BD094A93420AD000684FF027
:101D5000FF324FF0FF3305F0EDF80028F1D00448D2
:101D6000F0E70448EEE76FF4E040EBE72C5F5CA996
:101D7000E98FFFFFEA8FFFFF08B5D8B14368B3F5DD
:101D8000683F10D100220368BFF35B8F53E8001F48
:101D9000012903D143E800200028F7D1BFF35B8F6E
:101DA0000BD1002008BD074A934208D0006805F017
:101DB00039F9F6E76FF4E040F4E70348F2E7034847
:101DC000F0E700BF2C5F5CA9E98FFFFFEA8FFFFF00
:101DD00010B5044618B91D4B1D485B6898476368E9
:101DE000B3F5683F2FD0B3F5680F2CD0194A934252
:101DF00019D1236803BB18484FF0FF324FF0FF336F
:101E0000214605F069F808B923681BB90F4B134840
:101E10005B68984720681422002109F0D9F94FF433
:101E20006863636008E0B3F5683F0DD83A2B03D0D0
:101E300040F6BA629342DED1206808F0EDFE636896
:101E400043F03A03636010BD054AF3E7F007002052
:101E500093BD00002C5F5CA9D8240020B9BD000010
:101E60003A00003A08B5064906484023142208F013
:101E70007BFEBDE808400449044806F05DBA00BF97
:101E8000D81F0020D824002080B7000094B700009D
:101E900008B50348034A0021121A07F080FB08BD69
:101EA000200900202C3D00200748084A084908B5B1
:101EB000121A07F076FB0748074A0849BDE80840B0
:101EC000121A07F06EBB00BF0000002014090020AA
:101ED00030D00000000000200000002030D00000C2
:101EE0002DE9F84F064600AF0C46002952D0E846CF
:101EF0008AB0D1E90012A3686D46DFF8D4A0354856
:101F00006861A9464FF0060BC5E906A1C5E908239B
:101F100049F810BF30484A4600234FF44151FFF7BB
:101F2000D7FAC546D4E903126369AD462B486B6204
:101F3000C5E9050AC5E90712C5F810B0264800230F
:101F40004A464FF44151FFF7C3FAC54688B0E369EA
:101F50006D46234AEB61A9464FF0040BC5E9052AFB
:101F600049F810BF1C4800234A464FF40151FFF7BF
:101F7000AFFAC546A369AD461A4AEB61C5E9052A21
:101F8000C5F810B0144800234A464FF40151FFF73A
:101F90009FFAC546012E14D1EFF305836D4688B034
:101FA0006A4611495161103BD36110499161042384
:101FB00042F8103F084800234FF40151FFF788FA18
:101FC000AD462146304604F0D9FDBD46BDE8F88F48
:101FD000A8BE0000E6BD000040B6000019BE00002B
:101FE0004CBE00005FBE000091BE0000B1BE00000C
:101FF00030BFFFF7FDBF00BF2DE9F0410B4EDFF80A
:10200000308006EB0807CC1B0546324609492046BE
:1020100009F0B6F8A01942460021083C09F0D8F8AA
:102020002C6707F10800BDE8F08100BF0000000048
:102030000400000078B60000054B5A699B689A427C
:102040001FBF044A536843F080535360704700BF7A
:10205000D825002000ED00E02DE9F84300AF6E46E2
:1020600088B080460D466A46554B564C53614FF03A
:10207000030994614FF4C25142F8109F524807F08F
:102080009DFA524B9B6AD904B54640F1828088B0D4
:102090006A464F4B4C48C2E905344FF4C25142F8EE
:1020A000109F07F08BFA1720B546484B9B6A1A051C
:1020B0000FD56E4688B06A46464B4348C2E90534A0
:1020C000032342F8103F4FF4C25107F077FA18206B
:1020D000B5463E4EB36A9B0529D5E94688B06A46A7
:1020E0003D4B3948C2E90534032342F8103F4FF411
:1020F000C25107F063FAB36BB26A1004CD4615D52E
:1021000088B06A463549D3610423C2E905142E48D4
:1021100042F8103F4FF4015107F050FACD46B8F1A4
:10212000000F03D0B36A23F40043B3621920274B96
:102130009B6A59050FD56E4688B06A46284B2248DF
:10214000C2E90534032342F8103F4FF4C25107F0AF
:1021500035FA1A20B5461D4B9A6AD2051BD56E4634
:1021600088B06A461F4B1848C2E90534032342F879
:10217000103F4FF4C25107F021FA1B20B546134A15
:10218000936A43F47F43936200232B70BD46BDE8FE
:10219000F883162089E79B6A9B04F0D56E4688B0C9
:1021A0006A46114B0848C2E90534032342F8103F40
:1021B0004FF4C25107F002FA1C20B546DFE700BF1A
:1021C000C3BE00009EC2000040B6000000ED00E06B
:1021D000DDBE0000F2BE000009BF000026BF000007
:1021E0003FBF00005EBF00007ABF0000F8B500AF3F
:1021F0006D4688B06A46474B474C5361032694614D
:10220000464842F8106F4FF4C25107F0D7F9444BDB
:102210009B6A9B01AD467AD588B06A46414B3F48E0
:10222000C2E905344FF4C25142F8106F07F0C6F905
:102230001E20AD463A4B9B6ADE010FD56D4688B035
:102240006A46394B3548C2E90534032342F8103F4A
:102250004FF4C25107F0B2F91F20AD46304B9B6AD4
:102260001D030FD56D4688B06A46304B2B48C2E936
:102270000534032342F8103F4FF4C25107F09EF992
:102280002120AD46264B9B6A59030FD56D4688B079
:102290006A46274B2148C2E90534032342F8103F20
:1022A0004FF4C25107F08AF92220AD461C4B9B6ABD
:1022B0009A030FD56D4688B06A461E4B1748C2E98F
:1022C0000534032342F8103F4FF4C25107F076F96A
:1022D0002320AD46124B9B6ADB030FD56D4688B0B9
:1022E0006A46154B0D48C2E90534032342F8103FF6
:1022F0004FF4C25107F062F92420AD46084A936AB0
:102300006FEA03436FEA13439362BD46F8BD1D2095
:1023100090E700BFADBF000092C2000040B60000D1
:1023200000ED00E0C9BF0000E0BF0000FEBF0000FC
:1023300020C0000049C0000067C000002DE9F84F30
:1023400000AF6C4688B0914682468B466A465C4B2D
:102350005C4D5361032695615B4842F8106F4FF462
:10236000C25107F02BF9594B9B6ADB06A54652D5A3
:1023700088B06A46564B5448C2E905354FF4C251FD
:1023800042F8106F07F01AF9A54611244F4B9B6ACB
:1023900018070FD56C4688B06A464E4B4A48C2E9CA
:1023A0000535032342F8103F4FF4C25107F006F9F8
:1023B000A5461224454EB36A99072ED56C4688B0BF
:1023C0006A46454B4048C2E90535032342F8103FB1
:1023D0004FF4C25107F0F2F8D6F83480B36A1A0607
:1023E000A54669D588B06A463C4BC2F81C80C2E954
:1023F0000535042342F8103F33484FF4015107F0EC
:10240000DDF8A546BBF1000F03D0B36A23F08003CB
:10241000B362132403E01024B8E76FF015082B4BC8
:102420009B6ADB070FD56C4688B06A462C4B264862
:10243000C2E90535032342F8103F4FF4C25107F0BB
:10244000BDF8A5461424214B9B6A9E060FD56C4609
:1024500088B06A46234B1C48C2E90535032342F87D
:10246000103F4FF4C25107F0A9F8A5461524174BA9
:102470009A6AD50602D49A6A90070AD55B6819054C
:1024800007D55146404600F0C9FA10B180F30988DB
:1024900002240E4B9A6A920642BF5A6A22F40052F4
:1024A0005A629A6A42F0FF029A622046002389F833
:1024B0000030BD46BDE8F88F6FF01508A9E700BFF2
:1024C00096C00000A8C2000040B6000000ED00E089
:1024D000B0C00000F2BE0000E7C0000003C1000071
:1024E0001DC100007ABF00002DE9F047894B8AB07A
:1024F000D3F8048000AF0446C8F30805002686F32D
:102500001188BFF36F8F02F07F43B3F17F4F13D178
:1025100002F00C03082B1ED16C4688B06A467E4B35
:1025200053617E4B9361032342F8103F7C484FF484
:10253000C25107F043F8A546002634460023FB713C
:10254000EB1E092B00F2C880DFE803F00AAEB1AA47
:10255000C6C6C6C6C6B410074CBF0C460126EDE77A
:10256000E84688B06A466F4BDFF8BC9153614FF084
:10257000030AC2F818906A4842F810AF4FF4C251EB
:1025800007F01CF80023634DFB71EB6A9A07C54600
:102590000DD588B06A46654BC2E9053942F810AFDF
:1025A0004FF4C2515E4807F009F8C54692E0EB6A65
:1025B000002B03DA88B06A465D4BEDE7EB6A5B00FF
:1025C00040F1888088B06A465A4B5548C2E90539BF
:1025D0004FF4C25142F810AF06F0F0FF6B69A269E8
:1025E00043F48073C5466B61BFF34F8FBFF36F8FAA
:1025F0006B6932F8022C23F480736B61BFF34F8F49
:10260000BFF36F8F4DF602739A4209D0AB6ADBB20B
:10261000002B38D0FA1D01212046FFF78FFE41E044
:1026200088B023686A464449D3610423C2E9051986
:102630003B4842F8103F4FF4015106F0BFFF2368BA
:10264000C546FA79DAB907F1080504F1200C2068CB
:1026500061682A4603C2083464451546F7D17A6A90
:10266000002E52D0C2F3080121B96FEA52226FEA5C
:1026700042227A6207F108011846FFF731FC283739
:10268000BD46BDE8F087AB6A13F47F4F04D0F91D57
:102690000120FFF7E1FC05E0AB6AB3F5803F19D3F9
:1026A000FFF7A4FD0346CCE7FA1D0021B4E7F91DAE
:1026B0000020EEE76D4688B06A46204B5361204B00
:1026C0009361032342F8103F15484FF4C25106F0BE
:1026D00075FFAD460023B4E71A4A1B4B18F4F87F88
:1026E000E8468AB018BF13466A461849516118492E
:1026F000C2E9061340F201339384103D154B156275
:102700004FF4315142F8103F4CE722F4FF7222F0AF
:102710000102AEE700ED00E06EC10000C4C200009F
:1027200040B600009DC10000B9C20000B8C1000061
:10273000DDC10000EFC1000012C2000032C2000083
:1027400084C2000055C1000040C100005AC2000010
:1027500071C2000005000001044B5A6942F01002EA
:102760005A615A6922F008025A61704700ED00E090
:10277000EFF30880EFF3098101B57246FFF7B4FE6D
:1027800001BD00BF002080F31488BFF36F8F0F4896
:1027900080F3088803F082F900200D490860BFF338
:1027A0004F8F00F02BF8202080F3118809484FF458
:1027B0008251401880F30988EFF314800221084306
:1027C00080F31488BFF36F8F00F0F8F8006E0020DC
:1027D00094ED00E0804500200749D1F890200023C7
:1027E000C2F307221846934200DB7047C1F89830C5
:1027F000C1F8A0000133F6E700ED00E008B572B6BD
:10280000002383F31388FFF7E7FF144B4FF0FF32E9
:10281000C3F88020C3F88420C3F88820C3F88C2034
:10282000C3F89020C3F89420C3F89820C3F89C20E4
:10283000C3F88021C3F88421C3F88821C3F88C2110
:10284000C3F89021C3F89421C3F89821C3F89C21C0
:1028500062B6BFF34F8FBFF36F8F08BD00E100E09A
:10286000084B9B6883420BD1EFF3058343B1064BC2
:102870005A6842F080525A605A6A22F400425A6200
:1028800005F036B9D825002000ED00E014498A682B
:102890004FF030001044EFF3098C80E8F01F202047
:1028A00080F31288BFF36F8F0E4F4FF000664A69B6
:1028B0008A603E60106F0C4C2060506F002353679D
:1028C00080F3118804B5104600F00CF9BDE804400F
:1028D00002F1300090E8F01F8CF309887047000087
:1028E000D825002004ED00E0F42400201EF0040FA1
:1028F0000CBFEFF30880EFF30980816911F8021C27
:102900000229FFD001B5724606F04DFE01BD00BFA1
:1029100040B2002807DB044A4109012300F01F00F0
:10292000834042F82130704700E100E040B20028C7
:102930000CDB4309064900F01F00203301228240CE
:1029400041F82320BFF34F8FBFF36F8F704700BF55
:1029500000E100E0054B420900F01F0053F822207F
:10296000012303FA00F01040704700BF00E100E0CF
:1029700040B20028A8BF00F1604001F10101B8BFDA
:10298000064B4FEA4111ACBF00F5614000F00F006B
:10299000C9B2B4BF195480F80013704714ED00E0B9
:1029A000044B054A23F07F039360BFF34F8FBFF3BF
:1029B0006F8F70470000000000ED00E008B5FFF7E2
:1029C000EFFF074AD2F8883023F47003C2F888304A
:1029D000FFF75EFAFFF768FA00F05AF804F002FA1F
:1029E00000ED00E042F8203C009B42F81C3C0A4904
:1029F000019B42F8183C029B42F8143C21F0010173
:102A00004FF0807342F8043C42F8081C0023203A3F
:102A100002654367704700BF610D0000094A034625
:102A2000906870B113F1160F006E05D0A0F140024E
:102A30009A4205D8834203D2814228BF00207047C2
:102A400000207047D825002008B515460B4A0C4BCE
:102A50009060026F1A600E4600F044F82C4686F330
:102A600009880020034B98472046002100220023BC
:102A7000014C2047D1950000610D0000D8250020B1
:102A8000F4240020014B10221A61704700ED00E091
:102A9000044800232021C2180133302B82F8001390
:102AA000F9D1704700E100E008B5EFF30583064A6D
:102AB000103B02EBC30152F8330049688847BDE878
:102AC0000840FFF7B9BA00BFB0B30000024B034A99
:102AD0000348012100F0B2B80000042000000020EB
:102AE000A4B70000026E054B403A1A60044A402128
:102AF000C3E901121846012100F0AAB8F824002009
:102B000000000B1580B500AF88B06A46084B5361D2
:102B1000084BC2E90630042342F8103F0648002360
:102B20004FF40151FEF7D4FC6FF01500BD4680BD97
:102B3000D0C2000021C3000038B6000010B40E4C13
:102B4000D4F89030C3F30723013B984202D910BC5C
:102B5000FFF7D8BFC4F898000B6823F01F030343A6
:102B600043F01003C4F89C308B6843F00103C4F8B1
:102B7000A03010BC704700BF00ED00E02DE9F0412F
:102B800084B00E4600AF984604460025B5421CDAD4
:102B90006068002832D0B8F1000F20D0411E0842F2
:102BA00018D06C4688B06A46164B5361164BC2E982
:102BB0000635042342F8103F144800234FF4015116
:102BC000FEF786FCA5466FF0150210461037BD468D
:102BD000BDE8F0811F28E4D923681942E1D12368B8
:102BE0007B6006F018FDA368391D0343D0B2FB607B
:102BF000FFF7A4FF10F1160FE5D0421C01350C348D
:102C0000C4E700BFFAC200003AC3000038B60000B3
:102C1000044B0522C3F89420BFF34F8FBFF36F8F8F
:102C2000704700BF00ED00E0BFF35F8F024B002252
:102C3000C3F89420704700BF00ED00E010B5034CCE
:102C400001232278FFF79AFF207010BD0839002079
:102C500008B50B4A00231278FFF790FF10F1160F0A
:102C600007D0084A0021D2F89030C3F307239842D6
:102C700000DB08BDC2F89800C2F8A0100130F2E7EE
:102C80000839002000ED00E02DE9F0435E485F497F
:102C9000D0F890300D68C3F307239D4285B000F251
:102CA000B080FFF7C1FF49680022954201F10C0195
:102CB0001BD1574C574F25706846FEF7E9FFDFF8E8
:102CC0005881DFF8589106460025AE4220D123787E
:102CD0004D490020D1F89020C2F307229342C0F260
:102CE0008A80FFF795FF00204FE0C0F8982051F848
:102CF0000C3C23F01F03134343F01003C0F89C3037
:102D000051F8043C43F00103C0F8A0300132CCE795
:102D1000009800EB05114FEA051CCB683B40B3F56A
:102D2000000F49D00AD8B3F5001F31D0B3F5800F9A
:102D300037D0B3F5801F13D00135C6E7B3F1007F5C
:102D400043D0B3F1805F49D0B3F1807FF4D150F824
:102D50000C3088684A6806F05EFC40F0887009E034
:102D600050F80C3088684A6806F055FC40F08850EE
:102D700040F43020039001A92078CDE90123FFF72A
:102D8000DDFE002833DA6FF0150005B0BDE8F083F2
:102D900050F80C3088684A6806F03DFC40EA0900AB
:102DA000E8E750F80C3088684A6806F034FC40F0D8
:102DB000007040F40030DDE750F80C3088684A6855
:102DC00006F029FC40F08270D4E750F80C30886897
:102DD0004A6806F020FC40F48020CBE750F80C3025
:102DE00088684A6806F017FC40EA0800C2E72378C2
:102DF00001332370A0E7C1F89830C1F8A000013377
:102E000068E74FF0FF30C0E700ED00E0B0B700002A
:102E1000083900200000F0FF000002110000081136
:102E2000F0B587B007460E461446002110226846CA
:102E30001D4608F0CDF902238DF802302A46054BD5
:102E4000019321466846CDE9047605F0D7FB07B02B
:102E5000F0BD00BF3796000008B50649064821F0CE
:102E60000701C1F1005202F5802205F0ADFE0020FD
:102E700008BD00BF879E002004250020044A0123CE
:102E8000C2F840354FF080420020C2F878357047D4
:102E900000E0014048B1054B054A1B68B3FBF2F363
:102EA0005843044B43F0010318477047DC070020E8
:102EB00040420F0080B60000084B70B5C31A0D46A3
:102EC00007499B10044659430648402206F0C2FBBE
:102ED0002B4601462046BDE87040184724250020B7
:102EE000B76DDBB6B4B2000073B50C4C0C4A40238E
:102EF000041B00930D460B460A49A4106143064685
:102F0000094806F0D2FB011E05DA30462B4602B016
:102F1000BDE87040184702B070BD00BF24250020F6
:102F200013970000B76DDBB6B4B200000022F8B50D
:102F3000012105461046FFF71BFD104802F09EFEDA
:102F40000446B8B902F0BAFE2F690D49384606F0BA
:102F5000B6F9031E09DB01263E642D69084905F117
:102F60001C0006F0ACF9031E02DA1C462046F8BD30
:102F7000EE64FBE76FF00404F8E700BFB130000037
:102F8000D0B700001FB500220123CDE90223094A72
:102F9000CDF800D06B46CDF804D006F0B3FB002886
:102FA00005DB4FF480420023684604F0BFF805B00B
:102FB0005DF804FB2597000010B5EFF31184202382
:102FC00083F31288BFF36F8F074A136823F002015F
:102FD000DB07116002D4012007F0BBF884F31188ED
:102FE000BFF36F8F10BD00BF7425002030B4104BAD
:102FF0000C2202FB003301460020D3E90E529863F5
:10300000EFF31180202484F31288BFF36F8F1C6CC0
:1030100004F0C00444F002041C6480F31188BFF380
:103020006F8F1DB12B46034830BC184730BC70472A
:1030300024250020B4B2000010B4EFF31182202345
:1030400083F31288BFF36F8F1748016841F00204C1
:103050000460C80707D482F31188BFF36F8F012083
:1030600010BC07F06EB84FF08041D1F80C04D1F8D5
:103070000C14C907EFD5EFF3118083F31288BFF367
:103080006F8F0A490B6C03F0C00343F002030B641B
:1030900080F31188BFF36F8F82F31188BFF36F8FB6
:1030A000002010BCFFF7A2BF7425002024250020BB
:1030B00010B1012804D07047034B1B6C5B0701D192
:1030C000FFF794BF704700BF242500202DE9F04191
:1030D0003849BFF35B8F0746012251E8003F41E8C2
:1030E00000200028F9D1BFF35B8F33B93249334850
:1030F0004B60CB608A6006F0F5F87B1E012B2BD865
:10310000012F07D14FF08043D3F81C3403F00303A1
:10311000012B21D007F050FE0546F8B9284B1B784B
:10312000E3B14FF080430222C3F808230646DFF8DC
:1031300094804FF08044D4F81824D4F81834D20383
:1031400015D503F00303012B01D0012F0FD155B387
:1031500086F31188BFF36F8FBDE8F081EFF311861E
:10316000202383F31288BFF36F8F0125DFE7ADB112
:10317000304606F041FAD4F81835002BDBD1D4F8EC
:103180000421002AD7D0C4F80431D4F80431012333
:10319000C4F81835C8F88031A360CCE7002121209D
:1031A00007F0A6FEE7E74FF080430222C3F80423AE
:1031B000D2E700BF20250020102500204025002058
:1031C0002A3D002000E100E0024B0B600123136068
:1031D000704700BF7825002000487047F4B7000012
:1031E00080B500AF8AB06A46094B5361094B116242
:1031F000C2E90630052342F8103F074800234FF488
:103200002151FEF765F96FF01500BD4680BD00BF86
:103210008CC30000F2C3000008B6000010B5012204
:1032200011460648064C07F0FEFC07F0A7FA20609E
:1032300007F0A0FA6060002010BD00BF80250020CC
:10324000782500204FF08042D2F81015D2F81035C2
:1032500001F01E0123F01F030B4343F00103C2F8EA
:103260001035024B00221A70704700BF0939002048
:103270004FF08053D3F83031082B20D14FF08042EB
:10328000D2F81015CB071AD5D2F8103501F01E016F
:1032900023F01F030B43C2F81035D2F808315BB19D
:1032A000D2F8103523F01F030B4343F00103C2F89B
:1032B00010356FF08B007047024B01221A7000200E
:1032C000704700BF093900202DE9F84300AF894657
:1032D000154607F04FFA29460646484606F032FAE8
:1032E000C8460346002846D0B9FBF6F306FB139305
:1032F00023B9B5FBF6F406FB1454ACB16C468AB0A6
:103300006A46234B5361234B1562C2E906390523F4
:1033100042F8103F002320484FF42151FEF7D8F81F
:10332000A5466FF015041FE0B5421DD34FF0FF32E4
:103330004FF0FF331948DFF8689003F0F7FE07F00D
:1033400019FA0646FFF794FF044688B9404602F092
:1033500067FF99F800300BB1FFF774FFAD1BB04465
:10336000F0D10E4803F0AEFE2046BD46BDE8F8831E
:103370006FF08B04F5E76C468AB06A4609495161E3
:1033800004491562C2E90619052142F8101FC2E777
:10339000ADC3000011C4000008B600008025002065
:1033A000093900208CC300002DE9F0470E4600AF1C
:1033B000194630461C46904606F0C4F90346B8B993
:1033C0006D468AB06A462A4951612A491462C2E9A7
:1033D0000616052142F8101F27484FF42151FEF729
:1033E00077F86FF01504AD462046BD46BDE8F0877E
:1033F00046EA040515F003050DD06D468AB06A460D
:103400001E4B53611B4B1462C2E90636052342F87A
:10341000103F0023E0E7002CE6D01948DFF864A055
:103420004FF0FF324FF0FF3303F080FE24F003042F
:10343000A54205EB060909D1134AD2F80034DB078F
:10344000FBD500240E4803F03DFECDE7FFF710FF4B
:1034500058B958F80510484602F0FEFE9AF80030B8
:103460000BB1FFF7EFFE0435E2E76FF08B04E9E7FD
:103470008CC3000001C4000008B60000D0C30000E7
:10348000802500200939002000E00140F0B54468A3
:103490001646A068227C01F01F0587B045EA421558
:1034A00000286DD0B6F5001F04D1294607F058F961
:1034B000002056E06268607CC2F8240501AA002062
:1034C000B6F5800F0190506037D1B3F1007F14BF83
:1034D000052304238DF804300023CDE9042303934E
:1034E000E36823FA01F111F001010DF103073AD16C
:1034F000B6F1A07F37D105F01F036A0903F5E07329
:1035000026D0012A3FD1214A52F82330DB072AD4A2
:10351000A0683A46294607F099F816301BD0029762
:10352000A06803AA294606F05DFF002819DBA06801
:103530000122294607F0C1F8BAE7B3F1C06F05D000
:10354000B3F1007F14BF01230223C3E70323C1E7C4
:103550004FF0A042D8E7A068394602F061FD00288C
:10356000DDDA07B0F0BDA0683A46294607F06EF8EC
:103570000028D5D19DF80310A06802F04BFDCFE7DD
:103580006FF08500EDE751F82330FFDE00030050B7
:10359000420970B5034602D0012A17D070BD0D4E06
:1035A000326951680029F9D003F01F0301250C6826
:1035B0009D400029F2D08A682A4002D04B683046EC
:1035C00098472CB1236821461C46F2E7024EE7E7F4
:1035D0002346F8E7ECB20000D0B2000038B54568E9
:1035E000A86890B107F061F8014670B9A86807F0C3
:1035F00040F8044658B902460649A86807F023F87F
:10360000224605210620FFF7B3F9002038BD6FF0F0
:103610000400FBE7913500002DE9F043476840F2D4
:103620000636D0063B7C87B002EA060654BFC2F3DA
:10363000401C4FF0030C01F01F05B6F5837F1446C4
:1036400045EA43158DF803C045D00DD8062E16D097
:1036500005D8A6B1022E40D06FF0150038E0B6F5BF
:10366000807FF9D101260AE040F20222964236D04C
:10367000B6F5407F35D0B6F5007FEDD102260123A7
:10368000220303FA01F12ED57B68C3F80815B86848
:1036900090BB05F01F036D092BD0012D75D13D4A5C
:1036A00002EB830284F48033D2F80017C3F30043A3
:1036B000C4F3404444EA430421F4E16144EA8C0445
:1036C00021F0070144EA06230B43C2F8003700202B
:1036D00007B0BDE8F0830726D1E70426CFE705262B
:1036E000CDE70326CBE7630344BF7B68C3F80C1523
:1036F000CDE74FF0A042D3E70DF10202294606F0D4
:10370000A5FF14F4403F80460CD1B868294606F066
:10371000D2FFB8F1000FDAD19DF80210B86802F0BC
:1037200079FCD4E74FF0000901ABCDE90199CDE96F
:103730000439CDF80C90B86803AA294606F052FE69
:103740004845C4DB14F4003314D084F480349DF86D
:1037500003308DF80E30C4F300448DF80C608DF802
:103760000D40B8684B4603AA294606F0F3FE002830
:10377000CFDAACE7CDE904330DF103030393B86866
:1037800003AA294606F02EFEF1E703F5E07350F890
:103790002330FFDE000300502DE9F0474668336810
:1037A00000AF0546E3B96C468AB001686A463F48F7
:1037B00050613F48C2E9060140F2013111843D49A0
:1037C00042F8101F3C484FF41151FDF781FEA54609
:1037D0006FF01204336883BB2046BD46BDE8F08716
:1037E0000024F7E76D4688B06A46344B5361304B8E
:1037F000C2E90630042342F8103F2F4800234FF45B
:103800000151FDF765FEAD46E6E76C468AB02968D2
:103810006A462B4850612648C2E9060140F2013150
:103820001184244942F8101F23484FF41151FDF729
:103830004FFEA5466FF01204CEE7002CFAD1A04649
:103840004FF00109746854F8380004EBC80A07F017
:103850005EF903460028D8D054F838009AF80410CE
:10386000BAF80630D0F810C0D0F808A0DCF8004054
:10387000DA0754BF43F4B01383F4D01323F4801257
:1038800009FA01FEDB074CBF44EA0E0424EA0E04E9
:10389000CCF80040DAF80030984704460028A1D15F
:1038A000336808F101084345CCD895E761C40000AE
:1038B000D1C400000400000110B6000090C4000054
:1038C000B3C400002DE9F04145682B6800AF83BB0D
:1038D0006C468AB001686A46174850611748C2E9C9
:1038E000060140F201311184154942F8101F1548B4
:1038F0004FF41151FDF7ECFD6FF01200A546BD46E7
:10390000BDE8F081D5F80480260158F8060007F0DC
:10391000FEF8034638B958F806206C468AB011689C
:103920006A460948D9E701342B689C42EADB00204B
:10393000E5E70024F8E700BF61C400000FC5000000
:103940000400000118B60000F2C40000036803F090
:103950001F025B09026004D0012B034818BF00203E
:1039600070474FF0A0407047000300502DE9F04F22
:10397000DFF87081DFF8709185B09246834600EBE6
:10398000810140F2FF17594503D1002005B0BDE881
:10399000F08FDBF800305804C3F3C322C3F30804EC
:1039A00000F19980BC4218F802604FEA136312D00C
:1039B000192B1DD94E2B40F09180CAF8144503A84D
:1039C0000394FFF7C3FF039B012505FA03F3C0F837
:1039D00008352A4643E0192B08D94E2B7ED14FF0EB
:1039E000FF33CAF814350BF1040BCCE74FF0FF346A
:1039F000032B73D9043B152B70D8DFE803F00B11B0
:103A0000216F6F6F6F27546F6F6F6F6F6F6F6F6F77
:103A100057636669631CCAF80845E4D0002504E0D2
:103A2000651CCAF80C45DED0012503A80394FFF7F6
:103A30008DFF039B012202FA03F3C0F80C350EE060
:103A4000CAF81045631CCED00025C2E7CAF8084565
:103A5000002EF7D1601CC6D000252A460626DBF8CA
:103A60000030019303F40040002818BF002203A88F
:103A7000009218BF01250394FFF768FF039C019B88
:103A8000009A00EB8400C3F3412CD0F800473302C6
:103A900043EA8C03134304EA0904234343EA45033E
:103AA000C0F800379FE7CAF80C45D1E7CAF860456F
:103AB000621CDBF8003096D0C3F30043002B7FF488
:103AC0007EAFB1E7CAF86445F2E7CAF86845EFE7A8
:103AD000CAF86C45ECE76FF0150057E76FF085000A
:103AE00054E700BF2DC50000F0F8FCFF036803F0A9
:103AF0001F025B09026004D0012B034818BF00209D
:103B000070474FF0A040704700030050F0B50446E6
:103B100083B0002200AF01211C20FEF729FF23699A
:103B20002E4A6168184606F09CFE051E19DA2368C5
:103B30006C468AB06A462A4951612A49C2E906138D
:103B400040F201331384284B42F8103F27480023EA
:103B50004FF41151FDF7BCFCA54628460C37BD4675
:103B6000F0BD636825691E6B3A1D0021304605F0E3
:103B7000CBFE002805DB7B68326819791868FFF7EF
:103B8000F5FE002631462B6801F5AC7253F8223061
:103B9000002B0EDB7B60381DFFF7A8FF7A68D0F89A
:103BA0000435D34013F001031CBF01238B40334382
:103BB000DEB201310429E6D1002301206268116AD6
:103BC00000FA03F232420CBF01220022D20321F894
:103BD00013200133042BF1D10025BEE72F990000FB
:103BE00035C50000B9C500000400000148B600005A
:103BF0002DE9F04383B000AF0329B7F828C0466829
:103C0000046905460CF0010C0ED96C4688B06A4672
:103C10005B4B53615B4BC2E90631042342F8103F12
:103C200000234FF4015120E0B07D01284FF001083E
:103C300004BF5B08520808FA01F8002B76D09A42BC
:103C400077D9A069824229D0207F30EA080016D0B7
:103C50006C4688B06A464C4B53614C4B93610323CE
:103C600042F8103F00234FF4C2514948FDF730FCA1
:103C70006FF01500A5460C37BD46BDE8F0839646AB
:103C8000BEF5004F43D2A2616077226896F8169085
:103C9000C2F80C05C2F80495C2F808E5627F23FA61
:103CA00002F292B24FF0010E68688CF00109006ACE
:103CB00042EAC93220F811205FFA88F8BEF1000FFD
:103CC00046D1226801F5AC7152F82120002A0FDBA1
:103CD000BCF1000F50D0B3FA83F35B0973BB7A6079
:103CE000381DFFF703FF7A6801239340C0F80C35B5
:103CF000217F21EA0801217779B3A37FA3BB102399
:103D0000012206F12001204606F0BDFD2AE0013027
:103D100008284FEA5E0EB3D16C4688B06B461D4949
:103D200059611A49C3E906121A4676E79E461A46B1
:103D3000BAE74FF0000E47F6FF72B5E77A60381D1C
:103D4000FFF7D4FE7A6801239340C0F80835CFE727
:103D5000237F48EA03032377CFE7286906F0CBFDEA
:103D60000123A377002086E70023A377204606F0EF
:103D7000DCFD0028FAD0C2E7003B18BF0123ADE705
:103D800059C50000E0C5000072C50000C7C50000AD
:103D900048B600008BC500002DE9F0474568D0F813
:103DA0001080012100AF0646686B05F0E2FDE96B6B
:103DB000481C2FD0A86B05F0BAFE10F1130F044673
:103DC00015D16C4688B06A463B4B53613B4B9361BF
:103DD000032342F8103F4FF4C251394805F0C6FDA5
:103DE000A5466FF012042046BD46BDE8F087411D90
:103DF00010D16D4688B06A46324B53612F4B9361A8
:103E0000032342F8103F2E484FF4C25105F0AEFD97
:103E1000AD46E8E7EB6A9847D8F830504FF0010913
:103E2000D8E90C3203EBC2039D420AD308F1280003
:103E300005F0E2FD73680021586B05F09AFD00243F
:103E4000D1E7286806F063FEA0B92B686C468AB0FB
:103E500019682B796A461C48506113621B4840F26E
:103E6000013393841A4BC2E9060142F8103F4FF424
:103E70003151B2E728682979EB88D0F810C0D0F822
:103E800008A0DCF80040DA0754BF43F4B01383F411
:103E9000D01323F4801209FA01FEDB074CBF4EEA6F
:103EA000040424EA0E04CCF80040DAF80030984705
:103EB000041E98DB0835B3E70AC6000011C80000ED
:103EC00058B6000039C600005AC60000F4C700000A
:103ED00005000001B0B5027800AF034642B90C6995
:103EE000D4F8802032B9E06F6FF0730105F0ADFDBA
:103EF000BD46B0BD606F48B1A16F39B1DB682BB171
:103F0000834203D0D4F88C1007F03AF9236FD4F829
:103F100080208BB19A4229D96D4688B06A462C4BD5
:103F200053612C4B9361032342F8103F2A484FF40E
:103F3000C25105F01BFDAD46A36FD4F880208BB1B4
:103F40009A422CD96D4688B06A46214B5361234B67
:103F50009361032342F8103F1F484FF4C25105F00C
:103F600005FDAD46E06F05F082FDC1E79B1A2367B2
:103F70007BB9E36D0833E365236E013B236604F1EF
:103F8000700204F1600104F15C0005F0DCFCE06605
:103F9000D2E7E36E002BCFD01344E366CCE79B1A45
:103FA000A3677BB9636E08336366A36E013BA366A8
:103FB00004F1780204F1680104F1640005F0C3FC27
:103FC0006067CFE7636F002BCCD013446367C9E70A
:103FD00082C6000055C8000058B600003FC8000067
:103FE0002DE9F04F8FB000AF9A464368FB608B8895
:103FF000046906469804894693463DD44FF0FF3243
:104000004FF0FF3304F1380003F090F8C4F82C901F
:104010007568D6F810802B687B6098F8853023B1DE
:10402000D8F82830994500F03E81B9F804E01EF434
:10403000006F28D06D4688B06A467E4B53617E4B38
:104040009361032342F8103F7C484FF4C25105F0BE
:104050008DFCAD466FF08505A36A13B19B889B0468
:1040600005D40023E36204F1380003F02BF828465E
:104070003C37BD46BDE8F08F236C002BBED1E36A10
:104080009942BBD1C4E71EF0010F17D06D468AB02C
:1040900033686A466A4951616749C2E9061340F2CA
:1040A00001331384674B42F8103F4FF411516348BA
:1040B00005F05CFCAD466FF01505CDE71EF0080F6E
:1040C0000CD06D4688B06A465F4B53615A4B936182
:1040D000032342F8103F4FF4C251E8E7CEF34513F3
:1040E000082B04D06D4688B06A46584BEDE7D9F8E6
:1040F0000030BB60BA68564B9A4204D86D4688B00F
:104100006A46544BE1E704350FCD07F1100CACE8DB
:104110000F000FCDACE80F00D7E901239A4228BF6A
:104120001A4695E803004C4B9A428CE8030017D2DC
:104130004A4B9A4214D24A4B9A4211D2494B9A4264
:104140005CD8494B9A425BD8484B9A425AD8484B64
:104150009A4259D84748484B4849824288BF0B4643
:104160001EF0020F7B620EF004034FD0002B14BF31
:104170000323022387F82830CEF3001387F8293071
:10418000D8F80030D3F80835591C13D01EF0020FB0
:1041900003F01F00CEF340014FEA53134FF001022A
:1041A0003BD1002B36D0934240F03F81344B8240CC
:1041B000C3F80C2598F885302BB1404602F09EFAE2
:1041C000002388F885302F4A334607F11001404616
:1041D00006F04FFC051E61DA6E4688B06A462A4B2F
:1041E0005361154B1548C2E90635042342F8103FC8
:1041F0004FF4015105F0BAFBB5462DE7234BAFE76D
:10420000234BADE7234BABE7234BA9E7003B18BF9C
:104210000123AFE74FF0A043C9E73BB1012B40F0CA
:104220000781174B8240C3F80825C3E74FF0A0432E
:10423000F8E700BFA4C600006BC8000058B6000035
:10424000C2C6000004000001E8C600000BC7000061
:1042500047E801003EC700000048E8010024F400E0
:1042600000127A00FF083D007F841E003F420F00CD
:104270001FA107008FD0030048E8010090D0030081
:1042800000030050D53E000073C7000000093D0048
:1042900080841E0040420F0020A10700012388F8FF
:1042A0008530C8F82890012384F88430FB68D96BE6
:1042B0004A1C14D0986B05F062FC74300FD16D4627
:1042C00088B06A465C4B53615C4B9361032342F8B0
:1042D000103F5B484FF4C45105F048FBAD46BBF1BD
:1042E000000F77D1C4F85CB00023236604F170029C
:1042F00004F1600104F15C0005F025FBE066BAF111
:10430000000F6FD1C4F864A00023A36604F1780203
:1043100004F1680104F1640005F015FB002504F1C7
:1043200028082A46606701214046A56505F044FB40
:10433000304605F09CFB206E2A462B46834259D11D
:104340000023A56E1946A9425BD19A4238BF1A468E
:104350004FF4FA5303FB02F5A36A4FF4004C1B68B9
:10436000B5FBF3F540F2E730C83500214FF47A721F
:104370000023E5FB0C01FBF713FF04F1480802469C
:104380000B46404602F0D2FE0246002840D06D4661
:1043900088B06A462B4B53612B4B9361032342F841
:1043A000103F27484FF4C25105F0E0FAAD46002512
:1043B0002046C4F8805002F0A1F984F885506FF0CF
:1043C0007301304605F041FB404602F0D5FE6FF028
:1043D000730541E6DBF80030E365002B84D0DBF8A1
:1043E000043082E7DAF800306366002B8CD0DAF80C
:1043F00004308AE7E16D01EBC301013349680A44E7
:104400009CE7606E00EBC1000131406803449AE70D
:10441000A56D15F1740FCAD0002D3FF41DAE3069A3
:104420001146283005F0C8FA16E6C1F80C15FFDE73
:104430000023C3F80835FAE79CC7000075C80000E0
:1044400058B60000CAC700001FC8000000F01F02D5
:1044500040090DD001280ED10A4B03EB82030A4A12
:10446000D3F80007024042EA8102C3F800277047F0
:104470004FF0A043F1E702F5E072002353F8223039
:10448000FFDE00BF00030050F0F8FCFF70B5012311
:1044900083400E4ABFF35B8FDC4352E8001F01EA02
:1044A000040542E80056002EF7D1BFF35B8F4FF4AE
:1044B000803282400648C0F80823BFF35F8FBFF305
:1044C0006F8F0B4214BF0120002070BDAC2500206F
:1044D0000010014070B40E49D1E90034D01AC3185D
:1044E00044F1000422F07F46C1E90034A6F5001330
:1044F000B3F5400F09D2074B1B681A0A1B069C191B
:10450000054B42F10005C3E9004570BC03F0FABC5D
:10451000981A0020B0250020A01A002011B3BFF384
:104520005B8F0123104A834052E800CF4CEA030C12
:1045300042E800C10029F7D1BFF35B8F0B4A4FF46B
:1045400080338340C2F80433094BBFF35B8F1B6891
:10455000BFF35B8FC340DB0742BF064B4FF4003213
:10456000C3F80021704700BFAC25002000100140B7
:10457000A825002000E100E00D4B1868010A0006A4
:10458000BFF35F8F0B4BD3F80435181841F10001CE
:10459000B3F5801F0AD2084BD3E90023904271EB98
:1045A000030303D210F1807041F10001704700BF96
:1045B000B025002000100140A01A00202DE9F04F86
:1045C00085B016461F469DF840A00446FFF75EFFE3
:1045D0000190FFF7D1FFB04271EB070354D23E4B7D
:1045E000301A67EB0101984271F100014FD23B4B49
:1045F00003EB0413D3E902239F4208BF96425ED027
:1046000037494FF4803804F1500508FA04F8AD003A
:10461000C1F848832046ADB205F0D9FA26F07F4BA9
:1046200005F1804504F5A87305F58835DC464FF0A3
:1046300003090293029A2CF07F4341F82230C1F81B
:104640004483D1F80435274A6FF00200C01A604451
:1046500020F07F40904232D9286868B1D1F8043503
:104660000393A3EB0B0020F07F40B0F5000F26D999
:10467000204605F0ACFA039BBAF1000F07D109EB15
:10468000030C09F10109D5E7BAF1000F09D06FF069
:10469000150520460199FFF741FF284605B0BDE802
:1046A000F08F0123104ABFF35B8FA34052E8000F45
:1046B000184342E800010029F8D1BFF35B8F074996
:1046C0000E98230101EB0412C8500F9B5360C2E9FE
:1046D00002670025DDE700BF01008000881A002086
:1046E00000100140FDFF7F00A82500207FB51C4C75
:1046F0001C4BC4F80833C4F848331B4B00254FF05B
:10470000FF304FF0FF31C4F80855C3E902014FF400
:104710008033C4F80433154B02264FF400320121D4
:10472000C4F804631120C3F880212A46FEF720F95B
:104730001120FEF7EDF80E4A0123A36023601360F9
:104740000C4B0D4A0093CDE9015500232846FFF795
:1047500035FF3046FEF7BAFC284604B070BD00BFF6
:104760000010014003000F00881A002000E100E063
:10477000AC250020D5440000FFFF7F002DE9F74362
:104780002F4CD4F8043399070BD5D4F8043143B136
:104790002C4A0023C4F80431D4F8043113680133DF
:1047A0001360D4F80433DA0329D5BFF35B8F264BAB
:1047B00053E8002F22F0010143E800100028F7D150
:1047C000BFF35B8FD30702D4D4F84031BBB10025CF
:1047D000C4F84051D4F84031FFF7CEFEEFF3118218
:1047E000202383F31288BFF36F8F184BD3E902673E
:1047F000B042B94106D282F31188BFF36F8F03B084
:10480000BDE8F0834FF0FF384FF0FF39C3E902896C
:10481000D3E900101D604FF48033C4F84833C4F866
:104820004051D4F8403182F31188BFF36F8F0029D3
:10483000E5D0009032463B4628468847DFE700BF78
:1048400000100140B0250020A8250020881A002073
:1048500030B5431C124C85B005D08442A8BF044635
:10486000012CB8BF0124FFF787FE0E4B0C4DD3E996
:104870000013401AB0F5000F10D22218AA4228BF28
:104880002A4652184FF0000007490091CDE9010077
:1048900043F10003FFF792FE05B030BD2A46F0E772
:1048A000FFFF7F00981A0020D544000008B5FFF7ED
:1048B00063FE024B1B68C01A08BD00BF981A002097
:1048C00000487047C0B9000090B587B000AFFB1D2D
:1048D0001446F971BB6007F10802012307F11001CA
:1048E000C7E90423FB6005F091F9B0B16C468AB0CA
:1048F0006A460C4B53610C4BC2E9063040F206236A
:104900001362052342F8103F08484FF4215105F087
:104910007AF9A5461C37BD4690BD204606F0DBF867
:10492000F8E700BF9BC80000E1C90000F8B500002F
:10493000F0B50C1E8DB0054600AF4ADB4668B16A83
:1049400004EB030C614544D30121C7E90A234FEA74
:10495000244C07F1080364BAC7E90431FC8007F16D
:1049600020033C1D87F805C0BC604FF0000C0424F8
:10497000BB6102233971C7E908C4FC60FB6105F023
:104980004CF9314651F8040B07F1180307F11002F6
:1049900005F02DF90446286905F05AF9ACB16D46C9
:1049A0008AB06A460C4B53610C4B0D48C2E9063481
:1049B00040F21D131362052342F8103F4FF42151BA
:1049C00005F021F96FF00404AD4620463437BD46AA
:1049D000F0BD6FF01204F8E79BC800004EC900005C
:1049E000F8B5000090B58DB000AFD723FB71FB1D6B
:1049F000BB60B962012307F10801C7E90413002273
:104A00000146C7E90823FB60022207F12003C7E93A
:104A1000063251F8040BFA6207F1180307F110028D
:104A200005F0E5F8A0B16C468AB06A460A4B5361BE
:104A30000A4BC2E90630C02313620523084842F836
:104A4000103F4FF4215105F0DEF86FF00400A54649
:104A50003437BD4690BD00BF9BC80000A9C9000007
:104A6000F8B500002DE9F04F8FB0066945686C4934
:104A7000706400AF044606F1100006F07EF90023D2
:104A800086F84030286806F042F8E0B92B686C469A
:104A90008AB01B686A466349516163496348C2E949
:104AA000061340F201331384614B42F8103F4FF478
:104AB000115105F0A8F86FF01205A54628463C37BD
:104AC000BD46BDE8F08F2B7E23B1E86806F01FF8E5
:104AD0000028DBD0204605F0A0F8AA8F6068AB2143
:104AE000FFF7F2FE656805F13F037B609F23FB72D1
:104AF00007F10B0301263B6107F110090023C7E909
:104B00000A36C7E9069607F10C0A4FF0030B07F1C6
:104B10002808022329467E61C7F830A0C7F834B0C0
:104B2000C7F820807B6251F8040B07F1200307F1DE
:104B3000180205F05CF8A8B16D468AB06A463D4B94
:104B400053613D4BC2E9063096231362052342F8B8
:104B5000103F36484FF4215105F055F8AD466FF03F
:104B600004052CE05A46514605F13F0006F095FA3F
:104B700048B395F83F0095F8401095F8413097F804
:104B80000CE097F80DC0BE7B6D468EB06A46DFF82C
:104B9000AC80C2F81480DFF8A08013630923C2E957
:104BA0000A01C2E9068EC2E908C6204842F8103F51
:104BB00044F6400105F027F8AD466FF01205206974
:104BC00005F046F87AE71E4BBB6107F11803D4F8ED
:104BD00004A03B6204237B6207F12003C7E90A3685
:104BE00049465046FFF7FEFE05460028E7D13B8ABE
:104BF000DB07E4D44146504605F008F848B16D465D
:104C00008AB06A460B4B53610E4BC2E90630EE2365
:104C10009BE7204605F043F80028D0D09FE700BF6F
:104C20006B9C0000C7C80000EFC90000F8B5000089
:104C3000040000019BC80000D2C90000E0C80000C9
:104C40003D2A80A6BEC9000090B587B000AF1314FE
:104C50007B713B1DBB600423FB6007F10803044626
:104C6000397152BA3B614068FA80012307F11001A3
:104C70007B6104F0CBFFB0B16C468AB06A460E4B44
:104C800053610E4BC2E9063040F29D1313620523B7
:104C900042F8103F0A484FF4215104F0B4FFA546F2
:104CA0006FF0040004E0204604F0F9FF0028F7D17B
:104CB0001C37BD4690BD00BF9BC8000070C90000F6
:104CC000F8B500002DE9F0470D1E86B0064600AF8E
:104CD0009046C0F2B480D0F80490AB18D9F82820E0
:104CE0009A42C0F0AC80B9F8363095FBF3F203FB82
:104CF0001252002A40F0A680B8FBF3F203FB1283A5
:104D0000002B40F09F8004F088FF99F83830002B8A
:104D100056D1D9F82830434552D14C4B7B603B1DCE
:104D2000BB600423FB6007F108033B61706801234B
:104D300007F110017B6104F069FFB0B16C468AB0E5
:104D40006A46434B5361434BC2E906304FF4BF738D
:104D50001362052342F8103F3F484FF4215104F0FD
:104D600052FFA5466FF0040405E0304604F097FFBB
:104D700004460028F6D1306904F06AFF204618374F
:104D8000BD46BDE8F087D9E90BA32BB1AB421CD8D7
:104D9000554501D2AAEB030A99F83930BBB9D04581
:104DA00015D30AF1FF332B4211D12A467C2130461C
:104DB000FFF74AFF55440446A8EB0A08002CDAD155
:104DC000B8F1000FDFD14446D5E79A46E4E7B9F8D9
:104DD0003430434502D8013B2B4218D0B9F8363065
:104DE000434520D96C468AB06A461C4B53611C4B24
:104DF0001562C2E90638052342F8103F16484FF401
:104E0000215104F000FFA5466FF01504B3E72A46D0
:104E100050213046FFF718FFB9F8343004461D44DE
:104E2000A8EB0308CAE7013B2B42DBD12A468121CC
:104E30003046FFF709FFB9F836300446EFE76FF068
:104E400012049BE76FF0150498E700BFC794809A9F
:104E50009BC8000081C90000F8B500001DC9000012
:104E600094C900002DE9F04FB1F1000A89B0054660
:104E700000AF16461C465BDBD0F804800AEB03014A
:104E8000D8F828308B4253D304F0C7FE4FF05809AE
:104E9000002C3BD0B8F83610686887F804904B4275
:104EA00003EA0A030B44A3EB0A034FEA2A41A34295
:104EB00079719AFA9AF128BF2346F98007F1100117
:104EC0009B46B9603B1D02213B61F960042307F159
:104ED0000801C7E90536C7F81CB004F097FEE8B131
:104EE0006C468AB06A46144B5361144BC2E90630D3
:104EF00040F239131362052342F8103F10484FF473
:104F0000215104F080FEA5466FF00404286904F0E6
:104F10009FFE20462437BD46BDE8F08F284604F0AA
:104F2000BEFE0028F0D15E44DA44A4EB0B04AFE7E8
:104F30006FF01204EDE700BF9BC8000062C90000DB
:104F4000F8B5000038B5094B50F8102C1D68084B17
:104F5000044608481B68201A4FF0000118BF0120C2
:104F6000A847002344F8103C38BD00BFB8250020F6
:104F7000B4250020401B002030B4074B074D1C68AF
:104F8000074B50F8282C1B68401BA4464FF001012A
:104F900030BC18BF01206047B8250020601B0020EE
:104FA000B4250020F8B5194B1B680F462BB3184ADF
:104FB000184B194C904208BF1C4606F03BF84FF4C2
:104FC0007A73A0FB030603FB0166C50B45EA464561
:104FD000F60B87B9D4E9003240F2E931EB1A66EBFF
:104FE00002028B4272F1000108DBC4E9043204F1D1
:104FF000380002F0FDF9C4E90056F8BD04F12800BC
:1050000002F0F6F9A3680133A360F4E7B8250020A5
:10501000801C0020281B0020A81A0020F8B500AF33
:105020006E4688B06A466D4B6D4D536103249561A1
:105030006C4842F8104F4FF4C65104F041FEB5469B
:10504000694805F064FD88B988B06A46674B6548D1
:10505000C2E905354FF4C25142F8104F04F030FE5A
:105060006FF01504B5462046BD46F8BD5E4805F014
:105070004EFD18B988B06A465D4BE8E75D4804F01C
:1050800022FE044678B188B06A465B4BD461C2E91F
:105090000535042342F8103F52484FF4015104F003
:1050A0000FFEB546DFE7554804F00DFE044618B183
:1050B00088B06A46524BE9E75249534805F031FE41
:1050C0005249534805F02DFE5249534805F029FE38
:1050D00022465249524805F0AFFF4A49514805F06F
:1050E00020FE4A49504805F01CFE4A494F4805F049
:1050F00018FE224649494E4805F09EFF22463D498A
:105100004C4800F04BFA044618B188B06A464A4B46
:10511000BCE702464949474804F045FE044618B139
:1051200088B06A46464BB1E742480A2100F09AFA35
:10513000044618B188B06A46424BA7E73D480A21A9
:1051400000F0B4FA044618B188B06A463E4B9DE7B9
:1051500038480A2100F0CEFA044618B188B06A46F1
:105160003A4B93E702462549394800F017FA0446BE
:1051700020B16E4688B06A46364B87E72F493448DF
:10518000002204F010FE044620B16E4688B06A4644
:10519000314B7BE72E480A2100F064FA044620B127
:1051A0006E4688B06A462D4B70E729480A2100F008
:1051B0007DFA044620B16E4688B06A46284B65E702
:1051C00023480A2100F096FA044600283FF44BAF2A
:1051D0006E4688B06A46234B58E700BF23CA0000DA
:1051E00047CD0000E0B50000ECB200003DCA000071
:1051F0005FCA0000D0B9000081CA0000C8B9000031
:10520000BACA0000454F0000401B0020F59C00007A
:10521000501B0020794F0000601B0020BB9C000049
:10522000701B0020C01A0020D01A0020E01A0020B5
:10523000F01A0020801C0020F3CA0000A54F0000D7
:1052400024CB00005DCB00009BCB0000DBCB00003B
:10525000A81B00201DCC00004ECC000087CC000015
:10526000C5CC000005CD000030B403460C46DA88FA
:105270000068197902F040022243836805699C693D
:105280007CB1130206D52D6801238B402B4218BF39
:1052900082F0C062054BA446134030BC02F0B072ED
:1052A00060476FF0570030BC704700BF40000006F9
:1052B00098B5012100AF04469C3004F031FD04F1A3
:1052C000A00004F027FD00280CBF4FF030714FF014
:1052D000986154F8300CFFF7C7FFC0B16C4688B036
:1052E0006A460C4B53610C4BC2E90630042342F86A
:1052F000103F0A484FF4015104F01EFD0023A5465B
:1053000083F31188BFF36F8F0323184602DFBD4676
:1053100098BD00BF57CD00002BCE0000E8B50000BF
:105320002DE9F0430C4683B0002102AF04F10C00DC
:1053300004F0F6FC04F11006A4F15805804668B3A9
:10534000284605F085FE304604F0E4FC00280CBF3A
:105350004FF098614FF0307154F8C00CFFF784FFA4
:10536000C0B16C4688B002AA4C4B53614C4BC2E9A9
:105370000630042342F8103F4A484FF4015104F02C
:10538000DBFC0023A54683F31188BFF36F8F032353
:10539000184602DF0437BD46BDE8F08354F8C00C60
:1053A0004FF40011FFF760FFB8B1E94688B002AAD8
:1053B0003A4B53613A4BC2E90630042342F8103F9E
:1053C00038484FF4015104F0B7FCCD4688F31188FA
:1053D000BFF36F8F0323184602DFA4F1B003184612
:1053E00004F098FC00283EDD184604F093FC0146CA
:1053F00040F2E7304FF47A72002300EBC1304914D9
:10540000FAF7CEFE02460B464FF0FF314FF0FF3069
:10541000CDE90001A4F1900002F06EFE304604F0E8
:1054200079FC014610B3A83C204604F073FC002828
:1054300030DD204604F06EFC014640F2E73000EB20
:10544000C1304FF47A7200234914FAF7A9FE0246DC
:105450000B464FF0FF304FF0FF31CDE900012846F9
:1054600002F04AFE96E700221346CDE7AC3C204608
:1054700004F050FC00280DDD204604F04BFC0446EF
:1054800040F2E7304FF47A72002300EBC43001EBB6
:105490006441DAE700221346DBE700BF57CD000086
:1054A00046CE0000E8B50000F8B5002100AF044684
:1054B000643004F035FCA4F1380005F0C9FDBFF3F9
:1054C0005B8F04F16803012253E8001F002903D118
:1054D00043E800200028F7D1BFF35B8F0CBF1546CF
:1054E000002525D154F8680C4FF03071FFF7BCFE51
:1054F000C0B16D4688B06A46254B5361254BC2E961
:105500000630042342F8103F23484FF4015104F0C1
:1055100013FC0023AD4683F31188BFF36F8F032381
:10552000184602DF04F1380001F062FFBD46F8BD05
:10553000BFF35B8F53E8002F012A03D143E80051EA
:105540000029F7D1BFF35B8FF0D154F8680C4FF00E
:105550009861FFF789FEB8B16E4688B06A460C4B79
:1055600053610C4BC2E90630042342F8103F0A484D
:105570004FF4015104F0E0FBB54685F31188BFF309
:105580006F8F0323184602DF04F14800CCE700BF09
:1055900057CD00003ACE0000E8B50000F8B504464B
:1055A000154600AF0E46D3220021053005F010FE4F
:1055B00026602571294604F1D00004F0B1FB04F106
:1055C0001C0005F029FB1F491F4D002204F130008B
:1055D00005F032FD00221D4904F1680005F02CFDA4
:1055E0001B4904F1A00005F09CFB1A4904F1B0002E
:1055F00005F097FB2146012251F8C00B037902FA0E
:1056000003F3C4E9315300688368DB69B3B1984799
:10561000044680B16D4688B06A460F4B53610F4B0C
:105620000F48C2E90634042342F8103F4FF40151F9
:1056300004F082FBAD462046BD46F8BD6FF057042E
:10564000E8E700BFB152000021530000A954000058
:10565000739D00003F9D00008DCD000053CE0000E3
:10566000E8B5000098B50B1E00AF14DA6C4688B0A0
:105670006A460B4951610B490B48C2E906130423E2
:1056800042F8103F4FF4015104F056FB6FF0150043
:10569000A546BD4698BD103004F042FB0020F8E757
:1056A000B5CD000010CE0000E8B5000098B50B1E87
:1056B00000AF14DA6C4688B06A460B4951610B4959
:1056C0000B48C2E90613042342F8103F4FF401517E
:1056D00004F032FB6FF01500A546BD4698BD1430AE
:1056E00004F01EFB0020F8E7B5CD0000F3CD00006C
:1056F000E8B5000098B50B1E00AF14DA6C4688B010
:105700006A460B4951610B490B48C2E90613042351
:1057100042F8103F4FF4015104F00EFB6FF01500FA
:10572000A546BD4698BD183004F0FAFA0020F8E707
:10573000B5CD0000D4CD0000E8B50000F8B500F10B
:1057400018041C4B0C1BE6105E43D0F8D832B34251
:1057500005462BD9CB68002243F8082C01360444B7
:10576000D5F8D832B34209D8013BC5F8D83228461B
:1057700004F043FB0146A8B90020F8BDE26B52F8E3
:10578000083C183B42F8083C04F1300CBCE80F0020
:1057900004F118070FC79CE80300013687E80300EF
:1057A0001834DDE7284604F045FBE5E76FF0150007
:1057B000E3E700BFABAAAAAA2DE9F84F00AF6C46F9
:1057C00088B06A461D4B53611D4B9361032342F819
:1057D000103F1C48DFF870B000234FF4C651FBF7B0
:1057E00077FE0025A546194CAA460022594604F525
:1057F000387005F021FC4FF00008C4F814A304F140
:10580000E00605F1340912490022304605F014FC87
:10581000721B08F10108B8F1080F42F8094006F1BF
:105820004006F0D1B5F5467F04F5467403D100205B
:10583000BD46BDE8F88F4FF44675D6E76ACE000046
:10584000A7CE0000F0B500004DA0000048000020E9
:105850008B9F00002DE9F0418AB001AD85E80E0074
:10586000304B1968D3F81823884206D090424ED0A6
:105870006FF012000AB0BDE8F08103F54674904263
:1058800018BF1C46D4F8D832082B48D095E807003A
:10589000002704AECDE90777099786E8070004F1F1
:1058A00004084FF0FF324FF0FF33404601F042FB57
:1058B0004FF0FF3308930FCED4F8D8C218250CFB55
:1058C000055525440FC596E803000CF1010E85E847
:1058D000030004F1D802C4F8D8E2BB01D158C9B919
:1058E000E118182202FB0E42E033C1F8D82023440D
:1058F000182202FB0C4520466B6204F07EFA686AAF
:1059000004F043FB404604F093FA0020B2E703F5AD
:105910004674B7E70137082FDFD10023E8E76FF0BF
:105920000B00A7E748000020F0B585B004AC04E9FF
:105930000E001C4B1968D3F81823884205D09042FA
:105940001CD06FF0120005B0F0BD03F54674904214
:1059500018BF1C46271D4FF0FF324FF0FF3338466B
:1059600001F0E8FA04F118050026D4F8D832B34261
:1059700007D8384604F05CFA0020E4E703F54674E3
:10598000E8E72A68019B9A4202D001361835ECE715
:10599000E86805F05DFB29462046FFF7CFFE0028AA
:1059A000F3D0D0E7480000202DE9F04190B000AFDF
:1059B000D7E9166800254FF47A74C7E90415A6FBE9
:1059C000041304FB0833C90B41EA4341DB0BC7E96D
:1059D00006130123C7E90A2587F820300022002397
:1059E000C7E90C2307F110037B600223BB60BB8176
:1059F0003B1D0ECB87F83850FFF72CFF0446B0B1A3
:105A00006E4688B06A460C4B53610C4BC2E90630B7
:105A1000042342F8103F0A482B464FF40151FBF78C
:105A200057FDB54620464037BD46BDE8F0813046BB
:105A3000414605F05DFAF5E784CE0000ACCE0000EB
:105A4000F0B50000BFF34F8F0549064BCA6802F45A
:105A5000E0621343CB60BFF34F8F00BFFDE700BF91
:105A600000ED00E00400FA054FF08053D3F8302138
:105A7000082A06D1D3F83431052B02D8024AD05C6B
:105A800070470020704700BFC7CE0000024AD2F81E
:105A90000034002BFBD0704700E0014010B54FF000
:105AA0008053D3F83021082A4ED14FF08042002194
:105AB000C2F80C11C2F81011C2F8381502F54042B4
:105AC000D3F80414C2F82015D3F80814C2F824152A
:105AD000D3F80C14C2F82815D3F81014C2F82C15FA
