:10000000C098002095410000B5CC0000814100005F
:10001000814100008141000081410000000000009A
:100020000000000000000000000000008943000004
:1000300081410000000000005543000081410000A4
:100040004545000045450000454500004545000088
:100050004545000045450000454500004545000078
:100060004545000045450000454500004545000068
:100070004545000045450000454500004545000058
:100080004545000045450000454500004545000048
:100090004545000045450000454500004545000038
:1000A0004545000045450000454500004545000028
:1000B0004545000045450000454500004545000018
:1000C0004545000045450000454500004545000008
:1000D00045450000454500004545000045450000F8
:1000E00045450000454500004545000045450000E8
:1000F00045450000454500004545000045450000D8
:100100007BB972B90029BEBF00204FF0004106E064
:1001100008BF00281CBF6FF000414FF0FF3000F017
:1001200057B8ADF1080C6DE904CE002909DB002BAE
:100130001ADB00F069F8DDF804E0DDE9022304B021
:100140007047404261EB4101002B1BDB00F05CF883
:10015000DDF804E0DDE9022304B0404261EB410137
:10016000524263EB43037047524263EB430300F098
:100170004BF8DDF804E0DDE9022304B0404261EB16
:1001800041017047524263EB430300F03DF8DDF854
:1001900004E0DDE9022304B0524263EB43037047FD
:1001A00053B94AB9002908BF00281CBF4FF0FF31DE
:1001B0004FF0FF3000F00CB8ADF1080C6DE904CE43
:1001C00000F022F8DDF804E0DDE9022304B0704716
:1001D000704700BF10F8012B11F8013B012A28BF1E
:1001E0009A42F7D0D01A7047034611F8012B03F852
:1001F000012B002AF9D17047034613F8012B002A7E
:10020000FBD1181A013870472DE9F04786468C4615
:100210000846089E154674461946002B40F0C280D9
:100220008542B2FA82F245D94AB1C2F1200300FAFE
:1002300002FC2EFA03F3954043EA0C0C94404FEA7B
:10024000154EA8B2BCFBFEF8230C0EFB18CC08FB25
:1002500000F943EA0C43994528D9EB1808F1FF3718
:1002600004D2994502D9A8F102072B44A3EB090354
:10027000A4B2B3FBFEFC0EFB1C330CFB00F044EA03
:100280000344A04214D92C190CF1FF3304D2A0422C
:1002900002D9ACF102032C44241A43EA07401EB1F0
:1002A000D440002334607360BDE8F0874746DDE743
:1002B0006346F1E792BB431B01214FEA154EAFB2F3
:1002C000B3FBFEFC200C0EFB1C330CFB07F840EAD2
:1002D0000343984562D9EB180CF1FF3004D29845DE
:1002E00002D9ACF102002B44A3EB0803A4B2B3FB88
:1002F000FEFC0EFB1C330CFB07F744EA0344A74249
:100300004ED92C190CF1FF3304D2A74202D9ACF11B
:1003100002032C44E41B43EA0040C0E7C2F120037F
:1003200020FA03F1954090402EFA03F303434FEA7D
:10033000154EAFB2B1FBFEFC0EFB1C10190C0CFBF2
:1003400007F841EA0041884504FA02F422D9691805
:100350000CF1FF3004D2884502D9ACF102002944E7
:10036000A1EB08019BB2B1FBFEFC0EFB1C110CFBC8
:1003700007F743EA01439F420ED9EB180CF1FF3116
:1003800004D29F4202D9ACF102012B44DB1B41EAAB
:10039000004192E76046E3E76146F7E76046A3E77E
:1003A0006346B7E7834206D916B9002108467BE7C2
:1003B000C6E900E0F9E7B3FA83F78FB9834201D3C6
:1003C000724508D8BEEB020460EB030301209C4693
:1003D0001EB9002168E73846FAE7C6E9004CF8E79D
:1003E000C7F1200CBB4022FA0CF41C432EFA0CF18E
:1003F00020FA0CF3B84001434FEA14490EFA07F50E
:10040000B3FBF9F81FFA84FE09FB18300B0C08FB4C
:100410000EFA43EA00439A4502FA07F240D9E3187C
:1004200008F1FF3004D29A4502D9A8F10200234412
:10043000A3EB0A0389B2B3FBF9F809FB183308FBF5
:100440000EFE41EA03418E452CD9611808F1FF33B5
:1004500004D28E4502D9A8F10203214443EA0040A8
:10046000A0FB0298A1EB0E014145CE46434602D3C4
:1004700006D14D4504D2B9EB020E68EB04030138F6
:10048000002EA6D0B5EB0E0261EB030101FA0CFCC5
:1004900022FA07F34CEA0303F940C6E9003198E772
:1004A0004046C5E74346D9E72DE9F047064688B000
:1004B0000F4690460DF027FD4FF47A73A0FB0345DD
:1004C00003FB0155E40B012F44EA45444FEAD535BF
:1004D00007D1294922462B4630460CF026F8002049
:1004E00012E0D8F8047025483946FFF773FE70B162
:1004F00023483946FFF76EFE48B1304621493A4657
:100500000CF021F86FF0040008B0BDE8F087204639
:10051000294617A3D3E90023FFF7F2FD05460C4651
:1005200010461946184A0023FFF7EAFD80460F4699
:10053000104619464EF660220023FFF7E1FD824681
:100540008946104619464FF47A720023FFF7D8FD0A
:10055000CDE902A9CDE90623CDE90401CDE9008763
:100560000A492A46234630460BF0DFFFB7E700BFB3
:10057000005C26050000000090F80000A1F80000D3
:10058000A4F80000ADF8000080EE3600C5F80000C9
:10059000B0B5836800AF5B6A9847044698B10B48D2
:1005A00003685B070FD06D4688B06A46084B5361FD
:1005B000084BC2E90634042342F8103F4FF40151BE
:1005C0000BF0B8F9AD462046BD46B0BDE4010020B1
:1005D00018F2000061F50000014809F089BB00BF76
:1005E0008C0200202DE9F04F6E4CA1B0236803F07F
:1005F0000703022B02AF0FD96D4688B002AA6A4BDF
:1006000053616A4B9361032342F8103F4FF4C65184
:1006100020460BF08FF9AD4665480DF078FAD0B959
:1006200023685A070FD06D4688B002AA614B536108
:100630005E4B9361032342F8103F5A484FF4C25176
:100640000BF078F9AD46002383F31188BFF36F8F69
:100650000323184602DF564D5749AB6800221B6C36
:100660002846984710F1860F40F08980236803F0F0
:100670000703022B0FD96E4688B002AA4F4B536175
:100680004A4B9361032342F8103F4FF4C65145484B
:100690000BF050F9B546AB6845481B6807F15408A4
:1006A000414698472368002800F09C805E0710D0E0
:1006B0006E4688B002AA424B5361424BC2E90630F3
:1006C000042342F8103F37484FF401510BF032F940
:1006D000B546236813F0060F0FD06E4688B002AA05
:1006E000394B5361314B9361032342F8103F4FF470
:1006F000C4512C480BF01EF9B5462D4EDFF8CCA0A6
:100700004FF0000909F10109314A4B46202107F158
:1007100034000AF0A7FD0DF0F6FB4FF47A72A0FB4F
:10072000020302FB0131C00B4FF47A72002340EA4E
:100730004140C90BFFF7E4FC264ACDE90001202126
:1007400040460AF08FFD30460BF0F1F8002800F02B
:10075000158223685B0700F02F82EB4688B002AA5F
:100760001D4B53611D4BC2E90630042342F8103F74
:100770000C484FF401510BF0DDF8DD461CE2002877
:1007800089D023685B0786D06E4688B002AA144BD6
:100790005361064BC2E90630042342F8103F4FF480
:1007A000015174E7E40100203FF20000B0F50000C1
:1007B000C0E4000064F20000D905000079F20000F6
:1007C000E4F20000AAF5000081F3000054F50000F7
:1007D000D1F40000D9F40000C8F300006CF500006B
:1007E000B4F2000003F00703022B6BD96E4688B009
:1007F0007B6D02AADFF84492914951614FF0040ADF
:10080000C2E906938F4842F810AF4FF403510BF042
:1008100091F8236803F00703022BB54652D98AB03A
:1008200002AA894B8748C2E9053907F15803D36109
:1008300040F201331384854B42F8103F4FF41351BB
:100840000BF078F8236803F00703022BB54639D97B
:1008500088B0BB6E02AA7E49D361C2E90519794806
:1008600042F810AF4FF403510BF064F8236803F023
:100870000703022BB54625D98AB0D7E91B1302AA74
:100880007448C2E907130523C2E905094FF423514F
:1008900042F8103F6B480BF04DF8236803F0070354
:1008A000022BB5460ED988B07B6F02AA6A49D36184
:1008B000C2E90519634842F810AF4FF403510BF039
:1008C00039F8B54665480BF032F80146002834D0B7
:1008D0002368580710D06E4688B002AA604B536157
:1008E000604BC2E90631042342F8103F55484FF4EB
:1008F00001510BF01FF8B5464FF48030002109F08C
:10090000D3FD56480BF013F8002800F0B980236897
:100910005A0700F0D2806E4688B002AA504B53614D
:10092000514BC2E90630042342F8103F45484FF4CA
:1009300001510AF0FFFFB546BFE0182207F134006D
:100940000DF038FD4FF4C872F023C7E90F23AE68ED
:10095000424802234FF0010987F84490FB6407F1F5
:100960003401F3699847014638B123685B07C3D067
:100970006E4688B002AA3D4BB1E7182207F11C0071
:100980000DF018FD782340F28F12C7E90832BB62E0
:1009900087F82C90B369314807F11C01984758B18A
:1009A00023685E07A8D06E4688B002AA304B536118
:1009B0002C4BC2E9063096E76423A022C7E9152331
:1009C00050212823C7E91713C7F86600C7F86A0043
:1009D000A7F86E0087F8649087F86590F3691F4860
:1009E0004146984738B123685B0785D06E4688B08A
:1009F00002AA1E4BDBE71F4B0FCB07F10C0C8CE858
:100A00000F001648736A6146984740B123685E0735
:100A10003FF472AF6E4688B002AA174BC7E7B368BF
:100A20000E48984700283FF467AF236859073FF402
:100A300063AF6E4688B002AA104BB8E7AAF5000073
:100A40000AF30000E401002023F300000400000189
:100A50003CF3000056F300006CF30000C0E400001B
:100A6000C8F3000099F500008AF50000EBF30000E0
:100A700012F4000010E8000018F2000039F4000041
:100A8000D5F808909648D9F830309847064600289F
:100A900032D023685B0710D0E94688B002AA914B98
:100AA0005361914BC2E90630042342F8103F8F484E
:100AB0004FF401510AF03EFFCD4600214FF4803043
:100AC00009F0F2FCAB6886481B69002198470028B2
:100AD0003FF413AE23685A073FF40FAE6E4688B05A
:100AE00002AA834B5361834BC2E90630042342F8C8
:100AF000103F4FF40151FCE5DFF8E4A1002114227E
:100B000007F158000DF056FC4FF0010BEF237E6506
:100B1000FE653B6687F864B0D9F818304146504608
:100B20009847C0B123685E0710D06E4688B002AA0D
:100B3000714B53616C4BC2E90630042342F8103FFD
:100B40006A484FF401510AF0F5FEB546AB686448B7
:100B50009B6B9847B1E71036B6F5C07FCED1D9F878
:100B600034305F48594698470028A6D02368590773
:100B7000A3D06E4688B002AA604BD0E6AB687B601B
:100B800030461B6B984738B12368590714D0EB46A1
:100B900088B002AA534BE4E5594B0FCB07F10C0C7C
:100BA0008CE80F0061463046FFF7F2FC002843D086
:100BB0007B6830469B6B984752480022002309F01F
:100BC000BDF898B9236803F00703022B0ED9EB4652
:100BD00088B002AA4C4B4548C2E9053A032342F8C3
:100BE000103F4FF4C6510AF0A5FEDD46DFF81CB1F8
:100BF000AB684146DB6B3046984710F13D0F15D08E
:100C0000236803F0070300284CD07BB1EB4688B083
:100C100002AA3F4BD061C2E9053A042342F8103FD3
:100C200032484FF401510AF085FEDD4600214FF4B1
:100C3000004009F039FC65E5C8237822C7E907328E
:100C40004FF0010B40F2024207F13403BA8487F8F7
:100C500026B0BB6207F11C013046FFF799FC002863
:100C6000A6D1D423C822C7E907234FF48073BB84DD
:100C700087F826B0C7F8288007F11C013046FFF737
:100C800087FC002894D17B6859465B6B30469847B7
:100C9000002891D023685B078ED0EB4688B002AA6B
:100CA000164B5EE5022B17D9C7F804D08AB0BB6D8E
:100CB00097F8540097F8551002AA53620623C2E928
:100CC0000701C2E905BA094842F8103F4FF4435101
:100CD0000AF030FED7F804D0BB6D002B88D1A5E711
:100CE000C0E400005DF400008AF50000E40100208B
:100CF000ADF40000B0F5000012F4000086F400002E
:100D000010E800008C020020E7F4000021F500004C
:100D1000FAF400002DE9F04F91B08407009302F03F
:100D200004030293C2F3C20303F10103DDF86890E8
:100D3000039205460E46059340F0BA81041D30B17A
:100D4000072909D86FF01B0011B0BDE8F08F01F042
:100D50000706341DC6F10806009B4FF00008591E17
:100D60004FF0040A4FF0FF330193CDF8108047464F
:100D7000C34653460DB1009A22600598002800F33F
:100D8000E8809848009A824203D397488242C0F094
:100D9000E080039AA4EB050E92074FEA9E0000F153
:100DA00003810F2F00F2B180002D00F0058107F1C3
:100DB00040020DEB020C019A0CF8200C0CF8102CE0
:100DC000049801300490E7E07A285DD84B280ED8CB
:100DD000472859D829282DD8252852D054D820283A
:100DE0007AD02338D0F1000B4BEB000B74E04C3879
:100DF0002E2849D8DFE800F070484848484848485D
:100E0000484848484B484848484848484859484B4B
:100E10004B595959704B6D487048184B18484882C7
:100E20007F4B48484B487F0000204FF0000B4FF0AD
:100E3000040A38E02A38C0B2012202FA00F010EAAF
:100E40000E0F49D110F0625C2FD110EA020B43D093
:100E50006046013C5444B4FBFAF40AFB04F4002D50
:100E600061D0A3EB050CA444B4453FF66BAF00285A
:100E700068D1042B47D159F8043B23600434042380
:100E80002AE0019A013A01924FF0000B24E011F898
:100E9000010C6C2834D111F8023C00206C2B8346E5
:100EA000C5D14FF0080A5346D3E709F1070929F0E5
:100EB00007090734F9E802AB24F0070435B10698B6
:100EC0002044B0423FF63EAFC4E900AB08344FF0D7
:100ED000000B4FF0080A534611F8010F002878D094
:100EE000BBF1000F7FF470AF2528F5D1019B0133D2
:100EF00001934FF0010B4FF0040AECE7584694E7DA
:100F000000208346A5E7082B02D06FF015001BE7F1
:100F100009F1070929F00709F9E80223C4E90023C8
:100F200008340823D8E768B9042B02D109F1040971
:100F3000A4E7082BE9D109F1070929F0070909F10C
:100F40000809EDE7059A013A059259F8042B009239
:100F500010E7039A900720D5A4EB050E4FEA9E00F8
:100F60004FF0010CBEF5007FCFD20F2FCDD8F5B1D9
:100F700007F140020DEB020EC0B2019A0EF8200CF0
:100F80000EF8102CBCF1000F3FF41AAF60F07F0098
:100F90000EF8200C08F101080137C5F108020434ED
:100FA00006924FF6DA7E97E74FF0000CDAE7BCF1D5
:100FB000000F01D00136EFE7029802360028EBD18E
:100FC0000098CDE90631FFF717F9DDE9063106444F
:100FD000E2E7631BB3F5806F97D23DB9A6F1080431
:100FE000E018B1E6E8E3000010150100029A28605D
:100FF0009B082B709DF81030C2B1EB7085F8028011
:10100000B8F1000F05D008A80022C5F1010C9742E5
:101010000ED1C5F101030DF120094FF0000A019333
:101020000DF1300B574512D1601B8DE66B70E5E773
:1010300010F8013B190608D504EB0C0EB64503F079
:101040007F033FF67FAE04F8013B0132DFE7B8F1E2
:10105000000F03D099F90020002A17DB029BD3B1BF
:101060001AF80B2004F8012B0022019B9818204449
:10107000B0423FF667AE99F8000004F8010B009902
:10108000039220460DF06EF9039A14440AF1010A06
:1010900009F10109C6E799F8002055F822300093BC
:1010A000029B45F822300098FFF7A6F8421CDCE7C7
:1010B0006FF00D0048E600BF2DE9F04F97B000AF8C
:1010C00090F802A0D7F880B03B62CBF3C00304468F
:1010D000FA62BB61894641B9457800780AEB800025
:1010E00020444D4517D8A0EB0409E378FB61BAF121
:1010F000000F02D01BF0010F16D1FB6953BBFB6A36
:101100001BB13A6A4946204698474D4628465C3707
:10111000BD46BDE8F08F461C3046FFF76DF8013044
:10112000304409F10109DCE7237862687A62FA6ADF
:101130009900796104EB8301002A40F006814D4655
:101140000E4601EB0A094FF000084E4552D101EB63
:101150000A0610E01BF0020FD1D023789A007A61C2
:1011600062687A62FA6A04EB8301002A7DD14D46F7
:1011700001EB0A0690461BF0050F0CBF022301236A
:10118000FB62FB6906EB430A0BF00203BB625645A8
:10119000BCD016F8021B16F8013C54F823909C4B67
:1011A000994502D39B4B99453CD3BB69002B46D054
:1011B000786A0AF070FC002841D09748036813F061
:1011C000060F15D0E9468AB06A46944B5361944B9A
:1011D00093617B6AC2E9073140F201339384914BFA
:1011E00042F8103F00234FF4325100F01BFECD4671
:1011F000023DCCE716F8013BF96254F82300FEF7F4
:10120000FBFFD7F88430F96A01304BB1D7F888304A
:1012100098453EBFD7F8843023F8180008F101083C
:10122000054492E7BB6923B1786A0AF034FC0028D0
:10123000C3D11BF0010F05D1FB6AED1AA7E7BB6A0A
:10124000002BA4D04846FEF7D7FFD7F8843053B11F
:10125000D7F8883098453FBFD7F88420431C22F840
:10126000183008F10108054491E7BAF1000F72D077
:101270001BF0040872D0D04607F148000026524601
:101280003B61B9620DF06EF8B96A3B6901EB0A0285
:10129000BA62FA69F9695200FA60BA6A02EB41026D
:1012A0003A610BF00202BA603A69B96A8A4257D1D0
:1012B00062787A621BF0020F32440CBF4FEA580189
:1012C00000211BF0010FD2B240F09F801BF0040FF1
:1012D00014BF40460020BB616270A070E1703A6AA2
:1012E0007969FB6A20469847051EFFF60FAFBB6978
:1012F00023707B6A6370FB69E37041463A6AFB6A5C
:1013000084F802A007F148009847B0F10008C0F245
:10131000B7807B693A6AA9EB0A01C91AFB68C91A46
:10132000D7E90A0398470028C0F2AC80A84408EB2C
:1013300000054FF0000B07F1380AB34574D30021C4
:101340003A6AFB6A08469847E0E6564607F13800D5
:101350004FF0000893E7D046564697E7464695E794
:10136000BA6A12F8021BBA6212F8015C284A54F8F1
:101370002500904202D3274A90421ED3BA6932B167
:10138000786A7B600AF087FB7B6800288CD1BA689A
:1013900002BB08F1280207F1300C08F10100944467
:1013A00007F1580252FA80F008F102080CF8101CFC
:1013B0005FFA88F800F8105C76E7BA693AB1786AA3
:1013C0007B600AF068FB7B6800287FF46DAF1BF040
:1013D000010F09D006F1280207F13000711C161820
:1013E00006F8205CCEB25FE71BF0040F3FF45CAF61
:1013F00008F1280207F1300008F1010102EB0008B2
:1014000008F8105C5FFA81F84EE7002063E700BF40
:10141000E8E3000010150100C4010020B5F500004C
:101420005CF60000050000011BF80A3087F8373031
:1014300054F82390D7F88430FBB133F81B803A6A14
:10144000FB6A012107F13700984700281ADB0544A1
:10145000B8F1000F06D14846FEF7CEFE00F10108B4
:101460001FFA88F83A6AFB6A4146484698470028BE
:1014700008DB05440BF1010B5FE7D7F88480DEE75A
:10148000454643E6054641E6014B1860704700BFFC
:101490000000002080B505460E461746984609F024
:1014A00021F803460CF096FFDFF81890044649F83F
:1014B0000030424630463946A84754F8090002F049
:1014C000F1FE00BF0800000008B50446EFF31183E9
:1014D000202383F31288BFF36F8F04F073FB204641
:1014E00002F08AFE02480AF0FDFA0BF0F8FBFCE776
:1014F00086F600002DE9F047058B04462807904644
:1015000011D4022905F0070540F0CC8020460AF0EE
:1015100054FD78B10138218B042811D8DFE800F0A0
:10152000C2106D85950001290CBF45F0100545F0EE
:101530002005258388F31188BFF36F8FBDE8F087FE
:1015400001F0070AAA4500F0A5800027B9463E46EB
:10155000A368002B00F0BC8041F00801218388F3D0
:101560001188BFF36F8FA168002900F0BA800D6861
:10157000002900F0B680D1F8048033465246204658
:10158000C047002D76D02B6829461D46F0E701F0B4
:1015900007035A1F012A1BD8002221F00701062B3E
:1015A000276889B2C4E9002209D13B4603E0628B77
:1015B000013262831B68002BF9D141F002012183C3
:1015C00020460AF0FAFC00287AD041F0200176E0AB
:1015D000042B0AD121F0070189B2218320460AF0A9
:1015E000ECFC10B141F020012183218B01F0070AAE
:1015F000AA454FD00027B946AAE7236921F0070181
:1016000041F00601062DD3F8009021832DD1B9F1C8
:10161000000F3FD041F00801218388F31188BFF308
:101620006F8F3A492046C84729E021F00701236916
:1016300041F0040189B2042DD3F804902183E6D04F
:1016400000273E464FF0040A82E721F00701236994
:1016500041F0050189B2052DD3F808902183D6D039
:1016600000273E464FF0050A72E700273E464FF03E
:10167000060A6DE72B4687E7B9F1000FD1D1EFF3EA
:101680001188202383F31288BFF36F8F238B23F0FD
:1016900008032383258BEA062ED525F01003238328
:1016A00005F007056669218B002EBFF670AF002399
:1016B0002768C4E9003321F0070141F001012183CB
:1016C000218B01F0070AAA454FF000097FF440AFD3
:1016D000002F9CD041F00801218388F31188BFF3CB
:1016E0006F8F002FC8D03D6839463346524620469A
:1016F0000AF08FFC2F46F4E7AB067FF51BAF25F011
:101700002003238305F0070500E700BF3FC000006A
:101710002DE9F047DFF85880044607464FF00109ED
:1017200014B93846BDE8F08794FAA4F5B5FA85F502
:1017300009FA05F32E0108EB05156FEA030A24EAFE
:1017400003042B7B002BEBD058F806301B694BB9F8
:101750004644042273682846196807EA0A0700F01D
:1017600021FBDDE7284698470028D9D1F0E700BFE4
:10177000C4E6000030B51049104889B000220CF0D2
:10178000C4FB0F4D0F4900220023CDE9062300249E
:101790000E23CDE90334CDE901440B4B00944FF403
:1017A0000062284608F0C4FB0849284608F0ECFA15
:1017B000204609B030BD00BFD117000068130020DB
:1017C000A8020020C0570020111B0000AFF6000047
:1017D000014808F08DBA00BF740200202DE9F047DF
:1017E00080461F480F460AF0E3FC0646002830D02A
:1017F00000252846BDE8F087237B6BB12368DB68B2
:101800000BB12046984723681B69D3B9636804224B
:101810001968204600F0C6FA013610344C45EBD367
:10182000B8F1000FE5D0002DE2D02846FFF770FF99
:101830000546002FF7D000214FF4A47008F034FEC5
:10184000F1E7204698470028E0D00AFA06F31D4346
:10185000E2E7044CDFF8109005464FF0010ADDE79F
:10186000F0170020C4E60000D4E60000014B53F856
:10187000200070476CE8000008B5034608462BB10D
:10188000044A136000F07EFD002008BD6FF01500D3
:10189000FBE700BF0400002010B5044C237813B907
:1018A000034808F025FA0123237010BD68260020A4
:1018B0007402002010B504460B480AF079FC5CB1B4
:1018C000BFF35B8F094B53E8001F013943E8001257
:1018D000002AF8D1BFF35B8F05480CF022FB0548C6
:1018E000BDE8104008F004BAE8170020EC1700200B
:1018F00068130020740200200020064BBFF35B8FAA
:10190000014653E8000F43E80012002AF9D1BFF363
:101910005B8F7047E817002070B5FFF7EDFF084CAC
:10192000084E0546B44200D370BD63685B792BB1A5
:1019300023685B6813B12946204698471034F1E7C5
:10194000C4E60000D4E6000010B5044C044920466B
:101950000AF0CFF9034B1C6010BD00BF80010020CE
:1019600058E80000E0170020094A0A4808B500239B
:101970001370094A1360094A4FF400411360FFF7DE
:101980007BFFFFF7E1FFBDE8084000F05BB900BF57
:1019900069260020ADC10000E8170020EC170020E8
:1019A00001460022014800230AF0C4B9800100204A
:1019B00001480AF05ABA00BF80010020024B0146DC
:1019C00018680AF0A6BA00BFE017002001480AF024
:1019D000DBBA00BF800100202DE9F041354B1878BB
:1019E000002864D0FFF7E4FF044698B1BFF35B8F93
:1019F000314B53E8001F013943E80012002AF8D1A7
:101A0000BFF35B8F2D4DDFF8B88045452DD32046C1
:101A1000FFF7D4FF2B4B2C4C1B68002B19DD0CF06F
:101A200072FA4FF47A72A0FB020302FB0131C30B7E
:101A3000D4E9002043EA41439B1A4FEAD13140F2F6
:101A4000E93261EB0001934271F1000101D3FFF72C
:101A500063FFD4E9003213F57A7342F10002C4E95E
:101A60000032BDE8F041FFF7B1BF6B685B793BB175
:101A700021784B0706D52B6821461B6828469847D6
:101A80001035C2E720462688C1F3C20700F0B8FA35
:101A9000C6F382160246002EEDD00028EBDB0123B0
:101AA0003946284600F098F9B042E9D3E3E7BDE8AB
:101AB000F08100BF68260020EC170020C4E600007B
:101AC000D4E60000E81700206013002070B50D4D2B
:101AD000297861B90120FFF781FE0B4C0B4EB4420F
:101AE00006D3FFF779FF0028FBD101232B7070BDCF
:101AF00063685B791BB1236820469B689847103464
:101B0000EDE700BF69260020C4E60000D4E600002F
:101B100000212DE9F0470846FFF760FE044658B360
:101B200040F267684FF000090CF054FC1B4B1C4A54
:101B30001B58136033B11B4B1B68002B02DD1A4886
:101B400008F0D6F8194FDFF860A0002544B1204610
:101B5000FFF7DEFD044618B94FF0FF384FF0FF39AC
:101B6000FFF73AFF064628B9B5B942464B465046FC
:101B700008F0E4F83546E9E74FF0FF384FF0FF3959
:101B8000D2E72B689B691BB1002211462846984773
:101B90001035BD42F5D3E8E7054DFAE7080000002F
:101BA000E4170020EC17002074020020D4E60000A7
:101BB000C4E6000010B50F480AF0FAFA0E4B1B7885
:101BC0006BB1EFF31184202383F31288BFF36F8F7F
:101BD000FFF702FF84F31188BFF36F8F10BD074B2F
:101BE0001B68002BFAD00028F8D10548BDE810404A
:101BF00008F07EB8EC17002069260020E4170020CA
:101C00007402002010B5064B1B6804469847214615
:101C1000A06004480AF00AF9BDE81040FFF7CABF07
:101C20000400002080010020044A054B9B1AB1EB00
:101C3000D30F34BF52F831000020704754E6000043
:101C4000C4E600000B480C4B30B51B1A0B4CDB08EC
:101C500000210430994200D130BD10F831202568B0
:101C600002F0070225F007052A4344F8042B01314E
:101C7000F0E700BF54E60000C4E60000C401002005
:101C8000F8B50B4F0B4DED1B0646ED080024AC429A
:101C900003D14FF0FF342046F8BD57F8340020B18F
:101CA0003146FEF797FA0028F5D00134EFE700BF80
:101CB00054E60000C4E6000000282DE9F0478846FD
:101CC00015461F461DDADFF89890264E4FF0000AA1
:101CD000A6EB090636095446B24509F1100902D1AE
:101CE0002046BDE8F08759F80C0C3B4600792A469F
:101CF0004146FFF7E1FF844238BF04460AF1010A7A
:101D0000EAE7194B194AD21AB5EBD20F26D203EBE8
:101D1000C5031C79BC4228BF3C46154EC0B200EB3F
:101D2000400056F825300722824023EA020304F0DF
:101D30000702824013430021032223FA02F000F03D
:101D40000700814202F1030238BF01461E2AF4D186
:101D500023F007030B4346F82530C1E70024DCE7F6
:101D6000C4E60000D4E6000054E60000C4E600002B
:101D7000C4010020F8B5094D094BED1A06460F467F
:101D8000ED080024AC4200D3F8BD002122B23B464E
:101D9000304601340AF02CFAA4B2F3E7C4E600009E
:101DA00054E6000038B50B4BC31A0D461B11114603
:101DB000426801331371436804469971FFF7DAFFF3
:101DC00063681D60636801225A71BDE83840FFF7FF
:101DD00063BD00BFC4E6000070B14168097973B10A
:101DE000002A17DBCBB20C4951F8220003EB430366
:101DF000D84000F0070070474FF0FF31EFE7074988
:101E00000748401AB2EBD00F3ABF01EBC201087984
:101E10001846704704207047C401002054E60000B3
:101E2000C4E600002DE9F04F8FB004AFC1F34A289B
:101E3000B8600D4691467B600C0DB8F1000F69D07B
:101E4000002607F114034FF0040B4FF00A0AC7F8FD
:101E50000C80C7E907667E620193CDF808B0CDF823
:101E600000A007F11C03F96832464846FFF724F941
:101E7000B0F5006F034622D32B48036813F0060F1A
:101E800019D06C468AB0D9F8041004AB274D5D61B7
:101E9000274DC3E9065140F2FF7119621A4640F21C
:101EA00001319984234B42F8103F4FF432513346AD
:101EB000FFF7B8FFA5462C37BD46BDE8F08FC0F34D
:101EC0000A0804F11700184420F0070080083B605E
:101ED000FFF766FD68F35325044690B13B68164A48
:101EE000C7E9083600F1100107F11403F961CDE9E3
:101EF00000A3CDF808B0F96807F11C034846FFF7C6
:101F0000DBF868F353257B68B9682A4620460AF057
:101F10008DF9D0E704F1170020F007008008FFF7E3
:101F20003FFD0446EDE700BFDC010020C4F60000E1
:101F30005DF700000500000101C200002DE9F04F2F
:101F400087B002AFD7E91069BD6B7960044693464C
:101F500098464EB3C7F80C90CDF80090FA6B334614
:101F600010210020FEF7D6FEB0F5006F82461CD38C
:101F70002048036813F0060F12D06C4688B002AAFE
:101F80001D4B53611D4B936140F2FF73D3610423DA
:101F900042F8103F00234FF40251FFF743FFA546DC
:101FA0001437BD46BDE8F08FB24605F11700504426
:101FB00020F0070004F007048008FFF7F1FC0BF0A5
:101FC000070BE40044EA8B1444EA4A2444EA05542B
:101FD000054640B13EB1CDF80090FA6B334651460C
:101FE0001030FEF797FE79684346224628460AF0ED
:101FF0001DF9D5E7DC01002007F7000043F70000DA
:10200000406820B1034BC01A40F38F0070474FF077
:10201000FF307047C40100200EB403B503AB014686
:1020200053F8042B0448019302F058FC02B05DF809
:1020300004EB03B0704700BF95C20000CA0605D488
:102040008B064CBF02490349FFF7E6BF704700BF4C
:1020500036FB000011F800002DE9F04F89B09B46D7
:10206000149B06939DF84CA0159B0593169B179EF9
:10207000049304460D469046BAF1000F00F09D808F
:1020800006F4807307930AF0B1F806F002090246DD
:1020900000283ED091492046FFF7BEFF0746B9F120
:1020A000000F08D016F0440F35D18D492A4620463E
:1020B000FFF7B2FF074406F0010353B1894B8A4989
:1020C00053F82A20894B2046002A08BF1A46FFF7FA
:1020D000A3FF06F48073002B49D006F00803002B01
:1020E00063D1B8F1000F66D0814942462046FFF720
:1020F00093FF0546069B3D44002B6DD1049B002BAE
:1021000073D1F30700F1E48031462046FFF796FFD4
:10211000D8E00746C3E7774B18680028CAD0764B4B
:102120004FF47A791B68B5FBF3F54FF46161B5FBA9
:10213000F0F300FB135509FB05F54FF03C0CB3FB26
:10214000F1F201FB1231B5FBF0FEB1FBFCF300FB39
:102150001E550CFB131109FB05F50091B5FBF0F5BD
:102160006649CDE901E52046FFF756FFA2E706F0F4
:102170000803EBB1624B634953F82A202046FFF76E
:102180004BFF0546B8F1000F05D05949424620469D
:10219000FFF742FF0544BBF1000FABD05A495A4646
:1021A0002046FFF739FF0544A4E74FF0000BE1E7B5
:1021B00006F00805E6E745469CE7BBF1010F069BE4
:1021C00006D1002B64D1049B002B7BD000250CE0B2
:1021D000002BF8D04D485CE04D48069B4D49224607
:1021E00009F028FC049B002B68D0DFF82C81DFF875
:1021F0002C91049F3146102F204628BF1027FFF74F
:102200001DFF4FF0000B5D4545DC059B49461A78E4
:102210002046FFF701FF4FF0010B1BF0070F03D122
:1022200041462046FFF7F8FE5F453BD9059B4946EE
:1022300013F80B202046FFF7EFFE0BF1010BBBF16B
:10224000100FEAD1364920464FF0000BFFF7E4FEAD
:102250005A46059B9A5CA2F120015F2928BF2E22D5
:1022600030492046FFF7D8FE0BF1010BBBF1100FF0
:102270001DD01BF0070F03D141462046FFF7CCFECF
:102280005F455A46E5D841462046FFF7C5FEEBE7D5
:102290001F485546A1E741462046FFF7BDFE0BF11A
:1022A000010BB0E720492046FFF7B6FEC5E7059BC6
:1022B0003B440593049BDB1B04939AD1BAF1000FB6
:1022C0007FF41FAF204609B0BDE8F04F09F0D5BF3D
:1022D000064A05492046FFF79FFE15E781F70000F3
:1022E00085F700007CE800005C0901007CF7000035
:1022F000AAF70000F8170020F41700208EF700005E
:1023000090E80000AEF70000B4F70000CBC2000078
:1023100095C20000DD480000C1F70000B9F70000D9
:10232000C3F70000C5F70000BFF7000073B542F225
:102330000F738B4228BF0B4605680F4A04460521E0
:10234000684608F08FFF63680C495B680646042204
:10235000284609F084FF63683246694628465B6870
:1023600009F07DFF636806495B681722284609F07B
:1023700076FF02B070BD00BFAAF40000E0F70000D5
:10238000C8F70000074A00210123904206D8064AF8
:1023900001B901231360054B1860704740085B00CA
:1023A0000121F2E740420F00F4170020F817002047
:1023B000014B0020196070471018002007B500235A
:1023C0000093084A08494FF48053012007F03CF974
:1023D000064B01221A70064B064A1A6003B05DF8DC
:1023E00004FB00BF84270020F5F700006A260020C8
:1023F0001C1800206D2600200148FFF797BF00BF82
:10240000C0E8000010B5064B18680C46FFF72EFA1E
:1024100021460346BDE8104002480E22184700BF7F
:1024200010180020C0E80000F8B5094D094B0A4E0D
:10243000D5E9004701221A700CB92C60F8BD21467D
:1024400030463A4600F01EF8241A0644F4E700BF6E
:10245000041800206B2600206C26002010B9074BC2
:1024600018707047064B1B781BB142F210700BF0CE
:1024700049BB4FF4A470002108F016B86A2600206A
:102480006B2600202DE9F74F524F01903B780C4608
:1024900043B9514F8246019B23449A452BD324EAEA
:1024A000E4700CE04D4E012501992246012007F011
:1024B0002FF8A8B1012333703B7843B9204603B00D
:1024C000BDE8F08F2846FFF7C9FF6F1E3D4601208B
:1024D00007F0B0F80028F1D03378002BF2D1EDE707
:1024E0003378002BEAD0013D2846FFF7B7FF337859
:1024F000002BD9D1E2E71AF8012B3B680A2A61D1F7
:10250000374DDFF8E0905A1B012A04BF01333B60CE
:10251000D7F80080D9F800B00D2308F8013C08F185
:1025200001020A23BBF1000F3A6088F8003029DD70
:102530002D4B196831BB2A495E46632EA2EB05027A
:1025400001F11700A8BF63260BF01AFF274A2449A0
:10255000254B02F1140052F804CB41F804CB82421F
:10256000F9D1108892788A7008F118020880BBF1BE
:10257000090F3A604FF001021A6011DC2023303657
:102580006B752E753A681649521B012006F0C0FF84
:1025900090B9D9F800300133C9F800303D607AE7CE
:1025A0000A22B6FBF2F302FB1366303330362B758A
:1025B0003E236E75EB74E5E70B4A0023C9F8003043
:1025C0001360EBE70A498B423EBF591C39601A7011
:1025D00061E700BF6B2600201C1800206A2600203F
:1025E0006D2600201818002014180020FCF70000A9
:1025F0006C270020014B036000207047D0E80000EA
:1026000010B504460AF04BFD03490246204609F086
:102610008CFF002010BD00BF3BF8000073B51346CF
:1026200000220192044601AA58680A2100F03EFEE9
:10263000019D95B920EAE0744FF40046294640F226
:10264000E7304FF47A720023C4FB0601FDF7A8FDC2
:1026500007F02AFF284602B070BD2A4602492046EC
:1026600009F071FF019DF5E767F8000008B5034A1E
:10267000034909F05AFF002008BD00BF57F90000C8
:102680005EF900002DE9F34117460023044601AA34
:10269000B86801930A2100F009FE019DC6B24DB150
:1026A0002A461449204609F04EFF019D284602B0F3
:1026B000BDE8F081042E09D90F493246204609F0C1
:1026C00042FF204609F065FF0125EFE77868FFF734
:1026D000D7FAB0F1000804DA7A680849204609F010
:1026E00032FF002133460FFA88F2084609F080FDD8
:1026F000DCE700BF89F90000B0F90000C7F900006D
:1027000010B5044603F054FA07490246204609F082
:102710000CFF2046054909F008FF0548214607F04F
:102720009DFF002010BD00BF59FA000078FA00009C
:102730003527000070B58EB004460D46D0F89C6079
:102740000BF093FA03460BF045FE214A214910583D
:10275000214A002B18BF1A460092204A2346844281
:1027600018BF0A4628461E4909F0DFFED4E90A23AD
:10277000CDE90023284694F90E30227B194909F04F
:10278000D4FE06A92022204607F00EFB636E1649F0
:102790000246284609F0C9FE05A920460BF075FA45
:1027A000024628B11149284609F0BFFE0EB070BD9F
:1027B000059B6422F11A4A430091B2FBF6F20C49E0
:1027C000CDE901622846324609F0AFFEEEE700BFD0
:1027D00008000000C1F7000082FA0000EC020100CE
:1027E00085FA000091FA0000BDFA0000D4FA00005A
:1027F00001FB0000F0B5002591B00446294608AF62
:102800001C2209A80BF0D6FD134E1A2220213846AF
:102810000BF0D0FD2146114807F020FF07AA4FF426
:10282000805130460BF025FA079A0097C2F5805187
:1028300064234B431B0B05934FF48053CDE90313E3
:10284000CDE90132204606492B46A6F1400209F0A7
:102850006CFE284611B0F0BD807000206528000095
:1028600052FB000070B50446D0F89C6088B00D465D
:1028700007A90BF00AFA024628B10F49284609F0C9
:1028800054FE08B070BD20460BF0EFF9079B009690
:10289000F11ACDE90131094B64224A43002818BFDF
:1028A0000346B2FBF6F20649CDE90362284622460A
:1028B00009F03BFEE5E700BFD4FA000082FA000011
:1028C0009BFB000007B5064A0648126804230093E4
:1028D0000021012300F022FB002003B05DF804FB7F
:1028E00024E90000D4E6000037B544680A492260B4
:1028F00004F108052364002228460BF006FB41F68C
:102900009A12E46300232846CDE9002308F094F8E6
:10291000002003B030BD00BF81C3000010B9034BDD
:1029200018707047A420002107F0BEBD8437002036
:102930002DE9F047154ED0F804A0884614461D46F0
:10294000042706F0ADFE22464146002006F0E0FDD9
:10295000814606F0AFFEB9F1000F0BD001233370B2
:10296000DAF80030DAF84010012098472C60002097
:10297000BDE8F0873378002BF2D0013F3846FFF7EF
:10298000CDFF3378002BDCD1EAE700BF843700208D
:1029900010B58368D3F86832DB07044616D4406864
:1029A00003685B689847014608B9A3681871A36873
:1029B0005B6B0BB120469847A3680BF00BFD002220
:1029C000C3F81023034B185801F06CFC6FF00F0193
:1029D000EDE700BF0800000010B58168044608312B
:1029E00000F0BAFDA168034A20460831BDE8104056
:1029F00000F058BD0FFC00000EB403B5044904AA52
:102A0000019200F005FC02B05DF804EB03B07047E2
:102A100036FB000010B5836802221A718268936B3E
:102A20000446EBB982F846308268A2F842308268E8
:102A3000A2F840308368D3F86832DB040BD5032159
:102A4000084B094A0AF036F8A0686FF4805100F587
:102A50001A7009F0B8FC2046BDE8104000F004BD33
:102A600010BD00BF1DFC00005C0901002DE9F04F06
:102A7000A5B00446542200210FA80BF09BFC0023B4
:102A80000493A36820464633039309F0A3FF20462E
:102A900009F04EFF18B985496069FFF7ADFFA068DE
:102AA00000271422002108300BF084FC0DF13C0BB0
:102AB0004FF0FF38B9463D4602973E46BA46049B62
:102AC000012B00F09C80142D40F09580022B40F0EB
:102AD0009680774B774A01210FE05946039A0223EB
:102AE00004A809F005FE04995BF8042F039203463D
:102AF00031B101290AD148B16F4A204609F0DAFF05
:102B00006FF00705284625B0BDE8F08F2DB35BF8C0
:102B1000040C00F041FD98B167B1A5680B9708352A
:102B20000AAE0FCE0FC533682B602046FFF754FF67
:102B30000125E7E7614A0121204609F0BBFFDFE7F5
:102B4000029BC3B108F1FF38FEB9049BB8F1000F36
:102B500001D1022BB3D10135B1E7029B5BB108F182
:102B6000FF3896B9A368DB69002B3BD0DB68002BEC
:102B700038D0002633E05BF8041C05AA504609F063
:102B800087FE08F1FF38064638B3F368ABB1A36897
:102B9000B64603F1080CBEE80F00ACE80F00DEF803
:102BA0000030CCF80030B36833B9737CFE2B04BF1F
:102BB00096F8108008F1FF38A946D6F804C0BCF199
:102BC000000F08D0B646BEE80F000AAF0FC7DEF808
:102BD00000303B606746B246B7E7002DC2D0012304
:102BE0000293B2E7364B0093364A0F9B01212046F1
:102BF00009F060FFBDE7B8F1000F7FF46EAFBAF1E6
:102C0000000F0AD09AF81130FE2B06D124AB03EB4B
:102C1000850353F8543C03B10135A068436953B9A7
:102C2000002F3FF46DAFC368BB423FF47EAF0B97FC
:102C300000F1080574E7037EA5EB0905B3B1417EF9
:102C40004FF6FF72FF2918BF0A469D4202D3134474
:102C50009D420BD983681C4A0121204609F02AFFB6
:102C60002046FFF7B9FE6FF015054BE7012109F08B
:102C7000E0FBA06800F53F7009F0F5FBA3680FAA20
:102C8000294602EB89025B69204698470546A06801
:102C90004FF0FF324FF0FF3300F53F7009F0B8FB03
:102CA000A068002109F0C5FB2CE700BF36FB00003F
:102CB000ADFC00006C04010061FC000075FC00002C
:102CC00099FC000093FC0000D1FC000070B50446A4
:102CD000806886B0012100F51A7009F065FBA368D1
:102CE0001B79022B20D100230193A36860689E6B9F
:102CF00003681D6901AB0EB3102202A9A847019B0E
:102D000093B1A068012109F094FB019A02A9204621
:102D1000B047A068002109F08CFBA3689B6B002BD7
:102D2000E3D12046FFF776FEA0686FF0010100F5C1
:102D30001A7006B0BDE8704009F045BB01220DF1E4
:102D40000301A847019B002BEED09DF903209DF8BD
:102D50000310A368002AC8DB5A79032A00F2818095
:102D6000DFE802F00278817F0D2940D00A2921D0C6
:102D7000B3F868226FF3CA02A3F868220929A06891
:102D80004AD007D80029B0D0082948D00346D3F844
:102D90006432AAE71B293CD07F294BD020395E2919
:102DA0000346F4D809F040FB9DF80310204600F0DC
:102DB00023FB9AE7D3F86822C2F3C7022AB1D3F8FB
:102DC0006822C2F3C7020A2AE1D1B3F8682261F38C
:102DD000CA02A3F86822A568B5F840309BB94E49ED
:102DE0006069FFF709FE2046FFF714FE7DE7D3F880
:102DF0006822C2F3C702002AE7D0D3F86822C2F3E0
:102E0000C7020D2AE0E72046FFF730FEC5F814039D
:102E1000E9E70123437168E7D0F8643265E7D0F849
:102E200064329B077FF561AF09F0FEFA204609F096
:102E3000A8FE5AE7D0F864329E077FF556AF09F036
:102E4000F3FAA368D3F864321D07EFD4204609F0E3
:102E500079FE4AE75B2902D102225A7145E7D3F88D
:102E600064220022F9E700225A71A268D2F8643283
:102E700098077FF53AAF34290CD830297FF635AF63
:102E8000A1F1320303215171022B2FD8DFE803F0A7
:102E9000323C2A00A1F14303DAB2092A3FF625AFFA
:102EA000092B3FF622AF01A252F823F0D52E0000E5
:102EB000DD2E0000EB2C0000E52E0000EB2C0000C6
:102EC000ED2E0000EB2C0000EB2C0000EB2C0000A2
:102ED000F52E0000204609F08FFD06E7204609F098
:102EE00082FD02E7204609F075FDFEE6204609F066
:102EF0006AFDFAE6A068D0F8641201F0010181F0E1
:102F0000010109F0A1FAF0E6A368D3F864329B0747
:102F10007FF5EBAE9AE700BF36FB00002DE9F047E6
:102F2000044680680F46D0F8101388B015461E4638
:102F300000296BD190464FF446720BF03BFAA06823
:102F400000F53F700AF074FE4FF42B7A4FF41B79B2
:102F5000A06848440BF047F9A068002200EB090381
:102F60000121504409F110090BF014F9B9F52B7F38
:102F70000AF1140AECD1A36900221A60A0680221A8
:102F800000F51A7009F010FAA36850225A85A36858
:102F900018221A85A36822681A60D4F80890D9F814
:102FA000000010B1FDF728F980B289F82C00A36861
:102FB000184A25F0360565F30708C3F8648260688F
:102FC000036839461D682346A8470546D0B9A3685B
:102FD00001221A71D4E90A0100220023CDE9062357
:102FE0000E230393109B0495CDE9016300940A4BD3
:102FF0004FF4805206F09CFFA368C3F81003616A87
:1030000006F0C2FE284608B0BDE8F0876FF07705ED
:10301000F8E700BF15C400006130000010B5044699
:1030200080680379012B15D14FF0FF324FF0FF3349
:1030300000F53F7009F0ECF908496069FFF7DCFC26
:103040002046FFF7E7FCA06800F53F7009F00BFA97
:10305000002010BD6FF08500FBE700BF36FB0000CD
:10306000F8B504468068154600F51A70002935D079
:103070004FF4804109F098F9A368DD636068036844
:1030800000219B689847002844D12046FFF7C6FFDF
:1030900000283FD1204E214FA06800F52B704FF043
:1030A000FF324FF0FF33032107F000FD0546A06813
:1030B0004FF0FF324FF0FF3300F53F709DB109F044
:1030C000A7F920462B46164A012109F0F3FCA06817
:1030D000BDE8F84000F53F7009F0C5B96FF48041D4
:1030E00009F071F9C8E709F093F932460221204648
:1030F00009F078F920463A46294609F073F96068E4
:1031000003685B6903B19847A06800F53F7009F058
:10311000AAF9C1E7F8BD00BF91290000CD2C00003D
:10312000ECFC000010B50549044609F0FEF9204604
:10313000034A002100F0B6F9002010BD03FD000095
:1031400057FD0000F8B517461E460A4629490446B1
:1031500009F0EBF93EB33A782749204609F0E5F942
:1031600001256A0703D12549204609F0DEF9AE4260
:103170001ED97A5D2049204609F0D7F90135102D76
:10318000EFD11F49204609F0D0F9B6B91B492046B6
:1031900009F0CBF90125AE422B4610D8174920463D
:1031A00009F0C3F915E01749204609F0BEF90125D9
:1031B0001449204609F0B9F9E0E700252B46FA5CEE
:1031C0001149A2F120035F2B28BF2E22204609F0CF
:1031D000ACF90135102D06D06B07DCD1074920462C
:1031E00009F0A3F9D7E720460849BDE8F84009F0FF
:1031F0009CB900BF6DFD0000B9F70000C1F70000E9
:10320000C3F70000BFF70000C5F7000074FD000021
:1032100010B5044613460A460146064801F05EFB17
:1032200023691B7923B12046BDE8104009F0C6B9D7
:1032300010BD00BFD5C5000038B50B46154648B9CE
:103240001449154A521AB3EB920F05D251F8235084
:10325000284638BD84680CB90025F9E70F4A944226
:103260000AD30F4A944207D218462268294690474B
:103270002B68002BECD1EFE70A4A944202D30A4AAA
:10328000944205D3246814225343E518E358F0E729
:103290000133F8E704E7000014E7000004E8000049
:1032A00008E8000014E7000004E80000F7B516463F
:1032B000027800232D2A0446019305D16FF01503EF
:1032C0003360002003B0F0BD0BF084F80B4F0546CF
:1032D000C3510A46204601A908F066F8EB59222B93
:1032E00002D16FF02103EBE7002BE7D1019BA34252
:1032F000E4D01B78002BE5D0E0E700BF0C00000015
:10330000014909F0F3BA00BF36FB00002DE9F04790
:103310008568DFF86890044605F14600FCF76CFF0D
:10332000002395F82C7086B29846A268558DED1B47
:10333000B54209DB002E1FDD463360691049BDE848
:10334000F0471A4409F0D2BA1D442A44463392F891
:1033500046A082F84680A26860691A44494609F08E
:10336000C5FAA3682B4483F846A0A3685B8DDB1BDA
:10337000F61A00272B46D8E7BDE8F0876C04010059
:103380005C0901002DE9F04183681746B3F842203B
:103390000D46D3F86412463213444A07044621D539
:1033A0001846FCF729FFDFF848800646A6B9A3684F
:1033B000B3F84020A3F84220A06809F0A4FA20B195
:1033C00007B115B16069FFF79BFF6942204609B25A
:1033D000BDE8F04109F0D8BA6069414609F086FAC3
:1033E000013EE3E7034A082109F064FBDFE700BF81
:1033F000EC0201005C09010013B583688DF8071029
:10340000D3F864220446D00725D5B3F84210B3F8A8
:1034100040208A421FD0481CA3F842000B449DF86C
:10342000072083F84620A368D3F86412890710D5D3
:10343000D3F8643260690B4913F0040F18BF2A22D5
:1034400009F054FA204609F073FA10B16069FFF7E9
:1034500057FF02B010BD01220DF10701204609F00F
:1034600037FBF6E7C5F7000010B58368094A1B680B
:103470000446022109F01EFBA368D3F864329B07BF
:1034800007D52046FFF742FF2046BDE8104009F06F
:1034900067BA10BD5C090100014909F085BB00BF96
:1034A00036FB00002DE9F04F0E46002189B004469E
:1034B00017460D4603AA304601F10108FFF7BCFE8E
:1034C000B0B995B127B13A460821204609F0F2FA81
:1034D0001E4FDFF87C90DFF87CA0002103AA304665
:1034E00001F10108FFF7A8FE60B909B0BDE8F08F4F
:1034F000006810B1FCF780FE80B2854238BF0546F7
:103500004146D7E703688BB11A787AB1D0F804B096
:103510004A46CDE9005308213B46204609F0CAFA45
:10352000BBF1000F04D16069FFF7B6FF4146D5E754
:10353000524620463B46082109F0BCFAAA1D92B229
:103540005946204609F03DFBF0E700BFAAFD000008
:1035500090FD0000B4F70000F7B50F6805460E4671
:10356000A7B13846FCF748FE84B2094B00932846C1
:10357000084A3B46082109F09DFAE21C716892B2A4
:10358000284603B0BDE8F04009F01BBB3C46ECE721
:10359000A6FD000097FD000010B507490446FCF7A2
:1035A00019FE38B105492046FCF714FEB0FA80F048
:1035B000400910BD0120FCE79CFD00009FFD0000BC
:1035C00008B5044808F08EFABDE80840024808F043
:1035D00089BA00BFADFD0000E2FD0000014807F020
:1035E00099BC00BF68E9000038B5044618B90F4B14
:1035F0000F485B6898476168B1F5683F10D0B1F536
:10360000680F0DD00B4DA9420AD011F468612068F3
:1036100007D0014608480AF0D2FA0023236065600B
:1036200038BD14220AF0C6FEF9E700BF14010020DD
:1036300010FE00002C5F5CA93C20002008B520B3E0
:103640004368B3F5683F10D101220368BFF35B8F75
:1036500053E8001F002903D143E800200028F7D1D8
:10366000BFF35B8F0DD1002008BD094A93420AD0F9
:1036700000684FF0FF324FF0FF3306F085FA002864
:10368000F1D00448F0E70448EEE76FF4E040EBE7E0
:103690002C5F5CA9E98FFFFFEA8FFFFF08B5D8B167
:1036A0004368B3F5683F10D100220368BFF35B8F16
:1036B00053E8001F012903D143E800200028F7D177
:1036C000BFF35B8F0BD1002008BD074A934208D09F
:1036D000006806F0D1FAF6E76FF4E040F4E703483B
:1036E000F2E70348F0E700BF2C5F5CA9E98FFFFF1A
:1036F000EA8FFFFF10B5044618B91D4B1D485B68E3
:1037000098476368B3F5683F2FD0B3F5680F2CD0A6
:10371000194A934219D1236803BB18484FF0FF326E
:103720004FF0FF33214606F001FA08B923681BB9B0
:103730000F4B13485B6898472068142200210AF059
:1037400039FE4FF46863636008E0B3F5683F0DD855
:103750003A2B03D040F6BA629342DED120680AF0D9
:1037600067FA636843F03A03636010BD054AF3E704
:103770001401002010FE00002C5F5CA93C200020FA
:1037800036FE00003A00003A08B5064906484023D4
:1037900014220AF006FABDE808400449044807F07C
:1037A0002BBC00BF3C1B00203C20002070E9000027
:1037B00084E900002DE9F047054600AF0C460029DA
:1037C00063D0DFF808A1DAF800305A075DD06E4602
:1037D0008AB0D1E90001A3686A46DFF8F480DFF817
:1037E000F4C0C2F814C04FF00609C2E90680C2E96D
:1037F000081342F8109F00234FF441515046FEF742
:1038000011FBDAF800305B07B5463ED08AB0D4E948
:10381000030163696A46DFF8C0C05362C2E905C8A4
:10382000C2E9070142F8109F002350464FF441516E
:10383000FEF7F8FADAF800305807B54625D088B018
:10384000E3696A462549D3614FF00409C2E90518C6
:1038500042F8109F00234FF401515046FEF7E2FA60
:10386000DAF800305907B5460FD088B0A3696A4628
:103870001B49D361C2E9051842F8109F00234FF499
:1038800001515046FEF7CEFAB546012D17D1EFF3A0
:1038900005830E480268520711D06E4688B06A460A
:1038A00010495161103BD3610F499161042342F8E3
:1038B000103F00234FF40151FEF7B4FAB5462146FC
:1038C000284605F055FFBD46BDE8F087EC01002015
:1038D00025FF000063FE000096FE0000C9FE000008
:1038E000DCFE00000EFF00002EFF000030BFFFF7DF
:1038F000FDBF00BF2DE9F0410B4EDFF8308006EB35
:103900000807CC1B05463246094920460AF02AFD25
:10391000A01942460021083C0AF04CFDC5F8A84019
:1039200007F10800BDE8F081000000000800000079
:1039300008E80000074A936893F90E10002907DB96
:10394000526993421FBF044A536843F08053536047
:10395000704700BF5424002000ED00E02DE9F04145
:10396000694C23680646580700AF0D460FD0E8465D
:1039700088B06A46654B5361654B9361032342F8F7
:10398000103F4FF4C251204609F09BF9C546614BE8
:103990009B6AD90440F19D8023685A070FD0E846FE
:1039A00088B06A465C4B5361594B9361032342F8DC
:1039B000103F55484FF4C25109F083F9C54617200E
:1039C000544B9B6A1B0513D5236858070FD0E84654
:1039D00088B06A46514B53614D4B9361032342F8C3
:1039E000103F49484FF4C25109F06BF9C546182001
:1039F000484B9B6A990532D523685A070FD0E84691
:103A000088B06A46464B5361414B9361032342F8A9
:103A1000103F3D484FF4C25109F053F9C5463D4BA4
:103A2000996B9B6A1B0419D52368580710D0E84688
:103A300088B06A463B4B5361354B3348C2E9063187
:103A4000042342F8103F4FF4015109F03AF9C546FA
:103A500026B1304A936A23F40043936219202D4B18
:103A60009B6A5A0513D523685B070FD06E4688B052
:103A70006A462D4B5361264B9361032342F8103F56
:103A800021484FF4C25109F01CF9B5461A20214BC8
:103A90009A6AD6051FD5236859070FD06C4688B09F
:103AA0006A46224B53611A4B9361032342F8103F3D
:103AB00015484FF4C25109F004F9A5461B20154AD8
:103AC000936A43F47F43936200232B70BD46BDE8A5
:103AD000F081162074E79B6A9A04F0D523685B078F
:103AE0000FD06C4688B06A46114B5361084B936106
:103AF000032342F8103F04484FF4C25109F0E1F8A3
:103B0000A5461C20DBE700BFEC01002040FF0000C1
:103B10001B03010000ED00E05AFF00006FFF0000F2
:103B200086FF0000A3FF0000BCFF0000DBFF0000D9
:103B3000F7FF0000B0B5584C23685D0700AF0FD009
:103B40006D4688B06A46554B5361554B93610323CC
:103B500042F8103F4FF4C251204609F0B2F8AD468A
:103B6000504B9B6A980140F19580236859070FD00C
:103B70006D4688B06A464C4B5361494B93610323B1
:103B800042F8103F44484FF4C25109F09AF8AD464C
:103B90001E20444B9B6ADA0113D523685B070FD0C4
:103BA0006D4688B06A46414B53613D4B9361032398
:103BB00042F8103F38484FF4C25109F082F8AD4640
:103BC0001F20384B9B6A1D0313D5236859070FD05C
:103BD0006D4688B06A46364B5361314B936103237F
:103BE00042F8103F2C484FF4C25109F06AF8AD4634
:103BF00021202C4B9B6A5A0313D523685B070FD0F7
:103C00006D4688B06A462B4B5361254B9361032365
:103C100042F8103F20484FF4C25109F052F8AD4627
:103C20002220204B9B6A9D0313D5236859070FD090
:103C30006D4688B06A46204B5361194B936103234C
:103C400042F8103F14484FF4C25109F03AF8AD461B
:103C50002320144B9B6ADA0313D523685B070FD02C
:103C60006C4688B06A46154B53610D4B9361032334
:103C700042F8103F08484FF4C25109F022F8A54617
:103C80002420084A936A6FEA03436FEA134393625E
:103C9000BD46B0BD1D207CE7EC0100202A000100DC
:103CA0000F03010000ED00E0460001005D0001008F
:103CB0007B0001009D000100C6000100E40001003E
:103CC0002DE9F0476E4D2B688A46590700AF8146B3
:103CD00090460FD06C4688B06A466A4B53616A4B77
:103CE0009361032342F8103F4FF4C251284608F075
:103CF000E8FFA546654B9B6ADA0665D52B685B072E
:103D00000FD06C4688B06A46614B53615E4B93613D
:103D1000032342F8103F5A484FF4C25108F0D1FF34
:103D2000A5461124594B9B6A1E0713D52B685807CB
:103D30000FD06C4688B06A46564B5361524B936124
:103D4000032342F8103F4E484FF4C25108F0B9FF28
:103D5000A54612244D4B9B6A990737D52B685A0705
:103D60000FD06C4688B06A464B4B5361464B93610B
:103D7000032342F8103F42484FF4C25108F0A1FF1C
:103D8000A546424B5E6B9B6A1B0676D52B685C078B
:103D900010D06C4688B06A46404B53613A4B384865
:103DA000C2E90636042342F8103F4FF4015108F0EF
:103DB00088FFA546BAF1000F04D0344A936A23F075
:103DC00080039362132403E01024ABE76FF0150621
:103DD0002E4B9B6AD80713D52B6859070FD06C461A
:103DE00088B06A462E4B5361274B9361032342F8F8
:103DF000103F23484FF4C25108F063FFA546142436
:103E0000224B9B6A9A0613D52B685B070FD06C4632
:103E100088B06A46234B53611B4B9361032342F8DE
:103E2000103F17484FF4C25108F04BFFA546152428
:103E3000164B9A6AD50602D49A6A90070AD55B682F
:103E4000190507D54946304600F02EFB10B180F326
:103E5000098802240D4B9A6A920642BF5A6A22F4DC
:103E600000525A629A6A42F0FF029A622046002388
:103E700088F80030BD46BDE8F0876FF01506A1E771
:103E8000EC010020130101002503010000ED00E01A
:103E90002D0101006FFF000064010100800101009D
:103EA0009A010100F7FF00002DE9F0419D4B8AB017
:103EB000D3F8048000AF0446C8F30806002585F354
:103EC0001188BFF36F8F02F07F43B3F17F4F16D19C
:103ED00002F00C03082B26D19348036859070ED033
:103EE0006C4688B06A46914B5361914B93610323B2
:103EF00042F8103F4FF4C25108F0E3FEA5460025FA
:103F00002C460023FB71F31E092B00F2E580DFE84D
:103F100013F00F00CB00CE00C700E300E300E30086
:103F2000E300E300D10012074CBF0C460125E8E78F
:103F30007D4E33685B070FD0E84688B06A467D4BFC
:103F400053617D4B9361032342F8103F4FF4C251FC
:103F5000304608F0B6FEC5460023FB71714BDA6AA5
:103F6000900714D5336859070FD06E4688B06A465B
:103F7000724B5361704B9361032342F8103F6A48C0
:103F80004FF4C25108F09DFEB546002358E0DA6AAE
:103F9000002A07DA33685A07F7D06E4688B06A46B7
:103FA000674BE6E7DB6A5B00EFD5336858070FD055
:103FB000E84688B06A46634B53615F4B93610323C5
:103FC00042F8103F58484FF4C25108F07AFEC546F7
:103FD000544BA1695A6942F480725A61BFF34F8F02
:103FE000BFF36F8F5A6931F8021C22F480725A6154
:103FF000BFF34F8FBFF36F8F4DF60272914209D01E
:104000009A6AD2B2002A3DD0FA1D01212046FFF75C
:1040100057FE47E03368590711D06E4688B02368D1
:104020006A464949516144493F48C2E9061304239D
:1040300042F8103F4FF4015108F043FEB5462368A3
:10404000FA79DAB907F1080604F1200C20686168F2
:10405000324603C2083464451646F7D17A6A002D09
:104060005BD0C2F3080121B96FEA52226FEA422203
:104070007A6207F108011846FFF79CFB2837BD4616
:10408000BDE8F0819A6A12F47F4F04D0F91D012037
:10409000FFF764FC06E09B6AB3F5803FFFF475AF61
:1040A000FFF748FD0346CBE7FA1D0021AEE7F91DF7
:1040B0000020EDE71C4803685A073FF466AF6E46E0
:1040C00088B06A46214B5361214B9361032342F828
:1040D000103F4FF4C25155E7134803685B073FF4A4
:1040E00054AF1C4A1C4B18F4F87FE8468AB018BF3E
:1040F00013466A46194951611949C2E9061340F24B
:1041000001339384103E174B16624FF4315142F83D
:10411000103F08F0D6FDC54637E722F4FF7222F0C3
:104120000102A5E700ED00E0EC010020EB01010039
:10413000410301001A0201003603010035020100AB
:104140005A0201006C0201008F020100AF0201005F
:1041500001030100D2010100BD010100D7020100ED
:10416000EE02010005000001044B5A6942F0100202
:104170005A615A6922F008025A61704700ED00E066
:10418000EFF30880EFF3098101B57246FFF78CFE6B
:1041900001BD00BF002080F31488BFF36F8F04F0CF
:1041A00021F8002011490860BFF34F8F104880F3B9
:1041B000088800F045F8202080F311880D484FF062
:1041C000AA014FF4825209F0CDFC0A484FF4825103
:1041D000401880F30988EFF314800221084380F32C
:1041E0001488BFF36F8F00F027F9000094ED00E012
:1041F000C098002040700020BFF34F8F0549064B48
:10420000CA6802F4E0621343CB60BFF34F8F00BF74
:10421000FDE700BF00ED00E00400FA050749D1F812
:1042200090200023C2F307221846934200DB704718
:10423000C1F89830C1F8A0000133F6E700ED00E0C6
:1042400008B572B6002383F31388FFF7E7FF144B1A
:104250004FF0FF32C3F88020C3F88420C3F88820D1
:10426000C3F88C20C3F89020C3F89420C3F898209A
:10427000C3F89C20C3F88021C3F88421C3F88821A7
:10428000C3F88C21C3F89021C3F89421C3F8982176
:10429000C3F89C2162B6BFF34F8FBFF36F8F08BD89
:1042A00000E100E0084B9B6883420BD1EFF30583EC
:1042B00043B1064B5A6842F080525A605A6A22F45F
:1042C00000425A6209F0C1BD5424002000ED00E014
:1042D0000A4A93686FF00A01C3F8B0100849C3F89E
:1042E000AC004B6843F080534B60002383F311888C
:1042F000BFF36F8F9368D3F8B00070475424002049
:1043000000ED00E010B50446EFF31183202383F3A2
:104310001288BFF36F8F0C4B586998600B4B4FF0AE
:1043200000625A600A4BD0F8A8201A600022D0F828
:10433000AC30C0F8AC2083F31188BFF36F8F00F06E
:104340001FF9204610BD00BF5424002000ED00E0FE
:10435000582000200B498A684FF030001044EFF3DA
:10436000098C80E8F01F74467046FFF7CBFFA64625
:1043700004498A6802F1300090E8F01F8CF3098844
:1043800070470000542400201EF0040F0CBFEFF310
:104390000880EFF30980816911F8021C0229FFD01F
:1043A00001B508F083FC01BD40B2002807DB044AD8
:1043B0004109012300F01F00834042F8213070477B
:1043C00000E100E040B200280CDB4309064900F0A0
:1043D0001F0020330122824041F82320BFF34F8F7A
:1043E000BFF36F8F704700BF00E100E0054B42094B
:1043F00000F01F0053F82220012303FA00F01040C0
:10440000704700BF00E100E040B20028A8BF00F103
:10441000604001F10101B8BF064B4FEA4111ACBF4A
:1044200000F5614000F00F00C9B2B4BF195480F824
:104430000013704714ED00E00B4A08B50B4B22F057
:104440007F029A60BFF34F8FBFF36F8FD3F888203E
:1044500022F47002C3F8882005F09CFA06F022F9D5
:1044600000F064F805F0DEFA0000000000ED00E066
:1044700042F8203C009B42F81C3C0A49019B42F850
:10448000183C029B42F8143C21F001014FF080736C
:1044900042F8043C42F8081C0023203A0265C0F8A8
:1044A000AC307047951400000A4A0346906878B112
:1044B00013F1160FD0F8980005D0A0F140029A42EF
:1044C00005D8834203D2814228BF002070470020D4
:1044D000704700BF5424002008B515460C4A0D4B08
:1044E0009060D0F8A8201A600E4600F049F82C46DB
:1044F00086F309884FF00000074B984720464FF09D
:1045000000014FF000024FF00003044C204700BFB1
:104510005424002058200020D1CC00009514000025
:10452000014B10221A61704700ED00E0044800239F
:104530002021C2180133302B82F80013F9D17047C3
:1045400000E100E008B5EFF30583064A103B02EBFB
:10455000C30152F8330049688847BDE80840FFF7B7
:10456000E9B900BFD4E40000024B034A034801212B
:1045700000F0BCB8000004200000002094E9000016
:10458000D0F89820054B403A1A60054A4021C3E90B
:1045900001121846012100F0B3B800BF5C200020D2
:1045A00000000B1598B503460C480268520700AF8F
:1045B00010D06C4688B06A46094951610949C2E980
:1045C0000613042342F8103F00234FF40151FDF776
:1045D00029FCA5466FF01500BD4698BDE8010020F6
:1045E0004D0301009E03010010B40E4CD4F890302E
:1045F000C3F30723013B984202D910BCFFF7D2BF97
:10460000C4F898000B6823F01F03034343F0100322
:10461000C4F89C308B6843F00103C4F8A03010BC90
:10462000704700BF00ED00E02DE9F04184B00E4678
:1046300000AF984604460025B5421FDA606800289E
:1046400035D0B8F1000F23D0411E08421BD01948C5
:1046500003685B0710D06C4688B06A46164B5361FE
:10466000164BC2E90635042342F8103F00234FF4ED
:104670000151FDF7D7FBA5466FF015021046103724
:10468000BD46BDE8F0811F28E1D923681942DED17B
:1046900023687B6008F03FFBA368391D0343D0B259
:1046A000FB60FFF7A1FF10F1160FE5D0421C0135AA
:1046B0000C34C1E7E801002077030100B7030100D3
:1046C000044B0522C3F89420BFF34F8FBFF36F8FC5
:1046D000704700BF00ED00E0BFF35F8F024B002288
:1046E000C3F89420704700BF00ED00E010B5034C04
:1046F00001232278FFF798FF207010BDA337002018
:1047000008B50B4A00231278FFF78EFF10F1160F41
:1047100007D0084A0021D2F89030C3F3072398420B
:1047200000DB08BDC2F89800C2F8A0100130F2E723
:10473000A337002000ED00E02DE9F0435748584929
:10474000D0F890300D68C3F307239D4285B000F286
:10475000A180FFF7C1FF49680022954201F10C01D9
:104760001AD1504C504F25706846FDF743FFDFF8D3
:104770003C81DFF83C9106460025AE421FD12378EC
:1047800046490020D1F89020C2F3072293427BDBF8
:10479000FFF796FF00204CE0C0F8982051F80C3C41
:1047A00023F01F03134343F01003C0F89C3051F86B
:1047B000043C43F00103C0F8A0300132CDE700987B
:1047C00000EB05114FEA051CCB683B40B3F5000F29
:1047D00044D00AD8B3F5001F2ED0B3F5800F34D0E3
:1047E000B3F5801F10D00135C7E7B3F1807F3ED00D
:1047F000B3F1007FF7D150F80C3088684A6808F0B0
:104800008AFA40F4802009E050F80C3088684A6841
:1048100008F081FA40F0885040F43020039001A95C
:104820002078CDE90123FFF7DFFE002828DA6FF0BA
:10483000150005B0BDE8F08350F80C3088684A6870
:1048400008F069FA40EA0800E8E750F80C30886898
:104850004A6808F060FA40EA0900DFE750F80C30D7
:1048600088684A6808F057FA40F08270D6E750F836
:104870000C3088684A6808F04EFA40F08870CDE73E
:10488000237801332370AEE7C1F89830C1F8A00057
:10489000013377E74FF0FF30CBE700BF00ED00E0DA
:1048A000A0E90000A33700200000F0FF000008117D
:1048B0000000020708B5024B1B689847002008BD9E
:1048C00068200020034B044A1860937843F00203E9
:1048D000937070476820002038000020F0B587B042
:1048E00007460E4614460021102268461D4609F070
:1048F00061FD02238DF802302A46054B01932146C3
:104900006846CDE9047606F0B5FD07B0F0BD00BFFE
:1049100037CD000008B50649064821F00701C1F16E
:10492000005202F5802207F048F8002008BD00BFC1
:1049300047C900206C200020044A0123C2F84035FA
:104940004FF080420020C2F87835704700E0014007
:1049500020B1034B800143F001031847704700BFAB
:1049600050E80000084B70B5C31A0D4607499B106C
:10497000044659430648402208F0F1F92B46014607
:104980002046BDE8704018478C200020B76DDBB68C
:1049900070E4000073B50C4C0C4A4023041B0093D8
:1049A0000D460B460A49A41061430646094808F023
:1049B00001FA011E05DA30462B4602B0BDE8704010
:1049C000184702B070BD00BF8C2000201DCE000033
:1049D000B76DDBB670E4000010B5EFF3118420234F
:1049E00083F31288BFF36F8F074A136823F0020125
:1049F000DB07116002D4012008F0F8FE84F311886F
:104A0000BFF36F8F10BD00BFDC200020002270B507
:104A1000012104461046FFF7F7FC0F4803F06CFD38
:104A20000E4B984215D103F077FD26690C493046AC
:104A300007F012FB00280BDB0125356424690849C7
:104A400004F11C0007F008FB002801DBE5640020EE
:104A500070BD6FF00400FBE7654B00000000AD0B7C
:104A6000C0E900007FB500220123CDE9022304AB99
:104A7000CDE90433094ACDF800D06B46CDF804D017
:104A800008F0C5F9002805DB4FF480420023684692
:104A900005F054F907B05DF804FB00BF3BCE000001
:104AA00030B4104B0C2202FB003301460020D3E946
:104AB0000E529863EFF31180202484F31288BFF321
:104AC0006F8F1C6C04F0C00444F002041C6480F37B
:104AD0001188BFF36F8F1DB12B46034830BC1847B8
:104AE00030BC70478C20002070E4000010B4EFF35D
:104AF0001182202383F31288BFF36F8F1748016858
:104B000041F002040460C80707D482F31188BFF3A0
:104B10006F8F012010BC03F011BD4FF08041D1F820
:104B20000C04D1F80C14C907EFD5EFF3118083F30F
:104B30001288BFF36F8F0A490B6C03F0C00343F078
:104B400002030B6480F31188BFF36F8F82F3118827
:104B5000BFF36F8F002010BCFFF7A2BFDC20002046
:104B60008C20002010B1012804D07047034B1B6C2F
:104B70005B0701D1FFF794BF704700BF8C20002076
:104B80002DE9F0413849BFF35B8F0746012251E818
:104B9000003F41E800200028F9D1BFF35B8F33B913
:104BA000324933484B60CB608A6007F068FA7B1E5D
:104BB000012B2BD8012F07D14FF08043D3F81C34A1
:104BC00003F00303012B21D009F049F80546F8B999
:104BD000284B1B78E3B14FF080430222C3F808232F
:104BE0000646DFF894804FF08044D4F81824D4F8B7
:104BF0001834D20315D503F00303012B01D0012F84
:104C00000FD155B386F31188BFF36F8FBDE8F081E4
:104C1000EFF31186202383F31288BFF36F8F0125F2
:104C2000DFE7ADB1304608F067F8D4F81835002B4F
:104C3000DBD1D4F80421002AD7D0C4F80431D4F849
:104C400004310123C4F81835C8F88031A360CCE7DB
:104C50000021212005F028FCE7E74FF080430222E5
:104C6000C3F80423D2E700BF88200020782000206A
:104C7000A8200020A557002000E100E010B5044C5A
:104C80002046FCF701FC2046FFF71CFE002010BD6B
:104C9000954C000073B5104E8DF8070004460325AF
:104CA00001220DF10701002004F0A2FC20B1012334
:104CB0003370204602B070BD3378002BF9D0013D2F
:104CC00008D008F0CCFF0028EAD10021422005F0EE
:104CD000EBFBE5E73570ECE7A4370020F0B5406862
:104CE000057B01F01F0444EA4514056987B0002DD7
:104CF00064D0B2F5001F00F1100506D12146284608
:104D000008F0F4FD002007B0F0BD01AE0027B2F5B9
:104D1000800F0197776039D1B3F1007F14BF05236D
:104D200004238DF804300023CDE9046303938368E2
:104D300023FA01F111F001011AD1B2F1A07F17D1CC
:104D400004F01F03620903F5E0732AD0012A3BD166
:104D50001F4A52F82330DB070AD40DF1030632460E
:104D60002146284603F0C8FE1A4B98421CD00296F2
:104D700003AA2146284603F081FD174B984220D113
:104D800001222146284603F01BFFBBE7B3F1C06FA9
:104D900005D0B3F1007F14BF01230223C1E7032331
:104DA000BFE74FF0A042D4E73146284603F002FFA8
:104DB000094B9842DBD06FF00B00A4E76FF0850041
:104DC000A1E76FF015009EE751F82330FFDE00BF2A
:104DD000000300500400AD0B0000AD0B38B5456872
:104DE0002B69B3B11035284603F0D4FE044680B9D0
:104DF0000146284603F09AFE084B98420BD1084919
:104E00002246284603F072FE224605210620FFF7BF
:104E1000FBFA002038BD6FF00400FBE70000AD0B8B
:104E2000254E0000420970B5034602D0012A17D072
:104E300070BD0D4E326951680029F9D003F01F038F
:104E400001250C689D400029F2D08A682A4002D0D2
:104E50004B68304698472CB1236821461C46F2E740
:104E6000024EE7E72346F8E798E4000084E40000F8
:104E70002DE9F043466840F20635D006337B87B013
:104E800002EA050554BFC2F34010032001F01F07DA
:104E9000B5F5837F144647EA43178DF8030045D0E4
:104EA0000FD8062D18D007D8B5B1022D40D06FF01D
:104EB000150007B0BDE8F083B5F5807FF7D1012577
:104EC0000AE040F20222954234D0B5F5407F33D05B
:104ED000B5F5007FEBD102250123220303FA01F18E
:104EE0002CD57368C3F80815326982BB07F01F031D
:104EF0007F0929D0012F77D13E4A02EB830284F447
:104F00008033D2F80017C3F30043C4F3404444EAAB
:104F1000430421F4E16144EA800421F0070144EAFA
:104F200005230B43C2F800370020C2E70725D3E76B
:104F30000425D1E70525CFE70325CDE7630344BF6B
:104F40007368C3F80C15CFE74FF0A042D5E71036D1
:104F50000DF102023946304603F0CEFD14F4403F15
:104F600080460CD13946304608F0BEFC224B9845AD
:104F7000DAD19DF80210304603F016FED4E701ABFB
:104F80004FF0000903AA39463046CDE90439CDE98E
:104F90000199CDF80C9003F071FC174B984286D123
:104FA00014F4003315D09DF803308DF80E3084F4DE
:104FB0008034C4F300444B4603AA394630468DF88A
:104FC0000C508DF80D4003F013FD0B4B9842CDD0E3
:104FD0006DE7CDE9043303AA0DF1030339463046EA
:104FE000039303F04BFCF0E703F5E07352F8233032
:104FF000FFDE00BF000300500000AD0B2DE9F341C0
:105000004FF000085668CDF8048005461446304637
:1050100004F062FB074648B928461949324607F0B2
:1050200092FA6FF0120002B0BDE8F081A0680A2287
:10503000414606F043F9BB685B684400C3B101A96F
:1050400038469847A0B9019B04F00E0123F00E03E7
:1050500019430191BB6838461B68984700280CDA51
:1050600028460849324607F06EFA6FF00400DAE786
:1050700004F00E0141F01001EBE70020D3E700BF80
:10508000290401004B0401002DE9F04F044685B0CE
:105090005068174604F020FB814648B920467A68DC
:1050A000284907F050FA6FF0120005B0BDE8F08F04
:1050B0002549DFF898A0204607F037FA4FF000089E
:1050C0004646434652460821204607F013FADFF8C9
:1050D00080B045462B1F732B07D95A46082120461E
:1050E00007F008FA18E0A846EBE70DF10303019377
:1050F0000023029302238DF80C300122ABB201A9E8
:10510000484607F0F2FED0B9124A2B460821204645
:1051100007F0F0F90136F6B2013508F11003AB42A1
:10512000D8D10D49204607F000FA802DDBD120466A
:105130007B680A49324607F0F8F90020B5E7084ACB
:10514000CCE700BF2904010070040100A5040100A0
:10515000BFF70000B9F7000036FB0000B004010003
:10516000AC0401002DE9F04F89B00646DDF848A0F7
:105170009DF84C900D4617469846084604F0ACFA48
:10518000044648B9304622492A4607F0DCF96FF058
:10519000120009B0BDE8F08F10220021384606F059
:1051A0008DF81FFA80FBB8F1000F27D010220021E4
:1051B000404606F083F80546404607F0B2FE08ABCD
:1051C0001B1A183BCDE90230CDE905A900232DBA01
:1051D0008DF8103007238DF81C3001955B460222B4
:1051E00002A9204607F081FE00280FDA304609495F
:1051F0003A4607F0A8F96FF00400CAE703238DF8D8
:105200001030CDE902A95B460122E9E70020C0E7A2
:1052100029040100C804010030B585B001230193C1
:1052200011460DF10F030093D2E9022349680546A8
:10523000FFF798FF044628B99DF80F200349284638
:1052400007F073F9204605B030BD00BFE804010047
:105250002DE9F04F89B006469DF84C408A469046AD
:105260001D46084604F038FA074648B930462A4930
:10527000524607F068F96FF0120009B0BDE8F08FF0
:1052800010220021404606F019F810220021824623
:10529000284606F013F88346284607F042FE0546E6
:1052A00063199BFA8BF0102B039006DDC5F11002F9
:1052B0001A493046D4B207F02AF90DF10F094FF020
:1052C000000B5C4519DC08AB5B1B103B0093022311
:1052D0008DF808302C441FFA8AF3012269463846BB
:1052E000019407F002FE002813DA30460C494246CA
:1052F00007F029F96FF00400BFE7129B102253F862
:105300002B00002105F0DAFF0BF1010B09F8010F6A
:10531000D7E70020B1E700BF29040100F60401002F
:105320001C05010038B505461446506804F0D4F950
:1053300040B962680B49284607F005F96FF012047E
:10534000204638BD83685B694BB198470446002806
:10535000F6D005492246284607F0F5F8F0E76FF049
:105360005704F6E7290401003B05010002780B69A8
:10537000012A08D0022A08D04AB9064A5A6303F122
:105380001C0004F0B5BC044AF8E7044AF6E7044AF6
:10539000F4E700BF0000AD0B0100AE0B0200AE0B46
:1053A0000100AD0B2DE9F04FD0F81090D0F804803B
:1053B00085B005460C461746029309F1040A4FF0E2
:1053C000FF324FF0FF33504604F0B8FC09F11C0BDC
:1053D00000230022584604F0B1FC404603F0A0FE32
:1053E0007B1E00260393B74201D8002322E0039BD3
:1053F000217AB34283BF237D83F00403C3F3800388
:1054000000230193029B0093D4E90023284600F077
:10541000A7F8034670B94FF480420023584604F0C1
:105420008DFC98B1404603F08BFE284600F086F8CC
:105430006FF004034046029303F082FE504604F0EE
:1054400057FC029B184605B0BDE8F08FD9F8343000
:10545000034A934204F10C04EAD10136C3E700BFCA
:105460000000AD0B98B5044640682346826900AF42
:1054700000F1080103F010FE104B98421CD01048B8
:1054800003685B0714D023686C468AB06A460D49EE
:1054900051610D49C2E9061340F2013313840B4BED
:1054A00042F8103F00234FF41151FCF7BBFCA54616
:1054B0006FF00F00BD4698BD0020FBE70000AD0B6C
:1054C000D4010020F70701008C080100040000014E
:1054D00098B511F001034268046900AF18D1C1F317
:1054E0004200012817D002281ED011480268520736
:1054F0000ED06C4688B06A460E4951610E499161E2
:10550000032142F8101F4FF4C251FCF78BFCA54653
:105510006FF0150006E013684FF0CC72C3F8242535
:1055200000202160BD4698BD13684FF0CD62F5E7BD
:10553000D40100201B0801007508010008B543686C
:105540001B68D3F80805D3F80C1503F0FFFE034BD6
:10555000984214BF6FF00F00002008BD0000AD0B93
:105560002DE9F04387B000AF0C46D0F8048097F8DF
:105570003C90154600211222B81D1E4608F01AFF65
:105580003A8F7A7104F0010314F008023B71BE6097
:105590003D611AD01A4803685C0705D16FF0850099
:1055A0001C37BD46BDE8F0836C4688B06A46154B93
:1055B0005361154B9361032342F8103F00234FF4CE
:1055C000C251FCF72FFCA546E8E7A10705D4B9F1C5
:1055D000000F11D1002BE1D12022391D404603F0EC
:1055E000CBFD0A4B984209D00B3398420CBF6FF0A9
:1055F0000F006FF00400D3E74022EEE70020CFE772
:10560000D4010020310801005B0801000000AD0B4F
:10561000036803F01F025B09026004D0012B0348FA
:1056200018BF002070474FF0A040704700030050A3
:105630002DE9F04F544FDFF8548185B092468146F2
:1056400000EB810140F2FF16494503D1002005B06F
:10565000BDE8F08FD9F800305804C3F3C322C3F378
:10566000080400F18B801B0E043BBD5CB44208BFF4
:105670004FF0FF34152B00F28480DFE803F00B12AB
:1056800023828282822B5A828282828282828282D8
:105690005D737679621CCAF808456CD109F104097A
:1056A000D2E7631CCAF80C45F8D04FF0010B03A8F1
:1056B0000394FFF7ADFF039B012202FA03F3C0F846
:1056C0000C3511E0CAF81045601CE7D04FF0000B14
:1056D0005A4609E0CAF80845002DF5D1631CDDD013
:1056E0004FF0000B5A460625D9F80030019303F419
:1056F0000040002818BF002203A8009218BF4FF0F6
:10570000010B0394FFF784FF039C019B009A00EBBD
:105710008400C3F3412CD0F800472B0243EA8C03EA
:10572000134304EA0804234343EA4B03C0F8003759
:10573000B4E7CAF80C45CFE7CAF86045621CD9F84F
:105740000030ABD0C3F30043002BAED003A80394CA
:10575000FFF75EFF039B4FF0010B0BFA03F3C0F85A
:105760000835B5E7CAF86445E8E7CAF86845E5E7EB
:10577000CAF86C45E2E74FF0000B98E76FF01500B0
:1057800065E76FF0850062E79E080100F0F8FCFF16
:1057900070B5012383400E4ABFF35B8FDC4352E8B0
:1057A000001F01EA040542E80056002EF7D1BFF3BE
:1057B0005B8F4FF4803282400648C0F80823BFF365
:1057C0005F8FBFF36F8F0B4214BF0120002070BDAD
:1057D000FC2000200010014070B40E49D1E90034D3
:1057E000D01AC31844F1000422F07F46C1E9003406
:1057F000A6F50013B3F5400F09D2074B1B681A0A30
:105800001B069C19054B42F10005C3E9004570BC1D
:1058100005F022B8B014002000210020B8140020A8
:1058200011B3BFF35B8F0123104A834052E800CFCE
:105830004CEA030C42E800C10029F7D1BFF35B8FAB
:105840000B4A4FF480338340C2F80433094BBFF353
:105850005B8F1B68BFF35B8FC340DB0742BF064B08
:105860004FF40032C3F80021704700BFFC20002035
:1058700000100140F820002000E100E00D4B186806
:10588000010A0006BFF35F8F0B4BD3F804351818DD
:1058900041F10001B3F5801F0AD2084BD3E9002380
:1058A000904271EB030303D210F1807041F10001CB
:1058B000704700BF0021002000100140B8140020F4
:1058C0002DE9F04F85B016461F469DF840A00446CE
:1058D000FFF75EFF0190FFF7D1FFB04271EB0703C6
:1058E00054D23E4B301A67EB0101984271F100012E
:1058F0004FD23B4B03EB0413D3E902239F4208BF73
:1059000096425ED037494FF4803804F1500508FACA
:1059100004F8AD00C1F848832046ADB207F0B3FBF0
:1059200026F07F4B05F1804504F5A87305F5883511
:10593000DC464FF003090293029A2CF07F4341F8B2
:105940002230C1F84483D1F80435274A6FF00200B1
:10595000C01A604420F07F40904232D9286868B174
:10596000D1F804350393A3EB0B0020F07F40B0F592
:10597000000F26D9204607F086FB039BBAF1000FE3
:1059800007D109EB030C09F10109D5E7BAF1000FC2
:1059900009D06FF0150520460199FFF741FF284611
:1059A00005B0BDE8F08F0123104ABFF35B8FA34021
:1059B00052E8000F184342E800010029F8D1BFF374
:1059C0005B8F07490E98230101EB0412C8500F9B0F
:1059D0005360C2E902670025DDE700BF01008000D7
:1059E000A014002000100140FDFF7F00F8200020DF
:1059F0007FB51C4C1C4BC4F80833C4F848331B4B10
:105A000000254FF0FF304FF0FF31C4F80855C3E9CF
:105A100002014FF48033C4F80433154B02264FF4CF
:105A200000320121C4F804631120C3F880212A4602
:105A3000FEF7EAFC1120FEF7B7FC0E4A0123A36033
:105A4000236013600C4B0D4A0093CDE901550023F0
:105A50002846FFF735FF3046FFF792F8284604B096
:105A600070BD00BF0010014003000F00A014002013
:105A700000E100E0FC200020D9570000FFFF7F007C
:105A80002DE9F7432F4CD4F8043399070BD5D4F8FC
:105A9000043143B12C4A0023C4F80431D4F8043152
:105AA000136801331360D4F80433DA0329D5BFF344
:105AB0005B8F264B53E8002F22F0010143E80010D2
:105AC0000028F7D1BFF35B8FD30702D4D4F840315D
:105AD000BBB10025C4F84051D4F84031FFF7CEFEE9
