:10000000809C00200948000097F70000F547000099
:10001000F5470000F5470000F5470000000000002C
:100020000000000000000000000000008549000002
:10003000F54700000000000021490000F5470000DE
:10004000494B0000494B0000494B0000494B000060
:10005000494B0000494B0000494B0000494B000050
:10006000494B0000494B0000494B0000494B000040
:10007000494B0000494B0000494B0000494B000030
:10008000494B0000494B0000494B0000494B000020
:10009000494B0000494B0000494B0000494B000010
:1000A000494B0000494B0000494B0000494B000000
:1000B000494B0000494B0000494B0000494B0000F0
:1000C000494B0000494B0000494B0000494B0000E0
:1000D000494B0000494B0000494B0000494B0000D0
:1000E000494B0000494B0000494B0000494B0000C0
:1000F000494B0000494B0000494B0000494B0000B0
:1001000081F0004102E000BF83F0004330B54FEAC8
:1001100041044FEA430594EA050F08BF90EA020F35
:100120001FBF54EA000C55EA020C7FEA645C7FEAC8
:10013000655C00F0E2804FEA5454D4EB5555B8BFEB
:100140006D420CDD2C4480EA020281EA030382EA5C
:10015000000083EA010180EA020281EA0303362DEE
:1001600088BF30BD11F0004F4FEA01314FF4801CC1
:100170004CEA113102D0404261EB410113F0004FD3
:100180004FEA03334CEA133302D0524263EB43038A
:1001900094EA050F00F0A780A4F10104D5F1200E28
:1001A0000DDB02FA0EFC22FA05F2801841F1000183
:1001B00003FA0EF2801843FA05F359410EE0A5F157
:1001C00020050EF1200E012A03FA0EFC28BF4CF088
:1001D000020C43FA05F3C01851EBE37101F000453E
:1001E00007D54FF0000EDCF1000C7EEB00006EEB4B
:1001F0000101B1F5801F1BD3B1F5001F0CD34908D5
:100200005FEA30004FEA3C0C04F101044FEA44522B
:1002100012F5800F80F09A80BCF1004F08BF5FEAB2
:10022000500C50F1000041EB045141EA050130BD92
:100230005FEA4C0C404141EB0101013C28BFB1F5A4
:10024000801FE9D291F0000F04BF01460020B1FAEF
:1002500081F308BF2033A3F10B03B3F120020CDAC2
:100260000C3208DD02F1140CC2F10C0201FA0CF0A0
:1002700021FA02F10CE002F11402D8BFC2F1200C05
:1002800001FA02F120FA0CFCDCBF41EA0C019040BB
:10029000E41AA2BF01EB0451294330BD6FEA040404
:1002A0001F3C1CDA0C340EDC04F11404C4F12002EF
:1002B00020FA04F001FA02F340EA030021FA04F301
:1002C00045EA030130BDC4F10C04C4F1200220FA58
:1002D00002F001FA04F340EA0300294630BD21FA96
:1002E00004F0294630BD94F0000F83F4801306BF5C
:1002F00081F480110134013D4EE77FEA645C18BF50
:100300007FEA655C29D094EA050F08BF90EA020FE6
:1003100005D054EA000C04BF1946104630BD91EADE
:10032000030F1EBF0021002030BD5FEA545C05D1E1
:100330004000494128BF41F0004130BD14F5800420
:100340003CBF01F5801130BD01F0004545F0FE4194
:1003500041F470014FF0000030BD7FEA645C1ABFC9
:10036000194610467FEA655C1CBF0B46024650EA00
:10037000013406BF52EA033591EA030F41F400212C
:1003800030BD00BF90F0000F04BF0021704730B5B2
:100390004FF4806404F132044FF000054FF0000187
:1003A00050E700BF90F0000F04BF0021704730B548
:1003B0004FF4806404F1320410F0004548BF40421D
:1003C0004FF000013EE700BF42004FEAE2014FEA72
:1003D00031014FEA02701FBF12F07F4393F07F4F4D
:1003E00081F06051704732F07F4208BF704793F050
:1003F0007F4F04BF41F40021704730B54FF4607463
:1004000001F0004521F000411CE700BF50EA010265
:1004100008BF704730B54FF000050AE050EA01020E
:1004200008BF704730B511F0004502D5404261EB7E
:1004300041014FF4806404F132045FEA915C3FF4BF
:10044000D8AE4FF003025FEADC0C18BF03325FEA5C
:10045000DC0C18BF033202EBDC02C2F1200300FA0D
:1004600003FC20FA02F001FA03FE40EA0E0021FA32
:1004700002F11444BDE600BF70B54FF0FF0C4CF420
:10048000E06C1CEA11541DBF1CEA135594EA0C0FD2
:1004900095EA0C0F00F0DEF82C4481EA030621EA0D
:1004A0004C5123EA4C5350EA013518BF52EA033548
:1004B00041F4801143F4801338D0A0FB02CE4FF0FA
:1004C0000005E1FB02E506F00042E0FB03E54FF02A
:1004D0000006E1FB03569CF0000F18BF4EF0010E22
:1004E000A4F1FF04B6F5007F64F5407404D25FEA1E
:1004F0004E0E6D4146EB060642EAC62141EA5551D1
:100500004FEAC52040EA5E504FEACE2EB4F1FD0C12
:1005100088BFBCF5E06F1ED8BEF1004F08BF5FEA90
:10052000500E50F1000041EB045170BD06F0004642
:1005300046EA010140EA020081EA0301B4EB5C04EF
:10054000C2BFD4EB0C0541EA045170BD41F48011E7
:100550004FF0000E013C00F3AB8014F1360FDEBF0C
:10056000002001F0004170BDC4F10004203C35DAE8
:100570000C341BDC04F11404C4F1200500FA05F36B
:1005800020FA04F001FA05F240EA020001F000420C
:1005900021F0004110EBD37021FA04F642EB060182
:1005A0005EEA430E08BF20EAD37070BDC4F10C04AC
:1005B000C4F1200500FA04F320FA05F001FA04F270
:1005C00040EA020001F0004110EBD37041F100015C
:1005D0005EEA430E08BF20EAD37070BDC4F1200567
:1005E00000FA05F24EEA020E20FA04F301FA05F2CF
:1005F00043EA020321FA04F001F0004121FA04F277
:1006000020EA020000EBD3705EEA430E08BF20EA46
:10061000D37070BD94F0000F0FD101F00046400080
:1006200041EB010111F4801F08BF013CF7D041EA02
:10063000060195F0000F18BF704703F00046520006
:1006400043EB030313F4801F08BF013DF7D043EAD7
:100650000603704794EA0C0F0CEA135518BF95EA8D
:100660000C0F0CD050EA410618BF52EA4306D1D114
:1006700081EA030101F000414FF0000070BD50EA33
:10068000410606BF1046194652EA430619D094EABD
:100690000C0F02D150EA013613D195EA0C0F05D1A7
:1006A00052EA03361CBF104619460AD181EA0301FB
:1006B00001F0004141F0FE4141F470014FF00000B3
:1006C00070BD41F0FE4141F4780170BD70B54FF04E
:1006D000FF0C4CF4E06C1CEA11541DBF1CEA1355CE
:1006E00094EA0C0F95EA0C0F00F0A7F8A4EB0504B0
:1006F00081EA030E52EA03354FEA013100F08880A7
:100700004FEA03334FF0805545EA131343EA12636F
:100710004FEA022245EA111545EA10654FEA002624
:100720000EF000419D4208BF964244F1FD0404F5DD
:10073000407402D25B084FEA3202B61A65EB030539
:100740005B084FEA32024FF480104FF4002CB6EBF6
:10075000020E75EB030E22BFB61A754640EA0C0076
:100760005B084FEA3202B6EB020E75EB030E22BFB6
:10077000B61A754640EA5C005B084FEA3202B6EBF7
:10078000020E75EB030E22BFB61A754640EA9C00B6
:100790005B084FEA3202B6EB020E75EB030E22BF86
:1007A000B61A754640EADC0055EA060E18D04FEA44
:1007B000051545EA16754FEA06164FEAC30343EAE4
:1007C00052734FEAC2025FEA1C1CC0D111F4801FB1
:1007D0000BD141EA00014FF000004FF0004CB6E7AA
:1007E00011F4801F04BF01430020B4F1FD0C88BF49
:1007F000BCF5E06F3FF6AFAEB5EB030C04BFB6EB54
:10080000020C5FEA500C50F1000041EB045170BD46
:100810000EF0004E4EEA113114EB5C04C2BFD4EB73
:100820000C0541EA045170BD41F480114FF0000EF7
:10083000013C90E645EA060E8DE60CEA135594EA73
:100840000C0F08BF95EA0C0F3FF43BAF94EA0C0F76
:100850000AD150EA01347FF434AF95EA0C0F7FF4EB
:1008600025AF104619462CE795EA0C0F06D152EA3F
:1008700003353FF4FDAE1046194622E750EA410623
:1008800018BF52EA43067FF4C5AE50EA41047FF434
:100890000DAF52EA43057FF4EBAE12E74FEA410297
:1008A000B2F1E04324BFB3F5001CDCF1FE5C0DD9CE
:1008B00001F0004C4FEAC0024CEA5070B2F1004F18
:1008C00040EB830008BF20F00100704711F0804F1B
:1008D00021D113F13872BCBF01F00040704741F4E0
:1008E00080114FEA5252C2F11802C2F1200C10FAE4
:1008F0000CF320FA02F018BF40F001004FEAC123C8
:100900004FEAD32303FA0CFC40EA0C0023FA02F36B
:100910004FEA4303CCE77FEA625307D150EA013341
:100920001EBF4FF0FE4040F44000704701F0004011
:1009300040F0FE4040F40000704700BF7BB972B940
:100940000029BEBF00204FF0004106E008BF00288C
:100950001CBF6FF000414FF0FF3000F057B8ADF111
:10096000080C6DE904CE002909DB002B1ADB00F02E
:1009700074F8DDF804E0DDE9022304B0704740427A
:1009800061EB4101002B1BDB00F067F8DDF804E0B0
:10099000DDE9022304B0404261EB4101524263EBC6
:1009A00043037047524263EB430300F056F8DDF80F
:1009B00004E0DDE9022304B0404261EB41017047ED
:1009C000524263EB430300F048F8DDF804E0DDE950
:1009D000022304B0524263EB4303704753B94AB950
:1009E000002908BF00281CBF4FF0FF314FF0FF3037
:1009F00000F00CB8ADF1080C6DE904CE00F02DF854
:100A0000DDF804E0DDE9022304B07047704700BF61
:100A100010F8012B11F8013B012A28BF9A42F7D0A8
:100A2000D01A7047034613F8012B002AFBD1181A7D
:100A300001387047430803F05533C01A00F03333D0
:100A4000800800F03330184400EB10104FF00133F1
:100A500000F00F305843000E70472DE9F0478646EE
:100A60008C460846089E154674461946002B40F0F1
:100A7000C2808542B2FA82F245D94AB1C2F120035E
:100A800000FA02FC2EFA03F3954043EA0C0C944062
:100A90004FEA154EA8B2BCFBFEF8230C0EFB18CC97
:100AA00008FB00F943EA0C43994528D9EB1808F1F3
:100AB000FF3704D2994502D9A8F102072B44A3EBD2
:100AC0000903A4B2B3FBFEFC0EFB1C330CFB00F0CD
:100AD00044EA0344A04214D92C190CF1FF3304D288
:100AE000A04202D9ACF102032C44241A43EA074085
:100AF0001EB1D440002334607360BDE8F0874746E0
:100B0000DDE76346F1E792BB431B01214FEA154E37
:100B1000AFB2B3FBFEFC200C0EFB1C330CFB07F842
:100B200040EA0343984562D9EB180CF1FF3004D238
:100B3000984502D9ACF102002B44A3EB0803A4B200
:100B4000B3FBFEFC0EFB1C330CFB07F744EA03442B
:100B5000A7424ED92C190CF1FF3304D2A74202D977
:100B6000ACF102032C44E41B43EA0040C0E7C2F1AD
:100B7000200320FA03F1954090402EFA03F303433B
:100B80004FEA154EAFB2B1FBFEFC0EFB1C10190C68
:100B90000CFB07F841EA0041884504FA02F422D927
:100BA00069180CF1FF3004D2884502D9ACF102007B
:100BB0002944A1EB08019BB2B1FBFEFC0EFB1C110A
:100BC0000CFB07F743EA01439F420ED9EB180CF1E7
:100BD000FF3104D29F4202D9ACF102012B44DB1B4E
:100BE00041EA004192E76046E3E76146F7E7604685
:100BF000A3E76346B7E7834206D916B90021084642
:100C00007BE7C6E900E0F9E7B3FA83F78FB98342DF
:100C100001D3724508D8BEEB020460EB0303012048
:100C20009C461EB9002168E73846FAE7C6E9004C41
:100C3000F8E7C7F1200CBB4022FA0CF41C432EFA53
:100C40000CF120FA0CF3B84001434FEA14490EFAB4
:100C500007F5B3FBF9F81FFA84FE09FB18300B0CFB
:100C600008FB0EFA43EA00439A4502FA07F240D91C
:100C7000E31808F1FF3004D29A4502D9A8F1020026
:100C80002344A3EB0A0389B2B3FBF9F809FB183339
:100C900008FB0EFE41EA03418E452CD9611808F18C
:100CA000FF3304D28E4502D9A8F10203214443EA5E
:100CB0000040A0FB0298A1EB0E014145CE46434601
:100CC00002D306D14D4504D2B9EB020E68EB040302
:100CD0000138002EA6D0B5EB0E0261EB030101FA3C
:100CE0000CFC22FA07F34CEA0303F940C6E9003191
:100CF00098E74046C5E74346D9E7000000000000FA
:100D00002DE9F047064688B00F46904610F004FEE5
:100D10004FF47A73A0FB034503FB0155E40B012F4D
:100D200044EA45444FEAD53507D1294922462B46A6
:100D300030460EF0A6F9002012E0D8F804702548DD
:100D40003946FFF765FE70B123483946FFF760FE6C
:100D500048B1304621493A460EF0AFF96FF0040031
:100D600008B0BDE8F0872046294617A3D3E9002341
:100D7000FFF7E4FD05460C4610461946184A0023C5
:100D8000FFF7DCFD80460F46104619464EF66022FE
:100D90000023FFF7D3FD82468946104619464FF4DB
:100DA0007A720023FFF7CAFDCDE902A9CDE9062337
:100DB000CDE90401CDE900870A492A462346304699
:100DC0000EF05FF9B7E700BF005C260500000000E9
:100DD0009E330100AF330100B2330100BB33010089
:100DE00080EE3600D33301002DE9F04F87B0054681
:100DF000039117461E46836804AA5B68984700283B
:100E000031DBDDE9044AA7FB04B307FB0A37584688
:100E100019A3D3E900233946FFF7E0FDDFF860802E
:100E200002904FF0FF39D94578EB07031ED3A6FB9C
:100E300004B406FB0A4410A3D3E900232146584614
:100E4000FFF7CCFDD94578EB040403460ED3029995
:100E5000AA6899420DD3BDF8401000911468284645
:100E6000DDE90221A04707B0BDE8F08F6FF08500F3
:100E7000F9E76FF01500F6E700CA9A3B00000000A2
:100E8000FFC99A3B00000000032973B505461446CC
:100E900071D8002A40D0072A5CD15A681C683A48A9
:100EA000D1171346C4FB0031012B71F1000225DB81
:100EB00000F56E1000F65D70181831A3D3E9002319
:100EC00041F10001FFF73AFD80B202281ED004284C
:100ED0001ED008281ED0102833D103232B492A699D
:100EE00051F823101161526814691B01302223212B
:100EF0002846A44602B0BDE8704060472448181850
:100F000061F100011EA3D3E90023DBE70023E5E73D
:100F10000123E3E70223E1E71A881E4B33F8021BA3
:100F20008A420BD12E6973680DF107029B6820215C
:100F300028469847002807DA02B070BD01340B2C10
:100F4000ECD16FF01500F7E79DF80720130704D4E4
:100F5000082C05D16FF08500EEE70A2C08BF0924A4
:100F6000736802F00F0242EA0412DB68D2B2202159
:100F700028469847E0E702B0BDE8704006F014B993
:100F80003AA395000000000040420F001006002028
:100F9000632EB5FF303001002DE9F04782B0824664
:100FA00000AF4FF0FF324FF0FF3349480AF0EAFB41
:100FB000484E494D304610F010FA0346D8B92A6819
:100FC00050070FD06C4688B06A4644495161444985
:100FD0009161032142F8101F4FF4C251284601F0DD
:100FE000ABF9A54608F01EF86FF01204204608374A
:100FF000BD46BDE8F087D6F808804321D8F80C300C
:10100000304698470446B8B12B68590711D06E4650
:1010100088B06A46334B5361314BC2E9063404232E
:1010200042F8103F00234FF40151284601F084F9A3
:10103000B54607F0F7FFD9E70D21D8F810303A464A
:1010400030469847044638B12B685A07F1D06E46AF
:1010500088B06A46244BDEE77868FFF7A3F91AA345
:10106000D3E90023FFF732FB804638688946FFF753
:1010700099F90B46024649464046FFF747F8FFF705
:101080000DFC2B685B07804615D5E9468AB06E4695
:10109000164B7361124BB361FFF796F93246062384
:1010A000C6E9080142F8103F4FF444512346284650
:1010B00001F042F9CD46BAF1000FBAD0CAF800806B
:1010C000B7E700BFAFF300800000000080842E412E
:1010D000B0060020FC210100AC0700205F52010097
:1010E00053530100FA520100245301009A300100C9
:1010F0002DE9F043454D83B02B6803F00703022B25
:1011000000AF10D96C4688B06A46414B5361414BE1
:101110009361032342F8103F00234FF4C651284641
:1011200001F00AF9A5463C4E3C4C2B6803F007033E
:10113000022B0FD9E84688B06A46364B93610323E9
:10114000566142F8103F314800234FF4C65101F078
:10115000F3F8C546A368D3F808801B68B8F1000F00
:101160002AD17BBB00214FF4A47010F010FBA268C1
:10117000D2E9012353BB72BB381DFFF70DFF2B686B
:10118000814660B35B0711D0E84688B06A46244BBD
:101190005361204BC2E90630042342F8103F00237C
:1011A0004FF40151194801F0C7F8C54600214FF42A
:1011B000203010F0ECFAB8E723B964221946204633
:1011C000C047CFE7002120469847CBE71AB9114620
:1011D00020469847D0E7002120469047CCE703F00F
:1011E0000703022BE2D97868FFF7EEF8E8468AB0E9
:1011F0006A460C4B5361074B93610623C2E9080111
:1012000042F8103F4FF443514B46CBE7D80700203C
:1012100046300100B23001006B3001008C2101002A
:10122000753001009A3001002DE9F04F91B084072C
:10123000009302F004030293C2F3C20303F101031B
:10124000DDF86880039205460E46059340F0BA81AA
:10125000041D30B1072909D86FF01B0011B0BDE89B
:10126000F08F01F007063444C6F10806009B4FF0EA
:101270000009591E4FF0040A4FF0FF330193CDF8D7
:1012800010904F46CB4653460DB1009A2260059808
:10129000002800F3E8809848009A824203D39748D8
:1012A0008242C0F0E080039AA4EB050E92074FEA59
:1012B0009E0000F103810F2F00F2B180002D00F09D
:1012C000058107F140020DEB020C019A0CF8200C8D
:1012D0000CF8102C049801300490E7E07A285DD8CF
:1012E0004B280ED8472859D829282DD8252852D040
:1012F00054D820287AD02338D0F1000B4BEB000BC8
:1013000074E04C382E2849D8DFE800F0704848488F
:1013100048484848484848484B484848484848484A
:101320004859484B4B595959704B6D487048184BA8
:10133000184848827F4B48484B487F0000204FF0B8
:10134000000B4FF0040A38E02A38C0B2012202FA3A
:1013500000F010EA0E0F49D110F0625C2FD110EAB4
:10136000020B43D06046013C5444B4FBFAF40AFB40
:1013700004F4002D61D0A3EB050CA444B4453FF662
:101380006BAF002868D1042B47D158F8043B236089
:10139000043404232AE0019A013A01924FF0000B31
:1013A00024E011F8010C6C2834D111F8023C002023
:1013B0006C2B8346C5D14FF0080A5346D3E708F19A
:1013C000070828F007080734F8E802AB24F0070400
:1013D00035B106982044B0423FF63EAFC4E900ABB9
:1013E00008344FF0000B4FF0080A534611F8010F74
:1013F000002878D0BBF1000F7FF470AF2528F5D11D
:10140000019B013301934FF0010B4FF0040AECE70D
:10141000584694E700208346A5E7082B02D06FF0DA
:1014200015001BE708F1070828F00708F8E8022371
:10143000C4E9002308340823D8E768B9042B02D193
:1014400008F10408A4E7082BE9D108F1070828F0FF
:10145000070808F10808EDE7059A013A059258F8DF
:10146000042B009210E7039A900720D5A4EB050EF9
:101470004FEA9E004FF0010CBEF5007FCFD20F2F38
:10148000CDD8F5B107F140020DEB020EC0B2019AC2
:101490000EF8200C0EF8102CBCF1000F3FF41AAF20
:1014A00060F07F000EF8200C09F101090137C5F149
:1014B0000802043406924FF6DA7E97E74FF0000CEC
:1014C000DAE7BCF1000F01D00136EFE702980236EF
:1014D0000028EBD10098CDE90631FFF7A3FADDE94A
:1014E00006310644E2E7631BB3F5806F97D23DB93E
:1014F000A6F10804E018B1E67C1F01009455010034
:10150000029A28609B082B709DF81030C2B1EB70D6
:1015100085F80290B9F1000F05D008A80022C5F1A6
:10152000010C97420ED1C5F101030DF120084FF0D7
:10153000000A01930DF1300B574512D1601B8DE667
:101540006B70E5E710F8013B190608D50CEB040EAB
:10155000B64503F07F033FF67FAE04F8013B01324E
:10156000DFE7B9F1000F03D098F90020002A17DB5C
:10157000029BD3B11AF80B2004F8012B0022019B27
:1015800018191044B0423FF667AE98F8000004F80E
:10159000010B00990392204610F0F0FB039A1444CB
:1015A0000AF1010A08F10108C6E798F8002055F889
:1015B00022300093029B45F822300098FFF732FA60
:1015C000421CDCE76FF00D0048E600BF2DE9F04F4C
:1015D00097B000AF90F802A0D7F880B03B62CBF391
:1015E000C0030446FA62BB61894641B94578007878
:1015F0000AEB800020444D4517D8A0EB0409E3789E
:10160000FB61BAF1000F02D01BF0010F16D1FB698C
:1016100053BBFB6A1BB13A6A4946204698474D4680
:1016200028465C37BD46BDE8F08F461C3046FFF7C4
:10163000F9F90130304409F10109DCE723786268E7
:101640007A62FA6A9900796104EB8301002A40F01A
:1016500006814D460E4601EB0A094FF00008B145E0
:1016600052D101EB0A0610E01BF0020FD1D0237813
:101670009A007A6162687A62FA6A04EB8301002A4E
:101680007DD14D4601EB0A0690461BF0050F0CBFBD
:1016900002230123FB62FB6906EB430A0BF0020302
:1016A000BB625645BCD016F8021B16F8013C54F834
:1016B00023909C4B994502D39B4B99453CD3BB69E6
:1016C000002B46D0786A0CF022FF002841D09748C2
:1016D000036813F0060F15D0E9468AB06A46944BAA
:1016E0005361944B93617B6AC2E9073140F2013345
:1016F0009384914B42F8103F00234FF4325100F095
:101700001BFECD46023DCCE716F8013BF96254F8CA
:101710002300FFF787F9D7F88430F96A01304BB11D
:10172000D7F8883098453EBFD7F8843023F81800A2
:1017300008F10108054492E7BB6923B1786A0CF00F
:10174000E6FE0028C3D11BF0010F05D1FB6AED1A9C
:10175000A7E7BB6A002BA4D04846FFF763F9D7F888
:10176000843053B1D7F8883098453FBFD7F88420EC
:10177000431C22F8183008F10108054491E7BAF13A
:10178000000F72D01BF0040872D0D04607F1480059
:10179000002652463B61B96210F0F0FAB96A3B6923
:1017A00001EB0A02BA62FA69F9695200FA60BA6A90
:1017B00002EB41023A610BF00202BA603A69B96A7F
:1017C0008A4257D162787A621BF0020F32440CBF12
:1017D0004FEA580100211BF0010FD2B240F09F8068
:1017E0001BF0040F14BF40460020BB616270A07064
:1017F000E1703A6A7969FB6A20469847051EFFF650
:101800000FAFBB6923707B6A6370FB69E37041466D
:101810003A6AFB6A84F802A007F148009847B0F1E1
:101820000008C0F2BD807B693A6AA9EB0A01C91AB7
:10183000FB68C91AD7E90A0398470028C0F2B280AA
:10184000A84408EB00054FF0000B07F1380AB34538
:1018500074D300213A6AFB6A08469847E0E6564688
:1018600007F138004FF0000893E7D046564697E757
:10187000464695E7BA6A12F8021BBA6212F8015C92
:10188000284A54F82500904202D3274A90421ED39A
:10189000BA6932B1786A7B600CF039FE7B68002847
:1018A0008CD1BA6802BB08F1280207F1300C08F1AC
:1018B0000100944407F1580252FA80F008F102083E
:1018C0000CF8101C5FFA88F800F8105C76E7BA692B
:1018D0003AB1786A7B600CF01AFE7B6800287FF4CE
:1018E0006DAF1BF0010F09D006F1280207F130009F
:1018F000711C161806F8205CCEB25FE71BF0040FCF
:101900003FF45CAF08F1280207F1300008F1010153
:1019100002EB000808F8105C5FFA81F84EE700203F
:1019200063E700BF7C1F0100945501009807002069
:10193000BC30010063310100050000011BF80A30D2
:1019400087F8373054F82390D7F884302BB3D7F882
:1019500088309B4521D2D7F8843033F81B803A6A0F
:10196000FB6A012107F13700984700281ADB05447C
:10197000B8F1000F06D14846FFF754F800F101080E
:101980001FFA88F83A6AFB6A414648469847002899
:1019900008DB05440BF1010B59E74FF00008DEE7C7
:1019A00045463DE605463BE6014B1860704700BFE3
:1019B000B004002080B505460E46174698460AF04A
:1019C000F1FC034610F0D0FADFF81890044649F80D
:1019D0000030424630463946A84754F8090002F024
:1019E00089FF00BF0800000008B50446EFF311832B
:1019F000202383F31288BFF36F8F06F03FFE20464B
:101A000003F0C8FA02480CF0ABFD0DF0DCFEFCE779
:101A10008D3101002DE9F047058B044628079046DB
:101A200011D4022905F0070540F0CC8020460DF0C6
:101A300022F878B10138218B042811D8DFE800F0B2
:101A4000C2106D85950001290CBF45F0100545F0C9
:101A50002005258388F31188BFF36F8FBDE8F087D9
:101A600001F0070AAA4500F0A5800027B9463E46C6
:101A7000A368002B00F0BC8041F00801218388F3AB
:101A80001188BFF36F8FA168002900F0BA800D683C
:101A9000002900F0B680D1F8048033465246204633
:101AA000C047002D76D02B6829461D46F0E701F08F
:101AB00007035A1F012A1BD8002221F00701062B19
:101AC000276889B2C4E9002209D13B4603E0628B52
:101AD000013262831B68002BF9D141F0020121839E
:101AE00020460CF0C8FF00287AD041F0200176E0B3
:101AF000042B0AD121F0070189B2218320460CF082
:101B0000BAFF10B141F020012183218B01F0070AB7
:101B1000AA454FD00027B946AAE7236921F007015B
:101B200041F00601062DD3F8009021832DD1B9F1A3
:101B3000000F3FD041F00801218388F31188BFF3E3
:101B40006F8F3A492046C84729E021F007012369F1
:101B500041F0040189B2042DD3F804902183E6D02A
:101B600000273E464FF0040A82E721F0070123696F
:101B700041F0050189B2052DD3F808902183D6D014
:101B800000273E464FF0050A72E700273E464FF019
:101B9000060A6DE72B4687E7B9F1000FD1D1EFF3C5
:101BA0001188202383F31288BFF36F8F238B23F0D8
:101BB00008032383258BEA062ED525F01003238303
:101BC00005F007056669218B002EBFF670AF002374
:101BD0002768C4E9003321F0070141F001012183A6
:101BE000218B01F0070AAA454FF000097FF440AFAE
:101BF000002F9CD041F00801218388F31188BFF3A6
:101C00006F8F002FC8D03D68394633465246204674
:101C10000CF05DFF2F46F4E7AB067FF51BAF25F018
:101C20002003238305F0070500E700BFFBEA00005F
:101C30002DE9F047DFF85880044607464FF00109C8
:101C400014B93846BDE8F08794FAA4F5B5FA85F5DD
:101C500009FA05F32E0108EB05156FEA030A24EAD9
:101C600003042B7B002BEBD058F806301B694BB9D3
:101C70004644042273682846196807EA0A070DF0EB
:101C800032F8DDE7284698470028D9D1F0E700BFB1
:101C9000E425010030B51049104889B000220FF04A
:101CA00083FE0F4D0F4900220023CDE906230024B7
:101CB0000E23CDE90334CDE901440B4B00944FF4DE
:101CC000006228460AF004F80849284609F030FF67
:101CD000204609B030BD00BFF11C0000F019002003
:101CE00028090020805B002059200000C13101003C
:101CF000014809F013BD00BF6C0800202DE9F04732
:101D0000804621480F460CF0C6FF0646002833D017
:101D100000252846BDE8F087237B83B12368DB6874
:101D20000BB120469847636883F8069023681B69C7
:101D3000D3B963680422196820460CF0D4FF013639
:101D400010345445E8D3B8F1000FE2D0002DDFD0B5
:101D50002846FFF76DFF0546002FF7D000214FF40E
:101D6000A4700FF014FDF1E7204698470028E0D05A
:101D700009FA06F31D43E2E7044CDFF814A0054618
:101D80004FF00109DDE700BFC81E0020E425010077
:101D9000F4250100014B53F8200070470C2A010084
:101DA00008B5034608462BB1044A136000F074FDE1
:101DB000002008BD6FF01500FBE700BFB404002051
:101DC00010B5044C237813B9034809F0A7FC01238C
:101DD000237010BD242A00206C08002010B5044692
:101DE0000B480CF058FF5CB1BFF35B8F094B53E815
:101DF000001F013943E80012002AF8D1BFF35B8FBE
:101E000005480FF0DDFD0548BDE8104009F086BC2F
:101E1000C01E0020C41E0020F01900206C08002005
:101E20000020064BBFF35B8F014653E8000F43E8E9
:101E30000012002AF9D1BFF35B8F7047C01E00204B
:101E400070B5FFF7EDFF084C084E0546B44200D3CD
:101E500070BD63685B792BB123685B6813B1294659
:101E6000204698471034F1E7E4250100F4250100ED
:101E700010B5044C044920460CF08FFC034B1C6049
:101E800010BD00BF54070020F8290100B81E002033
:101E90000E4A0F48002310B513700E4A13600E4A05
:101EA0004FF400411360FFF77BFFFFF7E1FF00F005
:101EB0006DF90A4B0A4918468B4200D310BD1A1A15
:101EC0005C681211013222711033F5E7252A0020D7
:101ED00093EC0000C01E0020C41E0020E425010079
:101EE000F425010001460022014800230CF076BCD5
:101EF0005407002001480CF00FBD00BF540700201C
:101F0000024B014618680CF062BD00BFB81E0020ED
:101F100001480CF097BD00BF540700202DE9F041A7
:101F2000364B1878002866D0FFF7E4FF04460028F7
:101F30005DD1334B334C1B68002B19DD0FF0ECFCEB
:101F40004FF47A72A0FB020302FB0131C30BD4E908
:101F5000002043EA41439B1A4FEAD13140F2E93273
:101F600061EB0001934271F1000101D3FFF768FFBB
:101F7000D4E9003213F57A7342F10002C4E9003269
:101F8000BDE8F041FFF7C4BF6B685B793BB12178D6
:101F90004B0717D52B6821461B68284698471035F4
:101FA0004545F1D32046FFF7ABFFBFF35B8F164BE0
:101FB00053E8001F013943E80012002AF8D1BFF3AB
:101FC0005B8FB6E720462688C1F3C20700F0A2FA6D
:101FD000C6F382160246002EDCD00028DADB01238D
:101FE0003946284600F082F9B042D8D3D2E7074DEF
:101FF000DFF81C80D4E7BDE8F08100BF242A002070
:10200000C01E0020E8190020C41E0020E4250100A5
:10201000F425010070B50D4D297861B90120FFF755
:102020006DFE0B4C0B4EB44206D3FFF777FF002832
:10203000FBD101232B7070BD63685B791BB12368F2
:1020400020469B6898471034EDE700BF252A002002
:10205000E4250100F425010000212DE9F0470846A0
:10206000FFF74CFE044658B340F267684FF0000992
:102070000FF07AFF1B4B1C4A1B58136033B11B4BEC
:102080001B68002B02DD1A4809F048FB194FDFF8E6
:1020900060A0002544B12046FFF7CAFD044618B9E8
:1020A0004FF0FF384FF0FF39FFF738FF064628B9E9
:1020B000B5B942464B46504609F064FB3546E9E760
:1020C0004FF0FF384FF0FF39D2E72B689B691BB107
:1020D00000221146284698471035BD42F5D3E8E75F
:1020E000054DFAE708000000BC1E0020C41E0020B9
:1020F0006C080020F4250100E425010010B50F480C
:102100000CF0C9FD0E4B1B786BB1EFF3118420234B
:1021100083F31288BFF36F8FFFF700FF84F31188FA
:10212000BFF36F8F10BD074B1B68002BFAD0002840
:10213000F8D10548BDE8104009F0F0BAC41E0020EF
:10214000252A0020BC1E00206C08002010B5064B7C
:102150001B68044698472146A06004480CF0BDFB6C
:10216000BDE81040FFF7CABFB404002054070020A8
:10217000044A054B9B1AB1EBD30F34BF52F8310020
:1021800000207047F4240100E42501000B480C4BAB
:1021900030B51B1A0B4CDB0800210430994200D1EA
:1021A00030BD10F83120256802F0070225F0070540
:1021B0002A4344F8042B0131F0E700BFF424010066
:1021C000E425010090070020F8B50B4F0B4DED1BE7
:1021D0000646ED080024AC4203D14FF0FF34204600
:1021E000F8BD57F8340020B13146FEF711FC002845
:1021F000F5D00134EFE700BFF4240100E42501002D
:1022000000282DE9F047884615461F461DDADFF8FD
:102210009890264E4FF0000AA6EB09063609544660
:10222000B24509F1100902D12046BDE8F08759F8FE
:102230000C0C3B4600792A464146FFF7E1FF8442F9
:1022400038BF04460AF1010AEAE7194B194AD21AC3
:10225000B5EBD20F26D203EBC5031C79BC4228BFD5
:102260003C46154EC0B200EB400056F82530072220
:10227000824023EA020304F0070282401343002154
:10228000032223FA02F000F00700814202F1030268
:1022900038BF01461E2AF4D123F007030B4346F84A
:1022A0002530C1E70024DCE7E4250100F425010026
:1022B000F4240100E425010090070020F8B5094D41
:1022C000094BED1A06460F46ED080024AC4200D338
:1022D000F8BD002122B23B46304601340CF0FBFC35
:1022E000A4B2F3E7E4250100F424010070B14168D1
:1022F000097973B1002A17DBCBB20C4951F82200DF
:1023000003EB4303D84000F0070070474FF0FF3164
:10231000EFE707490748401AB2EBD00F3ABF01EB8D
:10232000C2010879184670470420704790070020C2
:10233000F4240100E42501002DE9F04F8FB004AF33
:10234000C1F34A28B8600D4691467B600C0DB8F188
:10235000000F69D0002607F114034FF0040B4FF073
:102360000A0AC7F80C80C7E907667E620193CDF8B8
:1023700008B0CDF800A007F11C03F96832464846C2
:10238000FFF724F9B0F5006F034622D32B4803680A
:1023900013F0060F19D06C468AB0D9F8041004ABBC
:1023A000274D5D61274DC3E9065140F2FF71196267
:1023B0001A4640F201319984234B42F8103F4FF402
:1023C00032513346FFF7B8FFA5462C37BD46BDE86E
:1023D000F08FC0F30A0804F11700184420F007003A
:1023E00080083B60FFF77EFD68F35325044690B1FB
:1023F0003B68164AC7E9083600F1100107F11403DB
:10240000F961CDE900A3CDF808B0F96807F11C0324
:102410004846FFF7DBF868F353257B68B9682A461E
:1024200020460CF088FCD0E704F1170020F00700EC
:102430008008FFF757FD0446EDE700BFD0070020F6
:10244000D63101006F3201000500000109ED0000E6
:102450002DE9F04F87B002AFD7E91069BD6B796005
:102460000446934698464EB3C7F80C90CDF80090BA
:10247000FA6B334610210020FEF7D6FEB0F5006F50
:1024800082461CD32048036813F0060F12D06C4616
:1024900088B002AA1D4B53611D4B936140F2FF733C
:1024A000D361042342F8103F00234FF40251FFF799
:1024B00043FFA5461437BD46BDE8F08FB24605F18F
:1024C0001700504420F0070004F007048008FFF7CD
:1024D00009FD0BF0070BE40044EA8B1444EA4A249C
:1024E00044EA0554054640B13EB1CDF80090FA6B80
:1024F000334651461030FEF797FE79684346224630
:1025000028460CF018FCD5E7D0070020193201004E
:1025100055320100406820B1034BC01A40F38F00D0
:1025200070474FF0FF307047900700200EB403B59E
:1025300003AB014653F8042B0448019302F0CAFC94
:1025400002B05DF804EB03B0704700BF9FED0000E0
:10255000CA0605D48B064CBF02490349FFF7E6BF04
:10256000704700BFA23601001F3301002DE9F04F74
:1025700089B09B46149B06939DF84CA0159B059330
:10258000169B179E049304460D469046BAF1000F21
:1025900000F09D8006F4807307930CF09AFB06F020
:1025A0000209024600283ED091492046FFF7BEFFAF
:1025B0000746B9F1000F08D016F0440F35D18D4908
:1025C0002A462046FFF7B2FF074406F0010353B145
:1025D000894B8A4953F82A20894B2046002A08BF94
:1025E0001A46FFF7A3FF06F48073002B49D006F0CC
:1025F0000803002B63D1B8F1000F66D08149424631
:102600002046FFF793FF0546069B3D44002B6DD106
:10261000049B002B73D1F30700F1E4803146204680
:10262000FFF796FFD8E00746C3E7774B1868002806
:10263000CAD0764B4FF47A791B68B5FBF3F54FF4AB
:102640006163B5FBF0F100FB115509FB05F54FF097
:102650003C0CB1FBF3F203FB1211B5FBF0FEB1FB36
:10266000FCF300FB1E550CFB131109FB05F5009153
:10267000B5FBF0F56649CDE901E52046FFF756FFC9
:10268000A2E706F00803EBB1624B634953F82A2036
:102690002046FFF74BFF0546B8F1000F05D059491A
:1026A00042462046FFF742FF0544BBF1000FABD086
:1026B0005A495A462046FFF739FF0544A4E74FF030
:1026C000000BE1E706F00805E6E745469CE7BBF1AD
:1026D000010F069B06D1002B64D1049B002B7BD0FD
:1026E00000250CE0002BF8D04D485CE04D48069BDF
:1026F0004D4922460BF0DAFE049B002B68D0DFF830
:102700002C81DFF82C91049F3146102F204628BFE2
:102710001027FFF71DFF4FF0000B5D4545DC059BC3
:1027200049461A782046FFF701FF4FF0010B1BF0D6
:10273000070F03D141462046FFF7F8FE5F453BD91E
:10274000059B494613F80B202046FFF7EFFE0BF1DF
:10275000010BBBF1100FEAD1364920464FF0000BB8
:10276000FFF7E4FE5A46059B9A5CA2F120015F291F
:1027700028BF2E2230492046FFF7D8FE0BF1010B6F
:10278000BBF1100F1DD01BF0070F03D141462046AF
:10279000FFF7CCFE5F455A46E5D841462046FFF795
:1027A000C5FEEBE71F485546A1E741462046FFF727
:1027B000BDFE0BF1010BB0E720492046FFF7B6FE46
:1027C000C5E7059B3B440593049BDB1B04939AD10F
:1027D000BAF1000F7FF41FAF204609B0BDE8F04FFB
:1027E0000CF0D0BA064A05492046FFF79FFE15E7D0
:1027F0001B3A0100933201001C2A0100DE40010057
:102800008E320100B8320100D01E0020CC1E002004
:102810009C320100302A0100BC320100C2320100AA
:10282000D5ED00009FED0000D54E0000CF32010035
:10283000C7320100D1320100D3320100CD32010094
:1028400073B542F20F738B4228BF0B4605680F4ADF
:102850000446052168460AF09FFB63680C495B68E3
:102860000646042228460CF07FFA63683246694621
:1028700028465B680CF078FA636806495B681722A3
:1028800028460CF071FA02B070BD00BFB0520100D2
:10289000EE320100D6320100074A002101239042A6
:1028A00006D8064A01B901231360054B186070472A
:1028B00040085B000121F2E740420F00CC1E0020DF
:1028C000D01E0020014B002019607047E81E002038
:1028D00007B500230093084A08494FF480530120AC
:1028E00008F0F8FB064B01221A70064B064A1A60E4
:1028F00003B05DF804FB00BF402B00200333010050
:10290000262A0020F41E0020292A00200148FFF773
:1029100097BF00BF602A010010B5064B18680C462F
:10292000FFF738FA21460346BDE8104002480E2260
:10293000184700BFE81E0020602A0100F8B5094DC5
:10294000094B0A4ED5E9004701221A700CB92C60D8
:10295000F8BD214630463A4600F01EF8241A0644D7
:10296000F4E700BFDC1E0020272A0020282A0020D0
:1029700010B9074B18707047064B1B781BB142F219
:1029800010700EF00EBD4FF4A47000210EF0FFBECB
:10299000262A0020272A00202DE9F74F524F0190C8
:1029A0003B780C4643B9514F8246019B23449A45DC
:1029B0002BD324EAE4700CE04D4E01250199224608
:1029C000012008F0E9FAA8B1012333703B7843B93C
:1029D000204603B0BDE8F08F2846FFF7C9FF6F1E01
:1029E0003D46012008F06CFB0028F1D03378002B25
:1029F000F2D1EDE73378002BEAD0013D2846FFF70E
:102A0000B7FF3378002BD9D1E2E71AF8012B3B68E6
:102A10000A2A61D1374DDFF8E0905A1B012A04BF22
:102A200001333B60D7F80080D9F800B00D2308F8D7
:102A3000013C08F101020A23BBF1000F3A6088F85B
:102A4000003029DD2D4B196831BB2A495E46632EC3
:102A5000A2EB050201F11700A8BF63260FF09CF955
:102A6000274A2449254B02F1140052F804CB41F8BF
:102A700004CB8242F9D1108892788A7008F118024A
:102A80000880BBF1090F3A604FF001021A6011DCB7
:102A9000202330366B752E753A681649521B01207B
:102AA00008F07AFA90B9D9F800300133C9F800304B
:102AB0003D607AE70A22B6FBF2F302FB136630337D
:102AC00030362B753E236E75EB74E5E70B4A002319
:102AD000C9F800301360EBE70A498B423EBF591C2E
:102AE00039601A7061E700BF272A0020F41E002019
:102AF000262A0020292A0020F01E0020EC1E00209B
:102B00000A330100282B0020014B0360002070478E
:102B1000702A010010B504460DF07BFB0349024604
:102B200020460CF0AEFA002010BD00BF4933010072
:102B300073B5134600220192044601AA58680A217F
:102B400000F054FE019D95B920EAE0744FF4004670
:102B5000294640F2E7304FF47A720023C4FB0601A5
:102B6000FDF73CFF0EF013FE284602B070BD2A466A
:102B7000024920460CF0A1FA019DF5E775330100EA
:102B800008B5034A03490CF07CFA002008BD00BFD9
:102B9000653401006C340100F7B517460023054683
:102BA00001AA0A21B868019300F020FE1749C6B2B5
:102BB00028460CF074FA019C44B122461449284678
:102BC0000CF07BFA019C204603B0F0BD042E09D91D
:102BD0001049324628460CF070FA28460CF07BFA71
:102BE0000124F0E77868FFF7EFFA021E07DA7A6847
:102BF000094928460CF061FA6FF01504E3E7334603
:102C000012B2214620460CF066F8DCE78F34010052
:102C1000F53401001C3501003335010007B50023F0
:102C20000090694604488DF8043009F019FD9DF8BC
:102C3000040003B05DF804FB6BEE000010B5044621
:102C400005F012FD0749024620460CF01AFA20460C
:102C500005490CF016FA0548214609F01BFD002035
:102C600010BD00BFC5350100E4350100712C000026
:102C700070B58EB004460D46D0F8A8600EF0DDFCAD
:102C800003460FF071F9214A21491058214A002BBF
:102C900018BF1A460092204A2346844218BF0A46AB
:102CA00028461E490CF0EDF9D4E90A23CDE90023AA
:102CB000284694F90E30227B19490CF0E2F906A956
:102CC0002022204608F044FF236F1649024628467A
:102CD0000CF0D7F905A920460EF0BDFC024628B13C
:102CE000114928460CF0CDF90EB070BD059B642249
:102CF000F11A4A430091B2FBF6F20C49CDE90162A8
:102D0000284632460CF0BDF9EEE700BF080000008F
:102D1000CF320100EE350100813F0100F1350100A5
:102D2000FD35010029360100403601006D360100F5
:102D3000F0B5002591B00446294608AF1C2209A829
:102D40000FF044F8134E1A22202138460FF03EF8B7
:102D50002146114809F09EFC07AA4FF480513046E5
:102D60000EF06DFC079A0097C2F5805164234B4327
:102D70001B0B05934FF48053CDE90313CDE90132CA
:102D8000204606492B46A6F140020CF07AF9284667
:102D900011B0F0BD40740020A12D0000BE3601002E
:102DA00070B50446D0F8A86088B00D4607A90EF0AB
:102DB00052FC024628B10F4928460CF062F908B0CF
:102DC00070BD20460EF039FC079B0096F11ACDE944
:102DD0000131094B64224A43002818BF0346B2FB65
:102DE000F6F20649CDE90362284622460CF049F97D
:102DF000E5E700BF40360100EE350100073701006E
:102E000038B5134605461022586800210AF0F0F83C
:102E10000446FFF703FF38B90E49224628460CF056
:102E20004CF96FF0150038BD0FF09EF80A4B1B5897
:102E30009C4204D1094928460CF03FF9F1E72046AD
:102E400009F04EF82846064922460CF01AF90020EF
:102E5000E9E700BF6B37010008000000863701007A
:102E6000AE37010038B513460546102258680021D8
:102E70000AF0BEF80446FFF7D1FE38B90E492246E3
:102E800028460CF01AF96FF0150038BD0FF06CF8F9
:102E90000A4B1B589C4204D1094928460CF00DF9F5
:102EA000F1E7204609F03AF92846064922460CF097
:102EB000E8F80020E9E700BF6B37010008000000D8
:102EC000ED3701001338010038B5134605461022CE
:102ED000586800210AF08CF80446FFF79FFE38B9C5
:102EE0000E49224628460CF0E8F86FF0150038BD70
:102EF0000FF03AF80A4B1B589C4204D10949284666
:102F00000CF0DBF8F1E7204601F0F4FC2846064916
:102F100022460CF0B6F80020E9E700BF6B3701004D
:102F200008000000473801006C38010007B5064A68
:102F300006481268042300930021012300F016FBC9
:102F4000002003B05DF804FBC42A0100F425010051
:102F500037B544680A49226004F108052364002259
:102F600028460EF021FD41F69A12E463002328461C
:102F7000CDE9002309F084FD002003B030BD00BF7F
:102F800097EE000010B9034B18707047A420002181
:102F90000EF0FDBB403B00202DE9F84F164ED0F857
:102FA00004B0884614461D4604270EF0EDF922466B
:102FB00082464146002007F0EFFF814650460EF062
:102FC000EBF9B9F1000F0BD001233370DBF80030BF
:102FD000DBF84010012098472C600020BDE8F88FF6
:102FE0003378002BF2D0013F3846FFF7CBFF337820
:102FF000002BDAD1EAE700BF403B002010B5836820
:10300000D3F86C32DB07044616D4406803685B686B
:103010009847014608B9A3681871A3685B6B0BB1A8
:1030200020469847A3680EF09FFF0022C3F88C2229
:10303000034B185801F05EFC6FF00F01EDE700BF85
:103040000800000010B581680446083100F088FDD2
:10305000A168034A20460831BDE8104000F018BDC1
:10306000B43801000EB403B5044904AA019200F07B
:103070006FFB02B05DF804EB03B07047A2360100AD
:1030800010B5836802221A718268936B0446EBB90B
:1030900082F84A308268A2F846308268A2F844304A
:1030A0008368D3F86C32DB040BD50321084B094A43
:1030B0000CF05FFAA0686FF4805100F51B700BF004
:1030C0000DFF2046BDE8104000F0A4BC10BD00BFBD
:1030D000C2380100DE4001002DE9F04FA5B00446E2
:1030E000542200210FA80EF071FE00230493A36860
:1030F00020464A3303930CF0CFF920460CF07AF9BE
:1031000018B981496069FFF7ADFFA0680027142254
:10311000002108300EF05AFE0DF13C0B4FF0FF3845
:10312000B9463D4602973E46BA46049B012B00F045
:103130009C80142D40F09580022B40F09680734BBC
:10314000734A01210FE05946039A022304A80CF0A8
:1031500034F804995BF8042F0392034631B1012936
:103160000AD148B16B4A20460CF003FA6FF007050C
:10317000284625B0BDE8F08F2DB35BF8040C00F0B5
:1031800021FD98B167B1A5680B9708350AAE0FCE3F
:103190000FC533682B602046FFF754FF0125E7E792
:1031A0005D4A012120460CF0E4F9DFE7029BC3B140
:1031B00008F1FF38FEB9049BB8F1000F01D1022BD2
:1031C000B3D10135B1E7029B5BB108F1FF3896B985
:1031D000A368DB69002B3BD0DB68002B38D00026CE
:1031E00033E05BF8041C05AA50460CF0B6F808F171
:1031F000FF38064638B3F368ABB1A368B64603F1AF
:10320000080CBEE80F00ACE80F00DEF80030CCF888
:103210000030B36833B9737CFE2B04BF96F810807E
:1032200008F1FF38A946D6F804C0BCF1000F08D059
:10323000B646BEE80F000AAF0FC7DEF800303B60AD
:103240006746B246B7E7002DC2D001230293B2E72A
:10325000324B0093324A0F9B012120460CF089F932
:10326000BDE7B8F1000F7FF46EAFBAF1000F0AD0DE
:103270009AF81130FE2B06D124AB03EB850353F8EB
:10328000543C03B10135A068436953B9002F3FF4A2
:103290006DAFC368BB423FF47EAF0B9700F10805EA
:1032A00074E7037EA5EB0905B3B1417E4FF6FF72CB
:1032B000FF2918BF0A469D4202D313449D420BD9F1
:1032C0008368184A012120460CF053F92046FFF785
:1032D000B9FE6FF015054BE701210BF01FFEA0684A
:1032E0000BF010FEA3680FAA29465B6902EB890266
:1032F000204698470546A0680BF008FEA06800210C
:103300000BF00CFE34E700BFA23601005239010079
:1033100078510100063901001A3901003E390100D7
:1033200038390100763901002DE9F041ADF5805DB5
:1033300082B00023044601930DF10305A368606881
:10334000D3E90E7803681E6901AB27B34FF48052AE
:1033500002A9B047019BCBB10121A0680BF0DEFDB3
:10336000A0680BF0CFFD4346019A02A92046B8475A
:10337000A0680BF0CBFDA06800210BF0CFFDA36887
:103380009B6B002BDAD12046FFF77AFE0DF5805DAE
:1033900002B0BDE8F08101222946B047019B002B15
:1033A000F4D09DF903209DF80330A068002AC5DB06
:1033B0004279032A00F28380DFE802F0027B8381F6
:1033C0000D2B41D00A2B22D0B0F86C22092B6FF3C1
:1033D000CA02A0F86C224CD008D8002B4CD0082B85
:1033E000A0684DD00246D2F8683245E01B2BA06899
:1033F0003CD07F2B4ED0203B5E2B0246F3D80BF007
:103400007CFD9DF80310204600F0CCFA34E0D0F8A3
:103410006C22C2F3C7022AB1D0F86C22C2F3C702F1
:103420000A2ADFD1B0F86C2263F3CA02A0F86C223A
:10343000A668B6F844309BB94B496069FFF712FEA5
:103440002046FFF71DFE79E7D0F86C22C2F3C702D1
:10345000002AE7D0D0F86C22C2F3C7020D2AE0E7B9
:103460002046FFF739FEC6F89002E9E701234371D1
:1034700002E0A368D3F8683260690BF03EFE5DE7B6
:10348000D0F868329F07F7D50BF037FD20460CF0D7
:10349000D7F8F1E7D0F868329E07EDD50BF02DFD97
:1034A000A368D3F868321807F0D420460CF0A9F8C6
:1034B000E2E75B2B01D10223D9E7D0F86832002381
:1034C000D5E700224271A268D2F8681289077FF519
:1034D00035AF342B0AD8302BCED90321323B517172
:1034E000022B2DD8DFE803F0303A2800433BDAB254
:1034F000092AC1D8092BBFD801A252F823F000BF76
:1035000029350000313500007934000039350000DC
:10351000793400004135000079340000793400002E
:10352000793400004935000020460BF0C7FFA3E7BF
:1035300020460BF0BAFF9FE720460BF0ADFF9BE75C
:1035400020460BF0A2FF97E7A068D0F8681201F0C0
:10355000010181F001010BF0ECFC8DE7A368D3F8C9
:1035600068329B0788D5A0E7A23601002DE9F04319
:1035700004468068D0F88C9289B00F4615461E46E6
:10358000B9F1000F5CD1904649464FF425720EF018
:103590001DFCA06800F51C700EF08FFAA06800F505
:1035A0001F70012211460DF0A5FFA369C3F800901A
:1035B000A068022100F51B700BF081FCA36850226B
:1035C0005A85A36818221A85A36822681A60D4F85D
:1035D0000890D9F8000010B1FDF724FA80B289F8FC
:1035E0002C00A368184A25F0360565F30708C3F8D0
:1035F00068826068036839461D682346A847054607
:10360000D0B9A36801221A71D4E90A01002200236B
:10361000CDE906230E230393109B0495CDE90163A6
:1036200000940A4B4FF4805208F052FBA368C3F891
:103630008C02616A08F07CFA284609B0BDE8F08384
:103640006FF07705F8E700BF89EF000099360000BA
:1036500010B5044680680379012B17D140F26762E8
:1036600000230BF0ABFC10B96FF00F0010BD09493F
:103670006069FFF7F7FC2046FFF702FD20460BF0DC
:10368000F2FFA0680BF03EFC0020EFE76FF0850032
:10369000ECE700BFA23601002DE9F3410446806843
:1036A000154600F51B70002935D04FF480410BF012
:1036B00006FCA3681D646068036800219B68984746
:1036C00070BB2046FFF7C4FF50BB174DDFF85C808E
:1036D0004FF0FF364FF0FF37A06800F51C70002256
:1036E0000721CDE900670EF0F4F9A0680BF00EFC9D
:1036F0002A46042120460BF02BFC2046424601219D
:103700000BF026FC606803685B6903B19847A0680A
:103710000BF0F8FBE0E76FF480410BF0DFFBC8E74C
:1037200002B0BDE8F08100BFFD2F0000CFEF000028
:1037300010B5054904460BF0A4FC2046034A0021BD
:1037400000F0A6F9002010BD91390100E539010013
:1037500010B5044613460A460146064801F0BAFB76
:1037600023691B7923B12046BDE810400BF0C5BC8E
:1037700010BD00BF13F1000038B50B46154648B91F
:103780001449154A521AB3EB920F05D251F823503F
:10379000284638BD84680CB90025F9E70F4A9442E1
:1037A0000AD30F4A944207D2184622682946904706
:1037B0002B68002BECD1EFE70A4A944202D30A4A65
:1037C000944205D3246814225343E518E358F0E7E4
:1037D0000133F8E7242601003426010060270100A8
:1037E000602701003426010060270100F7B5037847
:1037F0002D2B0446164605D16FF0150333600020CB
:1038000003B0F0BD0EF0B0FB0B4F00230546C351D3
:103810000A46204601A909F0EBFBEB59222B02D105
:103820006FF02103EAE7002BE6D1019BA342E3D02E
:103830001B78002BE4D0DFE70C00000001490BF0FF
:10384000B7BD00BFA23601002DE9F0478568DFF85B
:103850006890044605F14A00FDF7E4F8002395F866
:103860002C7086B29846A268558DED1BB54209DBD7
:10387000002E1FDD4A3360691049BDE8F0471A4445
:103880000BF096BD1D442A444A3392F84AA082F8B0
:103890004A80A26860691A4449460BF089FDA36812
:1038A0002B4483F84AA0A3685B8DDB1BF61A002724
:1038B0002B46D8E7BDE8F08778510100DE400100D3
:1038C0002DE9F84FD0F80890D9F86832B9F8466079
:1038D0005B0705460F46904624D506F14A0048444A
:1038E000FDF7A0F82C4E0446B4B9AB68B3F84420F9
:1038F000A3F84620A8680BF068FD30B1B8F1000FBE
:1039000000D017B16869FFF799FF7942284609B2DC
:10391000BDE8F84F0BF09ABD686931460BF048FDE1
:10392000013CE1E7D9F80000B9F844A010B1FDF777
:1039300079F880B2B9F82A3082448419B4FBF3F2E2
:10394000BAFBF3F39A42B3461CD0144EAB6854450D
:10395000CBDA5A8DB4FBF2F302FB134304F10109F5
:1039600013B96869FFF76AFFAB685B440BF10104A8
:1039700093F84A30324608212846A3460BF0F9FD59
:103980004C46E3E74A36064A09EB06030821284677
:103990000BF0EFFDA9E700BF813F0100D33201002A
:1039A000DE40010013B583688DF80710D3F8682254
:1039B0000446D00725D5B3F84610B3F844208A4210
:1039C0001FD0481CA3F846000B449DF8072083F83D
:1039D0004A20A368D3F86812890710D5D3F8683253
:1039E00060690B4913F0040F18BF2A220BF0E0FCAA
:1039F00020460BF0FFFC10B16069FFF71FFF02B01B
:103A000010BD01220DF1070120460BF0C0FDF6E7C5
:103A1000D332010010B58368094A1B6804460221AD
:103A20000BF0A7FDA368D3F868329B0707D52046A3
:103A3000FFF70AFF2046BDE810400BF0F3BC10BDB5
:103A4000DE40010001490BF023BE00BFA236010099
:103A5000F8B50F465168044615461E4611B11A4680
:103A60000BF023FEAB6883B1314620460BF0C1FC5E
:103A70002046064A3B4608210BF07BFDA968F21D53
:103A80002046BDE8F8400BF010BEF8BD143A010026
:103A90002DE9F04F0F46002189B0044616460D4629
:103AA00003AA384601F10108FFF766FEA8B98DB1F7
:103AB00026B13246082120460BF05BFDDFF89090DE
:103AC000DFF890B0002103AA384601F1010AFFF7A0
:103AD00053FE60B909B0BDE8F08F006810B1FCF783
:103AE000A1FF80B2854238BF05464146D8E7D0F8ED
:103AF0000080B8F1000F0FD098F8003063B146682D
:103B0000154ACDE900584B46082120460BF031FDFF
:103B100026B96069FFF796FF5146D4E74B465A46EF
:103B2000082120460BF025FDAB1DB2079BB209D141
:103B300031680A4A914205D1324641462046FFF794
:103B400087FFE9E71A46314620460BF0AEFDE3E772
:103B5000393A0100C23201001F3A0100C40BD2867B
:103B6000F7B50F6805460E46EFB13846FCF75AFF29
:103B700084B2114B009308213B46104A28460BF0B3
:103B8000F8FC7168E31C9BB279B18A070DD1086813
:103B90000B4A904209D10A463168284603B0BDE875
:103BA000F040FFF755BF3C46E3E71A46284603B00E
:103BB000BDE8F0400BF079BD353A0100263A01002E
:103BC000C40BD28610B507490446FCF721FF38B173
:103BD00005492046FCF71CFFB0FA80F0400910BDF3
:103BE0000120FCE72B3A01002E3A010008B50448F9
:103BF0000AF0B6FC03480AF0B3FC002008BD00BF81
:103C0000423A0100773A0100014809F01DB800BFAF
:103C1000082B010038B5044618B90F4B0F485B68F4
:103C200098476168B1F5683F10D0B1F5680F0DD0C5
:103C30000B4DA9420AD011F46861206807D00146F3
:103C400008480DF005FC00232360656038BD142290
:103C50000EF0BCF8F9E700BFD4060020A53A010039
:103C60002C5F5CA99026002008B520B34368B3F50B
:103C7000683F10D101220368BFF35B8F53E8001F38
:103C8000002903D143E800200028F7D1BFF35B8F60
:103C90000DD1002008BD094A93420AD000684FF0B8
:103CA000FF324FF0FF3307F071FC0028F1D00448D9
:103CB000F0E70448EEE76FF4E040EBE72C5F5CA927
:103CC000E98FFFFFEA8FFFFF08B5D8B14368B3F56E
:103CD000683F10D100220368BFF35B8F53E8001FD9
:103CE000012903D143E800200028F7D1BFF35B8FFF
:103CF0000BD1002008BD074A934208D0006807F0A6
:103D0000BDFCF6E76FF4E040F4E70348F2E7034850
:103D1000F0E700BF2C5F5CA9E98FFFFFEA8FFFFF90
:103D200010B5044618B91D4B1D485B689847636879
:103D3000B3F5683F2FD0B3F5680F2CD0194A9342E2
:103D400019D1236803BB18484FF0FF324FF0FF33FF
:103D5000214607F0EDFB08B923681BB90F4B134848
:103D60005B6898472068142200210EF02FF84FF46A
:103D70006863636008E0B3F5683F0DD83A2B03D061
:103D800040F6BA629342DED120680DF0ACFB636866
:103D900043F03A03636010BD054AF3E7D406002000
:103DA000A53A01002C5F5CA990260020CB3A0100C7
:103DB0003A00003A08B506490648402314220DF09F
:103DC00039FBBDE808400449044808F0AFBF00BF14
:103DD0009021002090260020102B0100242B0100B0
:103DE00008B50348034A0021121A0BF0CCFC08BDA9
:103DF00080080020745B00200748084A084908B57D
:103E0000121A0BF0C2FC0748074A0849BDE80840EF
:103E1000121A0BF0BABC00BF000000207C08002082
:103E2000945501000000002000000020945501007E
:103E30002DE9F047054600AF0C46002963D0DFF8B6
:103E400008A1DAF800305A075DD06E468AB0D1E991
:103E50000001A3686A46DFF8F480DFF8F4C0C2F816
:103E600014C04FF00609C2E90680C2E9081342F8FF
:103E7000109F00234FF441515046FEF75DFADAF8E7
:103E800000305B07B5463ED08AB0D4E903016369D0
:103E90006A46DFF8C0C05362C2E905C8C2E907013B
:103EA00042F8109F002350464FF44151FEF744FA68
:103EB000DAF800305807B54625D088B0E3696A467D
:103EC0002549D3614FF00409C2E9051842F8109F53
:103ED00000234FF401515046FEF72EFADAF8003075
:103EE0005907B5460FD088B0A3696A461B49D3610C
:103EF000C2E9051842F8109F00234FF401515046C3
:103F0000FEF71AFAB546012D17D1EFF305830E48D7
:103F10000268520711D06E4688B06A461049516156
:103F2000103BD3610F499161042342F8103F0023F5
:103F30004FF40151FEF700FAB5462146284607F036
:103F40002FF9BD46BDE8F087E0070020BA3B01002D
:103F5000F83A01002B3B01005E3B0100713B010080
:103F6000A33B0100C33B010030BFFFF7FDBF00BF13
:103F70002DE9F0410B4EDFF8308006EB0807CC1B33
:103F800005463246094920460DF0F8FEA019424682
:103F90000021083C0DF01AFFC5F8B44007F10800F5
:103FA000BDE8F0810000000008000000602701006B
:103FB000054B5A699B689A421FBF044A536843F0F5
:103FC00080535360704700BF0828002000ED00E0D8
:103FD0002DE9F041694C23680646580700AF0D46AD
:103FE0000FD0E84688B06A46654B5361654B9361D4
:103FF000032342F8103F4FF4C25120460BF0D2FB8E
:10400000C546614B9B6AD90440F19D8023685A07DD
:104010000FD0E84688B06A465C4B5361594B9361B8
:10402000032342F8103F55484FF4C2510BF0BAFB3E
:10403000C5461720544B9B6A1B0513D523685807A8
:104040000FD0E84688B06A46514B53614D4B93619F
:10405000032342F8103F49484FF4C2510BF0A2FB32
:10406000C5461820484B9B6A990532D523685A07E4
:104070000FD0E84688B06A46464B5361414B936186
:10408000032342F8103F3D484FF4C2510BF08AFB26
:10409000C5463D4B996B9B6A1B0419D5236858078D
:1040A00010D0E84688B06A463B4B5361354B3348E5
:1040B000C2E90631042342F8103F4FF401510BF0DE
:1040C00071FBC54626B1304A936A23F400439362DC
:1040D00019202D4B9B6A5A0513D523685B070FD017
:1040E0006E4688B06A462D4B5361264B936103237D
:1040F00042F8103F21484FF4C2510BF053FBB54634
:104100001A20214B9A6AD6051FD5236859070FD06C
:104110006C4688B06A46224B53611A4B9361032365
:1041200042F8103F15484FF4C2510BF03BFBA54637
:104130001B20154A936A43F47F43936200232B703C
:10414000BD46BDE8F081162074E79B6A9A04F0D55D
:1041500023685B070FD06C4688B06A46114B5361E9
:10416000084B9361032342F8103F04484FF4C251B7
:104170000BF018FBA5461C20DBE700BFE007002082
:10418000D53B0100B03F010000ED00E0EF3B010036
:10419000043C01001B3C0100383C0100513C010083
:1041A000703C01008C3C0100B0B5584C23685D07A1
:1041B00000AF0FD06D4688B06A46554B5361554BE2
:1041C0009361032342F8103F4FF4C25120460BF095
:1041D000E9FAAD46504B9B6A980140F195802368FF
:1041E00059070FD06D4688B06A464C4B5361494B16
:1041F0009361032342F8103F44484FF4C2510BF03F
:10420000D1FAAD461E20444B9B6ADA0113D52368D0
:104210005B070FD06D4688B06A46414B53613D4BFA
:104220009361032342F8103F38484FF4C2510BF01A
:10423000B9FAAD461F20384B9B6A1D0313D523687E
:1042400059070FD06D4688B06A46364B5361314BE3
:104250009361032342F8103F2C484FF4C2510BF0F6
:10426000A1FAAD4621202C4B9B6A5A0313D5236833
:104270005B070FD06D4688B06A462B4B5361254BC8
:104280009361032342F8103F20484FF4C2510BF0D2
:1042900089FAAD462220204B9B6A9D0313D52368E3
:1042A00059070FD06D4688B06A46204B5361194BB1
:1042B0009361032342F8103F14484FF4C2510BF0AE
:1042C00071FAAD462320144B9B6ADA0313D5236899
:1042D0005B070FD06C4688B06A46154B53610D4B97
:1042E0009361032342F8103F08484FF4C2510BF08A
:1042F00059FAA5462420084A936A6FEA03436FEAF5
:1043000013439362BD46B0BD1D207CE7E00700204B
:10431000BF3C0100A43F010000ED00E0DB3C0100D8
:10432000F23C0100103D0100323D01005B3D010007
:10433000793D01002DE9F0476E4D2B688A465907FB
:1043400000AF814690460FD06C4688B06A466A4BF3
:1043500053616A4B9361032342F8103F4FF4C251FB
:1043600028460BF01FFAA546654B9B6ADA0665D511
:104370002B685B070FD06C4688B06A46614B53616F
:104380005E4B9361032342F8103F5A484FF4C251E9
:104390000BF008FAA5461124594B9B6A1E0713D54A
:1043A0002B6858070FD06C4688B06A46564B53614D
:1043B000524B9361032342F8103F4E484FF4C251D1
:1043C0000BF0F0F9A54612244D4B9B6A990737D59F
:1043D0002B685A070FD06C4688B06A464B4B536126
:1043E000464B9361032342F8103F42484FF4C251B9
:1043F0000BF0D8F9A546424B5E6B9B6A1B0676D53F
:104400002B685C0710D06C4688B06A46404B5361FD
:104410003A4B3848C2E90636042342F8103F4FF4BD
:1044200001510BF0BFF9A546BAF1000F04D0344A90
:10443000936A23F080039362132403E01024ABE714
:104440006FF015062E4B9B6AD80713D52B685907BA
:104450000FD06C4688B06A462E4B5361274B936150
:10446000032342F8103F23484FF4C2510BF09AF94E
:10447000A5461424224B9B6A9A0613D52B685B072A
:104480000FD06C4688B06A46234B53611B4B936137
:10449000032342F8103F17484FF4C2510BF082F942
:1044A000A5461524164B9A6AD50602D49A6A900737
:1044B0000AD55B68190507D54946304600F0FAFA77
:1044C00010B180F3098802240D4B9A6A920642BF0C
:1044D0005A6A22F400525A629A6A42F0FF029A62C1
:1044E0002046002388F80030BD46BDE8F0876FF015
:1044F0001506A1E7E0070020A83D0100BA3F010032
:1045000000ED00E0C23D0100043C0100F93D010066
:10451000153E01002F3E01008C3C01002DE9F041C9
:104520009D4B8AB0D3F8048000AF0446C8F3080658
:10453000002585F31188BFF36F8F02F07F43B3F13D
:104540007F4F16D102F00C03082B26D19348036845
:1045500059070ED06C4688B06A46914B5361914B17
:104560009361032342F8103F4FF4C2510BF01AF944
:10457000A54600252C460023FB71F31E092B00F2F3
:10458000E580DFE813F00F00CB00CE00C700E300AA
:10459000E300E300E300E300D10012074CBF0C4648
:1045A0000125E8E77D4E33685B070FD0E84688B009
:1045B0006A467D4B53617D4B9361032342F8103F64
:1045C0004FF4C25130460BF0EDF8C5460023FB71A5
:1045D000714BDA6A900714D5336859070FD06E46CD
:1045E00088B06A46724B5361704B9361032342F863
:1045F000103F6A484FF4C2510BF0D4F8B54600237F
:1046000058E0DA6A002A07DA33685A07F7D06E46AC
:1046100088B06A46674BE6E7DB6A5B00EFD5336834
:1046200058070FD0E84688B06A46634B53615F4B2A
:104630009361032342F8103F58484FF4C2510BF0E6
:10464000B1F8C546544BA1695A6942F480725A6167
:10465000BFF34F8FBFF36F8F5A6931F8021C22F4FA
:1046600080725A61BFF34F8FBFF36F8F4DF60272A6
:10467000914209D09A6AD2B2002A3DD0FA1D012196
:104680002046FFF757FE47E03368590711D06E46C2
:1046900088B023686A464949516144493F48C2E9A4
:1046A0000613042342F8103F4FF401510BF07AF83F
:1046B000B5462368FA79DAB907F1080604F1200C47
:1046C00020686168324603C2083464451646F7D153
:1046D0007A6A002D5BD0C2F3080121B96FEA522239
:1046E0006FEA42227A6207F108011846FFF7A0FB41
:1046F0002837BD46BDE8F0819A6A12F47F4F04D096
:10470000F91D0120FFF764FC06E09B6AB3F5803FCA
:10471000FFF475AFFFF748FD0346CBE7FA1D002114
:10472000AEE7F91D0020EDE71C4803685A073FF487
:1047300066AF6E4688B06A46214B5361214B936148
:10474000032342F8103F4FF4C25155E71348036862
:104750005B073FF454AF1C4A1C4B18F4F87FE84643
:104760008AB018BF13466A46194951611949C2E90E
:10477000061340F201339384103E174B16624FF438
:10478000315142F8103F0BF00DF8C54637E722F4DF
:10479000FF7222F00102A5E700ED00E0E007002033
:1047A000803E0100D63F0100AF3E0100CB3F01003B
:1047B000CA3E0100EF3E0100013F0100243F01001D
:1047C000443F0100963F0100673E0100523E010058
:1047D0006C3F0100833F010005000001044B5A6952
:1047E00042F010025A615A6922F008025A61704779
:1047F00000ED00E0EFF30880EFF3098101B57246A8
:10480000FFF78CFE01BD00BF002080F31488BFF3CA
:104810006F8F134880F3088804F01CFD00201149B5
:104820000860BFF34F8F00F033F8202080F3118829
:104830000D484FF0AA014FF482520AF0A4FF0A4833
:104840004FF48251401880F30988EFF3148002215D
:10485000084380F31488BFF36F8F00F0FBF800006B
:10486000809C002094ED00E0007400200749D1F8FE
:1048700090200023C2F307221846934200DB7047C2
:10488000C1F89830C1F8A0000133F6E700ED00E070
:1048900008B572B6002383F31388FFF7E7FF144BC4
:1048A0004FF0FF32C3F88020C3F88420C3F888207B
:1048B000C3F88C20C3F89020C3F89420C3F8982044
:1048C000C3F89C20C3F88021C3F88421C3F8882151
:1048D000C3F88C21C3F89021C3F89421C3F8982120
:1048E000C3F89C2162B6BFF34F8FBFF36F8F08BD33
:1048F00000E100E0084B9B6883420BD1EFF3058396
:1049000043B1064B5A6842F080525A605A6A22F408
:1049100000425A6207F04CBD0828002000ED00E07C
:1049200015498A684FF030001044EFF3098C80E895
:10493000F01F202080F31288BFF36F8F0F4F4FF0CE
:1049400000664A698A603E60D2F8B4000C4C206070
:10495000D2F8B8000023C2F8B83080F3118804B54B
:10496000104600F00FF9BDE8044002F1300090E875
:10497000F01F8CF3098870470828002004ED00E040
:10498000AC2600201EF0040F0CBFEFF30880EFF3FD
:104990000980816911F8021C0229FFD001B5724615
:1049A0000AF0F5FE01BD00BF40B2002807DB044A53
:1049B0004109012300F01F00834042F82130704775
:1049C00000E100E040B200280CDB4309064900F09A
:1049D0001F0020330122824041F82320BFF34F8F74
:1049E000BFF36F8F704700BF00E100E0054B420945
:1049F00000F01F0053F82220012303FA00F01040BA
:104A0000704700BF00E100E040B20028A8BF00F1FD
:104A1000604001F10101B8BF064B4FEA4111ACBF44
:104A200000F5614000F00F00C9B2B4BF195480F81E
:104A30000013704714ED00E0044B054A23F07F0398
:104A40009360BFF34F8FBFF36F8F7047000000007C
:104A500000ED00E008B5FFF7EFFF074AD2F8883015
:104A600023F47003C2F88830FFF7BAF9FFF7C4F9EE
:104A700000F05EF806F0E2FC00ED00E042F8203CB9
:104A8000009B42F81C3C0A49019B42F8183C029BDF
:104A900042F8143C21F001014FF0807342F8043CCD
:104AA00042F8081C0023203A0265C0F8B83070476D
:104AB000B51900000A4A0346906878B113F1160F41
:104AC000D0F8A40005D0A0F140029A4205D8834254
:104AD00003D2814228BF002070470020704700BFEA
:104AE0000828002008B515460C4A0D4B9060D0F8F8
:104AF000B4201A600E4600F045F82C4686F309886B
:104B00000020044B98472046002100220023024C3D
:104B100020470000B9F70000B51900000828002060
:104B2000AC260020014B10221A61704700ED00E016
:104B3000044800232021C2180133302B82F80013CF
:104B4000F9D1704700E100E008B5EFF30583064AAC
:104B5000103B02EBC30152F8330049688847BDE8B7
:104B60000840FFF725BA00BF34220100024B034A78
:104B70000348012100F0BCB8000004200000002020
:104B8000342B0100D0F8A420054B403A1A60054AA6
:104B90004021C3E901121846012100F0B3B800BF5B
:104BA000B026002000000B1598B503460C4802689B
:104BB000520700AF10D06C4688B06A46094951616F
:104BC0000949C2E90613042342F8103F00234FF4B9
:104BD0000151FDF7B1FBA5466FF01500BD4698BD2C
:104BE000DC070020E23F01003340010010B40E4C0E
:104BF000D4F89030C3F30723013B984202D910BC8C
:104C0000FFF7D2BFC4F898000B6823F01F030343DB
:104C100043F01003C4F89C308B6843F00103C4F8E0
:104C2000A03010BC704700BF00ED00E02DE9F0415E
:104C300084B00E4600AF984604460025B5421FDA00
:104C40006068002835D0B8F1000F23D0411E08421B
:104C50001BD0194803685B0710D06C4688B06A46C1
:104C6000164B5361164BC2E90635042342F8103F38
:104C700000234FF40151FDF75FFBA5466FF01502CD
:104C800010461037BD46BDE8F0811F28E1D92368E2
:104C90001942DED123687B600AF0B1FDA368391D9B
:104CA0000343D0B2FB60FFF7A1FF10F1160FE5D070
:104CB000421C01350C34C1E7DC0700200C40010028
:104CC0004C400100044B0522C3F89420BFF34F8FE2
:104CD000BFF36F8F704700BF00ED00E0BFF35F8F41
:104CE000024B0022C3F89420704700BF00ED00E0A3
:104CF00010B5034C01232278FFF798FF207010BDF8
:104D00005F3B002008B50B4A00231278FFF78EFFA7
:104D100010F1160F07D0084A0021D2F89030C3F3E3
:104D20000723984200DB08BDC2F89800C2F8A01023
:104D30000130F2E75F3B002000ED00E02DE9F04399
:104D40005E485F49D0F890300D68C3F307239D4259
:104D500085B000F2B080FFF7C1FF4968002295429C
:104D600001F10C011BD1574C574F25706846FDF7D8
:104D7000CBFEDFF85881DFF8589106460025AE4299
:104D800020D123784D490020D1F89020C2F307228A
:104D90009342C0F28A80FFF795FF00204FE0C0F8F1
:104DA000982051F80C3C23F01F03134343F01003E9
:104DB000C0F89C3051F8043C43F00103C0F8A03027
:104DC0000132CCE7009800EB05114FEA051CCB68D7
:104DD0003B40B3F5000F49D00AD8B3F5001F31D0DE
:104DE000B3F5800F37D0B3F5801F13D00135C6E778
:104DF000B3F1007F43D0B3F1805F49D0B3F1807F3E
:104E0000F4D150F80C3088684A680AF0F8FC40F099
:104E1000887009E050F80C3088684A680AF0EFFCA6
:104E200040F0885040F43020039001A92078CDE96B
:104E30000123FFF7DBFE002833DA6FF0150005B021
:104E4000BDE8F08350F80C3088684A680AF0D7FC57
:104E500040EA0900E8E750F80C3088684A680AF030
:104E6000CEFC40F0007040F40030DDE750F80C302C
:104E700088684A680AF0C3FC40F08270D4E750F8B2
:104E80000C3088684A680AF0BAFC40F48020CBE70E
:104E900050F80C3088684A680AF0B1FC40EA080013
:104EA000C2E7237801332370A0E7C1F89830C1F836
:104EB000A000013368E74FF0FF30C0E700ED00E0ED
:104EC000402B01005F3B00200000F0FF00000211BA
:104ED00000000811F0B587B007460E4614460021C1
:104EE000102268461D460CF071FF02238DF8023037
:104EF0002A46054B019321466846CDE9047608F021
:104F000079F907B0F0BD00BF1FF8000008B5024BEB
:104F10001B689847002008BDBC260020034B044AAC
:104F20001860937843F0020393707047BC2600200A
:104F3000E804002008B50649064821F00701C1F140
:104F4000005202F5802209F059FA002008BD00BF86
:104F500007CD0020C0260020044A0123C2F84035B6
:104F60004FF080420020C2F87835704700E00140E1
:104F700048B1054B054A1B68B3FBF2F35843044B99
:104F800043F0010318477047C006002040420F005D
:104F900060270100BFF34F8F0549064BCA6802F432
:104FA000E0621343CB60BFF34F8F00BFFDE700BF4C
:104FB00000ED00E00400FA05142870B503460C4625
:104FC00012D80B4A12F81010D4E9000502EB430284
:104FD000A0FB01065278002301FB0561FBF7AEFC44
:104FE000C4E90001002070BD6FF01500FBE700BFB1
:104FF0007540010098B500AF05F06EF80346D0B1DA
:105000000E48026852070FD06C4688B06A460C49B9
:1050100051610C49C2E90613042342F8103F4FF4D2
:1050200001510AF009FCA54607486FF004034362EA
:1050300014300AF0FFFBBD4698BD00BF9407002066
:105040009F4001005143010000000020044B93F8F1
:105050003A3013B1034805F0EBB8FFF7CBBF00BF00
:10506000000000200153000098B503460E48026876
:10507000520700AF13D06C468AB01B686A460B49D2
:1050800051610B49C2E9061340F201331384094B05
:1050900042F8103F4FF411510AF0CEFBA5466FF0D5
:1050A0000400BD4698BD00BF94070020BD4001002C
:1050B000C042010004000001B0B584B000AF00237D
:1050C0007B60C7F807304B79FB720B7913F0200532
:1050D0000C4625D08A797F2A08BFFF223A73C3F392
:1050E000040203F01F03072B7A731BD97948026867
:1050F00055070FD06C4688B06A46774951617749A9
:10510000C2E90613042342F8103F4FF401510AF09C
:1051100093FBA5466FF0150528461037BD46B0BD78
:10512000FF22DBE722780C2A26D8DFE802F0090705
:1051300019251B251D25251F212523000122BA71B4
:105140006278032A29D0042A29D0624803685907C3
:10515000E0D06C4688B06A46614B5361614B15E004
:105160000222ECE70322EAE70422E8E70522E6E769
:105170000622E4E70722E2E7564803685C07C9D045
:105180006C4688B06A46584B5361584B9361032371
:1051900042F8103F4FF4C251B9E70122FA71628818
:1051A00044F20A018A4231D843F6FE718A420CD891
:1051B000002A55D0474803685A07ABD06C4688B0E0
:1051C0006A464B4B53614B4BE0E7A2F57F523F3AA7
:1051D0000B2AEFD801A151F822F000BF695200005C
:1051E000B5510000B5510000B55100002D5200002E
:1051F000B551000029520000B5510000B551000022
:10520000B5510000B55100006152000044F2140194
:105210008A4227D044F228018A4225D044F20F0165
:105220008A42C7D1032200E001223A7232490120AA
:1052300000FA03F391F85020DBB2002D3CD0A579A1
:105240007F2D13D1134381F85030237991F85120E9
:1052500003F01F0300FA03F3134381F851300AE00F
:105260000222E2E70422E0E70522DEE722EA030267
:10527000787281F85020381D0BF039FE0546002861
:105280003FF44AAF134803685B073FF445AF237907
:105290006C468AB003F01F036A46184951610F49F2
:1052A0001562C2E90613052342F8103F4FF421515D
:1052B0000AF0C2FAA5462FE7134381F8503023794C
:1052C00091F8512003F01F0300FA03F322EA0303CD
:1052D000C3E700BF94070020E1400100EF42010056
:1052E0001F410100D8420100FC400100E6420100DC
:1052F00047410100CB42010000000020764101003F
:10530000F8B5037800AF002B40F0AF80694CE36A3A
:1053100094F850C01CEA030F254606D1A36A002B5F
:105320003FD165480AF086FA82E0018994F8980036
:10533000A26D94F85160A8B90121DBB20B420CD0E8
:105340001CEA010F08D016EA010EB2F9000023D0C2
:1053500000EBD070401010800232490089B26145E4
:10536000ECD9DBE7334015D002EB41018A42D5D0BE
:10537000B2F9003003EBD3735B1022F8023BF5E780
:1053800032F91360002EB8BF22F8130001338B42AC
:10539000F6DBC3E71846FAE70028B8BFA2F800E03A
:1053A000DAE7236CB4F84C2033B1444944489847B9
:1053B000012835D002284BD0B4F84C30B4F848203E
:1053C0009A4245D90133A4F84C3094F898305BBB2D
:1053D000A36D94F8522003EB4203A36594F8521096
:1053E000A06D04F039FE0346F0B13648026851075B
:1053F0000FD06E4688B06A46334951613349C2E9DD
:105400000613042342F8103F4FF401510AF014FA36
:10541000B5466FF00403284863620AF00BFA03E014
:1054200094F89830002BD9D0E36B1BB9FFF70EFE30
:10543000BD46F8BDBFF35B8F55E8003F5A1E45E8F7
:1054400000210029F8D1BFF35B8F012BF0DDEDE7E0
:10545000E36B002B3FF465AF94F89830002B7FF49A
:1054600060AF1B480CF0ACFA5BE7022B1ED104F0D6
:1054700033FE03460028DBD01248026852070FD0E3
:105480006C4688B06A46134951611349C2E9061354
:10549000042342F8103F4FF401510AF0CDF9A5461C
:1054A00004486FF00403436214303BE7052BBFD17F
:1054B00037E700BF00000020140000202800002073
:1054C000C8200100940700209A4101006C430100AC
:1054D000600000209F4001008E430100094BBFF394
:1054E0005B8F53E8002F511C43E800100028F8D1CF
:1054F000BFF35B8F0AB9FFF7A9BD6FF00F025A62C5
:10550000704700BF0000002010B500220D4904467E
:105510000D480CF049FA002004F0CEFC024620B100
:105520002046BDE81040FFF79FBD01210720FFF78F
:105530006BFA0648C36813B904300AF07BF90020FF
:1055400010BD00BFDD5400006000002000000020FE
:105550002DE9F04385B0884602AF4FF0FF338D4808
:105560004FF0FF3206F00EF9D8F80460731EFE2BE0
:1055700013D98948036859072ED06C4688B002AA0F
:10558000864B5361864B9361032342F8103F4FF4DF
:10559000C2510AF051F9A5461EE00024254626FA1C
:1055A00004F3DA0724D504F0CDFCE040C3071DD492
:1055B000794803685D070FD06D4688B002AA794B21
:1055C0005361774BC2E90634042342F8103F4FF48D
:1055D00001510AF031F9AD466FF015046D480AF03B
:1055E00029F920460C37BD46BDE8F0830135EDB200
:1055F0000134082CD3D145B9674803685907EBD06B
:105600006C4688B002AA684BBBE798F81030A3F14B
:105610000802062A19D8DFE802F02A182C18041804
:1056200016000221012D98F8112024D0002A7BD0E9
:10563000594803685E07CFD06C4688B002AA5B4B1E
:1056400053615B4B9FE70321ECE753480268520725
:10565000C2D06C4688B002AA564951615649C2E987
:105660000613042342F8103F4FF4015191E7002143
:10567000D8E70121D6E7082A06D8DFE802F013139D
:105680001313131313131300434803685D07A3D0C8
:105690006C4688B002AB494959614549C3E90612D5
:1056A0001A46DEE7D8F80030002B3DD05C68002CAD
:1056B0003AD1186801387F2836D83A707C701B6858
:1056C0003F4A1B01013B7B80012382F898303B71EC
:1056D0003A463C4B304604F06BFC044600287FF40D
:1056E0007DAFD8F800206B0012B1928902FB033322
:1056F000D8F80C10994220D227480268540710D0DD
:105700006C468AB002AA304D5561304D13620523B4
:10571000C2E9065142F8103F4FF421510AF08CF8CB
:10572000A5466FF00B0459E7254B002083F898003D
:10573000244B304604F00CFCCFE7214E86F8525043
:1057400096F89830D8F80800B065B146FBB1D8F8A3
:10575000003099894D1CA9B204F07EFC0446002853
:1057600038D00D48036859073FF438AF6D4688B00C
:1057700002AA174B53610A4BC2E90634042342F8CC
:10578000103F4FF401510AF057F8AD4626E729467D
:10579000E2E700BF0400002094070020B7410100A9
:1057A0009C430100D9410100F74101003A42010048
:1057B00031430100114201004243010070420100E7
:1057C0000000002001530000974201001F43010028
:1057D0009A410100C446BCE80F00314D0FC5DCF80A
:1057E00000302B607462D8F80030002B55D00FCBFE
:1057F00005F1040C8CE80F00F36BC6F828C0A6F87E
:105800004C40002B49D0BFF35B8F59E8003F49E87B
:105810000042002AF9D1BFF35B8F96F89810E1B9E6
:10582000F46B2048204A4FF4004C0023E4FB0C01A9
:10583000FBF7D4F80022CDE90001002305F1280090
:1058400007F01EF919484FF0FF324FF0FF3305F013
:1058500099FF00B17062746AC0E604F03DFC034633
:105860000028EFD01248026852070FD06C4688B06B
:1058700002AA104951611049C2E90613042342F8F3
:10588000103F4FF4015109F0D7FFA5466FF0040314
:105890000648736209F0CEFFD4E7FFF7D7FBD1E7E4
:1058A000280000203F420F0040420F00140000205B
:1058B000940700209F40010006430100F8B54568A9
:1058C0000C796B7A026904F01F04A34200AF17D869
:1058D0005C4803685D070FD06D4688B06A465A4B36
:1058E00053615A4BC2E90634042342F8103F4FF487
:1058F000015109F0A4FFAD466FF01500BD46F8BD9B
:105900002B7A002B4CD002EB4400B0F8A23023F4E9
:1059100060639BB2A0F8A2300E78043E0A2E42D8F3
:10592000DFE806F00A4106414132354138413B008B
:1059300043F40073A0F8A2306B7A012B18D902EB64
:105940004402B2F8A23023F4E0439BB2A2F8A230A2
:10595000087910F0200F487949D0002837D188798C
:10596000012805D0032855D143F48053A2F8A23072
:105970004B78042B58D0334803685A07BCD06C4688
:1059800088B06A46324B16E043F48063D2E743F4B2
:10599000C063CFE743F40063CCE743F42063C9E777
:1059A0000B78092BC8D0274803685C07A4D06C4645
:1059B00088B06A46274B5361244B9361032342F816
:1059C000103F4FF4C25109F03AFFA54694E7012871
:1059D00005D1887903281DD143F40053C6E7022876
:1059E00018D18879032815D143F44053BEE710B984
:1059F00043F48043BAE7012802D143F4A043B5E75A
:105A0000022802D143F4C043B0E7032802D143F493
:105A1000E043ABE70B48036859073FF46DAF6C46B2
:105A200088B06A460C4BC6E7488800283FF466AF4A
:105A3000044803685B073FF45FAF6C4688B06A4672
:105A4000064BB8E700080020C34301006145010090
:105A500010440100E4430100F54301002644010025
:105A60002DE9F04FDFF85C81DFF85C9183B000AF87
:105A7000836E80F8983050F8086CD0F89030C0F8F9
:105A800094303469DFF844A194F8A050D5B9E36E9E
:105A90002068002B00F09180D4F88430B4F8902076
:105AA00033B104F16C019847012862D002287DD0FF
:105AB000B4F89030B4F88C209A4277D90133A4F826
:105AC00090305AE095FAA5F5B5FA85F504EB450353
:105AD0007068B3F8A21041F40141B98009F0D9FE11
