:10000000809B0020E95300008BD00000D5530000F6
:10001000D5530000D5530000D55300000000000068
:10002000000000000000000000000000D1550000AA
:10003000D5530000000000009D550000D55300007E
:100040008157000081570000815700008157000050
:100050008157000081570000815700008157000040
:100060008157000081570000815700008157000030
:100070008157000081570000815700008157000020
:100080008157000081570000815700008157000010
:100090008157000081570000815700008157000000
:1000A00081570000815700008157000081570000F0
:1000B00081570000815700008157000081570000E0
:1000C00081570000815700008157000081570000D0
:1000D00081570000815700008157000081570000C0
:1000E00081570000815700008157000081570000B0
:1000F00081570000815700008157000081570000A0
:1001000081F0004102E000BF83F0004330B54FEAC8
:1001100041044FEA430594EA050F08BF90EA020F35
:100120001FBF54EA000C55EA020C7FEA645C7FEAC8
:10013000655C00F0E2804FEA5454D4EB5555B8BFEB
:100140006D420CDD2C4480EA020281EA030382EA5C
:10015000000083EA010180EA020281EA0303362DEE
:1001600088BF30BD11F0004F4FEA01314FF4801CC1
:100170004CEA113102D0404261EB410113F0004FD3
:100180004FEA03334CEA133302D0524263EB43038A
:1001900094EA050F00F0A780A4F10104D5F1200E28
:1001A0000DDB02FA0EFC22FA05F2801841F1000183
:1001B00003FA0EF2801843FA05F359410EE0A5F157
:1001C00020050EF1200E012A03FA0EFC28BF4CF088
:1001D000020C43FA05F3C01851EBE37101F000453E
:1001E00007D54FF0000EDCF1000C7EEB00006EEB4B
:1001F0000101B1F5801F1BD3B1F5001F0CD34908D5
:100200005FEA30004FEA3C0C04F101044FEA44522B
:1002100012F5800F80F09A80BCF1004F08BF5FEAB2
:10022000500C50F1000041EB045141EA050130BD92
:100230005FEA4C0C404141EB0101013C28BFB1F5A4
:10024000801FE9D291F0000F04BF01460020B1FAEF
:1002500081F308BF2033A3F10B03B3F120020CDAC2
:100260000C3208DD02F1140CC2F10C0201FA0CF0A0
:1002700021FA02F10CE002F11402D8BFC2F1200C05
:1002800001FA02F120FA0CFCDCBF41EA0C019040BB
:10029000E41AA2BF01EB0451294330BD6FEA040404
:1002A0001F3C1CDA0C340EDC04F11404C4F12002EF
:1002B00020FA04F001FA02F340EA030021FA04F301
:1002C00045EA030130BDC4F10C04C4F1200220FA58
:1002D00002F001FA04F340EA0300294630BD21FA96
:1002E00004F0294630BD94F0000F83F4801306BF5C
:1002F00081F480110134013D4EE77FEA645C18BF50
:100300007FEA655C29D094EA050F08BF90EA020FE6
:1003100005D054EA000C04BF1946104630BD91EADE
:10032000030F1EBF0021002030BD5FEA545C05D1E1
:100330004000494128BF41F0004130BD14F5800420
:100340003CBF01F5801130BD01F0004545F0FE4194
:1003500041F470014FF0000030BD7FEA645C1ABFC9
:10036000194610467FEA655C1CBF0B46024650EA00
:10037000013406BF52EA033591EA030F41F400212C
:1003800030BD00BF90F0000F04BF0021704730B5B2
:100390004FF4806404F132044FF000054FF0000187
:1003A00050E700BF90F0000F04BF0021704730B548
:1003B0004FF4806404F1320410F0004548BF40421D
:1003C0004FF000013EE700BF42004FEAE2014FEA72
:1003D00031014FEA02701FBF12F07F4393F07F4F4D
:1003E00081F06051704732F07F4208BF704793F050
:1003F0007F4F04BF41F40021704730B54FF4607463
:1004000001F0004521F000411CE700BF50EA010265
:1004100008BF704730B54FF000050AE050EA01020E
:1004200008BF704730B511F0004502D5404261EB7E
:1004300041014FF4806404F132045FEA915C3FF4BF
:10044000D8AE4FF003025FEADC0C18BF03325FEA5C
:10045000DC0C18BF033202EBDC02C2F1200300FA0D
:1004600003FC20FA02F001FA03FE40EA0E0021FA32
:1004700002F11444BDE600BF80F0004002E000BF7E
:1004800081F0004142001FBF5FEA410392EA030F7F
:100490007FEA226C7FEA236C6AD04FEA1262D2EBC9
:1004A0001363C1BFD218414048404140B8BF5B42CE
:1004B000192B88BF704710F0004F40F4000020F067
:1004C0007F4018BF404211F0004F41F4000121F07D
:1004D0007F4118BF494292EA030F3FD0A2F10102C7
:1004E00041FA03FC10EB0C00C3F1200301FA03F105
:1004F00000F0004302D5494260EB4000B0F5000F28
:1005000013D3B0F1807F06D340084FEA310102F1E6
:100510000102FE2A51D2B1F1004F40EBC25008BF98
:1005200020F0010040EA03007047490040EB000062
:10053000013A28BFB0F5000FEDD2B0FA80FCACF163
:10054000080CB2EB0C0200FA0CF0AABF00EBC25090
:1005500052421843BCBFD0401843704792F0000F7E
:1005600081F4000106BF80F400000132013BB5E7D1
:100570004FEA41037FEA226C18BF7FEA236C21D047
:1005800092EA030F04D092F0000F08BF08467047AC
:1005900090EA010F1CBF0020704712F07F4F04D17A
:1005A000400028BF40F00040704712F100723CBF8D
:1005B00000F50000704700F0004343F0FE4040F4B7
:1005C000000070477FEA226216BF08467FEA236375
:1005D0000146420206BF5FEA412390EA010F40F460
:1005E000800070474FF0000304E000BF10F00043AC
:1005F00048BF40425FEA000C08BF704743F0964393
:1006000001464FF000001CE050EA010208BF7047AD
:100610004FF000030AE000BF50EA010208BF704734
:1006200011F0004302D5404261EB41015FEA010C49
:1006300002BF84460146002043F0B64308BFA3F141
:100640008053A3F50003BCFA8CF2083AA3EBC25323
:1006500010DB01FA02FC634400FA02FCC2F1200242
:10066000BCF1004F20FA02F243EB020008BF20F079
:100670000100704702F1200201FA02FCC2F12002DF
:1006800050EA4C0021FA02F243EB020008BF20EAD4
:10069000DC7070474FF0FF0C1CEAD0521EBF1CEA02
:1006A000D15392EA0C0F93EA0C0F6FD01A4480EAF0
:1006B000010C400218BF5FEA41211ED04FF00063D9
:1006C00043EA501043EA5111A0FB01310CF0004005
:1006D000B1F5000F3EBF490041EAD3715B0040EA2B
:1006E000010062F17F02FD2A1DD8B3F1004F40EBFB
:1006F000C25008BF20F00100704790F0000F0CF0CE
:10070000004C08BF49024CEA502040EA51207F3A91
:10071000C2BFD2F1FF0340EAC250704740F400006C
:100720004FF00003013A5DDC12F1190FDCBF00F05D
:1007300000407047C2F10002410021FA02F1C2F10B
:10074000200200FA02FC5FEA310040F1000053EAA7
:100750004C0308BF20EADC70704792F0000F00F0F5
:10076000004C02BF400010F4000F013AF9D040EAFB
:100770000C0093F0000F01F0004C02BF490011F48F
:10078000000F013BF9D041EA0C018FE70CEAD1538D
:1007900092EA0C0F18BF93EA0C0F0AD030F0004C0D
:1007A00018BF31F0004CD8D180EA010000F00040C1
:1007B000704790F0000F17BF90F0004F084691F07F
:1007C000000F91F0004F14D092EA0C0F01D14202B9
:1007D0000FD193EA0C0F03D14B0218BF084608D182
:1007E00080EA010000F0004040F0FE4040F40000CC
:1007F000704740F0FE4040F4400070474FF0FF0C5F
:100800001CEAD0521EBF1CEAD15392EA0C0F93EAA5
:100810000C0F69D0A2EB030280EA010C49024FEAF7
:10082000402037D04FF0805343EA111143EA1013B0
:100830000CF000408B4238BF5B0042F17D024FF468
:10084000000C8B4224BF5B1A40EA0C00B3EB510F43
:1008500024BFA3EB510340EA5C00B3EB910F24BF2C
:10086000A3EB910340EA9C00B3EBD10F24BFA3EBB1
:10087000D10340EADC001B0118BF5FEA1C1CE0D179
:10088000FD2A3FF650AF8B4240EBC25008BF20F02C
:10089000010070470CF0004C4CEA50207F32C2BF80
:1008A000D2F1FF0340EAC250704740F400004FF01D
:1008B0000003013A37E792F0000F00F0004C02BF4E
:1008C000400010F4000F013AF9D040EA0C0093F018
:1008D000000F01F0004C02BF490011F4000F013B72
:1008E000F9D041EA0C0195E70CEAD15392EA0C0FDA
:1008F00008D142027FF47DAF93EA0C0F7FF470AF12
:10090000084676E793EA0C0F04D14B023FF44CAF54
:1009100008466EE730F0004C18BF31F0004CCAD1E9
:1009200030F000427FF45CAF31F000437FF43CAF25
:100930005FE700BF7BB972B90029BEBF00204FF04E
:10094000004106E008BF00281CBF6FF000414FF0D7
:10095000FF3000F057B8ADF1080C6DE904CE002966
:1009600009DB002B1ADB00F074F8DDF804E0DDE9A8
:10097000022304B07047404261EB4101002B1BDBB6
:1009800000F067F8DDF804E0DDE9022304B040423E
:1009900061EB4101524263EB43037047524263EB08
:1009A000430300F056F8DDF804E0DDE9022304B06B
:1009B000404261EB41017047524263EB430300F058
:1009C00048F8DDF804E0DDE9022304B0524263EBAD
:1009D0004303704753B94AB9002908BF00281CBF18
:1009E0004FF0FF314FF0FF3000F00CB8ADF1080CC4
:1009F0006DE904CE00F02DF8DDF804E0DDE9022316
:100A000004B07047704700BF10F8012B11F8013B8C
:100A1000012A28BF9A42F7D0D01A7047034613F82C
:100A2000012B002AFBD1181A01387047430803F044
:100A30005533C01A00F03333800800F033301844C7
:100A400000EB10104FF0013300F00F305843000E50
:100A500070472DE9F04786468C460846089E1546A5
:100A600074461946002B40F0C2808542B2FA82F2E9
:100A700045D94AB1C2F1200300FA02FC2EFA03F371
:100A8000954043EA0C0C94404FEA154EA8B2BCFBCB
:100A9000FEF8230C0EFB18CC08FB00F943EA0C43CC
:100AA000994528D9EB1808F1FF3704D2994502D9A6
:100AB000A8F102072B44A3EB0903A4B2B3FBFEFC8D
:100AC0000EFB1C330CFB00F044EA0344A04214D993
:100AD0002C190CF1FF3304D2A04202D9ACF102036D
:100AE0002C44241A43EA07401EB1D440002334604A
:100AF0007360BDE8F0874746DDE76346F1E792BBE8
:100B0000431B01214FEA154EAFB2B3FBFEFC200C94
:100B10000EFB1C330CFB07F840EA0343984562D9EF
:100B2000EB180CF1FF3004D2984502D9ACF1020069
:100B30002B44A3EB0803A4B2B3FBFEFC0EFB1C3357
:100B40000CFB07F744EA0344A7424ED92C190CF1D9
:100B5000FF3304D2A74202D9ACF102032C44E41BB8
:100B600043EA0040C0E7C2F1200320FA03F19540B8
:100B700090402EFA03F303434FEA154EAFB2B1FB98
:100B8000FEFC0EFB1C10190C0CFB07F841EA00419F
:100B9000884504FA02F422D969180CF1FF3004D216
:100BA000884502D9ACF102002944A1EB08019BB2AF
:100BB000B1FBFEFC0EFB1C110CFB07F743EA0143E3
:100BC0009F420ED9EB180CF1FF3104D29F4202D99B
:100BD000ACF102012B44DB1B41EA004192E7604685
:100BE000E3E76146F7E76046A3E76346B7E783427A
:100BF00006D916B9002108467BE7C6E900E0F9E707
:100C0000B3FA83F78FB9834201D3724508D8BEEB9C
:100C1000020460EB030301209C461EB9002168E733
:100C20003846FAE7C6E9004CF8E7C7F1200CBB40AC
:100C300022FA0CF41C432EFA0CF120FA0CF3B84003
:100C400001434FEA14490EFA07F5B3FBF9F81FFA0E
:100C500084FE09FB18300B0C08FB0EFA43EA004334
:100C60009A4502FA07F240D9E31808F1FF3004D29E
:100C70009A4502D9A8F102002344A3EB0A0389B2E2
:100C8000B3FBF9F809FB183308FB0EFE41EA0341F8
:100C90008E452CD9611808F1FF3304D28E4502D954
:100CA000A8F10203214443EA0040A0FB0298A1EB13
:100CB0000E014145CE46434602D306D14D4504D2EE
:100CC000B9EB020E68EB04030138002EA6D0B5EB99
:100CD0000E0261EB030101FA0CFC22FA07F34CEA65
:100CE0000303F940C6E9003198E74046C5E74346AB
:100CF000D9E70000000000002DE9F047064688B063
:100D00000F4690460DF04AFA4FF47A73A0FB034564
:100D100003FB0155E40B012F44EA45444FEAD53566
:100D200007D1294922462B4630460BF052FF0020BE
:100D300012E0D8F8047025483946FFF765FE70B117
:100D400023483946FFF760FE48B1304621493A460C
:100D50000BF04DFF6FF0040008B0BDE8F0872046AF
:100D6000294617A3D3E90023FFF7E4FD05460C4607
:100D700010461946184A0023FFF7DCFD80460F464F
:100D8000104619464EF660220023FFF7D3FD824637
:100D90008946104619464FF47A720023FFF7CAFDC0
:100DA000CDE902A9CDE90623CDE90401CDE900870B
:100DB0000A492A46234630460BF00BFFB7E700BF2F
:100DC000005C260500000000D2F20000E3F2000003
:100DD000E6F20000EFF2000080EE360007F30000BC
:100DE0002DE9F04F974C85B0236803F00703022BE1
:100DF00000AF10D96D4688B06A46934B5361934B50
:100E00009361032342F8103F00234FF4C65120465C
:100E100002F09EF8AD468E480CF073FF0346D0B941
:100E2000226852070FD06D4688B06A4689495161E1
:100E300086499161032142F8101F82484FF4C25144
:100E400002F086F8AD46002383F31188BFF36F8F5D
:100E50000323184602DF7E4DAB6803221B68002186
:100E600028469847E0B123685B0711D06E4688B0EA
:100E70006A46794B5361754BC2E90630042342F848
:100E8000103F704800234FF4015102F061F8B5465D
:100E9000002383F31188BFF36F8F0323184602DF0B
:100EA000012007F0ABFDE0B123685E0711D06E466C
:100EB00088B06A46694B5361644BC2E9063004232B
:100EC00042F8103F5F4800234FF4015102F040F810
:100ED000B546002383F31188BFF36F8F03231846B1
:100EE00002DFAB685A481B68002201219847E0B135
:100EF0002368590711D06D4688B06A46564B536136
:100F0000524BC2E90630042342F8103F4D480023FB
:100F10004FF4015102F01CF8AD46002383F3118811
:100F2000BFF36F8F0323184602DF052007F066FD2D
:100F3000E0B123685A0711D06D4688B06A46474B26
:100F40005361424BC2E90630042342F8103F3D484A
:100F500000234FF4015101F0FBFFAD46002383F362
:100F60001188BFF36F8F0323184602DF3C4E4FF00A
:100F700000084FF0000907F10E01012007F082FD83
:100F8000002847D1FB894FF46162534340F6FF705C
:100F9000B3FBF0F0FFF726FB3249FFF77BFB32494A
:100FA0000546FFF72BFC314982462846FFF726FC11
:100FB0008346226802F00702022A25D9C7F804D026
:100FC0008CB06D462A4A6A61204AAA615046FFF7F2
:100FD000FBF942464B46FFF799F8C5E90801584628
:100FE000FFF7F2F942464B46FFF790F82A460823EE
:100FF000C5E90A0142F8103F1248002344F2C0013B
:1010000001F0A6FFD7F804D000214FF480400AF089
:1010100047F9B0E723685B07F6D06D4688B06A46AB
:10102000144B5361094BC2E90630042342F8103FC8
:10103000044800234FF4015101F08AFFB346AD4646
:10104000B246B6E73007002024EF0000E7EF0000CB
:101050009CE6000049EF00005EEF000084EF000016
:101060000000C07F0000304100007A440000794356
:10107000CAEF0000A7EF00002DE9F04F91B0840700
:10108000009302F004030293C2F3C20303F10103CD
:10109000DDF86890039205460E46059340F0BA814C
:1010A000041D30B1072909D86FF01B0011B0BDE84D
:1010B000F08F01F00706341DC6F10806009B4FF0C3
:1010C0000008591E4FF0040A4FF0FF330193CDF88A
:1010D00010804746C34653460DB1009A22600598DA
:1010E000002800F3E8809848009A824203D397488A
:1010F0008242C0F0E080039AA4EB050E92074FEA0B
:101100009E0000F103810F2F00F2B180002D00F04E
:10111000058107F140020DEB020C019A0CF8200C3E
:101120000CF8102C049801300490E7E07A285DD880
:101130004B280ED8472859D829282DD8252852D0F1
:1011400054D820287AD02338D0F1000B4BEB000B79
:1011500074E04C382E2849D8DFE800F07048484841
:1011600048484848484848484B48484848484848FC
:101170004859484B4B595959704B6D487048184B5A
:10118000184848827F4B48484B487F0000204FF06A
:10119000000B4FF0040A38E02A38C0B2012202FAEC
:1011A00000F010EA0E0F49D110F0625C2FD110EA66
:1011B000020B43D06046013C5444B4FBFAF40AFBF2
:1011C00004F4002D61D0A3EB050CA444B4453FF614
:1011D0006BAF002868D1042B47D159F8043B23603A
:1011E000043404232AE0019A013A01924FF0000BE3
:1011F00024E011F8010C6C2834D111F8023C0020D5
:101200006C2B8346C5D14FF0080A5346D3E709F14A
:10121000070929F007090734F9E802AB24F00704AD
:1012200035B106982044B0423FF63EAFC4E900AB6A
:1012300008344FF0000B4FF0080A534611F8010F25
:10124000002878D0BBF1000F7FF470AF2528F5D1CE
:10125000019B013301934FF0010B4FF0040AECE7BF
:10126000584694E700208346A5E7082B02D06FF08C
:1012700015001BE709F1070929F00709F9E802231E
:10128000C4E9002308340823D8E768B9042B02D145
:1012900009F10409A4E7082BE9D109F1070929F0AC
:1012A000070909F10809EDE7059A013A059259F88D
:1012B000042B009210E7039A900720D5A4EB050EAB
:1012C0004FEA9E004FF0010CBEF5007FCFD20F2FEA
:1012D000CDD8F5B107F140020DEB020EC0B2019A74
:1012E0000EF8200C0EF8102CBCF1000F3FF41AAFD2
:1012F00060F07F000EF8200C08F101080137C5F1FD
:101300000802043406924FF6DA7E97E74FF0000C9D
:10131000DAE7BCF1000F01D00136EFE702980236A0
:101320000028EBD10098CDE90631FFF777FBDDE926
:1013300006310644E2E7631BB3F5806F97D23DB9EF
:10134000A6F10804E018B1E64CE50000200E01000B
:10135000029A28609B082B709DF81030C2B1EB7088
:1013600085F80280B8F1000F05D008A80022C5F169
:10137000010C97420ED1C5F101030DF120094FF088
:10138000000A01930DF1300B574512D1601B8DE619
:101390006B70E5E710F8013B190608D504EB0C0E5D
:1013A000B64503F07F033FF67FAE04F8013B013200
:1013B000DFE7B8F1000F03D099F90020002A17DB0E
:1013C000029BD3B11AF80B2004F8012B0022019BD9
:1013D00098182044B0423FF667AE99F8000004F830
:1013E000010B0099039220460DF05DF8039A144416
:1013F0000AF1010A09F10109C6E799F8002055F838
:1014000022300093029B45F822300098FFF706FB3C
:10141000421CDCE76FF00D0048E600BF2DE9F04FFD
:1014200097B000AF90F802A0D7F880B03B62CBF342
:10143000C0030446FA62BB61894641B94578007829
:101440000AEB800020444D4517D8A0EB0409E3784F
:10145000FB61BAF1000F02D01BF0010F16D1FB693E
:1014600053BBFB6A1BB13A6A4946204698474D4632
:1014700028465C37BD46BDE8F08F461C3046FFF776
:10148000CDFA0130304409F10109DCE723786268C4
:101490007A62FA6A9900796104EB8301002A40F0CC
:1014A00006814D460E4601EB0A094FF000084E45F5
:1014B00052D101EB0A0610E01BF0020FD1D02378C5
:1014C0009A007A6162687A62FA6A04EB8301002A00
:1014D0007DD14D4601EB0A0690461BF0050F0CBF6F
:1014E00002230123FB62FB6906EB430A0BF00203B4
:1014F000BB625645BCD016F8021B16F8013C54F8E6
:1015000023909C4B994502D39B4B99453CD3BB6997
:10151000002B46D0786A0AF098FD002841D0974801
:10152000036813F0060F15D0E9468AB06A46944B5B
:101530005361944B93617B6AC2E9073140F20133F6
:101540009384914B42F8103F00234FF4325101F045
:10155000FFFCCD46023DCCE716F8013BF96254F89A
:101560002300FFF75BFAD7F88430F96A01304BB1FA
:10157000D7F8883098453EBFD7F8843023F8180054
:1015800008F10108054492E7BB6923B1786A0AF0C3
:101590005CFD0028C3D11BF0010F05D1FB6AED1AD9
:1015A000A7E7BB6A002BA4D04846FFF737FAD7F865
:1015B000843053B1D7F8883098453FBFD7F884209E
:1015C000431C22F8183008F10108054491E7BAF1EC
:1015D000000F72D01BF0040872D0D04607F148000B
:1015E000002652463B61B9620CF05DFFB96A3B6967
:1015F00001EB0A02BA62FA69F9695200FA60BA6A42
:1016000002EB41023A610BF00202BA603A69B96A30
:101610008A4257D162787A621BF0020F32440CBFC3
:101620004FEA580100211BF0010FD2B240F09F8019
:101630001BF0040F14BF40460020BB616270A07015
:10164000E1703A6A7969FB6A20469847051EFFF601
:101650000FAFBB6923707B6A6370FB69E37041461F
:101660003A6AFB6A84F802A007F148009847B0F193
:101670000008C0F2B7807B693A6AA9EB0A01C91A6F
:10168000FB68C91AD7E90A0398470028C0F2AC8062
:10169000A84408EB00054FF0000B07F1380AB345EA
:1016A00074D300213A6AFB6A08469847E0E656463A
:1016B00007F138004FF0000893E7D046564697E709
:1016C000464695E7BA6A12F8021BBA6212F8015C44
:1016D000284A54F82500904202D3274A90421ED34C
:1016E000BA6932B1786A7B600AF0AFFC7B68002887
:1016F0008CD1BA6802BB08F1280207F1300C08F15E
:101700000100944407F1580252FA80F008F10208EF
:101710000CF8101C5FFA88F800F8105C76E7BA69DC
:101720003AB1786A7B600AF090FC7B6800287FF40D
:101730006DAF1BF0010F09D006F1280207F1300050
:10174000711C161806F8205CCEB25FE71BF0040F80
:101750003FF45CAF08F1280207F1300008F1010105
:1017600002EB000808F8105C5FFA81F84EE70020F1
:1017700063E700BF4CE50000200E010004070020D5
:10178000F1EF000098F00000050000011BF80A309E
:1017900087F8373054F82390D7F88430FBB133F80A
:1017A0001B803A6AFB6A012107F13700984700283D
:1017B0001ADB0544B8F1000F06D14846FFF72EF9B1
:1017C00000F101081FFA88F83A6AFB6A4146484668
:1017D0009847002808DB05440BF1010B5FE7D7F8B9
:1017E0008480DEE7454643E6054641E6014B186046
:1017F000704700BF8004002030B587B00025CDE9D8
:1018000003010446009503A90548059500F06EF80C
:10181000DDE904309842B8BF255407B030BD00BFA1
:1018200099C00000F0B5094E016802460A27002061
:101830000B4601311C78355D6D0701D41360F0BD96
:1018400007FB0043A3F13000F2E700BF200D0100C9
:101850002DE9F84F15469A46D378234A12F803B07B
:101860006F2B81460F460BF0030B2BD026D8582B3D
:101870000CBF10260A26DDF8288032460023484691
:101880003946FFF7A7F8092A08F1FF38D4B21ED865
:101890003034B145E4B277F1000788F8004001D355
:1018A000D04511D82B789B0605D5082E15D1AB78DD
:1018B00043F00803AB704046BDE8F88F03F0F70330
:1018C000702BD5E70826D6E781460F46D5E7BBF152
:1018D000010F0CBF37345734DBE7102EEBD1AB7858
:1018E00043F01003E6E700BF200D01002DE9F04FA3
:1018F0009FB08246039117461C460025387810B9E0
:10190000284600F0A0BD252809D00399D04700281B
:10191000C0F299857B1C01350593059FEEE71822DF
:10192000002110A80CF0E7FD7B78252B00F0BA8091
:101930000023791C98469E469C4618460E4611F890
:10194000012B2B2A00F0E18000F2D880202A00F041
:10195000DF80232A00F0DF802BB19DF8483043F070
:1019600040038DF84830B8F1000F05D09DF848309D
:1019700043F020038DF84830BEF1000F05D09DF8EC
:10198000483043F010038DF84830BCF1000F05D00B
:101990009DF8483043F008038DF8483028B19DF891
:1019A000483043F004038DF848309DF8483003F088
:1019B0004401442903D16FF386138DF848309DF814
:1019C00048300E9643F080032A2A8DF8483040F0C4
:1019D000A7809DF8493043F001038DF84930731C0E
:1019E0001A782E2A9DF849200CBF0121002161F3AD
:1019F00041028DF849200CD15A1C0E925A782A2A9D
:101A000040F09E809DF8492042F004028DF8492064
:101A100002331A786C2A00F0BF8000F2A180682A95
:101A200000F0A7806A2A00F0C0804C2A00F0C58030
:101A300013F8012B0593782A8DF84B2000F20581CD
:101A40006D2A00F2C780692A00F2FF80572A00F24F
:101A5000DE80412A04D0A2F14503022B00F2F5807A
:101A60009DF84A3002F0DF020421A2F1410661F341
:101A7000020372429DF849108DF84A30724162F3B8
:101A8000C7110A068DF84910CBB200F11D8103F091
:101A90007802182A40F007816FF3C6038DF84930A9
:101AA0000023F6E08DF84B30BB1C05939DF84920D0
:101AB0009DF84A30D10703F0070040F1078154F840
:101AC000041B0491002908DA9DF8481041F0040134
:101AD0008DF84810049949420491560740F1FE8060
:101AE00054F8046B002E80F2FD809DF849206FF3BE
:101AF00041028DF849204FF0FF36F3E02D2A0DD03A
:101B0000302A7FF429AF012318E74FF0010C15E7C5
:101B10004FF0010E12E74FF001080FE701200DE72B
:101B20000EA8FFF77FFE0E9BB3423FF459AF9DF81E
:101B300048201390C00F60F341028DF848204FE712
:101B40000EA8FFF76FFE9DF848301490C3F34002D3
:101B500042EAD07262F341038DF848300E9B58E799
:101B6000742A26D07A2A7FF463AF9DF84920062193
:101B70000CE05A78682A9DF8492006D1012161F3CA
:101B8000C6028DF84920023352E7022161F3C602F2
:101B90008DF8492001334BE75A786C2A9DF849208B
:101BA00001D10421EBE70321F0E79DF8492005214D
:101BB000ECE79DF849200721E8E7BDF8482022F42A
:101BC000F04222F0020242F4804242F00202ADF8FA
:101BD0004820DFE76E3AD3B201229A4040F28243B6
:101BE0001A429DF8493037D112F0240F5FD1D10746
:101BF0002BD59DF84A2003F07803A3F14000032180
:101C000061F3020243428DF84A20434141E0A2F1D0
:101C10005801C9B2012000FA01F111F4624F7FF4BA
:101C20001FAF40F6010319429DF849301AD111F453
:101C3000043F0AD09DF84A2060F3020203F07803C3
:101C4000402B8DF84A207FF42BAF9DF8483043F0AD
:101C500001038DF8483023E79DF84A20022161F303
:101C60000202EBE79DF84A10022003F0780360F3CC
:101C70000201402B8DF84A1002BF9DF8481041F038
:101C800001018DF84810632A7FF40AAF003B18BFAA
:101C900001239DF84820C2F340010B4363F3410246
:101CA0008DF8482002E713F0380FCED1F8E69DF802
:101CB0004A20032113F0780F61F302028DF84A20C5
:101CC00014BF01230023E4E70123E2E79DF9481054
:101CD0000029B4BF13994FF0FF31FDE691077FF55E
:101CE0000AAF149E9DF8491000220428CDE9132262
:101CF00007D18A0705D49DF94920002AACBF0626E2
:101D00000D2603F00703012BC1F3C30132D1CB1E13
:101D1000042B04D8DFE803F0204545202000236889
:101D200001294FEAE372CDE910321BD19DF9403011
:101D3000DA17CDE9103204349DF8483006939B073A
:101D40004FD0059B03993A4650460AF00AFA0028FC
:101D5000C0F279830544E0E554F8043BDA17CDE995
:101D60001032E9E70229E6D11AB243F3C033CDE9D4
:101D70001023E0E7022B24D1CB1E042B04D8DFE88C
:101D800003F0181010181800012954F8043B4FF004
:101D9000000214D00229CDE91032CDD19BB21093AC
:101DA000CAE7073424F00704F4E80223CDE910233E
:101DB000C2E754F8043B109300231193BCE7DBB255
:101DC000CDE7042B08D1073424F00704D4E900231D
:101DD0000834CDE91023AFE7032BADD154F8043B11
:101DE000DDE79DF84B80B8F1780F3FF696ADB8F17E
:101DF000570F5CD8B8F1250F00F0A480B8F1240F7C
:101E00007FF68BADB8F1410F04D0A8F14503022B4A
:101E10003FF683ADDDE91023002BC0F24D8106991A
:101E2000080700F14C81C1F300194FEA4919C3F3C7
:101E30000A51C3F31303002940F0448152EA03001E
:101E400014BF4FF0010C4FF0000CD80240EA525082
:101E5000D702CDE90C70B8F1460F47EA010740EA16
:101E6000E17008BF4FF06608384300F0B881BCF15C
:101E7000000F10D01B0343EA125317033A461846CB
:101E80004FF0000C002880F25681BCF1000F40F0AA
:101E90005981CDE90C730D9B43F00043A1F2FE3B49
:101EA0000D930021DDE90C230F46052060E1A8F128
:101EB0005803202B3FF631AD01A252F823F000BFAA
:101EC0008B2000001B1900001B1900001B190000CB
:101ED0001B1900001B1900001B1900001B19000032
:101EE0001B190000151E00001B1900003720000000
:101EF0004B200000151E0000151E0000151E0000DE
:101F00001B1900004B2000001B1900001B190000CA
:101F10001B1900001B190000912000008B200000FD
:101F2000DB1F00001B1900001B190000551F0000DB
:101F30001B1900008B2000001B1900001B1900005A
:101F40008B20000003994046D0470028C0F27B82D6
:101F50000135E2E4002E109F3BDB314638460CF0A1
:101F6000E5FA002F3FF4D9AC3E18F31B4FF00009FF
:101F70009DF84A2012F01001069100F059820233B8
:101F800012F04002DDF84C80089218BF149ACDF888
:101F90001C80434418BF9B18049A002A40F36382B4
:101FA000D31A9DF8482004935007C2F3800B00F128
:101FB0005A82510640F14A82B9F1000F07D00399C5
:101FC0004846D0470028C0F23E820135D94630222B
:101FD0003DE23846FEF722FDC6E71098002800F0E3
:101FE00022820DF17503009312AA17AB0021FFF7AF
:101FF0002FFCBDF84A3003F0EF0343F4F04343F005
:1020000010030746ADF84A304FF00009002E0CDBF4
:102010009DF848200DF17503DB1B6FF386129E427D
:102020008DF8482001D9F31A1393002F3FF475ACB3
:102030000DF175066DE0109B8DF85C304FF00009D6
:102040000DF15D0617AF012392E7069B1F0758BFEE
:10205000C3F30019DDE9102354BF4FEA49194FF0CB
:102060002B09002B06DA524263EB4303CDE9102320
:102070004FF02D090DF175030093DDE9100117AB49
:1020800012AAFFF7E5FB0746C0E74FF00009F1E7AA
:10209000109B07293FF641ACDFE801F00C04060C69
:1020A00008080C0C1D7038E41D8036E4EA17C3E9FB
:1020B000005232E41D6030E44FF02D09B7E64FF0D6
:1020C0002B09B4E640F2FF70814231D108F10108DA
:1020D000A1495FFA88F8134311F8081001F00301D1
:1020E0001ED101290BBF492369234E216E210CBF4C
:1020F000462266228DF85C309DF848308DF85D10E0
:102100006FF386138DF85E208DF848300DF15F0671
:1021100017AFF31BB9F1000F3FF42AAF013327E7E4
:10212000012915BF6E234E23612141211A46E1E7A3
:102130004FF0000C89E6921801F1FF3140414FF059
:10214000010C9FE6CDE90C20A5E6520842EAC372D5
:102150005B08B3F1333F59460BF1010BF5D200FB9D
:1021600003FCA2FB002301F1020B6344013F0121A8
:102170001BF1020FE9DB09B1CDE90C23BBF1000F24
:10218000DDE90C322EDCCBF10401A1F120000BF1D2
:102190001C0B02FA0BFB22FA00F0CA40CB4007925C
:1021A00008F0DF0243EA0B03472A43EA00037ED12B
:1021B000F91C01DBBE422BDAA8F10208002E5FFAFF
:1021C00088F87DDD9DF84820920606F1FF3677D429
:1021D000B6F1000B18BF4FF0010B721C27E04FF057
:1021E000000B5EE6023342F100020CA8CDE90C328E
:1021F00009F088FFDDE90C320BF1FF3B0137DB18FA
:102200005241002A0BF1FF3BF9DACDE90C32B5E778
:102210009DF848209006A6EB07064ED4B6F1000BB9
:1022200018BF4FF0010BF2194FF066084BD4102A7B
:10223000A8BF102210200B904FF000610020CDE9C4
:102240000E01DDE90E01002A3FD1079A1B1842EB6F
:102250000101B1F1805F47D2CDE90C31069BB8F1A5
:10226000660F03F0200240F0BE80002F47DC3023D1
:102270008DF85C30002A71D1002E40F3B7812E23F7
:102280008DF85D3087B17B42B342A8BF33469DF8DD
:102290004A201393002BA6EB0306D4BF002301238F
:1022A00063F345128DF84A200DF15E0340E0B8F16A
:1022B000660F4FF0000BB6D08FE74FF0000BB2E780
:1022C0004FF0000B89E70022B4E7400840EAC170F4
:1022D0004908CDE90E010EA8CDE9082309F012FF47
:1022E000089A099B013AACE75B0843EAC1730CA862
:1022F0004908CDE90C31013709F004FFAEE717AB0F
:102300000B9900290BDD0BA90CA8CDE9063209F0C9
:1023100011FF069B079A03F8010B013FF0D11397B9
:10232000AAB9002E40F360812E2103F8011B00277B
:10233000002E1CDD0B9A002A19DD0BA90CA80693B0
:1023400009F0F8FE069B013E03F8010BF0E72E2290
:1023500003F8012BEBE700BF1F0D01002E238DF8C2
:102360005D30002FA0D0002E8DDC0DF15E03BBF19F
:10237000000F4CD114961E4608F0DF03452B21D1E7
:10238000002FBABF7F422D232B23632FC8BF6422A7
:102390007370C2BFB7FBF2F303F1300102FB137796
:1023A0004FF00A0286F80080CABFB17002360336C9
:1023B000B7FBF2F303F1300102FB137330333170DA
:1023C00073700236139B002B2BDC149B002BD4BFA5
:1023D000002301239DF84A2063F3861200238DF821
:1023E0004A20337094E60BA90CA8069209F0A2FECD
:1023F000069A8DF85C00302818BF07F1FF3712B934
:10240000002E40F3F3802E238DF85D304CE71E46FE
:10241000013B16F8012C302AF9D02E2A08BF1E469F
:10242000AAE70123D6E7734E8146771F05239FE570
:10243000110748BF0133A3E5104609920399D0471D
:102440000028099A05DA1FB0BDE8F08F2022DDF8D8
:1024500010B0594600290BF1FF3BEDDC049BCDF891
:1024600010B02B445D1AB9F1000F05D0039948460E
:10247000D0470028E7DB0135089B002B79D09DF978
:102480004930002B29DBDFF870913B46187819F8AA
:10249000002052079B4603F101033FD49DF84A30C8
:1024A000EF1B98065F4407D44246002A08F1FF3824
:1024B0003BDC079B3B449F1A9BF800002E280AD167
:1024C0000399D0470028BEDBB8F1000F07F10107E0
:1024D00031DC0BF1010B5D4638E0B94699F800009C
:1024E0007028C84609F1010913D1EF1B149D474418
:1024F0003D44EB1B002B34DC0399334642465046E7
:1025000009F02FFE00289EDB3844049E0546064451
:1025100065E00399D0470028E0DA94E70693039931
:10252000D0470028069BB1DA8DE703993020D047C9
:102530000028B9DA87E703993020D04708F1FF383F
:10254000C0E70399D0470028FFF67DAF287819F837
:1025500000305907A84605F10105F2D4A7EB0B0797
:10256000C4E703993020D0470028FFF66CAF01374D
:10257000BFE79DF84A30DA0601D41B0706D5039958
:102580003020D0470028FFF65EAF0135069B3BB1F7
:1025900003999DF84B00D0470028FFF654AF013552
:1025A000A84406E003993020D0470028FFF64BAF3F
:1025B0000135A8EB0503002BF4DC039933463A46BA
:1025C000504609F0CEFD0028FFF63DAF28449CE7B9
:1025D00003992020D0470028FFF635AF0135731B43
:1025E000002BF5DCFFF799B91746C0E60DF15D0346
:1025F000BDE600BFC7F00000200D010008B504468D
:10260000EFF31183202383F31288BFF36F8F05F05C
:1026100069FE204602F01AFF024809F04FFD0AF059
:1026200049FDFCE7C8F000002DE9F047058B0446A2
:102630002807904611D4022905F0070540F0CC8008
:1026400020460AF003F878B10138218B042811D80C
:10265000DFE800F0C2106D85950001290CBF45F040
:10266000100545F02005258388F31188BFF36F8F8F
:10267000BDE8F08701F0070AAA4500F0A580002711
:10268000B9463E46A368002B00F0BC8041F008012B
:10269000218388F31188BFF36F8FA168002900F0B0
:1026A000BA800D68002900F0B680D1F80480334666
:1026B00052462046C047002D76D02B6829461D463D
:1026C000F0E701F007035A1F012A1BD8002221F06E
:1026D0000701062B276889B2C4E9002209D13B46CD
:1026E00003E0628B013262831B68002BF9D141F059
:1026F00002012183204609F0A9FF00287AD041F089
:10270000200176E0042B0AD121F0070189B2218350
:10271000204609F09BFF10B141F020012183218B5D
:1027200001F0070AAA454FD00027B946AAE7236956
:1027300021F0070141F00601062DD3F80090218316
:102740002DD1B9F1000F3FD041F00801218388F36A
:102750001188BFF36F8F3A492046C84729E021F01E
:102760000701236941F0040189B2042DD3F80490D4
:102770002183E6D000273E464FF0040A82E721F08D
:102780000701236941F0050189B2052DD3F80890AE
:102790002183D6D000273E464FF0050A72E7002776
:1027A0003E464FF0060A6DE72B4687E7B9F1000F6A
:1027B000D1D1EFF31188202383F31288BFF36F8FF9
:1027C000238B23F008032383258BEA062ED525F0DF
:1027D0001003238305F007056669218B002EBFF6E1
:1027E00070AF00232768C4E9003321F0070141F0EE
:1027F00001012183218B01F0070AAA454FF000094E
:102800007FF440AF002F9CD041F00801218388F372
:102810001188BFF36F8F002FC8D03D68394633460B
:102820005246204609F03EFF2F46F4E7AB067FF5FF
:102830001BAF25F02003238305F0070500E700BF49
:10284000D1C600002DE9F047DFF85880044607465E
:102850004FF0010914B93846BDE8F08794FAA4F5A1
:10286000B5FA85F509FA05F32E0108EB05156FEAAF
:10287000030A24EA03042B7B002BEBD058F8063024
:102880001B694BB94644042273682846196807EA55
:102890000A0700F01DFBDDE7284698470028D9D13C
:1028A000F0E700BFD0E8000030B51049104889B00B
:1028B00000220BF075FC0F4D0F4900220023CDE9DB
:1028C000062300240E23CDE90334CDE901440B4B4C
:1028D00000944FF40062284608F026FA084928467A
:1028E00008F056F9204609B030BD00BF05290000A8
:1028F000A0180020E0070020805A0020452C00008E
:10290000F1F00000014807F0B7BF00BFC807002082
:102910002DE9F04780461F480F4609F092FF064612
:10292000002830D000252846BDE8F087237B6BB116
:102930002368DB680BB12046984723681B69D3B92D
:10294000636804221968204600F0C2FA0136103488
:102950004C45EBD3B8F1000FE5D0002DE2D028466E
:10296000FFF770FF0546002FF7D000214FF4A47049
:1029700008F096FCF1E7204698470028E0D00AFAD4
:1029800006F31D43E2E7044CDFF8109005464FF0D4
:10299000010ADDE7281D0020D0E80000E0E8000083
:1029A000014B53F8200070473CEA000008B503468D
:1029B00008462BB1044A136000F07EFD002008BDDC
:1029C0006FF01500FBE700BF8404002010B5044C35
:1029D000237813B9034807F04FFF0123237010BD7C
:1029E00028290020C807002010B504460B4809F02C
:1029F00028FF5CB1BFF35B8F094B53E8001F01391F
:102A000043E80012002AF8D1BFF35B8F05480BF0B2
:102A1000D3FB0548BDE8104007F02EBF201D002065
:102A2000241D0020A0180020C80700200020064B0D
:102A3000BFF35B8F014653E8000F43E80012002A02
:102A4000F9D1BFF35B8F7047201D002070B5FFF7F1
:102A5000EDFF084C084E0546B44200D370BD6368D4
:102A60005B792BB123685B6813B1294620469847F0
:102A70001034F1E7D0E80000E0E8000010B5044CA5
:102A80000449204609F07EFC034B1C6010BD00BFCA
:102A9000BC06002028EA0000181D0020094A0A4848
:102AA00008B500231370094A1360094A4FF4004126
:102AB0001360FFF77BFFFFF7E1FFBDE8084000F080
:102AC00057B900BF292900203FC80000201D002061
:102AD000241D0020014600220148002309F073BC98
:102AE000BC060020014809F009BD00BFBC0600205B
:102AF000024B0146186809F055BD00BF181D0020A3
:102B0000014809F08ABD00BFBC0600202DE9F04154
:102B1000354B1878002864D0FFF7E4FF044698B1DD
:102B2000BFF35B8F314B53E8001F013943E80012BC
:102B3000002AF8D1BFF35B8F2D4DDFF8B8804545F3
:102B40002DD32046FFF7D4FF2B4B2C4C1B68002BBA
:102B500019DD0BF023FB4FF47A72A0FB020302FB9A
:102B60000131C30BD4E9002043EA41439B1A4FEAE9
:102B7000D13140F2E93261EB0001934271F1000181
:102B800001D3FFF763FFD4E9003213F57A7342F102
:102B90000002C4E90032BDE8F041FFF7B1BF6B6845
:102BA0005B793BB121784B0706D52B6821461B6822
:102BB000284698471035C2E720462688C1F3C20749
:102BC00000F0B4FAC6F382160246002EEDD00028BB
:102BD000EBDB01233946284600F094F9B042E9D3F3
:102BE000E3E7BDE8F08100BF28290020241D002074
:102BF000D0E80000E0E80000201D00209818002028
:102C000070B50D4D297861B90120FFF781FE0B4C9D
:102C10000B4EB44206D3FFF779FF0028FBD1012306
:102C20002B7070BD63685B791BB1236820469B687D
:102C300098471034EDE700BF29290020D0E80000B4
:102C4000E0E8000000212DE9F0470846FFF760FEAC
:102C5000044648B340F267684FF0000908F03EFBB5
:102C60001A4B186030B11A4B1B68002B02DD194853
:102C700007F002FE184FDFF85CA0002544B12046A3
:102C8000FFF7E0FD044618B94FF0FF384FF0FF3969
:102C9000FFF73CFF064628B9B5B942464B465046B9
:102CA00007F010FE3546E9E74FF0FF384FF0FF39E7
:102CB000D4E72B689B691BB1002211462846984730
:102CC0001035BD42F5D3E8E7044DFAE71C1D00209E
:102CD000241D0020C8070020E0E80000D0E8000024
:102CE00010B50F4809F0ADFD0E4B1B786BB1EFF33B
:102CF0001184202383F31288BFF36F8FFFF706FF41
:102D000084F31188BFF36F8F10BD074B1B68002B36
:102D1000FAD00028F8D10548BDE8104007F0ACBD56
:102D2000241D0020292900201C1D0020C807002088
:102D300010B5064B1B68044698472146A06004481E
:102D400009F0BDFBBDE81040FFF7CABF84040020B6
:102D5000BC060020044A054B9B1AB1EBD30F34BFCD
:102D600052F831000020704730E80000D0E8000041
:102D70000B480C4B30B51B1A0B4CDB080021043000
:102D8000994200D130BD10F83120256802F00702C9
:102D900025F007052A4344F8042B0131F0E700BF72
:102DA00030E80000D0E8000000070020F8B50B4F25
:102DB0000B4DED1B0646ED080024AC4203D14FF04D
:102DC000FF342046F8BD57F8340020B13146FDF7F6
:102DD0001BFE0028F5D00134EFE700BF30E800000B
:102DE000D0E8000000282DE9F047884615461F4628
:102DF0001DDADFF89890264E4FF0000AA6EB090680
:102E000036095446B24509F1100902D12046BDE801
:102E1000F08759F80C0C3B4600792A464146FFF7EB
:102E2000E1FF844238BF04460AF1010AEAE7194B80
:102E3000194AD21AB5EBD20F26D203EBC5031C797F
:102E4000BC4228BF3C46154EC0B200EB400056F8CD
:102E500025300722824023EA020304F00702824061
:102E600013430021032223FA02F000F007008142FD
:102E700002F1030238BF01461E2AF4D123F00703F2
:102E80000B4346F82530C1E70024DCE7D0E800001A
:102E9000E0E8000030E80000D0E800000007002073
:102EA000F8B5094D094BED1A06460F46ED0800240A
:102EB000AC4200D3F8BD002122B23B46304601347B
:102EC00009F0DFFCA4B2F3E7D0E8000030E800002E
:102ED00038B50B4BC31A0D461B111146426801331E
:102EE0001371436804469971FFF7DAFF63681D6048
:102EF000636801225A71BDE83840FFF767BD00BF23
:102F0000D0E8000070B14168097973B1002A17DB7D
:102F1000CBB20C4951F8220003EB4303D84000F038
:102F2000070070474FF0FF31EFE707490748401AA5
:102F3000B2EBD00F3ABF01EBC201087918467047D7
:102F4000042070470007002030E80000D0E80000AF
:102F50002DE9F04F8FB004AFC1F34A28B8600D4699
:102F600091467B600C0DB8F1000F69D0002607F187
:102F700014034FF0040B4FF00A0AC7F80C80C7E99E
:102F800007667E620193CDF808B0CDF800A007F186
:102F90001C03F96832464846FEF740FAB0F5006F68
:102FA000034622D32B48036813F0060F19D06C4652
:102FB0008AB0D9F8041004AB274D5D61274DC3E9F1
:102FC000065140F2FF7119621A4640F201319984AC
:102FD000234B42F8103F4FF432513346FFF7B8FF0E
:102FE000A5462C37BD46BDE8F08FC0F30A0804F1B2
:102FF0001700184420F0070080083B60FFF76AFDC7
:1030000068F35325044690B13B68164AC7E9083671
:1030100000F1100107F11403F961CDE900A3CDF827
:1030200008B0F96807F11C034846FEF7F7F968F3A2
:1030300053257B68B9682A46204609F040FCD0E752
:1030400004F1170020F007008008FFF743FD044655
:10305000EDE700BF2807002006F100009FF1000007
:103060000500000193C800002DE9F04F87B002AFC2
:10307000D7E91069BD6B79600446934698464EB314
:10308000C7F80C90CDF80090FA6B33461021002061
:10309000FDF7F2FFB0F5006F82461CD320480368AD
:1030A00013F0060F12D06C4688B002AA1D4B536174
:1030B0001D4B936140F2FF73D361042342F8103F2C
:1030C00000234FF40251FFF743FFA5461437BD46D6
:1030D000BDE8F08FB24605F11700504420F007001C
:1030E00004F007048008FFF7F5FC0BF0070BE40081
:1030F00044EA8B1444EA4A2444EA0554054640B1A4
:103100003EB1CDF80090FA6B334651461030FDF7D2
:10311000B3FF796843462246284609F0D0FBD5E73D
:103120002807002049F1000085F10000406820B127
:10313000034BC01A40F38F0070474FF0FF307047C9
:10314000000700200EB403B503AB014653F8042B6F
:103150000448019309F0E7FB02B05DF804EB03B00B
:10316000704700BF35C90000CA0605D48B064CBFA6
:1031700002490349FFF7E6BF704700BF70F5000042
:1031800053F200002DE9F04F89B09A46149B069344
:103190009DF84CB0159B0593169B179E049304460F
:1031A0000D469046BBF1000F00F09D8006F4807341
:1031B000079309F064FB06F00209024600283ED09E
:1031C00092492046FFF7BEFF0746B9F1000F08D02D
:1031D00016F0440F35D18E492A462046FFF7B2FF3C
:1031E000074406F0010353B18A4B8B4953F82B2057
:1031F0008A4B2046002A08BF1A46FFF7A3FF06F4B1
:103200008073002B49D006F00803002B63D1B8F17E
:10321000000F66D0824942462046FFF793FF0546DD
:10322000069B3D44002B6DD1049B002B73D1F3070B
:1032300000F1E58031462046FFF796FFD9E00746CA
:10324000C3E7784B18680028CAD0774B4FF47A79D7
:103250001B68B5FBF3F54FF46161B5FBF0F300FBC0
:10326000135509FB05F54FF03C0CB3FBF1F201FBE4
:103270001231B5FBF0FEB1FBFCF300FB1E550CFB5D
:10328000131109FB05F50091B5FBF0F56749CDE990
:1032900001E52046FFF756FFA2E706F00803EBB171
:1032A000634B644953F82B202046FFF74BFF05463C
:1032B000B8F1000F05D05A4942462046FFF742FFB9
:1032C0000544BAF1000FABD05B4952462046FFF7E8
:1032D00039FF0544A4E74FF0000AE1E706F00805CE
:1032E000E6E745469CE7BAF1010F069B06D1002BA5
:1032F00065D1049B002B7CD000250CE0002BF8D07E
:103300004E485DE04E48069B4E49224608F06CFE52
:10331000049B002B69D0DFF83081DFF83091049FE7
:103320003146102F204628BF1027FFF71DFF4FF012
:10333000000A554546DC059B49461A782046FFF7AA
:1033400001FF4FF0010A1AF0070F03D14146204652
:10335000FFF7F8FE57453CD9059B494613F80A206C
:103360002046FFF7EFFE0AF1010ABAF1100FEAD189
:10337000374920464FF0000AFFF7E4FE5246059B0E
:103380009A5C344B995C11F0970F08BF2E2232499A
:103390002046FFF7D7FE0AF1010ABAF1100F1DD03F
:1033A0001AF0070F03D141462046FFF7CBFE5745E1
:1033B0005246E4D841462046FFF7C4FEEBE72048DA
:1033C0005D46A0E741462046FFF7BCFE0AF1010A30
:1033D000AFE722492046FFF7B5FEC4E7059B3B4413
:1033E0000593049BDB1B049399D1BBF1000F7FF481
:1033F0001EAF204609B0BDE8F04F09F087BA074A72
:1034000005492046FFF79EFE14E700BFC3F1000008
:10341000C7F100004CEA000053080100BEF10000B3
:10342000ECF10000301D00202C1D0020D0F1000028
:1034300060EA0000F0F10000F6F100006BC9000046
:1034400035C9000027C9000003F20000FBF10000AD
:1034500005F20000200D010007F2000001F200005B
:1034600073B542F20F738B4228BF0B4605680F4AB3
:1034700004460521684608F02EFE63680C495B6827
:1034800006460422284609F033FA63683246694644
:1034900028465B6809F02CFA636806495B681722C6
:1034A000284609F025FA02B070BD00BFC7EF000042
:1034B00022F200000AF20000074A00210123904294
:1034C00006D8064A01B901231360054B18607047FE
:1034D00040085B000121F2E740420F002C1D002054
:1034E000301D0020014B002019607047481D00204E
:1034F00007B500230093084A08494FF48053012080
:1035000006F096FE064B01221A70064B064A1A6018
:1035100003B05DF804FB00BF442A002037F200002E
:103520002A290020541D00202D2900200148FFF7E2
:1035300097BF00BF90EA000010B5064B18680C4614
:10354000FFF72EFA21460346BDE8104002480E223E
:10355000184700BF481D002090EA0000F8B5094D4B
:10356000094B0A4ED5E9004701221A700CB92C60AC
:10357000F8BD214630463A4600F01EF8241A0644AB
:10358000F4E700BF3C1D00202B2900202C2900203F
:1035900010B9074B18707047064B1B781BB142F2ED
:1035A00010700AF0A9BB4FF4A470002107F078BE98
:1035B0002A2900202B2900202DE9F74F524F019096
:1035C0003B780C4643B9514F8246019B23449A45B0
:1035D0002BD324EAE4700CE04D4E012501992246DC
:1035E000012006F089FDA8B1012333703B7843B96F
:1035F000204603B0BDE8F08F2846FFF7C9FF6F1ED5
:103600003D46012006F00AFE0028F1D03378002B59
:10361000F2D1EDE73378002BEAD0013D2846FFF7E1
:10362000B7FF3378002BD9D1E2E71AF8012B3B68BA
:103630000A2A61D1374DDFF8E0905A1B012A04BFF6
:1036400001333B60D7F80080D9F800B00D2308F8AB
:10365000013C08F101020A23BBF1000F3A6088F82F
:10366000003029DD2D4B196831BB2A495E46632E97
:10367000A2EB050201F11700A8BF63260AF021FFA3
:10368000274A2449254B02F1140052F804CB41F893
:1036900004CB8242F9D1108892788A7008F118021E
:1036A0000880BBF1090F3A604FF001021A6011DC8B
:1036B000202330366B752E753A681649521B01204F
:1036C00006F01AFD90B9D9F800300133C9F800307E
:1036D0003D607AE70A22B6FBF2F302FB1366303351
:1036E00030362B753E236E75EB74E5E70B4A0023ED
:1036F000C9F800301360EBE70A498B423EBF591C02
:1037000039601A7061E700BF2B290020541D00208A
:103710002A2900202D290020501D00204C1D0020AA
:103720003EF200002C2A0020014B0360002070476D
:10373000A0EA000010B5044609F0B8FF03490246AC
:10374000204609F046FA002010BD00BF7DF20000BF
:1037500073B5134600220192044601AA58680A2153
:1037600009F0F3FA019D95B920EAE0744FF40046A0
:10377000294640F2E7304FF47A720023C4FB060179
:10378000FDF728F907F08CFD284602B070BD2A46E7
:103790000249204609F02BFA019DF5E7A9F2000045
:1037A00008B5034A034909F014FA002008BD00BF18
:1037B00099F30000A0F300002DE9F3411746002320
:1037C000044601AAB86801930A2109F0BEFA019DD6
:1037D000C6B24DB12A461449204609F008FA019DA7
:1037E000284602B0BDE8F081042E09D90F493246BF
:1037F000204609F0FCF9204609F007FA0125EFE719
:103800007868FFF7D3FAB0F1000804DA7A6808495B
:10381000204609F0ECF9002133460FFA88F20846F9
:1038200009F02FF8DCE700BFC3F30000EAF3000063
:1038300001F4000010B5044604F04AFD07490246B1
:10384000204609F0C6F92046054909F0C2F90548A5
:10385000214607F0FFFD002010BD00BF93F40000DB
:10386000B2F4000069380000F0B58FB0D0F8A07055
:1038700004460D460AF028FB064607F02FFD204BB4
:103880002049214A002E08BF1E46844218BF0A461E
:10389000234628461D49009609F09BF9D4E90A23DE
:1038A000CDE90023284694F90E30227B184909F00F
:1038B00090F906A92022204607F07AF9636E15498F
:1038C0000246284609F085F905A920460AF00CFBB6
:1038D000024628B11049284609F07BF90FB0F0BD27
:1038E000059B6422F91A4A430091B2FBF7F20B4997
:1038F000CDE9017228463A4609F06BF9EEE700BFC0
:10390000BCF4000003F2000015FD0000BFF400004D
:10391000CBF40000F7F400000EF500003BF50000CA
:10392000F0B5002591B00446294608AF1C2209A82D
:103930000AF0E1FD134E1A22202138460AF0DBFD81
:103940002146114807F086FD07AA4FF48051304602
:103950000AF0BEFA079A0097C2F5805164234B43E0
:103960001B0B05934FF48053CDE90313CDE90132CE
:10397000204606492B46A6F1400209F02AF92846BE
:1039800011B0F0BD40730020913900008CF50000AB
:1039900070B50446D0F8A06088B00D4607A90AF0BB
:1039A000A3FA024628B10F49284609F012F908B0D7
:1039B00070BD20460AF088FA079B0096F11ACDE9FF
:1039C0000131094B64224A43002818BF0346B2FB69
:1039D000F6F20649CDE903622846224609F0F9F8D5
:1039E000E5E700BF0EF50000BCF40000D5F50000CF
:1039F00007B5064A064812680423009300210123F4
:103A000000F0FCFA002003B05DF804FBF4EA0000CB
:103A1000E0E8000037B544680A49226004F108056F
:103A20002364002228460AF0BBFB41F69A12E463A5
:103A300000232846CDE9002307F014FF002003B03F
:103A400030BD00BF21CA000010B9034B1870704789
:103A5000A420002107F024BC443A00202DE9F047BF
:103A6000154ED0F804A0884614461D46042706F0DB
:103A70000BFC22464146002006F03EFB814606F044
:103A80000DFCB9F1000F0BD001233370DAF80030D0
:103A9000DAF84010012098472C600020BDE8F0873C
:103AA0003378002BF2D0013F3846FFF7CDFF337853
:103AB000002BDCD1EAE700BF443A002010B5816852
:103AC0000446083100F092FEA168034A20460831FE
:103AD000BDE8104000F018BE49F600000EB403B572
:103AE000044904AA019200F09DFB02B05DF804EBCA
:103AF00003B0704770F5000010B5836802221A7198
:103B00008268936B0446EBB982F846308268A2F86B
:103B100042308268A2F840308368D3F86832DB0410
:103B20000BD50321084B094A09F020FAA0686FF46D
:103B3000805100F51A7008F096FF2046BDE810404D
:103B400000F052BD10BD00BF57F600005308010041
:103B50002DE9F04FA5B00446542200210FA80AF029
:103B6000CAFC00230493A36820464633039309F05C
:103B70008DF9204609F038F918B985496069FFF7D1
:103B8000ADFFA06800271422002108300AF0B3FC22
:103B90000DF13C0B4FF0FF38B9463D4602973E46CB
:103BA000BA46049B012B00F09C80142D40F09580B8
:103BB000022B40F09680774B774A01210FE059465F
:103BC000039A022304A800F045FB04995BF8042F34
:103BD0000392034631B101290AD148B16F4A204608
:103BE00009F0C4F96FF00705284625B0BDE8F08F4D
:103BF0002DB35BF8040C00F019FE98B167B1A5680D
:103C00000B9708350AAE0FCE0FC533682B602046E0
:103C1000FFF754FF0125E7E7614A0121204609F03B
:103C2000A5F9DFE7029BC3B108F1FF38FEB9049B99
:103C3000B8F1000F01D1022BB3D10135B1E7029BDE
:103C40005BB108F1FF3896B9A368DB69002B3BD064
:103C5000DB68002B38D0002633E05BF8041C05AA93
:103C6000504609F047F808F1FF38064638B3F368C4
:103C7000ABB1A368B64603F1080CBEE80F00ACE890
:103C80000F00DEF80030CCF80030B36833B9737C35
:103C9000FE2B04BF96F8108008F1FF38A946D6F82D
:103CA00004C0BCF1000F08D0B646BEE80F000AAF52
:103CB0000FC7DEF800303B606746B246B7E7002D1D
:103CC000C2D001230293B2E7364B0093364A0F9BD2
:103CD0000121204609F04AF9BDE7B8F1000F7FF451
:103CE0006EAFBAF1000F0AD09AF81130FE2B06D150
:103CF00024AB03EB850353F8543C03B10135A068B2
:103D0000436953B9002F3FF46DAFC368BB423FF422
:103D10007EAF0B9700F1080574E7037EA5EB09055C
:103D2000B3B1417E4FF6FF72FF2918BF0A469D428C
:103D300002D313449D420BD983681C4A01212046BB
:103D400009F014F92046FFF7B9FE6FF015054BE7AF
:103D5000012108F0DDFEA06800F53F7008F0F2FEDA
:103D6000A3680FAA294602EB89025B69204698479F
:103D70000546A0684FF0FF324FF0FF3300F53F706B
:103D800008F0B5FEA068002108F0C2FE2CE700BFD5
:103D900070F50000E7F60000C60A01009BF600007F
:103DA000AFF60000D3F60000CDF600000BF70000E0
:103DB00070B50446806886B0012100F51A7008F0DD
:103DC00043FEA3681B79022B20D100230193A36833
:103DD00060689E6B03681D6901AB0EB3102202A9D7
:103DE000A847019B93B1A068012108F091FE019AB8
:103DF00002A92046B047A068002108F089FEA36808
:103E00009B6B002BE3D12046FFF776FEA0686FF096
:103E1000010100F51A7006B0BDE8704008F023BE3D
:103E200001220DF10301A847019B002BEED09DF963
:103E300003109DF80330A2680029C8DB51790329DB
:103E40007FD8DFE801F00277807E0D2B4FD00A2B60
:103E500030D0B2F868126FF3CA01A2F86812092BC9
:103E6000A06864D013D8002BB1D0082B54D00133F4
:103E7000604AA068DBB2D35C13F0970F57D008F00C
:103E800042FE9DF80310204600F076FB9FE71B2BB7
:103E90003FD07F2BEBD1D0F864329D0797D508F047
:103EA00032FEA368D3F8643218073CD4204609F0E8
:103EB000A5F88CE7D2F86812C1F3C70129B1D2F88E
:103EC0006812C1F3C7010A29D1D1B2F8681263F3AD
:103ED000CA01A2F86812A568B5F840309BB94649F6
:103EE0006069FFF7FBFD2046FFF706FE6FE7D2F89B
:103EF0006812C1F3C7010029E7D0D2F86812C1F3F4
:103F0000C7010D29E0E72046FFF722FEC5F814039C
:103F1000E9E7012343715AE7D0F864329E077FF541
:103F200056AF08F0F0FD204609F087F84FE7D0F8CB
:103F300064324CE75B2B02D10223537147E7D2F87E
:103F400064320023F9E700215171A268D2F86412AB
:103F500089077FF53CAF342B0BD8302B7FF637AF7A
:103F60000321323B5171022B2ED8DFE803F0313BA5
:103F70002900433BDAB2092A3FF629AF092B3FF665
:103F800026AF01A252F823F0B13F0000B93F000074
:103F9000CF3D0000C13F0000CF3D0000C93F000001
:103FA000CF3D0000CF3D0000CF3D0000D13F0000DD
:103FB000204608F07DFF0AE7204608F070FF06E77C
:103FC000204608F063FF02E7204608F058FFFEE6AF
:103FD000A068D0F8641201F0010181F0010108F03D
:103FE000A2FDF4E6A368D3F864329B077FF5EFAE39
:103FF0005CE700BF1F0D010070F500002DE9F047E0
:10400000044680680F46D0F8101388B015461E4647
:1040100000296BD190464FF446720AF06CFAA06802
:1040200000F53F7009F0FEFE4FF42B7A4FF41B7938
:10403000A06848440AF022FAA068002200EB0903B5
:104040000121504409F110090AF0EFF9B9F52B7F6D
:104050000AF1140AECD1A36900221A60A0680221B7
:1040600000F51A7008F0F0FCA36850225A85A36886
:1040700018221A85A36822681A60D4F80890D9F823
:10408000000010B1FCF7CAFC80B289F82C00A368CC
:10409000184A25F0360565F30708C3F8648260689E
:1040A000036839461D682346A8470546D0B9A3686A
:1040B00001221A71D4E90A0100220023CDE9062366
:1040C0000E230393109B0495CDE9016300940A4BE2
:1040D0004FF4805206F028FEA368C3F81003616A0B
:1040E00006F056FD284608B0BDE8F0876FF077056A
:1040F000F8E700BFF3CA00004141000010B50446D4
:1041000080680379012B15D14FF0FF324FF0FF3358
:1041100000F53F7008F0EBFC08496069FFF7DEFC32
:104120002046FFF7E9FCA06800F53F7008F00AFDA3
:10413000002010BD6FF08500FBE700BF70F50000A8
:10414000F8B504468068154600F51A70002935D088
:104150004FF4804108F078FCA368DD636068036871
:1041600000219B689847002844D12046FFF7C6FFEE
:1041700000283FD1204E214FA06800F52B704FF052
:10418000FF324FF0FF33032107F0A6FB0546A0687E
:104190004FF0FF324FF0FF3300F53F709DB108F054
:1041A000A6FC20462B46164A012108F0DFFEA06837
:1041B000BDE8F84000F53F7008F0C4BC6FF48041E2
:1041C00008F051FCC8E708F092FC32460221204674
:1041D00008F077FC20463A46294608F072FC6068F1
:1041E00003685B6903B19847A06800F53F7008F069
:1041F000A9FCC1E7F8BD00BF85CA0000B13D0000C1
:1042000026F7000010B50549044608F0E2FC2046F8
:10421000034A002100F078FA002010BD3DF70000AD
:1042200091F7000013B513460446002200920A4697
:1042300001460748FDF75AFB23691B792BB120463D
:1042400002B0BDE8104008F0F5BC02B010BD00BFE0
:104250004DCC00002DE9F04F85B00026DFF8A8A175
:1042600001910746144699460660B3462378002B11
:1042700000F0C6801AF8033013F0080304D004F8E5
:1042800001BBF3E70026F1E73A68511C3960019958
:1042900041F822403A684A4500F0B2801E46217833
:1042A0000029E3D0A6B90E4623461C46272E04D08B
:1042B0005C2E20D0222E40F09780204608F0E4FCAF
:1042C000611C024620460AF0FCF821780029CDD076
:1042D000B142A04604F101041BD1404608F0D4FCD1
:1042E0002146024640460AF0ECF898F80060444641
:1042F000002ED9D1BAE7204608F0C6FC651C02465C
:10430000294620460AF0DDF866782C46002ECDD1ED
:10431000ACE75C2998F80110D8D1B1428C4608D19D
:10432000404608F0B1FC2146024640460AF0C9F872
:10433000B5E7302925D10025022218F802C0ACF1DA
:104340003000C0B2072819D8ED000132EDB2052ABD
:1043500045EA0005F1D1511E4144404603920291C5
:1043600008F092FC039A0299023A821A40460AF037
:10437000A8F898F8011088F80050A7E7D2B2022AEE
:10438000E9D1BCF1780F2AD10025022018F80020CD
:10439000A2F1300C5FFA8CFCBCF1090F09D82D0199
:1043A000EDB24CEA0505022801D00422D3E7032030
:1043B000ECE7A2F1610CBCF1050F05D82D01EDB2BF
:1043C000573A1543EDB2EEE7A2F1410CBCF1050FEF
:1043D00003D82D01EDB2373AF3E7022802D108F1F4
:1043E000010473E70322B6E71AF806301B073FF50E
:1043F00049AF6678631C002E7FF457AF1C4635E743
:10440000304605B0BDE8F08F200D010038B50B46F1
:10441000154648B91449154A521AB3EB920F05D202
:1044200051F82350284638BD84680CB90025F9E7B7
:104430000F4A94420AD30F4A944207D21846226880
:10444000294690472B68002BECD1EFE70A4A9442AB
:1044500002D30A4A944205D3246814225343E51830
:10446000E358F0E70133F8E710E900001CE9000029
:104470000CEA00000CEA00001CE900000CEA000055
:10448000014908F08FBC00BF70F500002DE9F0472E
:104490008568DFF86890044605F14600FCF7BEFA2F
:1044A000002395F82C7086B29846A268558DED1BB6
:1044B000B54209DB002E1FDD463360691049BDE8B7
:1044C000F0471A4408F06EBC1D442A44463392F863
:1044D00046A082F84680A26860691A44494608F0FE
:1044E00061FCA3682B4483F846A0A3685B8DDB1BAB
:1044F000F61A00272B46D8E7BDE8F087C60A010068
:10450000530801002DE9F04183681746B3F84220B3
:104510000D46D3F86412463213444A07044621D5A7
:104520001846FCF77BFADFF848800646A6B9A36870
:10453000B3F84020A3F84220A06808F040FC20B166
:1045400007B115B16069FFF79BFF6942204609B2C8
:10455000BDE8F04108F074BC6069414608F022FCF7
:10456000013EE3E7034A082108F000FDDFE700BF52
:1045700015FD00005308010013B583688DF807107E
:10458000D3F864220446D00725D5B3F84210B3F817
:1045900040208A421FD0481CA3F842000B449DF8DB
:1045A000072083F84620A368D3F86412890710D542
:1045B000D3F8643260690B4913F0040F18BF2A2244
:1045C00008F0F0FB204608F00FFC10B16069FFF71F
:1045D00057FF02B010BD01220DF10701204608F07F
:1045E000D3FCF6E707F2000010B58368094A1B68A0
:1045F0000446022108F0BAFCA368D3F864329B0792
:1046000007D52046FFF742FF2046BDE8104008F0DE
:1046100003BC10BD53080100014908F021BD00BFD3
:1046200070F500002DE9F047054690460E4600293A
:1046300065D0DFF8D0900024335D19F803301A07F5
:104640001ED43046FCF7EAF9AB685A8D80B2001BE5
:10465000A2EB0803984206EB040A13D9514600273F
:1046600011F8010B19F800C01CF0080F02D00A283D
:104670002DD03B4608EB0700824227D90137EFE7F0
:104680000134D9E753460027B84214D013F8012B60
:104690000A2A19D1686908F0CDFA51463A462846E7
:1046A00008F019FC6869FFF7B7FF01344146284656
:1046B0003C4408F098FB6869311908F0D1FC68693E
:1046C000BDE8F047FFF7A8BF0137DDE71F4668697F
:1046D00008F0B0FA3A465146284608F0FCFB3C4444
:1046E000335D19F803301B0707D46869FFF794FF9F
:1046F0004146284608F077FBA3E70134F0E7BDE820
:10470000F08700BF200D01002DE9F04F0F4600217A
:1047100089B0044616460D4603AA384601F1010841
:10472000FFF774FE98B97DB126B1324608212046C4
:1047300008F01CFCDFF8A880002103AA384601F12C
:10474000010AFFF763FE60B909B0BDE8F08F0068A9
:1047500010B1FCF763F980B2854238BF0546414687
:10476000DAE7D0F800B0BBF1000F1AD09BF80020B8
:10477000BAB1D0F804905846FCF750F920222E1A0E
:104780008DF80B20CDF800B0164A4346082120468C
:10479000B6B208F0EBFBB9F1000F1DD16069FFF76D
:1047A0003BFF5146C9E701220DF10B01204608F0FD
:1047B00092FB0BF1010B1FFA8BF29642F3D82046C5
:1047C000094A4346082108F0D1FBAA1D92B2494686
:1047D0002046FFF727FFE4E74FF0000BEBE700BFB1
:1047E000D3F70000C0F70000F6F10000F7B50F683E
:1047F00005460E46A7B13846FCF710F984B2094BBE
:1048000000932846084A3B46082108F0AFFBE21C0B
:10481000716892B2284603B0BDE8F040FFF702BFCE
:104820003C46ECE7CFF70000C0F7000010B50749A1
:104830000446FCF7E9F838B105492046FCF7E4F8EE
:10484000B0FA80F0400910BD0120FCE7C5F7000078
:10485000C8F7000008B5044807F030FCBDE8084080
:10486000024807F02BBC00BFD6F700000BF8000091
:10487000014807F02BB900BF38EB000038B50446FB
:1048800018B90F4B0F485B6898476168B1F5683FEE
:1048900010D0B1F5680F0DD00B4DA9420AD011F41C
:1048A0006861206807D00146084809F082FA0023B1
:1048B0002360656038BD142209F01DFEF9E700BFD2
:1048C000E405002039F800002C5F5CA97425002065
:1048D00008B520B34368B3F5683F10D101220368DF
:1048E000BFF35B8F53E8001F002903D143E800208A
:1048F0000028F7D1BFF35B8F0DD1002008BD094A16
:1049000093420AD000684FF0FF324FF0FF3305F0BA
:10491000FFFE0028F1D00448F0E70448EEE76FF40A
:10492000E040EBE72C5F5CA9E98FFFFFEA8FFFFF18
:1049300008B5D8B14368B3F5683F10D100220368C9
:10494000BFF35B8F53E8001F012903D143E8002028
:104950000028F7D1BFF35B8F0BD1002008BD074AB9
:10496000934208D0006805F04BFFF6E76FF4E04093
:10497000F4E70348F2E70348F0E700BF2C5F5CA9C7
:10498000E98FFFFFEA8FFFFF10B5044618B91D4BF2
:104990001D485B6898476368B3F5683F2FD0B3F54F
:1049A000680F2CD0194A934219D1236803BB1848C9
:1049B0004FF0FF324FF0FF33214605F07BFE08B980
:1049C00023681BB90F4B13485B6898472068142273
:1049D000002109F090FD4FF46863636008E0B3F5CF
:1049E000683F0DD83A2B03D040F6BA629342DED12D
:1049F000206809F017FA636843F03A03636010BD5A
:104A0000054AF3E7E405002039F800002C5F5CA9B3
:104A1000742500205FF800003A00003A08B5064906
:104A200006484023142209F0B6F9BDE808400449BD
:104A3000044807F0BDB800BF742000207425002092
:104A400040EB000054EB00002DE9F047054600AFB5
:104A50000C46002963D0DFF808A1DAF800305A07C5
:104A60005DD06E468AB0D1E90001A3686A46DFF8DE
:104A7000F480DFF8F4C0C2F814C04FF00609C2E9B0
:104A80000680C2E9081342F8109F00234FF44151F9
:104A90005046FEF75DFADAF800305B07B5463ED0C7
:104AA0008AB0D4E9030163696A46DFF8C0C0536283
:104AB000C2E905C8C2E9070142F8109F0023504629
:104AC0004FF44151FEF744FADAF800305807B54682
:104AD00025D088B0E3696A462549D3614FF00409BF
:104AE000C2E9051842F8109F00234FF401515046C7
:104AF000FEF72EFADAF800305907B5460FD088B025
:104B0000A3696A461B49D361C2E9051842F8109FA0
:104B100000234FF401515046FEF71AFAB546012D15
:104B200017D1EFF305830E480268520711D06E4685
:104B300088B06A4610495161103BD3610F499161B9
:104B4000042342F8103F00234FF40151FEF700FA0E
:104B5000B5462146284605F0CFFBBD46BDE8F087A7
:104B6000380700204EF900008CF80000BFF8000064
:104B7000F2F8000005F9000037F9000057F90000CD
:104B800030BFFFF7FDBF00BF074A936893F90E10CF
:104B9000002907DB526993421FBF044A536843F060
:104BA00080535360704700BF1427002000ED00E0E1
:104BB0002DE9F041694C23680646580700AF0D46C1
:104BC0000FD0E84688B06A46654B5361654B9361E8
:104BD000032342F8103F4FF4C251204608F05CFA1C
:104BE000C546614B9B6AD90440F19D8023685A07F2
:104BF0000FD0E84688B06A465C4B5361594B9361CD
:104C0000032342F8103F55484FF4C25108F044FACC
:104C1000C5461720544B9B6A1B0513D523685807BC
:104C20000FD0E84688B06A46514B53614D4B9361B3
:104C3000032342F8103F49484FF4C25108F02CFAC0
:104C4000C5461820484B9B6A990532D523685A07F8
:104C50000FD0E84688B06A46464B5361414B93619A
:104C6000032342F8103F3D484FF4C25108F014FAB4
:104C7000C5463D4B996B9B6A1B0419D523685807A1
:104C800010D0E84688B06A463B4B5361354B3348F9
:104C9000C2E90631042342F8103F4FF4015108F0F5
:104CA000FBF9C54626B1304A936A23F40043936268
:104CB00019202D4B9B6A5A0513D523685B070FD02B
:104CC0006E4688B06A462D4B5361264B9361032391
:104CD00042F8103F21484FF4C25108F0DDF9B546C3
:104CE0001A20214B9A6AD6051FD5236859070FD081
:104CF0006C4688B06A46224B53611A4B936103237A
:104D000042F8103F15484FF4C25108F0C5F9A546C6
:104D10001B20154A936A43F47F43936200232B7050
:104D2000BD46BDE8F081162074E79B6A9A04F0D571
:104D300023685B070FD06C4688B06A46114B5361FD
:104D4000084B9361032342F8103F04484FF4C251CB
:104D500008F0A2F9A5461C20DBE700BF38070020B9
:104D600069F9000044FD000000ED00E083F9000057
:104D700098F90000AFF90000CCF90000E5F9000057
:104D800004FA000020FA0000B0B5584C23685D0713
:104D900000AF0FD06D4688B06A46554B5361554BF6
:104DA0009361032342F8103F4FF4C251204608F0AC
:104DB00073F9AD46504B9B6A980140F1958023688A
:104DC00059070FD06D4688B06A464C4B5361494B2A
:104DD0009361032342F8103F44484FF4C25108F056
:104DE0005BF9AD461E20444B9B6ADA0113D523685C
:104DF0005B070FD06D4688B06A46414B53613D4B0F
:104E00009361032342F8103F38484FF4C25108F031
:104E100043F9AD461F20384B9B6A1D0313D5236809
:104E200059070FD06D4688B06A46364B5361314BF7
:104E30009361032342F8103F2C484FF4C25108F00D
:104E40002BF9AD4621202C4B9B6A5A0313D52368BE
:104E50005B070FD06D4688B06A462B4B5361254BDC
:104E60009361032342F8103F20484FF4C25108F0E9
:104E700013F9AD462220204B9B6A9D0313D523686E
:104E800059070FD06D4688B06A46204B5361194BC5
:104E90009361032342F8103F14484FF4C25108F0C5
:104EA000FBF8AD462320144B9B6ADA0313D5236825
:104EB0005B070FD06C4688B06A46154B53610D4BAB
:104EC0009361032342F8103F08484FF4C25108F0A1
:104ED000E3F8A5462420084A936A6FEA03436FEA81
:104EE00013439362BD46B0BD1D207CE73807002008
:104EF00053FA000038FD000000ED00E06FFA0000FA
:104F000086FA0000A4FA0000C6FA0000EFFA0000DA
:104F10000DFB00002DE9F0476E4D2B688A465907BE
:104F200000AF814690460FD06C4688B06A466A4B07
:104F300053616A4B9361032342F8103F4FF4C2510F
:104F4000284608F0A9F8A546654B9B6ADA0665D5A0
:104F50002B685B070FD06C4688B06A46614B536183
:104F60005E4B9361032342F8103F5A484FF4C251FD
:104F700008F092F8A5461124594B9B6A1E0713D5D9
:104F80002B6858070FD06C4688B06A46564B536161
:104F9000524B9361032342F8103F4E484FF4C251E5
:104FA00008F07AF8A54612244D4B9B6A990737D52D
:104FB0002B685A070FD06C4688B06A464B4B53613A
:104FC000464B9361032342F8103F42484FF4C251CD
:104FD00008F062F8A546424B5E6B9B6A1B0676D5CD
:104FE0002B685C0710D06C4688B06A46404B536112
:104FF0003A4B3848C2E90636042342F8103F4FF4D2
:10500000015108F049F8A546BAF1000F04D0344A1E
:10501000936A23F080039362132403E01024ABE728
:105020006FF015062E4B9B6AD80713D52B685907CE
:105030000FD06C4688B06A462E4B5361274B936164
:10504000032342F8103F23484FF4C25108F024F8DC
:10505000A5461424224B9B6A9A0613D52B685B073E
:105060000FD06C4688B06A46234B53611B4B93614B
:10507000032342F8103F17484FF4C25108F00CF8D0
:10508000A5461524164B9A6AD50602D49A6A90074B
:105090000AD55B68190507D54946304600F028FB5C
:1050A00010B180F3098802240D4B9A6A920642BF20
:1050B0005A6A22F400525A629A6A42F0FF029A62D5
:1050C0002046002388F80030BD46BDE8F0876FF029
:1050D0001506A1E7380700203CFB00004EFD00004C
:1050E00000ED00E056FB000098F900008DFB000089
:1050F000A9FB0000C3FB000020FA00002DE9F041ED
:105100009D4B8AB0D3F8048000AF0446C8F308066C
:10511000002585F31188BFF36F8F02F07F43B3F151
:105120007F4F16D102F00C03082B26D19348036859
:1051300059070ED06C4688B06A46914B5361914B2B
:105140009361032342F8103F4FF4C25107F0A4FFCC
:10515000A54600252C460023FB71F31E092B00F207
:10516000E580DFE813F00F00CB00CE00C700E300BE
:10517000E300E300E300E300D10012074CBF0C465C
:105180000125E8E77D4E33685B070FD0E84688B01D
:105190006A467D4B53617D4B9361032342F8103F78
:1051A0004FF4C251304607F077FFC5460023FB712C
:1051B000714BDA6A900714D5336859070FD06E46E1
:1051C00088B06A46724B5361704B9361032342F877
:1051D000103F6A484FF4C25107F05EFFB546002306
:1051E00058E0DA6A002A07DA33685A07F7D06E46C1
:1051F00088B06A46674BE6E7DB6A5B00EFD5336849
:1052000058070FD0E84688B06A46634B53615F4B3E
:105210009361032342F8103F58484FF4C25107F0FE
:105220003BFFC546544BA1695A6942F480725A61EA
:10523000BFF34F8FBFF36F8F5A6931F8021C22F40E
:1052400080725A61BFF34F8FBFF36F8F4DF60272BA
:10525000914209D09A6AD2B2002A3DD0FA1D0121AA
:105260002046FFF757FE47E03368590711D06E46D6
:1052700088B023686A464949516144493F48C2E9B8
:105280000613042342F8103F4FF4015107F004FFC6
:10529000B5462368FA79DAB907F1080604F1200C5B
:1052A00020686168324603C2083464451646F7D167
:1052B0007A6A002D5BD0C2F3080121B96FEA52224D
:1052C0006FEA42227A6207F108011846FFF7BCFB39
:1052D0002837BD46BDE8F0819A6A12F47F4F04D0AA
:1052E000F91D0120FFF764FC06E09B6AB3F5803FDF
:1052F000FFF475AFFFF748FD0346CBE7FA1D002129
:10530000AEE7F91D0020EDE71C4803685A073FF49B
:1053100066AF6E4688B06A46214B5361214B93615C
:10532000032342F8103F4FF4C25155E71348036876
:105330005B073FF454AF1C4A1C4B18F4F87FE84657
:105340008AB018BF13466A46194951611949C2E922
:10535000061340F201339384103E174B16624FF44C
:10536000315142F8103F07F097FEC54637E722F467
:10537000FF7222F00102A5E700ED00E038070020EF
:1053800014FC00006AFD000043FC00005FFD00000B
:105390005EFC000083FC000095FC0000B8FC0000EF
:1053A000D8FC00002AFD0000FBFB0000E6FB00002B
:1053B00000FD000017FD000005000001044B5A69C4
:1053C00042F010025A615A6922F008025A6170478D
:1053D00000ED00E0EFF30880EFF3098101B57246BC
:1053E000FFF78CFE01BD00BF002080F31488BFF3DF
:1053F0006F8F03F0EBFC002011490860BFF34F8F63
:10540000104880F3088800F045F8202080F31188C8
:105410000D484FF0AA014FF4825208F09DFC0A4853
:105420004FF48251401880F30988EFF31480022171
:10543000084380F31488BFF36F8F00F021F9000058
:1054400094ED00E0809B002000730020BFF34F8F9D
:105450000549064BCA6802F4E0621343CB60BFF310
:105460004F8F00BFFDE700BF00ED00E00400FA052C
:105470000749D1F890200023C2F30722184693422F
:1054800000DB7047C1F89830C1F8A0000133F6E79F
:1054900000ED00E008B572B6002383F31388FFF730
:1054A000E7FF144B4FF0FF32C3F88020C3F884208D
:1054B000C3F88820C3F88C20C3F89020C3F8942048
:1054C000C3F89820C3F89C20C3F88021C3F8842136
:1054D000C3F88821C3F88C21C3F89021C3F8942124
:1054E000C3F89821C3F89C2162B6BFF34F8FBFF376
:1054F0006F8F08BD00E100E0084B9B6883420BD131
:10550000EFF3058343B1064B5A6842F080525A606C
:105510005A6A22F400425A6208F0C6BD14270020DD
:1055200000ED00E00A4A93686FF00A01C3F8B0107A
:105530000849C3F8AC004B6843F080534B6000232C
:1055400083F31188BFF36F8F9368D3F8B00070476F
:105550001427002000ED00E010B50446EFF311839E
:10556000202383F31288BFF36F8F0A4B586998602A
:10557000094B4FF000625A600022D0F8AC30C0F8FE
:10558000AC2083F31188BFF36F8F00F017F920462A
:1055900010BD00BF1427002000ED00E00B498A6811
:1055A0004FF030001044EFF3098C80E8F01F744690
:1055B0007046FFF7D1FFA64604498A6802F1300021
:1055C00090E8F01F8CF30988704700001427002032
:1055D0001EF0040F0CBFEFF30880EFF30980816920
:1055E00011F8021C0229FFD001B507F04AFD01BDE8
:1055F00040B2002807DB044A4109012300F01F00E4
:10560000834042F82130704700E100E040B20028BA
:105610000CDB4309064900F01F00203301228240C1
:1056200041F82320BFF34F8FBFF36F8F704700BF48
:1056300000E100E0054B420900F01F0053F8222072
:10564000012303FA00F01040704700BF00E100E0C2
:1056500040B20028A8BF00F1604001F10101B8BFCD
:10566000064B4FEA4111ACBF00F5614000F00F005E
:10567000C9B2B4BF195480F80013704714ED00E0AC
:105680000B4A08B50B4B22F07F029A60BFF34F8F95
:10569000BFF36F8FD3F8882022F47002C3F88820FC
:1056A00004F03CFF05F0FAFE00F05EF804F07EFF27
:1056B0000000000000ED00E042F8203C009B42F8B2
:1056C0001C3C0A49019B42F8183C029B42F8143CDE
:1056D00021F001014FF0807342F8043C42F8081CAD
:1056E0000023203A0265C0F8AC307047F1C00000DA
:1056F0000A4A0346906878B113F1160FD0F89C005F
:1057000005D0A0F140029A4205D8834203D28142DB
:1057100028BF002070470020704700BF14270020DA
:1057200008B50B4B0E461546986000F047F82C461E
:1057300086F309884FF00000064B984720464FF04B
:1057400000014FF000024FF00003034C204700BF60
:1057500014270020A7D00000F1C00000014B102248
:105760001A61704700ED00E0044800232021C218B0
:105770000133302B82F80013F9D1704700E100E0CB
:1057800008B5EFF30583064A103B02EBC30152F85C
:10579000330049688847BDE80840FFF7F5B900BF06
:1057A000B0E60000024B034A0348012100F0BCB8F8
:1057B000000004200000002064EB0000D0F89C20D2
:1057C000054B403A1A60054A4021C3E901121846C8
:1057D000012100F0B3B800BF9025002000000B1598
:1057E00098B503460C480268520700AF10D06C46CB
:1057F00088B06A46094951610949C2E90613042380
:1058000042F8103F00234FF40151FDF7A1FBA546DC
:105810006FF01500BD4698BD3407002076FD0000EE
:10582000C7FD000010B40E4CD4F89030C3F307232A
:10583000013B984202D910BCFFF7D2BFC4F89800D0
:105840000B6823F01F03034343F01003C4F89C309C
:105850008B6843F00103C4F8A03010BC704700BF50
:1058600000ED00E02DE9F04184B00E4600AF98460F
:1058700004460025B5421FDA6068002835D0B8F12B
:10588000000F23D0411E08421BD0194803685B0754
:1058900010D06C4688B06A46164B5361164BC2E96D
:1058A0000635042342F8103F00234FF40151FDF761
:1058B0004FFBA5466FF0150210461037BD46BDE8F8
:1058C000F0811F28E1D923681942DED123687B606B
:1058D00007F00CFCA368391D0343D0B2FB60FFF74F
:1058E000A1FF10F1160FE5D0421C01350C34C1E7C1
:1058F00034070020A0FD0000E0FD0000044B05225D
:10590000C3F89420BFF34F8FBFF36F8F704700BF72
:1059100000ED00E0BFF35F8F024B0022C3F894203C
:10592000704700BF00ED00E010B5034C0123227862
:10593000FFF798FF207010BD633A002008B50B4AAE
:1059400000231278FFF78EFF10F1160F07D0084AD8
:105950000021D2F89030C3F30723984200DB08BD42
:10596000C2F89800C2F8A0100130F2E7633A0020B4
:1059700000ED00E02DE9F04357485849D0F8903049
:105980000D68C3F307239D4285B000F2A180FFF7A5
:10599000C1FF49680022954201F10C011AD1504C17
:1059A000504F25706846FDF7BFFEDFF83C81DFF8F9
:1059B0003C9106460025AE421FD12378464900207F
:1059C000D1F89020C2F3072293427BDBFFF796FFCA
:1059D00000204CE0C0F8982051F80C3C23F01F0345
:1059E000134343F01003C0F89C3051F8043C43F0DB
:1059F0000103C0F8A0300132CDE7009800EB05119B
:105A00004FEA051CCB683B40B3F5000F44D00AD8E1
:105A1000B3F5001F2ED0B3F5800F34D0B3F5801F3F
:105A200010D00135C7E7B3F1807F3ED0B3F1007FDE
:105A3000F7D150F80C3088684A6807F057FB40F4FB
:105A4000802009E050F80C3088684A6807F04EFB67
:105A500040F0885040F43020039001A92078CDE92F
:105A60000123FFF7DFFE002828DA6FF0150005B0EC
:105A7000BDE8F08350F80C3088684A6807F036FBC0
:105A800040EA0800E8E750F80C3088684A6807F0F8
:105A90002DFB40EA0900DFE750F80C3088684A68BF
:105AA00007F024FB40F08270D6E750F80C3088688D
:105AB0004A6807F01BFB40F08870CDE7237801337C
:105AC0002370AEE7C1F89830C1F8A000013377E742
:105AD0004FF0FF30CBE700BF00ED00E070EB0000BF
