:1000000040990020E53D00000DD10000D13D0000E9
:10001000D13D0000D13D0000D13D000000000000B6
:10002000000000000000000000000000613F000030
:10003000D13D000000000000FD3E0000D13D000069
:100040002541000025410000254100002541000018
:100050002541000025410000254100002541000008
:1000600025410000254100002541000025410000F8
:1000700025410000254100002541000025410000E8
:1000800025410000254100002541000025410000D8
:1000900025410000254100002541000025410000C8
:1000A00025410000254100002541000025410000B8
:1000B00025410000254100002541000025410000A8
:1000C0002541000025410000254100002541000098
:1000D0002541000025410000254100002541000088
:1000E0002541000025410000254100002541000078
:1000F0002541000025410000254100002541000068
:100100007BB972B90029BEBF00204FF0004106E064
:1001100008BF00281CBF6FF000414FF0FF3000F017
:1001200057B8ADF1080C6DE904CE002909DB002BAE
:100130001ADB00F074F8DDF804E0DDE9022304B016
:100140007047404261EB4101002B1BDB00F067F878
:10015000DDF804E0DDE9022304B0404261EB410137
:10016000524263EB43037047524263EB430300F098
:1001700056F8DDF804E0DDE9022304B0404261EB0B
:1001800041017047524263EB430300F048F8DDF849
:1001900004E0DDE9022304B0524263EB43037047FD
:1001A00053B94AB9002908BF00281CBF4FF0FF31DE
:1001B0004FF0FF3000F00CB8ADF1080C6DE904CE43
:1001C00000F02DF8DDF804E0DDE9022304B070470B
:1001D000704700BF10F8012B11F8013B012A28BF1E
:1001E0009A42F7D0D01A7047034613F8012B002A21
:1001F000FBD1181A01387047430803F05533C01A71
:1002000000F03333800800F03330184400EB101056
:100210004FF0013300F00F305843000E70472DE9C6
:10022000F04786468C460846089E15467446194691
:10023000002B40F0C2808542B2FA82F245D94AB121
:10024000C2F1200300FA02FC2EFA03F3954043EAC0
:100250000C0C94404FEA154EA8B2BCFBFEF8230CE0
:100260000EFB18CC08FB00F943EA0C43994528D94A
:10027000EB1808F1FF3704D2994502D9A8F102071B
:100280002B44A3EB0903A4B2B3FBFEFC0EFB1C330F
:100290000CFB00F044EA0344A04214D92C190CF1E1
:1002A000FF3304D2A04202D9ACF102032C44241A39
:1002B00043EA07401EB1D440002334607360BDE8B8
:1002C000F0874746DDE76346F1E792BB431B012118
:1002D0004FEA154EAFB2B3FBFEFC200C0EFB1C33F5
:1002E0000CFB07F840EA0343984562D9EB180CF180
:1002F000FF3004D2984502D9ACF102002B44A3EBA5
:100300000803A4B2B3FBFEFC0EFB1C330CFB07F787
:1003100044EA0344A7424ED92C190CF1FF3304D20E
:10032000A74202D9ACF102032C44E41B43EA00408B
:10033000C0E7C2F1200320FA03F1954090402EFA65
:1003400003F303434FEA154EAFB2B1FBFEFC0EFBC5
:100350001C10190C0CFB07F841EA0041884504FA0F
:1003600002F422D969180CF1FF3004D2884502D971
:10037000ACF102002944A1EB08019BB2B1FBFEFCE9
:100380000EFB1C110CFB07F743EA01439F420ED9F9
:10039000EB180CF1FF3104D29F4202D9ACF10201FB
:1003A0002B44DB1B41EA004192E76046E3E76146EC
:1003B000F7E76046A3E76346B7E7834206D916B975
:1003C000002108467BE7C6E900E0F9E7B3FA83F7C6
:1003D0008FB9834201D3724508D8BEEB020460EBAB
:1003E000030301209C461EB9002168E73846FAE75E
:1003F000C6E9004CF8E7C7F1200CBB4022FA0CF428
:100400001C432EFA0CF120FA0CF3B84001434FEADA
:1004100014490EFA07F5B3FBF9F81FFA84FE09FB3D
:1004200018300B0C08FB0EFA43EA00439A4502FA17
:1004300007F240D9E31808F1FF3004D29A4502D9F7
:10044000A8F102002344A3EB0A0389B2B3FBF9F835
:1004500009FB183308FB0EFE41EA03418E452CD9F7
:10046000611808F1FF3304D28E4502D9A8F10203C6
:10047000214443EA0040A0FB0298A1EB0E01414554
:10048000CE46434602D306D14D4504D2B9EB020E07
:1004900068EB04030138002EA6D0B5EB0E0261EB29
:1004A000030101FA0CFC22FA07F34CEA0303F940BA
:1004B000C6E9003198E74046C5E74346D9E7000062
:1004C0002DE9F047064688B00F4690460EF014FB23
:1004D0004FF47A73A0FB034503FB0155E40B012F96
:1004E00044EA45444FEAD53507D1294922462B46EF
:1004F00030460CF081FA002012E0D8F8047025484C
:100500003946FFF767FE70B123483946FFF762FEB0
:1005100048B1304621493A460CF08AFA6FF004009F
:1005200008B0BDE8F0872046294617A3D3E9002389
:10053000FFF7E6FD05460C4610461946184A00230B
:10054000FFF7DEFD80460F46104619464EF6602244
:100550000023FFF7D5FD82468946104619464FF421
:100560007A720023FFF7CCFDCDE902A9CDE906237D
:10057000CDE90401CDE900870A492A4623463046E1
:100580000CF03AFAB7E700BF005C26050000000057
:100590007CFC00008DFC000090FC000099FC000039
:1005A00080EE3600B1FC000098B51E48036800AF2D
:1005B00003F00703D9B101292CD07BB16C4688B078
:1005C0006A46194B5361194BC2E90631042342F8BC
:1005D000103F4FF401510BF0DCFBA546002383F3E1
:1005E0001188BFF36F8F0323184602DF10E0022B40
:1005F0000ED96C4688B06A460D4B53610B4B936124
:10060000032342F8103F4FF4C6510BF0C2FBA5463E
:10061000BD4698BD022BFBD96C4688B06A46054B97
:10062000EBE700BFFC0400203DF800007FF900006C
:1006300014F8000027F800002DE9F047654C84B05D
:10064000236803F00703022B00AF0FD96D4688B073
:100650006A46614B5361614B9361032342F8103F3B
:100660004FF4C65120460BF094FBAD465C4E5D49FD
:10067000B36800221B6830469847D8B123685D07ED
:1006800010D06D4688B06A46574B5361534BC2E950
:100690000630042342F8103F4E484FF401510BF04E
:1006A00078FBAD46002383F31188BFF36F8F0323DC
:1006B000184602DFDFF82881DFF83091474DB36834
:1006C00007F10801DB6840469847236800284CD0B2
:1006D00059070FD0EA4688B06A46454BD061C2E957
:1006E0000535042342F8103F4FF4015139480BF00F
:1006F00050FBD546B36807F10C015B68404698474C
:100700002368002842D05A070FD0EA4688B06A46CC
:10071000384BD061C2E90535042342F8103F4FF44D
:1007200001512C480BF035FBD546B368F91D9B6889
:1007300040469847236800283AD05B070FD0EA4626
:1007400088B06A462C4BD061C2E90535042342F8D3
:10075000103F4FF401511F480BF01BFBD546002101
:100760004FF400400EF01FF9A9E703F00703022B36
:10077000C0D9EA4688B0BB686A46D3610423C2E99F
:1007800005954FF4035142F8103FAFE703F007031C
:10079000022BCAD9EA4688B0FB686A461749D3617A
:1007A0000423C2E9051542F8103F4FF40351B8E79E
:1007B00003F00703022BD2D9EA4688B0FB796A46D8
:1007C0000F49D3610423C2E9051542F8103F4FF4E5
:1007D0000351C0E7FC04002053F800007AF9000040
:1007E000A0EF0000A905000078F80000D4F8000090
:1007F000A2F80000EFF8000036F900001EF9000032
:1008000065F900002DE9F04F91B08407009302F0E4
:1008100004030293C2F3C20303F10103DDF868800D
:10082000039205460E46059340F0BA81041D30B18F
:10083000072909D86FF01B0011B0BDE8F08F01F057
:1008400007063444C6F10806009B4FF00009591E04
:100850004FF0040A4FF0FF330193CDF810904F464C
:10086000CB4653460DB1009A22600598002800F34C
:10087000E8809848009A824203D397488242C0F0A9
:10088000E080039AA4EB050E92074FEA9E0000F168
:1008900003810F2F00F2B180002D00F0058107F1D8
:1008A00040020DEB020C019A0CF8200C0CF8102CF5
:1008B000049801300490E7E07A285DD84B280ED8E0
:1008C000472859D829282DD8252852D054D820284F
:1008D0007AD02338D0F1000B4BEB000B74E04C388E
:1008E0002E2849D8DFE800F0704848484848484872
:1008F000484848484B484848484848484859484B61
:100900004B595959704B6D487048184B18484882DC
:100910007F4B48484B487F0000204FF0000B4FF0C2
:10092000040A38E02A38C0B2012202FA00F010EAC4
:100930000E0F49D110F0625C2FD110EA020B43D0A8
:100940006046013C5444B4FBFAF40AFB04F4002D65
:1009500061D0A3EB050CA444B4453FF66BAF00286F
:1009600068D1042B47D158F8043B23600434042396
:100970002AE0019A013A01924FF0000B24E011F8AD
:10098000010C6C2834D111F8023C00206C2B8346FA
:10099000C5D14FF0080A5346D3E708F1070828F0FD
:1009A00007080734F8E802AB24F0070435B10698CD
:1009B0002044B0423FF63EAFC4E900AB08344FF0EC
:1009C000000B4FF0080A534611F8010F002878D0A9
:1009D000BBF1000F7FF470AF2528F5D1019B0133E7
:1009E00001934FF0010B4FF0040AECE7584694E7EF
:1009F00000208346A5E7082B02D06FF015001BE707
:100A000008F1070828F00708F8E80223C4E90023E2
:100A100008340823D8E768B9042B02D108F1040888
:100A2000A4E7082BE9D108F1070828F0070808F126
:100A30000808EDE7059A013A059258F8042B009250
:100A400010E7039A900720D5A4EB050E4FEA9E000D
:100A50004FF0010CBEF5007FCFD20F2FCDD8F5B1EE
:100A600007F140020DEB020EC0B2019A0EF8200C05
:100A70000EF8102CBCF1000F3FF41AAF60F07F00AD
:100A80000EF8200C09F101090137C5F10802043400
:100A900006924FF6DA7E97E74FF0000CDAE7BCF1EA
:100AA000000F01D00136EFE7029802360028EBD1A3
:100AB0000098CDE90631FFF797FBDDE906310644E2
:100AC000E2E7631BB3F5806F97D23DB9A6F1080446
:100AD000E018B1E6C8ED000010190100029A286084
:100AE0009B082B709DF81030C2B1EB7085F8029016
:100AF000B9F1000F05D008A80022C5F1010C9742FA
:100B00000ED1C5F101030DF120084FF0000A019349
:100B10000DF1300B574512D1601B8DE66B70E5E788
:100B200010F8013B190608D50CEB040EB64503F08E
:100B30007F033FF67FAE04F8013B0132DFE7B9F1F6
:100B4000000F03D098F90020002A17DB029BD3B1D5
:100B50001AF80B2004F8012B0022019B18191044ED
:100B6000B0423FF667AE98F8000004F8010B009918
:100B7000039220460EF0E6F8039A14440AF1010AA3
:100B800008F10108C6E798F8002055F822300093D4
:100B9000029B45F822300098FFF726FB421CDCE759
:100BA0006FF00D0048E600BF2DE9F04F97B000AFA1
:100BB00090F802A0D7F880B03B62CBF3C0030446A4
:100BC000FA62BB61894641B9457800780AEB80003A
:100BD00020444D4517D8A0EB0409E378FB61BAF136
:100BE000000F02D01BF0010F16D1FB6953BBFB6A4B
:100BF0001BB13A6A4946204698474D4628465C371D
:100C0000BD46BDE8F08F461C3046FFF7EDFA0130D7
:100C1000304409F10109DCE7237862687A62FA6AF4
:100C20009900796104EB8301002A40F006814D466A
:100C30000E4601EB0A094FF00008B14552D101EB15
:100C40000A0610E01BF0020FD1D023789A007A61D7
:100C500062687A62FA6A04EB8301002A7DD14D460C
:100C600001EB0A0690461BF0050F0CBF022301237F
:100C7000FB62FB6906EB430A0BF00203BB625645BD
:100C8000BCD016F8021B16F8013C54F823909C4B7C
:100C9000994502D39B4B99453CD3BB69002B46D069
:100CA000786A0BF013F9002841D09748036813F0D5
:100CB000060F15D0E9468AB06A46944B5361944BAF
:100CC00093617B6AC2E9073140F201339384914B0F
:100CD00042F8103F00234FF4325100F01BFECD4686
:100CE000023DCCE716F8013BF96254F82300FFF708
:100CF0007BFAD7F88430F96A01304BB1D7F88830E5
:100D000098453EBFD7F8843023F8180008F1010851
:100D1000054492E7BB6923B1786A0BF0D7F8002845
:100D2000C3D11BF0010F05D1FB6AED1AA7E7BB6A1F
:100D3000002BA4D04846FFF757FAD7F8843053B1B8
:100D4000D7F8883098453FBFD7F88420431C22F855
:100D5000183008F10108054491E7BAF1000F72D08C
:100D60001BF0040872D0D04607F148000026524616
:100D70003B61B9620DF0E6FFB96A3B6901EB0A021B
:100D8000BA62FA69F9695200FA60BA6A02EB410282
:100D90003A610BF00202BA603A69B96A8A4257D1E5
:100DA00062787A621BF0020F32440CBF4FEA58019E
:100DB00000211BF0010FD2B240F09F801BF0040F06
:100DC00014BF40460020BB616270A070E1703A6AB7
:100DD0007969FB6A20469847051EFFF60FAFBB698D
:100DE00023707B6A6370FB69E37041463A6AFB6A71
:100DF00084F802A007F148009847B0F10008C0F25B
:100E0000BD807B693A6AA9EB0A01C91AFB68C91A55
:100E1000D7E90A0398470028C0F2B280A84408EB3B
:100E200000054FF0000B07F1380AB34574D30021D9
:100E30003A6AFB6A08469847E0E6564607F13800EA
:100E40004FF0000893E7D046564697E7464695E7A9
:100E5000BA6A12F8021BBA6212F8015C284A54F806
:100E60002500904202D3274A90421ED3BA6932B17C
:100E7000786A7B600BF02AF87B6800288CD1BA680E
:100E800002BB08F1280207F1300C08F1010094447C
:100E900007F1580252FA80F008F102080CF8101C11
:100EA0005FFA88F800F8105C76E7BA693AB1786AB8
:100EB0007B600BF00BF87B6800287FF46DAF1BF0B4
:100EC000010F09D006F1280207F13000711C161835
:100ED00006F8205CCEB25FE71BF0040F3FF45CAF76
:100EE00008F1280207F1300008F1010102EB0008C7
:100EF00008F8105C5FFA81F84EE7002063E700BF56
:100F0000C8ED000010190100D40400209AF9000077
:100F100041FA0000050000011BF80A3087F837305D
:100F200054F82390D7F884302BB3D7F888309B45FA
:100F300021D2D7F8843033F81B803A6AFB6A01214A
:100F400007F13700984700281ADB0544B8F1000F75
:100F500006D14846FFF748F900F101081FFA88F862
:100F60003A6AFB6A414648469847002808DB054430
:100F70000BF1010B59E74FF00008DEE745463DE66F
:100F800005463BE6014B1860704700BF3802002061
:100F900080B505460E461746984609F029FE0346D9
:100FA0000DF008FFDFF81890044649F8003042467B
:100FB00030463946A84754F8090002F089FF00BFBF
:100FC0000800000008B50446EFF31183202383F3E3
:100FD0001288BFF36F8F06F04BF8204603F0C8FA73
:100FE00002480AF09CFF0CF0A9F8FCE76BFA00003D
:100FF0002DE9F047058B04462807904611D40229B5
:1010000005F0070540F0CC8020460BF013FA78B1CC
:101010000138218B042811D8DFE800F0C2106D855B
:10102000950001290CBF45F0100545F020052583EA
:1010300088F31188BFF36F8FBDE8F08701F0070ACE
:10104000AA4500F0A5800027B9463E46A368002BBC
:1010500000F0BC8041F00801218388F31188BFF3C0
:101060006F8FA168002900F0BA800D68002900F098
:10107000B680D1F80480334652462046C047002D42
:1010800076D02B6829461D46F0E701F007035A1F6A
:10109000012A1BD8002221F00701062B276889B2FC
:1010A000C4E9002209D13B4603E0628B013262832E
:1010B0001B68002BF9D141F00201218320460BF07F
:1010C000B9F900287AD041F0200176E0042B0AD14A
:1010D00021F0070189B2218320460BF0ABF910B152
:1010E00041F020012183218B01F0070AAA454FD04E
:1010F0000027B946AAE7236921F0070141F006015C
:10110000062DD3F8009021832DD1B9F1000F3FD0E7
:1011100041F00801218388F31188BFF36F8F3A49AA
:101120002046C84729E021F00701236941F0040166
:1011300089B2042DD3F804902183E6D000273E46DF
:101140004FF0040A82E721F00701236941F005010D
:1011500089B2052DD3F808902183D6D000273E46CA
:101160004FF0050A72E700273E464FF0060A6DE78A
:101170002B4687E7B9F1000FD1D1EFF31188202377
:1011800083F31288BFF36F8F238B23F0080323832D
:10119000258BEA062ED525F01003238305F00705DD
:1011A0006669218B002EBFF670AF00232768C4E963
:1011B000003321F0070141F001012183218B01F06F
:1011C000070AAA454FF000097FF440AF002F9CD0DA
:1011D00041F00801218388F31188BFF36F8F002F3E
:1011E000C8D03D6839463346524620460BF04EF98A
:1011F0002F46F4E7AB067FF51BAF25F020032383D2
:1012000005F0070500E700BFB9C400002DE9F0476D
:10121000DFF85880044607464FF0010914B93846F4
:10122000BDE8F08794FAA4F5B5FA85F509FA05F357
:101230002E0108EB05156FEA030A24EA03042B7B51
:10124000002BEBD058F806301B694BB946440422FA
:1012500073682846196807EA0A070BF0FFF9DDE70B
:10126000284698470028D9D1F0E700BF74F2000063
:1012700030B51049104889B000220DF03FFC0F4DE9
:101280000F4900220023CDE9062300240E23CDE9D7
:101290000334CDE901440B4B00944FF4006228461F
:1012A00009F03CF90849284609F068F8204609B0D9
:1012B00030BD00BFCD1200001017002048060020EE
:1012C00040580020351600009FFA0000014808F041
:1012D00045BE00BF880500202DE9F0478046214823
:1012E0000F460BF093F90646002833D00025284618
:1012F000BDE8F087237B83B12368DB680BB1204610
:101300009847636883F8069023681B69D3B96368BC
:101310000422196820460BF0A1F901361034544517
:10132000E8D3B8F1000FE2D0002DDFD02846FFF758
:101330006DFF0546002FF7D000214FF4A4700DF08B
:1013400032FBF1E7204698470028E0D009FA06F37F
:101350001D43E2E7044CDFF814A005464FF00109F5
:10136000DDE700BFC01B002074F2000084F2000023
:10137000014B53F8200070470CF4000008B50346F9
:1013800008462BB1044A136000F074FD002008BD2C
:101390006FF01500FBE700BF3C02002010B5044CC5
:1013A000237813B9034808F0D9FD0123237010BD39
:1013B000CE2600208805002010B504460B480BF00F
:1013C00025F95CB1BFF35B8F094B53E8001F01396E
:1013D00043E80012002AF8D1BFF35B8F05480DF0F7
:1013E00099FB0548BDE8104008F0B8BDB81B0020C7
:1013F000BC1B002010170020880500200020064B91
:10140000BFF35B8F014653E8000F43E80012002A48
:10141000F9D1BFF35B8F7047B81B002070B5FFF7A1
:10142000EDFF084C084E0546B44200D370BD63681A
:101430005B792BB123685B6813B129462046984736
:101440001034F1E774F2000084F2000010B5044C8F
:10145000044920460AF080FE034B1C6010BD00BF0B
:1014600094040020F8F30000B01B00200E4A0F483F
:10147000002310B513700E4A13600E4A4FF400415A
:101480001360FFF77BFFFFF7E1FF00F06DF90A4BF8
:101490000A4918468B4200D310BD1A1A5C68121113
:1014A000013222711033F5E7CF26002009C6000073
:1014B000B81B0020BC1B002074F2000084F2000066
:1014C00001460022014800230AF067BE9404002070
:1014D00001480AF000BF00BF94040020024B0146FF
:1014E00018680AF053BF00BFB01B002001480AF083
:1014F00088BF00BF940400202DE9F041364B1878D6
:10150000002866D0FFF7E4FF044600285DD1334B86
:10151000334C1B68002B19DD0DF0EEFA4FF47A7294
:10152000A0FB020302FB0131C30BD4E9002043EA14
:1015300041439B1A4FEAD13140F2E93261EB00019D
:10154000934271F1000101D3FFF768FFD4E9003243
:1015500013F57A7342F10002C4E90032BDE8F041AC
:10156000FFF7C4BF6B685B793BB121784B0717D598
:101570002B6821461B682846984710354545F1D30E
:101580002046FFF7ABFFBFF35B8F164B53E8001FFE
:10159000013943E80012002AF8D1BFF35B8FB6E7A8
:1015A00020462688C1F3C20700F0A2FAC6F38216CD
:1015B0000246002EDCD00028DADB0123394628461B
:1015C00000F082F9B042D8D3D2E7074DDFF81C8093
:1015D000D4E7BDE8F08100BFCE260020B81B002074
:1015E00008170020BC1B002074F2000084F20000E9
:1015F00070B50D4D297861B90120FFF76DFE0B4CD8
:101600000B4EB44206D3FFF777FF0028FBD101232E
:101610002B7070BD63685B791BB1236820469B68A3
:1016200098471034EDE700BFCF26002074F2000089
:1016300084F2000000212DE9F0470846FFF74CFE38
:10164000044658B340F267684FF000090DF0B2FB52
:101650001B4B1C4A1B58136033B11B4B1B68002BE0
:1016600002DD1A4808F07AFC194FDFF860A0002567
:1016700044B12046FFF7CAFD044618B94FF0FF38C1
:101680004FF0FF39FFF738FF064628B9B5B9424693
:101690004B46504608F096FC3546E9E74FF0FF38D8
:1016A0004FF0FF39D2E72B689B691BB1002211462E
:1016B000284698471035BD42F5D3E8E7054DFAE7CF
:1016C00008000000B41B0020BC1B0020880500207F
:1016D00084F2000074F2000010B50F480AF096FF83
:1016E0000E4B1B786BB1EFF31184202383F3128828
:1016F000BFF36F8FFFF700FF84F31188BFF36F8F85
:1017000010BD074B1B68002BFAD00028F8D1054804
:10171000BDE8104008F022BCBC1B0020CF260020F2
:10172000B41B00208805002010B5064B1B6804463A
:1017300098472146A06004480AF0AEFDBDE810407D
:10174000FFF7CABF3C02002094040020044A054B66
:101750009B1AB1EBD30F34BF52F831000020704711
:10176000CCF1000074F200000B480C4B30B51B1A92
:101770000B4CDB0800210430994200D130BD10F839
:101780003120256802F0070225F007052A4344F8B6
:10179000042B0131F0E700BFCCF1000074F200002F
:1017A000D0040020F8B50B4F0B4DED1B0646ED089D
:1017B0000024AC4203D14FF0FF342046F8BD57F867
:1017C000340020B13146FEF705FD0028F5D0013484
:1017D000EFE700BFCCF1000074F2000000282DE913
:1017E000F047884615461F461DDADFF89890264ECA
:1017F0004FF0000AA6EB090636095446B24509F136
:10180000100902D12046BDE8F08759F80C0C3B4680
:1018100000792A464146FFF7E1FF844238BF04467B
:101820000AF1010AEAE7194B194AD21AB5EBD20FAD
:1018300026D203EBC5031C79BC4228BF3C46154E9B
:10184000C0B200EB400056F825300722824023EA60
:10185000020304F00702824013430021032223FA0B
:1018600002F000F00700814202F1030238BF014696
:101870001E2AF4D123F007030B4346F82530C1E7B5
:101880000024DCE774F2000084F20000CCF10000D8
:1018900074F20000D0040020F8B5094D094BED1A90
:1018A00006460F46ED080024AC4200D3F8BD0021E7
:1018B00022B23B46304601340AF0C8FEA4B2F3E738
:1018C00074F20000CCF1000070B14168097973B185
:1018D000002A17DBCBB20C4951F8220003EB43037B
:1018E000D84000F0070070474FF0FF31EFE707499D
:1018F0000748401AB2EBD00F3ABF01EBC20108799A
:101900001846704704207047D0040020CCF1000036
:1019100074F200002DE9F04F8FB004AFC1F34A28F4
:10192000B8600D4691467B600C0DB8F1000F69D090
:10193000002607F114034FF0040B4FF00A0AC7F812
:101940000C80C7E907667E620193CDF808B0CDF838
:1019500000A007F11C03F96832464846FFF724F956
:10196000B0F5006F034622D32B48036813F0060F2F
:1019700019D06C468AB0D9F8041004AB274D5D61CC
:10198000274DC3E9065140F2FF7119621A4640F231
:1019900001319984234B42F8103F4FF432513346C2
:1019A000FFF7B8FFA5462C37BD46BDE8F08FC0F362
:1019B0000A0804F11700184420F0070080083B6073
:1019C000FFF77EFD68F35325044690B13B68164A45
:1019D000C7E9083600F1100107F11403F961CDE9F8
:1019E00000A3CDF808B0F96807F11C034846FFF7DB
:1019F000DBF868F353257B68B9682A4620460AF06D
:101A000055FED0E704F1170020F007008008FFF72B
:101A100057FD0446EDE700BFF4040020B4FA0000CF
:101A20004DFB0000050000017FC600002DE9F04FCE
:101A300087B002AFD7E91069BD6B79600446934661
:101A400098464EB3C7F80C90CDF80090FA6B334629
:101A500010210020FEF7D6FEB0F5006F82461CD3A1
:101A60002048036813F0060F12D06C4688B002AA13
:101A70001D4B53611D4B936140F2FF73D3610423EF
:101A800042F8103F00234FF40251FFF743FFA546F1
:101A90001437BD46BDE8F08FB24605F1170050443B
:101AA00020F0070004F007048008FFF709FD0BF0A1
:101AB000070BE40044EA8B1444EA4A2444EA055440
:101AC000054640B13EB1CDF80090FA6B3346514621
:101AD0001030FEF797FE79684346224628460AF002
:101AE000E5FDD5E7F4040020F7FA000033FB000021
:101AF000406820B1034BC01A40F38F0070474FF08D
:101B0000FF307047D00400200EB403B503AB01468C
:101B100053F8042B0448019302F0CAFC02B05DF8AC
:101B200004EB03B0704700BF15C70000CA0605D418
:101B30008B064CBF02490349FFF7E6BF704700BF61
:101B400080FF0000FDFB00002DE9F04F89B09B46AF
:101B5000149B06939DF84CA0159B0593169B179E0E
:101B6000049304460D469046BAF1000F00F09D80A4
:101B700006F4807307930AF067FD06F00209024637
:101B800000283ED091492046FFF7BEFF0746B9F135
:101B9000000F08D016F0440F35D18D492A46204653
:101BA000FFF7B2FF074406F0010353B1894B8A499E
:101BB00053F82A20894B2046002A08BF1A46FFF70F
:101BC000A3FF06F48073002B49D006F00803002B16
:101BD00063D1B8F1000F66D0814942462046FFF735
:101BE00093FF0546069B3D44002B6DD1049B002BC3
:101BF00073D1F30700F1E48031462046FFF796FFEA
:101C0000D8E00746C3E7774B18680028CAD0764B60
:101C10004FF47A791B68B5FBF3F54FF46163B5FBBC
:101C2000F0F100FB115509FB05F54FF03C0CB1FB41
:101C3000F3F203FB1211B5FBF0FEB1FBFCF300FB6A
:101C40001E550CFB131109FB05F50091B5FBF0F5D2
:101C50006649CDE901E52046FFF756FFA2E706F009
:101C60000803EBB1624B634953F82A202046FFF783
:101C70004BFF0546B8F1000F05D0594942462046B2
:101C8000FFF742FF0544BBF1000FABD05A495A465B
:101C90002046FFF739FF0544A4E74FF0000BE1E7CA
:101CA00006F00805E6E745469CE7BBF1010F069BF9
:101CB00006D1002B64D1049B002B7BD000250CE0C7
:101CC000002BF8D04D485CE04D48069B4D4922461C
:101CD0000AF0CBF8049B002B68D0DFF82C81DFF8EA
:101CE0002C91049F3146102F204628BF1027FFF764
:101CF0001DFF4FF0000B5D4545DC059B49461A78FA
:101D00002046FFF701FF4FF0010B1BF0070F03D137
:101D100041462046FFF7F8FE5F453BD9059B494603
:101D200013F80B202046FFF7EFFE0BF1010BBBF180
:101D3000100FEAD1364920464FF0000BFFF7E4FEC2
:101D40005A46059B9A5CA2F120015F2928BF2E22EA
:101D500030492046FFF7D8FE0BF1010BBBF1100F05
:101D60001DD01BF0070F03D141462046FFF7CCFEE4
:101D70005F455A46E5D841462046FFF7C5FEEBE7EA
:101D80001F485546A1E741462046FFF7BDFE0BF12F
:101D9000010BB0E720492046FFF7B6FEC5E7059BDB
:101DA0003B440593049BDB1B04939AD1BAF1000FCB
:101DB0007FF41FAF204609B0BDE8F04F0AF09DBC8C
:101DC000064A05492046FFF79FFE15E7000301007C
:101DD00071FB00001CF40000C30901006CFB000053
:101DE00096FB0000C81B0020C41B00207AFB0000EB
:101DF00030F400009AFB0000A0FB00004BC700007D
:101E000015C70000B1440000ADFB0000A5FB0000B9
:101E1000AFFB0000B1FB0000ABFB000073B542F26A
:101E20000F738B4228BF0B4605680F4A04460521F5
:101E3000684609F0BFFC63680C495B6806460422EB
:101E400028460AF04CFC63683246694628465B68BF
:101E50000AF045FC636806495B68172228460AF0C9
:101E60003EFC02B070BD00BFDE090100CCFB0000EB
:101E7000B4FB0000074A00210123904206D8064A1D
:101E800001B901231360054B1860704740085B00DF
:101E90000121F2E740420F00C41B0020C81B0020B4
:101EA000014B002019607047E01B002007B500239C
:101EB0000093084A08494FF48053012007F02AFD97
:101EC000064B01221A70064B064A1A6003B05DF8F1
:101ED00004FB00BFEA270020E1FB0000D026002021
:101EE000EC1B0020D32600200148FFF797BF00BF5E
:101EF00060F4000010B5064B18680C46FFF738FA7E
:101F000021460346BDE8104002480E22184700BF94
:101F1000E01B002060F40000F8B5094D094B0A4EA3
:101F2000D5E9004701221A700CB92C60F8BD214692
:101F300030463A4600F01EF8241A0644F4E700BF83
:101F4000D41B0020D1260020D226002010B9074B38
:101F500018707047064B1B781BB142F210700CF0E2
:101F600009BB4FF4A47000210CF01DBDD026002049
:101F7000D12600202DE9F74F524F01903B780C46B7
:101F800043B9514F8246019B23449A452BD324EAFF
:101F9000E4700CE04D4E012501992246012007F026
:101FA0001BFCA8B1012333703B7843B9204603B032
:101FB000BDE8F08F2846FFF7C9FF6F1E3D460120A0
:101FC00007F09EFC0028F1D03378002BF2D1EDE72A
:101FD0003378002BEAD0013D2846FFF7B7FF33786E
:101FE000002BD9D1E2E71AF8012B3B680A2A61D10C
:101FF000374DDFF8E0905A1B012A04BF01333B60E4
:10200000D7F80080D9F800B00D2308F8013C08F19A
:1020100001020A23BBF1000F3A6088F8003029DD85
:102020002D4B196831BB2A495E46632EA2EB05028F
:1020300001F11700A8BF63260CF092FE274A24493D
:10204000254B02F1140052F804CB41F804CB824234
:10205000F9D1108892788A7008F118020880BBF1D3
:10206000090F3A604FF001021A6011DC202330366C
:102070006B752E753A681649521B012007F0ACFBB0
:1020800090B9D9F800300133C9F800303D607AE7E3
:102090000A22B6FBF2F302FB1366303330362B759F
:1020A0003E236E75EB74E5E70B4A0023C9F8003058
:1020B0001360EBE70A498B423EBF591C39601A7026
:1020C00061E700BFD1260020EC1B0020D0260020B5
:1020D000D3260020E81B0020E41B0020E8FB0000C2
:1020E000D2270020014B03600020704770F40000ED
:1020F00010B504460BF0BDFB0349024620460AF02A
:102100007BFC002010BD00BF27FC000073B5134608
:1021100000220192044601AA58680A2100F054FEE8
:10212000019D95B920EAE0744FF40046294640F23B
:10213000E7304FF47A720023C4FB0601FEF730F853
:102140000CF031FC284602B070BD2A4602492046F8
:102150000AF06EFC019DF5E753FC000008B5034A48
:1021600003490AF049FC002008BD00BF43FD000000
:102170004AFD0000F7B517460023054601AA0A21CB
:10218000B868019300F020FE1749C6B228460AF04D
:1021900041FC019C44B12246144928460AF048FCFF
:1021A000019C204603B0F0BD042E09D910493246E7
:1021B00028460AF03DFC28460AF048FC0124F0E7D6
:1021C0007868FFF7EFFA021E07DA7A6809492846AD
:1021D0000AF02EFC6FF01504E3E7334612B22146F5
:1021E00020460AF033FADCE76DFD0000D3FD000065
:1021F000FAFD000011FE000007B5002300906946BB
:1022000004488DF8043008F051FE9DF8040003B036
:102210005DF804FBE1C7000010B5044604F01EFFA2
:102220000749024620460AF0E7FB204605490AF026
:10223000E3FB0548214608F053FE002010BD00BF17
:10224000A3FE0000C2FE00004D22000070B58EB05B
:1022500004460D46D0F8A8600CF0FBFA03460CF0DB
:10226000A9FD214A21491058214A002B18BF1A46BE
:102270000092204A2346844218BF0A4628461E4937
:102280000AF0BAFBD4E90A23CDE90023284694F9E1
:102290000E30227B19490AF0AFFB06A92022204606
:1022A00008F07CF8236F1649024628460AF0A4FB82
:1022B00005A920460CF0DBFA024628B11149284650
:1022C0000AF09AFB0EB070BD059B6422F11A4A43D6
:1022D0000091B2FBF6F20C49CDE901622846324684
:1022E0000AF08AFBEEE700BF08000000ADFB00002B
:1022F000CCFE000066080100CFFE0000DBFE0000FF
:1023000007FF00001EFF00004BFF0000F0B5002596
:1023100091B00446294608AF1C2209A80CF03AFDEA
:10232000134E1A22202138460CF034FD2146114864
:1023300008F0D6FD07AA4FF4805130460CF08BFA16
:10234000079A0097C2F5805164234B431B0B0593FA
:102350004FF48053CDE90313CDE9013220460649FD
:102360002B46A6F140020AF047FB284611B0F0BD0B
:10237000007100207D2300009CFF000070B5044622
:10238000D0F8A86088B00D4607A90CF070FA024694
:1023900028B10F4928460AF02FFB08B070BD20462F
:1023A0000CF057FA079B0096F11ACDE90131094B61
:1023B00064224A43002818BF0346B2FBF6F20649DE
:1023C000CDE90362284622460AF016FBE5E700BF86
:1023D0001EFF0000CCFE0000E5FF000038B51346EC
:1023E000054610225868002109F010FA0446FFF74C
:1023F00003FF38B90E49224628460AF019FB6FF050
:10240000150038BD0CF0D6FC0A4B1B589C4204D179
:10241000094928460AF00CFBF1E7204608F086F946
:102420002846064922460AF0E7FA0020E9E700BFFD
:102430004900010008000000640001008C00010058
:1024400038B51346054610225868002109F0DEF918
:102450000446FFF7D1FE38B90E49224628460AF055
:10246000E7FA6FF0150038BD0CF0A4FC0A4B1B58BE
:102470009C4204D1094928460AF0DAFAF1E72046DD
:1024800008F072FA2846064922460AF0B5FA0020FA
:10249000E9E700BF4900010008000000CB0001008F
:1024A000F100010038B51346054610225868002196
:1024B00009F0ACF90446FFF79FFE38B90E492246F1
:1024C00028460AF0B5FA6FF0150038BD0CF072FC22
:1024D0000A4B1B589C4204D1094928460AF0A8FA25
:1024E000F1E7204601F0F4FC2846064922460AF0AE
:1024F00083FA0020E9E700BF49000100080000005E
:102500002C0101005101010007B5064A0648126876
:10251000042300930021012300F016FB002003B0E8
:102520005DF804FBC4F4000084F2000037B5446891
:102530000A49226004F108052364002228460CF0B1
:10254000DDFA41F69A12E46300232846CDE9002320
:1025500008F0A4FE002003B030BD00BF0DC800008D
:1025600010B9034B18707047A42000210CF01BBA5F
:10257000EA3700202DE9F84F164ED0F804B088460F
:1025800014461D4604270BF0E8FF224682464146CA
:10259000002007F021F9814650460BF0E6FFB9F123
:1025A000000F0BD001233370DBF80030DBF8401054
:1025B000012098472C600020BDE8F88F3378002B6D
:1025C000F2D0013F3846FFF7CBFF3378002BDAD14A
:1025D000EAE700BFEA37002010B58368D3F86C3211
:1025E000DB07044616D4406803685B6898470146D9
:1025F00008B9A3681871A3685B6B0BB120469847B4
:10260000A3680CF0D7FB0022C3F88C22034B1858A8
:1026100001F05EFC6FF00F01EDE700BF0800000065
:1026200010B581680446083100F088FDA168034AAE
:1026300020460831BDE8104000F018BD99010100A6
:102640000EB403B5044904AA019200F06FFB02B076
:102650005DF804EB03B0704780FF000010B583689D
:1026600002221A718268936B0446EBB982F84A30F1
:102670008268A2F846308268A2F844308368D3F8B2
:102680006C32DB040BD50321084B094A0AF02CFC01
:10269000A0686FF4805100F51B700AF0DAF820464C
:1026A000BDE8104000F0A4BC10BD00BFA7010100B0
:1026B000C30901002DE9F04FA5B0044654220021C2
:1026C0000FA80CF067FB00230493A36820464A334D
:1026D00003930AF09CFB20460AF047FB18B9814996
:1026E0006069FFF7ADFFA0680027142200210830C1
:1026F0000CF050FB0DF13C0B4FF0FF38B9463D4656
:1027000002973E46BA46049B012B00F09C80142D94
:1027100040F09580022B40F09680734B734A012164
:102720000FE05946039A022304A80AF001FA04991B
:102730005BF8042F0392034631B101290AD148B155
:102740006B4A20460AF0D0FB6FF00705284625B0FB
:10275000BDE8F08F2DB35BF8040C00F021FD98B1BB
:1027600067B1A5680B9708350AAE0FCE0FC5336861
:102770002B602046FFF754FF0125E7E75D4A012162
:1027800020460AF0B1FBDFE7029BC3B108F1FF3836
:10279000FEB9049BB8F1000F01D1022BB3D1013572
:1027A000B1E7029B5BB108F1FF3896B9A368DB691A
:1027B000002B3BD0DB68002B38D0002633E05BF8E1
:1027C000041C05AA50460AF083FA08F1FF380646B1
:1027D00038B3F368ABB1A368B64603F1080CBEE8A2
:1027E0000F00ACE80F00DEF80030CCF80030B36822
:1027F00033B9737CFE2B04BF96F8108008F1FF38C4
:10280000A946D6F804C0BCF1000F08D0B646BEE811
:102810000F000AAF0FC7DEF800303B606746B246D4
:10282000B7E7002DC2D001230293B2E7324B0093E9
:10283000324A0F9B012120460AF056FBBDE7B8F152
:10284000000F7FF46EAFBAF1000F0AD09AF8113082
:10285000FE2B06D124AB03EB850353F8543C03B1A4
:102860000135A068436953B9002F3FF46DAFC368C9
:10287000BB423FF47EAF0B9700F1080574E7037E7F
:10288000A5EB0905B3B1417E4FF6FF72FF2918BFD2
:102890000A469D4202D313449D420BD98368184ACD
:1028A000012120460AF020FB2046FFF7B9FE6FF019
:1028B00015054BE7012109F0ECFFA06809F0DDFFE9
:1028C000A3680FAA29465B6902EB89022046984754
:1028D0000546A06809F0D5FFA068002109F0D9FFDE
:1028E00034E700BF80FF0000370201002CFE00002B
:1028F000EB010100FF010100230201001D020100A4
:102900005B0201002DE9F041ADF5805D82B000234E
:10291000044601930DF10305A3686068D3E90E78BE
:1029200003681E6901AB27B34FF4805202A9B04778
:10293000019BCBB10121A06809F0ABFFA06809F0B1
:102940009CFF4346019A02A92046B847A06809F0B7
:1029500098FFA068002109F09CFFA3689B6B002BE7
:10296000DAD12046FFF77AFE0DF5805D02B0BDE8B2
:10297000F08101222946B047019B002BF4D09DF93C
:1029800003209DF80330A068002AC5DB4279032AA2
:1029900000F28380DFE802F0027B83810D2B41D0BF
:1029A0000A2B22D0B0F86C22092B6FF3CA02A0F8D0
:1029B0006C224CD008D8002B4CD0082BA0684DD0EE
:1029C0000246D2F8683245E01B2BA0683CD07F2B32
:1029D0004ED0203B5E2B0246F3D809F049FF9DF80C
:1029E0000310204600F0CCFA34E0D0F86C22C2F399
:1029F000C7022AB1D0F86C22C2F3C7020A2ADFD17B
:102A0000B0F86C2263F3CA02A0F86C22A668B6F88C
:102A100044309BB94B496069FFF712FE2046FFF72F
:102A20001DFE79E7D0F86C22C2F3C702002AE7D076
:102A3000D0F86C22C2F3C7020D2AE0E72046FFF768
:102A400039FEC6F89002E9E70123437102E0A3686A
:102A5000D3F8683260690AF00BF85DE7D0F86832A5
:102A60009F07F7D509F004FF20460AF0A4FAF1E722
:102A7000D0F868329E07EDD509F0FAFEA368D3F8C6
:102A800068321807F0D420460AF076FAE2E75B2BAA
:102A900001D10223D9E7D0F868320023D5E700221C
:102AA0004271A268D2F8681289077FF535AF342BDE
:102AB0000AD8302BCED90321323B5171022B2DD8AD
:102AC000DFE803F0303A2800433BDAB2092AC1D8E4
:102AD000092BBFD801A252F823F000BF052B00003C
:102AE0000D2B0000552A0000152B0000552A000070
:102AF0001D2B0000552A0000552A0000552A000011
:102B0000252B000020460AF094F9A3E720460AF09E
:102B100087F99FE720460AF07AF99BE720460AF0FA
:102B20006FF997E7A068D0F8681201F0010181F011
:102B3000010109F0B9FE8DE7A368D3F868329B075D
:102B400088D5A0E780FF00002DE9F04304468068A7
:102B5000D0F88C9289B00F4615461E46B9F1000F89
:102B60005CD1904649464FF425720CF013F9A068E9
:102B700000F51C700CF04BF8A06800F51F700122E6
:102B800011460BF0A0FDA369C3F80090A0680221D4
:102B900000F51B7009F04EFEA36850225A85A36809
:102BA00018221A85A36822681A60D4F80890D9F808
:102BB000000010B1FDF718FB80B289F82C00A36863
:102BC000184A25F0360565F30708C3F8688260687F
:102BD000036839461D682346A8470546D0B9A3684F
:102BE00001221A71D4E90A0100220023CDE906234B
:102BF0000E230393109B0495CDE9016300940A4BC7
:102C00004FF4805207F08AFCA368C3F88C02616A13
:102C100007F0B4FB284609B0BDE8F0836FF07705F4
:102C2000F8E700BFFFC80000752C000010B504468F
:102C300080680379012B17D140F26762002309F005
:102C400078FE10B96FF00F0010BD09496069FFF7F9
:102C5000F7FC2046FFF702FD20460AF0BFF9A06806
:102C600009F00BFE0020EFE76FF08500ECE700BFF6
:102C700080FF00002DE9F34104468068154600F509
:102C80001B70002935D04FF4804109F0D3FDA368B3
:102C90001D646068036800219B68984770BB2046EC
:102CA000FFF7C4FF50BB174DDFF85C804FF0FF36D5
:102CB0004FF0FF37A06800F51C7000220721CDE916
:102CC00000670BF0B0FFA06809F0DBFD2A46042185
:102CD000204609F0F8FD20464246012109F0F3FDA7
:102CE000606803685B6903B19847A06809F0C5FD97
:102CF000E0E76FF4804109F0ACFDC8E702B0BDE841
:102D0000F08100BFD925000045C9000010B5054974
:102D1000044609F071FE2046034A002100F0A6F99E
:102D2000002010BD76020100CA02010010B5044661
:102D300013460A460146064801F0BAFB23691B798F
:102D400023B12046BDE8104009F092BE10BD00BF7F
:102D500089CA000038B50B46154648B91449154ACA
:102D6000521AB3EB920F05D251F82350284638BDC2
:102D700084680CB90025F9E70F4A94420AD30F4A38
:102D8000944207D218462268294690472B68002BA8
:102D9000ECD1EFE70A4A944202D30A4A944205D39F
:102DA000246814225343E518E358F0E70133F8E7A9
:102DB000B4F20000BCF20000E8F30000E8F3000009
:102DC000BCF20000E8F30000F7B503782D2B0446B1
:102DD000164605D16FF015033360002003B0F0BD37
:102DE0000BF0E8FF0B4F00230546C3510A4620466F
:102DF00001A908F00BFDEB59222B02D16FF0210342
:102E0000EAE7002BE6D1019BA342E3D01B78002B1D
:102E1000E4D0DFE70C000000014909F084BF00BFE7
:102E200080FF00002DE9F0478568DFF868900446D0
:102E300005F14A00FDF7D8F9002395F82C7086B209
:102E40009846A268558DED1BB54209DB002E1FDDAB
:102E50004A3360691049BDE8F0471A4409F063BF7E
:102E60001D442A444A3392F84AA082F84A80A26854
:102E700060691A44494609F056FFA3682B4483F859
:102E80004AA0A3685B8DDB1BF61A00272B46D8E708
:102E9000BDE8F0872CFE0000C30901002DE9F84FC2
:102EA000D0F80890D9F86832B9F846605B07054653
:102EB0000F46904624D506F14A004844FDF794F9A0
:102EC0002C4E0446B4B9AB68B3F84420A3F84620AE
:102ED000A86809F035FF30B1B8F1000F00D017B184
:102EE0006869FFF799FF7942284609B2BDE8F84FB3
:102EF00009F067BF6869314609F015FF013CE1E759
:102F0000D9F80000B9F844A010B1FDF76DF980B20E
:102F1000B9F82A3082448419B4FBF3F2BAFBF3F314
:102F20009A42B3461CD0144EAB685445CBDA5A8D46
:102F3000B4FBF2F302FB134304F1010913B968690E
:102F4000FFF76AFFAB685B440BF1010493F84A306A
:102F5000324608212846A34609F0C6FF4C46E3E75F
:102F60004A36064A09EB06030821284609F0BCFF49
:102F7000A9E700BF66080100B1FB0000C30901001A
:102F800013B583688DF80710D3F868220446D0077C
:102F900025D5B3F84610B3F844208A421FD0481C08
:102FA000A3F846000B449DF8072083F84A20A36845
:102FB000D3F86812890710D5D3F8683260690B49D5
:102FC00013F0040F18BF2A2209F0ADFE204609F0C5
:102FD000CCFE10B16069FFF71FFF02B010BD0122E7
:102FE0000DF10701204609F08DFFF6E7B1FB000067
:102FF00010B58368094A1B680446022109F074FF72
:10300000A368D3F868329B0707D52046FFF70AFF6D
:103010002046BDE8104009F0C0BE10BDC309010044
:10302000014909F0F0BF00BF80FF0000F8B50F466E
:103030005168044615461E4611B11A4609F0F0FFC4
:10304000AB6883B13146204609F08EFE2046064A21
:103050003B46082109F048FFA968F21D2046BDE85B
:10306000F84009F0DDBFF8BDF90201002DE9F04F8D
:103070000F46002189B0044616460D4603AA38467D
:1030800001F10108FFF766FEA8B98DB126B13246FD
:103090000821204609F028FFDFF89090DFF890B073
:1030A000002103AA384601F1010AFFF753FE60B977
:1030B00009B0BDE8F08F006810B1FDF795F880B257
:1030C000854238BF05464146D8E7D0F80080B8F1C0
:1030D000000F0FD098F8003063B14668154ACDE96B
:1030E00000584B460821204609F0FEFE26B96069CB
:1030F000FFF796FF5146D4E74B465A460821204633
:1031000009F0F2FEAB1DB2079BB209D131680A4A41
:10311000914205D1324641462046FFF787FFE9E755
:103120001A463146204609F07BFFE3E71E03010003
:10313000A0FB000004030100C40BD286F7B50F68A2
:1031400005460E46EFB13846FDF74EF884B2114BF6
:10315000009308213B46104A284609F0C5FE7168D5
:10316000E31C9BB279B18A070DD108680B4A9042E3
:1031700009D10A463168284603B0BDE8F040FFF7A0
:1031800055BF3C46E3E71A46284603B0BDE8F04089
:1031900009F046BF1A0301000B030100C40BD286DD
:1031A00010B507490446FDF715F838B10549204622
:1031B000FDF710F8B0FA80F0400910BD0120FCE7DF
:1031C000100301001303010008B5044808F0A7FE2E
:1031D000034808F0A4FE002008BD00BF270301003B
:1031E0005C030100014808F03DB900BF08F500008C
:1031F00038B5044618B90F4B0F485B6898476168AB
:10320000B1F5683F10D0B1F5680F0DD00B4DA94254
:103210000AD011F46861206807D0014608480BF015
:1032200000FA00232360656038BD14220BF0B2FD64
:10323000F9E700BF1C0400208A0301002C5F5CA991
:103240008823002008B520B34368B3F5683F10D148
:1032500001220368BFF35B8F53E8001F002903D1ED
:1032600043E800200028F7D1BFF35B8F0DD1002089
:1032700008BD094A93420AD000684FF0FF324FF070
:10328000FF3306F0A3FD0028F1D00448F0E704481E
:10329000EEE76FF4E040EBE72C5F5CA9E98FFFFFFE
:1032A000EA8FFFFF08B5D8B14368B3F5683F10D186
:1032B00000220368BFF35B8F53E8001F012903D18D
:1032C00043E800200028F7D1BFF35B8F0BD100202B
:1032D00008BD074A934208D0006806F0EFFDF6E704
:1032E0006FF4E040F4E70348F2E70348F0E700BF7B
:1032F0002C5F5CA9E98FFFFFEA8FFFFF10B5044642
:1033000018B91D4B1D485B6898476368B3F5683F63
:103310002FD0B3F5680F2CD0194A934219D12368E6
:1033200003BB18484FF0FF324FF0FF33214606F041
:103330001FFD08B923681BB90F4B13485B689847FA
:103340002068142200210BF025FD4FF468636360B0
:1033500008E0B3F5683F0DD83A2B03D040F6BA62C7
:103360009342DED120680BF0A7F9636843F03A037B
:10337000636010BD054AF3E71C0400208A030100C6
:103380002C5F5CA988230020B00301003A00003ABA
:1033900008B506490648402314220BF034F9BDE86D
:1033A00008400449044808F0CFB800BF881E002038
:1033B0008823002010F5000024F5000008B503481C
:1033C000034A0021121A09F099FE08BDA005002049
:1033D000205800200748084A084908B5121A09F081
:1033E0008FFE0748074A0849BDE80840121A09F04D
:1033F00087BE00BF000000209805002010190100C2
:103400000000002000000020101901002DE9F04705
:10341000054600AF0C46002963D0DFF808A1DAF8B2
:1034200000305A075DD06E468AB0D1E90001A3682A
:103430006A46DFF8F480DFF8F4C0C2F814C04FF039
:103440000609C2E90680C2E9081342F8109F00236A
:103450004FF441515046FEF75DFADAF800305B0751
:10346000B5463ED08AB0D4E9030163696A46DFF805
:10347000C0C05362C2E905C8C2E9070142F8109F03
:10348000002350464FF44151FEF744FADAF8003079
:103490005807B54625D088B0E3696A462549D36107
:1034A0004FF00409C2E9051842F8109F00234FF4B9
:1034B00001515046FEF72EFADAF800305907B546AA
:1034C0000FD088B0A3696A461B49D361C2E90518C9
:1034D00042F8109F00234FF401515046FEF71AFAAC
:1034E000B546012D17D1EFF305830E480268520748
:1034F00011D06E4688B06A4610495161103BD361C5
:103500000F499161042342F8103F00234FF4015109
:10351000FEF700FAB5462146284606F061FABD4698
:10352000BDE8F087040500209F040100DD030100D1
:103530001004010043040100560401008804010046
:10354000A804010030BFFFF7FDBF00BF2DE9F04127
:103550000B4EDFF8308006EB0807CC1B05463246E1
:10356000094920460BF0EEFBA01942460021083C19
:103570000BF010FCC5F8B44007F10800BDE8F0817D
:103580000000000008000000E8F30000054B5A6945
:103590009B689A421FBF044A536843F080535360AC
:1035A000704700BFBC24002000ED00E02DE9F04191
:1035B000694C23680646580700AF0D460FD0E84611
:1035C00088B06A46654B5361654B9361032342F8AB
:1035D000103F4FF4C251204609F09FFDC546614B94
:1035E0009B6AD90440F19D8023685A070FD0E846B2
:1035F00088B06A465C4B5361594B9361032342F890
:10360000103F55484FF4C25109F087FDC5461720B9
:10361000544B9B6A1B0513D5236858070FD0E84607
:1036200088B06A46514B53614D4B9361032342F876
:10363000103F49484FF4C25109F06FFDC5461820AC
:10364000484B9B6A990532D523685A070FD0E84644
:1036500088B06A46464B5361414B9361032342F85D
:10366000103F3D484FF4C25109F057FDC5463D4B50
:10367000996B9B6A1B0419D52368580710D0E8463C
:1036800088B06A463B4B5361354B3348C2E906313B
:10369000042342F8103F4FF4015109F03EFDC546A6
:1036A00026B1304A936A23F40043936219202D4BCC
:1036B0009B6A5A0513D523685B070FD06E4688B006
:1036C0006A462D4B5361264B9361032342F8103F0A
:1036D00021484FF4C25109F020FDB5461A20214B74
:1036E0009A6AD6051FD5236859070FD06C4688B053
:1036F0006A46224B53611A4B9361032342F8103FF1
:1037000015484FF4C25109F008FDA5461B20154A83
:10371000936A43F47F43936200232B70BD46BDE858
:10372000F081162074E79B6A9A04F0D523685B0742
:103730000FD06C4688B06A46114B5361084B9361B9
:10374000032342F8103F04484FF4C25109F0E5FC4E
:10375000A5461C20DBE700BF04050020BA040100D9
:103760009508010000ED00E0D4040100E904010027
:10377000000501001D050100360501005505010089
:1037800071050100B0B5584C23685D0700AF0FD03C
:103790006D4688B06A46554B5361554B9361032380
:1037A00042F8103F4FF4C251204609F0B6FCAD4636
:1037B000504B9B6A980140F19580236859070FD0C0
:1037C0006D4688B06A464C4B5361494B9361032365
:1037D00042F8103F44484FF4C25109F09EFCAD46F8
:1037E0001E20444B9B6ADA0113D523685B070FD078
:1037F0006D4688B06A46414B53613D4B936103234C
:1038000042F8103F38484FF4C25109F086FCAD46EB
:103810001F20384B9B6A1D0313D5236859070FD00F
:103820006D4688B06A46364B5361314B9361032332
:1038300042F8103F2C484FF4C25109F06EFCAD46DF
:1038400021202C4B9B6A5A0313D523685B070FD0AA
:103850006D4688B06A462B4B5361254B9361032319
:1038600042F8103F20484FF4C25109F056FCAD46D3
:103870002220204B9B6A9D0313D5236859070FD044
:103880006D4688B06A46204B5361194B9361032300
:1038900042F8103F14484FF4C25109F03EFCAD46C7
:1038A0002320144B9B6ADA0313D523685B070FD0E0
:1038B0006C4688B06A46154B53610D4B93610323E8
:1038C00042F8103F08484FF4C25109F026FCA546C3
:1038D0002420084A936A6FEA03436FEA1343936212
:1038E000BD46B0BD1D207CE704050020A4050100F5
:1038F0008908010000ED00E0C0050100D7050100C6
:10390000F505010017060100400601005E060100F2
:103910002DE9F0476E4D2B688A46590700AF814666
:1039200090460FD06C4688B06A466A4B53616A4B2A
:103930009361032342F8103F4FF4C251284609F027
:10394000ECFBA546654B9B6ADA0665D52B685B07E1
:103950000FD06C4688B06A46614B53615E4B9361F1
:10396000032342F8103F5A484FF4C25109F0D5FBE7
:10397000A5461124594B9B6A1E0713D52B6858077F
:103980000FD06C4688B06A46564B5361524B9361D8
:10399000032342F8103F4E484FF4C25109F0BDFBDB
:1039A000A54612244D4B9B6A990737D52B685A07B9
:1039B0000FD06C4688B06A464B4B5361464B9361BF
:1039C000032342F8103F42484FF4C25109F0A5FBCF
:1039D000A546424B5E6B9B6A1B0676D52B685C073F
:1039E00010D06C4688B06A46404B53613A4B384819
:1039F000C2E90636042342F8103F4FF4015109F0A2
:103A00008CFBA546BAF1000F04D0344A936A23F028
:103A100080039362132403E01024ABE76FF01506D4
:103A20002E4B9B6AD80713D52B6859070FD06C46CD
:103A300088B06A462E4B5361274B9361032342F8AB
:103A4000103F23484FF4C25109F067FBA5461424E8
:103A5000224B9B6A9A0613D52B685B070FD06C46E6
:103A600088B06A46234B53611B4B9361032342F892
:103A7000103F17484FF4C25109F04FFBA5461524DB
:103A8000164B9A6AD50602D49A6A90070AD55B68E3
:103A9000190507D54946304600F0FAFA10B180F30F
:103AA000098802240D4B9A6A920642BF5A6A22F490
:103AB00000525A629A6A42F0FF029A62204600233C
:103AC00088F80030BD46BDE8F0876FF01506A1E725
:103AD000040500208D0601009F08010000ED00E0B4
:103AE000A7060100E9040100DE060100FA06010054
:103AF00014070100710501002DE9F0419D4B8AB0CA
:103B0000D3F8048000AF0446C8F30806002585F307
:103B10001188BFF36F8F02F07F43B3F17F4F16D14F
:103B200002F00C03082B26D19348036859070ED0E6
:103B30006C4688B06A46914B5361914B9361032365
:103B400042F8103F4FF4C25109F0E7FAA5460025AC
:103B50002C460023FB71F31E092B00F2E580DFE801
:103B600013F00F00CB00CE00C700E300E300E3003A
:103B7000E300E300D10012074CBF0C460125E8E743
:103B80007D4E33685B070FD0E84688B06A467D4BB0
:103B900053617D4B9361032342F8103F4FF4C251B0
:103BA000304609F0BAFAC5460023FB71714BDA6A58
:103BB000900714D5336859070FD06E4688B06A460F
:103BC000724B5361704B9361032342F8103F6A4874
:103BD0004FF4C25109F0A1FAB546002358E0DA6A61
:103BE000002A07DA33685A07F7D06E4688B06A466B
:103BF000674BE6E7DB6A5B00EFD5336858070FD009
:103C0000E84688B06A46634B53615F4B9361032378
:103C100042F8103F58484FF4C25109F07EFAC546A9
:103C2000544BA1695A6942F480725A61BFF34F8FB5
:103C3000BFF36F8F5A6931F8021C22F480725A6107
:103C4000BFF34F8FBFF36F8F4DF60272914209D0D1
:103C50009A6AD2B2002A3DD0FA1D01212046FFF710
:103C600057FE47E03368590711D06E4688B0236885
:103C70006A464949516144493F48C2E90613042351
:103C800042F8103F4FF4015109F047FAB546236856
:103C9000FA79DAB907F1080604F1200C20686168A6
:103CA000324603C2083464451646F7D17A6A002DBD
:103CB0005BD0C2F3080121B96FEA52226FEA4222B7
:103CC0007A6207F108011846FFF7A0FB2837BD46C6
:103CD000BDE8F0819A6A12F47F4F04D0F91D0120EB
:103CE000FFF764FC06E09B6AB3F5803FFFF475AF15
:103CF000FFF748FD0346CBE7FA1D0021AEE7F91DAB
:103D00000020EDE71C4803685A073FF466AF6E4693
:103D100088B06A46214B5361214B9361032342F8DB
:103D2000103F4FF4C25155E7134803685B073FF457
:103D300054AF1C4A1C4B18F4F87FE8468AB018BFF1
:103D400013466A46194951611949C2E9061340F2FE
:103D500001339384103E174B16624FF4315142F8F1
:103D6000103F09F0DAF9C54637E722F4FF7222F076
:103D70000102A5E700ED00E0040500206507010051
:103D8000BB08010094070100B0080100AF07010063
:103D9000D4070100E6070100090801002908010015
:103DA0007B0801004C0701003707010051080100A2
:103DB0006808010005000001044B5A6942F0100236
:103DC0005A615A6922F008025A61704700ED00E01A
:103DD000EFF30880EFF3098101B57246FFF78CFE1F
:103DE00001BD00BF002080F31488BFF36F8F13481C
:103DF00080F3088803F0D2FE002011490860BFF369
:103E00004F8F00F033F8202080F311880D484FF0D9
:103E1000AA014FF4825209F071F90A484FF4825115
:103E2000401880F30988EFF314800221084380F3DF
:103E30001488BFF36F8F00F0FBF80000409900205A
:103E400094ED00E0C07000200749D1F890200023D5
:103E5000C2F307221846934200DB7047C1F898303E
:103E6000C1F8A0000133F6E700ED00E008B572B636
:103E7000002383F31388FFF7E7FF144B4FF0FF3263
:103E8000C3F88020C3F88420C3F88820C3F88C20AE
:103E9000C3F89020C3F89420C3F89820C3F89C205E
:103EA000C3F88021C3F88421C3F88821C3F88C218A
:103EB000C3F89021C3F89421C3F89821C3F89C213A
:103EC00062B6BFF34F8FBFF36F8F08BD00E100E014
:103ED000084B9B6883420BD1EFF3058343B1064B3C
:103EE0005A6842F080525A605A6A22F400425A627A
:103EF00006F084BEBC24002000ED00E015498A686D
:103F00004FF030001044EFF3098C80E8F01F2020C0
:103F100080F31288BFF36F8F0F4F4FF000664A692E
:103F20008A603E60D2F8B4000C4C2060D2F8B80031
:103F30000023C2F8B83080F3118804B5104600F0B1
:103F40000FF9BDE8044002F1300090E8F01F8CF357
:103F500009887047BC24002004ED00E0A423002061
:103F60001EF0040F0CBFEFF30880EFF309808169A6
:103F700011F8021C0229FFD001B5724609F0C2F8FF
:103F800001BD00BF40B2002807DB044A41090123FC
:103F900000F01F00834042F82130704700E100E04C
:103FA00040B200280CDB4309064900F01F00203313
:103FB0000122824041F82320BFF34F8FBFF36F8F60
:103FC000704700BF00E100E0054B420900F01F0010
:103FD00053F82220012303FA00F01040704700BF7D
:103FE00000E100E040B20028A8BF00F1604001F10C
:103FF0000101B8BF064B4FEA4111ACBF00F561406B
:1040000000F00F00C9B2B4BF195480F80013704714
:1040100014ED00E0044B054A23F07F039360BFF3E7
:104020004F8FBFF36F8F70470000000000ED00E07E
:1040300008B5FFF7EFFF074AD2F8883023F4700382
:10404000C2F88830FFF7BAF9FFF7C4F900F05EF85C
:1040500005F014FE00ED00E042F8203C009B42F821
:104060001C3C0A49019B42F8183C029B42F8143C54
:1040700021F001014FF0807342F8043C42F8081C23
:104080000023203A0265C0F8B8307047910F000055
:104090000A4A0346906878B113F1160FD0F8A400CD
:1040A00005D0A0F140029A4205D8834203D2814252
:1040B00028BF002070470020704700BFBC240020AC
:1040C00008B515460C4A0D4B9060D0F8B4201A6024
:1040D0000E4600F045F82C4686F309880020044B74
:1040E00098472046002100220023024C2047000070
:1040F0002FD10000910F0000BC240020A423002039
:10410000014B10221A61704700ED00E004480023C3
:104110002021C2180133302B82F80013F9D17047E7
:1041200000E100E008B5EFF30583064A103B02EB1F
:10413000C30152F8330049688847BDE80840FFF7DB
:1041400025BA00BFBCEF0000024B034A034801211F
:1041500000F0BCB8000004200000002034F500008E
:10416000D0F8A420054B403A1A60054A4021C3E923
:1041700001121846012100F0B3B800BFA8230020A7
:1041800000000B1598B503460C480268520700AFB3
:1041900010D06C4688B06A46094951610949C2E9A4
:1041A0000613042342F8103F00234FF40151FDF79A
:1041B000B1FBA5466FF01500BD4698BD0005002077
:1041C000C70801001809010010B40E4CD4F8903053
:1041D000C3F30723013B984202D910BCFFF7D2BFBB
:1041E000C4F898000B6823F01F03034343F0100347
:1041F000C4F89C308B6843F00103C4F8A03010BCB5
:10420000704700BF00ED00E02DE9F04184B00E469C
:1042100000AF984604460025B5421FDA60680028C2
:1042200035D0B8F1000F23D0411E08421BD01948E9
:1042300003685B0710D06C4688B06A46164B536122
:10424000164BC2E90635042342F8103F00234FF411
:104250000151FDF75FFBA5466FF0150210461037C0
:10426000BD46BDE8F0811F28E1D923681942DED19F
:1042700023687B6008F07EFFA368391D0343D0B23A
:10428000FB60FFF7A1FF10F1160FE5D0421C0135CE
:104290000C34C1E700050020F108010031090100DC
:1042A000044B0522C3F89420BFF34F8FBFF36F8FE9
:1042B000704700BF00ED00E0BFF35F8F024B0022AC
:1042C000C3F89420704700BF00ED00E010B5034C28
:1042D00001232278FFF798FF207010BD09380020D5
:1042E00008B50B4A00231278FFF78EFF10F1160F66
:1042F00007D0084A0021D2F89030C3F30723984230
:1043000000DB08BDC2F89800C2F8A0100130F2E747
:104310000938002000ED00E02DE9F0435E485F49D8
:10432000D0F890300D68C3F307239D4285B000F2AA
:10433000B080FFF7C1FF49680022954201F10C01EE
:104340001BD1574C574F25706846FDF7CBFEDFF861
:104350005881DFF8589106460025AE4220D12378D7
:104360004D490020D1F89020C2F307229342C0F2B9
:104370008A80FFF795FF00204FE0C0F8982051F8A1
:104380000C3C23F01F03134343F01003C0F89C3090
:1043900051F8043C43F00103C0F8A0300132CCE7EF
:1043A000009800EB05114FEA051CCB683B40B3F5C4
:1043B000000F49D00AD8B3F5001F31D0B3F5800FF4
:1043C00037D0B3F5801F13D00135C6E7B3F1007FB6
:1043D00043D0B3F1805F49D0B3F1807FF4D150F87E
:1043E0000C3088684A6808F0C5FE40F0887009E023
:1043F00050F80C3088684A6808F0BCFE40F08850DD
:1044000040F43020039001A92078CDE90123FFF783
:10441000DBFE002833DA6FF0150005B0BDE8F0834D
:1044200050F80C3088684A6808F0A4FE40EA090099
:10443000E8E750F80C3088684A6808F09BFE40F0C6
:10444000007040F40030DDE750F80C3088684A68AE
:1044500008F090FE40F08270D4E750F80C30886885
:104460004A6808F087FE40F48020CBE750F80C3013
:1044700088684A6808F07EFE40EA0800C2E72378B0
:1044800001332370A0E7C1F89830C1F8A0000133D0
:1044900068E74FF0FF30C0E700ED00E040F50000B6
:1044A000093800200000F0FF000002110000081190
:1044B000F0B587B007460E46144600211022684624
:1044C0001D460AF067FC02238DF802302A46054B90
:1044D000019321466846CDE9047607F0FDF907B05F
:1044E000F0BD00BF95D1000008B5024B1B6898478E
:1044F000002008BDB4230020034B044A18609378C1
:1045000043F0020393707047B42300207002002030
:1045100008B50649064821F00701C1F1005202F52D
:10452000802207F065FC002008BD00BFC7C900203D
:10453000B8230020044A0123C2F840354FF08042DE
:104540000020C2F87835704700E0014048B1054BC3
:10455000054A1B68B3FBF2F35843044B43F00103D5
:10456000184770470804002040420F00F0F3000095
:10457000BFF34F8F0549064BCA6802F4E06213434C
:10458000CB60BFF34F8F00BFFDE700BF00ED00E041
:104590000400FA05142870B503460C4612D80B4ADD
:1045A00012F81010D4E9000502EB4302A0FB01064B
:1045B0005278002301FB0561FBF7A2FDC4E900016D
:1045C000002070BD6FF01500FBE700BF5A09010025
:1045D00098B500AF04F0A0F90346D0B10E480268C8
:1045E00052070FD06C4688B06A460C4951610C499D
:1045F000C2E90613042342F8103F4FF4015108F0BA
:10460000D6FDA54607486FF004034362143008F056
:10461000CCFDBD4698BD00BFD00400208409010038
:10462000360C010000000020044B93F83A3013B11F
:10463000034804F01DBAFFF7CBBF00BF0000002005
:10464000DD48000098B503460E480268520700AFE7
:1046500013D06C468AB01B686A460B4951610B49FE
:10466000C2E9061340F201331384094B42F8103FAC
:104670004FF4115108F09BFDA5466FF00400BD46B4
:1046800098BD00BFD0040020A2090100A50B0100C5
:1046900004000001B0B584B000AF00237B60C7F810
:1046A00007304B79FB720B7913F020050C4625D0AF
:1046B0008A797F2A08BFFF223A73C3F3040203F00A
:1046C0001F03072B7A731BD97948026855070FD04F
:1046D0006C4688B06A46774951617749C2E906134A
:1046E000042342F8103F4FF4015108F060FDA54645
:1046F0006FF0150528461037BD46B0BDFF22DBE739
:1047000022780C2A26D8DFE802F0090719251B2594
:104710001D25251F212523000122BA716278032A55
:1047200029D0042A29D0624803685907E0D06C4692
:1047300088B06A46614B5361614B15E00222ECE799
:104740000322EAE70422E8E70522E6E70622E4E797
:104750000722E2E7564803685C07C9D06C4688B078
:104760006A46584B5361584B9361032342F8103FFC
:104770004FF4C251B9E70122FA71628844F20A018A
:104780008A4231D843F6FE718A420CD8002A55D0AD
:10479000474803685A07ABD06C4688B06A464B4B13
:1047A00053614B4BE0E7A2F57F523F3A0B2AEFD81B
:1047B00001A151F822F000BF4548000091470000D8
:1047C0009147000091470000094800009147000010
:1047D0000548000091470000914700009147000004
:1047E000914700003D48000044F214018A4227D05E
:1047F00044F228018A4225D044F20F018A42C7D1EF
:10480000032200E001223A723249012000FA03F348
:1048100091F85020DBB2002D3CD0A5797F2D13D12B
:10482000134381F85030237991F8512003F01F038E
:1048300000FA03F3134381F851300AE00222E2E761
:104840000422E0E70522DEE722EA0302787281F81B
:104850005020381D09F034FC054600283FF44AAFCB
:10486000134803685B073FF445AF23796C468AB071
:1048700003F01F036A46184951610F491562C2E9E6
:104880000613052342F8103F4FF4215108F08FFC26
:10489000A5462FE7134381F85030237991F8512032
:1048A00003F01F0300FA03F322EA0303C3E700BF88
:1048B000D0040020C6090100D40B0100040A010045
:1048C000BD0B0100E1090100CB0B01002C0A010026
:1048D000B00B0100000000205B0A0100F8B503786E
:1048E00000AF002B40F0AF80694CE36A94F850C0F1
:1048F0001CEA030F254606D1A36A002B3FD1654869
:1049000008F053FC82E0018994F89800A26D94F8B5
:104910005160A8B90121DBB20B420CD01CEA010F97
:1049200008D016EA010EB2F9000023D000EBD070D7
:10493000401010800232490089B26145ECD9DBE7B2
:10494000334015D002EB41018A42D5D0B2F9003094
:1049500003EBD3735B1022F8023BF5E732F91360E7
:10496000002EB8BF22F8130001338B42F6DBC3E7F9
:104970001846FAE70028B8BFA2F800E0DAE7236C8F
:10498000B4F84C2033B1444944489847012835D005
:1049900002284BD0B4F84C30B4F848209A4245D99C
:1049A0000133A4F84C3094F898305BBBA36D94F8B5
:1049B000522003EB4203A36594F85210A06D03F05C
:1049C0006BFF0346F0B13648026851070FD06E46C0
:1049D00088B06A46334951613349C2E9061304235A
:1049E00042F8103F4FF4015108F0E1FBB5466FF07B
:1049F00004032848636208F0D8FB03E094F8983079
:104A0000002BD9D0E36B1BB9FFF70EFEBD46F8BDF6
:104A1000BFF35B8F55E8003F5A1E45E8002100298F
:104A2000F8D1BFF35B8F012BF0DDEDE7E36B002BDB
:104A30003FF465AF94F89830002B7FF460AF1B48CB
:104A40000AF068F85BE7022B1ED103F065FF03460E
:104A50000028DBD01248026852070FD06C4688B09D
:104A60006A46134951611349C2E90613042342F807
:104A7000103F4FF4015108F09AFBA54604486FF02F
:104A80000403436214303BE7052BBFD137E700BF77
:104A9000000000201400002028000020DCEE0000B0
:104AA000D00400207F0A0100510C010060000020AA
:104AB00084090100730C0100094BBFF35B8F53E8BD
:104AC000002F511C43E800100028F8D1BFF35B8F82
:104AD0000AB9FFF7A9BD6FF00F025A62704700BF15
:104AE0000000002010B500220D4904460D480AF0D0
:104AF00005F8002003F000FE024620B12046BDE884
:104B00001040FFF79FBD01210720FFF76BFA064811
:104B1000C36813B9043008F048FB002010BD00BF83
:104B2000B94A000060000020000000202DE9F04399
:104B300085B0884602AF4FF0FF338D484FF0FF320B
:104B400005F040FAD8F80460731EFE2B13D989488B
:104B5000036859072ED06C4688B002AA864B536171
:104B6000864B9361032342F8103F4FF4C25108F083
:104B70001EFBA5461EE00024254626FA04F3DA07AC
:104B800024D503F0FFFDE040C3071DD47948036836
:104B90005D070FD06D4688B002AA794B5361774B01
:104BA000C2E90634042342F8103F4FF4015108F0E3
:104BB000FEFAAD466FF015046D4808F0F6FA20468F
:104BC0000C37BD46BDE8F0830135EDB20134082C49
:104BD000D3D145B9674803685907EBD06C4688B014
:104BE00002AA684BBBE798F81030A3F10802062A26
:104BF00019D8DFE802F02A182C1804181600022130
:104C0000012D98F8112024D0002A7BD05948036840
:104C10005E07CFD06C4688B002AA5B4B53615B4BFA
:104C20009FE70321ECE7534802685207C2D06C4665
:104C300088B002AA564951615649C2E906130423B5
:104C400042F8103F4FF4015191E70021D8E70121CC
:104C5000D6E7082A06D8DFE802F01313131313135C
:104C600013131300434803685D07A3D06C4688B054
:104C700002AB494959614549C3E906121A46DEE7C4
:104C8000D8F80030002B3DD05C68002C3AD1186871
:104C900001387F2836D83A707C701B683F4A1B0168
:104CA000013B7B80012382F898303B713A463C4BB4
:104CB000304603F09DFD044600287FF47DAFD8F810
:104CC00000206B0012B1928902FB0333D8F80C105C
:104CD000994220D227480268540710D06C468AB007
:104CE00002AA304D5561304D13620523C2E90651C9
:104CF00042F8103F4FF4215108F059FAA5466FF0E1
:104D00000B0459E7254B002083F89800244B3046CC
:104D100003F03EFDCFE7214E86F8525096F89830CA
:104D2000D8F80800B065B146FBB1D8F800309989D1
:104D30004D1CA9B203F0B0FD0446002838D00D4840
:104D4000036859073FF438AF6D4688B002AA174B85
:104D500053610A4BC2E90634042342F8103F4FF472
:104D6000015108F024FAAD4626E72946E2E700BFE4
:104D700004000020D00400209C0A0100810C0100E6
:104D8000BE0A0100DC0A01001F0B0100160C010025
:104D9000F60A0100270C0100550B0100000000205D
:104DA000DD4800007C0B0100040C01007F0A0100BB
:104DB000C446BCE80F00314D0FC5DCF800302B6055
:104DC0007462D8F80030002B55D00FCB05F1040CDD
:104DD0008CE80F00F36BC6F828C0A6F84C40002BF7
:104DE00049D0BFF35B8F59E8003F49E80042002AF1
:104DF000F9D1BFF35B8F96F89810E1B9F46B2048B6
:104E0000204A4FF4004C0023E4FB0C01FBF7C8F9E7
:104E10000022CDE90001002305F1280006F03EFA4A
:104E200019484FF0FF324FF0FF3305F0CBF800B1D7
:104E30007062746AC0E603F06FFD03460028EFD08D
:104E40001248026852070FD06C4688B002AA104977
:104E500051611049C2E90613042342F8103F4FF490
:104E6000015108F0A4F9A5466FF0040306487362E7
:104E700008F09BF9D4E7FFF7D7FBD1E72800002023
:104E80003F420F0040420F0014000020D0040020D9
:104E900084090100EB0B0100F8B545680C796B7AC9
:104EA000026904F01F04A34200AF17D85C480368EE
:104EB0005D070FD06D4688B06A465A4B53615A4B16
:104EC000C2E90634042342F8103F4FF4015108F0C0
:104ED00071F9AD466FF01500BD46F8BD2B7A002B79
:104EE0004CD002EB4400B0F8A23023F460639BB2D4
:104EF000A0F8A2300E78043E0A2E42D8DFE806F071
:104F00000A4106414132354138413B0043F40073C8
:104F1000A0F8A2306B7A012B18D902EB4402B2F848
:104F2000A23023F4E0439BB2A2F8A230087910F03B
:104F3000200F487949D0002837D18879012805D039
:104F4000032855D143F48053A2F8A2304B78042BA8
:104F500058D0334803685A07BCD06C4688B06A46BC
:104F6000324B16E043F48063D2E743F4C063CFE7EB
:104F700043F40063CCE743F42063C9E70B78092BC3
:104F8000C8D0274803685C07A4D06C4688B06A463E
:104F9000274B5361244B9361032342F8103F4FF496
:104FA000C25108F007F9A54694E7012805D1887990
:104FB00003281DD143F40053C6E7022818D188798D
:104FC000032815D143F44053BEE710B943F480439E
:104FD000BAE7012802D143F4A043B5E7022802D181
:104FE00043F4C043B0E7032802D143F4E043ABE706
:104FF0000B48036859073FF46DAF6C4688B06A46AA
:105000000C4BC6E7488800283FF466AF04480368A5
:105010005B073FF45FAF6C4688B06A46064BB8E763
:105020001C050020A80C0100460E0100F50C010033
:10503000C90C0100DA0C01000B0D01002DE9F04F45
:10504000DFF85C81DFF85C9183B000AF836E80F89D
:10505000983050F8086CD0F89030C0F8943034692B
:10506000DFF844A194F8A050D5B9E36E2068002B76
:1050700000F09180D4F88430B4F8902033B104F17A
:105080006C019847012862D002287DD0B4F8903096
:10509000B4F88C209A4277D90133A4F890305AE0C2
:1050A00095FAA5F5B5FA85F504EB45037068B3F8F4
:1050B000A21041F40141B98008F0A6F890B1D8F8E7
:1050C000003013F0060F0DD0EB4688B06A4603237C
:1050D000C2E9059A4FF4C45142F8103F404608F027
:1050E00069F8DD4640F28A2005F040FD04F1580BD6
:1050F00005F0BCFC70683A1D012108F05EF800283C
:1051000003DAA066584604F029FFB7F90430002BF3
:10511000EEDA7068BA1D002108F04FF820B1A066E1
:1051200004F1580004F01AFFD4F89820B7F90630BB
:10513000911C1B11C4F898101380FB80012294F875
:10514000A030AA4023EA020384F8A0308AE7D4F80A
:105150009C30C4F89830D4F8803004F10800002B5B
:105160003FF474AFBFF35B8F50E8003F5A1E40E836
:1051700000210029F8D1BFF35B8F012B3FF766AF09
:105180000C37BD46BDE8F08FD4F880301BB104F178
:10519000100009F0BFFC04F1580004F0DFFEEFE757
:1051A0001C050020280D01005C0E01002DE9F047D0
:1051B00082B0066902AF80460D4648364FF0FF3296
:1051C0004FF0FF33304604F0FDFE2868D8F8104059
:1051D000D8F804A080B3B0F80C80D5F80490484605
:1051E000FBF70AF808FB0000B9F1000F26D09AF887
:1051F0000920B9FA89F3C3F1200393421ED95A4812
:1052000003685B070FD06C4688B002AA574B536106
:10521000574BC2E90639042342F8103F4FF40151BD
:1052200007F0C8FFA5466FF01504304604F096FE5F
:105230002046BD46BDE8F0878046CEE72B7C0C2B90
:105240000CD0494802685507EDD06C4688B002AAD8
:10525000484951614649C2E90613DCE76B7C83B1DA
:10526000414803685C07DED06C4688B002AA424B16
:1052700053613F4B9361032342F8103F4FF4C251F7
:10528000CEE795F812C0BCF1000F08D0364803688D
:105290005907C8D06C4688B002AA384BE8E7AB681B
:1052A00043B9314803685A07BDD06C4688B002AA9A
:1052B000334BDDE7EA68B2EB400F08D22A480368B7
:1052C0005B07B0D06C4688B002AA2E4BD0E7C4F87A
:1052D0009830A946B9E80F0004F16C0EAEE80F0053
:1052E000D9F80030CEF80030C4F868C02B6804F15B
:1052F0000808A3B30FCB04F1800585E80F00E5662D
:10530000A4F890C058B3BFF35B8F58E8003F48E85B
:1053100000C2002AF9D1BFF35B8F1B49D4F880503B
:105320001A4A4FF400408E466146E5FB00E1002337
:105330007046FAF735FF0022CDE90001002308F19D
:10534000080005F0ABFF4FF0FF324FF0FF3304F1E0
:10535000580004F037FE00B1A066A46E65E7404631
:10536000FFF76CFEEFE700BF1C050020470D0100B2
:10537000710E0100710D01009B0D0100BD0D0100BA
:10538000DE0D0100F10D01003F420F0040420F0011
:10539000B0B54368056900AF0446186809F006F91E
:1053A000A0B148F28351204BA5F8A210C5F8A43053
:1053B000A5F8A810606807F027FF0446F0B92B6D28
:1053C000CBB905F1480004F0C9FD14E017480368A3
:1053D0005A070ED06C4688B06A46154B5361154B80
:1053E0009361032342F8103F4FF4C25107F0E2FEED
:1053F000A5466FF015042046BD46B0BD0B480368B6
:105400005B07F8D06D4688B06A460B4B5361094B79
:10541000C2E90634042342F8103F4FF4015107F06B
:10542000C9FEAD46E7E700BF838583851C050020E4
:105430000B0E0100390E01001D0E010098B50B790D
:1054400003F01F03032B00AF16D91D4803685C0748
:105450000ED06C4688B06A461A4B53611A4B936162
:10546000032342F8103F4FF4C25107F003FFA54653
:105470006FF01500BD4698BD0B78092B08D0104879
:1054800003685907F4D06C4688B06A460F4BE4E7CE
:105490004B78042B08D00A4803685A07E8D06C46BA
:1054A00088B06A460A4BD8E748880028E2D004480A
:1054B00003685B07DCD06C4688B06A46054BCCE7D6
:1054C00020050020970E010043100100C90C0100C7
:1054D000F50C01000B0D0100F0B585B000AF002305
:1054E000A7F801304368012604460D4618683E704F
:1054F00009F05CF8C0B9224803685A070ED06C4620
:1055000088B06A461F4B53611F4B9361032342F8D7
:10551000103F4FF4C25107F0ADFEA5466FF01204E4
:1055200020461437BD46F0BD2B0A7B706368BD7002
:10553000032218689B88BA6002227F603A73397B25
:10554000826841F0020139739468391D3246A047E0
:1055500004460028E4D00A4803685B07E0D06D46A3
:1055600088B06A46094B5361074BC2E906340423ED
:1055700042F8103F4FF4015107F07CFEAD46CFE7F3
:10558000200500200B0E010030100100AE0E0100BE
:105590002DE9F04F89B04B680F2B00AF05460C4644
:1055A00015D98C4803685A070ED06C4688B06A46F5
:1055B000894B5361894B9361032342F8103F4FF4A9
:1055C000C25107F057FEA5466FF0850B48E00B7CF3
:1055D0000C2B08D07F4803685B07F5D06C4688B079
:1055E0006A467F4BE5E74B7C43B17A4803685E0728
:1055F000EAD06C4688B06A467A4BDAE78B7C43B1D6
:10560000744803685D07DFD06C4688B06A46764B05
:10561000CFE70B6853B19B8943B16E4803685C07C1
:10562000D2D06C4688B06A46704BC2E7D4F8089076
:10563000B9F1000F19D16748036859070ED06C46BD
:1056400088B06A466A4B5361644B9361032342F806
:10565000103F4FF4C25107F00DFEA5466FF0150B39
:1056600058462437BD46BDE8F08FE368012B00F2B1
:105670008680584802685207F0D06C4688B06A4667
:105680005C4951615549C2E90613042342F8103FB1
:105690004FF40151DFE700214FF4A47009F083F9C2
:1056A0006B6887F803B018684FEA480A08F07EFF75
:1056B000A8B94848036859070ED06C4688B06A46B6
:1056C0004D4B53614D4B9361032342F8103F4FF410
:1056D000C25107F0CFFDA5466FF0120B2EE06B68AC
:1056E000FA1C1868BA6001229B88FA603A1D7A6138
:1056F0000721022287F810B0BA613977397FD0F8D4
:1057000008C011433977DCF808B007F10801D84721
:105710008346E0B12F4803685A070FD06C4688B023
:105720006A46374B5361354BC2E9063B042342F8C6
:10573000103F4FF4015107F09DFDA5462548036831
:105740005B078DD06C4688B06A462E4B35E0BB882F
:10575000DBBA1B1129F80A3008F101080136042EC2
:1057600010D1236813B94FF0000B79E75B68002B69
:10577000F9D000222146284698470128F3D14FF05E
:10578000000846466368F340DB07E7D52B691988B4
:1057900041EA063189B241F440412846FFF79CFEB8
:1057A000834600283FF477AF0A4803685C073FF45C
:1057B00057AF6C4688B06A46134B5361074BC2E93A
:1057C000063B042342F8103F4FF4015107F052FD0D
:1057D000A54645E720050020D10E01003610010046
:1057E000F70E01001D0F01003C0F01005A0F0100D0
:1057F0007C0F0100930F01000B0E01002B10010024
:10580000DB0F010003100100AC0F0100B0B502690D
:10581000032111800169426894680A8842EA4412AF
:105820000A8001690A8842F480720A8001690A8844
:1058300042F480620A80036900AF1988FFF74CFECA
:10584000044698B10B4803685B070FD06D4688B0DB
:105850006A46094B5361094BC2E90634042342F8F6
:10586000103F4FF4015107F005FDAD462046BD46FF
:10587000B0BD00BF200500201D0E01001E1001005C
:10588000084B70B5C31A0D4607499B10044659438F
:105890000648402207F0FAFC2B4601462046BDE8A8
:1058A00070401847D8230020B76DDBB688EE0000A3
:1058B00073B50C4C0C4A4023041B00930D460B4659
:1058C0000A49A41061430646094807F00AFD011E73
:1058D00005DA30462B4602B0BDE87040184702B0EA
:1058E00070BD00BFD82300204BD30000B76DDBB6DE
:1058F00088EE00000022F8B5012105461046FEF7AB
:1059000071FB104802F03AFA0446B8B902F056FAB0
:105910002F690D49384606F0DCFD031E09DB012620
:105920003E642D69084905F11C0006F0D2FD031EF6
:1059300002DA1C462046F8BDEE64FBE76FF0040473
:10594000F8E700BF795A000084F500001FB5002277
:105950000123CDE90223094ACDF800D06B46CDF8EA
:1059600004D007F0EBFC002805DB4FF48042002355
:10597000684604F027FB05B05DF804FB5DD300002A
:1059800010B5EFF31184202383F31288BFF36F8FD8
:10599000074A136823F00201DB07116002D40120DB
:1059A00008F056F884F31188BFF36F8F10BD00BF65
:1059B0002824002030B4104B0C2202FB0033014697
:1059C0000020D3E90E529863EFF31180202484F372
:1059D0001288BFF36F8F1C6C04F0C00444F0020403
:1059E0001C6480F31188BFF36F8F1DB12B460348F1
:1059F00030BC184730BC7047D823002088EE000028
:105A000010B4EFF31182202383F31288BFF36F8F5A
:105A10001748016841F002040460C80707D482F304
:105A20001188BFF36F8F012010BC08F009B84FF048
:105A30008041D1F80C04D1F80C14C907EFD5EFF36D
:105A4000118083F31288BFF36F8F0A490B6C03F048
:105A5000C00343F002030B6480F31188BFF36F8F20
:105A600082F31188BFF36F8F002010BCFFF7A2BF35
:105A700028240020D823002010B1012804D070472A
:105A8000034B1B6C5B0701D1FFF794BF704700BF4E
:105A9000D82300202DE9F0413849BFF35B8F07463A
:105AA000012251E8003F41E800200028F9D1BFF36E
:105AB0005B8F33B9324933484B60CB608A6006F064
:105AC0001BFD7B1E012B2BD8012F07D14FF08043EC
:105AD000D3F81C3403F00303012B21D008F0B3FEEC
