:020000040000FA
:1000000000D501206520000051880000512000002B
:10001000512000005120000051200000000000008D
:1000200000000000000000000000000009220000A5
:1000300051200000000000006D2100005120000050
:10004000A9240000A9240000A9240000A92400007C
:10005000A9240000A9240000A9240000A92400006C
:10006000A9240000A9240000A9240000A92400005C
:10007000A9240000A9240000A9240000A92400004C
:10008000A9240000A9240000A9240000A92400003C
:10009000A9240000A9240000A9240000A92400002C
:1000A000A9240000A9240000A9240000A92400001C
:1000B000A9240000A9240000A9240000A92400000C
:1000C000A9240000A9240000A9240000A9240000FC
:1000D000A9240000A9240000A9240000A9240000EC
:1000E000A9240000A9240000A9240000A9240000DC
:1000F000A9240000A9240000A9240000A9240000CC
:1001000053B94AB9002908BF00281CBF4FF0FF317E
:100110004FF0FF3000F00CB8ADF1080C6DE904CEE3
:1001200000F008F8DDF804E0DDE9022304B07047D0
:10013000704700BF2DE9F04786468C460846089E6A
:10014000154674461946002B40F0C2808542B2FA2B
:1001500082F245D94AB1C2F1200300FA02FC2EFA1C
:1001600003F3954043EA0C0C94404FEA154EA8B2B5
:10017000BCFBFEF8230C0EFB18CC08FB00F943EA8D
:100180000C43994528D9EB1808F1FF3704D299455B
:1001900002D9A8F102072B44A3EB0903A4B2B3FBD5
:1001A000FEFC0EFB1C330CFB00F044EA0344A042AF
:1001B00014D92C190CF1FF3304D2A04202D9ACF1AE
:1001C00002032C44241A43EA07401EB1D440002302
:1001D00034607360BDE8F0874746DDE76346F1E7CA
:1001E00092BB431B01214FEA154EAFB2B3FBFEFC9D
:1001F000200C0EFB1C330CFB07F840EA0343984528
:1002000062D9EB180CF1FF3004D2984502D9ACF159
:1002100002002B44A3EB0803A4B2B3FBFEFC0EFBCD
:100220001C330CFB07F744EA0344A7424ED92C19B0
:100230000CF1FF3304D2A74202D9ACF102032C44E3
:10024000E41B43EA0040C0E7C2F1200320FA03F1B7
:10025000954090402EFA03F303434FEA154EAFB298
:10026000B1FBFEFC0EFB1C10190C0CFB07F841EA5D
:100270000041884504FA02F422D969180CF1FF30D4
:1002800004D2884502D9ACF102002944A1EB08014F
:100290009BB2B1FBFEFC0EFB1C110CFB07F743EA03
:1002A00001439F420ED9EB180CF1FF3104D29F425B
:1002B00002D9ACF102012B44DB1B41EA004192E779
:1002C0006046E3E76146F7E76046A3E76346B7E7C2
:1002D000834206D916B9002108467BE7C6E900E04B
:1002E000F9E7B3FA83F78FB9834201D3724508D88F
:1002F000BEEB020460EB030301209C461EB9002103
:1003000068E73846FAE7C6E9004CF8E7C7F1200C81
:10031000BB4022FA0CF41C432EFA0CF120FA0CF329
:10032000B84001434FEA14490EFA07F5B3FBF9F858
:100330001FFA84FE09FB18300B0C08FB0EFA43EA87
:1003400000439A4502FA07F240D9E31808F1FF305A
:1003500004D29A4502D9A8F102002344A3EB0A0370
:1003600089B2B3FBF9F809FB183308FB0EFE41EA2A
:1003700003418E452CD9611808F1FF3304D28E4514
:1003800002D9A8F10203214443EA0040A0FB0298ED
:10039000A1EB0E014145CE46434602D306D14D4561
:1003A00004D2B9EB020E68EB04030138002EA6D08C
:1003B000B5EB0E0261EB030101FA0CFC22FA07F324
:1003C0004CEA0303F940C6E9003198E74046C5E727
:1003D0004346D9E710B5374B374AC3F8002686B0F5
:1003E000C3F804264921C3F808263448C3F80C266C
:1003F000C3F81026C3F81426C3F81826C3F81C2621
:1004000008F074F907F020FC002002F05BFA03A862
:1004100000F072FD2A4B1B68834207D02948452112
:1004200008F064F9032002F04DFAFEE7059A264829
:10043000492108F05BF9039924484B7D0A7DC98A5C
:100440000091492108F052F94921214808F04EF95C
:10045000022002F037FA4FF44041002008F071FF0B
:1004600020B11C48452108F041F9FEE79DF8100035
:1004700002A900F037F808B108F02AFA029A059BA1
:10048000154C1344039A12891344236003F0E4FAD1
:1004900001F026F901F0FAF801F00EFE20680F4B8A
:1004A0009847042002F00EFA0D48452108F01EF985
:1004B000FEE700BF000001403546526E76A90000FD
:1004C000148C01208FA90000B2A90000E1A900004E
:1004D000FFA9000024AA0000100C00200105002044
:1004E00057AA000008B5024638B105480023452147
:1004F00008F0FCF86FF0150008BD0860FCE700BFCD
:100500007AAA000021B1012906D06FF015007047CA
:10051000044B53F830007047024B03EBC00358689C
:10052000704700BF78A500002DE9F04FB5B0DFF8A7
:100530005C81409FD8F8004003973F9F02970DF1E0
:10054000300B3E9FCDF804B00097419E81468A460D
:10055000154600F0DFF828B1D8F80040204635B045
:10056000BDE8F08F56B15A4614AF134603CBBB42D9
:10057000306071601A4606F10806F6D10023009338
:100580002A464FF6FF73514606A807F05EFB074662
:100590000028E1D1294648460B9E07F063FCB04293
:1005A000DAD3DFF8EC90DFF8ECA04FF0FF360DF176
:1005B000120304AA05A906A807F095FB0028CBDBC7
:1005C0005DD1059906A807F0DAFBBDF8123040B9F5
:1005D0002D494FF6FF7031F8022B8242BCD0934276
:1005E000F9D1102B15D0222B2AD0012BDFD1BDF849
:1005F0001030202BB0D8059914AA284608F091F89D
:100600000028A9D19DF8101014A800F045F806465E
:10061000CDE7BDF81070202F9ED105993B4614AA56
:10062000284608F07EF8002896D13A4614A9584684
:1006300007F0E6FBD9F8003083428DD10127B6E7F9
:10064000002E19DBDAF800309E4215DABDF81030C2
:10065000802B81D8059914AA284608F062F8002852
:100660007FF47AAFF6B2BDF81030009614AA2021BC
:10067000584600F097F804464FF0FF3697E7002FF2
:100680007FF46CAF68E700BF48A90000CC050020EC
:10069000148C012080A500002DE9F0452029A9B087
:1006A00080460D4605D94FF0FF34204629B0BDE8FD
:1006B000F085154B154E1B68154F019300244FF024
:1006C000010A019B9C42EEDA00F0AAFFC7F800A5E0
:1006D0000BA806F091F8736856F8081B1A680BA867
:1006E00007F0EAFE03A90BA806F0F8F80023C7F804
:1006F00000352A46C7F80035414603A809F048FDF1
:100700000028D2D00134DCE780A5000084A50000D9
:1007100000A002502DE9F0439FB0DDE92867914623
:100720009846269D0C4600F07BFF1D4B0122C3F826
:10073000002501A806F060F836B1002F04DD3A4626
:10074000314601A807F0B8FE63892289E76813449F
:100750001F440024A7420AD8279901A806F0BEF832
:100760000F4B0020C3F80005C3F800050EE03E1B48
:10077000AE4228BF2E46334642462146484607F041
:10078000D0FF30B1064B0022C3F800251FB0BDE8F2
:10079000F0833246414601A807F08EFE3444D9E783
:1007A00000A002502DE9F04796B017461E469DF86E
:1007B00078203A4BDFF8F48053F83210019103EBC4
:1007C000C20381465B68D8F80050186802AA014449
:1007D000302301A807F0FEFD002858D1DDE90143D0
:1007E0001C4403AA06AB214601A807F01BFE002803
:1007F0004DD1049A072A4AD12949059809F0C8FC25
:10080000002844D1079A082A41D12649089809F0BE
:10081000BFFC00283BD102AA214601A807F0EEFD4B
:10082000A8BBDDE901A30AEB030294422FD1412BBF
:100830002DD13E44302303AA314602A8029707F087
:10084000C9FD194DE0B9DDE9023213449E4217D3C8
:10085000324602A906A807F0A0FA88B9324602A9D2
:100860000EA807F09AFA58B99AF80030042B07D16D
:10087000202306AA0AF10101484600F0E9FE50B122
:10088000D8F800302D68AB4218BFD8F80050284681
:1008900016B0BDE8F0872B68F4E700BF84A5000020
:1008A000A9AA0000A0AA0000148C0120CC050020F9
:1008B0000B78022B0FD00A4A400052F820108B42CE
:1008C0000BD0013052F82000834214BF4FF0FF30AC
:1008D0004FF440507047032070474FF4405070472A
:1008E0008CA50000F0B587B0836D0093582303FBFF
:1008F0000100124F036A01936E46002556F8044B1F
:10090000A168102302AA1039204607F00AFF034607
:1009100040B122780A48452107F0E8FE002420462D
:1009200007B0F0BD1022394602A809F031FC0028BA
:10093000F5D0002DF3D10125E0E700BF66A9000046
:10094000B1AA0000164B002918BF0B4670B503F57D
:100950000042436203F580330265C365012104460A
:1009600007F0C7FA10B10125284670BD04212046C2
:1009700007F0BFFA90B90221204607F0BAFA0546FF
:100980000028F0D1206A07F00BFF0646A06D07F0A3
:1009900007FF86422CBFA666A066E5E70925E3E7C8
:1009A000140C00202DE9F3471E4683688B42054650
:1009B0000C46174643D95B1A934240D386B36A4626
:1009C00007F027F900283CDB013FDDF800803C44BC
:1009D0001D4FDFF878906A462146284607F019F93E
:1009E00000282EDBDDE9004A28465246214607F062
:1009F000C2FE002825DBC7F80096C7F80496C7F8A2
:100A00000896C7F80C96C7F81096C7F81496C7F85A
:100A10001896C7F81C966EB1444512D9013CDAE726
:100A2000511E21446A4607F0F4F8002809DBDDF87E
:100A30000080CDE75444A04503D30134CBE74FF009
:100A4000FF3002B0BDE8F087000001403546526E2D
:100A500010B52C2359434218146A0CB907F038FF1B
:100A600041580B4B994206D1D16813895B1802D2C9
:100A70005189C91801D3002009E0A3689942FAD22C
:100A8000136940F60C621A420CBF0120002010BD11
:100A90003DB8F3961FB52C2303FB02010A6A0AB97D
:100AA00007F016FF0023CDE9023301934FF4807362
:100AB0000093034BFFF738FD05B05DF804FB00BF62
:100AC000889801202DE9F0412C2606FB01060546F9
:100AD000376A0C4690460FB907F0FAFE07F069FA3C
:100AE00010B93369DB0608D51CB13946284607F032
:100AF000F6FA114B1868BDE8F08121462846FFF749
:100B0000A7FF80B90D4B18680D4B1B688342F2D0CC
:100B10007CB10121384607F047FA0A4A0A484521C4
:100B200007F0E4FDE5E7224641462846FFF7B2FF1D
:100B3000EAE7064AF2E700BFC8050020CC0500201E
:100B4000148C0120E5AA0000EFAA0000DDAA000035
:100B5000004870471890012073B50D4604460021E7
:100B60002846CDE9001107F081FA58B323681F4EDB
:100B7000B34206D101AA204607F076F908B107F082
:100B8000A7FEE36AB34206D16A460121204607F078
:100B90006BF90028F3D1DDE90032934288BF01935D
:100BA000019BAB60019A2946204600F039FB104BAF
:100BB0001A68002A03DD0F48572107F097FD00202F
:100BC00002B070BD01462046FFF78CFE06460028A5
:100BD000D5D005F1080107F028F90028CFD1AB687E
:100BE0000193304607F09CFDDCE700BF3DB8F3966B
:100BF0008490012017AB00002DE9F84FDFF878B0A2
:100C00001B4C1C4D884691469A4600260B9B9E42E3
:100C100001D300200FE00B9B174A9F1BB7F5806F95
:100C200028BF4FF480673B4606EB0A01404607F0B9
:100C300078FD10B10120BDE8F88F0A993B465A466D
:100C40007118484607F082FD0028F3D1C4F8005619
:100C50003E44C4F80456C4F80856C4F80C56C4F808
:100C60001056C4F81456C4F81856C4F81C56CDE7EC
:100C7000000001403546526E188C0120F0B587B057
:100C80000E46044607F0BAF9014620B192484521C4
:100C900007F02CFDFEE72046FFF754FE054678B925
:100CA00000221146204607F091F9054618B38B48FB
:100CB0000022572107F01AFD012384F864300AE06E
:100CC00087484FF48052572107F010FD01239D42C1
:100CD00084F86430E4D194F864308DF80F30042B3C
:100CE00000F29880012B00F29D8000F0B380FF237A
:100CF00084F86430AEE0204600F098F90028DBD09C
:100D000002A807F0AAF90146204607F026FA18B112
:100D100074482A465721CDE702A807F0A7F980F0CA
:100D2000010102AAC9B2204607F050F90246002884
:100D3000BDD102A807F09AF9C8BB02A92046FFF767
:100D40000BFF08B107F0C4FD9DF80F3084F8643044
:100D5000DA1E012A19D800F0F1F89DF80F3028B9F1
:100D6000023B022B08D994F8643011E0023BFF22C9
:100D7000022B84F864200DD8002000F0C9F8002868
:100D8000F1D0FF2384F8643004E09A1E022AF3D9DC
:100D9000FF2B04D15448452107F0A8FCD2E70022DC
:100DA0001146204607F012F9002885D0CAE79DF8C1
:100DB0000F70012F20D1104603F01AF8831E022B6A
:100DC00005460ED802AA39462046FFF77BFE474B60
:100DD0001B68984205D0464B1D68A84214BF0525E4
:100DE0000125EDB284F86450023D022D3FF673AF49
:100DF000012001F067FD6EE7012102AA2046FFF7FE
:100E000061FE3A4B1B68984201D0052355E79DF8D7
:100E10000F50E7E7052B7FF46AAF002000F08EF853
:100E2000C0B164E702A92046FFF796FE002889D1E9
:100E300094F86430DA1E012A0AD800F07FF818B955
:100E4000002000F065F828B1FF2384F8643079E7CA
:100E5000022BF5D094F86430FF2B9BD00022012B9D
:100E6000244D019210D01146204607F0AFF858B13A
:100E70002D681022002102A809F0C2F9204607F0CF
:100E8000DBF8284607B0F0BD002211462046FFF7E8
:100E900019FE164F3B689842EAD12B689842E7D07A
:100EA000134B1B689842E3D00021204607F0A4F8BA
:100EB0000028DDD1019B01330193019B012B00D060
:100EC000FEE7206A06F0A3FE3071236A5B68346097
:100ED0003D68B360CDE700BF46AB0000B9AB000092
:100EE00077AB0000E5AB00000FAC0000148C0120D4
:100EF000C8050020CC05002010B50446002007F0EE
:100F000019F802482146FFF7B9FE10BD18900120DC
:100F100013B5094B01A913F8300000F0B5FD48B92D
:100F2000019808F0CCFA0446019807F0F9FB204636
:100F300002B010BD0124FAE794A500001FB50F4BC5
:100F400001A913F8300000F09FFDA8B9019802A98B
:100F500002F0F8FE044668B99DF80B30032B03D16C
:100F6000019808F074FA0446019807F0D9FB20466E
:100F700004B010BD0124F7E70124F8E794A50000B0
:100F80002DE9F74F80468A46164606F03BFF41465C
:100F900081460020FFF78CFC071E41DB00252C4614
:100FA000AB46AF4206D1BBF1000F35D1002003B0F4
:100FB000BDE8F08FDAF8681001230DF1070201FB9C
:100FC0000591404607F0ADFB00282BDB01220DF117
:100FD0000701404608F0D7F938B1BBF1000F02D045
:100FE000002C08BF2C460135DBE7BBF1000F10D009
:100FF000002CF8D00C48452107F078FB0323B4FB04
:10100000F3F35A1C03EB4303E41A013432603471E6
:10101000CCE74FF0010BE6E7002C08BF3C46EDE7BC
:101020000720C4E70120C2E71BAC00002DE9F8430C
:10103000D0F828E0D0F854C0BEF5805F02D8BCF5E7
:10104000805F06D92848572107F050FB0020BDE8F3
:10105000F883836DD3F8088000231A4619461D468D
:101060001E461C4699468E450AD8944508D88E459A
:1010700003D1944501D1AE4234D01C485721E3E757
:101080004C4515D1476A07EBC10701317F6804EB76
:101090000709076D07EBC20701327F683C44A14591
:1010A000E1D1C8454E444D441AD211485721CBE7EF
:1010B0000CD9476A07EBC107022B7F68B94402D1FC
:1010C0000C485721C0E701310123E8E7076D07EB22
:1010D000C207012B7F683C44F2D001320223DEE7D5
:1010E0000023BEE70120B2E73EAC0000DCAC00000C
:1010F000A4AC00006DAC0000F0B589B0044606A9B0
:10110000006A02F01FFE08B107F0E2FBA06D04A91F
:1011100002F018FE06460028F6D19DF81820012A94
:1011200051D0324B3249032A08BF0B469DF81B2091
:1011300002929DF81A2001929DF8192000922D48E4
:101140002D4A492107F0D2FA9DF81020012A3CD0FF
:10115000264B2749032A08BF0B469DF8132002920D
:101160009DF8122001929DF8112000922148234AF7
:10117000234C492107F0BAFA002527469DF818109C
:10118000207808F0F2F830B39DF81010607808F07D
:10119000ECF800B3A378042B03D09DF81A209A42F0
:1011A00019D107EB8507FE788EB1012E11D0154AB3
:1011B000154B022E18BF1A461448492107F096FA1B
:1011C000304609B0F0BD124BB0E7114BC5E7114AEC
:1011D000F2E7114AF0E70135042D04F10404CDD102
:1011E0000E48492107F082FAEAE700BF0AAD000085
:1011F00013AD000053AD000045AD000094AD0000FC
:10120000F4AD000038AD000026AD00009CAD00003C
:101210000EAD000021AD000019AD0000B1AD000021
:101220002DE9F04F16468DB004460D46B3484921CE
:1012300007F05CFA3146204606F0ECFF00238246B8
:10124000BAF1000F069302DA0DB0BDE8F08F636AC1
:10125000D4F8588003EBCA02D8F808105668B14297
:1012600017D3181DBAF1010A0CD22A680699013A5F
:101270009142C0F04F81D4F82090B9F1000F0AD10B
:1012800007F026FB50F83A2032449142EDD316463F
:10129000E8E70026E9E7E26C0392002AF0D00AF1C1
:1012A0000102A06E53F832201B6805930492134686
:1012B000059AA3EB020B06F048FE002102460790B8
:1012C000204606F082FF626A089052F830301268B9
:1012D0000BEB06019B1A994240F20D81059BD9F850
:1012E00008701F44049BFF1A079B4046FF1A06F034
:1012F00089FD874228BF07462B68012B40F00281F9
:10130000BB1B18BF0123AB712B79012B40F0FC8074
:101310000023D8F8082019464046FFF743FB002871
:10132000AED12B68012B1ED12A464146204606F03D
:10133000EBFE0028A4D1AB79ABB94946204606F0B4
:10134000CEFE00289CD12A464946204606F0DCFE07
:101350000346002894D10146D8F808204046FFF7FC
:1013600021FB00288CD100230093039901975B4651
:1013700042462046FFF740FC002881D129462046FE
:1013800006F081FE02232B7118B15D4A1368013308
:1013900013602B68012B0CD103990993204606F0AA
:1013A0009EFE00287FF46CAFAA79099B002A40F0CA
:1013B000B48032463AB1039800235946FFF7F2FA57
:1013C00000287FF45DAFCDE900B7039A5B4649463C
:1013D0002046FFF711FC00287FF452AF2946204633
:1013E00006F051FE03232B7118B1454A13680133EF
:1013F0001360AB7983B14946204606F070FE0028A1
:101400007FF43EAF636A059A1E68961B049AB61A6B
:10141000089A53F832301E4446B1002332465946EA
:101420004846FFF7BFFA00287FF42AAFCDE900B79E
:1014300000234A4641462046FFF7DEFB00287FF4A2
:101440001FAFAB79002B3BD0404606F0DBFCA26E11
:101450005F4452000346019200974A4641462046A7
:10146000FFF7CAFB18B1264A1368013313600AA9B3
:10147000404602F067FC00287FF402AF9DF82B3055
:10148000012B05D1484607F0E2FF00287FF4F8AEB3
:101490009DF82910012906D00022484607F0F8FFE0
:1014A00000287FF4EDAEA968484606F0CCFC002881
:1014B0007FF4E6AE484602F023FC00287FF4E0AE5D
:1014C0000023AE79AB712946204606F0DCFD2B687F
:1014D00001332B6001232B7118B1094A13680133C2
:1014E0001360BEB1D8F8082001230021404606F061
:1014F00051FD78B1C4E63746FEE600BFC8AD000036
:10150000849001200023FEE6022B3FF442AF032B20
:101510003FF46FAF069B013392E61946079A2046C7
:1015200006F053FE236D05991A6853F830308A1A75
:101530000499521A1A443DE72DE9F041D0E915C348
:10154000D3F80880D0F828E0002304461D4618464A
:101550001E4619461A46AE451FD884451DD8A06EB2
:1015600006F0F3FC002105460246371A204606F035
:101570003FFE2A4680460121204606F039FEAD1B7B
:1015800080452CBF45442D18A06E06F0E3FC854233
:1015900034BF401B0020381A22E0914213D1626A06
:1015A000276D02EBC50207EBC00752687F680A444B
:1015B0000135394401308A42CDD1904516441ED2BE
:1015C0001048572109E010D9676A07EBC507022BBD
:1015D0007F683A4406D10C48572107F087F800206D
:1015E000BDE8F08101350123E5E7276D07EBC00772
:1015F000012B7F683944EED001300223DBE7002362
:10160000A7E700BFA4AC00006DAC00000A4619B10A
:10161000024B00211B681847704700BFD00500200F
:1016200070B5094D2B780BB1002070BD074C012619
:10163000C4F8006505F082F918B92E70C4F80005E9
:10164000F2E74FF0FF30F0E78899012000A0025048
:101650002DE9F041DFF83080ACB01F4606460C465D
:101660001546FFF7DDFF0123C8F800352A4633464B
:101670000097214603A808F05FFD0023C8F8003555
:101680002CB0BDE8F08100BF00A00250BFF36F8F07
:1016900072B6124B4FF0FF32C3F88020C3F884209B
:1016A000C3F88820C3F88C20C3F89020C3F8942096
:1016B000C3F89820C3F89C20C3F88021C3F8842184
:1016C000C3F88821C3F88C21C3F89021C3F8942172
:1016D000C3F89821C3F89C21704700BF00E100E0E7
:1016E0003E4A2DE9F0434FF0FF3301215160C2F82B
:1016F0004833C2F8083302F5C042394E5160C2F88F
:101700004833C2F8083302F59832364FDFF8DC80F0
:10171000516085B0C2F848330025C2F8083356F846
:10172000044B4FF0FF3944F30730C4F8089300F03E
:101730008BFD012363600023C4F84C31D4F84C21A5
:10174000C4F81031D4F81021C4F84431D4F844213D
:10175000C4F80035D4F80C250092D4F81425019271
:10176000D4F808250292D4F810250392C4F80C95F9
:101770006846C4F81495C4F80895C4F8109550F854
:10178000042B511C0FD002F01F0152091DD0012A59
:101790001ED1424602EB8102D2F80017394041F0D7
:1017A0000201C2F800170133042BE8D15DB10E4AE3
:1017B0004FF0FF33C2F808354FF08042C2F80833CB
:1017C00005B0BDE8F0830125A9E74FF0A042E1E7AD
:1017D00001F5E071002353F82130FFDE00B0004036
:1017E000A0A50000F0F8FCFF00F00140000300504D
:1017F000014B1B68184700BFD405002030B585B0E9
:1018000004460D4610220021684608F0F9FC022328
:101810008DF802302A46044B01932146684606F0B3
:10182000ABF805B030BD00BFF117000080B505462C
:101830000E461746984604F031FA034608F0E8FCD5
:10184000DFF81890044649F80030424630463946E1
:10185000A84754F8090000F073FC00BF080000001E
:101860002DE9F047058B04462807904611D402293C
:1018700005F0070540F0CC80204606F05EFE78B10A
:101880000138218B042811D8DFE800F0C2106D85E3
:10189000950001290CBF45F0100545F02005258372
:1018A00088F31188BFF36F8FBDE8F08701F0070A56
:1018B000AA4500F0A5800027B9463E46A368002B44
:1018C00000F0BC8041F00801218388F31188BFF348
:1018D0006F8FA168002900F0BA800D68002900F020
:1018E000B680D1F80480334652462046C047002DCA
:1018F00076D02B6829461D46F0E701F007035A1FF2
:10190000012A1BD8002221F00701062B276889B283
:10191000C4E9002209D13B4603E0628B01326283B5
:101920001B68002BF9D141F002012183204606F00B
:1019300004FE00287AD041F0200176E0042B0AD181
:1019400021F0070189B22183204606F0F6FD10B18F
:1019500041F020012183218B01F0070AAA454FD0D5
:101960000027B946AAE7236921F0070141F00601E3
:10197000062DD3F8009021832DD1B9F1000F3FD06F
:1019800041F00801218388F31188BFF36F8F3A4932
:101990002046C84729E021F00701236941F00401EE
:1019A00089B2042DD3F804902183E6D000273E4667
:1019B0004FF0040A82E721F00701236941F0050195
:1019C00089B2052DD3F808902183D6D000273E4652
:1019D0004FF0050A72E700273E464FF0060A6DE712
:1019E0002B4687E7B9F1000FD1D1EFF311882023FF
:1019F00083F31288BFF36F8F238B23F008032383B5
:101A0000258BEA062ED525F01003238305F0070564
:101A10006669218B002EBFF670AF00232768C4E9EA
:101A2000003321F0070141F001012183218B01F0F6
:101A3000070AAA454FF000097FF440AF002F9CD061
:101A400041F00801218388F31188BFF36F8F002FC5
:101A5000C8D03D68394633465246204606F099FDC7
:101A60002F46F4E7AB067FF51BAF25F02003238359
:101A700005F0070500E700BFBF850000014B0360CC
:101A800000207047A8A5000070B5104B1C680D46DB
:101A9000B4B10F4B196800238B4202DB6FF00100D9
:101AA00070BD224612F8106B864202D001331446F4
:101AB000F2E7E06808F01AF928B12C600020EFE79F
:101AC0006FF00C00ECE76FF01200E9E7D80500209A
:101AD000A8A5000010B588B0436802938368C06869
:101AE000CDE903320A680023CDE906230C4601AA9A
:101AF0000449059306F0CCFF079808B9059B2360BD
:101B000008B010BDBD87000008B5054806F008FD07
:101B1000044806F005FD044806F002FD002008BD5B
:101B20005FAE000090AE0000C3AE0000014804F0BC
:101B30007FBB00BF0CA6000038B5044618B90F4B98
:101B40000F485B6898476168B1F5683F10D0B1F500
:101B5000680F0DD00B4DA9420AD011F468612068BE
:101B600007D00146084808F0FFF8002323606560AD
:101B700038BD142208F044FBF9E700BF300700200D
:101B8000F1AE00002C5F5CA98895012008B520B358
:101B90004368B3F5683F10D101220368BFF35B8F40
:101BA00053E8001F002903D143E800200028F7D1A3
:101BB000BFF35B8F0DD1002008BD094A93420AD0C4
:101BC00000684FF0FF324FF0FF3303F099FA00281E
:101BD000F1D00448F0E70448EEE76FF4E040EBE7AB
:101BE0002C5F5CA9E98FFFFFEA8FFFFF08B5D8B132
:101BF0004368B3F5683F10D100220368BFF35B8FE1
:101C000053E8001F012903D143E800200028F7D141
:101C1000BFF35B8F0BD1002008BD074A934208D069
:101C2000006803F0E5FAF6E76FF4E040F4E70348F4
:101C3000F2E70348F0E700BF2C5F5CA9E98FFFFFE4
:101C4000EA8FFFFF10B5044618B91D4B1D485B68AD
:101C500098476368B3F5683F2FD0B3F5680F2CD071
:101C6000194A934219D1236803BB18484FF0FF3239
:101C70004FF0FF33214603F015FA08B923681BB96A
:101C80000F4B13485B68984720681422002108F026
:101C9000B7FA4FF46863636008E0B3F5683F0DD8A6
:101CA0003A2B03D040F6BA629342DED1206808F0A6
:101CB000A5F8636843F03A03636010BD054AF3E793
:101CC00030070020F1AE00002C5F5CA98895012050
:101CD00017AF00003A00003A08B50649064840230D
:101CE000142208F033F8BDE808400449044804F021
:101CF00011BB00BF889001208895012014A6000028
:101D000028A6000008B50348034A0021121A06F06D
:101D100091FD08BDF0070020A09901200748084A5E
:101D2000084908B5121A06F087FD0748074A08490E
:101D3000BDE80840121A06F07FBD00BF80050020F4
:101D4000EC070020CCB10000B80400208005002082
:101D500004B1000030BFFFF7FDBF00BF2DE9F04127
:101D60000B4EDFF8348006EB0807CC1B05463246E5
:101D70000849204608F036FAA01942460021083CDE
:101D800008F03EFA2C6707F10800BDE8F08100BFBB
:101D90000000000060A5000004000000054B9A69E7
:101DA0009B689A421FBF044A536843F080535360B4
:101DB000704700BF7896012000ED00E070B5264B1B
:101DC00015469A6A12F0100F9A6A14BF1124102453
:101DD00012F0080F9A6A18BF1224920706460AD515
:101DE000586B9A6A140634D519B19A6A22F08002A7
:101DF0009A62132401E06FF01500174B9A6A12F0F3
:101E0000010F9A6A18BF142412F0200F9A6A18BFA3
:101E10001524D20602D49B6A9B070AD50E4B5B6839
:101E2000190506D5314600F0C7FA10B180F30988CC
:101E30000224094B9A6A920642BF5A6A22F400525F
:101E40005A629A6A42F0FF029A6200232B7020467F
:101E500070BD6FF01500CCE700ED00E0134B9A6AFF
:101E600012F0007F9A6A14BF1E201D2012F0807F9E
:101E70009A6A18BF1F2012F4002F9A6A18BF2120F7
:101E800012F4802F9A6A18BF222012F4003F9A6A37
:101E900018BF232012F4803F9A6A6FEA02426FEA69
:101EA00012429A6218BF2420704700BF00ED00E084
:101EB00010B5194B0246986A9C6A10F4805F14BFF3
:101EC0001720162014F4006F9C6A18BF1820A40570
:101ED00009D5986B986A000404D51AB19A6A22F45D
:101EE00000429A6219200C4B9A6A12F4806F9A6A27
:101EF00018BF1A20D2050CD49B6A13F4005F18BFD8
:101F00001C20054A936A43F47F43936200230B70BD
:101F100010BD1B20F5E700BF00ED00E070B5454B9C
:101F20005B689CB00546C3F30803002686F311885E
:101F3000BFF36F8F02F07F40B0F17F4F11D102F0FD
:101F40000C0008280DD010074CBF0D4601260022BA
:101F5000033B8DF80720032B05D8DFE803F01E5D57
:101F6000615A3546F3E700249DF807309BB9682293
:101F7000294602A808F036F9099B002E54D0C3F375
:101F8000080222B96FEA53236FEA4323099302A997
:101F9000204606F053FC1CB070BD264BDA6A910750
:101FA000E1D4DA6A002ADEDBDA6A5200DBD55A694C
:101FB000A96942F480725A61BFF34F8FBFF36F8FEC
:101FC0005A6931F8021C22F480725A61BFF34F8FB4
:101FD000BFF36F8F4DF6027291420AD09A6AD2B265
:101FE0004AB10DF1070201212846FFF7E7FE04463A
:101FF000BAE72C68B8E79A6A12F47F4F05D00DF162
:1020000007010120FFF754FFF1E79B6AB3F5803F1A
:10201000A9D3FFF723FFEAE70DF107020021E3E769
:102020000DF107010020EDE723F4FF7323F0010316
:10203000ACE700BF00ED00E0044B5A6942F010022B
:102040005A615A6922F008025A61704700ED00E0B7
:10205000EFF30880EFF3098101B57246FFF75EFFE9
:1020600001BD00BF002080F31488BFF36F8F0F48BD
:1020700080F3088801F068FF00200D490860BFF375
:102080004F8F00F02BF8202080F3118809484FF47F
:102090000861401880F30988EFF314800221084397
:1020A00080F31488BFF36F8F00F016F900D501207C
:1020B00094ED00E080A201200749D1F89020002390
:1020C000C2F307221846934200DB7047C1F89830EC
:1020D000C1F8A0000133F6E700ED00E008B572B6E4
:1020E000002383F31388FFF7E7FF144B4FF0FF3211
:1020F000C3F88020C3F88420C3F88820C3F88C205C
:10210000C3F89020C3F89420C3F89820C3F89C200B
:10211000C3F88021C3F88421C3F88821C3F88C2137
:10212000C3F89021C3F89421C3F89821C3F89C21E7
:1021300062B6BFF34F8FBFF36F8F08BD00E100E0C1
:10214000084B9B6883420BD1EFF3058343B1064BE9
:102150005A6842F080525A605A6A22F400425A6227
:1021600003F0A2BD7896012000ED00E023498A68C3
:1021700082F8BDE04FF030001044EFF3098C80E8A6
:10218000F01F1EF0100F03D102F17C0080EC108ACA
:10219000202080F31288BFF36F8F194F4FF0006635
:1021A0008A698A603E60106F164C206092F9BDE02B
:1021B000506F0023536780F311881EF0100F03D077
:1021C0000023E1EE103A03E002F17C0090EC108A6B
:1021D000EFF3148323F0040383F31488BFF36F8FAA
:1021E00004B5104600F07EF9BDE8044002F130006D
:1021F00090E8F01F8CF30988704700007896012062
:1022000004ED00E0A49501201EF0040F0CBFEFF3D5
:102210000880EFF30980816911F8021C0229FFD0C0
:1022200001B5724606F010FB01BD00BF40B20028A8
:1022300007DB044A4109012300F01F00834042F8F4
:102240002130704700E100E040B200280CDB430978
:10225000064900F01F0020330122824041F823206C
:10226000BFF34F8FBFF36F8F704700BF00E100E0F7
:10227000054B420900F01F0053F82220012303FA06
:1022800000F01040704700BF00E100E040B20028BD
:10229000A8BF00F1604001F10101B8BF064B4FEA51
:1022A0004111ACBF00F5614000F00F00C9B2B4BFEE
:1022B000195480F80013704714ED00E0044B054AF0
:1022C00023F07F039360BFF34F8FBFF36F8F70478F
:1022D0000000000000ED00E008B5FFF7EFFF104B35
:1022E000D3F8882022F47002C3F88820D3F888201D
:1022F00042F4A002C3F888204FF04042C3F83422D1
:10230000BFF34F8FBFF36F8F0023E1EE103AFFF75B
:10231000F9FCFFF703FD00F0BBF802F04BFE00BF35
:1023200000ED00E04FF47D41C0F8BC1042F8203CC5
:10233000009B42F81C3C0A49019B42F8183C029B56
:1023400042F8143C21F001014FF0807342F8043C44
:1023500042F8081C0023203A02654367704700BF1B
:102360002D180000037B13F0020F124B03D190F8DD
:10237000BD20D20611D45A6B42F080425A63D0F885
:10238000BC3019075CBF43F00803C0F8BC30037BC6
:1023900043F002030373802070475A6B22F080429F
:1023A0005A63D0F8BC301A0744BF23F00803C0F8C2
:1023B000BC30F0E700EF00E0094A0346906870B1D6
:1023C00013F1160F006E05D0A0F180029A4205D8D5
:1023D000834203D2814228BF00207047002070470B
:1023E00078960120104B9B6883421AD1EFF3058049
:1023F000B8B9EFF31181202282F31288BFF36F8FF7
:102400001A7B22F002021A73EFF3148323F0040301
:1024100083F31488BFF36F8F81F31188BFF36F8F3D
:1024200070476FF0150070477896012008B5154683
:102430000E460022E1EE102AEFF3148222F004028D
:1024400082F31488BFF36F8FBFF36F8F0B4A0C4B6F
:102450009060026F1A6000F045F82C4686F30988F8
:102460000020044B98472046002100220023024C04
:10247000204700006B8800002D180000789601208E
:10248000A4950120014B10221A61704700ED00E075
:10249000044800232021C2180133302B82F8001396
:1024A000F9D1704700E100E008B5EFF30583064A73
:1024B000103B02EBC30152F8330049688847BDE87E
:1024C0000840FFF76BBC00BF3CA30000024B034A6F
:1024D0000348012100F07CB8000004200000002027
:1024E00038A6000010B50446FFF73CFF226E0346F5
:1024F0000548D21AC0E90023044B8360BDE81040B0
:10250000012100F06FB800BFA895012000000B1555
:10251000084AC2F898000B6823F01F03034343F0F6
:102520001003C2F89C308B6843F00103C2F8A0305E
:10253000704700BF00ED00E02DE9F043DFF8608058
:1025400085B00E461F4604464FF00009B14523DA18
:102550006068D8B13FB1411E08421BD17F2819D90C
:102560002368194216D12368019306F0A1F9A368E4
:1025700003430393D8F89050C5F30725D0B2013D2B
:10258000A84207D801A9FFF7C3FF421C09F10109BE
:102590000C34DBE76FF01502104605B0BDE8F083A0
:1025A00000ED00E0044B0522C3F89420BFF34F8FE9
:1025B000BFF36F8F704700BF00ED00E0BFF35F8F88
:1025C000024B0022C3F89420704700BF00ED00E0EA
:1025D00010B5034C01232278FFF7AEFF207010BD29
:1025E0008999012008B50B4A00231278FFF7A4FF50
:1025F00010F1160F07D0084A0021D2F89030C3F32B
:102600000723984200DB08BDC2F89800C2F8A0106A
:102610000130F2E78999012000ED00E02DE9F04357
:102620005B4B5C4CD3F890302568C3F307239D4285
:1026300085B000F2A980FFF7C1FF00200C2685427B
:102640001BD1554C554F25706846FFF717FADFF838
:102650004081DFF84C9106460025AE4214D1237824
:102660004B490020D1F89020C2F307229342C0F2D8
:102670008580FFF797FF002045E0616806FB0011A9
:10268000FFF746FF0130DAE7009800EB05114FEA4B
:10269000051CCB683B40B3F5000F4DD00AD8B3F50D
:1026A000001F33D0B3F5800F3BD0B3F5801F13D09C
:1026B0000135D2E7B3F1007F47D0B3F1805F4DD051
:1026C000B3F1807FF4D150F80C3088684A6806F086
:1026D000EFF840F0887009E050F80C3088684A68DC
:1026E00006F0E6F840F0885040F43020CDE90123B0
:1026F0000390D8F890302078C3F30723013B984229
:1027000035D96FF0150005B0BDE8F08350F80C30F6
:1027100088684A6806F0CCF840F0885040F4002001
:10272000E4E750F80C3088684A6806F0C1F840F0D9
:10273000007040F40030D9E750F80C3088684A68DF
:1027400006F0B6F840F08270D0E750F80C30886898
:102750004A6806F0ADF840F48020C7E750F80C3026
:1027600088684A6806F0A4F840EA0900BEE701A9B3
:10277000FFF7CEFE23780133237099E7C1F8983034
:10278000C1F8A00001336DE74FF0FF30BBE700BF99
:1027900000ED00E044A60000899901200000F0FF50
:1027A0000000021108B5054805F0BAFE002383F3C6
:1027B0001188BFF36F8F0423184602DF53AF000068
:1027C000044A0123C2F840354FF080420020C2F88D
:1027D0007835704700E0014048B1054B054A1B6859
:1027E000B3FBF2F35843044B43F00103184770471F
:1027F0001C07002040420F0070A50000F8B52D48CE
:102800002D4F2C4E2D4D06F07CF80021294806F066
:1028100064F82A4806F075F80021284806F05DF8AB
:10282000274806F06EF82648002106F056F83C7856
:10283000012C36D12146304606F04FF841F69A1069
:10284000002106F048F80021304606F046F841F62F
:102850009A10002106F03FF82146284606F03DF880
:1028600041F69A10002106F036F80021284606F0BD
:1028700034F841F69A10002106F02DF81048214650
:1028800006F02BF841F69A10002106F024F80C48C7
:10289000002106F022F841F69A10002106F01BF8FC
:1028A000C5E73046002106F018F80021284606F05A
:1028B00014F8ECE774A600008A9901206CA60000C9
:1028C00064A6000008B5094B012818700DD008480F
:1028D000002106F002F80748002105F0FEFFBDE8E0
:1028E00008400548002105F0F8BF08BD8A9901207D
:1028F00074A600006CA6000064A60000084B70B52A
:10290000C31A0D4607499B10044659430648402206
:1029100006F017F82B4601462046BDE870401847E0
:10292000C8950120B76DDBB694A2000073B50C4CBE
:102930000C4A4023041B00930D460B460A49A41081
:1029400061430646094806F027F8011E05DA3046BD
:102950002B4602B0BDE87040184702B070BD00BF02
:10296000C8950120018A0000B76DDBB694A2000073
:102970000022F8B5012105461046FFF787FC1048F4
:1029800001F0E4FB0446B8B901F000FC2F690D49E1
:10299000384605F022FE031E09DB01263E642D6940
:1029A000084905F11C0005F018FE031E02DA1C465A
:1029B0002046F8BDEE64FBE76FF00404F8E700BFC3
:1029C000F92A00007CA600001FB500220123CDE9F2
:1029D0000223094ACDF800D06B46CDF804D006F0AA
:1029E00008F8002805DB4FF480420023684602F017
:1029F00083FC05B05DF804FB158A000010B5EFF309
:102A00001184202383F31288BFF36F8F074A136862
:102A100023F00201DB07116002D4012006F09FFDC4
:102A200084F31188BFF36F8F10BD00BF189601208B
:102A300030B4104B0C2202FB003301460020D3E9D6
:102A40000E529863EFF31180202484F31288BFF3B1
:102A50006F8F1C6C04F0C00444F002041C6480F30B
:102A60001188BFF36F8F1DB12B46034830BC184748
:102A700030BC7047C895012094A2000010B4EFF359
:102A80001182202383F31288BFF36F8F18480168E7
:102A900041F002040460C80708D482F31188BFF330
:102AA0006F8F01205DF8044B06F051BD4FF080415F
:102AB000D1F80C04D1F80C14C907EED5EFF311804E
:102AC00083F31288BFF36F8F0A490B6C03F0C003C6
:102AD00043F002030B6480F31188BFF36F8F82F31E
:102AE0001188BFF36F8F00205DF8044BFFF7A0BF84
:102AF00018960120C895012010B1012804D0704714
:102B0000034B1B6C5B0701D1FFF792BF704700BFFF
:102B1000C89501202DE9F0413849BFF35B8F074686
:102B2000012251E8003F41E800200028F9D1BFF31D
:102B30005B8F33B9324933484B60CB608A6005F014
:102B40005FFD7B1E012B2BD8012F07D14FF0804357
:102B5000D3F81C3403F00303012B21D007F0F2F962
:102B60000546F8B9284B1B78E3B14FF080430222A9
:102B7000C3F808230646DFF894804FF08044D4F869
:102B80001824D4F81834D20315D503F00303012B0D
:102B900001D0012F0FD155B386F31188BFF36F8F8A
:102BA000BDE8F081EFF31186202383F31288BFF391
:102BB0006F8F0125DFE7ADB1304605F06AFED4F82E
:102BC0001835002BDBD1D4F80421002AD7D0C4F863
:102BD0000431D4F804310123C4F81835C8F8803121
:102BE000A360CCE70021212007F01FFAE7E74FF0B0
:102BF00080430222C3F80423D2E700BFC49501201A
:102C0000B4950120E49501209C99012000E100E0A9
:102C1000024B0B6001231360704700BF1C9601201C
:102C200000487047A0A6000010B5012211460648D2
:102C3000064C07F0EAF806F0A7FF206006F0A0FFB8
:102C40006060002010BD00BF249601201C9601206A
:102C50004FF08042D2F81015D2F8103501F01E0165
:102C600023F01F030B4343F00103C2F81035024B5E
:102C700000221A70704700BF8B9901204FF08053DB
:102C8000D3F83031082B20D14FF08042D2F8101504
:102C9000CB071AD5D2F8103501F01E0123F01F031F
:102CA0000B43C2F81035D2F808315BB1D2F81035B9
:102CB00023F01F030B4343F00103C2F810356FF0FC
:102CC0008B007047024B01221A700020704700BF32
:102CD0008B9901202DE9F0410D46164606F050FF74
:102CE00031460746284605F008FF78B3B5FBF7F3F1
:102CF00007FB135353BBB6FBF7F407FB14642CBB61
:102D0000B7421DD84FF0FF324FF0FF331148DFF8C4
:102D1000488002F0F1FA06F033FF0746FFF7AEFFF6
:102D2000044680B9284601F0E3FC98F800300BB166
:102D3000FFF78EFFF61B3D44F0D1064802F0A8FADB
:102D40002046BDE8F0816FF08B04F6E76FF01504C4
:102D5000F6E700BF249601208B9901202DE9F84366
:102D60000E463046194617461C4605F0C6FE88B387
:102D700046EA040515F003052CD1BCB11748DFF86D
:102D800064904FF0FF324FF0FF3302F0B5FA24F0B9
:102D90000304AC4206EB05080BD1114AD2F800340B
:102DA000DB07FBD500240D4802F072FA2046BDE88F
:102DB000F883FFF763FF50B97959404601F0B4FC3E
:102DC00099F800300BB1FFF743FF0435E1E76FF0EE
:102DD0008B04E8E76FF01504E8E700BF24960120B4
:102DE00000E001408B990120F0B544681646A068C8
:102DF000227C01F01F0587B045EA421500286DD0FE
:102E0000B6F5001F04D1294606F0B0FE002056E0BA
:102E10006268607CC2F8240501AA0020B6F5800F24
:102E20000190506037D1B3F1007F14BF0523042314
:102E30008DF804300023CDE904230393E36823FADB
:102E400001F111F001010DF103073AD1B6F1A07FB4
:102E500037D105F01F036A0903F5E07326D0012A74
:102E60003FD1214A52F82330DB072AD4A0683A46E2
:102E7000294606F0F1FD16301BD00297A06803AA80
:102E8000294606F0B5FC002819DBA0680122294676
:102E900006F019FEBAE7B3F1C06F05D0B3F1007FB9
:102EA00014BF01230223C3E70323C1E74FF0A0426D
:102EB000D8E7A068394601F01BFB0028DDDA07B02F
:102EC000F0BDA0683A46294606F0C6FD0028D5D1D7
:102ED0009DF80310A06801F005FBCFE76FF08500B7
:102EE000EDE751F82330FFDE00030050420970B5D2
:102EF000034602D0012A17D070BD0D4E32695168C9
:102F00000029F9D003F01F0301250C689D4000291A
:102F1000F2D08A682A4002D04B68304698472CB1DC
:102F2000236821461C46F2E7024EE7E72346F8E70E
:102F3000CCA20000B0A2000038B54568A86890B1E6
:102F400006F0B9FD014670B9A86806F098FD044680
:102F500058B902460649A86806F07BFD22460521BD
:102F60000620FFF793F9002038BD6FF00400FBE75F
:102F7000ED2E00002DE9F043476840F20636D006FA
:102F80003B7C87B002EA060654BFC2F3401C4FF0F8
:102F9000030C01F01F05B6F5837F144645EA43157F
:102FA0008DF803C045D00DD8062E16D005D8A6B191
:102FB000022E40D06FF0150038E0B6F5807FF9D1D1
:102FC00001260AE040F20222964236D0B6F5407F52
:102FD00035D0B6F5007FEDD102260123220303FA96
:102FE00001F12ED57B68C3F80815B86890BB05F0D1
:102FF0001F036D092BD0012D75D13D4A02EB8302D1
:1030000084F48033D2F80017C3F30043C4F3404480
:1030100044EA430421F4E16144EA8C0421F007010D
:1030200044EA06230B43C2F80037002007B0BDE88E
:10303000F0830726D1E70426CFE70526CDE7032650
:10304000CBE7630344BF7B68C3F80C15CDE74FF0B3
:10305000A042D3E70DF10202294606F0FDFC14F46C
:10306000403F80460CD1B868294606F02AFDB8F1E9
:10307000000FDAD19DF80210B86801F033FAD4E7F6
:103080004FF0000901ABCDE90199CDE90439CDF844
:103090000C90B86803AA294606F0AAFB4845C4DB91
:1030A00014F4003314D084F480349DF803308DF888
:1030B0000E30C4F300448DF80C608DF80D40B868F4
:1030C0004B4603AA294606F04BFC0028CFDAACE7B2
:1030D000CDE904330DF103030393B86803AA29462D
:1030E00006F086FBF1E703F5E07350F82330FFDECE
:1030F00000030050036803F01F025B09026004D064
:10310000012B034818BF002070474FF0A0407047C4
:10311000000300502DE9F04FDFF87081DFF8709167
:1031200085B09246834600EB810140F2FF17594576
:1031300003D1002005B0BDE8F08FDBF80030580463
:10314000C3F3C322C3F3080400F19980BC4218F80A
:1031500002604FEA136312D0192B1DD94E2B40F099
:103160009180CAF8144503A80394FFF7C3FF039B9B
:10317000012505FA03F3C0F808352A4643E0192B68
:1031800008D94E2B7ED14FF0FF33CAF814350BF11E
:10319000040BCCE74FF0FF34032B73D9043B152B02
:1031A00070D8DFE803F00B11216F6F6F6F27546F3A
:1031B0006F6F6F6F6F6F6F6F57636669631CCAF8CD
:1031C0000845E4D0002504E0651CCAF80C45DED0B3
:1031D000012503A80394FFF78DFF039B012202FA48
:1031E00003F3C0F80C350EE0CAF81045631CCED0CE
:1031F0000025C2E7CAF80845002EF7D1601CC6D0EA
:1032000000252A460626DBF80030019303F400402F
:10321000002818BF002203A8009218BF01250394BC
:10322000FFF768FF039C019B009A00EB8400C3F347
:10323000412CD0F80047330243EA8C03134304EADD
:103240000904234343EA4503C0F800379FE7CAF85F
:103250000C45D1E7CAF86045621CDBF8003096D017
:10326000C3F30043002B7FF47EAFB1E7CAF8644597
:10327000F2E7CAF86845EFE7CAF86C45ECE76FF08B
:10328000150057E76FF0850054E700BFCAAF000094
:10329000F0F8FCFF2DE9F04F8DB09A46436800939B
:1032A0008B88046907469804894693462CD44FF0CE
:1032B000FF324FF0FF3304F1380002F01DF8C4F87C
:1032C0002C907D68D7F810802B68019398F8853092
:1032D00023B1D8F82830994500F09E80B9F804E071
:1032E0001EF4006F17D06FF08505A36A13B19B8899
:1032F0009B0405D40023E36204F1380001F0C8FF09
:1033000028460DB0BDE8F08F236C002BCFD1E36AC7
:103310009942CCD1D5E71EF0090F02D06FF0150508
:10332000E3E7CEF34513082BF8D1D9F800C09C4B46
:103330009C45F3D904350FCD02AE0FC60FCD0FC695
:10334000019B634528BF63469C4695E80300954B67
:103350009C4586E803001BD2934B9C4518D2934BA7
:103360009C4515D2924B9C4500F2D080914B9C45D8
:1033700000F2CE80904B9C4500F2CC808F4B9C4558
:1033800000F2CA808E498F4B8F4A8C4588BF134606
:103390001EF0020F07930EF0040300F0BF80002B15
:1033A00014BF032302238DF82030CEF300138DF8D1
:1033B0002130D8F80030D3F80835591C15D01EF04C
:1033C000020F03F01F00CEF340014FEA53134FF0FA
:1033D000010240F0AA80002B00F0A480934240F04C
:1033E000D8807A4B8240C3F80C2598F885302BB1F1
:1033F000404601F067FB002388F88530744A3B465D
:1034000002A9404606F031FC051EFFF66EAF01230F
:1034100088F88530C8F82890012384F88430009B10
:10342000D96B4A1C02D0986B05F0CCFDBBF1000FA4
:1034300040F08680C4F85CB00023236604F170027B
:1034400004F1600104F15C0005F0EBFBE066BAF109
:10345000000F7ED1C4F864A00023A36604F17802B3
:1034600004F1680104F1640005F0DBFB002504F1C0
:1034700028062A46606701213046A56505F007FC4D
:10348000384605F0BBFC206E2A462B46834269D1A4
:103490000023A56E1946A9426BD19A4238BF1A463D
:1034A0004FF4FA5303FB02F5A36A4FF000081B68C0
:1034B000B5FBF3F54FF4004CC835414640F2E73018
:1034C0004FF47A720023E5FB0C01FCF719FE04F1BE
:1034D000480602460B46304601F00EFF024618B978
:1034E000A56D15F1740F4BD12046C4F8808001F012
:1034F000E9FA84F885806FF07301384605F06CFCBA
:10350000304601F01FFF6FF07305EEE6314B3FE7E9
:10351000314B3DE7314B3BE7314B39E7003B18BFBF
:10352000012340E74FF0A0435CE733B1012B33D1D7
:10353000264B8240C3F8082557E74FF0A043F8E731
:10354000DBF80030E365002B3FF476AFDBF80430A6
:1035500073E7DAF800306366002B3FF47DAFDAF8EA
:1035600004307AE7E16D01EBC301013349680A4495
:103570008CE7606E00EBC1000131406803448AE7CC
:10358000002D3FF4B2AE38691146283005F07FFBBC
:10359000ABE6C1F80C15FFDE0023C3F80835FAE7E7
:1035A00047E801000048E8010024F40000127A0016
:1035B000FF083D007F841E003F420F001FA107004F
:1035C0008FD0030048E8010090D0030000030050B2
:1035D000BD8E000000093D0080841E0040420F00A7
:1035E00020A1070000F01F0240090DD001280ED1D4
:1035F0000A4B03EB82030A4AD3F80007024042EA6F
:103600008102C3F8002770474FF0A043F1E702F5AD
:10361000E072002353F82230FFDE00BF00030050A9
:10362000F0F8FCFF70B5012383400E4ABFF35B8FB7
:10363000DC4352E8001F01EA040542E80056002E70
:10364000F7D1BFF35B8F4FF4803282400648C0F859
:103650000823BFF35F8FBFF36F8F0B4214BF0120AE
:10366000002070BD509601200010014070B40E493A
:10367000D1E90034D01AC31844F1000422F07F4687
:10368000C1E90034A6F50013B3F5400F09D2074B8A
:103690001B681A0A1B069C19054B42F10005C3E979
:1036A000004570BC02F0F2BCC00800205496012016
:1036B000C808002011B3BFF35B8F0123104A834079
:1036C00052E800CF4CEA030C42E800C10029F7D1D0
:1036D000BFF35B8F0B4A4FF480338340C2F804334F
:1036E000094BBFF35B8F1B68BFF35B8FC340DB07E6
:1036F00042BF064B4FF40032C3F80021704700BFB1
:1037000050960120001001404C96012000E100E09D
:103710000D4B1868010A0006BFF35F8F0B4BD3F8FF
:103720000435181841F10001B3F5801F0AD2084B87
:10373000D3E90023904271EB030303D210F18070B0
:1037400041F10001704700BF549601200010014074
:10375000C80800202DE9F04F85B016461F469DF899
:1037600040A00446FFF75EFF0190FFF7D1FFB04293
:1037700071EB070354D23E4B301A67EB01019842BC
:1037800071F100014FD23B4B03EB0413D3E9022349
:103790009F4208BF96425ED037494FF4803804F10B
:1037A000500508FA04F8AD00C1F848832046ADB2D0
:1037B00005F030FC26F07F4B05F1804504F5A87339
:1037C00005F58835DC464FF003090293029A2CF088
:1037D0007F4341F82230C1F84483D1F80435274AA9
:1037E0006FF00200C01A604420F07F40904232D94E
:1037F000286868B1D1F804350393A3EB0B0020F0DF
:103800007F40B0F5000F26D9204605F003FC039B4E
:10381000BAF1000F07D109EB030C09F10109D5E753
:10382000BAF1000F09D06FF0150520460199FFF796
:1038300041FF284605B0BDE8F08F0123104ABFF3D1
:103840005B8FA34052E8000F184342E800010029B3
:10385000F8D1BFF35B8F07490E98230101EB0412E7
:10386000C8500F9B5360C2E902670025DDE700BF27
:1038700001008000B008002000100140FDFF7F0023
:103880004C9601207FB51C4C1C4BC4F80833C4F87F
:1038900048331B4B00254FF0FF304FF0FF31C4F889
:1038A0000855C3E902014FF48033C4F80433154BC3
:1038B00002264FF400320121C4F804631120C3F83A
:1038C00080212A46FEF7E2FC1120FEF7AFFC0E4AEB
:1038D0000123A360236013600C4B0D4A0093CDE9D4
:1038E000015500232846FFF735FF3046FFF712F950
:1038F000284604B070BD00BF0010014003000F0057
:10390000B008002000E100E0509601206D36000074
:10391000FFFF7F002DE9F7432F4CD4F804339907BC
:103920000BD5D4F8043143B12C4A0023C4F8043138
:10393000D4F80431136801331360D4F80433DA0384
:1039400029D5BFF35B8F264B53E8002F22F00101EE
:1039500043E800100028F7D1BFF35B8FD30702D4F0
:10396000D4F84031BBB10025C4F84051D4F84031FF
:10397000FFF7CEFEEFF31182202383F31288BFF30B
:103980006F8F184BD3E90267B042B94106D282F378
:103990001188BFF36F8F03B0BDE8F0834FF0FF389D
:1039A0004FF0FF39C3E90289D3E900101D604FF4DD
:1039B0008033C4F84833C4F84051D4F8403182F31E
:1039C0001188BFF36F8F0029E5D0009032463B4647
:1039D00028468847DFE700BF0010014054960120C9
:1039E0004C960120B008002030B5431C124C85B025
:1039F00005D08442A8BF0446012CB8BF0124FFF7BC
:103A000087FE0E4B0C4DD3E90013401AB0F5000FA2
:103A100010D22218AA4228BF2A4652184FF000009E
:103A200007490091CDE9010043F10003FFF792FE41
:103A300005B030BD2A46F0E7FFFF7F00C008002038
:103A40006D36000008B5FFF763FE024B1B68C01A15
:103A500008BD00BFC008002010B5084C01236360FA
:103A60001120FEF7F1FB064BC4F80833C4F84833C5
:103A7000044B4FF40032C3F8802110BD0010014008
:103A800003000F0000E100E00048704798A7000025
:103A90002DE9F04F066945683E4970648FB00446D1
:103AA00006F1100006F02FFA002386F8403028684F
:103AB00006F01CF928B96FF0120528460FB0BDE8D2
:103AC000F08F2B7E9BBB204605F0DEFAAA8F606844
:103AD000AB2105F0C3FA616801F13F0301939F2315
:103AE0008DF80B300DF10B030125049304AF002377
:103AF000CDE90A35CDE906750DF10C0A4FF0030B3F
:103B00000AAE02230595CDF830A0CDF834B0089662
:103B1000099351F8040B0DF120080DF118094346E3
:103B20004A4605F087FA40B16FF004050DE0E868F9
:103B300006F0DCF80028C6D1BDE701985A46514688
:103B400006F026FB28B16FF01205206905F0B7FAE0
:103B5000B3E7D4F804A0104B06933946042350462B
:103B60000B95CDE90938CDF8209005F009FB054605
:103B70000028EAD1BDF81030DB07E6D431465046C4
:103B800005F065FA0028CFD1204605F01DFB00287E
:103B9000DBD0C9E74D9100003D2A80A62DE9F04316
:103BA0000D1E87B007461646C0F28480D0F8048008
:103BB000AB18D8F828209A427CD3B8F8363095FB59
:103BC000F3F203FB1252002A77D1B6FBF3F203FBA8
:103BD0001263002B71D105F057FA98F83830002B9A
:103BE0003DD1D8F82830B34239D1354B019301ABE0
:103BF00002930423039302AB04937868012304A97E
:103C0000059305F024FA20B9384605F0DDFA04469C
:103C100008B16FF00404386905F051FA204607B086
:103C2000BDE8F083D8E90B932BB1AB421BD84D45CF
:103C300001D2A9EB030998F83930B3B9B14514D8CA
:103C400009F1FF332B4210D12A467C21384605F07A
:103C500019FB4D440446A6EB0906002CDBD1002ECF
:103C6000E0D13446D7E79946E5E7B8F83430B342B7
:103C700002D8013B2B4206D0B8F83630B3420DD9FA
:103C80006FF01504C7E72A465021384605F0FAFAC6
:103C9000B8F8343004461D44F61ADEE7013B2B42E7
:103CA000EED12A468121384605F0ECFAB8F83630D4
:103CB0000446F0E76FF01204B0E76FF01504ADE7CB
:103CC000C794809A30B50C490C4D0B68024600240D
:103CD00005EB0310D0F80808C0B218B904B10B60A6
:103CE000002007E00133072B4FF00104F0D90B60EF
:103CF0006FF01B00136030BD5896012000E00140BA
:103D0000F0B5816885B01039054621F0070404F04C
:103D10004EFD0B4B6E4603F1100C32461868596885
:103D2000374603C7083363453E46F7D11023214683
:103D3000284604F00BFD003818BF012005B0F0BD87
:103D400066A9000030B50D46816887B0102302AA2D
:103D50001039044604F0E5FC002802DA012007B01F
:103D600030BD102202A9204605F00DFB00283AD1F3
:103D70001E49102202A806F00BFA00280CBF0123EE
:103D800002232B70204605F0EAFA012301460DF1CB
:103D90000702204604F0C5FC0028DFDB9DF8073051
:103DA00003F00F021B096A702B7101220DF107014C
:103DB000204605F0E8FA10B96B78042B03D90123EB
:103DC0006B7000232B71A268183A22F00702083AA0
:103DD000A91C204605F0EAFA0028BFD1E91C2046BC
:103DE00005F03CFBBBE70323CBE700BF66A900005F
:103DF000F0B5354F460085B00546694657F82600B0
:103E000005F032FB044610B1FF2005B0F0BD0136CD
:103E100002A957F8260005F027FB012837D12B48C7
:103E20002A46492104F062FC294B02938DF80C408C
:103E30009DF800609DF80870264C002220783146DD
:103E400005F093FA50B36078394605F08EFA28B33E
:103E5000A378042B03D09DF8031099421ED1E37878
:103E6000042B03D09DF80B10994217D12379042B12
:103E700010D16279022A1DD1174B18482A464921D0
:103E800004F034FC6079831E022BBED9BCE7002805
:103E9000CED0B9E79DF802109942EAD00132032A48
:103EA00004F10604CAD10E482A46492104F01EFC3A
:103EB0000120AAE7032A05D00A4B0B49042A08BFB0
:103EC0000B46DAE7094BD8E7A0A70000FDAF0000DA
:103ED0000301030392B00000F1AF000048B00000FE
:103EE0006CB0000026AD0000F6AF0000ECAF0000A3
:103EF000BFF34F8F0549064BCA6802F4E0621343D3
:103F0000CB60BFF34F8F00BFFDE700BF00ED00E0C7
:103F10000400FA054FF08053D3F83021082A06D167
:103F2000D3F83431052B02D8024AD05C7047002008
:103F3000704700BFAAB00000024AD2F80034002B3C
:103F4000FBD0704700E0014010B54FF08053D3F82C
:103F50003021082A4ED14FF080420021C2F80C11C6
:103F6000C2F81011C2F8381502F54042D3F8041413
:103F7000C2F82015D3F80814C2F82415D3F80C148D
:103F8000C2F82815D3F81014C2F82C15D3F814145D
:103F9000C2F83015D3F81814C2F83415D3F81C142D
:103FA000C2F84015D3F82014C2F84415D3F82414ED
:103FB000C2F84815D3F82814C2F84C15D3F82C14BD
:103FC000C2F85015D3F83014C2F85415D3F834148D
:103FD000C2F86015D3F83814C2F86415D3F83C144D
:103FE000C2F86815D3F84014C2F86C15D3F84434FD
:103FF000C2F87035FFF78EFF18B1474B474AC3F838
:104000008C26FFF787FF18B1454BFB22C3F8182514
:10401000FFF780FF70B14FF080414FF08053D1F82F
:10402000E42ED3F8583222F00F0203F00F031343AB
:10403000C1F8E43EFFF76EFF20B13A4B4FF4007237
:10404000C3F840264FF08053D3F83031082B09D104
:104050004FF08043D3F80024D20744BF6FF0010231
:10406000C3F80024304AD2F8883043F47003C2F811
:104070008830BFF34F8FBFF36F8F4FF08053D3F86B
:104080003021082A0ED1D3F83431052B02D8274A23
:10409000D35C3BB14FF01023D3F808224FF080439C
:1040A000C3F858254FF01021D1F80C32DB0714D596
:1040B0001F480123C0F80435FFF73EFFD1F80C324A
:1040C00023F00103C1F80C32FFF736FF0023C0F8DC
:1040D0000435FFF731FFFFF70BFFD1F80032002B5B
:1040E00003DBD1F80432002B14DA114901234FF01D
:1040F0001020C1F804351224FFF71EFFC0F800425B
:10410000FFF71AFFC0F80442FFF716FF0023C1F8BB
:104110000435DEE710BD00BF0050004048810300B9
:1041200000F000400090024000ED00E0A4B000006C
:1041300000E00140014B00201B6818475C960120FD
:10414000014B1B68184700BF5C96012010B50C4C52
:10415000237993B9012323710A4B2060002818BFEB
:10416000184600F05BF850B923680748002BBDE8FB
:10417000104008BF184600F0A1B86FF0770010BDDE
:104180005C960120354100004141000008B5064B16
:104190001B683BB10020FEF76BF818B9BDE808407A
:1041A000FEF744B808BD00BF5C9601204FF0805375
:1041B000D3F83021082A06D1D3F83431052B02D8A0
:1041C000024AD05C70470020704700BFB0B00000CA
:1041D00038B54FF080440123C4F8083363600023EE
:1041E000C4F80031D4F8003142F21075D4F80C2430
:1041F000D4F80C34D20307D5DB0705D5012005F030
:1042000069F9013DF2D138BDFFF7D0FF0028FAD09F
:10421000014B00225A71F6E76496012010B5084957
:104220000C794CB9012308600B71FFF7BFFF08B987
:10423000002010BD4C71FBE76FF07700F9E700BF7D
:10424000649601204FF080430022C3F80021D3F888
:104250000021094901221A60096811B1C3F8042339
:104260007047D3F80021002AFBD00022C3F80021B8
:10427000D3F80031704700BF6496012010B54FF0AD
:104280008043D3F80423D20715D5D3F8002192B187
:104290000022C3F800210121D3F80021C3F808133C
:1042A000FFF784FF044B10B15A7922B95971BDE868
:1042B00010401B68184710BD64960120074A137907
:1042C00043B90121106011714FF080421846C2F8C5
:1042D000183570476FF07700704700BF6C9601206B
:1042E00010B54FF080431D4CD3F81814D3F81824A0
:1042F00011F4803F19D002F00302012A03D00AB161
:1043000005F03EF900224FF08043C3F81825002243
:10431000C3F80421D3F8042101229A60226872B9FB
:10432000D3F80421002AFBD011E0D3F81424D107DC
:10433000E8D5D3F81C249207E2D422681AB10222ED
:10434000C3F8042310BDD3F80421002AFBD00022B7
:10435000C3F80421D3F80431F4E700BF6C960120C0
:10436000F8B54FF08043194FD3F80443012504F00A
:104370001A04002604B9F8BDB4FA84F0C0F11F0095
:10438000830003F580739BB203F1804305FA00F2CA
:10439000196824EA02040029ECD01E601B684FF063
:1043A00080430128C3F808230CD1D3F81824D3F88C
:1043B0001824920706D10222C3F81805C3F8042373
:1043C0009860D7E73B68C0B29847D3E76C96012066
:1043D000036803F01F025B09026004D0012B03484D
:1043E00018BF002070474FF0A040704700030050F6
:1043F000034A430900F01F00D35C1844C0B2704761
:10440000B6B00000034611F0010030B5CCB213D1B4
:10441000A207C4F3400020D5124AD2F82005586004
:104420004FF08053C2F82005D3F83031082B15D057
:10443000003818BF012010E04FF0A0414FF0805528
:10444000D1F820251A60C1F82025D5F83051082D63
:1044500008BFD1F82015002ADAD030BDD2F82035B7
:10446000E6E700BF00030050F7B504460846FFF733
:10447000BFFF06B204EB46060D46B38ADB072BD519
:10448000204605F092F92946204605F0ECF858B18F
:10449000204605F0FEF8276800B207EB80030022F3
:1044A000C3F81025C3F810252946204605F01AF94F
:1044B0000021B18201A80195FFF78AFF019B00EB63
:1044C0008300074BD0F80027134043F00203C0F8E5
:1044D0000037084603B0F0BD6FF01500FAE700BFE3
:1044E000F0F8FCFF014805F015B800BF20070020D8
:1044F00010B504480C4604F0EFFF0028A4BF20705C
:10450000002010BD200700202DE9F04F804689B023
:1045100058F804ABDAF80413C9B28346082241F014
:104520000041504605F019F9051E2BDA002303213E
:1045300006A8CDE90633FFF765FF644B01930DF143
:1045400018090023019A009312F8013B6049019277
:10455000DA0803F007038A5C22FA03F3DA071AD4B5
:10456000009B09F10409A3B14FF00041002250461D
:1045700005F0F3F8032106A8FFF744FF0028DCD17B
:1045800025F000450124002D40F08A8009B0BDE8E7
:10459000F08F0123D6E7009B4E4A13440293D9F8CB
:1045A00000100029DCD0029B91FAA1F11C78B1FA2D
:1045B00081F141EA44142046FFF71AFF0BEB40005B
:1045C0000594878AC808BB0819F80020039301F0F6
:1045D0000701012303FA01F122EA010209F8002090
:1045E00005A8FFF7F5FE059A039B02F5E072C7F3F5
:1045F000820650F822205B073746C2F3014233D5CA
:10460000D6B240463A46214605F04DF805A8059435
:10461000FFF7DEFE059B03F5E07350F82330C3F38C
:1046200001439E4207D10021204605F00DF8314696
:10463000204605F009F805A80594FFF7C9FE059B7B
:10464000012202FA03F3C0F820354FF08053D3F86B
:104650003031082B01BFD0F82035D0F82035D0F804
:104660002035D0F820359AE7022A0DD103212046C3
:1046700004F0EAFF06F00503012BDCD13A4621469F
:10468000404605F010F8D6E702212046039204F0D8
:10469000DBFF032EF2D0039A032ACCD1022EECE7E3
:1046A00095FAA5F3B3FA83F304FA03F225EA0205B7
:1046B00003F5A2720BEB43035AF82220B3F87C10E7
:1046C000C2F30142404604F0EEFF5CE7C6B00000D2
:1046D000ACA70000C6B00000044AD2F80034DB07E3
:1046E000FBD50160BFF35F8F704700BF00E0014062
:1046F0004FF080531A69B0FBF2F302FB13036BB95E
:10470000084B0222C3F80425C3F80805D3F8002497
:10471000D207FBD50020C3F8040570476FF00C00EA
:10472000704700BF00E0014010B5054C0123C4F8FC
:104730000435FFF7D1FF0023C4F8043510BD00BFD6
:1047400000E001404FF08053D3F83021082A06D111
:10475000D3F83431052B04D8034AD05C70470020CD
:1047600070470120704700BFC8B00000036803F025
:104770001F025B09026004D0012B034818BF002010
:1047800070474FF0A04070470003005070B54B7F5A
:1047900004460D467BB101234361642600220221B9
:1047A000204605F00AFA20B9012004F093FE013EEC
:1047B000F4D100236B77AB7F5B0720D54FF080529D
:1047C000D2E94C23082A1BD1052B19D80E4AD35CF9
:1047D000B3B14FF0FF320023D4F80805D4F80C151C
:1047E000C4F80035C4F80825C4F80C250922C4F81B
:1047F0000025C4F80035C4F80805C4F80C1570BDD0
:104800000023C4F80035FAE7CEB000000F4B984201
:1048100019D00DD80E4B984215D007D80D4B9842A1
:1048200011D00D4BC31A5842584170470B4BF9E752
:104830000B4B984207D004D80A4B984203D00A4B3E
:10484000F0E70A4BEEE70120704700BF80841E00AE
:1048500020A1070048E8010090D0030040420F006B
:104860000024F40000093D0000127A000048E8012D
:1048700037B51446421C054618D0012902D1BBB1F8
:1048800005F0D9F901A80195FFF770FF019B0A4ACD
:1048900000EB8300A300D0F8005743EA41030B4329
:1048A0002A40134343F44073C0F8003703B030BDCF
:1048B00005F0CEF9E6E700BFF0F8FCFF2DE9F84F70
:1048C00091F8213007460C46002B00F0968091F8B5
:1048D00022806569674B9D4200F0A88000F29880B5
:1048E000654B9D4200F0A58000F28A80634B9D429B
:1048F00000F0A280624B9D420CBF4FF080654FF0EC
:10490000804594F8232097F8223062F3000387F85B
:104910002230227CDBB262F3410387F8223094F824
:1049200023600EBB237E2068012B94BF002301234C
:1049300001213246FFF79CFF606833463246FFF79D
:1049400097FFA27EA06833463146FFF791FF237C94
:10495000E06883F0010332460121FFF789FFE06937
:104960000B463246FFF784FF94F82130002B6CD0C1
:104970004FF0FF337B6294F8211094F812E0207E10
:10498000627E00296BD0E668217C94F8249094F82C
:1049900020C03B68B9F1000F12D1D4E900BAD4F8B5
:1049A0000890E469C3F808B5C3F80CA5C3F81095DE
:1049B000C3F86C45C3F81465C3F86815C3F864857B
:1049C000003A18BF01220228C3F8C0E5C3F82455F5
:1049D00048D0032849D0012801D142F00202C3F88F
:1049E0005425C3F860C57B68002B41D03868BDE80A
:1049F000F84F40F30730FDF719BC4FF0020868E7A5
:104A0000204B9D420CBF4FF080554FF0804578E71A
:104A10001D4B9D4213D01D4B9D4213D01C4B9D42FC
:104A20000CBF4FF000454FF080456AE74FF000554E
:104A300067E74FF0006564E74FF0007561E74FF0FE
:104A400020655EE74FF0A0555BE7E3687B62227C60
:104A500097F8223062F3410387F822308BE74FF05A
:104A6000FF3692E742F00402B9E742F00602B6E7E9
:104A7000BDE8F88F80841E0020A1070048E80100EF
:104A800090D0030040420F000024F4000048E801E9
:104A900000127A00431C07B50ED0019001A8FFF761
:104AA00065FE019B00EB8300054BD0F80027134007
:104AB00043F00203C0F8003703B05DF804FB00BF09
:104AC000F0F8FCFF38B50446006840F30730FDF706
:104AD000BBFB636843B121461A4A51F8043BC3F853
:104AE00008232068FFF752FE2368D3F80805D3F89F
:104AF0000C15D3F8105594F82230DB0714D4FFF7C7
:104B0000C9FF2846FFF7C6FF0846FFF7C3FF606AE4
:104B1000FFF7C0FF2368D3F86C05D3F81415FFF72F
:104B2000B9FF0846FFF7B6FFFFF70CFE28B1064AAB
:104B30002368934204BF01225A60002384F8203086
:104B400038BD00BF5201080000F00240F0B590F8F7
:104B5000213085B005460E461746002B40F0CC802C
:104B600043682BB112F0140F04BF012380F82130E9
:104B700096E80F0005F1100484E80F00686A441CF1
:104B800005D095F82230990717D505F054F831680B
:104B90002C6821B101F06043B3F1005F06D1B36826
:104BA00073B103F06043B3F1005F09D0002385F8CF
:104BB00021306FF00C0005B0F0BD05F049F8E6E7D4
:104BC000FFF7C0FD38B34E4B9C4224D14FF08043D9
:104BD0007268D3F8000E4B4B1860E2B14A4821F4DA
:104BE000FF5323F01F03834274D85018DFF81CC111
:104BF000C3F34F3101228A40002103F5005398424C
:104C000041EA02014FEA420201D96345F5D34FF070
:104C10008043C3F8001E17F0010318BF0123C4F836
:104C2000503517F0020318BF0123C4F8403596E849
:104C30000F00EC468CE80F00039BC4F84405C4F851
:104C40004815C4F83425C4F838350023C4F81831A1
:104C500017F01C0FD4F818313FD1D4F80035073BBA
:104C600018BF012395F8222017F0080663F382028B
:104C70004FF0070385F82220C4F800350CD16A688C
:104C80000123236142B9D4F81831002BFBD06246CE
:104C90004021204604F091FF6B681BBBFFF752FDDB
:104CA00040B1174B9C4201BF164B1A684FF080432E
:104CB000C3F8002E686A421C05D095F822309B0785
:104CC0000DD504F0C5FF1EB9291D2046FFF75EFD76
:104CD000002070E74FF4807199E70123C2E704F0E8
:104CE000AAFFF0E717F0040F4FF0400314BFC4F819
:104CF0000833C4F80433EBE76FF00F005BE700BF45
:104D000000F0024074960120FFFF002000200120E7
:104D100070B50246044652F8105B4021284604F064
:104D20004CFF38B3FFF70EFD40B1134B9D4201BF5E
:104D3000124B1A684FF08043C3F8002E606A421C81
:104D400005D094F822309B0711D504F081FF94F828
:104D500021301BB1211D2846FFF718FD20460023F6
:104D600000F80C3FD4E90131BDE87040184704F069
:104D700062FFECE770BD00BF00F0024074960120B6
:104D800008B5144BA8220021184605F039FA032271
:104D9000026111494261114A8161C2614FF480622E
:104DA0000262002282624262C26201660C4941666E
:104DB0001021816603460267C2664267BFF35F8FB8
:104DC000084911F8010D98540132102AF9D1BFF3A6
:104DD0005F8F08BD10040020D4B000001000002038
:104DE00000000020EDB0000010B4BFF35F8F0C4A4C
:104DF0000C490023C85C12F8014D84420AD10133EA
:104E0000102BF7D10023BFF35F8F2BB15DF8044B5C
:104E1000FFF7B6BF0123F6E75DF8044B704700BF0C
:104E2000EDB000001004002038B5EFF31185202309
:104E300083F31288BFF36F8F064B9C6804F069FF01
:104E400085F31188BFF36F8F2046BDE83840FDF72A
:104E500077B900BF7896012038B50A4B53F8204047
:104E6000013053F82050A54200D838BD606830B1F9
:104E7000037EDB0701D404F021FF0834F3E7236845
:104E80009847FAE7B0A7000070B52A4B2A4C2B4D83
:104E9000012286B003201A70FFF7DEFF05F04BF900
:104EA0000420FFF7D9FF2646AE4204F1300410D3A8
:104EB00000F000FE204C224EAC4226D300F00EFE45
:104EC000FBF788FA1F4A137B23F00103137306B024
:104ED00070BD54F80C3C059354F8103C049354F8FE
:104EE000143C039354F8183C029354F81C3C01936F
:104EF00054F8203C009354E90A2354E90C0100F0D3
:104F0000D1FB54F8303C5E65CDE7D4E90A23B3F118
:104F1000FF3F08BFB2F1FF3F05D052EA030120680E
:104F200003D100F097FE3034C6E73146183001F067
:104F30001DF8F8E79C990120C0A40000F0A400002F
:104F400023A000009009002070B5154E154D16499C
:104F5000C02386B003FB006601220023CDE90423B1
:104F60000F22CDE902320193182303FB00550446BA
:104F700001EB40210D4B00954FF4C072304600F01C
:104F800091FB737B0A4AEE6023F0040373734FF4C2
:104F9000086304FB033313442C746B6006B070BDCC
:104FA000D00800207896012000AB0120D79D00009A
:104FB00080A20120BFB50020FFF74EFF284B83F3EE
:104FC0000888284C284F636943F400736361002507
:104FD000E02384F82230E57725766576A57684F897
:104FE0002050636A43F4E023636284F82350FDF7A2
:104FF00023F8FDF747FA4FF0FF33A362E362FDF7B2
:105000000DFBFDF763FA1948194C00F0C3FB0120B2
:10501000FFF722FF0220FFF71FFF00F093FD154B63
:1050200015499C61154B05930123CDE903534FF4BA
:1050300020523B46CDE901550095204600F032FB59
:10504000627B064622F004022046627304F0BDFF34
:105050002846FFF779FF3A4631462046FDF7E6F944
:1050600000AB012000ED00E0894E0000500A002056
:10507000900900207896012000AD0120EEB00000DC
:1050800038B5064C064D0020AC4200D338BD204652
:1050900004F042FE0028F9DB1C34F5E79C070020F1
:1050A0009C07002073B50C46EFF31181202585F392
:1050B0001288BFF36F8FC5685DB125602B68C36030
:1050C000836901338361002081F31188BFF36F8FFF
:1050D00011E052EA030603D125606FF00B00F3E7FD
:1050E000CDE900230246083000F02AFC18B9034B32
:1050F0009B681B69236002B070BD00BF78960120D9
:105100002DE9F341044617461E46EFF3118820238C
:1051100083F31288BFF36F8FC368334A7BB1806813
:105120009168884219D057EA060318D188F311888C
:10513000BFF36F8F6FF00F0002B0BDE8F081916890
:1051400091F90E1021610133E3609368A36088F345
:105150001188BFF36F8F0020EEE72169F2E791F924
:105160000E1090F90E309942A8BF19466FF07E02DA
:105170009142B8BF11468B422DDD04F037FE054643
:10518000CDE9007619482246414600F0D9FB0028B7
:10519000E1D0EFF31186202383F31288BFF36F8FE2
:1051A000A068D0B1236821699C420AD04BB193F921
:1051B0000E309942A8BF19466FF07E039942B8BFDE
:1051C000194604F013FE40B10848314600F04CFC8B
:1051D0006FF00A00B0E70025D2E7002DF4D186F386
:1051E0001188BFF36F8FF3E7789601209D99012016
:1051F000F8B583680546002B3FD0234A9268934256
:105200003ED1C368012B03D9013BC3600020F8BD28
:10521000EFF31187202383F31288BFF36F8F0169A7
:10522000806804F0E3FD2C68AC4207D10023C5E997
:10523000023387F31188BFF36F8FE7E7002CF5D0B7
:10524000D4E9003213605A60637B002623F0020326
:105250006373C4E90066A66004F1180004F03FFF20
:10526000AC6094F90E302B612046A66704F0ADFEC9
:105270000648394600F0F8FBC8E76FF01500C6E7AE
:105280004FF0FF30C3E700BF789601209D990120C1
:1052900070B5EFF31186202383F31288BFF36F8F6D
:1052A0000468A0421AD0CCB1D4E9003213605A602D
:1052B000637B002523F002036373C4E90055A560F6
:1052C00004F1180004F00BFF2046A56704F07DFEF2
:1052D00031460848BDE8704000F0C6BBD0E9023254
:1052E0009A4218BF0133836086F31188BFF36F8F32
:1052F00070BD00BF9D99012013B5EFF311812024EB
:1053000084F31288BFF36F8F846844B1013C8460DA
:1053100081F31188BFF36F8F002002B010BD52EAF5
:10532000030406D181F31188BFF36F8F6FF00F0074
:10533000F3E7CDE900230246014800F001FBECE76A
:105340009D9901202DE9F0410546EFF311872023B7
:1053500083F31288BFF36F8F00231E466FF00A0895
:105360002C68A54216D0ACB1D4E9003213605A6063
:10537000637BA66023F002036373C4E9006604F153
:10538000180004F0ACFEC4F87880204604F01DFE3E
:105390000123E5E70022AA602BB139460548BDE8A4
:1053A000F04100F061BB87F31188BFF36F8FBDE858
:1053B000F08100BF9D9901202DE9FF414F4E044629
:1053C0002027EFF3118887F31288BFF36F8FD4F88B
:1053D000C450F5B9022104F1DC0004F022FD0028DC
:1053E00068D004F1D40500220121284604F03EFED5
:1053F0000028F8D1002302934FF0FF324FF0FF3323
:10540000CDE90023414604F1CC023D4800F0ECFC1C
:10541000D7E7D4F8C8202B68C4F8C430954208BF39
:10542000C4F8C830D4F8DC3043F00203C4F8DC30F0
:10543000EB6823F0040343F00103EB606B6888F32F
:105440001188BFF36F8F28469847EFF3118887F3D1
:105450001288BFF36F8FEB68D80623F0010236D4B1
:10546000EA60EB689A0716D5306823F00203EB6018
:1054700088B10368002170B14268954235D1036854
:1054800069BB72683360824200D17360002340F8C8
:10549000083BFFF7FDFED4F8DC3023F00203C4F82C
:1054A000DC3088F31188BFF36F8FDB0589D400F0FF
:1054B00051FB86E7D4F8DC30D9069BD5C4F8DC0074
:1054C00088F31188BFF36F8F04B0BDE8F08123F03B
:1054D0001103EB6005F11000FFF7DAFEC1E70B6086
:1054E0007368834208BF7160D0E723B11A68014630
:1054F00018461346BFE71A46F9E700BF9C960120FD
:105500009D990120F8B5C3689A0704460F46C3F376
:1055100040062ED45B071CD40B680BB983680B6064
:10552000E368DD0744BFA3683B603D684CBF0226CB
:105530000126002D3CD0204B9A68D5F8C0309A4205
:105540000AD0D5F8DC30D807C3F3800214D46FF04A
:10555000120600233B6025E004F0F4FCD5F8DC30B3
:105560000028F0D1D907C3F3C002F0D552B15B07D0
:1055700008D46FF00F06ECE7002AFAD1C3F3C0039A
:10558000002BF6D100232360D5F8C83063B9C5E9F4
:105590003144284604F05FFCE36843F00403E36011
:1055A0003B68A3603046F8BD1C60C5F8C840F0E712
:1055B0006FF01506CDE700BF78960120F0B589B0F1
:1055C00004460020C4E931000E9D04F1CC00C4E97A
:1055D000330004F1D400C4E9350055B3287900281C
:1055E00040F2011008BF0120C4F8DC0000204FF099
:1055F000FF364FF0FF37CDE90330CDE90100CDE9AB
:1056000006670D4B0094204600F098F855B12968C4
:1056100011B1204604F09CFC6B791BB1237B43F055
:1056200001032373204600F015FBC4F8C04009B005
:10563000F0BD0120D8E700BFB9530000F7B50C4614
:10564000019016461D46EFF31187202383F312883D
:10565000BFF36F8F084604F0EFFB55EA060309D14C
:1056600001A92046FFF74EFF87F31188BFF36F8F24
:1056700003B0F0BDE368074943F00803E360019B12
:10568000A36232462B4604F1100000F06FFC0120AB
:10569000EAE700BFCB9E000001460148FFF7CEBFFE
:1056A000300B00202DE9F043073285B022F00702CD
:1056B0000E461F461099017300F15803FF32C0E9EE
:1056C00016330446002322F07F02042183604173D5
:1056D0007F2A0F98A073C4E90633E37306F18009AB
:1056E000A2F1800805D883F31188BFF36F8F0846B5
:1056F00002DFB51829462046FCF730FB07300E9B29
:1057000020F00700A066C4E9189802930D9B01934E
:105710002D1A0C9B00932A463B4631462046FCF747
:1057200001FE00236365044B9B6803B1DB6EE366F7
:10573000284605B0BDE8F08378960120F0B587B023
:1057400000250595109D04950F9D03950E9D0295CE
:10575000DDE912760D9D01950C9D00950446FFF73D
:10576000A1FFB6F1FF3F08BFB7F1FF3F05D056EAF2
:10577000070305D1204600F06DFA204607B0F0BDC2
:105780003A46334604F11800014900F0EFFBF4E714
:1057900023A0000040F2011383810023C0E91833E5
:1057A000C366014B9860704778960120094A936858
:1057B0006FF00A019967084958674B6843F08053B6
:1057C0004B60002383F31188BFF36F8F9368986F4A
:1057D000704700BF7896012000ED00E070B590F9A9
:1057E0000D20437B002A36DBD90634D11B4C63F0F5
:1057F0007F032246437352F81C3F216A934207D12C
:10580000C0E900210860206211E09942F8D01B68CD
:10581000002BF5D090F90E5093F90E60B542F4D0FC
:10582000AE42F2DD5968C0E9003108605860E569B0
:10583000954200D005B9E568A3685A7BD20604D129
:10584000DA897F2A01D9AA6932B1AB4202D028464F
:1058500000F00CFBA56170BDA361FCE77896012008
:1058600038B590F90D20437B002A014604DA03F095
:105870007F03437304F06FFB0D4D2A46AB6852F86B
:105880001C4F944200D004B9EC688B4207D05A7B7D
:10589000D20604D1DA897F2A01D9A2692AB1A342AA
:1058A00002D0204600F0E2FA2346AB6138BD00BFCB
:1058B00078960120B3F1FF3F08BFB2F1FF3F03D05C
:1058C0000249183000F052BB704700BF23A000000F
:1058D00038B5194CA168206A0B68814214BF1A467A
:1058E000002249680B605960A368216A2AB9134AEB
:1058F000C3E900210B6023620CE093F90E0092F9DA
:105900000E50A84214D0854212DD5168C3E900212F
:105910000B605360E569094B9D4200D005B9E5680D
:10592000A3689D4202D0284600F0A0FAA56138BDC8
:105930009142DCD01268D9E7789601209496012034
:10594000F8B50E4B0C4611460D4A98681060DDE91B
:105950000667EFF31182202282F31288BFF36F8F64
:105960009D68284604F009FB284632463B46FFF76F
:10597000A1FF2046BDE8F840FFF718BF7896012048
:10598000A4960120F8B50446EFF31187202383F392
:105990001288BFF36F8F437B03F01F02002A0CBFF6
:1059A0000126002649B239D103F07F03437304F086
:1059B000D2FA2C4D437B817363F07F032A464373F5
:1059C00052F81C3F934227D1286AC4E900200460A2
:1059D0002C620FE09842F8D01B68002BF5D093F9A9
:1059E0000EC06145F6D08C45F4DD5968C4E900313C
:1059F0000C605C60EC69944200D004B9EC68AB6860
:105A00009C4202D0204600F031FAAC6187F3118845
:105A1000BFF36F8F3046F8BD286ADEE79B071ED5BF
:105A2000856804F098FA81732B689D4209D16B68F0
:105A3000C4E900531C606C60E8E76A689342F6D0E2
:105A40001B68002BF3D093F90E209142F5D08A42C7
:105A5000F3DD5A68C4E9003214605C60D6E78173F4
:105A6000D4E700BF7896012049B9EFF3058030B93B
:105A7000054B9A699B689A4201D0FFF797BE81F364
:105A80001188BFF36F8F704778960120034648B99D
:105A9000EFF3058232B9064A91699268914201D0CA
:105AA000FFF784BE83F31188BFF36F8F704700BF89
:105AB00078960120EFF31181202383F31288BFF33E
:105AC0006F8F054B9A68D37B013BD37381F31188A9
:105AD000BFF36F8F704700BF7896012070B5EFF36A
