:10000000409A0020313E00004DB800001D3E000027
:100010001D3E00001D3E00001D3E000000000000CF
:10002000000000000000000000000000AD3F0000E4
:100030001D3E000000000000493F00001D3E000082
:1000400071410000714100007141000071410000E8
:1000500071410000714100007141000071410000D8
:1000600071410000714100007141000071410000C8
:1000700071410000714100007141000071410000B8
:1000800071410000714100007141000071410000A8
:100090007141000071410000714100007141000098
:1000A0007141000071410000714100007141000088
:1000B0007141000071410000714100007141000078
:1000C0007141000071410000714100007141000068
:1000D0007141000071410000714100007141000058
:1000E0007141000071410000714100007141000048
:1000F0007141000071410000714100007141000038
:100100007BB972B90029BEBF00204FF0004106E064
:1001100008BF00281CBF6FF000414FF0FF3000F017
:1001200057B8ADF1080C6DE904CE002909DB002BAE
:100130001ADB00F061F8DDF804E0DDE9022304B029
:100140007047404261EB4101002B1BDB00F054F88B
:10015000DDF804E0DDE9022304B0404261EB410137
:10016000524263EB43037047524263EB430300F098
:1001700043F8DDF804E0DDE9022304B0404261EB1E
:1001800041017047524263EB430300F035F8DDF85C
:1001900004E0DDE9022304B0524263EB43037047FD
:1001A00053B94AB9002908BF00281CBF4FF0FF31DE
:1001B0004FF0FF3000F00CB8ADF1080C6DE904CE43
:1001C00000F01AF8DDF804E0DDE9022304B070471E
:1001D000704700BF10F8012B11F8013B012A28BF1E
:1001E0009A42F7D0D01A7047034613F8012B002A21
:1001F000FBD1181A013870472DE9F04786468C4626
:100200000846089E154674461946002B40F0C280E9
:100210008542B2FA82F245D94AB1C2F1200300FA0E
:1002200002FC2EFA03F3954043EA0C0C94404FEA8B
:10023000154EA8B2BCFBFEF8230C0EFB18CC08FB35
:1002400000F943EA0C43994528D9EB1808F1FF3728
:1002500004D2994502D9A8F102072B44A3EB090364
:10026000A4B2B3FBFEFC0EFB1C330CFB00F044EA13
:100270000344A04214D92C190CF1FF3304D2A0423C
:1002800002D9ACF102032C44241A43EA07401EB100
:10029000D440002334607360BDE8F0874746DDE753
:1002A0006346F1E792BB431B01214FEA154EAFB203
:1002B000B3FBFEFC200C0EFB1C330CFB07F840EAE2
:1002C0000343984562D9EB180CF1FF3004D29845EE
:1002D00002D9ACF102002B44A3EB0803A4B2B3FB98
:1002E000FEFC0EFB1C330CFB07F744EA0344A74259
:1002F0004ED92C190CF1FF3304D2A74202D9ACF12C
:1003000002032C44E41B43EA0040C0E7C2F120038F
:1003100020FA03F1954090402EFA03F303434FEA8D
:10032000154EAFB2B1FBFEFC0EFB1C10190C0CFB02
:1003300007F841EA0041884504FA02F422D9691815
:100340000CF1FF3004D2884502D9ACF102002944F7
:10035000A1EB08019BB2B1FBFEFC0EFB1C110CFBD8
:1003600007F743EA01439F420ED9EB180CF1FF3126
:1003700004D29F4202D9ACF102012B44DB1B41EABB
:10038000004192E76046E3E76146F7E76046A3E78E
:100390006346B7E7834206D916B9002108467BE7D2
:1003A000C6E900E0F9E7B3FA83F78FB9834201D3D6
:1003B000724508D8BEEB020460EB030301209C46A3
:1003C0001EB9002168E73846FAE7C6E9004CF8E7AD
:1003D000C7F1200CBB4022FA0CF41C432EFA0CF19E
:1003E00020FA0CF3B84001434FEA14490EFA07F51E
:1003F000B3FBF9F81FFA84FE09FB18300B0C08FB5D
:100400000EFA43EA00439A4502FA07F240D9E3188C
:1004100008F1FF3004D29A4502D9A8F10200234422
:10042000A3EB0A0389B2B3FBF9F809FB183308FB05
:100430000EFE41EA03418E452CD9611808F1FF33C5
:1004400004D28E4502D9A8F10203214443EA0040B8
:10045000A0FB0298A1EB0E014145CE46434602D3D4
:1004600006D14D4504D2B9EB020E68EB0403013806
:10047000002EA6D0B5EB0E0261EB030101FA0CFCD5
:1004800022FA07F34CEA0303F940C6E9003198E782
:100490004046C5E74346D9E72DE9F047064688B010
:1004A0000F4690460CF0AAFF4FF47A73A0FB034569
:1004B00003FB0155E40B012F44EA45444FEAD535CF
:1004C00007D1294922462B4630460AF035FE002046
:1004D00012E0D8F8047025483946FFF77BFE70B16A
:1004E00023483946FFF776FE48B1304621493A465F
:1004F0000AF03EFE6FF0040008B0BDE8F087204629
:10050000294617A3D3E90023FFF7FAFD05460C4659
:1005100010461946184A0023FFF7F2FD80460F46A1
:10052000104619464EF660220023FFF7E9FD824689
:100530008946104619464FF47A720023FFF7E0FD12
:10054000CDE902A9CDE90623CDE90401CDE9008773
:100550000A492A46234630460AF0EEFDB7E700BFB7
:10056000005C26050000000080E5000091E5000029
:1005700094E500009DE5000080EE3600B5E5000042
:100580002DE9F04F87B00546039117461E46836854
:1005900004AA5B689847002831DBDDE9044AA7FB21
:1005A00004B307FB0A37584619A3D3E90023394699
:1005B000FFF7F6FDDFF8608002904FF0FF39D94574
:1005C00078EB07031ED3A6FB04B406FB0A4410A372
:1005D000D3E9002321465846FFF7E2FDD94578EBE1
:1005E000040403460ED30299AA6899420DD3BDF8BC
:1005F0004010009114682846DDE90221A04707B0A9
:10060000BDE8F08F6FF08500F9E76FF01500F6E7B1
:1006100000CA9A3B00000000FFC99A3B2DE9F04157
:10062000804C236803F00703022B00AF10D96D46FE
:1006300088B06A467C4B53617C4B9361032342F83C
:10064000103F00234FF4C651204601F089F9AD4612
:1006500042F2107006F0A2FAE0B123685E0711D0F2
:100660006D4688B06A46724B5361704BC2E90630E2
:10067000042342F8103F6B4800234FF4015101F06E
:100680006FF9AD46002383F31188BFF36F8F032307
:10069000184602DF674806F0B1FAE0B123685D074B
:1006A00011D06D4688B06A46634B53615F4BC2E917
:1006B0000630042342F8103F5A4800234FF40151FA
:1006C00001F04EF9AD46002383F31188BFF36F8F1D
:1006D0000323184602DF594806F090FAE0B1236878
:1006E000590711D06D4688B06A46534B53614F4B42
:1006F000C2E90630042342F8103F4A4800234FF471
:10070000015101F02DF9AD46002383F31188BFF3A9
:100710006F8F0323184602DF06F0D8FAE0B1236892
:100720005A0711D06D4688B06A46454B53613F4B1E
:10073000C2E90630042342F8103F3A4800234FF440
:10074000015101F00DF9AD46002383F31188BFF389
:100750006F8F0323184602DF3A4E3B4D236803F0A8
:100760000703022B0FD9E84688B06A462F4B9361E6
:100770000323566142F8103F2A4800234FF4C65124
:1007800001F0EEF8C546AB68D3F808801B68B8F1F5
:10079000000F34D1002B38D100214FF4A4700CF09D
:1007A00068FDAA68D2E90123002B32D1002A35D195
:1007B000204806F0D3FAE0B123685B0711D0E84681
:1007C00088B06A46214B5361184BC2E906300423B6
:1007D00042F8103F134800234FF4015101F0C0F8D4
:1007E000C546002383F31188BFF36F8F0323184698
:1007F00002DF00214FF400400CF03BFDAEE723B9CF
:10080000642219462846C047C6E700212846984773
:10081000C2E71AB9114628469847C9E70021284679
:100820009047C5E714060020B0E1000094E2000004
:10083000D5E10000C41C002000E20000C01C002024
:1008400034E2000059E200006CD8000063E20000CE
:100850002DE9F04F91B08407009302F00403029356
:10086000C2F3C20303F10103DDF868800392054679
:100870000E46059340F0BA81041D30B1072909D80E
:100880006FF01B0011B0BDE8F08F01F00706344493
:10089000C6F10806009B4FF00009591E4FF0040AEC
:1008A0004FF0FF330193CDF810904F46CB4653469F
:1008B0000DB1009A22600598002800F3E88098485E
:1008C000009A824203D397488242C0F0E080039AA4
:1008D000A4EB050E92074FEA9E0000F103810F2F53
:1008E00000F2B180002D00F0058107F140020DEB10
:1008F000020C019A0CF8200C0CF8102C0498013012
:100900000490E7E07A285DD84B280ED8472859D8BC
:1009100029282DD8252852D054D820287AD02338F9
:10092000D0F1000B4BEB000B74E04C382E2849D86B
:10093000DFE800F070484848484848484848484878
:100940004B484848484848484859484B4B595959DA
:10095000704B6D487048184B184848827F4B484888
:100960004B487F0000204FF0000B4FF0040A38E0A6
:100970002A38C0B2012202FA00F010EA0E0F49D163
:1009800010F0625C2FD110EA020B43D06046013CAC
:100990005444B4FBFAF40AFB04F4002D61D0A3EB39
:1009A000050CA444B4453FF66BAF002868D1042B76
:1009B00047D158F8043B2360043404232AE0019A09
:1009C000013A01924FF0000B24E011F8010C6C2861
:1009D00034D111F8023C00206C2B8346C5D14FF076
:1009E000080A5346D3E708F1070828F00708073438
:1009F000F8E802AB24F0070435B106982044B04271
:100A00003FF63EAFC4E900AB08344FF0000B4FF0A7
:100A1000080A534611F8010F002878D0BBF1000FE7
:100A20007FF470AF2528F5D1019B013301934FF07E
:100A3000010B4FF0040AECE7584694E70020834688
:100A4000A5E7082B02D06FF015001BE708F1070897
:100A500028F00708F8E80223C4E900230834082333
:100A6000D8E768B9042B02D108F10408A4E7082BE1
:100A7000E9D108F1070828F0070808F10808EDE7B0
:100A8000059A013A059258F8042B009210E7039A50
:100A9000900720D5A4EB050E4FEA9E004FF0010C05
:100AA000BEF5007FCFD20F2FCDD8F5B107F14002B0
:100AB0000DEB020EC0B2019A0EF8200C0EF8102CAD
:100AC000BCF1000F3FF41AAF60F07F000EF8200C6D
:100AD00009F101090137C5F10802043406924FF605
:100AE000DA7E97E74FF0000CDAE7BCF1000F01D097
:100AF0000136EFE7029802360028EBD10098CDE9E5
:100B00000631FFF771FBDDE906310644E2E7631BBE
:100B1000B3F5806F97D23DB9A6F10804E018B1E6AD
:100B2000CCD60000E0FC0000029A28609B082B70E5
:100B30009DF81030C2B1EB7085F80290B9F1000F4A
:100B400005D008A80022C5F1010C97420ED1C5F1CD
:100B500001030DF120084FF0000A01930DF1300B55
:100B6000574512D1601B8DE66B70E5E710F8013B2D
:100B7000190608D50CEB040EB64503F07F033FF6CB
:100B80007FAE04F8013B0132DFE7B9F1000F03D07B
:100B900098F90020002A17DB029BD3B11AF80B202A
:100BA00004F8012B0022019B18191044B0423FF6B3
:100BB00067AE98F8000004F8010B009903922046F4
:100BC0000CF042FD039A14440AF1010A08F10108ED
:100BD000C6E798F8002055F822300093029B45F8AC
:100BE00022300098FFF700FB421CDCE76FF00D009D
:100BF00048E600BF2DE9F04F97B000AF90F802A093
:100C0000D7F880B03B62CBF3C0030446FA62BB6105
:100C1000894641B9457800780AEB800020444D456B
:100C200017D8A0EB0409E378FB61BAF1000F02D0FA
:100C30001BF0010F16D1FB6953BBFB6A1BB13A6A6B
:100C40004946204698474D4628465C37BD46BDE894
:100C5000F08F461C3046FFF7C7FA0130304409F1E7
:100C60000109DCE7237862687A62FA6A990079619F
:100C700004EB8301002A40F006814D460E4601EB4D
:100C80000A094FF00008B14552D101EB0A0610E005
:100C90001BF0020FD1D023789A007A6162687A62E1
:100CA000FA6A04EB8301002A7DD14D4601EB0A0666
:100CB00090461BF0050F0CBF02230123FB62FB696A
:100CC00006EB430A0BF00203BB625645BCD016F894
:100CD000021B16F8013C54F823909C4B994502D313
:100CE0009B4B99453CD3BB69002B46D0786A09F0F1
:100CF0009CFC002841D09748036813F0060F15D0DC
:100D0000E9468AB06A46944B5361944B93617B6A7F
:100D1000C2E9073140F201339384914B42F8103F0E
:100D200000234FF4325100F01BFECD46023DCCE7CC
:100D300016F8013BF96254F82300FFF755FAD7F88B
:100D40008430F96A01304BB1D7F8883098453EBFFE
:100D5000D7F8843023F8180008F10108054492E719
:100D6000BB6923B1786A09F060FC0028C3D11BF08D
:100D7000010F05D1FB6AED1AA7E7BB6A002BA4D0CF
:100D80004846FFF731FAD7F8843053B1D7F88830A6
:100D900098453FBFD7F88420431C22F8183008F14B
:100DA0000108054491E7BAF1000F72D01BF0040866
:100DB00072D0D04607F14800002652463B61B96226
:100DC0000CF042FCB96A3B6901EB0A02BA62FA69AB
:100DD000F9695200FA60BA6A02EB41023A610BF01B
:100DE0000202BA603A69B96A8A4257D162787A6275
:100DF0001BF0020F32440CBF4FEA580100211BF0D8
:100E0000010FD2B240F09F801BF0040F14BF404688
:100E10000020BB616270A070E1703A6A7969FB6A78
:100E200020469847051EFFF60FAFBB6923707B6A0B
:100E30006370FB69E37041463A6AFB6A84F802A07A
:100E400007F148009847B0F10008C0F2BD807B6907
:100E50003A6AA9EB0A01C91AFB68C91AD7E90A0359
:100E600098470028C0F2B280A84408EB00054FF074
:100E7000000B07F1380AB34574D300213A6AFB6AC4
:100E800008469847E0E6564607F138004FF000085C
:100E900093E7D046564697E7464695E7BA6A12F872
:100EA000021BBA6212F8015C284A54F825009042ED
:100EB00002D3274A90421ED3BA6932B1786A7B6066
:100EC00009F0B3FB7B6800288CD1BA6802BB08F13B
:100ED000280207F1300C08F10100944407F1580290
:100EE00052FA80F008F102080CF8101C5FFA88F83A
:100EF00000F8105C76E7BA693AB1786A7B6009F06D
:100F000094FB7B6800287FF46DAF1BF0010F09D0C4
:100F100006F1280207F13000711C161806F8205C53
:100F2000CEB25FE71BF0040F3FF45CAF08F128027C
:100F300007F1300008F1010102EB000808F8105C2D
:100F40005FFA81F84EE7002063E700BFCCD60000CF
:100F5000E0FC0000E40500209EE2000045E3000004
:100F6000050000011BF80A3087F8373054F8239049
:100F7000D7F884302BB3D7F888309B4521D2D7F8E7
:100F8000843033F81B803A6AFB6A012107F137008D
:100F9000984700281ADB0544B8F1000F06D14846EF
:100FA000FFF722F900F101081FFA88F83A6AFB6A94
:100FB000414648469847002808DB05440BF1010BE1
:100FC00059E74FF00008DEE745463DE605463BE6BB
:100FD000014B1860704700BF6003002080B50546D4
:100FE0000E461746984608F025F903460CF064FBB8
:100FF000DFF81890044649F800304246304639463A
:10100000A84754F8090002F089FF00BF080000005B
:1010100008B50446EFF31183202383F31288BFF34E
:101020006F8F05F07FF8204603F0C8FA024809F0F8
:1010300023FB0AF023FCFCE76FE300002DE9F047F7
:10104000058B04462807904611D4022905F00705B0
:1010500040F0CC80204609F08DFD78B10138218B1D
:10106000042811D8DFE800F0C2106D859500012931
:101070000CBF45F0100545F02005258388F3118845
:10108000BFF36F8FBDE8F08701F0070AAA4500F0B3
:10109000A5800027B9463E46A368002B00F0BC801F
:1010A00041F00801218388F31188BFF36F8FA16895
:1010B000002900F0BA800D68002900F0B680D1F850
:1010C0000480334652462046C047002D76D02B6818
:1010D00029461D46F0E701F007035A1F012A1BD8D5
:1010E000002221F00701062B276889B2C4E90022FB
:1010F00009D13B4603E0628B013262831B68002BFF
:10110000F9D141F002012183204609F033FD002886
:101110007AD041F0200176E0042B0AD121F00701BA
:1011200089B22183204609F025FD10B141F020014C
:101130002183218B01F0070AAA454FD00027B94629
:10114000AAE7236921F0070141F00601062DD3F833
:10115000009021832DD1B9F1000F3FD041F008015B
:10116000218388F31188BFF36F8F3A492046C8471F
:1011700029E021F00701236941F0040189B2042D1F
:10118000D3F804902183E6D000273E464FF0040AAE
:1011900082E721F00701236941F0050189B2052D9D
:1011A000D3F808902183D6D000273E464FF0050A99
:1011B00072E700273E464FF0060A6DE72B4687E7A9
:1011C000B9F1000FD1D1EFF31188202383F31288F6
:1011D000BFF36F8F238B23F008032383258BEA064D
:1011E0002ED525F01003238305F007056669218BB2
:1011F000002EBFF670AF00232768C4E9003321F04A
:10120000070141F001012183218B01F0070AAA4562
:101210004FF000097FF440AF002F9CD041F008014F
:10122000218388F31188BFF36F8F002FC8D03D68EA
:10123000394633465246204609F0C8FC2F46F4E7AB
:10124000AB067FF51BAF25F02003238305F00705D0
:1012500000E700BFF9AB00002DE9F047DFF8588048
:10126000044607464FF0010914B93846BDE8F08737
:1012700094FAA4F5B5FA85F509FA05F32E0108EB01
:1012800005156FEA030A24EA03042B7B002BEBD03D
:1012900058F806301B694BB9464404227368284647
:1012A000196807EA0A0709F079FDDDE7284698473B
:1012B0000028D9D1F0E700BF84DB000030B5104929
:1012C000104889B000220CF09BF80F4D0F49002206
:1012D0000023CDE9062300240E23CDE90334CDE914
:1012E00001440B4B00944FF40062284607F056FC73
:1012F0000849284607F082FB204609B030BD00BFF0
:101300001913000020180020580700204059002021
:1013100081160000A3E30000014807F065B900BF93
:10132000A00600202DE9F047804621480F4609F02D
:101330000DFD0646002833D000252846BDE8F0877D
:10134000237B83B12368DB680BB120469847636831
:1013500083F8069023681B69D3B96368042219686F
:10136000204609F01BFD013610345445E8D3B8F18E
:10137000000FE2D0002DDFD02846FFF76DFF0546B5
:10138000002FF7D000214FF4A4700BF072FFF1E7AB
:10139000204698470028E0D009FA06F31D43E2E70B
:1013A000044CDFF814A005464FF00109DDE700BF4B
:1013B000D81C002084DB000094DB0000014B53F8B4
:1013C000200070471CDD000008B5034608462BB11D
:1013D000044A136000F074FD002008BD6FF0150092
:1013E000FBE700BF6403002010B5044C237813B959
:1013F000034807F0F9F80123237010BDBC27002033
:10140000A006002010B504460B4809F09FFC5CB113
:10141000BFF35B8F094B53E8001F013943E800120B
:10142000002AF8D1BFF35B8F05480BF0F5FF0548A4
:10143000BDE8104007F0D8B8D01C0020D41C002014
:1014400020180020A00600200020064BBFF35B8F71
:10145000014653E8000F43E80012002AF9D1BFF318
:101460005B8F7047D01C002070B5FFF7EDFF084C74
:10147000084E0546B44200D370BD63685B792BB15A
:1014800023685B6813B12946204698471034F1E77A
:1014900084DB000094DB000010B5044C04492046B6
:1014A00009F0FAF9034B1C6010BD00BFA80500202D
:1014B00008DD0000C81C00200E4A0F48002310B5AC
:1014C00013700E4A13600E4A4FF400411360FFF789
:1014D0007BFFFFF7E1FF00F06DF90A4B0A49184660
:1014E0008B4200D310BD1A1A5C68121101322271AE
:1014F0001033F5E7BD27002049AD0000D01C0020C7
:10150000D41C002084DB000094DB00000146002294
:101510000148002309F0E1B9A8050020014809F0BD
:101520007ABA00BFA8050020024B0146186809F0EE
:10153000CDBA00BFC81C0020014809F002BB00BFA3
:10154000A80500202DE9F041364B1878002866D018
:10155000FFF7E4FF044600285DD1334B334C1B6892
:10156000002B19DD0BF04AFF4FF47A72A0FB020347
:1015700002FB0131C30BD4E9002043EA41439B1A2B
:101580004FEAD13140F2E93261EB0001934271F14F
:10159000000101D3FFF768FFD4E9003213F57A7335
:1015A00042F10002C4E90032BDE8F041FFF7C4BFD8
:1015B0006B685B793BB121784B0717D52B682146C7
:1015C0001B682846984710354545F1D32046FFF75C
:1015D000ABFFBFF35B8F164B53E8001F013943E8A5
:1015E0000012002AF8D1BFF35B8FB6E720462688A9
:1015F000C1F3C20700F0A2FAC6F382160246002E1B
:10160000DCD00028DADB01233946284600F082F9D5
:10161000B042D8D3D2E7074DDFF81C80D4E7BDE84D
:10162000F08100BFBC270020D01C0020181800202B
:10163000D41C002084DB000094DB000070B50D4D4D
:10164000297861B90120FFF76DFE0B4C0B4EB442B7
:1016500006D3FFF777FF0028FBD101232B7070BD65
:1016600063685B791BB1236820469B6898471034F8
:10167000EDE700BFBD27002084DB000094DB000005
:1016800000212DE9F0470846FFF74CFE044658B309
:1016900040F267684FF000090CF00EF81B4B1C4A33
:1016A0001B58136033B11B4B1B68002B02DD1A481B
:1016B00006F09AFF194FDFF860A0002544B12046DC
:1016C000FFF7CAFD044618B94FF0FF384FF0FF3955
:1016D000FFF738FF064628B9B5B942464B46504693
:1016E00006F0B6FF3546E9E74FF0FF384FF0FF3917
:1016F000D2E72B689B691BB1002211462846984708
:101700001035BD42F5D3E8E7054DFAE708000000C3
:10171000CC1C0020D41C0020A006002094DB00007C
:1017200084DB000010B50F4809F010FB0E4B1B784E
:101730006BB1EFF31184202383F31288BFF36F8F13
:10174000FFF700FF84F31188BFF36F8F10BD074BC5
:101750001B68002BFAD00028F8D10548BDE81040DE
:1017600006F042BFD41C0020BD270020CC1C002066
:10177000A006002010B5064B1B680446984721467A
:10178000A060044809F028F9BDE81040FFF7CABF7F
:1017900064030020A8050020044A054B9B1AB1EB06
:1017A000D30F34BF52F8310000207047D4DA000064
:1017B00084DB00000B480C4B30B51B1A0B4CDB08CC
:1017C00000210430994200D130BD10F83120256845
:1017D00002F0070225F007052A4344F8042B0131E3
:1017E000F0E700BFD4DA000084DB0000E40500204D
:1017F000F8B50B4F0B4DED1B0646ED080024AC422F
:1018000003D14FF0FF342046F8BD57F8340020B123
:101810003146FEF7DFFC0028F5D00134EFE700BFCA
:10182000D4DA000084DB000000282DE9F047884668
:1018300015461F461DDADFF89890264E4FF0000A35
:10184000A6EB090636095446B24509F1100902D142
:101850002046BDE8F08759F80C0C3B4600792A4633
:101860004146FFF7E1FF844238BF04460AF1010A0E
:10187000EAE7194B194AD21AB5EBD20F26D203EB7D
:10188000C5031C79BC4228BF3C46154EC0B200EBD4
:10189000400056F825300722824023EA020304F074
:1018A0000702824013430021032223FA02F000F0D2
:1018B0000700814202F1030238BF01461E2AF4D11B
:1018C00023F007030B4346F82530C1E70024DCE78B
:1018D00084DB000094DB0000D4DA000084DB00002D
:1018E000E4050020F8B5094D094BED1A06460F46F0
:1018F000ED080024AC4200D3F8BD002122B23B46E3
:101900003046013409F042FAA4B2F3E784DB000068
:10191000D4DA000070B14168097973B1002A17DB8D
:10192000CBB20C4951F8220003EB4303D84000F03E
:10193000070070474FF0FF31EFE707490748401AAB
:10194000B2EBD00F3ABF01EBC201087918467047DD
:1019500004207047E4050020D4DA000084DB000096
:101960002DE9F04F8FB004AFC1F34A28B8600D469F
:1019700091467B600C0DB8F1000F69D0002607F18D
:1019800014034FF0040B4FF00A0AC7F80C80C7E9A4
:1019900007667E620193CDF808B0CDF800A007F18C
:1019A0001C03F96832464846FFF724F9B0F5006F8A
:1019B000034622D32B48036813F0060F19D06C4658
:1019C0008AB0D9F8041004AB274D5D61274DC3E9F7
:1019D000065140F2FF7119621A4640F201319984B2
:1019E000234B42F8103F4FF432513346FFF7B8FF14
:1019F000A5462C37BD46BDE8F08FC0F30A0804F1B8
:101A00001700184420F0070080083B60FFF77EFDB8
:101A100068F35325044690B13B68164AC7E9083677
:101A200000F1100107F11403F961CDE900A3CDF82D
:101A300008B0F96807F11C034846FFF7DBF868F3C4
:101A400053257B68B9682A46204609F0CFF9D0E7CC
:101A500004F1170020F007008008FFF757FD044647
:101A6000EDE700BF0C060020B8E3000051E40000E1
:101A700005000001BFAD00002DE9F04F87B002AFB7
:101A8000D7E91069BD6B79600446934698464EB31A
:101A9000C7F80C90CDF80090FA6B33461021002067
:101AA000FEF7D6FEB0F5006F82461CD320480368CF
:101AB00013F0060F12D06C4688B002AA1D4B53617A
:101AC0001D4B936140F2FF73D361042342F8103F32
:101AD00000234FF40251FFF743FFA5461437BD46DC
:101AE000BDE8F08FB24605F11700504420F0070022
:101AF00004F007048008FFF709FD0BF0070BE40072
:101B000044EA8B1444EA4A2444EA0554054640B1A9
:101B10003EB1CDF80090FA6B334651461030FEF7D7
:101B200097FE796843462246284609F05FF9D5E7D3
:101B30000C060020FBE3000037E40000406820B101
:101B4000034BC01A40F38F0070474FF0FF307047CF
:101B5000E40500200EB403B503AB014653F8042B93
:101B60000448019302F0CAFC02B05DF804EB03B034
:101B7000704700BF55AE0000CA0605D48B064CBFA7
:101B800002490349FFF7E6BF704700BF8CE8000039
:101B900001E500002DE9F04F89B09B46149B0693A8
:101BA0009DF84CA0159B0593169B179E0493044625
:101BB0000D469046BAF1000F00F09D8006F4807348
:101BC000079309F0E1F806F00209024600283ED02A
:101BD00091492046FFF7BEFF0746B9F1000F08D034
:101BE00016F0440F35D18D492A462046FFF7B2FF43
:101BF000074406F0010353B1894B8A4953F82A2060
:101C0000894B2046002A08BF1A46FFF7A3FF06F4B7
:101C10008073002B49D006F00803002B63D1B8F184
:101C2000000F66D0814942462046FFF793FF0546E4
:101C3000069B3D44002B6DD1049B002B73D1F30711
:101C400000F1E48031462046FFF796FFD8E00746D2
:101C5000C3E7774B18680028CAD0764B4FF47A79DF
:101C60001B68B5FBF3F54FF46163B5FBF0F100FBC6
:101C7000115509FB05F54FF03C0CB1FBF3F203FBEA
:101C80001211B5FBF0FEB1FBFCF300FB1E550CFB83
:101C9000131109FB05F50091B5FBF0F56649CDE997
:101CA00001E52046FFF756FFA2E706F00803EBB177
:101CB000624B634953F82A202046FFF74BFF054645
:101CC000B8F1000F05D0594942462046FFF742FFC0
:101CD0000544BBF1000FABD05A495A462046FFF7E6
:101CE00039FF0544A4E74FF0000BE1E706F00805D3
:101CF000E6E745469CE7BBF1010F069B06D1002BAA
:101D000064D1049B002B7BD000250CE0002BF8D085
:101D10004D485CE04D48069B4D49224608F054FC76
:101D2000049B002B68D0DFF82C81DFF82C91049FF6
:101D30003146102F204628BF1027FFF71DFF4FF018
:101D4000000B5D4545DC059B49461A782046FFF7A8
:101D500001FF4FF0010B1BF0070F03D14146204656
:101D6000FFF7F8FE5F453BD9059B494613F80B206A
:101D70002046FFF7EFFE0BF1010BBBF1100FEAD18C
:101D8000364920464FF0000BFFF7E4FE5A46059B0C
:101D90009A5CA2F120015F2928BF2E2230492046FB
:101DA000FFF7D8FE0BF1010BBBF1100F1DD01BF09C
:101DB000070F03D141462046FFF7CCFE5F455A4648
:101DC000E5D841462046FFF7C5FEEBE71F485546DC
:101DD000A1E741462046FFF7BDFE0BF1010BB0E73E
:101DE00020492046FFF7B6FEC5E7059B3B44059317
:101DF000049BDB1B04939AD1BAF1000F7FF41FAF51
:101E0000204609B0BDE8F04F09F017B8064A054969
:101E10002046FFF79FFE15E70CEC000075E400007C
:101E20002CDD000059F4000070E400009AE400008A
:101E3000E01C0020DC1C00207EE4000040DD0000EF
:101E40009EE40000A4E400008BAE000055AE00004C
:101E5000FD440000B1E40000A9E40000B3E4000088
:101E6000B5E40000AFE4000073B542F20F738B429B
:101E700028BF0B4605680F4A04460521684607F04F
:101E8000D3FF63680C495B6806460422284608F0C5
:101E9000C6FF63683246694628465B6808F0BFFFA4
:101EA000636806495B681722284608F0B8FF02B04D
:101EB00070BD00BF91E20000D0E40000B8E4000073
:101EC000074A00210123904206D8064A01B901239E
:101ED0001360054B1860704740085B000121F2E772
:101EE00040420F00DC1C0020E01C0020014B0020C1
:101EF00019607047F81C002007B500230093084ABA
:101F000008494FF48053012006F04AF8064B01229D
:101F10001A70064B064A1A6003B05DF804FB00BF56
:101F2000D8280020E5E40000BE270020041D002082
:101F3000C12700200148FFF797BF00BF70DD0000F8
:101F400010B5064B18680C46FFF738FA21460346D1
:101F5000BDE8104002480E22184700BFF81C0020C0
:101F600070DD0000F8B5094D094B0A4ED5E9004770
:101F700001221A700CB92C60F8BD214630463A4651
:101F800000F01EF8241A0644F4E700BFEC1C002001
:101F9000BF270020C027002010B9074B18707047DA
:101FA000064B1B781BB142F210700AF06CBF4FF465
:101FB000A47000210BF05DB9BE270020BF270020D0
:101FC0002DE9F74F524F01903B780C4643B9514FE2
:101FD0008246019B23449A452BD324EAE4700CE00B
:101FE0004D4E012501992246012005F03BFFA8B185
:101FF000012333703B7843B9204603B0BDE8F08F2E
:102000002846FFF7C9FF6F1E3D46012005F0BEFFC1
:102010000028F1D03378002BF2D1EDE73378002B94
:10202000EAD0013D2846FFF7B7FF3378002BD9D11E
:10203000E2E71AF8012B3B680A2A61D1374DDFF835
:10204000E0905A1B012A04BF01333B60D7F800809F
:10205000D9F800B00D2308F8013C08F101020A2369
:10206000BBF1000F3A6088F8003029DD2D4B19686C
:1020700031BB2A495E46632EA2EB050201F117002F
:10208000A8BF63260BF0EEFA274A2449254B02F13C
:10209000140052F804CB41F804CB8242F9D11088E5
:1020A00092788A7008F118020880BBF1090F3A6033
:1020B0004FF001021A6011DC202330366B752E754B
:1020C0003A681649521B012005F0CCFE90B9D9F8A8
:1020D00000300133C9F800303D607AE70A22B6FBD0
:1020E000F2F302FB1366303330362B753E236E75E8
:1020F000EB74E5E70B4A0023C9F800301360EBE707
:102100000A498B423EBF591C39601A7061E700BF13
:10211000BF270020041D0020BE270020C12700206B
:10212000001D0020FC1C0020ECE40000C028002062
:10213000014B03600020704780DD000010B50446AD
:1021400009F0A5FE03490246204608F0F5FF0020ED
:1021500010BD00BF2BE5000073B5134600220192AD
:10216000044601AA58680A2100F054FE019D95B961
:1021700020EAE0744FF40046294640F2E7304FF47D
:102180007A720023C4FB0601FEF70AF80BF071F81F
:10219000284602B070BD2A460249204608F0E8FFF2
:1021A000019DF5E757E5000008B5034A034908F02B
:1021B000C3FF002008BD00BF47E600004EE6000058
:1021C000F7B517460023054601AA0A21B86801930E
:1021D00000F020FE1749C6B2284608F0BBFF019C5C
:1021E00044B122461449284608F0C2FF019C20460B
:1021F00003B0F0BD042E09D910493246284608F034
:10220000B7FF284608F0C2FF0124F0E77868FFF71F
:10221000EFFA021E07DA7A680949284608F0A8FF93
:102220006FF01504E3E7334612B22146204608F06A
:10223000ADFDDCE779E60000DFE6000006E7000020
:102240001DE7000007B500230090694604488DF89B
:10225000043007F04DF99DF8040003B05DF804FB6D
:1022600021AF000010B5044603F052FF07490246B3
:10227000204608F061FF2046054908F05DFF05484B
:10228000214607F04FF9002010BD00BFAFE7000066
:10229000CEE700009922000070B58EB004460D46CE
:1022A000D0F8A8600AF03BFF03460BF005FA214A7C
:1022B00021491058214A002B18BF1A460092204A83
:1022C0002346844218BF0A4628461E4908F034FFB8
:1022D000D4E90A23CDE90023284694F90E30227B65
:1022E000194908F029FF06A92022204606F096FB8E
:1022F000236F16490246284608F01EFF05A920460E
:102300000AF01BFF024628B11149284608F014FFC5
:102310000EB070BD059B6422F11A4A430091B2FBD6
:10232000F6F20C49CDE901622846324608F004FF76
:10233000EEE700BF08000000B1E40000D8E70000AD
:1023400072F10000DBE70000E7E7000013E800009F
:102350002AE8000057E80000F0B5002591B00446D7
:10236000294608AF1C2209A80BF096F9134E1A2231
:10237000202138460BF090F92146114807F0D2F899
:1023800007AA4FF4805130460AF0CBFE079A009717
:10239000C2F5805164234B431B0B05934FF48053CC
:1023A000CDE90313CDE90132204606492B46A6F1BB
:1023B000400208F0C1FE284611B0F0BD00720020B6
:1023C000C9230000A8E8000070B50446D0F8A86052
:1023D00088B00D4607A90AF0B0FE024628B10F49A1
:1023E000284608F0A9FE08B070BD20460AF097FE06
:1023F000079B0096F11ACDE90131094B64224A434B
:10240000002818BF0346B2FBF6F20649CDE9036285
:102410002846224608F090FEE5E700BF2AE80000C3
:10242000D8E70000F1E8000038B513460546102251
:102430005868002107F024FD0446FFF703FF38B970
:102440000E492246284608F093FE6FF0150038BD6D
:102450000BF032F90A4B1B589C4204D1094928461B
:1024600008F086FEF1E7204606F0A0FC2846064963
:10247000224608F061FE0020E9E700BF55E90000B0
:102480000800000070E9000098E9000038B5134624
:10249000054610225868002107F0F2FC0446FFF7B9
:1024A000D1FE38B90E492246284608F061FE6FF089
:1024B000150038BD0BF000F90A4B1B589C4204D1A3
:1024C0000949284608F054FEF1E7204606F08CFD45
:1024D00028460649224608F02FFE0020E9E700BF03
:1024E00055E9000008000000D7E90000FDE9000000
:1024F00038B51346054610225868002107F0C0FC85
:102500000446FFF79FFE38B90E492246284608F0D8
:102510002FFE6FF0150038BD0BF0CEF80A4B1B589C
:102520009C4204D10949284608F022FEF1E72046E2
:1025300001F0F4FC28460649224608F0FDFD002083
:10254000E9E700BF55E900000800000038EA000094
:102550005DEA000007B5064A0648126804230093A6
:102560000021012300F016FB002003B05DF804FBFE
:10257000D4DD000094DB000037B544680A492260CE
:1025800004F108052364002228460AF039FF41F6C9
:102590009A12E46300232846CDE9002307F0B8F936
:1025A000002003B030BD00BF4DAF000010B9034B99
:1025B00018707047A42000210AF05BBED8380020B4
:1025C0002DE9F84F164ED0F804B0884614461D4643
:1025D00004270AF04BFC224682464146002005F0C3
:1025E00041FC814650460AF049FCB9F1000F0BD07E
:1025F00001233370DBF80030DBF8401001209847EE
:102600002C600020BDE8F88F3378002BF2D0013F1A
:102610003846FFF7CBFF3378002BDAD1EAE700BF6B
:10262000D838002010B58368D3F86C32DB07044635
:1026300016D4406803685B689847014608B9A368E8
:102640001871A3685B6B0BB120469847A3680BF029
:1026500033F80022C3F88C22034B185801F05EFCBB
:102660006FF00F01EDE700BF0800000010B58168B2
:102670000446083100F088FDA168034A204608316D
:10268000BDE8104000F018BDA5EA00000EB403B587
:10269000044904AA019200F06FFB02B05DF804EB5C
:1026A00003B070478CE8000010B5836802221A71ED
:1026B0008268936B0446EBB982F84A308268A2F8CC
:1026C00046308268A2F844308368D3F86C32DB0469
:1026D0000BD50321084B094A08F0A6FFA0686FF448
:1026E000805100F51B7008F054FC2046BDE81040F6
:1026F00000F0A4BC10BD00BFB3EA000059F4000014
:102700002DE9F04FA5B00446542200210FA80AF08D
:10271000C3FF00230493A36820464A33039308F0C1
:1027200016FF204608F0C1FE18B981496069FFF71D
:10273000ADFFA06800271422002108300AF0ACFF8A
:102740000DF13C0B4FF0FF38B9463D4602973E462F
:10275000BA46049B012B00F09C80142D40F095801C
:10276000022B40F09680734B734A01210FE05946CB
:10277000039A022304A808F07BFD04995BF8042F58
:102780000392034631B101290AD148B16B4A204670
:1027900008F04AFF6FF00705284625B0BDE8F08F26
:1027A0002DB35BF8040C00F021FD98B167B1A5686A
:1027B0000B9708350AAE0FCE0FC533682B60204645
:1027C000FFF754FF0125E7E75D4A0121204608F0A5
:1027D0002BFFDFE7029BC3B108F1FF38FEB9049B72
:1027E000B8F1000F01D1022BB3D10135B1E7029B43
:1027F0005BB108F1FF3896B9A368DB69002B3BD0C9
:10280000DB68002B38D0002633E05BF8041C05AAF7
:10281000504608F0FDFD08F1FF38064638B3F3686E
:10282000ABB1A368B64603F1080CBEE80F00ACE8F4
:102830000F00DEF80030CCF80030B36833B9737C99
:10284000FE2B04BF96F8108008F1FF38A946D6F891
:1028500004C0BCF1000F08D0B646BEE80F000AAFB6
:102860000FC7DEF800303B606746B246B7E7002D81
:10287000C2D001230293B2E7324B0093324A0F9B3E
:102880000121204608F0D0FEBDE7B8F1000F7FF42B
:102890006EAFBAF1000F0AD09AF81130FE2B06D1B4
:1028A00024AB03EB850353F8543C03B10135A06816
:1028B000436953B9002F3FF46DAFC368BB423FF487
:1028C0007EAF0B9700F1080574E7037EA5EB0905C1
:1028D000B3B1417E4FF6FF72FF2918BF0A469D42F1
:1028E00002D313449D420BD98368184A0121204624
:1028F00008F09AFE2046FFF7B9FE6FF015054BE78A
:10290000012108F066FBA06808F057FBA3680FAA36
:1029100029465B6902EB8902204698470546A06874
:1029200008F04FFBA068002108F053FB34E700BF1C
:102930008CE8000043EB00007BF90000F7EA0000A0
:102940000BEB00002FEB000029EB000067EB000011
:102950002DE9F041ADF5805D82B00023044601937E
:102960000DF10305A3686068D3E90E7803681E695A
:1029700001AB27B34FF4805202A9B047019BCBB102
:102980000121A06808F025FBA06808F016FB43466B
:10299000019A02A92046B847A06808F012FBA06877
:1029A000002108F016FBA3689B6B002BDAD12046B0
:1029B000FFF77AFE0DF5805D02B0BDE8F0810122DF
:1029C0002946B047019B002BF4D09DF903209DF8C8
:1029D0000330A068002AC5DB4279032A00F2838015
:1029E000DFE802F0027B83810D2B41D00A2B22D03D
:1029F000B0F86C22092B6FF3CA02A0F86C224CD0FD
:102A000008D8002B4CD0082BA0684DD00246D2F835
:102A1000683245E01B2BA0683CD07F2B4ED0203B7A
:102A20005E2B0246F3D808F0C3FA9DF80310204647
:102A300000F0CCFA34E0D0F86C22C2F3C7022AB11D
:102A4000D0F86C22C2F3C7020A2ADFD1B0F86C2298
:102A500063F3CA02A0F86C22A668B6F844309BB9AA
:102A60004B496069FFF712FE2046FFF71DFE79E72C
:102A7000D0F86C22C2F3C702002AE7D0D0F86C224B
:102A8000C2F3C7020D2AE0E72046FFF739FEC6F879
:102A90009002E9E70123437102E0A368D3F86832AA
:102AA000606908F085FB5DE7D0F868329F07F7D5CD
:102AB00008F07EFA204608F01EFEF1E7D0F86832F2
:102AC0009E07EDD508F074FAA368D3F868321807AA
:102AD000F0D4204608F0F0FDE2E75B2B01D10223A1
:102AE000D9E7D0F868320023D5E700224271A26806
:102AF000D2F8681289077FF535AF342B0AD8302B0E
:102B0000CED90321323B5171022B2DD8DFE803F0DF
:102B1000303A2800433BDAB2092AC1D8092BBFD882
:102B200001A252F823F000BF512B0000592B0000E6
:102B3000A12A0000612B0000A12A0000692B0000DF
:102B4000A12A0000A12A0000A12A0000712B000088
:102B5000204608F00EFDA3E7204608F001FD9FE7A0
:102B6000204608F0F4FC9BE7204608F0E9FC97E7D4
:102B7000A068D0F8681201F0010181F0010108F0AD
:102B800033FA8DE7A368D3F868329B0788D5A0E7AE
:102B90008CE800002DE9F04304468068D0F88C9260
:102BA00089B00F4615461E46B9F1000F5CD190461C
:102BB00049464FF425720AF06FFDA06800F51C70BD
:102BC0000AF0A7FCA06800F51F70012211460AF068
:102BD00003FAA369C3F80090A068022100F51B70F6
:102BE00008F0C8F9A36850225A85A36818221A85EC
:102BF000A36822681A60D4F80890D9F8000010B1D0
:102C0000FDF7F2FA80B289F82C00A368184A25F083
:102C1000360565F30708C3F86882606803683946BB
:102C20001D682346A8470546D0B9A36801221A713A
:102C3000D4E90A0100220023CDE906230E230393E1
:102C4000109B0495CDE9016300940A4B4FF4805228
:102C500005F0A4FFA368C3F88C02616A05F0CEFEFC
:102C6000284609B0BDE8F0836FF07705F8E700BFAC
:102C70003FB00000C12C000010B504468068037905
:102C8000012B17D140F26762002308F0F2F910B966
:102C90006FF00F0010BD09496069FFF7F7FC20468F
:102CA000FFF702FD204608F039FDA06808F085F91D
:102CB0000020EFE76FF08500ECE700BF8CE8000034
:102CC0002DE9F34104468068154600F51B70002984
:102CD00035D04FF4804108F04DF9A3681D64606859
:102CE000036800219B68984770BB2046FFF7C4FF2C
:102CF00050BB174DDFF85C804FF0FF364FF0FF37C9
:102D0000A06800F51C7000220721CDE900670AF0D9
:102D10000CFCA06808F055F92A460421204608F06A
:102D200072F920464246012108F06DF96068036897
:102D30005B6903B19847A06808F03FF9E0E76FF4DA
:102D4000804108F026F9C8E702B0BDE8F08100BF75
:102D50002526000085B0000010B50549044608F09E
:102D6000EBF92046034A002100F0A6F9002010BD2F
:102D700082EB0000D6EB000010B5044613460A466D
:102D80000146064801F0BAFB23691B7923B12046AE
:102D9000BDE8104008F00CBA10BD00BFC9B100007A
:102DA00038B50B46154648B91449154A521AB3EBC3
:102DB000920F05D251F82350284638BD84680CB9CB
:102DC0000025F9E70F4A94420AD30F4A944207D2EA
:102DD00018462268294690472B68002BECD1EFE774
:102DE0000A4A944202D30A4A944205D32468142220
:102DF0005343E518E358F0E70133F8E7C4DB00007C
:102E0000D0DB0000FCDC0000FCDC0000D0DB0000BC
:102E1000FCDC0000F7B503782D2B0446164605D1DF
:102E20006FF015033360002003B0F0BD0AF044FCDE
:102E30000B4F00230546C3510A46204601A907F05F
:102E40001FF8EB59222B02D16FF02103EAE7002B88
:102E5000E6D1019BA342E3D01B78002BE4D0DFE74F
:102E60000C000000014908F0FEBA00BF8CE8000029
:102E70002DE9F0478568DFF86890044605F14A00BF
:102E8000FDF7B2F9002395F82C7086B29846A26837
:102E9000558DED1BB54209DB002E1FDD4A336069FD
:102EA0001049BDE8F0471A4408F0DDBA1D442A4431
:102EB0004A3392F84AA082F84A80A26860691A44AC
:102EC000494608F0D0FAA3682B4483F84AA0A368C7
:102ED0005B8DDB1BF61A00272B46D8E7BDE8F08791
:102EE0007BF9000059F400002DE9F84FD0F8089064
:102EF000D9F86832B9F846605B0705460F46904638
:102F000024D506F14A004844FDF76EF92C4E0446DC
:102F1000B4B9AB68B3F84420A3F84620A86808F019
:102F2000AFFA30B1B8F1000F00D017B16869FFF700
:102F300099FF7942284609B2BDE8F84F08F0E1BA96
:102F40006869314608F08FFA013CE1E7D9F80000E2
:102F5000B9F844A010B1FDF747F980B2B9F82A30AA
:102F600082448419B4FBF3F2BAFBF3F39A42B346FA
:102F70001CD0144EAB685445CBDA5A8DB4FBF2F337
:102F800002FB134304F1010913B96869FFF76AFFF3
:102F9000AB685B440BF1010493F84A3032460821D8
:102FA0002846A34608F040FB4C46E3E74A36064A6B
:102FB00009EB06030821284608F036FBA9E700BF05
:102FC00072F10000B5E4000059F4000013B5836805
:102FD0008DF80710D3F868220446D00725D5B3F83A
:102FE0004610B3F844208A421FD0481CA3F846007C
:102FF0000B449DF8072083F84A20A368D3F8681291
:10300000890710D5D3F8683260690B4913F0040FB3
:1030100018BF2A2208F027FA204608F046FA10B115
:103020006069FFF71FFF02B010BD01220DF107011B
:10303000204608F007FBF6E7B5E4000010B583680A
:10304000094A1B680446022108F0EEFAA368D3F887
:1030500068329B0707D52046FFF70AFF2046BDE8E8
:10306000104008F03ABA10BD59F40000014908F0C8
:103070006ABB00BF8CE80000F8B50F4651680446F3
:1030800015461E4611B11A4608F06AFBAB6883B1BB
:103090003146204608F008FA2046064A3B460821F9
:1030A00008F0C2FAA968F21D2046BDE8F84008F011
:1030B00057BBF8BD05EC00002DE9F04F0F4600218D
:1030C00089B0044616460D4603AA384601F10108A8
:1030D000FFF766FEA8B98DB126B132460821204619
:1030E00008F0A2FADFF89090DFF890B0002103AA70
:1030F000384601F1010AFFF753FE60B909B0BDE897
:10310000F08F006810B1FDF76FF880B2854238BFCC
:1031100005464146D8E7D0F80080B8F1000F0FD03F
:1031200098F8003063B14668154ACDE900584B461F
:103130000821204608F078FA26B96069FFF796FF63
:103140005146D4E74B465A460821204608F06CFA0F
:10315000AB1DB2079BB209D131680A4A914205D131
:10316000324641462046FFF787FFE9E71A463146D7
:10317000204608F0F5FAE3E72AEC0000A4E400009A
:1031800010EC0000C40BD286F7B50F6805460E465A
:10319000EFB13846FDF728F884B2114B00930821AF
:1031A0003B46104A284608F03FFA7168E31C9BB280
:1031B00079B18A070DD108680B4A904209D10A46B5
:1031C0003168284603B0BDE8F040FFF755BF3C46E4
:1031D000E3E71A46284603B0BDE8F04008F0C0BA5D
:1031E00026EC000017EC0000C40BD28610B507498E
:1031F0000446FCF7EFFF38B105492046FCF7EAFF2B
:10320000B0FA80F0400910BD0120FCE71CEC000082
:103210001FEC000008B5044807F02EFA034807F039
:103220002BFA002008BD00BF33EC000068EC000062
:10323000014806F051BC00BF18DE000038B5044656
:1032400018B90F4B0F485B6898476168B1F5683F44
:1032500010D0B1F5680F0DD00B4DA9420AD011F472
:103260006861206807D00146084809F063FE002322
:103270002360656038BD14220AF00EFAF9E700BF3A
:103280003405002096EC00002C5F5CA9A0240020EF
:1032900008B520B34368B3F5683F10D10122036835
:1032A000BFF35B8F53E8001F002903D143E80020E0
:1032B0000028F7D1BFF35B8F0DD1002008BD094A6C
:1032C00093420AD000684FF0FF324FF0FF3305F011
:1032D000C3F80028F1D00448F0E70448EEE76FF4A3
:1032E000E040EBE72C5F5CA9E98FFFFFEA8FFFFF6F
:1032F00008B5D8B14368B3F5683F10D10022036820
:10330000BFF35B8F53E8001F012903D143E800207E
:103310000028F7D1BFF35B8F0BD1002008BD074A0F
:10332000934208D0006805F00FF9F6E76FF4E0402B
:10333000F4E70348F2E70348F0E700BF2C5F5CA91D
:10334000E98FFFFFEA8FFFFF10B5044618B91D4B48
:103350001D485B6898476368B3F5683F2FD0B3F5A5
:10336000680F2CD0194A934219D1236803BB18481F
:103370004FF0FF324FF0FF33214605F03FF808B918
:1033800023681BB90F4B13485B68984720681422C9
:1033900000210AF081F94FF46863636008E0B3F537
:1033A000683F0DD83A2B03D040F6BA629342DED183
:1033B000206809F00AFE636843F03A03636010BDB9
:1033C000054AF3E73405002096EC00002C5F5CA969
:1033D000A0240020BCEC00003A00003A08B50649E1
:1033E00006484023142209F097FDBDE8084004492F
:1033F000044806F0E3BB00BFA01F0020A02400206B
:1034000020DE000034DE000008B50348034A002136
:10341000121A08F013FA08BDB00600200C5900205B
:103420000748084A084908B5121A08F009FA074877
:10343000074A0849BDE80840121A08F001BA00BF5F
:1034400000000020B0060020E0FC0000000000208A
:1034500000000020E0FC00002DE9F047054600AF29
:103460000C46002963D0DFF808A1DAF800305A07CB
:103470005DD06E468AB0D1E90001A3686A46DFF8E4
:10348000F480DFF8F4C0C2F814C04FF00609C2E9B6
:103490000680C2E9081342F8109F00234FF44151FF
:1034A0005046FEF75DFADAF800305B07B5463ED0CD
:1034B0008AB0D4E9030163696A46DFF8C0C0536289
:1034C000C2E905C8C2E9070142F8109F002350462F
:1034D0004FF44151FEF744FADAF800305807B54688
:1034E00025D088B0E3696A462549D3614FF00409C5
:1034F000C2E9051842F8109F00234FF401515046CD
:10350000FEF72EFADAF800305907B5460FD088B02A
:10351000A3696A461B49D361C2E9051842F8109FA6
:1035200000234FF401515046FEF71AFAB546012D1B
:1035300017D1EFF305830E480268520711D06E468B
:1035400088B06A4610495161103BD3610F499161BF
:10355000042342F8103F00234FF40151FEF700FA14
:10356000B5462146284604F081FDBD46BDE8F087FA
:103570001C060020ABED0000E9EC00001CED000093
:103580004FED000062ED000094ED0000B4ED00008E
:1035900030BFFFF7FDBF00BF2DE9F0410B4EDFF854
:1035A000308006EB0807CC1B054632460949204609
:1035B0000AF04AF8A01942460021083C0AF06CF8CB
:1035C000C5F8B44007F10800BDE8F0810000000034
:1035D00008000000FCDC0000054B5A699B689A4219
:1035E0001FBF044A536843F080535360704700BFC5
:1035F000A425002000ED00E02DE9F041694C23688E
:103600000646580700AF0D460FD0E84688B06A4618
:10361000654B5361654B9361032342F8103F4FF4B0
:10362000C251204608F019F9C546614B9B6AD9047E
:1036300040F19D8023685A070FD0E84688B06A465B
:103640005C4B5361594B9361032342F8103F55483B
:103650004FF4C25108F001F9C5461720544B9B6A3C
:103660001B0513D5236858070FD0E84688B06A4673
:10367000514B53614D4B9361032342F8103F49482E
:103680004FF4C25108F0E9F8C5461820484B9B6A30
:10369000990532D523685A070FD0E84688B06A46A4
:1036A000464B5361414B9361032342F8103F3D4821
:1036B0004FF4C25108F0D1F8C5463D4B996B9B6A57
:1036C0001B0419D52368580710D0E84688B06A460D
:1036D0003B4B5361354B3348C2E90631042342F872
:1036E000103F4FF4015108F0B8F8C54626B1304AF2
:1036F000936A23F40043936219202D4B9B6A5A0569
:1037000013D523685B070FD06E4688B06A462D4BF1
:103710005361264B9361032342F8103F21484FF435
:10372000C25108F09AF8B5461A20214B9A6AD6057C
:103730001FD5236859070FD06C4688B06A46224BC4
:1037400053611A4B9361032342F8103F15484FF41D
:10375000C25108F082F8A5461B20154A936A43F42B
:103760007F43936200232B70BD46BDE8F081162095
:1037700074E79B6A9A04F0D523685B070FD06C4608
:1037800088B06A46114B5361084B9361032342F89A
:10379000103F04484FF4C25108F05FF8A5461C20C2
:1037A000DBE700BF1C060020C6ED0000A1F1000011
:1037B00000ED00E0E0ED0000F5ED00000CEE000093
:1037C00029EE000042EE000061EE00007DEE0000F8
:1037D000B0B5584C23685D0700AF0FD06D4688B078
:1037E0006A46554B5361554B9361032342F8103F92
:1037F0004FF4C251204608F030F8AD46504B9B6A5A
:10380000980140F19580236859070FD06D4688B024
:103810006A464C4B5361494B9361032342F8103F76
:1038200044484FF4C25108F018F8AD461E20444BEE
:103830009B6ADA0113D523685B070FD06D4688B009
:103840006A46414B53613D4B9361032342F8103F5D
:1038500038484FF4C25108F000F8AD461F20384BED
:103860009B6A1D0313D5236859070FD06D4688B096
:103870006A46364B5361314B9361032342F8103F44
:103880002C484FF4C25107F0E8FFAD4621202C4BE5
:103890009B6A5A0313D523685B070FD06D4688B027
:1038A0006A462B4B5361254B9361032342F8103F2B
:1038B00020484FF4C25107F0D0FFAD462220204BE4
:1038C0009B6A9D0313D5236859070FD06D4688B0B6
:1038D0006A46204B5361194B9361032342F8103F12
:1038E00014484FF4C25107F0B8FFAD462320144BE3
:1038F0009B6ADA0313D523685B070FD06C4688B048
:103900006A46154B53610D4B9361032342F8103FF8
:1039100008484FF4C25107F0A0FFA5462420084AEA
:10392000936A6FEA03436FEA13439362BD46B0BDE7
:103930001D207CE71C060020B0EE000095F1000081
:1039400000ED00E0CCEE0000E3EE000001EF00002F
:1039500023EF00004CEF00006AEF00002DE9F04774
:103960006E4D2B688A46590700AF814690460FD0AE
:103970006C4688B06A466A4B53616A4B9361032375
:1039800042F8103F4FF4C251284607F066FFA546A3
:10399000654B9B6ADA0665D52B685B070FD06C46D2
:1039A00088B06A46614B53615E4B9361032342F8D2
:1039B000103F5A484FF4C25107F04FFFA54611245B
:1039C000594B9B6A1E0713D52B6858070FD06C46BE
:1039D00088B06A46564B5361524B9361032342F8B9
:1039E000103F4E484FF4C25107F037FFA54612244E
:1039F0004D4B9B6A990737D52B685A070FD06C46F9
:103A000088B06A464B4B5361464B9361032342F89F
:103A1000103F42484FF4C25107F01FFFA546424BEA
:103A20005E6B9B6A1B0676D52B685C0710D06C46D4
:103A300088B06A46404B53613A4B3848C2E9063673
:103A4000042342F8103F4FF4015107F006FFA5464A
:103A5000BAF1000F04D0344A936A23F080039362D2
:103A6000132403E01024ABE76FF015062E4B9B6A7E
:103A7000D80713D52B6859070FD06C4688B06A4613
:103A80002E4B5361274B9361032342F8103F234889
:103A90004FF4C25107F0E1FEA5461424224B9B6A65
:103AA0009A0613D52B685B070FD06C4688B06A4620
:103AB000234B53611B4B9361032342F8103F17487C
:103AC0004FF4C25107F0C9FEA5461524164B9A6A59
:103AD000D50602D49A6A90070AD55B68190507D5FE
:103AE0004946304600F0FAFA10B180F30988022402
:103AF0000D4B9A6A920642BF5A6A22F400525A62E9
:103B00009A6A42F0FF029A622046002388F8003049
:103B1000BD46BDE8F0876FF01506A1E71C06002042
:103B200099EF0000ABF1000000ED00E0B3EF000002
:103B3000F5ED0000EAEF000006F0000020F00000C4
:103B40007DEE00002DE9F0419D4B8AB0D3F8048052
:103B500000AF0446C8F30806002585F31188BFF3BB
:103B60006F8F02F07F43B3F17F4F16D102F00C0349
:103B7000082B26D19348036859070ED06C4688B0AD
:103B80006A46914B5361914B9361032342F8103F76
:103B90004FF4C25107F061FEA54600252C460023D4
:103BA000FB71F31E092B00F2E580DFE813F00F0034
:103BB000CB00CE00C700E300E300E300E300E30036
:103BC000D10012074CBF0C460125E8E77D4E336853
:103BD0005B070FD0E84688B06A467D4B53617D4B4A
:103BE0009361032342F8103F4FF4C251304607F06F
:103BF00034FEC5460023FB71714BDA6A900714D579
:103C0000336859070FD06E4688B06A46724B5361CD
:103C1000704B9361032342F8103F6A484FF4C2513E
:103C200007F01BFEB546002358E0DA6A002A07DADF
:103C300033685A07F7D06E4688B06A46674BE6E7A6
:103C4000DB6A5B00EFD5336858070FD0E84688B0D1
:103C50006A46634B53615F4B9361032342F8103F05
:103C600058484FF4C25107F0F8FDC546544BA169BE
:103C70005A6942F480725A61BFF34F8FBFF36F8F5E
:103C80005A6931F8021C22F480725A61BFF34F8FD7
:103C9000BFF36F8F4DF60272914209D09A6AD2B289
:103CA000002A3DD0FA1D01212046FFF757FE47E0CC
:103CB0003368590711D06E4688B023686A4649496F
:103CC000516144493F48C2E90613042342F8103FBA
:103CD0004FF4015107F0C1FDB5462368FA79DAB90E
:103CE00007F1080604F1200C20686168324603C21F
:103CF000083464451646F7D17A6A002D5BD0C2F3CA
:103D0000080121B96FEA52226FEA42227A6207F172
:103D100008011846FFF7A0FB2837BD46BDE8F08133
:103D20009A6A12F47F4F04D0F91D0120FFF764FC5A
:103D300006E09B6AB3F5803FFFF475AFFFF748FDDF
:103D40000346CBE7FA1D0021AEE7F91D0020EDE7A1
:103D50001C4803685A073FF466AF6E4688B06A464F
:103D6000214B5361214B9361032342F8103F4FF4E1
:103D7000C25155E7134803685B073FF454AF1C4A30
:103D80001C4B18F4F87FE8468AB018BF13466A4601
:103D9000194951611949C2E9061340F2013393846C
:103DA000103E174B16624FF4315142F8103F07F0A6
:103DB00054FDC54637E722F4FF7222F00102A5E761
:103DC00000ED00E01C06002071F00000C7F10000CB
:103DD000A0F00000BCF10000BBF00000E0F000002B
:103DE000F2F0000015F1000035F1000087F100004D
:103DF00058F0000043F000005DF1000074F1000095
:103E000005000001044B5A6942F010025A615A69D8
:103E100022F008025A61704700ED00E0EFF30880DD
:103E2000EFF3098101B57246FFF78CFE01BD00BFBB
:103E3000002080F31488BFF36F8F134880F3088845
:103E400003F002F8002011490860BFF34F8F00F023
:103E500033F8202080F311880D484FF0AA014FF469
:103E6000825207F0EBFC0A484FF48251401880F36D
:103E70000988EFF314800221084380F31488BFF30C
:103E80006F8F00F0FBF80000409A002094ED00E0F6
:103E9000C07100200749D1F890200023C2F3072207
:103EA0001846934200DB7047C1F89830C1F8A00073
:103EB0000133F6E700ED00E008B572B6002383F3A6
:103EC0001388FFF7E7FF144B4FF0FF32C3F8802051
:103ED000C3F88420C3F88820C3F88C20C3F890204E
:103EE000C3F89420C3F89820C3F89C20C3F880211D
:103EF000C3F88421C3F88821C3F88C21C3F890212A
:103F0000C3F89421C3F89821C3F89C2162B6BFF38B
:103F10004F8FBFF36F8F08BD00E100E0084B9B6837
:103F200083420BD1EFF3058343B1064B5A6842F04D
:103F300080525A605A6A22F400425A6205F080B9EF
:103F4000A425002000ED00E015498A684FF03000FC
:103F50001044EFF3098C80E8F01F202080F31288D2
:103F6000BFF36F8F0F4F4FF000664A698A603E6063
:103F7000D2F8B4000C4C2060D2F8B8000023C2F88C
:103F8000B83080F3118804B5104600F00FF9BDE891
:103F9000044002F1300090E8F01F8CF3098870476C
:103FA000A425002004ED00E0BC2400201EF0040F36
:103FB0000CBFEFF30880EFF30980816911F8021C50
:103FC0000229FFD001B5724607F03CFC01BD00BFDD
:103FD00040B2002807DB044A4109012300F01F001A
:103FE000834042F82130704700E100E040B20028F1
:103FF0000CDB4309064900F01F00203301228240F8
:1040000041F82320BFF34F8FBFF36F8F704700BF7E
:1040100000E100E0054B420900F01F0053F82220A8
:10402000012303FA00F01040704700BF00E100E0F8
:1040300040B20028A8BF00F1604001F10101B8BF03
:10404000064B4FEA4111ACBF00F5614000F00F0094
:10405000C9B2B4BF195480F80013704714ED00E0E2
:10406000044B054A23F07F039360BFF34F8FBFF3E8
:104070006F8F70470000000000ED00E008B5FFF70B
:10408000EFFF074AD2F8883023F47003C2F8883073
:10409000FFF7BAF9FFF7C4F900F05EF804F034F95D
:1040A00000ED00E042F8203C009B42F81C3C0A492D
:1040B000019B42F8183C029B42F8143C21F001019C
:1040C0004FF0807342F8043C42F8081C0023203A69
:1040D0000265C0F8B8307047DD0F00000A4A034699
:1040E000906878B113F1160FD0F8A40005D0A0F1B4
:1040F00040029A4205D8834203D2814228BF002061
:1041000070470020704700BFA425002008B5154661
:104110000C4A0D4B9060D0F8B4201A600E4600F0A7
:1041200045F82C4686F309880020044B9847204622
:10413000002100220023024C204700006FB800003D
:10414000DD0F0000A4250020BC240020014B10221C
:104150001A61704700ED00E0044800232021C218D6
:104160000133302B82F80013F9D1704700E100E0F1
:1041700008B5EFF30583064A103B02EBC30152F882
:10418000330049688847BDE80840FFF725BA00BFFB
:10419000A4D80000024B034A0348012100F0BCB838
:1041A000000004200000002044DE0000D0F8A4201D
:1041B000054B403A1A60054A4021C3E901121846EE
:1041C000012100F0B3B800BFC024002000000B158F
:1041D00098B503460C480268520700AF10D06C46F1
:1041E00088B06A46094951610949C2E906130423A6
:1041F00042F8103F00234FF40151FDF7B1FBA546F3
:104200006FF01500BD4698BD18060020D3F10000E0
:1042100024F2000010B40E4CD4F89030C3F30723FE
:10422000013B984202D910BCFFF7D2BFC4F89800F6
:104230000B6823F01F03034343F01003C4F89C30C2
:104240008B6843F00103C4F8A03010BC704700BF76
:1042500000ED00E02DE9F04184B00E4600AF984635
:1042600004460025B5421FDA6068002835D0B8F151
:10427000000F23D0411E08421BD0194803685B077A
:1042800010D06C4688B06A46164B5361164BC2E993
:104290000635042342F8103F00234FF40151FDF787
:1042A0005FFBA5466FF0150210461037BD46BDE80E
:1042B000F0811F28E1D923681942DED123687B6091
:1042C00007F0F8FAA368391D0343D0B2FB60FFF78B
:1042D000A1FF10F1160FE5D0421C01350C34C1E7E7
:1042E00018060020FDF100003DF20000044B0522FD
:1042F000C3F89420BFF34F8FBFF36F8F704700BF99
:1043000000ED00E0BFF35F8F024B0022C3F8942062
:10431000704700BF00ED00E010B5034C0123227888
:10432000FFF798FF207010BDF738002008B50B4A42
:1043300000231278FFF78EFF10F1160F07D0084AFE
:104340000021D2F89030C3F30723984200DB08BD68
:10435000C2F89800C2F8A0100130F2E7F738002048
:1043600000ED00E02DE9F0435E485F49D0F8903061
:104370000D68C3F307239D4285B000F2B080FFF7BC
:10438000C1FF49680022954201F10C011BD1574C35
:10439000574F25706846FDF7CBFEDFF85881DFF8F0
:1043A000589106460025AE4220D123784D49002081
:1043B000D1F89020C2F307229342C0F28A80FFF71F
:1043C00095FF00204FE0C0F8982051F80C3C23F0F6
:1043D0001F03134343F01003C0F89C3051F8043C12
:1043E00043F00103C0F8A0300132CCE7009800EBA5
:1043F00005114FEA051CCB683B40B3F5000F49D0CF
:104400000AD8B3F5001F31D0B3F5800F37D0B3F51C
:10441000801F13D00135C6E7B3F1007F43D0B3F15D
:10442000805F49D0B3F1807FF4D150F80C308868B8
:104430004A6807F03FFA40F0887009E050F80C3005
:1044400088684A6807F036FA40F0885040F4302017
:10445000039001A92078CDE90123FFF7DBFE0028B6
:1044600033DA6FF0150005B0BDE8F08350F80C307A
:1044700088684A6807F01EFA40EA0900E8E750F841
:104480000C3088684A6807F015FA40F0007040F474
:104490000030DDE750F80C3088684A6807F00AFA07
:1044A00040F08270D4E750F80C3088684A6807F012
:1044B00001FA40F48020CBE750F80C3088684A6855
:1044C00007F0F8F940EA0800C2E7237801332370C7
:1044D000A0E7C1F89830C1F8A000013368E74FF0B9
:1044E000FF30C0E700ED00E050DE0000F7380020AC
:1044F0000000F0FF0000021100000811F0B587B0C5
:1045000007460E4614460021102268461D4609F053
:10451000C3F802238DF802302A46054B0193214649
:104520006846CDE9047605F011FD07B0F0BD00BF87
:10453000D5B8000008B5024B1B689847002008BD9D
:10454000CC240020034B044A1860937843F0020304
:1045500093707047CC2400209803002008B50649CA
:10456000064821F00701C1F1005202F5802205F052
:10457000D3FF002008BD00BFC7CA0020D024002000
:10458000044A0123C2F840354FF080420020C2F8AF
:104590007835704700E0014048B1054B054A1B687B
:1045A000B3FBF2F35843044B43F001031847704741
:1045B0002005002040420F0000DD0000BFF34F8FB8
:1045C0000549064BCA6802F4E0621343CB60BFF3AF
:1045D0004F8F00BFFDE700BF00ED00E00400FA05CB
:1045E000084B70B5C31A0D4607499B100446594342
:1045F0000648402207F082F92B4601462046BDE8D6
:1046000070401847F0240020B76DDBB68CD700004F
:1046100073B50C4C0C4A4023041B00930D460B460B
:104620000A49A41061430646094807F092F9011EA1
:1046300005DA30462B4602B0BDE87040184702B09C
:1046400070BD00BFF0240020BBB90000B76DDBB621
:104650008CD700000022F8B5012105461046FFF76F
:10466000E7FC104802F0E0FC0446B8B902F0FCFC9C
:104670002F690D49384606F0CCFA031E09DB0126E6
:104680003E642D69084905F11C0006F0C2FA031EBC
:1046900002DA1C462046F8BDEE64FBE76FF0040426
:1046A000F8E700BFD947000070DE00001FB5002208
:1046B0000123CDE90223094ACDF800D06B46CDF89D
:1046C00004D007F073F9002805DB4FF48042002383
:1046D000684603F0BDFF05B05DF804FBCDB90000EE
:1046E00010B5EFF31184202383F31288BFF36F8F8B
:1046F000074A136823F00201DB07116002D401208E
:1047000007F02AFE84F31188BFF36F8F10BD00BF3E
:104710004025002030B4104B0C2202FB0033014630
:104720000020D3E90E529863EFF31180202484F324
:104730001288BFF36F8F1C6C04F0C00444F00204B5
:104740001C6480F31188BFF36F8F1DB12B460348A3
:1047500030BC184730BC7047F02400208CD70000D4
:1047600010B4EFF31182202383F31288BFF36F8F0D
:104770001748016841F002040460C80707D482F3B7
:104780001188BFF36F8F012010BC07F0DDBD4FF023
:104790008041D1F80C04D1F80C14C907EFD5EFF320
:1047A000118083F31288BFF36F8F0A490B6C03F0FB
:1047B000C00343F002030B6480F31188BFF36F8FD3
:1047C00082F31188BFF36F8F002010BCFFF7A2BFE8
:1047D00040250020F024002010B1012804D07047AB
:1047E000034B1B6C5B0701D1FFF794BF704700BF01
:1047F000F02400202DE9F0413849BFF35B8F0746D4
:10480000012251E8003F41E800200028F9D1BFF320
:104810005B8F33B9324933484B60CB608A6006F016
:104820000BFA7B1E012B2BD8012F07D14FF08043B1
:10483000D3F81C3403F00303012B21D008F069FCEA
:104840000546F8B9284B1B78E3B14FF080430222AC
:10485000C3F808230646DFF894804FF08044D4F86C
:104860001824D4F81834D20315D503F00303012B10
:1048700001D0012F0FD155B386F31188BFF36F8F8D
:10488000BDE8F081EFF31186202383F31288BFF394
:104890006F8F0125DFE7ADB1304606F0FCFFD4F89D
:1048A0001835002BDBD1D4F80421002AD7D0C4F866
:1048B0000431D4F804310123C4F81835C8F8803124
:1048C000A360CCE70021212008F0D3FCE7E74FF0FC
:1048D00080430222C3F80423D2E700BFEC24002067
:1048E000DC2400200C2500200A59002000E100E013
:1048F00010B5044C2046FCF76BFB2046FFF722FE68
:10490000002010BD0949000073B5104E8DF8070056
:104910000446032501220DF10701002003F012FBDC
:1049200020B101233370204602B070BD3378002BD4
:10493000F9D0013D08D008F0ECFB0028EAD10021B5
:10494000422008F096FCE5E73570ECE7F8380020E7
:10495000024B0B6001231360704700BF4425002009
:104960000048704794DE0000B0B503460D48026869
:10497000520700AF11D06C468AB06A460A4D5561A5
:104980000A4D1162C2E90653052342F8103F002385
:104990004FF42151FCF7E4FFA5466FF01500BD462A
:1049A000B0BD00BF000600208FF20000F5F200004D
:1049B00010B5012211460648064C08F00DFB07F021
:1049C000E0FF206007F0D9FF6060002010BD00BF4D
:1049D0004C250020442500204FF08042D2F81015CD
:1049E000D2F8103501F01E0123F01F030B4343F0F2
:1049F0000103C2F81035024B00221A70704700BF45
:104A0000F93800204FF08053D3F83031082B20D1F3
:104A10004FF08042D2F81015CB071AD5D2F81035D6
:104A200001F01E0123F01F030B43C2F81035D2F82A
:104A300008315BB1D2F8103523F01F030B4343F06C
:104A40000103C2F810356FF08B007047024B012252
:104A50001A700020704700BFF93800202DE9F84394
:104A600000AF8946154607F088FF294606464846A6
:104A700006F0BCFF034600284AD0B9FBF6F306FB5C
:104A80001393C84623B9B5FBF6F406FB1454C4B11E
:104A900028480368590711D06C468AB06A46264BED
:104AA0005361264B1562C2E90639052342F8103FCF
:104AB00000234FF42151FCF753FFA5466FF0150476
:104AC0001FE0B5421DD34FF0FF324FF0FF331C48BB
:104AD000DFF8709003F0BCFD07F04FFF0646FFF7CC
:104AE00091FF044688B9404602F070FD99F8003005
:104AF0000BB1FFF771FFAD1BB044F0D1104803F0CC
:104B000073FD2046BD46BDE8F8836FF08B04F5E7E2
:104B1000084802685207D1D06C468AB06A460A49F2
:104B2000516106491562C2E90619052142F8101FB4
:104B3000BFE700BF00060020B0F2000014F3000041
:104B40004C250020F93800208FF200002DE9F047B5
:104B50000E4600AF194630461C46904606F046FF0A
:104B60000346D0B92F480268510710D06D468AB06D
:104B70006A462D4951612D491462C2E90616052184
:104B800042F8101F4FF42151FCF7EAFEAD466FF0DA
:104B900015042046BD46BDE8F08744EA060515F039
:104BA000030511D01F4803685A07F0D06D468AB03C
:104BB0006A461F4B53611D4B1462C2E9063605233A
:104BC00042F8103F0023DDE7002CE2D01948DFF85F
:104BD00068A04FF0FF324FF0FF3303F039FD631947
:104BE000032BA6EB050909D8144AD2F80034DB07D9
:104BF000FBD500240F4803F0F7FCCAE7FFF702FFDC
:104C000060B9A8EB05034846196802F0FBFC9AF866
:104C100000300BB1FFF7E0FE043DE0E76FF08B04DE
:104C2000E8E700BF000600208FF2000004F3000058
:104C3000D3F200004C250020F938002000E00140AC
:104C4000F0B544681646A068227C01F01F0587B0C5
:104C500045EA421500286DD0B6F5001F04D129465B
:104C600007F081FE002056E06268607CC2F82405EF
:104C700001AA0020B6F5800F0190506037D1B3F142
:104C8000007F14BF052304238DF804300023CDE9F1
:104C900004230393E36823FA01F111F001010DF1FC
:104CA00003073AD1B6F1A07F37D105F01F036A0997
:104CB00003F5E07326D0012A3FD1214A52F8233070
:104CC000DB072AD4A0683A46294607F0C2FD163011
:104CD0001BD00297A06803AA294607F086FC00288B
:104CE00019DBA0680122294607F0EAFDBAE7B3F113
:104CF000C06F05D0B3F1007F14BF01230223C3E7C7
:104D00000323C1E74FF0A042D8E7A068394602F07C
:104D10005DFB0028DDDA07B0F0BDA0683A46294601
:104D200007F097FD0028D5D19DF80310A06802F088
:104D300047FBCFE76FF08500EDE751F82330FFDE4A
:104D400000030050420970B5034602D0012A17D073
:104D500070BD0D4E326951680029F9D003F01F0370
:104D600001250C689D400029F2D08A682A4002D0B3
:104D70004B68304698472CB1236821461C46F2E721
:104D8000024EE7E72346F8E7C4D70000A8D70000A3
:104D900038B54568A86890B107F08AFD014670B93A
:104DA000A86807F069FD044658B902460649A86894
:104DB00007F04CFD224605210620FFF739F90020B7
:104DC00038BD6FF00400FBE7454D00002DE9F043CE
:104DD000476840F20636D0063B7C87B002EA0606FA
:104DE00054BFC2F3401C4FF0030C01F01F05B6F591
:104DF000837F144645EA43158DF803C045D00DD88E
:104E0000062E16D005D8A6B1022E40D06FF01500A0
:104E100038E0B6F5807FF9D101260AE040F202229F
:104E2000964236D0B6F5407F35D0B6F5007FEDD14D
:104E300002260123220303FA01F12ED57B68C3F871
:104E40000815B86890BB05F01F036D092BD0012D24
:104E500075D13D4A02EB830284F48033D2F8001707
:104E6000C3F30043C4F3404444EA430421F4E16142
:104E700044EA8C0421F0070144EA06230B43C2F8FC
:104E80000037002007B0BDE8F0830726D1E70426ED
:104E9000CFE70526CDE70326CBE7630344BF7B6856
:104EA000C3F80C15CDE74FF0A042D3E70DF1020295
:104EB000294607F0CEFC14F4403F80460CD1B86878
:104EC000294607F0FBFCB8F1000FDAD19DF802107B
:104ED000B86802F075FAD4E74FF0000901ABCDE9EC
:104EE0000199CDE90439CDF80C90B86803AA294698
:104EF00007F07BFB4845C4DB14F4003314D084F482
:104F000080349DF803308DF80E30C4F300448DF8E2
:104F10000C608DF80D40B8684B4603AA294607F08F
:104F20001CFC0028CFDAACE7CDE904330DF1030314
:104F30000393B86803AA294607F057FBF1E703F586
:104F4000E07350F82330FFDE000300502DE9F047F6
:104F50004668336800AF05461BBB484802685107E6
:104F600016D06C468AB029686A46DFF814C1C2F8C8
:104F700014C0DFF810C1C2E906C140F2013111844A
:104F8000414942F8101F4FF41151FCF7E9FCA546C6
:104F90006FF012043368002B36D12046BD46BDE8C1
:104FA000F0870024F6E7354803685907F5D06D46C9
:104FB00088B06A46354B5361324BC2E9063404234C
:104FC00042F8103F00234FF40151FCF7C9FCAD46F5
:104FD000E3E72A480268520713D06C468AB0296872
:104FE0006A462B4D5561274DC2E9065140F2013109
:104FF0001184254942F8101F4FF41151FCF7B0FC01
:10500000A5466FF01204C8E7002CFAD1A0464FF075
:105010000109746854F8380004EBC80A07F04FFF20
:1050200003460028D5D054F838009AF80410BAF88E
:105030000630D0F810C0D0F808A0DCF80040DA073D
:1050400054BF43F4B01383F4D01323F4801209FA4D
:1050500001FEDB074CBF44EA0E0424EA0E04CCF840
:105060000040DAF800309847044600289BD13368A6
:1050700008F101089845CCD38FE700BF0406002053
:1050800064F30000D4F300000400000193F3000077
:10509000B6F300002DE9F04145682B6800AF0246E9
:1050A000002B37D11C480168490713D06C468AB0E1
:1050B00011686A46194D5561194DC2E9065140F211
:1050C00001311184174942F8101F4FF41151FCF7B8
:1050D00047FCA5466FF01200BD46BDE8F081D5F84B
:1050E0000480260158F8060007F0E9FE034658B987
:1050F000094802685207EDD058F806206C468AB07D
:1051000011686A46084DD6E701342B689C42E6DBFD
:105110000020E1E70024F8E70806002064F300001F
:1051200012F4000004000001F5F30000036803F02E
:105130001F025B09026004D0012B034818BF002046
:1051400070474FF0A0407047000300502DE9F04F2A
:10515000DFF87081DFF8709185B09246834600EBEE
:10516000810140F2FF17594503D1002005B0BDE889
:10517000F08FDBF800305804C3F3C322C3F30804F4
:1051800000F19980BC4218F802604FEA136312D014
:10519000192B1DD94E2B40F09180CAF8144503A855
:1051A0000394FFF7C3FF039B012505FA03F3C0F83F
:1051B00008352A4643E0192B08D94E2B7ED14FF0F3
:1051C000FF33CAF814350BF1040BCCE74FF0FF3472
:1051D000032B73D9043B152B70D8DFE803F00B11B8
:1051E000216F6F6F6F27546F6F6F6F6F6F6F6F6F80
:1051F00057636669631CCAF80845E4D0002504E0DB
:10520000651CCAF80C45DED0012503A80394FFF7FE
:105210008DFF039B012202FA03F3C0F80C350EE068
:10522000CAF81045631CCED00025C2E7CAF808456D
:10523000002EF7D1601CC6D000252A460626DBF8D2
:105240000030019303F40040002818BF002203A897
:10525000009218BF01250394FFF768FF039C019B90
:10526000009A00EB8400C3F3412CD0F800473302CE
:1052700043EA8C03134304EA0904234343EA450346
:10528000C0F800379FE7CAF80C45D1E7CAF8604577
:10529000621CDBF8003096D0C3F30043002B7FF490
:1052A0007EAFB1E7CAF86445F2E7CAF86845EFE7B0
:1052B000CAF86C45ECE76FF0150057E76FF0850012
:1052C00054E700BF30F40000F0F8FCFF036803F07F
:1052D0001F025B09026004D0012B034818BF0020A5
:1052E00070474FF0A040704700030050F0B50446EF
:1052F00083B0002200AF01211C20FEF799FE236934
:10530000304A6168184607F0AFFB051E1CDA2E48CC
:1053100003685B0714D023686C468AB06A462B4941
:1053200051612B49C2E9061340F201331384294B22
:1053300042F8103F00234FF41151FCF711FBA54632
:1053400028460C37BD46F0BD636825691E6B3A1DC3
:105350000021304606F02CFC002805DB7B68326813
:1053600019791868FFF7F2FE002631462B6801F51F
:10537000AC7253F82230002B0EDB7B60381DFFF738
:10538000A5FF7A68D0F80435D34013F001031CBFA1
:1053900001238B403343DEB201310429E6D10023DF
:1053A00001206268116A00FA03F232420CBF012246
:1053B0000022D20321F813200133042BF1D1002560
:1053C000BEE700BFD7BB00002006002038F4000075
:1053D000BCF40000040000012DE9F04383B000AFED
:1053E0000329B7F828C04668046905460CF0010C8B
:1053F00012D9654803685C0738D06C4688B06A46A5
:10540000624B5361624BC2E90631042342F8103FFC
:1054100000234FF4015126E0B07D01284FF0010830
:1054200004BF5B08520808FA01F8002B00F08280E4
:105430009A4240F28280A06982422CD0207F30EADA
:10544000080019D0504803685A070FD06C4688B03E
:105450006A46504B5361504B9361032342F8103F0F
:1054600000234FF4C251FCF77BFAA5466FF01500FC
:105470000C37BD46BDE8F0839646BEF5004F46D2D8
:10548000A2616077226896F81690C2F80C05C2F8FF
:105490000495C2F808E5627F23FA02F292B24FF057
:1054A000010E68688CF00109006A42EAC93220F8EE
:1054B00011205FFA88F8BEF1000F4DD1226801F586
:1054C000AC7152F82120002A10DBBCF1000F57D03C
:1054D000B3FA83F35B09002B34D17A60381DFFF7F0
:1054E000F5FE7A6801239340C0F80C35217F21EA4C
:1054F00008012177002934D0A37F002B38D1102355
:10550000012206F12001204607F0C0FA2EE001300A
:1055100008284FEA5E0EB0D11B4803685B07A5D090
:105520006C4688B06B461D4959611B49C3E9061298
:105530001A466AE79E461A46B3E74FF0000E47F652
:10554000FF72AEE77A60381DFFF7C0FE7A6801236C
:105550009340C0F80835C9E7237F48EA030323775F
:10556000CAE7286907F0CAFA0123A37700207FE77A
:105570000023A377204607F0DBFA0028FAD0BEE725
:10558000003B18BF0123A6E7200600205CF40000C2
:10559000E3F4000075F40000CAF400008EF400008B
:1055A0002DE9F0474568D0F81080012100AF06468C
:1055B000686B06F032FBE96B481C35D0A86B06F02F
:1055C0000AFC10F1130F044618D1424803685A0729
:1055D0000ED06C4688B06A463F4B53613F4B936197
:1055E000032342F8103F4FF4C25106F013FBA546C7
:1055F0006FF012042046BD46BDE8F087431D13D16D
:10560000344803685D07F5D06D4688B06A46344B70
:105610005361324B9361032342F8103F4FF4C25160
:1056200006F0F8FAAD46E5E7EB6A9847D8F830504F
:105630004FF00109D8E90C3203EBC2039D420AD3B3
:1056400008F1280006F02CFB73680021586B06F067
:10565000E4FA0024CEE7286807F031FCC0B91D4801
:1056600003685907C4D02B686C468AB019682B7937
:105670006A461C4D556113621B4D40F20133938401
:105680001A4BC2E9065142F8103F4FF43151ACE7D2
:1056900028682979EB88D0F810C0D0F808A0DCF889
:1056A0000040DA0754BF43F4B01383F4D01323F45B
:1056B000801209FA01FEDB074CBF4EEA040424EA1B
:1056C0000E04CCF80040DAF800309847041E91DB55
:1056D0000835AFE7300600200DF5000014F7000094
:1056E0003CF500005DF50000F7F600000500000144
:1056F000B0B5027800AF034642B90C69D4F88020F7
:1057000032B9E06F6FF0730106F0F3FABD46B0BD39
:10571000606F48B1A16F39B1DB682BB1834203D010
:10572000D4F88C1007F090FF236FD4F88020A3B139
:105730009A422FD9304803685A070ED06D4688B078
:105740006A462E4B53612E4B9361032342F8103F60
:105750004FF4C25106F05EFAAD46A36FD4F8802034
:10576000A3B19A422FD9244803685B070ED06D4637
:1057700088B06A46214B5361224B9361032342F860
:10578000103F4FF4C25106F045FAAD46E06F06F007
:10579000C2FABBE79B1A23677BB9E36D0833E36565
:1057A000236E013B236604F1700204F1600104F1F1
:1057B0005C0006F01CFAE066CFE7E36E002BCCD06D
:1057C0001344E366C9E79B1AA3677BB9636E08338A
:1057D0006366A36E013BA36604F1780204F16801DD
:1057E00004F1640006F003FA6067CFE7636F002BF3
:1057F000CCD013446367C9E73006002085F500006C
:1058000058F7000042F700002DE9F04F8FB000AFCD
:105810009A464368FB608B8804698946990406466A
:10582000934640D44FF0FF324FF0FF3304F138007D
:1058300002F00EFFC4F82C907568D6F810802B6823
:105840007B6098F8853023B1D8F82830994500F06E
:105850005481B9F804E01EF4006F2BD08A48036825
:105860005A070ED06D4688B06A46884B5361884B04
:105870009361032342F8103F4FF4C25106F0CAF976
:10588000AD466FF08505A36A13B19B889B0405D4D0
:105890000023E36204F1380002F0A6FE28463C37FC
:1058A000BD46BDE8F08F236C002BBBD1E36A994560
:1058B000B8D1C1E71EF0010F1BD0734803685B0726
:1058C00002D16FF01505DEE76D468AB033686A468F
:1058D000704951616E49C2E9061340F201331384E5
:1058E0006D4B42F8103F4FF4115106F093F9AD465D
:1058F000E7E71EF0080F10D0634803685E07E0D0AA
:105900006D4688B06A46654B5361614B93610323D2
:1059100042F8103F4FF4C251E7E7CEF34513082B8E
:1059200008D0594803685D07CBD06D4688B06A46F9
:105930005B4BE9E7D9F80030BB60BA68594B9A4233
:1059400008D8514803685907BBD06D4688B06A46ED
:10595000554BD9E704350FCD07F1100CACE80F001B
:105960000FCDACE80F00D7E901239A4228BF1A46B1
:1059700095E803004D4B9A428CE8030017D24C4B3C
:105980009A4214D24B4B9A4211D24B4B9A4260D856
:105990004A4B9A425FD84A4B9A425ED8494B9A4248
:1059A0005DD84948494B4A49824288BF0B461EF0A0
:1059B000020F7B620EF0040353D0002B14BF0323AD
:1059C000022387F82830CEF3001387F82930D8F85F
:1059D0000030D3F808355A1C13D01EF0020F03F024
:1059E0001F00CEF340014FEA53134FF001023FD1A5
:1059F000002B3AD0934240F04981364B8240C3F8A5
:105A00000C2598F885302BB1404602F04DF8002364
:105A100088F88530304A334607F11001404607F0D8
:105A20002BF9051E64DA184803685E073FF42BAFB4
:105A30006E4688B06A46294B5361154BC2E906355C
:105A4000042342F8103F4FF4015106F0E3F8B54645
:105A500019E7234BABE7234BA9E7234BA7E7234BDE
:105A6000A5E7003B18BF0123ABE74FF0A043C5E714
:105A70003BB1012B40F00D81164B8240C3F8082545
:105A8000BFE74FF0A043F8E730060020A7F500007D
:105A90006EF70000C5F5000004000001EBF5000002
:105AA0000EF6000047E8010041F600000048E8015A
:105AB0000024F40000127A00FF083D007F841E00DD
:105AC0003F420F001FA107008FD0030048E80100EC
:105AD00090D0030000030050F156000076F600005D
